{
  "contractName": "AccessControlContract",
  "abi": [
    {
      "inputs": [
        {
          "internalType": "address",
          "name": "_hospitalRecordsContractAddress",
          "type": "address"
        }
      ],
      "stateMutability": "nonpayable",
      "type": "constructor"
    },
    {
      "inputs": [],
      "name": "hospitalRecordsContractAddress",
      "outputs": [
        {
          "internalType": "address",
          "name": "",
          "type": "address"
        }
      ],
      "stateMutability": "view",
      "type": "function",
      "constant": true
    },
    {
      "inputs": [
        {
          "internalType": "address",
          "name": "",
          "type": "address"
        }
      ],
      "name": "hospitalToPatient",
      "outputs": [
        {
          "internalType": "address",
          "name": "",
          "type": "address"
        }
      ],
      "stateMutability": "view",
      "type": "function",
      "constant": true
    },
    {
      "inputs": [
        {
          "internalType": "string",
          "name": "",
          "type": "string"
        },
        {
          "internalType": "address",
          "name": "",
          "type": "address"
        }
      ],
      "name": "patientPermissions",
      "outputs": [
        {
          "internalType": "bool",
          "name": "",
          "type": "bool"
        }
      ],
      "stateMutability": "view",
      "type": "function",
      "constant": true
    },
    {
      "inputs": [
        {
          "internalType": "string",
          "name": "_patientID",
          "type": "string"
        },
        {
          "internalType": "address",
          "name": "_hospitalAddr",
          "type": "address"
        }
      ],
      "name": "revokeAccess",
      "outputs": [],
      "stateMutability": "nonpayable",
      "type": "function"
    },
    {
      "inputs": [
        {
          "internalType": "string",
          "name": "_patientID",
          "type": "string"
        },
        {
          "internalType": "address",
          "name": "_hospitalAddr",
          "type": "address"
        }
      ],
      "name": "givePermission",
      "outputs": [],
      "stateMutability": "nonpayable",
      "type": "function"
    },
    {
      "inputs": [],
      "name": "getRegisteredHospitals",
      "outputs": [
        {
          "internalType": "address[]",
          "name": "",
          "type": "address[]"
        }
      ],
      "stateMutability": "view",
      "type": "function",
      "constant": true
    }
  ],
  "bytecode": "0x608060405234801561001057600080fd5b50604051610bfe380380610bfe8339818101604052810190610032919061008d565b806000806101000a81548173ffffffffffffffffffffffffffffffffffffffff021916908373ffffffffffffffffffffffffffffffffffffffff160217905550506100ff565b600081519050610087816100e8565b92915050565b60006020828403121561009f57600080fd5b60006100ad84828501610078565b91505092915050565b60006100c1826100c8565b9050919050565b600073ffffffffffffffffffffffffffffffffffffffff82169050919050565b6100f1816100b6565b81146100fc57600080fd5b50565b610af08061010e6000396000f3fe608060405234801561001057600080fd5b50600436106100625760003560e01c806327a460e414610067578063341d58571461009757806383524ae9146100b3578063a57c4fef146100e3578063d9420a6614610101578063dfe0b5fe1461011f575b600080fd5b610081600480360381019061007c919061068a565b61013b565b60405161008e91906108ac565b60405180910390f35b6100b160048036038101906100ac919061068a565b610180565b005b6100cd60048036038101906100c89190610620565b610267565b6040516100da919061086f565b60405180910390f35b6100eb61029a565b6040516100f8919061086f565b60405180910390f35b6101096102be565b604051610116919061088a565b60405180910390f35b6101396004803603810190610134919061068a565b610368565b005b6001828051602081018201805184825260208301602085012081835280955050505050506020528060005260406000206000915091509054906101000a900460ff1681565b808073ffffffffffffffffffffffffffffffffffffffff163373ffffffffffffffffffffffffffffffffffffffff16146101ef576040517f08c379a00000000000000000000000000000000000000000000000000000000081526004016101e6906108e7565b60405180910390fd5b600180846040516102009190610858565b908152602001604051809103902060008473ffffffffffffffffffffffffffffffffffffffff1673ffffffffffffffffffffffffffffffffffffffff16815260200190815260200160002060006101000a81548160ff021916908315150217905550505050565b60026020528060005260406000206000915054906101000a900473ffffffffffffffffffffffffffffffffffffffff1681565b60008054906101000a900473ffffffffffffffffffffffffffffffffffffffff1681565b606060008054906101000a900473ffffffffffffffffffffffffffffffffffffffff1673ffffffffffffffffffffffffffffffffffffffff16636933e4146040518163ffffffff1660e01b815260040160006040518083038186803b15801561032657600080fd5b505afa15801561033a573d6000803e3d6000fd5b505050506040513d6000823e3d601f19601f820116820180604052508101906103639190610649565b905090565b808073ffffffffffffffffffffffffffffffffffffffff163373ffffffffffffffffffffffffffffffffffffffff16146103d7576040517f08c379a00000000000000000000000000000000000000000000000000000000081526004016103ce906108e7565b60405180910390fd5b6001836040516103e79190610858565b908152602001604051809103902060008373ffffffffffffffffffffffffffffffffffffffff1673ffffffffffffffffffffffffffffffffffffffff16815260200190815260200160002060009054906101000a900460ff1661047f576040517f08c379a0000000000000000000000000000000000000000000000000000000008152600401610476906108c7565b60405180910390fd5b60006001846040516104919190610858565b908152602001604051809103902060008473ffffffffffffffffffffffffffffffffffffffff1673ffffffffffffffffffffffffffffffffffffffff16815260200190815260200160002060006101000a81548160ff021916908315150217905550505050565b600061050b61050684610938565b610907565b9050808382526020820190508285602086028201111561052a57600080fd5b60005b8581101561055a578161054088826105b7565b84526020840193506020830192505060018101905061052d565b5050509392505050565b600061057761057284610964565b610907565b90508281526020810184848401111561058f57600080fd5b61059a848285610a32565b509392505050565b6000813590506105b181610aa3565b92915050565b6000815190506105c681610aa3565b92915050565b600082601f8301126105dd57600080fd5b81516105ed8482602086016104f8565b91505092915050565b600082601f83011261060757600080fd5b8135610617848260208601610564565b91505092915050565b60006020828403121561063257600080fd5b6000610640848285016105a2565b91505092915050565b60006020828403121561065b57600080fd5b600082015167ffffffffffffffff81111561067557600080fd5b610681848285016105cc565b91505092915050565b6000806040838503121561069d57600080fd5b600083013567ffffffffffffffff8111156106b757600080fd5b6106c3858286016105f6565b92505060206106d4858286016105a2565b9150509250929050565b60006106ea83836106f6565b60208301905092915050565b6106ff816109f4565b82525050565b61070e816109f4565b82525050565b600061071f826109a4565b61072981856109c7565b935061073483610994565b8060005b8381101561076557815161074c88826106de565b9750610757836109ba565b925050600181019050610738565b5085935050505092915050565b61077b81610a06565b82525050565b600061078c826109af565b61079681856109e9565b93506107a6818560208601610a41565b80840191505092915050565b60006107bf6016836109d8565b91507f5065726d697373696f6e206e6f74206772616e746564000000000000000000006000830152602082019050919050565b60006107ff6024836109d8565b91507f4f6e6c792070617469656e74732063616e2063616c6c20746869732066756e6360008301527f74696f6e000000000000000000000000000000000000000000000000000000006020830152604082019050919050565b60006108648284610781565b915081905092915050565b60006020820190506108846000830184610705565b92915050565b600060208201905081810360008301526108a48184610714565b905092915050565b60006020820190506108c16000830184610772565b92915050565b600060208201905081810360008301526108e0816107b2565b9050919050565b60006020820190508181036000830152610900816107f2565b9050919050565b6000604051905081810181811067ffffffffffffffff8211171561092e5761092d610a74565b5b8060405250919050565b600067ffffffffffffffff82111561095357610952610a74565b5b602082029050602081019050919050565b600067ffffffffffffffff82111561097f5761097e610a74565b5b601f19601f8301169050602081019050919050565b6000819050602082019050919050565b600081519050919050565b600081519050919050565b6000602082019050919050565b600082825260208201905092915050565b600082825260208201905092915050565b600081905092915050565b60006109ff82610a12565b9050919050565b60008115159050919050565b600073ffffffffffffffffffffffffffffffffffffffff82169050919050565b82818337600083830152505050565b60005b83811015610a5f578082015181840152602081019050610a44565b83811115610a6e576000848401525b50505050565b7f4e487b7100000000000000000000000000000000000000000000000000000000600052604160045260246000fd5b610aac816109f4565b8114610ab757600080fd5b5056fea264697066735822122050c301de80a9fb250ae72a62270fc5b61649b8e6ad74ae869194d795976937e364736f6c63430008000033",
  "immutableReferences": {},
  "source": "// SPDX-License-Identifier: MIT\r\npragma solidity ^0.8.0;\r\n\r\nimport \"./Hospital.sol\";\r\n\r\ncontract AccessControlContract {\r\n\r\n    address public hospitalRecordsContractAddress;\r\n\r\n    constructor(address _hospitalRecordsContractAddress) {\r\n        hospitalRecordsContractAddress = _hospitalRecordsContractAddress;\r\n    }\r\n    \r\n    // Mapping to store patient permissions\r\n    mapping(string => mapping(address => bool)) public patientPermissions;\r\n    // Mapping to store the relationship between hospitals and patients\r\n    mapping(address => address) public hospitalToPatient;\r\n\r\n    modifier onlyPatient(address _patientAddr) {\r\n        require(msg.sender == _patientAddr, \"Only patients can call this function\");\r\n        _;\r\n    }\r\n\r\n    function revokeAccess(string memory _patientID, address _hospitalAddr) public onlyPatient(_hospitalAddr) {\r\n        // Check if the patient has given permission to the specified hospital\r\n        require(patientPermissions[_patientID][_hospitalAddr], \"Permission not granted\");\r\n\r\n        // Revoke access by setting the permission to false\r\n        patientPermissions[_patientID][_hospitalAddr] = false;\r\n    }\r\n\r\n    function givePermission(string memory _patientID, address _hospitalAddr) public onlyPatient(_hospitalAddr) {\r\n        // Grant access by setting the permission to true\r\n        patientPermissions[_patientID][_hospitalAddr] = true;\r\n    }\r\n\r\n    function getRegisteredHospitals() public view returns (address[] memory) {\r\n        return HospitalRecords(hospitalRecordsContractAddress).getHospitalList();\r\n    }\r\n}\r\n",
  "sourcePath": "C:\\Users\\Abby\\Desktop\\APPCON 2023\\MediVerse-Web3-Dapp\\contracts\\AccessControl.sol",
  "compiler": {
    "name": "solc",
    "version": "0.8.0+commit.c7dfd78e.Emscripten.clang"
  },
  "schemaVersion": "3.4.16",
  "updatedAt": "2024-02-16T09:39:33.339Z",
  "networkType": "ethereum",
  "devdoc": {
    "kind": "dev",
    "methods": {},
    "version": 1
  },
  "userdoc": {
    "kind": "user",
    "methods": {},
    "version": 1
  }
}