{
  "contractName": "AccessControlContract",
  "abi": [
    {
      "inputs": [
        {
          "internalType": "address",
          "name": "_hospitalRecordsContractAddress",
          "type": "address"
        }
      ],
      "stateMutability": "nonpayable",
      "type": "constructor"
    },
    {
      "inputs": [],
      "name": "hospitalRecordsContractAddress",
      "outputs": [
        {
          "internalType": "address",
          "name": "",
          "type": "address"
        }
      ],
      "stateMutability": "view",
      "type": "function",
      "constant": true
    },
    {
      "inputs": [
        {
          "internalType": "address",
          "name": "",
          "type": "address"
        }
      ],
      "name": "hospitalToPatient",
      "outputs": [
        {
          "internalType": "address",
          "name": "",
          "type": "address"
        }
      ],
      "stateMutability": "view",
      "type": "function",
      "constant": true
    },
    {
      "inputs": [
        {
          "internalType": "address",
          "name": "",
          "type": "address"
        },
        {
          "internalType": "address",
          "name": "",
          "type": "address"
        }
      ],
      "name": "patientPermissions",
      "outputs": [
        {
          "internalType": "bool",
          "name": "",
          "type": "bool"
        }
      ],
      "stateMutability": "view",
      "type": "function",
      "constant": true
    },
    {
      "inputs": [
        {
          "internalType": "address",
          "name": "_patientAddr",
          "type": "address"
        },
        {
          "internalType": "address",
          "name": "_hospitalAddr",
          "type": "address"
        }
      ],
      "name": "revokeAccess",
      "outputs": [],
      "stateMutability": "nonpayable",
      "type": "function"
    },
    {
      "inputs": [
        {
          "internalType": "address",
          "name": "_patientAddr",
          "type": "address"
        },
        {
          "internalType": "address",
          "name": "_hospitalAddr",
          "type": "address"
        }
      ],
      "name": "givePermission",
      "outputs": [],
      "stateMutability": "nonpayable",
      "type": "function"
    },
    {
      "inputs": [],
      "name": "getRegisteredHospitals",
      "outputs": [
        {
          "internalType": "address[]",
          "name": "",
          "type": "address[]"
        }
      ],
      "stateMutability": "view",
      "type": "function",
      "constant": true
    }
  ],
  "bytecode": "0x608060405234801561001057600080fd5b50604051610bb5380380610bb58339818101604052810190610032919061008d565b806000806101000a81548173ffffffffffffffffffffffffffffffffffffffff021916908373ffffffffffffffffffffffffffffffffffffffff160217905550506100ff565b600081519050610087816100e8565b92915050565b60006020828403121561009f57600080fd5b60006100ad84828501610078565b91505092915050565b60006100c1826100c8565b9050919050565b600073ffffffffffffffffffffffffffffffffffffffff82169050919050565b6100f1816100b6565b81146100fc57600080fd5b50565b610aa78061010e6000396000f3fe608060405234801561001057600080fd5b50600436106100625760003560e01c80635f6ea3401461006757806383524ae914610083578063a57c4fef146100b3578063d9420a66146100d1578063db5a917a146100ef578063f58c79591461011f575b600080fd5b610081600480360381019061007c91906106e8565b61013b565b005b61009d600480360381019061009891906106bf565b61036a565b6040516100aa91906108ae565b60405180910390f35b6100bb61039d565b6040516100c891906108ae565b60405180910390f35b6100d96103c1565b6040516100e691906108c9565b60405180910390f35b610109600480360381019061010491906106e8565b61046b565b60405161011691906108eb565b60405180910390f35b610139600480360381019061013491906106e8565b61049a565b005b600260003373ffffffffffffffffffffffffffffffffffffffff1673ffffffffffffffffffffffffffffffffffffffff16815260200190815260200160002060009054906101000a900473ffffffffffffffffffffffffffffffffffffffff1673ffffffffffffffffffffffffffffffffffffffff163373ffffffffffffffffffffffffffffffffffffffff1614610208576040517f08c379a00000000000000000000000000000000000000000000000000000000081526004016101ff90610926565b60405180910390fd5b600160008373ffffffffffffffffffffffffffffffffffffffff1673ffffffffffffffffffffffffffffffffffffffff16815260200190815260200160002060008273ffffffffffffffffffffffffffffffffffffffff1673ffffffffffffffffffffffffffffffffffffffff16815260200190815260200160002060009054906101000a900460ff166102d1576040517f08c379a00000000000000000000000000000000000000000000000000000000081526004016102c890610906565b60405180910390fd5b6000600160008473ffffffffffffffffffffffffffffffffffffffff1673ffffffffffffffffffffffffffffffffffffffff16815260200190815260200160002060008373ffffffffffffffffffffffffffffffffffffffff1673ffffffffffffffffffffffffffffffffffffffff16815260200190815260200160002060006101000a81548160ff0219169083151502179055505050565b60026020528060005260406000206000915054906101000a900473ffffffffffffffffffffffffffffffffffffffff1681565b60008054906101000a900473ffffffffffffffffffffffffffffffffffffffff1681565b606060008054906101000a900473ffffffffffffffffffffffffffffffffffffffff1673ffffffffffffffffffffffffffffffffffffffff16636933e4146040518163ffffffff1660e01b815260040160006040518083038186803b15801561042957600080fd5b505afa15801561043d573d6000803e3d6000fd5b505050506040513d6000823e3d601f19601f820116820180604052508101906104669190610724565b905090565b60016020528160005260406000206020528060005260406000206000915091509054906101000a900460ff1681565b600260003373ffffffffffffffffffffffffffffffffffffffff1673ffffffffffffffffffffffffffffffffffffffff16815260200190815260200160002060009054906101000a900473ffffffffffffffffffffffffffffffffffffffff1673ffffffffffffffffffffffffffffffffffffffff163373ffffffffffffffffffffffffffffffffffffffff1614610567576040517f08c379a000000000000000000000000000000000000000000000000000000000815260040161055e90610926565b60405180910390fd5b60018060008473ffffffffffffffffffffffffffffffffffffffff1673ffffffffffffffffffffffffffffffffffffffff16815260200190815260200160002060008373ffffffffffffffffffffffffffffffffffffffff1673ffffffffffffffffffffffffffffffffffffffff16815260200190815260200160002060006101000a81548160ff0219169083151502179055505050565b600061061261060d84610977565b610946565b9050808382526020820190508285602086028201111561063157600080fd5b60005b8581101561066157816106478882610680565b845260208401935060208301925050600181019050610634565b5050509392505050565b60008135905061067a81610a5a565b92915050565b60008151905061068f81610a5a565b92915050565b600082601f8301126106a657600080fd5b81516106b68482602086016105ff565b91505092915050565b6000602082840312156106d157600080fd5b60006106df8482850161066b565b91505092915050565b600080604083850312156106fb57600080fd5b60006107098582860161066b565b925050602061071a8582860161066b565b9150509250929050565b60006020828403121561073657600080fd5b600082015167ffffffffffffffff81111561075057600080fd5b61075c84828501610695565b91505092915050565b6000610771838361077d565b60208301905092915050565b610786816109ed565b82525050565b610795816109ed565b82525050565b60006107a6826109b3565b6107b081856109cb565b93506107bb836109a3565b8060005b838110156107ec5781516107d38882610765565b97506107de836109be565b9250506001810190506107bf565b5085935050505092915050565b610802816109ff565b82525050565b60006108156016836109dc565b91507f5065726d697373696f6e206e6f74206772616e746564000000000000000000006000830152602082019050919050565b60006108556024836109dc565b91507f4f6e6c792070617469656e74732063616e2063616c6c20746869732066756e6360008301527f74696f6e000000000000000000000000000000000000000000000000000000006020830152604082019050919050565b60006020820190506108c3600083018461078c565b92915050565b600060208201905081810360008301526108e3818461079b565b905092915050565b600060208201905061090060008301846107f9565b92915050565b6000602082019050818103600083015261091f81610808565b9050919050565b6000602082019050818103600083015261093f81610848565b9050919050565b6000604051905081810181811067ffffffffffffffff8211171561096d5761096c610a2b565b5b8060405250919050565b600067ffffffffffffffff82111561099257610991610a2b565b5b602082029050602081019050919050565b6000819050602082019050919050565b600081519050919050565b6000602082019050919050565b600082825260208201905092915050565b600082825260208201905092915050565b60006109f882610a0b565b9050919050565b60008115159050919050565b600073ffffffffffffffffffffffffffffffffffffffff82169050919050565b7f4e487b7100000000000000000000000000000000000000000000000000000000600052604160045260246000fd5b610a63816109ed565b8114610a6e57600080fd5b5056fea26469706673582212207a4f99ed65e7a9ded2f25b6ed87c8df8d6e301869729f46862128738f27c1e3564736f6c63430008000033",
  "immutableReferences": {},
  "source": "// SPDX-License-Identifier: MIT\r\npragma solidity ^0.8.0;\r\n\r\nimport \"./Hospital.sol\";\r\n\r\ncontract AccessControlContract {\r\n\r\n    address public hospitalRecordsContractAddress;\r\n\r\n    constructor(address _hospitalRecordsContractAddress) {\r\n        hospitalRecordsContractAddress = _hospitalRecordsContractAddress;\r\n    }\r\n\r\n    mapping(address => mapping(address => bool)) public patientPermissions;\r\n    mapping(address => address) public hospitalToPatient;\r\n\r\n    modifier onlyPatient() {\r\n        require(msg.sender == hospitalToPatient[msg.sender], \"Only patients can call this function\");\r\n        _;\r\n    }\r\n\r\n    function revokeAccess(address _patientAddr, address _hospitalAddr) public onlyPatient {\r\n        require(patientPermissions[_patientAddr][_hospitalAddr], \"Permission not granted\");\r\n        patientPermissions[_patientAddr][_hospitalAddr] = false;\r\n    }\r\n\r\n    function givePermission(address _patientAddr, address _hospitalAddr) public onlyPatient {\r\n        patientPermissions[_patientAddr][_hospitalAddr] = true;\r\n    }\r\n\r\n    function getRegisteredHospitals() public view returns (address[] memory) {\r\n        return HospitalRecords(hospitalRecordsContractAddress).getHospitalList();\r\n    }\r\n}\r\n",
  "sourcePath": "C:\\Users\\Abby\\Desktop\\APPCON 2023\\MediVerse-Web3-Dapp\\contracts\\AccessControl.sol",
  "compiler": {
    "name": "solc",
    "version": "0.8.0+commit.c7dfd78e.Emscripten.clang"
  },
  "schemaVersion": "3.4.16",
  "updatedAt": "2024-02-17T13:23:50.688Z",
  "networkType": "ethereum",
  "devdoc": {
    "kind": "dev",
    "methods": {},
    "version": 1
  },
  "userdoc": {
    "kind": "user",
    "methods": {},
    "version": 1
  }
}