{
  "contractName": "AllergyHistoryRecords",
  "abi": [
    {
      "inputs": [
        {
          "internalType": "string",
          "name": "",
          "type": "string"
        }
      ],
      "name": "allergyRecords",
      "outputs": [
        {
          "internalType": "address",
          "name": "hospitalAddr",
          "type": "address"
        },
        {
          "internalType": "string",
          "name": "patientID",
          "type": "string"
        },
        {
          "internalType": "string",
          "name": "recordID",
          "type": "string"
        },
        {
          "internalType": "string",
          "name": "allergen",
          "type": "string"
        },
        {
          "internalType": "string",
          "name": "allergyType",
          "type": "string"
        },
        {
          "internalType": "string",
          "name": "severity",
          "type": "string"
        },
        {
          "internalType": "string",
          "name": "reaction",
          "type": "string"
        },
        {
          "internalType": "string",
          "name": "dateStarted",
          "type": "string"
        },
        {
          "internalType": "string",
          "name": "lastReactionDate",
          "type": "string"
        },
        {
          "internalType": "string",
          "name": "medications",
          "type": "string"
        }
      ],
      "stateMutability": "view",
      "type": "function",
      "constant": true
    },
    {
      "inputs": [
        {
          "internalType": "string",
          "name": "",
          "type": "string"
        }
      ],
      "name": "hospitalToPatient",
      "outputs": [
        {
          "internalType": "address",
          "name": "",
          "type": "address"
        }
      ],
      "stateMutability": "view",
      "type": "function",
      "constant": true
    },
    {
      "inputs": [
        {
          "internalType": "string",
          "name": "",
          "type": "string"
        },
        {
          "internalType": "uint256",
          "name": "",
          "type": "uint256"
        }
      ],
      "name": "patientAllergyRecords",
      "outputs": [
        {
          "internalType": "string",
          "name": "",
          "type": "string"
        }
      ],
      "stateMutability": "view",
      "type": "function",
      "constant": true
    },
    {
      "inputs": [
        {
          "internalType": "string",
          "name": "",
          "type": "string"
        },
        {
          "internalType": "address",
          "name": "",
          "type": "address"
        }
      ],
      "name": "patientPermissions",
      "outputs": [
        {
          "internalType": "bool",
          "name": "",
          "type": "bool"
        }
      ],
      "stateMutability": "view",
      "type": "function",
      "constant": true
    },
    {
      "inputs": [
        {
          "internalType": "string",
          "name": "_patientID",
          "type": "string"
        },
        {
          "internalType": "string",
          "name": "_recordID",
          "type": "string"
        },
        {
          "internalType": "string",
          "name": "_allergen",
          "type": "string"
        },
        {
          "internalType": "string",
          "name": "_allergyType",
          "type": "string"
        },
        {
          "internalType": "string",
          "name": "_severity",
          "type": "string"
        },
        {
          "internalType": "string",
          "name": "_reaction",
          "type": "string"
        },
        {
          "internalType": "string",
          "name": "_dateStarted",
          "type": "string"
        },
        {
          "internalType": "string",
          "name": "_lastReactionDate",
          "type": "string"
        },
        {
          "internalType": "string",
          "name": "_medications",
          "type": "string"
        }
      ],
      "name": "addAllergyHistory",
      "outputs": [],
      "stateMutability": "nonpayable",
      "type": "function"
    },
    {
      "inputs": [
        {
          "internalType": "string",
          "name": "_recordID",
          "type": "string"
        },
        {
          "internalType": "string",
          "name": "_allergen",
          "type": "string"
        },
        {
          "internalType": "string",
          "name": "_allergyType",
          "type": "string"
        },
        {
          "internalType": "string",
          "name": "_severity",
          "type": "string"
        },
        {
          "internalType": "string",
          "name": "_reaction",
          "type": "string"
        },
        {
          "internalType": "string",
          "name": "_dateStarted",
          "type": "string"
        },
        {
          "internalType": "string",
          "name": "_lastReactionDate",
          "type": "string"
        },
        {
          "internalType": "string",
          "name": "_medications",
          "type": "string"
        }
      ],
      "name": "editAllergyHistory",
      "outputs": [],
      "stateMutability": "nonpayable",
      "type": "function"
    },
    {
      "inputs": [
        {
          "internalType": "string",
          "name": "_patientID",
          "type": "string"
        }
      ],
      "name": "getAllLaboratoryHistoryRecords",
      "outputs": [
        {
          "components": [
            {
              "internalType": "address",
              "name": "hospitalAddr",
              "type": "address"
            },
            {
              "internalType": "string",
              "name": "patientID",
              "type": "string"
            },
            {
              "internalType": "string",
              "name": "recordID",
              "type": "string"
            },
            {
              "internalType": "string",
              "name": "allergen",
              "type": "string"
            },
            {
              "internalType": "string",
              "name": "allergyType",
              "type": "string"
            },
            {
              "internalType": "string",
              "name": "severity",
              "type": "string"
            },
            {
              "internalType": "string",
              "name": "reaction",
              "type": "string"
            },
            {
              "internalType": "string",
              "name": "dateStarted",
              "type": "string"
            },
            {
              "internalType": "string",
              "name": "lastReactionDate",
              "type": "string"
            },
            {
              "internalType": "string",
              "name": "medications",
              "type": "string"
            }
          ],
          "internalType": "struct AllergyHistoryRecords.AllergyRecord[]",
          "name": "",
          "type": "tuple[]"
        }
      ],
      "stateMutability": "view",
      "type": "function",
      "constant": true
    },
    {
      "inputs": [
        {
          "internalType": "string",
          "name": "_patientID",
          "type": "string"
        },
        {
          "internalType": "string",
          "name": "_allergenKeyword",
          "type": "string"
        },
        {
          "internalType": "string",
          "name": "_allergyTypeKeyword",
          "type": "string"
        }
      ],
      "name": "searchLaboratoryRecords",
      "outputs": [
        {
          "components": [
            {
              "internalType": "address",
              "name": "hospitalAddr",
              "type": "address"
            },
            {
              "internalType": "string",
              "name": "patientID",
              "type": "string"
            },
            {
              "internalType": "string",
              "name": "recordID",
              "type": "string"
            },
            {
              "internalType": "string",
              "name": "allergen",
              "type": "string"
            },
            {
              "internalType": "string",
              "name": "allergyType",
              "type": "string"
            },
            {
              "internalType": "string",
              "name": "severity",
              "type": "string"
            },
            {
              "internalType": "string",
              "name": "reaction",
              "type": "string"
            },
            {
              "internalType": "string",
              "name": "dateStarted",
              "type": "string"
            },
            {
              "internalType": "string",
              "name": "lastReactionDate",
              "type": "string"
            },
            {
              "internalType": "string",
              "name": "medications",
              "type": "string"
            }
          ],
          "internalType": "struct AllergyHistoryRecords.AllergyRecord[]",
          "name": "",
          "type": "tuple[]"
        }
      ],
      "stateMutability": "view",
      "type": "function",
      "constant": true
    }
  ],
  "bytecode": "0x608060405234801561001057600080fd5b50612bb5806100206000396000f3fe608060405234801561001057600080fd5b50600436106100885760003560e01c8063aeea77241161005b578063aeea772414610156578063b05ded2614610186578063b1c34150146101a2578063c27c87b4146101be57610088565b806327a460e41461008d5780632ad8649a146100bd57806339126de6146100ed5780635f7938d11461011d575b600080fd5b6100a760048036038101906100a29190611eea565b6101ee565b6040516100b491906127e9565b60405180910390f35b6100d760048036038101906100d29190611f3e565b610233565b6040516100e491906127c7565b60405180910390f35b610107600480360381019061010291906122e5565b610b1e565b6040516101149190612804565b60405180910390f35b61013760048036038101906101329190611ea9565b610bed565b60405161014d9a999897969594939291906126ec565b60405180910390f35b610170600480360381019061016b9190611ea9565b61113f565b60405161017d91906126d1565b60405180910390f35b6101a0600480360381019061019b9190611fd5565b611188565b005b6101bc60048036038101906101b79190612147565b6112f7565b005b6101d860048036038101906101d39190611ea9565b6114a0565b6040516101e591906127c7565b60405180910390f35b6003828051602081018201805184825260208301602085012081835280955050505050506020528060005260406000206000915091509054906101000a900460ff1681565b606060038460405161024591906126ba565b908152602001604051809103902060003373ffffffffffffffffffffffffffffffffffffffff1673ffffffffffffffffffffffffffffffffffffffff16815260200190815260200160002060009054906101000a900460ff166102dd576040517f08c379a00000000000000000000000000000000000000000000000000000000081526004016102d490612826565b60405180910390fd5b60006001856040516102ef91906126ba565b9081526020016040518091039020805480602002602001604051908101604052809291908181526020016000905b828210156103c957838290600052602060002001805461033c90612a38565b80601f016020809104026020016040519081016040528092919081815260200182805461036890612a38565b80156103b55780601f1061038a576101008083540402835291602001916103b5565b820191906000526020600020905b81548152906001019060200180831161039857829003601f168201915b50505050508152602001906001019061031d565b50505050905060606000805b8351811015610b0d5760008085838151811061041a577f4e487b7100000000000000000000000000000000000000000000000000000000600052603260045260246000fd5b602002602001015160405161042f91906126ba565b9081526020016040518091039020905087805190602001208160030160405161045891906126a3565b604051809103902014801561048b575086805190602001208160040160405161048191906126a3565b6040518091039020145b15610af957828451141561052357600184516104a79190612958565b67ffffffffffffffff8111156104e6577f4e487b7100000000000000000000000000000000000000000000000000000000600052604160045260246000fd5b60405190808252806020026020018201604052801561051f57816020015b61050c611d0b565b8152602001906001900390816105045790505b5093505b80604051806101400160405290816000820160009054906101000a900473ffffffffffffffffffffffffffffffffffffffff1673ffffffffffffffffffffffffffffffffffffffff1673ffffffffffffffffffffffffffffffffffffffff16815260200160018201805461059690612a38565b80601f01602080910402602001604051908101604052809291908181526020018280546105c290612a38565b801561060f5780601f106105e45761010080835404028352916020019161060f565b820191906000526020600020905b8154815290600101906020018083116105f257829003601f168201915b5050505050815260200160028201805461062890612a38565b80601f016020809104026020016040519081016040528092919081815260200182805461065490612a38565b80156106a15780601f10610676576101008083540402835291602001916106a1565b820191906000526020600020905b81548152906001019060200180831161068457829003601f168201915b505050505081526020016003820180546106ba90612a38565b80601f01602080910402602001604051908101604052809291908181526020018280546106e690612a38565b80156107335780601f1061070857610100808354040283529160200191610733565b820191906000526020600020905b81548152906001019060200180831161071657829003601f168201915b5050505050815260200160048201805461074c90612a38565b80601f016020809104026020016040519081016040528092919081815260200182805461077890612a38565b80156107c55780601f1061079a576101008083540402835291602001916107c5565b820191906000526020600020905b8154815290600101906020018083116107a857829003601f168201915b505050505081526020016005820180546107de90612a38565b80601f016020809104026020016040519081016040528092919081815260200182805461080a90612a38565b80156108575780601f1061082c57610100808354040283529160200191610857565b820191906000526020600020905b81548152906001019060200180831161083a57829003601f168201915b5050505050815260200160068201805461087090612a38565b80601f016020809104026020016040519081016040528092919081815260200182805461089c90612a38565b80156108e95780601f106108be576101008083540402835291602001916108e9565b820191906000526020600020905b8154815290600101906020018083116108cc57829003601f168201915b5050505050815260200160078201805461090290612a38565b80601f016020809104026020016040519081016040528092919081815260200182805461092e90612a38565b801561097b5780601f106109505761010080835404028352916020019161097b565b820191906000526020600020905b81548152906001019060200180831161095e57829003601f168201915b5050505050815260200160088201805461099490612a38565b80601f01602080910402602001604051908101604052809291908181526020018280546109c090612a38565b8015610a0d5780601f106109e257610100808354040283529160200191610a0d565b820191906000526020600020905b8154815290600101906020018083116109f057829003601f168201915b50505050508152602001600982018054610a2690612a38565b80601f0160208091040260200160405190810160405280929190818152602001828054610a5290612a38565b8015610a9f5780601f10610a7457610100808354040283529160200191610a9f565b820191906000526020600020905b815481529060010190602001808311610a8257829003601f168201915b505050505081525050848480610ab490612a6a565b955081518110610aed577f4e487b7100000000000000000000000000000000000000000000000000000000600052603260045260246000fd5b60200260200101819052505b508080610b0590612a6a565b9150506103d5565b508082528193505050509392505050565b6001828051602081018201805184825260208301602085012081835280955050505050508181548110610b5057600080fd5b90600052602060002001600091509150508054610b6c90612a38565b80601f0160208091040260200160405190810160405280929190818152602001828054610b9890612a38565b8015610be55780601f10610bba57610100808354040283529160200191610be5565b820191906000526020600020905b815481529060010190602001808311610bc857829003601f168201915b505050505081565b6000818051602081018201805184825260208301602085012081835280955050505050506000915090508060000160009054906101000a900473ffffffffffffffffffffffffffffffffffffffff1690806001018054610c4c90612a38565b80601f0160208091040260200160405190810160405280929190818152602001828054610c7890612a38565b8015610cc55780601f10610c9a57610100808354040283529160200191610cc5565b820191906000526020600020905b815481529060010190602001808311610ca857829003601f168201915b505050505090806002018054610cda90612a38565b80601f0160208091040260200160405190810160405280929190818152602001828054610d0690612a38565b8015610d535780601f10610d2857610100808354040283529160200191610d53565b820191906000526020600020905b815481529060010190602001808311610d3657829003601f168201915b505050505090806003018054610d6890612a38565b80601f0160208091040260200160405190810160405280929190818152602001828054610d9490612a38565b8015610de15780601f10610db657610100808354040283529160200191610de1565b820191906000526020600020905b815481529060010190602001808311610dc457829003601f168201915b505050505090806004018054610df690612a38565b80601f0160208091040260200160405190810160405280929190818152602001828054610e2290612a38565b8015610e6f5780601f10610e4457610100808354040283529160200191610e6f565b820191906000526020600020905b815481529060010190602001808311610e5257829003601f168201915b505050505090806005018054610e8490612a38565b80601f0160208091040260200160405190810160405280929190818152602001828054610eb090612a38565b8015610efd5780601f10610ed257610100808354040283529160200191610efd565b820191906000526020600020905b815481529060010190602001808311610ee057829003601f168201915b505050505090806006018054610f1290612a38565b80601f0160208091040260200160405190810160405280929190818152602001828054610f3e90612a38565b8015610f8b5780601f10610f6057610100808354040283529160200191610f8b565b820191906000526020600020905b815481529060010190602001808311610f6e57829003601f168201915b505050505090806007018054610fa090612a38565b80601f0160208091040260200160405190810160405280929190818152602001828054610fcc90612a38565b80156110195780601f10610fee57610100808354040283529160200191611019565b820191906000526020600020905b815481529060010190602001808311610ffc57829003601f168201915b50505050509080600801805461102e90612a38565b80601f016020809104026020016040519081016040528092919081815260200182805461105a90612a38565b80156110a75780601f1061107c576101008083540402835291602001916110a7565b820191906000526020600020905b81548152906001019060200180831161108a57829003601f168201915b5050505050908060090180546110bc90612a38565b80601f01602080910402602001604051908101604052809291908181526020018280546110e890612a38565b80156111355780601f1061110a57610100808354040283529160200191611135565b820191906000526020600020905b81548152906001019060200180831161111857829003601f168201915b505050505090508a565b6002818051602081018201805184825260208301602085012081835280955050505050506000915054906101000a900473ffffffffffffffffffffffffffffffffffffffff1681565b6000808960405161119991906126ba565b90815260200160405180910390209050600073ffffffffffffffffffffffffffffffffffffffff168160000160009054906101000a900473ffffffffffffffffffffffffffffffffffffffff1673ffffffffffffffffffffffffffffffffffffffff16141561123d576040517f08c379a000000000000000000000000000000000000000000000000000000000815260040161123490612846565b60405180910390fd5b87816003019080519060200190611255929190611d74565b508681600401908051906020019061126e929190611d74565b5085816005019080519060200190611287929190611d74565b50848160060190805190602001906112a0929190611d74565b50838160070190805190602001906112b9929190611d74565b50828160080190805190602001906112d2929190611d74565b50818160090190805190602001906112eb929190611d74565b50505050505050505050565b6000808960405161130891906126ba565b90815260200160405180910390209050338160000160006101000a81548173ffffffffffffffffffffffffffffffffffffffff021916908373ffffffffffffffffffffffffffffffffffffffff16021790555089816001019080519060200190611373929190611d74565b508881600201908051906020019061138c929190611d74565b50878160030190805190602001906113a5929190611d74565b50868160040190805190602001906113be929190611d74565b50858160050190805190602001906113d7929190611d74565b50848160060190805190602001906113f0929190611d74565b5083816007019080519060200190611409929190611d74565b5082816008019080519060200190611422929190611d74565b508181600901908051906020019061143b929190611d74565b5060018a60405161144c91906126ba565b908152602001604051809103902089908060018154018082558091505060019003906000526020600020016000909190919091509080519060200190611493929190611d74565b5050505050505050505050565b60606003826040516114b291906126ba565b908152602001604051809103902060003373ffffffffffffffffffffffffffffffffffffffff1673ffffffffffffffffffffffffffffffffffffffff16815260200190815260200160002060009054906101000a900460ff1661154a576040517f08c379a000000000000000000000000000000000000000000000000000000000815260040161154190612826565b60405180910390fd5b600060018360405161155c91906126ba565b9081526020016040518091039020805480602002602001604051908101604052809291908181526020016000905b828210156116365783829060005260206000200180546115a990612a38565b80601f01602080910402602001604051908101604052809291908181526020018280546115d590612a38565b80156116225780601f106115f757610100808354040283529160200191611622565b820191906000526020600020905b81548152906001019060200180831161160557829003601f168201915b50505050508152602001906001019061158a565b5050505090506000815167ffffffffffffffff81111561167f577f4e487b7100000000000000000000000000000000000000000000000000000000600052604160045260246000fd5b6040519080825280602002602001820160405280156116b857816020015b6116a5611d0b565b81526020019060019003908161169d5790505b50905060005b8251811015611d00576000838281518110611702577f4e487b7100000000000000000000000000000000000000000000000000000000600052603260045260246000fd5b602002602001015160405161171791906126ba565b9081526020016040518091039020604051806101400160405290816000820160009054906101000a900473ffffffffffffffffffffffffffffffffffffffff1673ffffffffffffffffffffffffffffffffffffffff1673ffffffffffffffffffffffffffffffffffffffff16815260200160018201805461179790612a38565b80601f01602080910402602001604051908101604052809291908181526020018280546117c390612a38565b80156118105780601f106117e557610100808354040283529160200191611810565b820191906000526020600020905b8154815290600101906020018083116117f357829003601f168201915b5050505050815260200160028201805461182990612a38565b80601f016020809104026020016040519081016040528092919081815260200182805461185590612a38565b80156118a25780601f10611877576101008083540402835291602001916118a2565b820191906000526020600020905b81548152906001019060200180831161188557829003601f168201915b505050505081526020016003820180546118bb90612a38565b80601f01602080910402602001604051908101604052809291908181526020018280546118e790612a38565b80156119345780601f1061190957610100808354040283529160200191611934565b820191906000526020600020905b81548152906001019060200180831161191757829003601f168201915b5050505050815260200160048201805461194d90612a38565b80601f016020809104026020016040519081016040528092919081815260200182805461197990612a38565b80156119c65780601f1061199b576101008083540402835291602001916119c6565b820191906000526020600020905b8154815290600101906020018083116119a957829003601f168201915b505050505081526020016005820180546119df90612a38565b80601f0160208091040260200160405190810160405280929190818152602001828054611a0b90612a38565b8015611a585780601f10611a2d57610100808354040283529160200191611a58565b820191906000526020600020905b815481529060010190602001808311611a3b57829003601f168201915b50505050508152602001600682018054611a7190612a38565b80601f0160208091040260200160405190810160405280929190818152602001828054611a9d90612a38565b8015611aea5780601f10611abf57610100808354040283529160200191611aea565b820191906000526020600020905b815481529060010190602001808311611acd57829003601f168201915b50505050508152602001600782018054611b0390612a38565b80601f0160208091040260200160405190810160405280929190818152602001828054611b2f90612a38565b8015611b7c5780601f10611b5157610100808354040283529160200191611b7c565b820191906000526020600020905b815481529060010190602001808311611b5f57829003601f168201915b50505050508152602001600882018054611b9590612a38565b80601f0160208091040260200160405190810160405280929190818152602001828054611bc190612a38565b8015611c0e5780601f10611be357610100808354040283529160200191611c0e565b820191906000526020600020905b815481529060010190602001808311611bf157829003601f168201915b50505050508152602001600982018054611c2790612a38565b80601f0160208091040260200160405190810160405280929190818152602001828054611c5390612a38565b8015611ca05780601f10611c7557610100808354040283529160200191611ca0565b820191906000526020600020905b815481529060010190602001808311611c8357829003601f168201915b505050505081525050828281518110611ce2577f4e487b7100000000000000000000000000000000000000000000000000000000600052603260045260246000fd5b60200260200101819052508080611cf890612a6a565b9150506116be565b508092505050919050565b604051806101400160405280600073ffffffffffffffffffffffffffffffffffffffff1681526020016060815260200160608152602001606081526020016060815260200160608152602001606081526020016060815260200160608152602001606081525090565b828054611d8090612a38565b90600052602060002090601f016020900481019282611da25760008555611de9565b82601f10611dbb57805160ff1916838001178555611de9565b82800160010185558215611de9579182015b82811115611de8578251825591602001919060010190611dcd565b5b509050611df69190611dfa565b5090565b5b80821115611e13576000816000905550600101611dfb565b5090565b6000611e2a611e2584612897565b612866565b905082815260208101848484011115611e4257600080fd5b611e4d8482856129f6565b509392505050565b600081359050611e6481612b51565b92915050565b600082601f830112611e7b57600080fd5b8135611e8b848260208601611e17565b91505092915050565b600081359050611ea381612b68565b92915050565b600060208284031215611ebb57600080fd5b600082013567ffffffffffffffff811115611ed557600080fd5b611ee184828501611e6a565b91505092915050565b60008060408385031215611efd57600080fd5b600083013567ffffffffffffffff811115611f1757600080fd5b611f2385828601611e6a565b9250506020611f3485828601611e55565b9150509250929050565b600080600060608486031215611f5357600080fd5b600084013567ffffffffffffffff811115611f6d57600080fd5b611f7986828701611e6a565b935050602084013567ffffffffffffffff811115611f9657600080fd5b611fa286828701611e6a565b925050604084013567ffffffffffffffff811115611fbf57600080fd5b611fcb86828701611e6a565b9150509250925092565b600080600080600080600080610100898b031215611ff257600080fd5b600089013567ffffffffffffffff81111561200c57600080fd5b6120188b828c01611e6a565b985050602089013567ffffffffffffffff81111561203557600080fd5b6120418b828c01611e6a565b975050604089013567ffffffffffffffff81111561205e57600080fd5b61206a8b828c01611e6a565b965050606089013567ffffffffffffffff81111561208757600080fd5b6120938b828c01611e6a565b955050608089013567ffffffffffffffff8111156120b057600080fd5b6120bc8b828c01611e6a565b94505060a089013567ffffffffffffffff8111156120d957600080fd5b6120e58b828c01611e6a565b93505060c089013567ffffffffffffffff81111561210257600080fd5b61210e8b828c01611e6a565b92505060e089013567ffffffffffffffff81111561212b57600080fd5b6121378b828c01611e6a565b9150509295985092959890939650565b60008060008060008060008060006101208a8c03121561216657600080fd5b60008a013567ffffffffffffffff81111561218057600080fd5b61218c8c828d01611e6a565b99505060208a013567ffffffffffffffff8111156121a957600080fd5b6121b58c828d01611e6a565b98505060408a013567ffffffffffffffff8111156121d257600080fd5b6121de8c828d01611e6a565b97505060608a013567ffffffffffffffff8111156121fb57600080fd5b6122078c828d01611e6a565b96505060808a013567ffffffffffffffff81111561222457600080fd5b6122308c828d01611e6a565b95505060a08a013567ffffffffffffffff81111561224d57600080fd5b6122598c828d01611e6a565b94505060c08a013567ffffffffffffffff81111561227657600080fd5b6122828c828d01611e6a565b93505060e08a013567ffffffffffffffff81111561229f57600080fd5b6122ab8c828d01611e6a565b9250506101008a013567ffffffffffffffff8111156122c957600080fd5b6122d58c828d01611e6a565b9150509295985092959850929598565b600080604083850312156122f857600080fd5b600083013567ffffffffffffffff81111561231257600080fd5b61231e85828601611e6a565b925050602061232f85828601611e94565b9150509250929050565b60006123458383612591565b905092915050565b612356816129ae565b82525050565b612365816129ae565b82525050565b6000612376826128ec565b612380818561290f565b935083602082028501612392856128c7565b8060005b858110156123ce57848403895281516123af8582612339565b94506123ba83612902565b925060208a01995050600181019050612396565b50829750879550505050505092915050565b6123e9816129c0565b82525050565b600081546123fc81612a38565b6124068186612920565b94506001821660008114612421576001811461243257612465565b60ff19831686528186019350612465565b61243b856128d7565b60005b8381101561245d5781548189015260018201915060208101905061243e565b838801955050505b50505092915050565b6000612479826128f7565b612483818561292b565b9350612493818560208601612a05565b61249c81612b40565b840191505092915050565b60006124b2826128f7565b6124bc818561293c565b93506124cc818560208601612a05565b6124d581612b40565b840191505092915050565b60006124eb826128f7565b6124f5818561294d565b9350612505818560208601612a05565b80840191505092915050565b600061251e60168361293c565b91507f5065726d697373696f6e206e6f74206772616e746564000000000000000000006000830152602082019050919050565b600061255e60158361293c565b91507f5265636f726420646f6573206e6f7420657869737400000000000000000000006000830152602082019050919050565b6000610140830160008301516125aa600086018261234d565b50602083015184820360208601526125c2828261246e565b915050604083015184820360408601526125dc828261246e565b915050606083015184820360608601526125f6828261246e565b91505060808301518482036080860152612610828261246e565b91505060a083015184820360a086015261262a828261246e565b91505060c083015184820360c0860152612644828261246e565b91505060e083015184820360e086015261265e828261246e565b91505061010083015184820361010086015261267a828261246e565b915050610120830151848203610120860152612696828261246e565b9150508091505092915050565b60006126af82846123ef565b915081905092915050565b60006126c682846124e0565b915081905092915050565b60006020820190506126e6600083018461235c565b92915050565b600061014082019050612702600083018d61235c565b8181036020830152612714818c6124a7565b90508181036040830152612728818b6124a7565b9050818103606083015261273c818a6124a7565b9050818103608083015261275081896124a7565b905081810360a083015261276481886124a7565b905081810360c083015261277881876124a7565b905081810360e083015261278c81866124a7565b90508181036101008301526127a181856124a7565b90508181036101208301526127b681846124a7565b90509b9a5050505050505050505050565b600060208201905081810360008301526127e1818461236b565b905092915050565b60006020820190506127fe60008301846123e0565b92915050565b6000602082019050818103600083015261281e81846124a7565b905092915050565b6000602082019050818103600083015261283f81612511565b9050919050565b6000602082019050818103600083015261285f81612551565b9050919050565b6000604051905081810181811067ffffffffffffffff8211171561288d5761288c612b11565b5b8060405250919050565b600067ffffffffffffffff8211156128b2576128b1612b11565b5b601f19601f8301169050602081019050919050565b6000819050602082019050919050565b60008190508160005260206000209050919050565b600081519050919050565b600081519050919050565b6000602082019050919050565b600082825260208201905092915050565b600081905092915050565b600082825260208201905092915050565b600082825260208201905092915050565b600081905092915050565b6000612963826129ec565b915061296e836129ec565b9250827fffffffffffffffffffffffffffffffffffffffffffffffffffffffffffffffff038211156129a3576129a2612ab3565b5b828201905092915050565b60006129b9826129cc565b9050919050565b60008115159050919050565b600073ffffffffffffffffffffffffffffffffffffffff82169050919050565b6000819050919050565b82818337600083830152505050565b60005b83811015612a23578082015181840152602081019050612a08565b83811115612a32576000848401525b50505050565b60006002820490506001821680612a5057607f821691505b60208210811415612a6457612a63612ae2565b5b50919050565b6000612a75826129ec565b91507fffffffffffffffffffffffffffffffffffffffffffffffffffffffffffffffff821415612aa857612aa7612ab3565b5b600182019050919050565b7f4e487b7100000000000000000000000000000000000000000000000000000000600052601160045260246000fd5b7f4e487b7100000000000000000000000000000000000000000000000000000000600052602260045260246000fd5b7f4e487b7100000000000000000000000000000000000000000000000000000000600052604160045260246000fd5b6000601f19601f8301169050919050565b612b5a816129ae565b8114612b6557600080fd5b50565b612b71816129ec565b8114612b7c57600080fd5b5056fea26469706673582212208ae5034e2379a9706e50bf6e48dfdb00d961f56ba96466d6d56aa9df12ddaa7c64736f6c63430008000033",
  "immutableReferences": {},
  "source": "// SPDX-License-Identifier: MIT\r\npragma solidity ^0.8.0;\r\n\r\nimport \"./Patient.sol\";\r\nimport \"./AccessControl.sol\";\r\n\r\ncontract AllergyHistoryRecords {\r\n\r\n    struct AllergyRecord {\r\n        address hospitalAddr;\r\n        string patientID;\r\n        string recordID;\r\n        string allergen;\r\n        string allergyType; // ex. Drug Allergy, Food Allergy, Environmental Allergy, Insect Sting Allergy\r\n        string severity;\r\n        string reaction;\r\n        string dateStarted;\r\n        string lastReactionDate;\r\n        string medications;\r\n    }\r\n\r\n    mapping(string => AllergyRecord) public allergyRecords;\r\n    mapping(string => string[]) public patientAllergyRecords;\r\n    mapping(string => address) public hospitalToPatient;\r\n    mapping(string => mapping(address => bool)) public patientPermissions;\r\n\r\n    function addAllergyHistory(\r\n        string memory _patientID,\r\n        string memory _recordID,\r\n        string memory _allergen,\r\n        string memory _allergyType,\r\n        string memory _severity,\r\n        string memory _reaction,\r\n        string memory _dateStarted,\r\n        string memory _lastReactionDate,\r\n        string memory _medications\r\n    ) public {\r\n        AllergyRecord storage record = allergyRecords[_recordID];\r\n        \r\n        record.hospitalAddr = msg.sender;\r\n        record.patientID = _patientID;\r\n        record.recordID = _recordID;\r\n        record.allergen = _allergen;\r\n        record.allergyType = _allergyType;\r\n        record.severity = _severity;\r\n        record.reaction = _reaction;\r\n        record.dateStarted = _dateStarted;\r\n        record.lastReactionDate = _lastReactionDate;\r\n        record.medications = _medications;\r\n\r\n        patientAllergyRecords[_patientID].push(_recordID);\r\n    }\r\n\r\n    function editAllergyHistory(\r\n        string memory _recordID,\r\n        string memory _allergen,\r\n        string memory _allergyType,\r\n        string memory _severity,\r\n        string memory _reaction,\r\n        string memory _dateStarted,\r\n        string memory _lastReactionDate,\r\n        string memory _medications\r\n    ) public {\r\n        \r\n        AllergyRecord storage record = allergyRecords[_recordID];\r\n        require(record.hospitalAddr != address(0), \"Record does not exist\");\r\n        \r\n        record.allergen = _allergen;\r\n        record.allergyType = _allergyType;\r\n        record.severity = _severity;\r\n        record.reaction = _reaction;\r\n        record.dateStarted = _dateStarted;\r\n        record.lastReactionDate = _lastReactionDate;\r\n        record.medications = _medications;\r\n    }\r\n\r\n    function getAllLaboratoryHistoryRecords(string memory _patientID) public view returns (AllergyRecord[] memory) {\r\n        // Check if the hospital has permission to access the patient's records\r\n        require(patientPermissions[_patientID][msg.sender], \"Permission not granted\");\r\n\r\n        string[] memory recordIDs = patientAllergyRecords[_patientID];\r\n        AllergyRecord[] memory records = new AllergyRecord[](recordIDs.length);\r\n\r\n        // Retrieve each medical record for the patient\r\n        for (uint i = 0; i < recordIDs.length; i++) {\r\n            records[i] = allergyRecords[recordIDs[i]];\r\n        }\r\n\r\n        return records;\r\n    }\r\n\r\n    function searchLaboratoryRecords(string memory _patientID, string memory _allergenKeyword, string memory _allergyTypeKeyword\r\n        ) public view returns (AllergyRecord[] memory) {\r\n        // Check if the user has permission to access this record\r\n        require(patientPermissions[_patientID][msg.sender], \"Permission not granted\");\r\n\r\n        string[] memory recordIDs = patientAllergyRecords[_patientID];\r\n        AllergyRecord[] memory matchingRecords;\r\n        uint matchingCount = 0;\r\n\r\n        // Iterate through each record and check for matching criteria\r\n        for (uint i = 0; i < recordIDs.length; i++) {\r\n            AllergyRecord storage record = allergyRecords[recordIDs[i]];\r\n\r\n            // Check if the record matches the specified criteria\r\n            //`keccak256()` compares the hashes of both strings and returns `true` if they are equal\r\n            if (keccak256(bytes(record.allergen)) == keccak256(bytes(_allergenKeyword)) &&\r\n                (keccak256(bytes(record.allergyType)) == keccak256(bytes(_allergyTypeKeyword)))) {\r\n                // Add the matching record to the result array\r\n                if (matchingRecords.length == matchingCount) {\r\n                    // Extend the array if needed\r\n                    matchingRecords = new AllergyRecord[](matchingRecords.length + 1);\r\n                }\r\n                matchingRecords[matchingCount++] = record;\r\n            }\r\n        }\r\n        // Resize the array to remove unused slots\r\n        assembly {\r\n            mstore(matchingRecords, matchingCount)\r\n        }\r\n        return matchingRecords;\r\n    }\r\n}",
  "sourcePath": "C:\\Users\\Abby\\Desktop\\APPCON 2023\\MediVerse-Web3-Dapp\\contracts\\AllergyHistory.sol",
  "compiler": {
    "name": "solc",
    "version": "0.8.0+commit.c7dfd78e.Emscripten.clang"
  },
  "schemaVersion": "3.4.16",
  "updatedAt": "2024-02-16T09:39:33.501Z",
  "networkType": "ethereum",
  "devdoc": {
    "kind": "dev",
    "methods": {},
    "version": 1
  },
  "userdoc": {
    "kind": "user",
    "methods": {},
    "version": 1
  }
}