{
  "contractName": "AllergyHistoryRecords",
  "abi": [
    {
      "inputs": [],
      "name": "allergyHistoryCount",
      "outputs": [
        {
          "internalType": "uint256",
          "name": "",
          "type": "uint256"
        }
      ],
      "stateMutability": "view",
      "type": "function",
      "constant": true
    },
    {
      "inputs": [
        {
          "internalType": "uint256",
          "name": "",
          "type": "uint256"
        }
      ],
      "name": "allergyHistoryList",
      "outputs": [
        {
          "internalType": "address",
          "name": "",
          "type": "address"
        }
      ],
      "stateMutability": "view",
      "type": "function",
      "constant": true
    },
    {
      "inputs": [
        {
          "internalType": "address",
          "name": "",
          "type": "address"
        }
      ],
      "name": "allergyRecords",
      "outputs": [
        {
          "internalType": "address",
          "name": "owner",
          "type": "address"
        },
        {
          "internalType": "address",
          "name": "hospitalAddr",
          "type": "address"
        },
        {
          "internalType": "string",
          "name": "allergen",
          "type": "string"
        },
        {
          "internalType": "string",
          "name": "allergyType",
          "type": "string"
        },
        {
          "internalType": "string",
          "name": "severity",
          "type": "string"
        },
        {
          "internalType": "string",
          "name": "reaction",
          "type": "string"
        },
        {
          "internalType": "string",
          "name": "dateStarted",
          "type": "string"
        },
        {
          "internalType": "string",
          "name": "lastReactionDate",
          "type": "string"
        },
        {
          "internalType": "string",
          "name": "medications",
          "type": "string"
        }
      ],
      "stateMutability": "view",
      "type": "function",
      "constant": true
    },
    {
      "inputs": [
        {
          "internalType": "string",
          "name": "_hospitalName",
          "type": "string"
        },
        {
          "internalType": "string",
          "name": "_contactNum",
          "type": "string"
        },
        {
          "internalType": "string",
          "name": "_hospitalAddress",
          "type": "string"
        }
      ],
      "name": "editHospitalProfile",
      "outputs": [],
      "stateMutability": "nonpayable",
      "type": "function"
    },
    {
      "inputs": [],
      "name": "getHospitalCount",
      "outputs": [
        {
          "internalType": "uint256",
          "name": "",
          "type": "uint256"
        }
      ],
      "stateMutability": "view",
      "type": "function",
      "constant": true
    },
    {
      "inputs": [],
      "name": "getHospitalList",
      "outputs": [
        {
          "internalType": "address[]",
          "name": "",
          "type": "address[]"
        }
      ],
      "stateMutability": "view",
      "type": "function",
      "constant": true
    },
    {
      "inputs": [],
      "name": "hospitalCount",
      "outputs": [
        {
          "internalType": "uint256",
          "name": "",
          "type": "uint256"
        }
      ],
      "stateMutability": "view",
      "type": "function",
      "constant": true
    },
    {
      "inputs": [
        {
          "internalType": "uint256",
          "name": "",
          "type": "uint256"
        }
      ],
      "name": "hospitalList",
      "outputs": [
        {
          "internalType": "address",
          "name": "",
          "type": "address"
        }
      ],
      "stateMutability": "view",
      "type": "function",
      "constant": true
    },
    {
      "inputs": [
        {
          "internalType": "address",
          "name": "",
          "type": "address"
        }
      ],
      "name": "hospitals",
      "outputs": [
        {
          "internalType": "string",
          "name": "hospitalName",
          "type": "string"
        },
        {
          "internalType": "string",
          "name": "contactNum",
          "type": "string"
        },
        {
          "internalType": "string",
          "name": "hospitalAddress",
          "type": "string"
        },
        {
          "internalType": "address",
          "name": "addr",
          "type": "address"
        },
        {
          "internalType": "uint256",
          "name": "date",
          "type": "uint256"
        }
      ],
      "stateMutability": "view",
      "type": "function",
      "constant": true
    },
    {
      "inputs": [
        {
          "internalType": "address",
          "name": "",
          "type": "address"
        }
      ],
      "name": "isHospital",
      "outputs": [
        {
          "internalType": "bool",
          "name": "",
          "type": "bool"
        }
      ],
      "stateMutability": "view",
      "type": "function",
      "constant": true
    },
    {
      "inputs": [
        {
          "internalType": "address",
          "name": "",
          "type": "address"
        },
        {
          "internalType": "uint256",
          "name": "",
          "type": "uint256"
        }
      ],
      "name": "patientAllergyRecords",
      "outputs": [
        {
          "internalType": "address",
          "name": "",
          "type": "address"
        }
      ],
      "stateMutability": "view",
      "type": "function",
      "constant": true
    },
    {
      "inputs": [
        {
          "internalType": "string",
          "name": "_hospitalName",
          "type": "string"
        },
        {
          "internalType": "string",
          "name": "_contactNum",
          "type": "string"
        },
        {
          "internalType": "string",
          "name": "_hospitalAddress",
          "type": "string"
        }
      ],
      "name": "registerHospital",
      "outputs": [],
      "stateMutability": "nonpayable",
      "type": "function"
    }
  ],
  "bytecode": "0x60806040526000600355600060075534801561001a57600080fd5b506116cf8061002a6000396000f3fe608060405234801561001057600080fd5b50600436106100b45760003560e01c806377dae4311161007157806377dae43114610195578063bdf6c673146101b3578063c134b3a2146101e3578063c82412b914610213578063f093cf8014610243578063fe45a81d14610277576100b4565b806321a1500a146100b9578063242b25e3146100d5578063350dadb71461010d5780633aeb86211461012b578063526b44ac1461015b5780636933e41414610177575b600080fd5b6100d360048036038101906100ce91906110ce565b610295565b005b6100ef60048036038101906100ea9190611069565b61037f565b60405161010499989796959493929190611294565b60405180910390f35b6101156107c5565b60405161012291906113f7565b60405180910390f35b61014560048036038101906101409190611165565b6107cb565b6040516101529190611279565b60405180910390f35b610175600480360381019061017091906110ce565b61080a565b005b61017f610bfb565b60405161018c9190611352565b60405180910390f35b61019d610c89565b6040516101aa91906113f7565b60405180910390f35b6101cd60048036038101906101c89190611069565b610c8f565b6040516101da9190611374565b60405180910390f35b6101fd60048036038101906101f89190611092565b610caf565b60405161020a9190611279565b60405180910390f35b61022d60048036038101906102289190611165565b610cfd565b60405161023a9190611279565b60405180910390f35b61025d60048036038101906102589190611069565b610d3c565b60405161026e95949392919061138f565b60405180910390f35b61027f610f2a565b60405161028c91906113f7565b60405180910390f35b600260003373ffffffffffffffffffffffffffffffffffffffff1673ffffffffffffffffffffffffffffffffffffffff16815260200190815260200160002060009054906101000a900460ff166102eb57600080fd5b6000600160003373ffffffffffffffffffffffffffffffffffffffff1673ffffffffffffffffffffffffffffffffffffffff168152602001908152602001600020905083816000019080519060200190610346929190610f34565b508281600101908051906020019061035f929190610f34565b5081816002019080519060200190610378929190610f34565b5050505050565b60056020528060005260406000206000915090508060000160009054906101000a900473ffffffffffffffffffffffffffffffffffffffff16908060010160009054906101000a900473ffffffffffffffffffffffffffffffffffffffff16908060020180546103ee90611552565b80601f016020809104026020016040519081016040528092919081815260200182805461041a90611552565b80156104675780601f1061043c57610100808354040283529160200191610467565b820191906000526020600020905b81548152906001019060200180831161044a57829003601f168201915b50505050509080600301805461047c90611552565b80601f01602080910402602001604051908101604052809291908181526020018280546104a890611552565b80156104f55780601f106104ca576101008083540402835291602001916104f5565b820191906000526020600020905b8154815290600101906020018083116104d857829003601f168201915b50505050509080600401805461050a90611552565b80601f016020809104026020016040519081016040528092919081815260200182805461053690611552565b80156105835780601f1061055857610100808354040283529160200191610583565b820191906000526020600020905b81548152906001019060200180831161056657829003601f168201915b50505050509080600501805461059890611552565b80601f01602080910402602001604051908101604052809291908181526020018280546105c490611552565b80156106115780601f106105e657610100808354040283529160200191610611565b820191906000526020600020905b8154815290600101906020018083116105f457829003601f168201915b50505050509080600601805461062690611552565b80601f016020809104026020016040519081016040528092919081815260200182805461065290611552565b801561069f5780601f106106745761010080835404028352916020019161069f565b820191906000526020600020905b81548152906001019060200180831161068257829003601f168201915b5050505050908060070180546106b490611552565b80601f01602080910402602001604051908101604052809291908181526020018280546106e090611552565b801561072d5780601f106107025761010080835404028352916020019161072d565b820191906000526020600020905b81548152906001019060200180831161071057829003601f168201915b50505050509080600801805461074290611552565b80601f016020809104026020016040519081016040528092919081815260200182805461076e90611552565b80156107bb5780601f10610790576101008083540402835291602001916107bb565b820191906000526020600020905b81548152906001019060200180831161079e57829003601f168201915b5050505050905089565b60035481565b600481815481106107db57600080fd5b906000526020600020016000915054906101000a900473ffffffffffffffffffffffffffffffffffffffff1681565b600260003373ffffffffffffffffffffffffffffffffffffffff1673ffffffffffffffffffffffffffffffffffffffff16815260200190815260200160002060009054906101000a900460ff161561086157600080fd5b6000600160003373ffffffffffffffffffffffffffffffffffffffff1673ffffffffffffffffffffffffffffffffffffffff1681526020019081526020016000206040518060a00160405290816000820180546108bd90611552565b80601f01602080910402602001604051908101604052809291908181526020018280546108e990611552565b80156109365780601f1061090b57610100808354040283529160200191610936565b820191906000526020600020905b81548152906001019060200180831161091957829003601f168201915b5050505050815260200160018201805461094f90611552565b80601f016020809104026020016040519081016040528092919081815260200182805461097b90611552565b80156109c85780601f1061099d576101008083540402835291602001916109c8565b820191906000526020600020905b8154815290600101906020018083116109ab57829003601f168201915b505050505081526020016002820180546109e190611552565b80601f0160208091040260200160405190810160405280929190818152602001828054610a0d90611552565b8015610a5a5780601f10610a2f57610100808354040283529160200191610a5a565b820191906000526020600020905b815481529060010190602001808311610a3d57829003601f168201915b505050505081526020016003820160009054906101000a900473ffffffffffffffffffffffffffffffffffffffff1673ffffffffffffffffffffffffffffffffffffffff1673ffffffffffffffffffffffffffffffffffffffff168152602001600482015481525050905083816000018190525082816020018190525081816040018190525033816060019073ffffffffffffffffffffffffffffffffffffffff16908173ffffffffffffffffffffffffffffffffffffffff1681525050428160800181815250506000339080600181540180825580915050600190039060005260206000200160009091909190916101000a81548173ffffffffffffffffffffffffffffffffffffffff021916908373ffffffffffffffffffffffffffffffffffffffff1602179055506001600260003373ffffffffffffffffffffffffffffffffffffffff1673ffffffffffffffffffffffffffffffffffffffff16815260200190815260200160002060006101000a81548160ff02191690831515021790555060036000815480929190610bf090611584565b919050555050505050565b60606000805480602002602001604051908101604052809291908181526020018280548015610c7f57602002820191906000526020600020905b8160009054906101000a900473ffffffffffffffffffffffffffffffffffffffff1673ffffffffffffffffffffffffffffffffffffffff1681526020019060010190808311610c35575b5050505050905090565b60075481565b60026020528060005260406000206000915054906101000a900460ff1681565b60066020528160005260406000208181548110610ccb57600080fd5b906000526020600020016000915091509054906101000a900473ffffffffffffffffffffffffffffffffffffffff1681565b60008181548110610d0d57600080fd5b906000526020600020016000915054906101000a900473ffffffffffffffffffffffffffffffffffffffff1681565b6001602052806000526040600020600091509050806000018054610d5f90611552565b80601f0160208091040260200160405190810160405280929190818152602001828054610d8b90611552565b8015610dd85780601f10610dad57610100808354040283529160200191610dd8565b820191906000526020600020905b815481529060010190602001808311610dbb57829003601f168201915b505050505090806001018054610ded90611552565b80601f0160208091040260200160405190810160405280929190818152602001828054610e1990611552565b8015610e665780601f10610e3b57610100808354040283529160200191610e66565b820191906000526020600020905b815481529060010190602001808311610e4957829003601f168201915b505050505090806002018054610e7b90611552565b80601f0160208091040260200160405190810160405280929190818152602001828054610ea790611552565b8015610ef45780601f10610ec957610100808354040283529160200191610ef4565b820191906000526020600020905b815481529060010190602001808311610ed757829003601f168201915b5050505050908060030160009054906101000a900473ffffffffffffffffffffffffffffffffffffffff16908060040154905085565b6000600354905090565b828054610f4090611552565b90600052602060002090601f016020900481019282610f625760008555610fa9565b82601f10610f7b57805160ff1916838001178555610fa9565b82800160010185558215610fa9579182015b82811115610fa8578251825591602001919060010190610f8d565b5b509050610fb69190610fba565b5090565b5b80821115610fd3576000816000905550600101610fbb565b5090565b6000610fea610fe584611443565b611412565b90508281526020810184848401111561100257600080fd5b61100d848285611510565b509392505050565b6000813590506110248161166b565b92915050565b600082601f83011261103b57600080fd5b813561104b848260208601610fd7565b91505092915050565b60008135905061106381611682565b92915050565b60006020828403121561107b57600080fd5b600061108984828501611015565b91505092915050565b600080604083850312156110a557600080fd5b60006110b385828601611015565b92505060206110c485828601611054565b9150509250929050565b6000806000606084860312156110e357600080fd5b600084013567ffffffffffffffff8111156110fd57600080fd5b6111098682870161102a565b935050602084013567ffffffffffffffff81111561112657600080fd5b6111328682870161102a565b925050604084013567ffffffffffffffff81111561114f57600080fd5b61115b8682870161102a565b9150509250925092565b60006020828403121561117757600080fd5b600061118584828501611054565b91505092915050565b600061119a83836111a6565b60208301905092915050565b6111af816114c8565b82525050565b6111be816114c8565b82525050565b60006111cf82611483565b6111d981856114a6565b93506111e483611473565b8060005b838110156112155781516111fc888261118e565b975061120783611499565b9250506001810190506111e8565b5085935050505092915050565b61122b816114da565b82525050565b600061123c8261148e565b61124681856114b7565b935061125681856020860161151f565b61125f8161165a565b840191505092915050565b61127381611506565b82525050565b600060208201905061128e60008301846111b5565b92915050565b6000610120820190506112aa600083018c6111b5565b6112b7602083018b6111b5565b81810360408301526112c9818a611231565b905081810360608301526112dd8189611231565b905081810360808301526112f18188611231565b905081810360a08301526113058187611231565b905081810360c08301526113198186611231565b905081810360e083015261132d8185611231565b90508181036101008301526113428184611231565b90509a9950505050505050505050565b6000602082019050818103600083015261136c81846111c4565b905092915050565b60006020820190506113896000830184611222565b92915050565b600060a08201905081810360008301526113a98188611231565b905081810360208301526113bd8187611231565b905081810360408301526113d18186611231565b90506113e060608301856111b5565b6113ed608083018461126a565b9695505050505050565b600060208201905061140c600083018461126a565b92915050565b6000604051905081810181811067ffffffffffffffff821117156114395761143861162b565b5b8060405250919050565b600067ffffffffffffffff82111561145e5761145d61162b565b5b601f19601f8301169050602081019050919050565b6000819050602082019050919050565b600081519050919050565b600081519050919050565b6000602082019050919050565b600082825260208201905092915050565b600082825260208201905092915050565b60006114d3826114e6565b9050919050565b60008115159050919050565b600073ffffffffffffffffffffffffffffffffffffffff82169050919050565b6000819050919050565b82818337600083830152505050565b60005b8381101561153d578082015181840152602081019050611522565b8381111561154c576000848401525b50505050565b6000600282049050600182168061156a57607f821691505b6020821081141561157e5761157d6115fc565b5b50919050565b600061158f82611506565b91507fffffffffffffffffffffffffffffffffffffffffffffffffffffffffffffffff8214156115c2576115c16115cd565b5b600182019050919050565b7f4e487b7100000000000000000000000000000000000000000000000000000000600052601160045260246000fd5b7f4e487b7100000000000000000000000000000000000000000000000000000000600052602260045260246000fd5b7f4e487b7100000000000000000000000000000000000000000000000000000000600052604160045260246000fd5b6000601f19601f8301169050919050565b611674816114c8565b811461167f57600080fd5b50565b61168b81611506565b811461169657600080fd5b5056fea26469706673582212204ee741616027fbed298fbd85a5bafa3f6863037fa26c229648f17eb01c837c5664736f6c63430008000033",
  "immutableReferences": {},
  "source": "// SPDX-License-Identifier: MIT\r\npragma solidity ^0.8.0;\r\n\r\nimport \"./Hospital.sol\";\r\n\r\ncontract AllergyHistoryRecords is HospitalRecords {\r\n\r\n    struct AllergyRecord {\r\n        address owner; //Patient's address\r\n        address hospitalAddr;\r\n        string allergen;\r\n        string allergyType; // ex. Drug Allergy, Food Allergy, Environmental Allergy, Insect Sting Allergy\r\n        string severity;\r\n        string reaction;\r\n        string dateStarted;\r\n        string lastReactionDate;\r\n        string medications;\r\n    }\r\n\r\n    address[] public allergyHistoryList;\r\n    mapping(address => AllergyRecord) public allergyRecords;\r\n    mapping(address => address[]) public patientAllergyRecords;\r\n    uint256 public allergyHistoryCount = 0;\r\n\r\n}",
  "sourcePath": "C:\\Users\\Abby\\Desktop\\APPCON 2023\\MediVerse-Web3-Dapp\\contracts\\AllergyHistory.sol",
  "compiler": {
    "name": "solc",
    "version": "0.8.0+commit.c7dfd78e.Emscripten.clang"
  },
  "schemaVersion": "3.4.16",
  "updatedAt": "2024-02-18T11:11:46.895Z",
  "networkType": "ethereum",
  "devdoc": {
    "kind": "dev",
    "methods": {},
    "version": 1
  },
  "userdoc": {
    "kind": "user",
    "methods": {},
    "version": 1
  }
}