{
  "contractName": "AllergyHistoryRecords",
  "abi": [
    {
      "inputs": [],
      "name": "allergyHistoryCount",
      "outputs": [
        {
          "internalType": "uint256",
          "name": "",
          "type": "uint256"
        }
      ],
      "stateMutability": "view",
      "type": "function",
      "constant": true
    },
    {
      "inputs": [
        {
          "internalType": "uint256",
          "name": "",
          "type": "uint256"
        }
      ],
      "name": "allergyHistoryList",
      "outputs": [
        {
          "internalType": "address",
          "name": "",
          "type": "address"
        }
      ],
      "stateMutability": "view",
      "type": "function",
      "constant": true
    },
    {
      "inputs": [
        {
          "internalType": "address",
          "name": "",
          "type": "address"
        }
      ],
      "name": "allergyRecords",
      "outputs": [
        {
          "internalType": "address",
          "name": "owner",
          "type": "address"
        },
        {
          "internalType": "address",
          "name": "hospitalAddr",
          "type": "address"
        },
        {
          "internalType": "string",
          "name": "allergen",
          "type": "string"
        },
        {
          "internalType": "string",
          "name": "allergyType",
          "type": "string"
        },
        {
          "internalType": "string",
          "name": "severity",
          "type": "string"
        },
        {
          "internalType": "string",
          "name": "reaction",
          "type": "string"
        },
        {
          "internalType": "string",
          "name": "dateStarted",
          "type": "string"
        },
        {
          "internalType": "string",
          "name": "lastReactionDate",
          "type": "string"
        },
        {
          "internalType": "string",
          "name": "medications",
          "type": "string"
        }
      ],
      "stateMutability": "view",
      "type": "function",
      "constant": true
    },
    {
      "inputs": [
        {
          "internalType": "string",
          "name": "_hospitalName",
          "type": "string"
        },
        {
          "internalType": "string",
          "name": "_contactNum",
          "type": "string"
        },
        {
          "internalType": "string",
          "name": "_hospitalAddress",
          "type": "string"
        }
      ],
      "name": "editHospitalProfile",
      "outputs": [],
      "stateMutability": "nonpayable",
      "type": "function"
    },
    {
      "inputs": [],
      "name": "getHospitalCount",
      "outputs": [
        {
          "internalType": "uint256",
          "name": "",
          "type": "uint256"
        }
      ],
      "stateMutability": "view",
      "type": "function",
      "constant": true
    },
    {
      "inputs": [],
      "name": "getHospitalList",
      "outputs": [
        {
          "internalType": "address[]",
          "name": "",
          "type": "address[]"
        }
      ],
      "stateMutability": "view",
      "type": "function",
      "constant": true
    },
    {
      "inputs": [],
      "name": "hospitalCount",
      "outputs": [
        {
          "internalType": "uint256",
          "name": "",
          "type": "uint256"
        }
      ],
      "stateMutability": "view",
      "type": "function",
      "constant": true
    },
    {
      "inputs": [
        {
          "internalType": "uint256",
          "name": "",
          "type": "uint256"
        }
      ],
      "name": "hospitalList",
      "outputs": [
        {
          "internalType": "address",
          "name": "",
          "type": "address"
        }
      ],
      "stateMutability": "view",
      "type": "function",
      "constant": true
    },
    {
      "inputs": [
        {
          "internalType": "address",
          "name": "",
          "type": "address"
        }
      ],
      "name": "hospitals",
      "outputs": [
        {
          "internalType": "string",
          "name": "hospitalName",
          "type": "string"
        },
        {
          "internalType": "string",
          "name": "contactNum",
          "type": "string"
        },
        {
          "internalType": "string",
          "name": "hospitalAddress",
          "type": "string"
        },
        {
          "internalType": "address",
          "name": "addr",
          "type": "address"
        },
        {
          "internalType": "uint256",
          "name": "date",
          "type": "uint256"
        }
      ],
      "stateMutability": "view",
      "type": "function",
      "constant": true
    },
    {
      "inputs": [
        {
          "internalType": "address",
          "name": "",
          "type": "address"
        }
      ],
      "name": "isHospital",
      "outputs": [
        {
          "internalType": "bool",
          "name": "",
          "type": "bool"
        }
      ],
      "stateMutability": "view",
      "type": "function",
      "constant": true
    },
    {
      "inputs": [
        {
          "internalType": "address",
          "name": "",
          "type": "address"
        },
        {
          "internalType": "uint256",
          "name": "",
          "type": "uint256"
        }
      ],
      "name": "patientAllergyRecords",
      "outputs": [
        {
          "internalType": "address",
          "name": "",
          "type": "address"
        }
      ],
      "stateMutability": "view",
      "type": "function",
      "constant": true
    },
    {
      "inputs": [
        {
          "internalType": "string",
          "name": "_hospitalName",
          "type": "string"
        },
        {
          "internalType": "string",
          "name": "_contactNum",
          "type": "string"
        },
        {
          "internalType": "string",
          "name": "_hospitalAddress",
          "type": "string"
        }
      ],
      "name": "registerHospital",
      "outputs": [],
      "stateMutability": "nonpayable",
      "type": "function"
    },
    {
      "inputs": [
        {
          "internalType": "address",
          "name": "_patientAddr",
          "type": "address"
        },
        {
          "internalType": "string",
          "name": "_allergen",
          "type": "string"
        },
        {
          "internalType": "string",
          "name": "_allergyType",
          "type": "string"
        },
        {
          "internalType": "string",
          "name": "_severity",
          "type": "string"
        },
        {
          "internalType": "string",
          "name": "_reaction",
          "type": "string"
        },
        {
          "internalType": "string",
          "name": "_dateStarted",
          "type": "string"
        },
        {
          "internalType": "string",
          "name": "_lastReactionDate",
          "type": "string"
        },
        {
          "internalType": "string",
          "name": "_medications",
          "type": "string"
        }
      ],
      "name": "addAllergyHistory",
      "outputs": [],
      "stateMutability": "nonpayable",
      "type": "function"
    },
    {
      "inputs": [
        {
          "internalType": "address",
          "name": "_patientAddr",
          "type": "address"
        },
        {
          "internalType": "string",
          "name": "_allergen",
          "type": "string"
        },
        {
          "internalType": "string",
          "name": "_allergyType",
          "type": "string"
        },
        {
          "internalType": "string",
          "name": "_severity",
          "type": "string"
        },
        {
          "internalType": "string",
          "name": "_reaction",
          "type": "string"
        },
        {
          "internalType": "string",
          "name": "_dateStarted",
          "type": "string"
        },
        {
          "internalType": "string",
          "name": "_lastReactionDate",
          "type": "string"
        },
        {
          "internalType": "string",
          "name": "_medications",
          "type": "string"
        }
      ],
      "name": "editAllergyHistory",
      "outputs": [],
      "stateMutability": "nonpayable",
      "type": "function"
    }
  ],
  "bytecode": "0x60806040526000600355600060075534801561001a57600080fd5b50611c0e8061002a6000396000f3fe608060405234801561001057600080fd5b50600436106100ea5760003560e01c80639a6e86e21161008c578063c82412b911610066578063c82412b914610265578063f093cf8014610295578063f9b8b95c146102c9578063fe45a81d146102e5576100ea565b80639a6e86e2146101e9578063bdf6c67314610205578063c134b3a214610235576100ea565b80633aeb8621116100c85780633aeb862114610161578063526b44ac146101915780636933e414146101ad57806377dae431146101cb576100ea565b806321a1500a146100ef578063242b25e31461010b578063350dadb714610143575b600080fd5b610109600480360381019061010491906115ad565b610303565b005b610125600480360381019061012091906113ee565b6103ed565b60405161013a999897969594939291906117b3565b60405180910390f35b61014b610833565b6040516101589190611936565b60405180910390f35b61017b60048036038101906101769190611644565b610839565b6040516101889190611798565b60405180910390f35b6101ab60048036038101906101a691906115ad565b610878565b005b6101b5610a82565b6040516101c29190611871565b60405180910390f35b6101d3610b10565b6040516101e09190611936565b60405180910390f35b61020360048036038101906101fe9190611417565b610b16565b005b61021f600480360381019061021a91906113ee565b610da7565b60405161022c9190611893565b60405180910390f35b61024f600480360381019061024a9190611571565b610dc7565b60405161025c9190611798565b60405180910390f35b61027f600480360381019061027a9190611644565b610e15565b60405161028c9190611798565b60405180910390f35b6102af60048036038101906102aa91906113ee565b610e54565b6040516102c09594939291906118ae565b60405180910390f35b6102e360048036038101906102de9190611417565b611042565b005b6102ed6112af565b6040516102fa9190611936565b60405180910390f35b600260003373ffffffffffffffffffffffffffffffffffffffff1673ffffffffffffffffffffffffffffffffffffffff16815260200190815260200160002060009054906101000a900460ff1661035957600080fd5b6000600160003373ffffffffffffffffffffffffffffffffffffffff1673ffffffffffffffffffffffffffffffffffffffff1681526020019081526020016000209050838160000190805190602001906103b49291906112b9565b50828160010190805190602001906103cd9291906112b9565b50818160020190805190602001906103e69291906112b9565b5050505050565b60056020528060005260406000206000915090508060000160009054906101000a900473ffffffffffffffffffffffffffffffffffffffff16908060010160009054906101000a900473ffffffffffffffffffffffffffffffffffffffff169080600201805461045c90611a91565b80601f016020809104026020016040519081016040528092919081815260200182805461048890611a91565b80156104d55780601f106104aa576101008083540402835291602001916104d5565b820191906000526020600020905b8154815290600101906020018083116104b857829003601f168201915b5050505050908060030180546104ea90611a91565b80601f016020809104026020016040519081016040528092919081815260200182805461051690611a91565b80156105635780601f1061053857610100808354040283529160200191610563565b820191906000526020600020905b81548152906001019060200180831161054657829003601f168201915b50505050509080600401805461057890611a91565b80601f01602080910402602001604051908101604052809291908181526020018280546105a490611a91565b80156105f15780601f106105c6576101008083540402835291602001916105f1565b820191906000526020600020905b8154815290600101906020018083116105d457829003601f168201915b50505050509080600501805461060690611a91565b80601f016020809104026020016040519081016040528092919081815260200182805461063290611a91565b801561067f5780601f106106545761010080835404028352916020019161067f565b820191906000526020600020905b81548152906001019060200180831161066257829003601f168201915b50505050509080600601805461069490611a91565b80601f01602080910402602001604051908101604052809291908181526020018280546106c090611a91565b801561070d5780601f106106e25761010080835404028352916020019161070d565b820191906000526020600020905b8154815290600101906020018083116106f057829003601f168201915b50505050509080600701805461072290611a91565b80601f016020809104026020016040519081016040528092919081815260200182805461074e90611a91565b801561079b5780601f106107705761010080835404028352916020019161079b565b820191906000526020600020905b81548152906001019060200180831161077e57829003601f168201915b5050505050908060080180546107b090611a91565b80601f01602080910402602001604051908101604052809291908181526020018280546107dc90611a91565b80156108295780601f106107fe57610100808354040283529160200191610829565b820191906000526020600020905b81548152906001019060200180831161080c57829003601f168201915b5050505050905089565b60035481565b6004818154811061084957600080fd5b906000526020600020016000915054906101000a900473ffffffffffffffffffffffffffffffffffffffff1681565b600260003373ffffffffffffffffffffffffffffffffffffffff1673ffffffffffffffffffffffffffffffffffffffff16815260200190815260200160002060009054906101000a900460ff16156108cf57600080fd5b6000600160003373ffffffffffffffffffffffffffffffffffffffff1673ffffffffffffffffffffffffffffffffffffffff16815260200190815260200160002090508381600001908051906020019061092a9291906112b9565b50828160010190805190602001906109439291906112b9565b508181600201908051906020019061095c9291906112b9565b50338160030160006101000a81548173ffffffffffffffffffffffffffffffffffffffff021916908373ffffffffffffffffffffffffffffffffffffffff1602179055504281600401819055506000339080600181540180825580915050600190039060005260206000200160009091909190916101000a81548173ffffffffffffffffffffffffffffffffffffffff021916908373ffffffffffffffffffffffffffffffffffffffff1602179055506001600260003373ffffffffffffffffffffffffffffffffffffffff1673ffffffffffffffffffffffffffffffffffffffff16815260200190815260200160002060006101000a81548160ff02191690831515021790555060036000815480929190610a7790611ac3565b919050555050505050565b60606000805480602002602001604051908101604052809291908181526020018280548015610b0657602002820191906000526020600020905b8160009054906101000a900473ffffffffffffffffffffffffffffffffffffffff1673ffffffffffffffffffffffffffffffffffffffff1681526020019060010190808311610abc575b5050505050905090565b60075481565b600260003373ffffffffffffffffffffffffffffffffffffffff1673ffffffffffffffffffffffffffffffffffffffff16815260200190815260200160002060009054906101000a900460ff16610b6c57600080fd5b6000600560008a73ffffffffffffffffffffffffffffffffffffffff1673ffffffffffffffffffffffffffffffffffffffff1681526020019081526020016000209050338160010160006101000a81548173ffffffffffffffffffffffffffffffffffffffff021916908373ffffffffffffffffffffffffffffffffffffffff160217905550888160000160006101000a81548173ffffffffffffffffffffffffffffffffffffffff021916908373ffffffffffffffffffffffffffffffffffffffff16021790555087816002019080519060200190610c4d9291906112b9565b5086816003019080519060200190610c669291906112b9565b5085816004019080519060200190610c7f9291906112b9565b5084816005019080519060200190610c989291906112b9565b5083816006019080519060200190610cb19291906112b9565b5082816007019080519060200190610cca9291906112b9565b5081816008019080519060200190610ce39291906112b9565b50600660008a73ffffffffffffffffffffffffffffffffffffffff1673ffffffffffffffffffffffffffffffffffffffff168152602001908152602001600020339080600181540180825580915050600190039060005260206000200160009091909190916101000a81548173ffffffffffffffffffffffffffffffffffffffff021916908373ffffffffffffffffffffffffffffffffffffffff16021790555060076000815480929190610d9790611ac3565b9190505550505050505050505050565b60026020528060005260406000206000915054906101000a900460ff1681565b60066020528160005260406000208181548110610de357600080fd5b906000526020600020016000915091509054906101000a900473ffffffffffffffffffffffffffffffffffffffff1681565b60008181548110610e2557600080fd5b906000526020600020016000915054906101000a900473ffffffffffffffffffffffffffffffffffffffff1681565b6001602052806000526040600020600091509050806000018054610e7790611a91565b80601f0160208091040260200160405190810160405280929190818152602001828054610ea390611a91565b8015610ef05780601f10610ec557610100808354040283529160200191610ef0565b820191906000526020600020905b815481529060010190602001808311610ed357829003601f168201915b505050505090806001018054610f0590611a91565b80601f0160208091040260200160405190810160405280929190818152602001828054610f3190611a91565b8015610f7e5780601f10610f5357610100808354040283529160200191610f7e565b820191906000526020600020905b815481529060010190602001808311610f6157829003601f168201915b505050505090806002018054610f9390611a91565b80601f0160208091040260200160405190810160405280929190818152602001828054610fbf90611a91565b801561100c5780601f10610fe15761010080835404028352916020019161100c565b820191906000526020600020905b815481529060010190602001808311610fef57829003601f168201915b5050505050908060030160009054906101000a900473ffffffffffffffffffffffffffffffffffffffff16908060040154905085565b600260003373ffffffffffffffffffffffffffffffffffffffff1673ffffffffffffffffffffffffffffffffffffffff16815260200190815260200160002060009054906101000a900460ff1661109857600080fd5b6000600560008a73ffffffffffffffffffffffffffffffffffffffff1673ffffffffffffffffffffffffffffffffffffffff1681526020019081526020016000209050600073ffffffffffffffffffffffffffffffffffffffff168160010160009054906101000a900473ffffffffffffffffffffffffffffffffffffffff1673ffffffffffffffffffffffffffffffffffffffff16141561116f576040517f08c379a000000000000000000000000000000000000000000000000000000000815260040161116690611916565b60405180910390fd5b338160010160006101000a81548173ffffffffffffffffffffffffffffffffffffffff021916908373ffffffffffffffffffffffffffffffffffffffff160217905550888160000160006101000a81548173ffffffffffffffffffffffffffffffffffffffff021916908373ffffffffffffffffffffffffffffffffffffffff1602179055508781600201908051906020019061120d9291906112b9565b50868160030190805190602001906112269291906112b9565b508581600401908051906020019061123f9291906112b9565b50848160050190805190602001906112589291906112b9565b50838160060190805190602001906112719291906112b9565b508281600701908051906020019061128a9291906112b9565b50818160080190805190602001906112a39291906112b9565b50505050505050505050565b6000600354905090565b8280546112c590611a91565b90600052602060002090601f0160209004810192826112e7576000855561132e565b82601f1061130057805160ff191683800117855561132e565b8280016001018555821561132e579182015b8281111561132d578251825591602001919060010190611312565b5b50905061133b919061133f565b5090565b5b80821115611358576000816000905550600101611340565b5090565b600061136f61136a84611982565b611951565b90508281526020810184848401111561138757600080fd5b611392848285611a4f565b509392505050565b6000813590506113a981611baa565b92915050565b600082601f8301126113c057600080fd5b81356113d084826020860161135c565b91505092915050565b6000813590506113e881611bc1565b92915050565b60006020828403121561140057600080fd5b600061140e8482850161139a565b91505092915050565b600080600080600080600080610100898b03121561143457600080fd5b60006114428b828c0161139a565b985050602089013567ffffffffffffffff81111561145f57600080fd5b61146b8b828c016113af565b975050604089013567ffffffffffffffff81111561148857600080fd5b6114948b828c016113af565b965050606089013567ffffffffffffffff8111156114b157600080fd5b6114bd8b828c016113af565b955050608089013567ffffffffffffffff8111156114da57600080fd5b6114e68b828c016113af565b94505060a089013567ffffffffffffffff81111561150357600080fd5b61150f8b828c016113af565b93505060c089013567ffffffffffffffff81111561152c57600080fd5b6115388b828c016113af565b92505060e089013567ffffffffffffffff81111561155557600080fd5b6115618b828c016113af565b9150509295985092959890939650565b6000806040838503121561158457600080fd5b60006115928582860161139a565b92505060206115a3858286016113d9565b9150509250929050565b6000806000606084860312156115c257600080fd5b600084013567ffffffffffffffff8111156115dc57600080fd5b6115e8868287016113af565b935050602084013567ffffffffffffffff81111561160557600080fd5b611611868287016113af565b925050604084013567ffffffffffffffff81111561162e57600080fd5b61163a868287016113af565b9150509250925092565b60006020828403121561165657600080fd5b6000611664848285016113d9565b91505092915050565b60006116798383611685565b60208301905092915050565b61168e81611a07565b82525050565b61169d81611a07565b82525050565b60006116ae826119c2565b6116b881856119e5565b93506116c3836119b2565b8060005b838110156116f45781516116db888261166d565b97506116e6836119d8565b9250506001810190506116c7565b5085935050505092915050565b61170a81611a19565b82525050565b600061171b826119cd565b61172581856119f6565b9350611735818560208601611a5e565b61173e81611b99565b840191505092915050565b60006117566015836119f6565b91507f5265636f726420646f6573206e6f7420657869737400000000000000000000006000830152602082019050919050565b61179281611a45565b82525050565b60006020820190506117ad6000830184611694565b92915050565b6000610120820190506117c9600083018c611694565b6117d6602083018b611694565b81810360408301526117e8818a611710565b905081810360608301526117fc8189611710565b905081810360808301526118108188611710565b905081810360a08301526118248187611710565b905081810360c08301526118388186611710565b905081810360e083015261184c8185611710565b90508181036101008301526118618184611710565b90509a9950505050505050505050565b6000602082019050818103600083015261188b81846116a3565b905092915050565b60006020820190506118a86000830184611701565b92915050565b600060a08201905081810360008301526118c88188611710565b905081810360208301526118dc8187611710565b905081810360408301526118f08186611710565b90506118ff6060830185611694565b61190c6080830184611789565b9695505050505050565b6000602082019050818103600083015261192f81611749565b9050919050565b600060208201905061194b6000830184611789565b92915050565b6000604051905081810181811067ffffffffffffffff8211171561197857611977611b6a565b5b8060405250919050565b600067ffffffffffffffff82111561199d5761199c611b6a565b5b601f19601f8301169050602081019050919050565b6000819050602082019050919050565b600081519050919050565b600081519050919050565b6000602082019050919050565b600082825260208201905092915050565b600082825260208201905092915050565b6000611a1282611a25565b9050919050565b60008115159050919050565b600073ffffffffffffffffffffffffffffffffffffffff82169050919050565b6000819050919050565b82818337600083830152505050565b60005b83811015611a7c578082015181840152602081019050611a61565b83811115611a8b576000848401525b50505050565b60006002820490506001821680611aa957607f821691505b60208210811415611abd57611abc611b3b565b5b50919050565b6000611ace82611a45565b91507fffffffffffffffffffffffffffffffffffffffffffffffffffffffffffffffff821415611b0157611b00611b0c565b5b600182019050919050565b7f4e487b7100000000000000000000000000000000000000000000000000000000600052601160045260246000fd5b7f4e487b7100000000000000000000000000000000000000000000000000000000600052602260045260246000fd5b7f4e487b7100000000000000000000000000000000000000000000000000000000600052604160045260246000fd5b6000601f19601f8301169050919050565b611bb381611a07565b8114611bbe57600080fd5b50565b611bca81611a45565b8114611bd557600080fd5b5056fea2646970667358221220303d7ab34bcde83b9b0a645a26d4097ec4c8fa9f0d55954f8918ee38f3c619cb64736f6c63430008000033",
  "immutableReferences": {},
  "source": "// SPDX-License-Identifier: MIT\r\npragma solidity ^0.8.0;\r\n\r\nimport \"./Hospital.sol\";\r\n\r\ncontract AllergyHistoryRecords is HospitalRecords {\r\n\r\n    struct AllergyRecord {\r\n        address owner; //Patient's address\r\n        address hospitalAddr;\r\n        string allergen;\r\n        string allergyType; // ex. Drug Allergy, Food Allergy, Environmental Allergy, Insect Sting Allergy\r\n        string severity;\r\n        string reaction;\r\n        string dateStarted;\r\n        string lastReactionDate;\r\n        string medications;\r\n    }\r\n\r\n    address[] public allergyHistoryList;\r\n    mapping(address => AllergyRecord) public allergyRecords;\r\n    mapping(address => address[]) public patientAllergyRecords;\r\n    uint256 public allergyHistoryCount = 0;\r\n\r\n    function addAllergyHistory(\r\n        address _patientAddr,\r\n        string memory _allergen,\r\n        string memory _allergyType,\r\n        string memory _severity,\r\n        string memory _reaction,\r\n        string memory _dateStarted,\r\n        string memory _lastReactionDate,\r\n        string memory _medications\r\n    ) public {\r\n        require(isHospital[msg.sender]);\r\n        // Set the details of the new medical history record\r\n        AllergyRecord storage record = allergyRecords[_patientAddr];\r\n        \r\n        record.hospitalAddr = msg.sender;\r\n        record.owner = _patientAddr;\r\n        record.allergen = _allergen;\r\n        record.allergyType = _allergyType;\r\n        record.severity = _severity;\r\n        record.reaction = _reaction;\r\n        record.dateStarted = _dateStarted;\r\n        record.lastReactionDate = _lastReactionDate;\r\n        record.medications = _medications;\r\n\r\n        // Update patient's history records and increment the total count\r\n        patientAllergyRecords[_patientAddr].push(msg.sender);\r\n        allergyHistoryCount++;\r\n    }\r\n\r\n    function editAllergyHistory(\r\n        address _patientAddr,\r\n        string memory _allergen,\r\n        string memory _allergyType,\r\n        string memory _severity,\r\n        string memory _reaction,\r\n        string memory _dateStarted,\r\n        string memory _lastReactionDate,\r\n        string memory _medications\r\n    ) public {\r\n        require(isHospital[msg.sender]);\r\n        // Set the details of the new medical history record\r\n        AllergyRecord storage record = allergyRecords[_patientAddr];\r\n        \r\n         // Check if the record exists and belongs to the specified patient\r\n        require(record.hospitalAddr != address(0), \"Record does not exist\");\r\n\r\n        record.hospitalAddr = msg.sender;\r\n        record.owner = _patientAddr;\r\n        record.allergen = _allergen;\r\n        record.allergyType = _allergyType;\r\n        record.severity = _severity;\r\n        record.reaction = _reaction;\r\n        record.dateStarted = _dateStarted;\r\n        record.lastReactionDate = _lastReactionDate;\r\n        record.medications = _medications;\r\n    }\r\n}",
  "sourcePath": "C:\\Users\\Abby\\Desktop\\APPCON 2023\\MediVerse-Web3-Dapp\\contracts\\AllergyHistory.sol",
  "compiler": {
    "name": "solc",
    "version": "0.8.0+commit.c7dfd78e.Emscripten.clang"
  },
  "schemaVersion": "3.4.16",
  "updatedAt": "2024-02-19T16:06:39.946Z",
  "networkType": "ethereum",
  "devdoc": {
    "kind": "dev",
    "methods": {},
    "version": 1
  },
  "userdoc": {
    "kind": "user",
    "methods": {},
    "version": 1
  }
}