{
  "contractName": "HospitalRecords",
  "abi": [
    {
      "inputs": [],
      "name": "hospitalCount",
      "outputs": [
        {
          "internalType": "uint256",
          "name": "",
          "type": "uint256"
        }
      ],
      "stateMutability": "view",
      "type": "function",
      "constant": true
    },
    {
      "inputs": [
        {
          "internalType": "uint256",
          "name": "",
          "type": "uint256"
        }
      ],
      "name": "hospitalList",
      "outputs": [
        {
          "internalType": "address",
          "name": "",
          "type": "address"
        }
      ],
      "stateMutability": "view",
      "type": "function",
      "constant": true
    },
    {
      "inputs": [
        {
          "internalType": "address",
          "name": "",
          "type": "address"
        }
      ],
      "name": "hospitals",
      "outputs": [
        {
          "internalType": "string",
          "name": "hospitalName",
          "type": "string"
        },
        {
          "internalType": "string",
          "name": "contactNum",
          "type": "string"
        },
        {
          "internalType": "string",
          "name": "hospitalAddress",
          "type": "string"
        },
        {
          "internalType": "address",
          "name": "addr",
          "type": "address"
        },
        {
          "internalType": "uint256",
          "name": "date",
          "type": "uint256"
        }
      ],
      "stateMutability": "view",
      "type": "function",
      "constant": true
    },
    {
      "inputs": [
        {
          "internalType": "address",
          "name": "",
          "type": "address"
        }
      ],
      "name": "isHospital",
      "outputs": [
        {
          "internalType": "bool",
          "name": "",
          "type": "bool"
        }
      ],
      "stateMutability": "view",
      "type": "function",
      "constant": true
    },
    {
      "inputs": [
        {
          "internalType": "string",
          "name": "_hospitalName",
          "type": "string"
        },
        {
          "internalType": "string",
          "name": "_contactNum",
          "type": "string"
        },
        {
          "internalType": "string",
          "name": "_hospitalAddress",
          "type": "string"
        }
      ],
      "name": "registerHospital",
      "outputs": [],
      "stateMutability": "nonpayable",
      "type": "function"
    },
    {
      "inputs": [
        {
          "internalType": "string",
          "name": "_hospitalName",
          "type": "string"
        },
        {
          "internalType": "string",
          "name": "_contactNum",
          "type": "string"
        },
        {
          "internalType": "string",
          "name": "_hospitalAddress",
          "type": "string"
        }
      ],
      "name": "editHospitalProfile",
      "outputs": [],
      "stateMutability": "nonpayable",
      "type": "function"
    },
    {
      "inputs": [],
      "name": "getHospitalList",
      "outputs": [
        {
          "internalType": "address[]",
          "name": "",
          "type": "address[]"
        }
      ],
      "stateMutability": "view",
      "type": "function",
      "constant": true
    },
    {
      "inputs": [],
      "name": "getHospitalCount",
      "outputs": [
        {
          "internalType": "uint256",
          "name": "",
          "type": "uint256"
        }
      ],
      "stateMutability": "view",
      "type": "function",
      "constant": true
    }
  ],
  "bytecode": "0x6080604052600060035534801561001557600080fd5b50610e33806100256000396000f3fe608060405234801561001057600080fd5b50600436106100885760003560e01c8063bdf6c6731161005b578063bdf6c67314610101578063c82412b914610131578063f093cf8014610161578063fe45a81d1461019557610088565b806321a1500a1461008d578063350dadb7146100a9578063526b44ac146100c75780636933e414146100e3575b600080fd5b6100a760048036038101906100a291906108f0565b6101b3565b005b6100b161029d565b6040516100be9190610b5b565b60405180910390f35b6100e160048036038101906100dc91906108f0565b6102a3565b005b6100eb6104ad565b6040516100f89190610ab6565b60405180910390f35b61011b600480360381019061011691906108c7565b61053b565b6040516101289190610ad8565b60405180910390f35b61014b60048036038101906101469190610987565b61055b565b6040516101589190610a9b565b60405180910390f35b61017b600480360381019061017691906108c7565b61059a565b60405161018c959493929190610af3565b60405180910390f35b61019d610788565b6040516101aa9190610b5b565b60405180910390f35b600260003373ffffffffffffffffffffffffffffffffffffffff1673ffffffffffffffffffffffffffffffffffffffff16815260200190815260200160002060009054906101000a900460ff1661020957600080fd5b6000600160003373ffffffffffffffffffffffffffffffffffffffff1673ffffffffffffffffffffffffffffffffffffffff168152602001908152602001600020905083816000019080519060200190610264929190610792565b508281600101908051906020019061027d929190610792565b5081816002019080519060200190610296929190610792565b5050505050565b60035481565b600260003373ffffffffffffffffffffffffffffffffffffffff1673ffffffffffffffffffffffffffffffffffffffff16815260200190815260200160002060009054906101000a900460ff16156102fa57600080fd5b6000600160003373ffffffffffffffffffffffffffffffffffffffff1673ffffffffffffffffffffffffffffffffffffffff168152602001908152602001600020905083816000019080519060200190610355929190610792565b508281600101908051906020019061036e929190610792565b5081816002019080519060200190610387929190610792565b50338160030160006101000a81548173ffffffffffffffffffffffffffffffffffffffff021916908373ffffffffffffffffffffffffffffffffffffffff1602179055504281600401819055506000339080600181540180825580915050600190039060005260206000200160009091909190916101000a81548173ffffffffffffffffffffffffffffffffffffffff021916908373ffffffffffffffffffffffffffffffffffffffff1602179055506001600260003373ffffffffffffffffffffffffffffffffffffffff1673ffffffffffffffffffffffffffffffffffffffff16815260200190815260200160002060006101000a81548160ff021916908315150217905550600360008154809291906104a290610ce8565b919050555050505050565b6060600080548060200260200160405190810160405280929190818152602001828054801561053157602002820191906000526020600020905b8160009054906101000a900473ffffffffffffffffffffffffffffffffffffffff1673ffffffffffffffffffffffffffffffffffffffff16815260200190600101908083116104e7575b5050505050905090565b60026020528060005260406000206000915054906101000a900460ff1681565b6000818154811061056b57600080fd5b906000526020600020016000915054906101000a900473ffffffffffffffffffffffffffffffffffffffff1681565b60016020528060005260406000206000915090508060000180546105bd90610cb6565b80601f01602080910402602001604051908101604052809291908181526020018280546105e990610cb6565b80156106365780601f1061060b57610100808354040283529160200191610636565b820191906000526020600020905b81548152906001019060200180831161061957829003601f168201915b50505050509080600101805461064b90610cb6565b80601f016020809104026020016040519081016040528092919081815260200182805461067790610cb6565b80156106c45780601f10610699576101008083540402835291602001916106c4565b820191906000526020600020905b8154815290600101906020018083116106a757829003601f168201915b5050505050908060020180546106d990610cb6565b80601f016020809104026020016040519081016040528092919081815260200182805461070590610cb6565b80156107525780601f1061072757610100808354040283529160200191610752565b820191906000526020600020905b81548152906001019060200180831161073557829003601f168201915b5050505050908060030160009054906101000a900473ffffffffffffffffffffffffffffffffffffffff16908060040154905085565b6000600354905090565b82805461079e90610cb6565b90600052602060002090601f0160209004810192826107c05760008555610807565b82601f106107d957805160ff1916838001178555610807565b82800160010185558215610807579182015b828111156108065782518255916020019190600101906107eb565b5b5090506108149190610818565b5090565b5b80821115610831576000816000905550600101610819565b5090565b600061084861084384610ba7565b610b76565b90508281526020810184848401111561086057600080fd5b61086b848285610c74565b509392505050565b60008135905061088281610dcf565b92915050565b600082601f83011261089957600080fd5b81356108a9848260208601610835565b91505092915050565b6000813590506108c181610de6565b92915050565b6000602082840312156108d957600080fd5b60006108e784828501610873565b91505092915050565b60008060006060848603121561090557600080fd5b600084013567ffffffffffffffff81111561091f57600080fd5b61092b86828701610888565b935050602084013567ffffffffffffffff81111561094857600080fd5b61095486828701610888565b925050604084013567ffffffffffffffff81111561097157600080fd5b61097d86828701610888565b9150509250925092565b60006020828403121561099957600080fd5b60006109a7848285016108b2565b91505092915050565b60006109bc83836109c8565b60208301905092915050565b6109d181610c2c565b82525050565b6109e081610c2c565b82525050565b60006109f182610be7565b6109fb8185610c0a565b9350610a0683610bd7565b8060005b83811015610a37578151610a1e88826109b0565b9750610a2983610bfd565b925050600181019050610a0a565b5085935050505092915050565b610a4d81610c3e565b82525050565b6000610a5e82610bf2565b610a688185610c1b565b9350610a78818560208601610c83565b610a8181610dbe565b840191505092915050565b610a9581610c6a565b82525050565b6000602082019050610ab060008301846109d7565b92915050565b60006020820190508181036000830152610ad081846109e6565b905092915050565b6000602082019050610aed6000830184610a44565b92915050565b600060a0820190508181036000830152610b0d8188610a53565b90508181036020830152610b218187610a53565b90508181036040830152610b358186610a53565b9050610b4460608301856109d7565b610b516080830184610a8c565b9695505050505050565b6000602082019050610b706000830184610a8c565b92915050565b6000604051905081810181811067ffffffffffffffff82111715610b9d57610b9c610d8f565b5b8060405250919050565b600067ffffffffffffffff821115610bc257610bc1610d8f565b5b601f19601f8301169050602081019050919050565b6000819050602082019050919050565b600081519050919050565b600081519050919050565b6000602082019050919050565b600082825260208201905092915050565b600082825260208201905092915050565b6000610c3782610c4a565b9050919050565b60008115159050919050565b600073ffffffffffffffffffffffffffffffffffffffff82169050919050565b6000819050919050565b82818337600083830152505050565b60005b83811015610ca1578082015181840152602081019050610c86565b83811115610cb0576000848401525b50505050565b60006002820490506001821680610cce57607f821691505b60208210811415610ce257610ce1610d60565b5b50919050565b6000610cf382610c6a565b91507fffffffffffffffffffffffffffffffffffffffffffffffffffffffffffffffff821415610d2657610d25610d31565b5b600182019050919050565b7f4e487b7100000000000000000000000000000000000000000000000000000000600052601160045260246000fd5b7f4e487b7100000000000000000000000000000000000000000000000000000000600052602260045260246000fd5b7f4e487b7100000000000000000000000000000000000000000000000000000000600052604160045260246000fd5b6000601f19601f8301169050919050565b610dd881610c2c565b8114610de357600080fd5b50565b610def81610c6a565b8114610dfa57600080fd5b5056fea2646970667358221220272e4aae769c05a9cc550f6206484c0abd54b8cfe5a485fc8ca944a7fe03a70264736f6c63430008000033",
  "immutableReferences": {},
  "source": "// SPDX-License-Identifier: MIT\r\npragma solidity >=0.4.22 <0.9.0;\r\n\r\ncontract HospitalRecords {\r\n\r\n    struct Hospital {\r\n        string hospitalName;\r\n        string contactNum;\r\n        string hospitalAddress;\r\n        address addr;\r\n        uint date;\r\n    }\r\n\r\n    address[] public hospitalList;\r\n    mapping(address => Hospital) public hospitals; // Mapping to associate addresses with structs\r\n    mapping(address => bool) public isHospital; //tracks of whether a specific Ethereum address is registered\r\n    uint256 public hospitalCount = 0; // Total count of registered hospital\r\n \r\n\r\n    function registerHospital(string memory _hospitalName, string memory _contactNum, string memory _hospitalAddress) public {\r\n        require(!isHospital[msg.sender]);\r\n        \r\n        Hospital storage h = hospitals[msg.sender];\r\n        \r\n        h.hospitalName = _hospitalName;\r\n        h.contactNum = _contactNum;\r\n        h.hospitalAddress = _hospitalAddress;\r\n        h.addr = msg.sender;\r\n        h.date = block.timestamp;\r\n\r\n        hospitalList.push(msg.sender);\r\n        isHospital[msg.sender] = true;\r\n        hospitalCount++;\r\n    }\r\n\r\n    function editHospitalProfile(string memory _hospitalName, string memory _contactNum, string memory _hospitalAddress) public {\r\n        require(isHospital[msg.sender]);\r\n       \r\n        Hospital storage h = hospitals[msg.sender];\r\n        \r\n        h.hospitalName = _hospitalName;\r\n        h.contactNum = _contactNum;\r\n        h.hospitalAddress = _hospitalAddress;\r\n    }\r\n\r\n    function getHospitalList() public view returns (address[] memory) {\r\n        return hospitalList;\r\n    }\r\n\r\n    function getHospitalCount() public view returns(uint256) {\r\n        return hospitalCount;\r\n    }\r\n}\r\n",
  "sourcePath": "C:\\Users\\Abby\\Desktop\\APPCON 2023\\MediVerse-Web3-Dapp\\contracts\\Hospital.sol",
  "compiler": {
    "name": "solc",
    "version": "0.8.0+commit.c7dfd78e.Emscripten.clang"
  },
  "schemaVersion": "3.4.16",
  "updatedAt": "2024-02-19T16:06:39.861Z",
  "networkType": "ethereum",
  "devdoc": {
    "kind": "dev",
    "methods": {},
    "version": 1
  },
  "userdoc": {
    "kind": "user",
    "methods": {},
    "version": 1
  }
}