{
  "contractName": "HospitalRecords",
  "abi": [
    {
      "inputs": [],
      "stateMutability": "nonpayable",
      "type": "constructor"
    },
    {
      "anonymous": false,
      "inputs": [
        {
          "indexed": false,
          "internalType": "string",
          "name": "hospitalName",
          "type": "string"
        },
        {
          "indexed": false,
          "internalType": "string",
          "name": "contactNum",
          "type": "string"
        },
        {
          "indexed": false,
          "internalType": "string",
          "name": "hospitalAddress",
          "type": "string"
        }
      ],
      "name": "HospitalRegistered",
      "type": "event"
    },
    {
      "inputs": [],
      "name": "hospitalCount",
      "outputs": [
        {
          "internalType": "uint256",
          "name": "",
          "type": "uint256"
        }
      ],
      "stateMutability": "view",
      "type": "function",
      "constant": true
    },
    {
      "inputs": [
        {
          "internalType": "uint256",
          "name": "",
          "type": "uint256"
        }
      ],
      "name": "hospitalList",
      "outputs": [
        {
          "internalType": "address",
          "name": "",
          "type": "address"
        }
      ],
      "stateMutability": "view",
      "type": "function",
      "constant": true
    },
    {
      "inputs": [
        {
          "internalType": "address",
          "name": "",
          "type": "address"
        }
      ],
      "name": "hospitals",
      "outputs": [
        {
          "internalType": "string",
          "name": "hospitalName",
          "type": "string"
        },
        {
          "internalType": "string",
          "name": "contactNum",
          "type": "string"
        },
        {
          "internalType": "string",
          "name": "hospitalAddress",
          "type": "string"
        },
        {
          "internalType": "address",
          "name": "addr",
          "type": "address"
        },
        {
          "internalType": "uint256",
          "name": "date",
          "type": "uint256"
        }
      ],
      "stateMutability": "view",
      "type": "function",
      "constant": true
    },
    {
      "inputs": [
        {
          "internalType": "address",
          "name": "",
          "type": "address"
        }
      ],
      "name": "isHospital",
      "outputs": [
        {
          "internalType": "bool",
          "name": "",
          "type": "bool"
        }
      ],
      "stateMutability": "view",
      "type": "function",
      "constant": true
    },
    {
      "inputs": [],
      "name": "owner",
      "outputs": [
        {
          "internalType": "address",
          "name": "",
          "type": "address"
        }
      ],
      "stateMutability": "view",
      "type": "function",
      "constant": true
    },
    {
      "inputs": [
        {
          "internalType": "string",
          "name": "_hospitalName",
          "type": "string"
        },
        {
          "internalType": "string",
          "name": "_contactNum",
          "type": "string"
        },
        {
          "internalType": "string",
          "name": "_hospitalAddress",
          "type": "string"
        }
      ],
      "name": "registerHospital",
      "outputs": [],
      "stateMutability": "nonpayable",
      "type": "function"
    },
    {
      "inputs": [
        {
          "internalType": "string",
          "name": "_hospitalName",
          "type": "string"
        },
        {
          "internalType": "string",
          "name": "_contactNum",
          "type": "string"
        },
        {
          "internalType": "string",
          "name": "_hospitalAddress",
          "type": "string"
        }
      ],
      "name": "editHospitalProfile",
      "outputs": [],
      "stateMutability": "nonpayable",
      "type": "function"
    }
  ],
  "bytecode": "0x6080604052600060045534801561001557600080fd5b50336000806101000a81548173ffffffffffffffffffffffffffffffffffffffff021916908373ffffffffffffffffffffffffffffffffffffffff160217905550610f24806100656000396000f3fe608060405234801561001057600080fd5b506004361061007d5760003560e01c80638da5cb5b1161005b5780638da5cb5b146100d8578063bdf6c673146100f6578063c82412b914610126578063f093cf80146101565761007d565b806321a1500a14610082578063350dadb71461009e578063526b44ac146100bc575b600080fd5b61009c60048036038101906100979190610a75565b61018a565b005b6100a6610274565b6040516100b39190610c85565b60405180910390f35b6100d660048036038101906100d19190610a75565b61027a565b005b6100e06106a6565b6040516100ed9190610b9b565b60405180910390f35b610110600480360381019061010b9190610a4c565b6106ca565b60405161011d9190610bb6565b60405180910390f35b610140600480360381019061013b9190610b0c565b6106ea565b60405161014d9190610b9b565b60405180910390f35b610170600480360381019061016b9190610a4c565b610729565b604051610181959493929190610c1d565b60405180910390f35b600360003373ffffffffffffffffffffffffffffffffffffffff1673ffffffffffffffffffffffffffffffffffffffff16815260200190815260200160002060009054906101000a900460ff166101e057600080fd5b6000600260003373ffffffffffffffffffffffffffffffffffffffff1673ffffffffffffffffffffffffffffffffffffffff16815260200190815260200160002090508381600001908051906020019061023b929190610917565b5082816001019080519060200190610254929190610917565b508181600201908051906020019061026d929190610917565b5050505050565b60045481565b600360003373ffffffffffffffffffffffffffffffffffffffff1673ffffffffffffffffffffffffffffffffffffffff16815260200190815260200160002060009054906101000a900460ff16156102d157600080fd5b6000600260003373ffffffffffffffffffffffffffffffffffffffff1673ffffffffffffffffffffffffffffffffffffffff1681526020019081526020016000206040518060a001604052908160008201805461032d90610da7565b80601f016020809104026020016040519081016040528092919081815260200182805461035990610da7565b80156103a65780601f1061037b576101008083540402835291602001916103a6565b820191906000526020600020905b81548152906001019060200180831161038957829003601f168201915b505050505081526020016001820180546103bf90610da7565b80601f01602080910402602001604051908101604052809291908181526020018280546103eb90610da7565b80156104385780601f1061040d57610100808354040283529160200191610438565b820191906000526020600020905b81548152906001019060200180831161041b57829003601f168201915b5050505050815260200160028201805461045190610da7565b80601f016020809104026020016040519081016040528092919081815260200182805461047d90610da7565b80156104ca5780601f1061049f576101008083540402835291602001916104ca565b820191906000526020600020905b8154815290600101906020018083116104ad57829003601f168201915b505050505081526020016003820160009054906101000a900473ffffffffffffffffffffffffffffffffffffffff1673ffffffffffffffffffffffffffffffffffffffff1673ffffffffffffffffffffffffffffffffffffffff168152602001600482015481525050905083816000018190525082816020018190525081816040018190525033816060019073ffffffffffffffffffffffffffffffffffffffff16908173ffffffffffffffffffffffffffffffffffffffff1681525050428160800181815250506001339080600181540180825580915050600190039060005260206000200160009091909190916101000a81548173ffffffffffffffffffffffffffffffffffffffff021916908373ffffffffffffffffffffffffffffffffffffffff1602179055506001600360003373ffffffffffffffffffffffffffffffffffffffff1673ffffffffffffffffffffffffffffffffffffffff16815260200190815260200160002060006101000a81548160ff0219169083151502179055506004600081548092919061066090610dd9565b91905055507f23aa8fdc0870e3f48bc2931180efd70f49de2684ea4d8b6734c24942849780f984848460405161069893929190610bd1565b60405180910390a150505050565b60008054906101000a900473ffffffffffffffffffffffffffffffffffffffff1681565b60036020528060005260406000206000915054906101000a900460ff1681565b600181815481106106fa57600080fd5b906000526020600020016000915054906101000a900473ffffffffffffffffffffffffffffffffffffffff1681565b600260205280600052604060002060009150905080600001805461074c90610da7565b80601f016020809104026020016040519081016040528092919081815260200182805461077890610da7565b80156107c55780601f1061079a576101008083540402835291602001916107c5565b820191906000526020600020905b8154815290600101906020018083116107a857829003601f168201915b5050505050908060010180546107da90610da7565b80601f016020809104026020016040519081016040528092919081815260200182805461080690610da7565b80156108535780601f1061082857610100808354040283529160200191610853565b820191906000526020600020905b81548152906001019060200180831161083657829003601f168201915b50505050509080600201805461086890610da7565b80601f016020809104026020016040519081016040528092919081815260200182805461089490610da7565b80156108e15780601f106108b6576101008083540402835291602001916108e1565b820191906000526020600020905b8154815290600101906020018083116108c457829003601f168201915b5050505050908060030160009054906101000a900473ffffffffffffffffffffffffffffffffffffffff16908060040154905085565b82805461092390610da7565b90600052602060002090601f016020900481019282610945576000855561098c565b82601f1061095e57805160ff191683800117855561098c565b8280016001018555821561098c579182015b8281111561098b578251825591602001919060010190610970565b5b509050610999919061099d565b5090565b5b808211156109b657600081600090555060010161099e565b5090565b60006109cd6109c884610cd1565b610ca0565b9050828152602081018484840111156109e557600080fd5b6109f0848285610d65565b509392505050565b600081359050610a0781610ec0565b92915050565b600082601f830112610a1e57600080fd5b8135610a2e8482602086016109ba565b91505092915050565b600081359050610a4681610ed7565b92915050565b600060208284031215610a5e57600080fd5b6000610a6c848285016109f8565b91505092915050565b600080600060608486031215610a8a57600080fd5b600084013567ffffffffffffffff811115610aa457600080fd5b610ab086828701610a0d565b935050602084013567ffffffffffffffff811115610acd57600080fd5b610ad986828701610a0d565b925050604084013567ffffffffffffffff811115610af657600080fd5b610b0286828701610a0d565b9150509250925092565b600060208284031215610b1e57600080fd5b6000610b2c84828501610a37565b91505092915050565b610b3e81610d1d565b82525050565b610b4d81610d2f565b82525050565b6000610b5e82610d01565b610b688185610d0c565b9350610b78818560208601610d74565b610b8181610eaf565b840191505092915050565b610b9581610d5b565b82525050565b6000602082019050610bb06000830184610b35565b92915050565b6000602082019050610bcb6000830184610b44565b92915050565b60006060820190508181036000830152610beb8186610b53565b90508181036020830152610bff8185610b53565b90508181036040830152610c138184610b53565b9050949350505050565b600060a0820190508181036000830152610c378188610b53565b90508181036020830152610c4b8187610b53565b90508181036040830152610c5f8186610b53565b9050610c6e6060830185610b35565b610c7b6080830184610b8c565b9695505050505050565b6000602082019050610c9a6000830184610b8c565b92915050565b6000604051905081810181811067ffffffffffffffff82111715610cc757610cc6610e80565b5b8060405250919050565b600067ffffffffffffffff821115610cec57610ceb610e80565b5b601f19601f8301169050602081019050919050565b600081519050919050565b600082825260208201905092915050565b6000610d2882610d3b565b9050919050565b60008115159050919050565b600073ffffffffffffffffffffffffffffffffffffffff82169050919050565b6000819050919050565b82818337600083830152505050565b60005b83811015610d92578082015181840152602081019050610d77565b83811115610da1576000848401525b50505050565b60006002820490506001821680610dbf57607f821691505b60208210811415610dd357610dd2610e51565b5b50919050565b6000610de482610d5b565b91507fffffffffffffffffffffffffffffffffffffffffffffffffffffffffffffffff821415610e1757610e16610e22565b5b600182019050919050565b7f4e487b7100000000000000000000000000000000000000000000000000000000600052601160045260246000fd5b7f4e487b7100000000000000000000000000000000000000000000000000000000600052602260045260246000fd5b7f4e487b7100000000000000000000000000000000000000000000000000000000600052604160045260246000fd5b6000601f19601f8301169050919050565b610ec981610d1d565b8114610ed457600080fd5b50565b610ee081610d5b565b8114610eeb57600080fd5b5056fea2646970667358221220a842b641537e5a0d17da737d65032ac30dd333e3419aa53adfd10b28b3f52b2564736f6c63430008000033",
  "immutableReferences": {},
  "source": "// SPDX-License-Identifier: MIT\r\npragma solidity >=0.4.22 <0.9.0;\r\n\r\ncontract HospitalRecords {\r\n\r\n    event HospitalRegistered(string hospitalName, string contactNum, string hospitalAddress);\r\n\r\n   struct Hospital {\r\n        string hospitalName;\r\n        string contactNum;\r\n        string hospitalAddress;\r\n        address addr;\r\n        uint date;\r\n    }\r\n\r\n    address public owner; \r\n    address[] public hospitalList;\r\n    mapping(address => Hospital) public hospitals; // Mapping to associate addresses with structs\r\n    mapping(address => bool) public isHospital; //tracks of whether a specific Ethereum address is registered\r\n    uint256 public hospitalCount = 0; // Total count of registered hospital\r\n    \r\n    constructor() {\r\n        owner = msg.sender;\r\n    }\r\n\r\n    function registerHospital(string memory _hospitalName, string memory _contactNum, string memory _hospitalAddress) public {\r\n        require(!isHospital[msg.sender]);\r\n        \r\n        Hospital memory h = hospitals[msg.sender];\r\n        h.hospitalName = _hospitalName;\r\n        h.contactNum = _contactNum;\r\n        h.hospitalAddress = _hospitalAddress;\r\n        h.addr = msg.sender;\r\n        h.date = block.timestamp;\r\n\r\n        hospitalList.push(msg.sender);\r\n        isHospital[msg.sender] = true;\r\n        hospitalCount++;\r\n        emit HospitalRegistered(_hospitalName, _contactNum, _hospitalAddress);\r\n    }\r\n\r\n    function editHospitalProfile(string memory _hospitalName, string memory _contactNum, string memory _hospitalAddress) public {\r\n        require(isHospital[msg.sender]);\r\n        Hospital storage h = hospitals[msg.sender];\r\n        \r\n        h.hospitalName = _hospitalName;\r\n        h.contactNum = _contactNum;\r\n        h.hospitalAddress = _hospitalAddress;\r\n    }\r\n}\r\n",
  "sourcePath": "C:\\Users\\Abby\\Desktop\\APPCON 2023\\MediVerse-Web3-Dapp\\contracts\\Hospital.sol",
  "compiler": {
    "name": "solc",
    "version": "0.8.0+commit.c7dfd78e.Emscripten.clang"
  },
  "schemaVersion": "3.4.16",
  "updatedAt": "2024-02-13T16:57:47.034Z",
  "networkType": "ethereum",
  "devdoc": {
    "kind": "dev",
    "methods": {},
    "version": 1
  },
  "userdoc": {
    "kind": "user",
    "methods": {},
    "version": 1
  }
}