{
  "contractName": "HospitalizationHistoryRecords",
  "abi": [
    {
      "inputs": [
        {
          "internalType": "string",
          "name": "_hospitalName",
          "type": "string"
        },
        {
          "internalType": "string",
          "name": "_contactNum",
          "type": "string"
        },
        {
          "internalType": "string",
          "name": "_hospitalAddress",
          "type": "string"
        }
      ],
      "name": "editHospitalProfile",
      "outputs": [],
      "stateMutability": "nonpayable",
      "type": "function"
    },
    {
      "inputs": [],
      "name": "getHospitalCount",
      "outputs": [
        {
          "internalType": "uint256",
          "name": "",
          "type": "uint256"
        }
      ],
      "stateMutability": "view",
      "type": "function",
      "constant": true
    },
    {
      "inputs": [],
      "name": "getHospitalList",
      "outputs": [
        {
          "internalType": "address[]",
          "name": "",
          "type": "address[]"
        }
      ],
      "stateMutability": "view",
      "type": "function",
      "constant": true
    },
    {
      "inputs": [],
      "name": "hospitalCount",
      "outputs": [
        {
          "internalType": "uint256",
          "name": "",
          "type": "uint256"
        }
      ],
      "stateMutability": "view",
      "type": "function",
      "constant": true
    },
    {
      "inputs": [
        {
          "internalType": "uint256",
          "name": "",
          "type": "uint256"
        }
      ],
      "name": "hospitalList",
      "outputs": [
        {
          "internalType": "address",
          "name": "",
          "type": "address"
        }
      ],
      "stateMutability": "view",
      "type": "function",
      "constant": true
    },
    {
      "inputs": [],
      "name": "hospitalizationHistoryCount",
      "outputs": [
        {
          "internalType": "uint256",
          "name": "",
          "type": "uint256"
        }
      ],
      "stateMutability": "view",
      "type": "function",
      "constant": true
    },
    {
      "inputs": [
        {
          "internalType": "uint256",
          "name": "",
          "type": "uint256"
        }
      ],
      "name": "hospitalizationList",
      "outputs": [
        {
          "internalType": "address",
          "name": "",
          "type": "address"
        }
      ],
      "stateMutability": "view",
      "type": "function",
      "constant": true
    },
    {
      "inputs": [
        {
          "internalType": "address",
          "name": "",
          "type": "address"
        }
      ],
      "name": "hospitalizationRecords",
      "outputs": [
        {
          "internalType": "address",
          "name": "owner",
          "type": "address"
        },
        {
          "internalType": "address",
          "name": "hospitalAddr",
          "type": "address"
        },
        {
          "internalType": "string",
          "name": "hospital",
          "type": "string"
        },
        {
          "internalType": "string",
          "name": "admissionDate",
          "type": "string"
        },
        {
          "internalType": "string",
          "name": "dischargeDate",
          "type": "string"
        },
        {
          "internalType": "string",
          "name": "reasonForHospitalization",
          "type": "string"
        },
        {
          "internalType": "string",
          "name": "admittingDiagnosis",
          "type": "string"
        },
        {
          "internalType": "string",
          "name": "dischargeDiagnosis",
          "type": "string"
        }
      ],
      "stateMutability": "view",
      "type": "function",
      "constant": true
    },
    {
      "inputs": [
        {
          "internalType": "address",
          "name": "",
          "type": "address"
        }
      ],
      "name": "hospitals",
      "outputs": [
        {
          "internalType": "string",
          "name": "hospitalName",
          "type": "string"
        },
        {
          "internalType": "string",
          "name": "contactNum",
          "type": "string"
        },
        {
          "internalType": "string",
          "name": "hospitalAddress",
          "type": "string"
        },
        {
          "internalType": "address",
          "name": "addr",
          "type": "address"
        },
        {
          "internalType": "uint256",
          "name": "date",
          "type": "uint256"
        }
      ],
      "stateMutability": "view",
      "type": "function",
      "constant": true
    },
    {
      "inputs": [
        {
          "internalType": "address",
          "name": "",
          "type": "address"
        }
      ],
      "name": "isHospital",
      "outputs": [
        {
          "internalType": "bool",
          "name": "",
          "type": "bool"
        }
      ],
      "stateMutability": "view",
      "type": "function",
      "constant": true
    },
    {
      "inputs": [
        {
          "internalType": "address",
          "name": "",
          "type": "address"
        },
        {
          "internalType": "uint256",
          "name": "",
          "type": "uint256"
        }
      ],
      "name": "patientHospitalizationRecords",
      "outputs": [
        {
          "internalType": "address",
          "name": "",
          "type": "address"
        }
      ],
      "stateMutability": "view",
      "type": "function",
      "constant": true
    },
    {
      "inputs": [
        {
          "internalType": "string",
          "name": "_hospitalName",
          "type": "string"
        },
        {
          "internalType": "string",
          "name": "_contactNum",
          "type": "string"
        },
        {
          "internalType": "string",
          "name": "_hospitalAddress",
          "type": "string"
        }
      ],
      "name": "registerHospital",
      "outputs": [],
      "stateMutability": "nonpayable",
      "type": "function"
    },
    {
      "inputs": [
        {
          "internalType": "address",
          "name": "_patientAddr",
          "type": "address"
        },
        {
          "internalType": "string",
          "name": "_hospital",
          "type": "string"
        },
        {
          "internalType": "string",
          "name": "_admissionDate",
          "type": "string"
        },
        {
          "internalType": "string",
          "name": "_dischargeDate",
          "type": "string"
        },
        {
          "internalType": "string",
          "name": "_reasonForHospitalization",
          "type": "string"
        },
        {
          "internalType": "string",
          "name": "_admittingDiagnosis",
          "type": "string"
        },
        {
          "internalType": "string",
          "name": "_dischargeDiagnosis",
          "type": "string"
        }
      ],
      "name": "addHospitalizationHistory",
      "outputs": [],
      "stateMutability": "nonpayable",
      "type": "function"
    },
    {
      "inputs": [
        {
          "internalType": "address",
          "name": "_patientAddr",
          "type": "address"
        },
        {
          "internalType": "string",
          "name": "_hospital",
          "type": "string"
        },
        {
          "internalType": "string",
          "name": "_admissionDate",
          "type": "string"
        },
        {
          "internalType": "string",
          "name": "_dischargeDate",
          "type": "string"
        },
        {
          "internalType": "string",
          "name": "_reasonForHospitalization",
          "type": "string"
        },
        {
          "internalType": "string",
          "name": "_admittingDiagnosis",
          "type": "string"
        },
        {
          "internalType": "string",
          "name": "_dischargeDiagnosis",
          "type": "string"
        }
      ],
      "name": "editHospitalizationHistory",
      "outputs": [],
      "stateMutability": "nonpayable",
      "type": "function"
    },
    {
      "inputs": [
        {
          "internalType": "address",
          "name": "patientAddr",
          "type": "address"
        }
      ],
      "name": "getHospitalizationHistory",
      "outputs": [
        {
          "components": [
            {
              "internalType": "address",
              "name": "owner",
              "type": "address"
            },
            {
              "internalType": "address",
              "name": "hospitalAddr",
              "type": "address"
            },
            {
              "internalType": "string",
              "name": "hospital",
              "type": "string"
            },
            {
              "internalType": "string",
              "name": "admissionDate",
              "type": "string"
            },
            {
              "internalType": "string",
              "name": "dischargeDate",
              "type": "string"
            },
            {
              "internalType": "string",
              "name": "reasonForHospitalization",
              "type": "string"
            },
            {
              "internalType": "string",
              "name": "admittingDiagnosis",
              "type": "string"
            },
            {
              "internalType": "string",
              "name": "dischargeDiagnosis",
              "type": "string"
            }
          ],
          "internalType": "struct HospitalizationHistoryRecords.HospitalizationRecord",
          "name": "",
          "type": "tuple"
        }
      ],
      "stateMutability": "view",
      "type": "function",
      "constant": true
    }
  ],
  "bytecode": "0x60806040526000600355600060085534801561001a57600080fd5b5061228f8061002a6000396000f3fe608060405234801561001057600080fd5b50600436106100f55760003560e01c806361c4f4a311610097578063bdf6c67311610066578063bdf6c6731461028b578063c82412b9146102bb578063f093cf80146102eb578063fe45a81d1461031f576100f5565b806361c4f4a3146101fc578063683f479d1461021a5780636933e41414610236578063a364e9e614610254576100f5565b80634a5c40af116100d35780634a5c40af14610150578063526b44ac146101805780635c6a5f971461019c5780635cbe9d5a146101cc576100f5565b80630392de5b146100fa57806321a1500a14610116578063350dadb714610132575b600080fd5b610114600480360381019061010f919061193b565b61033d565b005b610130600480360381019061012b9190611aa5565b610590565b005b61013a61067a565b6040516101479190611fa6565b60405180910390f35b61016a60048036038101906101659190611912565b610680565b6040516101779190611f84565b60405180910390f35b61019a60048036038101906101959190611aa5565b610bbb565b005b6101b660048036038101906101b19190611b3c565b610dc5565b6040516101c39190611ddc565b60405180910390f35b6101e660048036038101906101e19190611a69565b610e04565b6040516101f39190611ddc565b60405180910390f35b610204610e52565b6040516102119190611fa6565b60405180910390f35b610234600480360381019061022f919061193b565b610e58565b005b61023e6110cf565b60405161024b9190611e9f565b60405180910390f35b61026e60048036038101906102699190611912565b61115d565b604051610282989796959493929190611df7565b60405180910390f35b6102a560048036038101906102a09190611912565b611515565b6040516102b29190611ec1565b60405180910390f35b6102d560048036038101906102d09190611b3c565b611535565b6040516102e29190611ddc565b60405180910390f35b61030560048036038101906103009190611912565b611574565b604051610316959493929190611edc565b60405180910390f35b610327611762565b6040516103349190611fa6565b60405180910390f35b600260003373ffffffffffffffffffffffffffffffffffffffff1673ffffffffffffffffffffffffffffffffffffffff16815260200190815260200160002060009054906101000a900460ff1661039357600080fd5b6000600660008973ffffffffffffffffffffffffffffffffffffffff1673ffffffffffffffffffffffffffffffffffffffff1681526020019081526020016000209050600073ffffffffffffffffffffffffffffffffffffffff168160010160009054906101000a900473ffffffffffffffffffffffffffffffffffffffff1673ffffffffffffffffffffffffffffffffffffffff16141561046a576040517f08c379a000000000000000000000000000000000000000000000000000000000815260040161046190611f44565b60405180910390fd5b338160010160006101000a81548173ffffffffffffffffffffffffffffffffffffffff021916908373ffffffffffffffffffffffffffffffffffffffff160217905550878160000160006101000a81548173ffffffffffffffffffffffffffffffffffffffff021916908373ffffffffffffffffffffffffffffffffffffffff1602179055508681600201908051906020019061050892919061176c565b508581600301908051906020019061052192919061176c565b508481600401908051906020019061053a92919061176c565b508381600501908051906020019061055392919061176c565b508281600601908051906020019061056c92919061176c565b508181600701908051906020019061058592919061176c565b505050505050505050565b600260003373ffffffffffffffffffffffffffffffffffffffff1673ffffffffffffffffffffffffffffffffffffffff16815260200190815260200160002060009054906101000a900460ff166105e657600080fd5b6000600160003373ffffffffffffffffffffffffffffffffffffffff1673ffffffffffffffffffffffffffffffffffffffff16815260200190815260200160002090508381600001908051906020019061064192919061176c565b508281600101908051906020019061065a92919061176c565b508181600201908051906020019061067392919061176c565b5050505050565b60035481565b6106886117f2565b600460008373ffffffffffffffffffffffffffffffffffffffff1673ffffffffffffffffffffffffffffffffffffffff16815260200190815260200160002060003373ffffffffffffffffffffffffffffffffffffffff1673ffffffffffffffffffffffffffffffffffffffff16815260200190815260200160002060009054906101000a900460ff16610751576040517f08c379a000000000000000000000000000000000000000000000000000000000815260040161074890611f64565b60405180910390fd5b600660008373ffffffffffffffffffffffffffffffffffffffff1673ffffffffffffffffffffffffffffffffffffffff168152602001908152602001600020604051806101000160405290816000820160009054906101000a900473ffffffffffffffffffffffffffffffffffffffff1673ffffffffffffffffffffffffffffffffffffffff1673ffffffffffffffffffffffffffffffffffffffff1681526020016001820160009054906101000a900473ffffffffffffffffffffffffffffffffffffffff1673ffffffffffffffffffffffffffffffffffffffff1673ffffffffffffffffffffffffffffffffffffffff16815260200160028201805461085890612112565b80601f016020809104026020016040519081016040528092919081815260200182805461088490612112565b80156108d15780601f106108a6576101008083540402835291602001916108d1565b820191906000526020600020905b8154815290600101906020018083116108b457829003601f168201915b505050505081526020016003820180546108ea90612112565b80601f016020809104026020016040519081016040528092919081815260200182805461091690612112565b80156109635780601f1061093857610100808354040283529160200191610963565b820191906000526020600020905b81548152906001019060200180831161094657829003601f168201915b5050505050815260200160048201805461097c90612112565b80601f01602080910402602001604051908101604052809291908181526020018280546109a890612112565b80156109f55780601f106109ca576101008083540402835291602001916109f5565b820191906000526020600020905b8154815290600101906020018083116109d857829003601f168201915b50505050508152602001600582018054610a0e90612112565b80601f0160208091040260200160405190810160405280929190818152602001828054610a3a90612112565b8015610a875780601f10610a5c57610100808354040283529160200191610a87565b820191906000526020600020905b815481529060010190602001808311610a6a57829003601f168201915b50505050508152602001600682018054610aa090612112565b80601f0160208091040260200160405190810160405280929190818152602001828054610acc90612112565b8015610b195780601f10610aee57610100808354040283529160200191610b19565b820191906000526020600020905b815481529060010190602001808311610afc57829003601f168201915b50505050508152602001600782018054610b3290612112565b80601f0160208091040260200160405190810160405280929190818152602001828054610b5e90612112565b8015610bab5780601f10610b8057610100808354040283529160200191610bab565b820191906000526020600020905b815481529060010190602001808311610b8e57829003601f168201915b5050505050815250509050919050565b600260003373ffffffffffffffffffffffffffffffffffffffff1673ffffffffffffffffffffffffffffffffffffffff16815260200190815260200160002060009054906101000a900460ff1615610c1257600080fd5b6000600160003373ffffffffffffffffffffffffffffffffffffffff1673ffffffffffffffffffffffffffffffffffffffff168152602001908152602001600020905083816000019080519060200190610c6d92919061176c565b5082816001019080519060200190610c8692919061176c565b5081816002019080519060200190610c9f92919061176c565b50338160030160006101000a81548173ffffffffffffffffffffffffffffffffffffffff021916908373ffffffffffffffffffffffffffffffffffffffff1602179055504281600401819055506000339080600181540180825580915050600190039060005260206000200160009091909190916101000a81548173ffffffffffffffffffffffffffffffffffffffff021916908373ffffffffffffffffffffffffffffffffffffffff1602179055506001600260003373ffffffffffffffffffffffffffffffffffffffff1673ffffffffffffffffffffffffffffffffffffffff16815260200190815260200160002060006101000a81548160ff02191690831515021790555060036000815480929190610dba90612144565b919050555050505050565b60058181548110610dd557600080fd5b906000526020600020016000915054906101000a900473ffffffffffffffffffffffffffffffffffffffff1681565b60076020528160005260406000208181548110610e2057600080fd5b906000526020600020016000915091509054906101000a900473ffffffffffffffffffffffffffffffffffffffff1681565b60085481565b600260003373ffffffffffffffffffffffffffffffffffffffff1673ffffffffffffffffffffffffffffffffffffffff16815260200190815260200160002060009054906101000a900460ff16610eae57600080fd5b6000600660008973ffffffffffffffffffffffffffffffffffffffff1673ffffffffffffffffffffffffffffffffffffffff1681526020019081526020016000209050338160010160006101000a81548173ffffffffffffffffffffffffffffffffffffffff021916908373ffffffffffffffffffffffffffffffffffffffff160217905550878160000160006101000a81548173ffffffffffffffffffffffffffffffffffffffff021916908373ffffffffffffffffffffffffffffffffffffffff16021790555086816002019080519060200190610f8f92919061176c565b5085816003019080519060200190610fa892919061176c565b5084816004019080519060200190610fc192919061176c565b5083816005019080519060200190610fda92919061176c565b5082816006019080519060200190610ff392919061176c565b508181600701908051906020019061100c92919061176c565b50600760008973ffffffffffffffffffffffffffffffffffffffff1673ffffffffffffffffffffffffffffffffffffffff168152602001908152602001600020339080600181540180825580915050600190039060005260206000200160009091909190916101000a81548173ffffffffffffffffffffffffffffffffffffffff021916908373ffffffffffffffffffffffffffffffffffffffff160217905550600860008154809291906110c090612144565b91905055505050505050505050565b6060600080548060200260200160405190810160405280929190818152602001828054801561115357602002820191906000526020600020905b8160009054906101000a900473ffffffffffffffffffffffffffffffffffffffff1673ffffffffffffffffffffffffffffffffffffffff1681526020019060010190808311611109575b5050505050905090565b60066020528060005260406000206000915090508060000160009054906101000a900473ffffffffffffffffffffffffffffffffffffffff16908060010160009054906101000a900473ffffffffffffffffffffffffffffffffffffffff16908060020180546111cc90612112565b80601f01602080910402602001604051908101604052809291908181526020018280546111f890612112565b80156112455780601f1061121a57610100808354040283529160200191611245565b820191906000526020600020905b81548152906001019060200180831161122857829003601f168201915b50505050509080600301805461125a90612112565b80601f016020809104026020016040519081016040528092919081815260200182805461128690612112565b80156112d35780601f106112a8576101008083540402835291602001916112d3565b820191906000526020600020905b8154815290600101906020018083116112b657829003601f168201915b5050505050908060040180546112e890612112565b80601f016020809104026020016040519081016040528092919081815260200182805461131490612112565b80156113615780601f1061133657610100808354040283529160200191611361565b820191906000526020600020905b81548152906001019060200180831161134457829003601f168201915b50505050509080600501805461137690612112565b80601f01602080910402602001604051908101604052809291908181526020018280546113a290612112565b80156113ef5780601f106113c4576101008083540402835291602001916113ef565b820191906000526020600020905b8154815290600101906020018083116113d257829003601f168201915b50505050509080600601805461140490612112565b80601f016020809104026020016040519081016040528092919081815260200182805461143090612112565b801561147d5780601f106114525761010080835404028352916020019161147d565b820191906000526020600020905b81548152906001019060200180831161146057829003601f168201915b50505050509080600701805461149290612112565b80601f01602080910402602001604051908101604052809291908181526020018280546114be90612112565b801561150b5780601f106114e05761010080835404028352916020019161150b565b820191906000526020600020905b8154815290600101906020018083116114ee57829003601f168201915b5050505050905088565b60026020528060005260406000206000915054906101000a900460ff1681565b6000818154811061154557600080fd5b906000526020600020016000915054906101000a900473ffffffffffffffffffffffffffffffffffffffff1681565b600160205280600052604060002060009150905080600001805461159790612112565b80601f01602080910402602001604051908101604052809291908181526020018280546115c390612112565b80156116105780601f106115e557610100808354040283529160200191611610565b820191906000526020600020905b8154815290600101906020018083116115f357829003601f168201915b50505050509080600101805461162590612112565b80601f016020809104026020016040519081016040528092919081815260200182805461165190612112565b801561169e5780601f106116735761010080835404028352916020019161169e565b820191906000526020600020905b81548152906001019060200180831161168157829003601f168201915b5050505050908060020180546116b390612112565b80601f01602080910402602001604051908101604052809291908181526020018280546116df90612112565b801561172c5780601f106117015761010080835404028352916020019161172c565b820191906000526020600020905b81548152906001019060200180831161170f57829003601f168201915b5050505050908060030160009054906101000a900473ffffffffffffffffffffffffffffffffffffffff16908060040154905085565b6000600354905090565b82805461177890612112565b90600052602060002090601f01602090048101928261179a57600085556117e1565b82601f106117b357805160ff19168380011785556117e1565b828001600101855582156117e1579182015b828111156117e05782518255916020019190600101906117c5565b5b5090506117ee9190611863565b5090565b604051806101000160405280600073ffffffffffffffffffffffffffffffffffffffff168152602001600073ffffffffffffffffffffffffffffffffffffffff1681526020016060815260200160608152602001606081526020016060815260200160608152602001606081525090565b5b8082111561187c576000816000905550600101611864565b5090565b600061189361188e84611ff2565b611fc1565b9050828152602081018484840111156118ab57600080fd5b6118b68482856120d0565b509392505050565b6000813590506118cd8161222b565b92915050565b600082601f8301126118e457600080fd5b81356118f4848260208601611880565b91505092915050565b60008135905061190c81612242565b92915050565b60006020828403121561192457600080fd5b6000611932848285016118be565b91505092915050565b600080600080600080600060e0888a03121561195657600080fd5b60006119648a828b016118be565b975050602088013567ffffffffffffffff81111561198157600080fd5b61198d8a828b016118d3565b965050604088013567ffffffffffffffff8111156119aa57600080fd5b6119b68a828b016118d3565b955050606088013567ffffffffffffffff8111156119d357600080fd5b6119df8a828b016118d3565b945050608088013567ffffffffffffffff8111156119fc57600080fd5b611a088a828b016118d3565b93505060a088013567ffffffffffffffff811115611a2557600080fd5b611a318a828b016118d3565b92505060c088013567ffffffffffffffff811115611a4e57600080fd5b611a5a8a828b016118d3565b91505092959891949750929550565b60008060408385031215611a7c57600080fd5b6000611a8a858286016118be565b9250506020611a9b858286016118fd565b9150509250929050565b600080600060608486031215611aba57600080fd5b600084013567ffffffffffffffff811115611ad457600080fd5b611ae0868287016118d3565b935050602084013567ffffffffffffffff811115611afd57600080fd5b611b09868287016118d3565b925050604084013567ffffffffffffffff811115611b2657600080fd5b611b32868287016118d3565b9150509250925092565b600060208284031215611b4e57600080fd5b6000611b5c848285016118fd565b91505092915050565b6000611b718383611b7d565b60208301905092915050565b611b8681612088565b82525050565b611b9581612088565b82525050565b6000611ba682612032565b611bb08185612055565b9350611bbb83612022565b8060005b83811015611bec578151611bd38882611b65565b9750611bde83612048565b925050600181019050611bbf565b5085935050505092915050565b611c028161209a565b82525050565b6000611c138261203d565b611c1d8185612066565b9350611c2d8185602086016120df565b611c368161221a565b840191505092915050565b6000611c4c8261203d565b611c568185612077565b9350611c668185602086016120df565b611c6f8161221a565b840191505092915050565b6000611c87601583612077565b91507f5265636f726420646f6573206e6f7420657869737400000000000000000000006000830152602082019050919050565b6000611cc7600e83612077565b91507f4163636573732044656e6965642e0000000000000000000000000000000000006000830152602082019050919050565b600061010083016000830151611d136000860182611b7d565b506020830151611d266020860182611b7d565b5060408301518482036040860152611d3e8282611c08565b91505060608301518482036060860152611d588282611c08565b91505060808301518482036080860152611d728282611c08565b91505060a083015184820360a0860152611d8c8282611c08565b91505060c083015184820360c0860152611da68282611c08565b91505060e083015184820360e0860152611dc08282611c08565b9150508091505092915050565b611dd6816120c6565b82525050565b6000602082019050611df16000830184611b8c565b92915050565b600061010082019050611e0d600083018b611b8c565b611e1a602083018a611b8c565b8181036040830152611e2c8189611c41565b90508181036060830152611e408188611c41565b90508181036080830152611e548187611c41565b905081810360a0830152611e688186611c41565b905081810360c0830152611e7c8185611c41565b905081810360e0830152611e908184611c41565b90509998505050505050505050565b60006020820190508181036000830152611eb98184611b9b565b905092915050565b6000602082019050611ed66000830184611bf9565b92915050565b600060a0820190508181036000830152611ef68188611c41565b90508181036020830152611f0a8187611c41565b90508181036040830152611f1e8186611c41565b9050611f2d6060830185611b8c565b611f3a6080830184611dcd565b9695505050505050565b60006020820190508181036000830152611f5d81611c7a565b9050919050565b60006020820190508181036000830152611f7d81611cba565b9050919050565b60006020820190508181036000830152611f9e8184611cfa565b905092915050565b6000602082019050611fbb6000830184611dcd565b92915050565b6000604051905081810181811067ffffffffffffffff82111715611fe857611fe76121eb565b5b8060405250919050565b600067ffffffffffffffff82111561200d5761200c6121eb565b5b601f19601f8301169050602081019050919050565b6000819050602082019050919050565b600081519050919050565b600081519050919050565b6000602082019050919050565b600082825260208201905092915050565b600082825260208201905092915050565b600082825260208201905092915050565b6000612093826120a6565b9050919050565b60008115159050919050565b600073ffffffffffffffffffffffffffffffffffffffff82169050919050565b6000819050919050565b82818337600083830152505050565b60005b838110156120fd5780820151818401526020810190506120e2565b8381111561210c576000848401525b50505050565b6000600282049050600182168061212a57607f821691505b6020821081141561213e5761213d6121bc565b5b50919050565b600061214f826120c6565b91507fffffffffffffffffffffffffffffffffffffffffffffffffffffffffffffffff8214156121825761218161218d565b5b600182019050919050565b7f4e487b7100000000000000000000000000000000000000000000000000000000600052601160045260246000fd5b7f4e487b7100000000000000000000000000000000000000000000000000000000600052602260045260246000fd5b7f4e487b7100000000000000000000000000000000000000000000000000000000600052604160045260246000fd5b6000601f19601f8301169050919050565b61223481612088565b811461223f57600080fd5b50565b61224b816120c6565b811461225657600080fd5b5056fea2646970667358221220bdcce6b67e07b14fd24fa644e8be328c032f6e07a97f50b07725be421628628464736f6c63430008000033",
  "immutableReferences": {},
  "source": "// SPDX-License-Identifier: MIT\r\npragma solidity ^0.8.0;\r\n\r\nimport \"./Hospital.sol\";\r\nimport \"./PermissionLibrary.sol\";\r\n\r\ncontract HospitalizationHistoryRecords is HospitalRecords{\r\n\r\n    using PermissionLibrary for mapping(address => mapping(address => bool));\r\n    mapping(address => mapping(address => bool)) isApprovedToViewHospitalization;\r\n    \r\n    struct HospitalizationRecord{\r\n        address owner; //Patient's address\r\n        address hospitalAddr;\r\n        string hospital;\r\n        string admissionDate;\r\n        string dischargeDate;\r\n        string reasonForHospitalization;\r\n        string admittingDiagnosis;\r\n        string dischargeDiagnosis;\r\n    }\r\n\r\n    address[] public hospitalizationList;\r\n    mapping(address => HospitalizationRecord) public hospitalizationRecords;\r\n    mapping(address => address[]) public patientHospitalizationRecords;\r\n    uint256 public hospitalizationHistoryCount = 0;\r\n\r\n    function addHospitalizationHistory(\r\n        address _patientAddr,\r\n        string memory _hospital,\r\n        string memory _admissionDate,\r\n        string memory _dischargeDate,\r\n        string memory _reasonForHospitalization,\r\n        string memory _admittingDiagnosis,\r\n        string memory _dischargeDiagnosis\r\n    ) public {\r\n        require(isHospital[msg.sender]);\r\n        // Set the details of the new medical history record\r\n        HospitalizationRecord storage record = hospitalizationRecords[_patientAddr];\r\n        \r\n        record.hospitalAddr = msg.sender;\r\n        record.owner = _patientAddr;\r\n        record.hospital = _hospital;\r\n        record.admissionDate = _admissionDate;\r\n        record.dischargeDate = _dischargeDate;\r\n        record.reasonForHospitalization = _reasonForHospitalization;\r\n        record.admittingDiagnosis = _admittingDiagnosis;\r\n        record.dischargeDiagnosis = _dischargeDiagnosis;\r\n\r\n        // Update patient's history records and increment the total count\r\n        patientHospitalizationRecords[_patientAddr].push(msg.sender);\r\n        hospitalizationHistoryCount++;\r\n    }\r\n\r\n    function editHospitalizationHistory(\r\n        address _patientAddr,\r\n        string memory _hospital,\r\n        string memory _admissionDate,\r\n        string memory _dischargeDate,\r\n        string memory _reasonForHospitalization,\r\n        string memory _admittingDiagnosis,\r\n        string memory _dischargeDiagnosis\r\n    ) public {\r\n        require(isHospital[msg.sender]);\r\n        // Set the details of the new medical history record\r\n        HospitalizationRecord storage record = hospitalizationRecords[_patientAddr];\r\n\r\n        // Check if the record exists and belongs to the specified patient\r\n        require(record.hospitalAddr != address(0), \"Record does not exist\");\r\n        \r\n        record.hospitalAddr = msg.sender;\r\n        record.owner = _patientAddr;\r\n        record.hospital = _hospital;\r\n        record.admissionDate = _admissionDate;\r\n        record.dischargeDate = _dischargeDate;\r\n        record.reasonForHospitalization = _reasonForHospitalization;\r\n        record.admittingDiagnosis = _admittingDiagnosis;\r\n        record.dischargeDiagnosis = _dischargeDiagnosis;\r\n    }\r\n\r\n     // Function to retrieve medical history for a specific patient if meron permission\r\n    function getHospitalizationHistory(address patientAddr) public view returns (HospitalizationHistoryRecords.HospitalizationRecord memory) {\r\n        require(isApprovedToViewHospitalization[patientAddr][msg.sender], \"Access Denied.\"); //checker kung may permission\r\n        return HospitalizationHistoryRecords.hospitalizationRecords[patientAddr];\r\n    }\r\n}",
  "sourcePath": "C:\\Users\\Abby\\Desktop\\APPCON 2023\\MediVerse-Web3-Dapp\\contracts\\HospitalizationHistory.sol",
  "compiler": {
    "name": "solc",
    "version": "0.8.0+commit.c7dfd78e.Emscripten.clang"
  },
  "schemaVersion": "3.4.16",
  "updatedAt": "2024-02-19T16:06:39.932Z",
  "networkType": "ethereum",
  "devdoc": {
    "kind": "dev",
    "methods": {},
    "version": 1
  },
  "userdoc": {
    "kind": "user",
    "methods": {},
    "version": 1
  }
}