{
  "contractName": "HospitalizationHistoryRecords",
  "abi": [
    {
      "inputs": [
        {
          "internalType": "string",
          "name": "",
          "type": "string"
        }
      ],
      "name": "hospitalToPatient",
      "outputs": [
        {
          "internalType": "address",
          "name": "",
          "type": "address"
        }
      ],
      "stateMutability": "view",
      "type": "function",
      "constant": true
    },
    {
      "inputs": [
        {
          "internalType": "string",
          "name": "",
          "type": "string"
        }
      ],
      "name": "hospitalizationRecords",
      "outputs": [
        {
          "internalType": "address",
          "name": "hospitalAddr",
          "type": "address"
        },
        {
          "internalType": "string",
          "name": "patientID",
          "type": "string"
        },
        {
          "internalType": "string",
          "name": "recordID",
          "type": "string"
        },
        {
          "internalType": "string",
          "name": "hospital",
          "type": "string"
        },
        {
          "internalType": "string",
          "name": "admissionDate",
          "type": "string"
        },
        {
          "internalType": "string",
          "name": "dischargeDate",
          "type": "string"
        },
        {
          "internalType": "string",
          "name": "reasonForHospitalization",
          "type": "string"
        },
        {
          "internalType": "string",
          "name": "admittingDiagnosis",
          "type": "string"
        },
        {
          "internalType": "string",
          "name": "dischargeDiagnosis",
          "type": "string"
        }
      ],
      "stateMutability": "view",
      "type": "function",
      "constant": true
    },
    {
      "inputs": [
        {
          "internalType": "string",
          "name": "",
          "type": "string"
        },
        {
          "internalType": "uint256",
          "name": "",
          "type": "uint256"
        }
      ],
      "name": "patientHospitalizationRecords",
      "outputs": [
        {
          "internalType": "string",
          "name": "",
          "type": "string"
        }
      ],
      "stateMutability": "view",
      "type": "function",
      "constant": true
    },
    {
      "inputs": [
        {
          "internalType": "string",
          "name": "",
          "type": "string"
        },
        {
          "internalType": "address",
          "name": "",
          "type": "address"
        }
      ],
      "name": "patientPermissions",
      "outputs": [
        {
          "internalType": "bool",
          "name": "",
          "type": "bool"
        }
      ],
      "stateMutability": "view",
      "type": "function",
      "constant": true
    },
    {
      "inputs": [
        {
          "internalType": "string",
          "name": "_patientID",
          "type": "string"
        },
        {
          "internalType": "string",
          "name": "_recordID",
          "type": "string"
        },
        {
          "internalType": "string",
          "name": "_hospital",
          "type": "string"
        },
        {
          "internalType": "string",
          "name": "_admissionDate",
          "type": "string"
        },
        {
          "internalType": "string",
          "name": "_dischargeDate",
          "type": "string"
        },
        {
          "internalType": "string",
          "name": "_reasonForHospitalization",
          "type": "string"
        },
        {
          "internalType": "string",
          "name": "_admittingDiagnosis",
          "type": "string"
        },
        {
          "internalType": "string",
          "name": "_dischargeDiagnosis",
          "type": "string"
        }
      ],
      "name": "addHospitalizationHistory",
      "outputs": [],
      "stateMutability": "nonpayable",
      "type": "function"
    },
    {
      "inputs": [
        {
          "internalType": "string",
          "name": "_recordID",
          "type": "string"
        },
        {
          "internalType": "string",
          "name": "_admissionDate",
          "type": "string"
        },
        {
          "internalType": "string",
          "name": "_dischargeDate",
          "type": "string"
        },
        {
          "internalType": "string",
          "name": "_reasonForHospitalization",
          "type": "string"
        },
        {
          "internalType": "string",
          "name": "_admittingDiagnosis",
          "type": "string"
        },
        {
          "internalType": "string",
          "name": "_dischargeDiagnosis",
          "type": "string"
        }
      ],
      "name": "editHospitalizationHistory",
      "outputs": [],
      "stateMutability": "nonpayable",
      "type": "function"
    },
    {
      "inputs": [
        {
          "internalType": "string",
          "name": "_patientID",
          "type": "string"
        }
      ],
      "name": "getAllHospitalizationHistoryRecords",
      "outputs": [
        {
          "components": [
            {
              "internalType": "address",
              "name": "hospitalAddr",
              "type": "address"
            },
            {
              "internalType": "string",
              "name": "patientID",
              "type": "string"
            },
            {
              "internalType": "string",
              "name": "recordID",
              "type": "string"
            },
            {
              "internalType": "string",
              "name": "hospital",
              "type": "string"
            },
            {
              "internalType": "string",
              "name": "admissionDate",
              "type": "string"
            },
            {
              "internalType": "string",
              "name": "dischargeDate",
              "type": "string"
            },
            {
              "internalType": "string",
              "name": "reasonForHospitalization",
              "type": "string"
            },
            {
              "internalType": "string",
              "name": "admittingDiagnosis",
              "type": "string"
            },
            {
              "internalType": "string",
              "name": "dischargeDiagnosis",
              "type": "string"
            }
          ],
          "internalType": "struct HospitalizationHistoryRecords.HospitalizationRecord[]",
          "name": "",
          "type": "tuple[]"
        }
      ],
      "stateMutability": "view",
      "type": "function",
      "constant": true
    },
    {
      "inputs": [
        {
          "internalType": "string",
          "name": "_patientID",
          "type": "string"
        },
        {
          "internalType": "string",
          "name": "_reasonForHospitalizationKeyword",
          "type": "string"
        }
      ],
      "name": "searchHospitalizationRecords",
      "outputs": [
        {
          "components": [
            {
              "internalType": "address",
              "name": "hospitalAddr",
              "type": "address"
            },
            {
              "internalType": "string",
              "name": "patientID",
              "type": "string"
            },
            {
              "internalType": "string",
              "name": "recordID",
              "type": "string"
            },
            {
              "internalType": "string",
              "name": "hospital",
              "type": "string"
            },
            {
              "internalType": "string",
              "name": "admissionDate",
              "type": "string"
            },
            {
              "internalType": "string",
              "name": "dischargeDate",
              "type": "string"
            },
            {
              "internalType": "string",
              "name": "reasonForHospitalization",
              "type": "string"
            },
            {
              "internalType": "string",
              "name": "admittingDiagnosis",
              "type": "string"
            },
            {
              "internalType": "string",
              "name": "dischargeDiagnosis",
              "type": "string"
            }
          ],
          "internalType": "struct HospitalizationHistoryRecords.HospitalizationRecord[]",
          "name": "",
          "type": "tuple[]"
        }
      ],
      "stateMutability": "view",
      "type": "function",
      "constant": true
    }
  ],
  "bytecode": "0x608060405234801561001057600080fd5b506128a0806100206000396000f3fe608060405234801561001057600080fd5b50600436106100885760003560e01c806387a73e981161005b57806387a73e9814610141578063aeea77241461015d578063e12d88e31461018d578063e840fa88146101bd57610088565b80630f8015e61461008d57806327a460e4146100c557806371db5238146100f5578063841801e214610125575b600080fd5b6100a760048036038101906100a29190611c76565b6101ed565b6040516100bc999897969594939291906123ed565b60405180910390f35b6100df60048036038101906100da9190611cb7565b6106b1565b6040516100ec91906124d4565b60405180910390f35b61010f600480360381019061010a9190612002565b6106f6565b60405161011c91906124ef565b60405180910390f35b61013f600480360381019061013a9190611d77565b6107c5565b005b61015b60048036038101906101569190611e90565b610900565b005b61017760048036038101906101729190611c76565b610a8f565b60405161018491906123d2565b60405180910390f35b6101a760048036038101906101a29190611d0b565b610ad8565b6040516101b491906124b2565b60405180910390f35b6101d760048036038101906101d29190611c76565b611306565b6040516101e491906124b2565b60405180910390f35b6000818051602081018201805184825260208301602085012081835280955050505050506000915090508060000160009054906101000a900473ffffffffffffffffffffffffffffffffffffffff169080600101805461024c90612723565b80601f016020809104026020016040519081016040528092919081815260200182805461027890612723565b80156102c55780601f1061029a576101008083540402835291602001916102c5565b820191906000526020600020905b8154815290600101906020018083116102a857829003601f168201915b5050505050908060020180546102da90612723565b80601f016020809104026020016040519081016040528092919081815260200182805461030690612723565b80156103535780601f1061032857610100808354040283529160200191610353565b820191906000526020600020905b81548152906001019060200180831161033657829003601f168201915b50505050509080600301805461036890612723565b80601f016020809104026020016040519081016040528092919081815260200182805461039490612723565b80156103e15780601f106103b6576101008083540402835291602001916103e1565b820191906000526020600020905b8154815290600101906020018083116103c457829003601f168201915b5050505050908060040180546103f690612723565b80601f016020809104026020016040519081016040528092919081815260200182805461042290612723565b801561046f5780601f106104445761010080835404028352916020019161046f565b820191906000526020600020905b81548152906001019060200180831161045257829003601f168201915b50505050509080600501805461048490612723565b80601f01602080910402602001604051908101604052809291908181526020018280546104b090612723565b80156104fd5780601f106104d2576101008083540402835291602001916104fd565b820191906000526020600020905b8154815290600101906020018083116104e057829003601f168201915b50505050509080600601805461051290612723565b80601f016020809104026020016040519081016040528092919081815260200182805461053e90612723565b801561058b5780601f106105605761010080835404028352916020019161058b565b820191906000526020600020905b81548152906001019060200180831161056e57829003601f168201915b5050505050908060070180546105a090612723565b80601f01602080910402602001604051908101604052809291908181526020018280546105cc90612723565b80156106195780601f106105ee57610100808354040283529160200191610619565b820191906000526020600020905b8154815290600101906020018083116105fc57829003601f168201915b50505050509080600801805461062e90612723565b80601f016020809104026020016040519081016040528092919081815260200182805461065a90612723565b80156106a75780601f1061067c576101008083540402835291602001916106a7565b820191906000526020600020905b81548152906001019060200180831161068a57829003601f168201915b5050505050905089565b6003828051602081018201805184825260208301602085012081835280955050505050506020528060005260406000206000915091509054906101000a900460ff1681565b600182805160208101820180518482526020830160208501208183528095505050505050818154811061072857600080fd5b9060005260206000200160009150915050805461074490612723565b80601f016020809104026020016040519081016040528092919081815260200182805461077090612723565b80156107bd5780601f10610792576101008083540402835291602001916107bd565b820191906000526020600020905b8154815290600101906020018083116107a057829003601f168201915b505050505081565b600080876040516107d691906123bb565b90815260200160405180910390209050600073ffffffffffffffffffffffffffffffffffffffff168160000160009054906101000a900473ffffffffffffffffffffffffffffffffffffffff1673ffffffffffffffffffffffffffffffffffffffff16141561087a576040517f08c379a000000000000000000000000000000000000000000000000000000000815260040161087190612531565b60405180910390fd5b85816004019080519060200190610892929190611adf565b50848160050190805190602001906108ab929190611adf565b50838160060190805190602001906108c4929190611adf565b50828160070190805190602001906108dd929190611adf565b50818160080190805190602001906108f6929190611adf565b5050505050505050565b6000808860405161091191906123bb565b90815260200160405180910390209050338160000160006101000a81548173ffffffffffffffffffffffffffffffffffffffff021916908373ffffffffffffffffffffffffffffffffffffffff1602179055508881600101908051906020019061097c929190611adf565b5087816002019080519060200190610995929190611adf565b50868160030190805190602001906109ae929190611adf565b50858160040190805190602001906109c7929190611adf565b50848160050190805190602001906109e0929190611adf565b50838160060190805190602001906109f9929190611adf565b5082816007019080519060200190610a12929190611adf565b5081816008019080519060200190610a2b929190611adf565b50600189604051610a3c91906123bb565b908152602001604051809103902088908060018154018082558091505060019003906000526020600020016000909190919091509080519060200190610a83929190611adf565b50505050505050505050565b6002818051602081018201805184825260208301602085012081835280955050505050506000915054906101000a900473ffffffffffffffffffffffffffffffffffffffff1681565b6060600383604051610aea91906123bb565b908152602001604051809103902060003373ffffffffffffffffffffffffffffffffffffffff1673ffffffffffffffffffffffffffffffffffffffff16815260200190815260200160002060009054906101000a900460ff16610b82576040517f08c379a0000000000000000000000000000000000000000000000000000000008152600401610b7990612511565b60405180910390fd5b6000600184604051610b9491906123bb565b9081526020016040518091039020805480602002602001604051908101604052809291908181526020016000905b82821015610c6e578382906000526020600020018054610be190612723565b80601f0160208091040260200160405190810160405280929190818152602001828054610c0d90612723565b8015610c5a5780601f10610c2f57610100808354040283529160200191610c5a565b820191906000526020600020905b815481529060010190602001808311610c3d57829003601f168201915b505050505081526020019060010190610bc2565b50505050905060606000805b83518110156112f657600080858381518110610cbf577f4e487b7100000000000000000000000000000000000000000000000000000000600052603260045260246000fd5b6020026020010151604051610cd491906123bb565b90815260200160405180910390209050868051906020012081600601604051610cfd91906123a4565b604051809103902014156112e2578284511415610d9e5760018451610d229190612643565b67ffffffffffffffff811115610d61577f4e487b7100000000000000000000000000000000000000000000000000000000600052604160045260246000fd5b604051908082528060200260200182016040528015610d9a57816020015b610d87611b65565b815260200190600190039081610d7f5790505b5093505b80604051806101200160405290816000820160009054906101000a900473ffffffffffffffffffffffffffffffffffffffff1673ffffffffffffffffffffffffffffffffffffffff1673ffffffffffffffffffffffffffffffffffffffff168152602001600182018054610e1190612723565b80601f0160208091040260200160405190810160405280929190818152602001828054610e3d90612723565b8015610e8a5780601f10610e5f57610100808354040283529160200191610e8a565b820191906000526020600020905b815481529060010190602001808311610e6d57829003601f168201915b50505050508152602001600282018054610ea390612723565b80601f0160208091040260200160405190810160405280929190818152602001828054610ecf90612723565b8015610f1c5780601f10610ef157610100808354040283529160200191610f1c565b820191906000526020600020905b815481529060010190602001808311610eff57829003601f168201915b50505050508152602001600382018054610f3590612723565b80601f0160208091040260200160405190810160405280929190818152602001828054610f6190612723565b8015610fae5780601f10610f8357610100808354040283529160200191610fae565b820191906000526020600020905b815481529060010190602001808311610f9157829003601f168201915b50505050508152602001600482018054610fc790612723565b80601f0160208091040260200160405190810160405280929190818152602001828054610ff390612723565b80156110405780601f1061101557610100808354040283529160200191611040565b820191906000526020600020905b81548152906001019060200180831161102357829003601f168201915b5050505050815260200160058201805461105990612723565b80601f016020809104026020016040519081016040528092919081815260200182805461108590612723565b80156110d25780601f106110a7576101008083540402835291602001916110d2565b820191906000526020600020905b8154815290600101906020018083116110b557829003601f168201915b505050505081526020016006820180546110eb90612723565b80601f016020809104026020016040519081016040528092919081815260200182805461111790612723565b80156111645780601f1061113957610100808354040283529160200191611164565b820191906000526020600020905b81548152906001019060200180831161114757829003601f168201915b5050505050815260200160078201805461117d90612723565b80601f01602080910402602001604051908101604052809291908181526020018280546111a990612723565b80156111f65780601f106111cb576101008083540402835291602001916111f6565b820191906000526020600020905b8154815290600101906020018083116111d957829003601f168201915b5050505050815260200160088201805461120f90612723565b80601f016020809104026020016040519081016040528092919081815260200182805461123b90612723565b80156112885780601f1061125d57610100808354040283529160200191611288565b820191906000526020600020905b81548152906001019060200180831161126b57829003601f168201915b50505050508152505084848061129d90612755565b9550815181106112d6577f4e487b7100000000000000000000000000000000000000000000000000000000600052603260045260246000fd5b60200260200101819052505b5080806112ee90612755565b915050610c7a565b5080825281935050505092915050565b606060038260405161131891906123bb565b908152602001604051809103902060003373ffffffffffffffffffffffffffffffffffffffff1673ffffffffffffffffffffffffffffffffffffffff16815260200190815260200160002060009054906101000a900460ff166113b0576040517f08c379a00000000000000000000000000000000000000000000000000000000081526004016113a790612511565b60405180910390fd5b60006001836040516113c291906123bb565b9081526020016040518091039020805480602002602001604051908101604052809291908181526020016000905b8282101561149c57838290600052602060002001805461140f90612723565b80601f016020809104026020016040519081016040528092919081815260200182805461143b90612723565b80156114885780601f1061145d57610100808354040283529160200191611488565b820191906000526020600020905b81548152906001019060200180831161146b57829003601f168201915b5050505050815260200190600101906113f0565b5050505090506000815167ffffffffffffffff8111156114e5577f4e487b7100000000000000000000000000000000000000000000000000000000600052604160045260246000fd5b60405190808252806020026020018201604052801561151e57816020015b61150b611b65565b8152602001906001900390816115035790505b50905060005b8251811015611ad4576000838281518110611568577f4e487b7100000000000000000000000000000000000000000000000000000000600052603260045260246000fd5b602002602001015160405161157d91906123bb565b9081526020016040518091039020604051806101200160405290816000820160009054906101000a900473ffffffffffffffffffffffffffffffffffffffff1673ffffffffffffffffffffffffffffffffffffffff1673ffffffffffffffffffffffffffffffffffffffff1681526020016001820180546115fd90612723565b80601f016020809104026020016040519081016040528092919081815260200182805461162990612723565b80156116765780601f1061164b57610100808354040283529160200191611676565b820191906000526020600020905b81548152906001019060200180831161165957829003601f168201915b5050505050815260200160028201805461168f90612723565b80601f01602080910402602001604051908101604052809291908181526020018280546116bb90612723565b80156117085780601f106116dd57610100808354040283529160200191611708565b820191906000526020600020905b8154815290600101906020018083116116eb57829003601f168201915b5050505050815260200160038201805461172190612723565b80601f016020809104026020016040519081016040528092919081815260200182805461174d90612723565b801561179a5780601f1061176f5761010080835404028352916020019161179a565b820191906000526020600020905b81548152906001019060200180831161177d57829003601f168201915b505050505081526020016004820180546117b390612723565b80601f01602080910402602001604051908101604052809291908181526020018280546117df90612723565b801561182c5780601f106118015761010080835404028352916020019161182c565b820191906000526020600020905b81548152906001019060200180831161180f57829003601f168201915b5050505050815260200160058201805461184590612723565b80601f016020809104026020016040519081016040528092919081815260200182805461187190612723565b80156118be5780601f10611893576101008083540402835291602001916118be565b820191906000526020600020905b8154815290600101906020018083116118a157829003601f168201915b505050505081526020016006820180546118d790612723565b80601f016020809104026020016040519081016040528092919081815260200182805461190390612723565b80156119505780601f1061192557610100808354040283529160200191611950565b820191906000526020600020905b81548152906001019060200180831161193357829003601f168201915b5050505050815260200160078201805461196990612723565b80601f016020809104026020016040519081016040528092919081815260200182805461199590612723565b80156119e25780601f106119b7576101008083540402835291602001916119e2565b820191906000526020600020905b8154815290600101906020018083116119c557829003601f168201915b505050505081526020016008820180546119fb90612723565b80601f0160208091040260200160405190810160405280929190818152602001828054611a2790612723565b8015611a745780601f10611a4957610100808354040283529160200191611a74565b820191906000526020600020905b815481529060010190602001808311611a5757829003601f168201915b505050505081525050828281518110611ab6577f4e487b7100000000000000000000000000000000000000000000000000000000600052603260045260246000fd5b60200260200101819052508080611acc90612755565b915050611524565b508092505050919050565b828054611aeb90612723565b90600052602060002090601f016020900481019282611b0d5760008555611b54565b82601f10611b2657805160ff1916838001178555611b54565b82800160010185558215611b54579182015b82811115611b53578251825591602001919060010190611b38565b5b509050611b619190611bc7565b5090565b604051806101200160405280600073ffffffffffffffffffffffffffffffffffffffff16815260200160608152602001606081526020016060815260200160608152602001606081526020016060815260200160608152602001606081525090565b5b80821115611be0576000816000905550600101611bc8565b5090565b6000611bf7611bf284612582565b612551565b905082815260208101848484011115611c0f57600080fd5b611c1a8482856126e1565b509392505050565b600081359050611c318161283c565b92915050565b600082601f830112611c4857600080fd5b8135611c58848260208601611be4565b91505092915050565b600081359050611c7081612853565b92915050565b600060208284031215611c8857600080fd5b600082013567ffffffffffffffff811115611ca257600080fd5b611cae84828501611c37565b91505092915050565b60008060408385031215611cca57600080fd5b600083013567ffffffffffffffff811115611ce457600080fd5b611cf085828601611c37565b9250506020611d0185828601611c22565b9150509250929050565b60008060408385031215611d1e57600080fd5b600083013567ffffffffffffffff811115611d3857600080fd5b611d4485828601611c37565b925050602083013567ffffffffffffffff811115611d6157600080fd5b611d6d85828601611c37565b9150509250929050565b60008060008060008060c08789031215611d9057600080fd5b600087013567ffffffffffffffff811115611daa57600080fd5b611db689828a01611c37565b965050602087013567ffffffffffffffff811115611dd357600080fd5b611ddf89828a01611c37565b955050604087013567ffffffffffffffff811115611dfc57600080fd5b611e0889828a01611c37565b945050606087013567ffffffffffffffff811115611e2557600080fd5b611e3189828a01611c37565b935050608087013567ffffffffffffffff811115611e4e57600080fd5b611e5a89828a01611c37565b92505060a087013567ffffffffffffffff811115611e7757600080fd5b611e8389828a01611c37565b9150509295509295509295565b600080600080600080600080610100898b031215611ead57600080fd5b600089013567ffffffffffffffff811115611ec757600080fd5b611ed38b828c01611c37565b985050602089013567ffffffffffffffff811115611ef057600080fd5b611efc8b828c01611c37565b975050604089013567ffffffffffffffff811115611f1957600080fd5b611f258b828c01611c37565b965050606089013567ffffffffffffffff811115611f4257600080fd5b611f4e8b828c01611c37565b955050608089013567ffffffffffffffff811115611f6b57600080fd5b611f778b828c01611c37565b94505060a089013567ffffffffffffffff811115611f9457600080fd5b611fa08b828c01611c37565b93505060c089013567ffffffffffffffff811115611fbd57600080fd5b611fc98b828c01611c37565b92505060e089013567ffffffffffffffff811115611fe657600080fd5b611ff28b828c01611c37565b9150509295985092959890939650565b6000806040838503121561201557600080fd5b600083013567ffffffffffffffff81111561202f57600080fd5b61203b85828601611c37565b925050602061204c85828601611c61565b9150509250929050565b600061206283836122ae565b905092915050565b61207381612699565b82525050565b61208281612699565b82525050565b6000612093826125d7565b61209d81856125fa565b9350836020820285016120af856125b2565b8060005b858110156120eb57848403895281516120cc8582612056565b94506120d7836125ed565b925060208a019950506001810190506120b3565b50829750879550505050505092915050565b612106816126ab565b82525050565b6000815461211981612723565b612123818661260b565b9450600182166000811461213e576001811461214f57612182565b60ff19831686528186019350612182565b612158856125c2565b60005b8381101561217a5781548189015260018201915060208101905061215b565b838801955050505b50505092915050565b6000612196826125e2565b6121a08185612616565b93506121b08185602086016126f0565b6121b98161282b565b840191505092915050565b60006121cf826125e2565b6121d98185612627565b93506121e98185602086016126f0565b6121f28161282b565b840191505092915050565b6000612208826125e2565b6122128185612638565b93506122228185602086016126f0565b80840191505092915050565b600061223b601683612627565b91507f5065726d697373696f6e206e6f74206772616e746564000000000000000000006000830152602082019050919050565b600061227b601583612627565b91507f5265636f726420646f6573206e6f7420657869737400000000000000000000006000830152602082019050919050565b6000610120830160008301516122c7600086018261206a565b50602083015184820360208601526122df828261218b565b915050604083015184820360408601526122f9828261218b565b91505060608301518482036060860152612313828261218b565b9150506080830151848203608086015261232d828261218b565b91505060a083015184820360a0860152612347828261218b565b91505060c083015184820360c0860152612361828261218b565b91505060e083015184820360e086015261237b828261218b565b915050610100830151848203610100860152612397828261218b565b9150508091505092915050565b60006123b0828461210c565b915081905092915050565b60006123c782846121fd565b915081905092915050565b60006020820190506123e76000830184612079565b92915050565b600061012082019050612403600083018c612079565b8181036020830152612415818b6121c4565b90508181036040830152612429818a6121c4565b9050818103606083015261243d81896121c4565b9050818103608083015261245181886121c4565b905081810360a083015261246581876121c4565b905081810360c083015261247981866121c4565b905081810360e083015261248d81856121c4565b90508181036101008301526124a281846121c4565b90509a9950505050505050505050565b600060208201905081810360008301526124cc8184612088565b905092915050565b60006020820190506124e960008301846120fd565b92915050565b6000602082019050818103600083015261250981846121c4565b905092915050565b6000602082019050818103600083015261252a8161222e565b9050919050565b6000602082019050818103600083015261254a8161226e565b9050919050565b6000604051905081810181811067ffffffffffffffff82111715612578576125776127fc565b5b8060405250919050565b600067ffffffffffffffff82111561259d5761259c6127fc565b5b601f19601f8301169050602081019050919050565b6000819050602082019050919050565b60008190508160005260206000209050919050565b600081519050919050565b600081519050919050565b6000602082019050919050565b600082825260208201905092915050565b600081905092915050565b600082825260208201905092915050565b600082825260208201905092915050565b600081905092915050565b600061264e826126d7565b9150612659836126d7565b9250827fffffffffffffffffffffffffffffffffffffffffffffffffffffffffffffffff0382111561268e5761268d61279e565b5b828201905092915050565b60006126a4826126b7565b9050919050565b60008115159050919050565b600073ffffffffffffffffffffffffffffffffffffffff82169050919050565b6000819050919050565b82818337600083830152505050565b60005b8381101561270e5780820151818401526020810190506126f3565b8381111561271d576000848401525b50505050565b6000600282049050600182168061273b57607f821691505b6020821081141561274f5761274e6127cd565b5b50919050565b6000612760826126d7565b91507fffffffffffffffffffffffffffffffffffffffffffffffffffffffffffffffff8214156127935761279261279e565b5b600182019050919050565b7f4e487b7100000000000000000000000000000000000000000000000000000000600052601160045260246000fd5b7f4e487b7100000000000000000000000000000000000000000000000000000000600052602260045260246000fd5b7f4e487b7100000000000000000000000000000000000000000000000000000000600052604160045260246000fd5b6000601f19601f8301169050919050565b61284581612699565b811461285057600080fd5b50565b61285c816126d7565b811461286757600080fd5b5056fea26469706673582212206c77f636929bcd302dbb5e77d5bc0b4d41d93ee9a0c5861e4091128d4972608664736f6c63430008000033",
  "immutableReferences": {},
  "source": "// SPDX-License-Identifier: MIT\r\npragma solidity ^0.8.0;\r\n\r\nimport \"./Patient.sol\";\r\nimport \"./AccessControl.sol\";\r\n\r\ncontract HospitalizationHistoryRecords {\r\n    \r\n    struct HospitalizationRecord{\r\n        address hospitalAddr;\r\n        string patientID;\r\n        string recordID;\r\n        string hospital;\r\n        string admissionDate;\r\n        string dischargeDate;\r\n        string reasonForHospitalization;\r\n        string admittingDiagnosis;\r\n        string dischargeDiagnosis;\r\n    }\r\n\r\n    mapping(string => HospitalizationRecord) public hospitalizationRecords;\r\n    mapping(string => string[]) public patientHospitalizationRecords;\r\n    mapping(string => address) public hospitalToPatient;\r\n    mapping(string => mapping(address => bool)) public patientPermissions;\r\n\r\n    function addHospitalizationHistory(\r\n        string memory _patientID,\r\n        string memory _recordID,\r\n        string memory _hospital,\r\n        string memory _admissionDate,\r\n        string memory _dischargeDate,\r\n        string memory _reasonForHospitalization,\r\n        string memory _admittingDiagnosis,\r\n        string memory _dischargeDiagnosis\r\n    ) public {\r\n\r\n        HospitalizationRecord storage record = hospitalizationRecords[_recordID];\r\n\r\n        record.hospitalAddr = msg.sender;\r\n        record.patientID = _patientID;\r\n        record.recordID = _recordID;\r\n        record.hospital = _hospital;\r\n        record.admissionDate = _admissionDate;\r\n        record.dischargeDate = _dischargeDate;\r\n        record.reasonForHospitalization = _reasonForHospitalization;\r\n        record.admittingDiagnosis = _admittingDiagnosis;\r\n        record.dischargeDiagnosis = _dischargeDiagnosis;\r\n\r\n        patientHospitalizationRecords[_patientID].push(_recordID);\r\n    }\r\n\r\n    function editHospitalizationHistory(\r\n        string memory _recordID,\r\n        string memory _admissionDate,\r\n        string memory _dischargeDate,\r\n        string memory _reasonForHospitalization,\r\n        string memory _admittingDiagnosis,\r\n        string memory _dischargeDiagnosis\r\n    ) public {\r\n\r\n        HospitalizationRecord storage record = hospitalizationRecords[_recordID];\r\n        require(record.hospitalAddr != address(0), \"Record does not exist\");\r\n\r\n        record.admissionDate = _admissionDate;\r\n        record.dischargeDate = _dischargeDate;\r\n        record.reasonForHospitalization = _reasonForHospitalization;\r\n        record.admittingDiagnosis = _admittingDiagnosis;\r\n        record.dischargeDiagnosis =  _dischargeDiagnosis;\r\n    }\r\n\r\n    function getAllHospitalizationHistoryRecords(string memory _patientID) public view returns (HospitalizationRecord[] memory) {\r\n        // Check if the hospital has permission to access the patient's records\r\n        require(patientPermissions[_patientID][msg.sender], \"Permission not granted\");\r\n\r\n        string[] memory recordIDs = patientHospitalizationRecords[_patientID];\r\n        HospitalizationRecord[] memory records = new HospitalizationRecord[](recordIDs.length);\r\n\r\n        // Retrieve each medical record for the patient\r\n        for (uint i = 0; i < recordIDs.length; i++) {\r\n            records[i] = hospitalizationRecords[recordIDs[i]];\r\n        }\r\n\r\n        return records;\r\n    }\r\n\r\n    function searchHospitalizationRecords(string memory _patientID, string memory _reasonForHospitalizationKeyword\r\n        ) public view returns (HospitalizationRecord[] memory) {\r\n        // Check if the user has permission to access this record\r\n        require(patientPermissions[_patientID][msg.sender], \"Permission not granted\");\r\n\r\n        string[] memory recordIDs = patientHospitalizationRecords[_patientID];\r\n        HospitalizationRecord[] memory matchingRecords;\r\n        uint matchingCount = 0;\r\n\r\n        // Iterate through each record and check for matching criteria\r\n        for (uint i = 0; i < recordIDs.length; i++) {\r\n                HospitalizationRecord storage record = hospitalizationRecords[recordIDs[i]];\r\n\r\n            // Check if the record matches the specified criteria\r\n            //`keccak256()` compares the hashes of both strings and returns `true` if they are equal\r\n            if (keccak256(bytes(record.reasonForHospitalization)) == keccak256(bytes(_reasonForHospitalizationKeyword))) {\r\n                // Add the matching record to the result array\r\n                if (matchingRecords.length == matchingCount) {\r\n                    // Extend the array if needed\r\n                    matchingRecords = new HospitalizationRecord[](matchingRecords.length + 1);\r\n                }\r\n                matchingRecords[matchingCount++] = record;\r\n            }\r\n        }\r\n        // Resize the array to remove unused slots\r\n        assembly {\r\n            mstore(matchingRecords, matchingCount)\r\n        }\r\n        return matchingRecords;\r\n    }\r\n}",
  "sourcePath": "C:\\Users\\Abby\\Desktop\\APPCON 2023\\MediVerse-Web3-Dapp\\contracts\\HospitalizationHistory.sol",
  "compiler": {
    "name": "solc",
    "version": "0.8.0+commit.c7dfd78e.Emscripten.clang"
  },
  "schemaVersion": "3.4.16",
  "updatedAt": "2024-02-16T09:39:33.480Z",
  "networkType": "ethereum",
  "devdoc": {
    "kind": "dev",
    "methods": {},
    "version": 1
  },
  "userdoc": {
    "kind": "user",
    "methods": {},
    "version": 1
  }
}