{
  "contractName": "HospitalRecords",
  "abi": [
    {
      "inputs": [],
      "stateMutability": "nonpayable",
      "type": "constructor"
    },
    {
      "inputs": [],
      "name": "hospitalCount",
      "outputs": [
        {
          "internalType": "uint256",
          "name": "",
          "type": "uint256"
        }
      ],
      "stateMutability": "view",
      "type": "function",
      "constant": true
    },
    {
      "inputs": [
        {
          "internalType": "uint256",
          "name": "",
          "type": "uint256"
        }
      ],
      "name": "hospitalList",
      "outputs": [
        {
          "internalType": "address",
          "name": "",
          "type": "address"
        }
      ],
      "stateMutability": "view",
      "type": "function",
      "constant": true
    },
    {
      "inputs": [
        {
          "internalType": "address",
          "name": "",
          "type": "address"
        }
      ],
      "name": "hospitals",
      "outputs": [
        {
          "internalType": "string",
          "name": "hospitalName",
          "type": "string"
        },
        {
          "internalType": "string",
          "name": "contactNum",
          "type": "string"
        },
        {
          "internalType": "string",
          "name": "hospitalAddress",
          "type": "string"
        },
        {
          "internalType": "address",
          "name": "addr",
          "type": "address"
        },
        {
          "internalType": "uint256",
          "name": "date",
          "type": "uint256"
        }
      ],
      "stateMutability": "view",
      "type": "function",
      "constant": true
    },
    {
      "inputs": [
        {
          "internalType": "address",
          "name": "",
          "type": "address"
        }
      ],
      "name": "isHospital",
      "outputs": [
        {
          "internalType": "bool",
          "name": "",
          "type": "bool"
        }
      ],
      "stateMutability": "view",
      "type": "function",
      "constant": true
    },
    {
      "inputs": [
        {
          "internalType": "string",
          "name": "_hospitalName",
          "type": "string"
        },
        {
          "internalType": "string",
          "name": "_contactNum",
          "type": "string"
        },
        {
          "internalType": "string",
          "name": "_hospitalAddress",
          "type": "string"
        }
      ],
      "name": "registerHospital",
      "outputs": [],
      "stateMutability": "nonpayable",
      "type": "function"
    },
    {
      "inputs": [
        {
          "internalType": "string",
          "name": "_hospitalName",
          "type": "string"
        },
        {
          "internalType": "string",
          "name": "_contactNum",
          "type": "string"
        },
        {
          "internalType": "string",
          "name": "_hospitalAddress",
          "type": "string"
        }
      ],
      "name": "editHospitalProfile",
      "outputs": [],
      "stateMutability": "nonpayable",
      "type": "function"
    }
  ],
  "bytecode": "0x6080604052600060035534801561001557600080fd5b50610e40806100256000396000f3fe608060405234801561001057600080fd5b50600436106100625760003560e01c806321a1500a14610067578063350dadb714610083578063526b44ac146100a1578063bdf6c673146100bd578063c82412b9146100ed578063f093cf801461011d575b600080fd5b610081600480360381019061007c91906109dd565b610151565b005b61008b61023b565b6040516100989190610ba1565b60405180910390f35b6100bb60048036038101906100b691906109dd565b610241565b005b6100d760048036038101906100d291906109b4565b610632565b6040516100e49190610b1e565b60405180910390f35b61010760048036038101906101029190610a74565b610652565b6040516101149190610b03565b60405180910390f35b610137600480360381019061013291906109b4565b610691565b604051610148959493929190610b39565b60405180910390f35b600260003373ffffffffffffffffffffffffffffffffffffffff1673ffffffffffffffffffffffffffffffffffffffff16815260200190815260200160002060009054906101000a900460ff166101a757600080fd5b6000600160003373ffffffffffffffffffffffffffffffffffffffff1673ffffffffffffffffffffffffffffffffffffffff16815260200190815260200160002090508381600001908051906020019061020292919061087f565b508281600101908051906020019061021b92919061087f565b508181600201908051906020019061023492919061087f565b5050505050565b60035481565b600260003373ffffffffffffffffffffffffffffffffffffffff1673ffffffffffffffffffffffffffffffffffffffff16815260200190815260200160002060009054906101000a900460ff161561029857600080fd5b6000600160003373ffffffffffffffffffffffffffffffffffffffff1673ffffffffffffffffffffffffffffffffffffffff1681526020019081526020016000206040518060a00160405290816000820180546102f490610cc3565b80601f016020809104026020016040519081016040528092919081815260200182805461032090610cc3565b801561036d5780601f106103425761010080835404028352916020019161036d565b820191906000526020600020905b81548152906001019060200180831161035057829003601f168201915b5050505050815260200160018201805461038690610cc3565b80601f01602080910402602001604051908101604052809291908181526020018280546103b290610cc3565b80156103ff5780601f106103d4576101008083540402835291602001916103ff565b820191906000526020600020905b8154815290600101906020018083116103e257829003601f168201915b5050505050815260200160028201805461041890610cc3565b80601f016020809104026020016040519081016040528092919081815260200182805461044490610cc3565b80156104915780601f1061046657610100808354040283529160200191610491565b820191906000526020600020905b81548152906001019060200180831161047457829003601f168201915b505050505081526020016003820160009054906101000a900473ffffffffffffffffffffffffffffffffffffffff1673ffffffffffffffffffffffffffffffffffffffff1673ffffffffffffffffffffffffffffffffffffffff168152602001600482015481525050905083816000018190525082816020018190525081816040018190525033816060019073ffffffffffffffffffffffffffffffffffffffff16908173ffffffffffffffffffffffffffffffffffffffff1681525050428160800181815250506000339080600181540180825580915050600190039060005260206000200160009091909190916101000a81548173ffffffffffffffffffffffffffffffffffffffff021916908373ffffffffffffffffffffffffffffffffffffffff1602179055506001600260003373ffffffffffffffffffffffffffffffffffffffff1673ffffffffffffffffffffffffffffffffffffffff16815260200190815260200160002060006101000a81548160ff0219169083151502179055506003600081548092919061062790610cf5565b919050555050505050565b60026020528060005260406000206000915054906101000a900460ff1681565b6000818154811061066257600080fd5b906000526020600020016000915054906101000a900473ffffffffffffffffffffffffffffffffffffffff1681565b60016020528060005260406000206000915090508060000180546106b490610cc3565b80601f01602080910402602001604051908101604052809291908181526020018280546106e090610cc3565b801561072d5780601f106107025761010080835404028352916020019161072d565b820191906000526020600020905b81548152906001019060200180831161071057829003601f168201915b50505050509080600101805461074290610cc3565b80601f016020809104026020016040519081016040528092919081815260200182805461076e90610cc3565b80156107bb5780601f10610790576101008083540402835291602001916107bb565b820191906000526020600020905b81548152906001019060200180831161079e57829003601f168201915b5050505050908060020180546107d090610cc3565b80601f01602080910402602001604051908101604052809291908181526020018280546107fc90610cc3565b80156108495780601f1061081e57610100808354040283529160200191610849565b820191906000526020600020905b81548152906001019060200180831161082c57829003601f168201915b5050505050908060030160009054906101000a900473ffffffffffffffffffffffffffffffffffffffff16908060040154905085565b82805461088b90610cc3565b90600052602060002090601f0160209004810192826108ad57600085556108f4565b82601f106108c657805160ff19168380011785556108f4565b828001600101855582156108f4579182015b828111156108f35782518255916020019190600101906108d8565b5b5090506109019190610905565b5090565b5b8082111561091e576000816000905550600101610906565b5090565b600061093561093084610bed565b610bbc565b90508281526020810184848401111561094d57600080fd5b610958848285610c81565b509392505050565b60008135905061096f81610ddc565b92915050565b600082601f83011261098657600080fd5b8135610996848260208601610922565b91505092915050565b6000813590506109ae81610df3565b92915050565b6000602082840312156109c657600080fd5b60006109d484828501610960565b91505092915050565b6000806000606084860312156109f257600080fd5b600084013567ffffffffffffffff811115610a0c57600080fd5b610a1886828701610975565b935050602084013567ffffffffffffffff811115610a3557600080fd5b610a4186828701610975565b925050604084013567ffffffffffffffff811115610a5e57600080fd5b610a6a86828701610975565b9150509250925092565b600060208284031215610a8657600080fd5b6000610a948482850161099f565b91505092915050565b610aa681610c39565b82525050565b610ab581610c4b565b82525050565b6000610ac682610c1d565b610ad08185610c28565b9350610ae0818560208601610c90565b610ae981610dcb565b840191505092915050565b610afd81610c77565b82525050565b6000602082019050610b186000830184610a9d565b92915050565b6000602082019050610b336000830184610aac565b92915050565b600060a0820190508181036000830152610b538188610abb565b90508181036020830152610b678187610abb565b90508181036040830152610b7b8186610abb565b9050610b8a6060830185610a9d565b610b976080830184610af4565b9695505050505050565b6000602082019050610bb66000830184610af4565b92915050565b6000604051905081810181811067ffffffffffffffff82111715610be357610be2610d9c565b5b8060405250919050565b600067ffffffffffffffff821115610c0857610c07610d9c565b5b601f19601f8301169050602081019050919050565b600081519050919050565b600082825260208201905092915050565b6000610c4482610c57565b9050919050565b60008115159050919050565b600073ffffffffffffffffffffffffffffffffffffffff82169050919050565b6000819050919050565b82818337600083830152505050565b60005b83811015610cae578082015181840152602081019050610c93565b83811115610cbd576000848401525b50505050565b60006002820490506001821680610cdb57607f821691505b60208210811415610cef57610cee610d6d565b5b50919050565b6000610d0082610c77565b91507fffffffffffffffffffffffffffffffffffffffffffffffffffffffffffffffff821415610d3357610d32610d3e565b5b600182019050919050565b7f4e487b7100000000000000000000000000000000000000000000000000000000600052601160045260246000fd5b7f4e487b7100000000000000000000000000000000000000000000000000000000600052602260045260246000fd5b7f4e487b7100000000000000000000000000000000000000000000000000000000600052604160045260246000fd5b6000601f19601f8301169050919050565b610de581610c39565b8114610df057600080fd5b50565b610dfc81610c77565b8114610e0757600080fd5b5056fea2646970667358221220a00e363b93c1f07c60576f4e519bdaa026125aeca51e0d9d148b3f63b95bebfd64736f6c63430008000033",
  "immutableReferences": {},
  "source": "// SPDX-License-Identifier: MIT\r\npragma solidity >=0.4.22 <0.9.0;\r\n\r\ncontract HospitalRecords {\r\n\r\n   struct Hospital {\r\n        string hospitalName;\r\n        string contactNum;\r\n        string hospitalAddress;\r\n        address addr;\r\n        uint date;\r\n    }\r\n\r\n    constructor() {\r\n        // owner is already defined in the Records contract\r\n    }\r\n\r\n    address[] public hospitalList;\r\n    mapping(address => Hospital) public hospitals; // Mapping to associate addresses with structs\r\n    mapping(address => bool) public isHospital; //tracks of whether a specific Ethereum address is registered\r\n    uint256 public hospitalCount = 0; // Total count of registered hospital\r\n    \r\n    function registerHospital(string memory _hospitalName, string memory _contactNum, string memory _hospitalAddress) public {\r\n        require(!isHospital[msg.sender]);\r\n        Hospital memory h = hospitals[msg.sender];\r\n        h.hospitalName = _hospitalName;\r\n        h.contactNum = _contactNum;\r\n        h.hospitalAddress = _hospitalAddress;\r\n        h.addr = msg.sender;\r\n        h.date = block.timestamp;\r\n\r\n        hospitalList.push(msg.sender);\r\n        isHospital[msg.sender] = true;\r\n        hospitalCount++;\r\n    }\r\n\r\n    function editHospitalProfile(string memory _hospitalName, string memory _contactNum, string memory _hospitalAddress) public {\r\n        require(isHospital[msg.sender]);\r\n        Hospital storage h = hospitals[msg.sender];\r\n        \r\n        h.hospitalName = _hospitalName;\r\n        h.contactNum = _contactNum;\r\n        h.hospitalAddress = _hospitalAddress;\r\n    }\r\n\r\n}\r\n",
  "sourcePath": "C:\\Users\\Abby\\Desktop\\APPCON 2023\\MediVerse-Web3-Dapp\\contracts\\Hospital.sol",
  "compiler": {
    "name": "solc",
    "version": "0.8.0+commit.c7dfd78e.Emscripten.clang"
  },
  "schemaVersion": "3.4.16",
  "updatedAt": "2024-02-10T14:08:49.432Z",
  "networkType": "ethereum",
  "devdoc": {
    "kind": "dev",
    "methods": {},
    "version": 1
  },
  "userdoc": {
    "kind": "user",
    "methods": {},
    "version": 1
  }
}