{
  "contractName": "HospitalRecords",
  "abi": [
    {
      "inputs": [],
      "stateMutability": "nonpayable",
      "type": "constructor"
    },
    {
      "anonymous": false,
      "inputs": [
        {
          "indexed": false,
          "internalType": "string",
          "name": "hospitalName",
          "type": "string"
        },
        {
          "indexed": false,
          "internalType": "string",
          "name": "contactNum",
          "type": "string"
        },
        {
          "indexed": false,
          "internalType": "string",
          "name": "hospitalAddress",
          "type": "string"
        }
      ],
      "name": "HospitalRegistered",
      "type": "event"
    },
    {
      "inputs": [],
      "name": "hospitalCount",
      "outputs": [
        {
          "internalType": "uint256",
          "name": "",
          "type": "uint256"
        }
      ],
      "stateMutability": "view",
      "type": "function",
      "constant": true
    },
    {
      "inputs": [
        {
          "internalType": "uint256",
          "name": "",
          "type": "uint256"
        }
      ],
      "name": "hospitalList",
      "outputs": [
        {
          "internalType": "address",
          "name": "",
          "type": "address"
        }
      ],
      "stateMutability": "view",
      "type": "function",
      "constant": true
    },
    {
      "inputs": [
        {
          "internalType": "address",
          "name": "",
          "type": "address"
        }
      ],
      "name": "hospitals",
      "outputs": [
        {
          "internalType": "string",
          "name": "hospitalName",
          "type": "string"
        },
        {
          "internalType": "string",
          "name": "contactNum",
          "type": "string"
        },
        {
          "internalType": "string",
          "name": "hospitalAddress",
          "type": "string"
        },
        {
          "internalType": "address",
          "name": "addr",
          "type": "address"
        },
        {
          "internalType": "uint256",
          "name": "date",
          "type": "uint256"
        }
      ],
      "stateMutability": "view",
      "type": "function",
      "constant": true
    },
    {
      "inputs": [
        {
          "internalType": "address",
          "name": "",
          "type": "address"
        }
      ],
      "name": "isHospital",
      "outputs": [
        {
          "internalType": "bool",
          "name": "",
          "type": "bool"
        }
      ],
      "stateMutability": "view",
      "type": "function",
      "constant": true
    },
    {
      "inputs": [],
      "name": "owner",
      "outputs": [
        {
          "internalType": "address",
          "name": "",
          "type": "address"
        }
      ],
      "stateMutability": "view",
      "type": "function",
      "constant": true
    },
    {
      "inputs": [
        {
          "internalType": "string",
          "name": "_hospitalName",
          "type": "string"
        },
        {
          "internalType": "string",
          "name": "_contactNum",
          "type": "string"
        },
        {
          "internalType": "string",
          "name": "_hospitalAddress",
          "type": "string"
        }
      ],
      "name": "registerHospital",
      "outputs": [],
      "stateMutability": "nonpayable",
      "type": "function"
    },
    {
      "inputs": [
        {
          "internalType": "string",
          "name": "_hospitalName",
          "type": "string"
        },
        {
          "internalType": "string",
          "name": "_contactNum",
          "type": "string"
        },
        {
          "internalType": "string",
          "name": "_hospitalAddress",
          "type": "string"
        }
      ],
      "name": "editHospitalProfile",
      "outputs": [],
      "stateMutability": "nonpayable",
      "type": "function"
    },
    {
      "inputs": [],
      "name": "getHospitalList",
      "outputs": [
        {
          "internalType": "address[]",
          "name": "",
          "type": "address[]"
        }
      ],
      "stateMutability": "view",
      "type": "function",
      "constant": true
    }
  ],
  "bytecode": "0x6080604052600060045534801561001557600080fd5b50336000806101000a81548173ffffffffffffffffffffffffffffffffffffffff021916908373ffffffffffffffffffffffffffffffffffffffff1602179055506110bb806100656000396000f3fe608060405234801561001057600080fd5b50600436106100885760003560e01c80638da5cb5b1161005b5780638da5cb5b14610101578063bdf6c6731461011f578063c82412b91461014f578063f093cf801461017f57610088565b806321a1500a1461008d578063350dadb7146100a9578063526b44ac146100c75780636933e414146100e3575b600080fd5b6100a760048036038101906100a29190610b2c565b6101b3565b005b6100b161029d565b6040516100be9190610de3565b60405180910390f35b6100e160048036038101906100dc9190610b2c565b6102a3565b005b6100eb6106cf565b6040516100f89190610cf2565b60405180910390f35b61010961075d565b6040516101169190610cd7565b60405180910390f35b61013960048036038101906101349190610b03565b610781565b6040516101469190610d14565b60405180910390f35b61016960048036038101906101649190610bc3565b6107a1565b6040516101769190610cd7565b60405180910390f35b61019960048036038101906101949190610b03565b6107e0565b6040516101aa959493929190610d7b565b60405180910390f35b600360003373ffffffffffffffffffffffffffffffffffffffff1673ffffffffffffffffffffffffffffffffffffffff16815260200190815260200160002060009054906101000a900460ff1661020957600080fd5b6000600260003373ffffffffffffffffffffffffffffffffffffffff1673ffffffffffffffffffffffffffffffffffffffff1681526020019081526020016000209050838160000190805190602001906102649291906109ce565b508281600101908051906020019061027d9291906109ce565b50818160020190805190602001906102969291906109ce565b5050505050565b60045481565b600360003373ffffffffffffffffffffffffffffffffffffffff1673ffffffffffffffffffffffffffffffffffffffff16815260200190815260200160002060009054906101000a900460ff16156102fa57600080fd5b6000600260003373ffffffffffffffffffffffffffffffffffffffff1673ffffffffffffffffffffffffffffffffffffffff1681526020019081526020016000206040518060a001604052908160008201805461035690610f3e565b80601f016020809104026020016040519081016040528092919081815260200182805461038290610f3e565b80156103cf5780601f106103a4576101008083540402835291602001916103cf565b820191906000526020600020905b8154815290600101906020018083116103b257829003601f168201915b505050505081526020016001820180546103e890610f3e565b80601f016020809104026020016040519081016040528092919081815260200182805461041490610f3e565b80156104615780601f1061043657610100808354040283529160200191610461565b820191906000526020600020905b81548152906001019060200180831161044457829003601f168201915b5050505050815260200160028201805461047a90610f3e565b80601f01602080910402602001604051908101604052809291908181526020018280546104a690610f3e565b80156104f35780601f106104c8576101008083540402835291602001916104f3565b820191906000526020600020905b8154815290600101906020018083116104d657829003601f168201915b505050505081526020016003820160009054906101000a900473ffffffffffffffffffffffffffffffffffffffff1673ffffffffffffffffffffffffffffffffffffffff1673ffffffffffffffffffffffffffffffffffffffff168152602001600482015481525050905083816000018190525082816020018190525081816040018190525033816060019073ffffffffffffffffffffffffffffffffffffffff16908173ffffffffffffffffffffffffffffffffffffffff1681525050428160800181815250506001339080600181540180825580915050600190039060005260206000200160009091909190916101000a81548173ffffffffffffffffffffffffffffffffffffffff021916908373ffffffffffffffffffffffffffffffffffffffff1602179055506001600360003373ffffffffffffffffffffffffffffffffffffffff1673ffffffffffffffffffffffffffffffffffffffff16815260200190815260200160002060006101000a81548160ff0219169083151502179055506004600081548092919061068990610f70565b91905055507f23aa8fdc0870e3f48bc2931180efd70f49de2684ea4d8b6734c24942849780f98484846040516106c193929190610d2f565b60405180910390a150505050565b6060600180548060200260200160405190810160405280929190818152602001828054801561075357602002820191906000526020600020905b8160009054906101000a900473ffffffffffffffffffffffffffffffffffffffff1673ffffffffffffffffffffffffffffffffffffffff1681526020019060010190808311610709575b5050505050905090565b60008054906101000a900473ffffffffffffffffffffffffffffffffffffffff1681565b60036020528060005260406000206000915054906101000a900460ff1681565b600181815481106107b157600080fd5b906000526020600020016000915054906101000a900473ffffffffffffffffffffffffffffffffffffffff1681565b600260205280600052604060002060009150905080600001805461080390610f3e565b80601f016020809104026020016040519081016040528092919081815260200182805461082f90610f3e565b801561087c5780601f106108515761010080835404028352916020019161087c565b820191906000526020600020905b81548152906001019060200180831161085f57829003601f168201915b50505050509080600101805461089190610f3e565b80601f01602080910402602001604051908101604052809291908181526020018280546108bd90610f3e565b801561090a5780601f106108df5761010080835404028352916020019161090a565b820191906000526020600020905b8154815290600101906020018083116108ed57829003601f168201915b50505050509080600201805461091f90610f3e565b80601f016020809104026020016040519081016040528092919081815260200182805461094b90610f3e565b80156109985780601f1061096d57610100808354040283529160200191610998565b820191906000526020600020905b81548152906001019060200180831161097b57829003601f168201915b5050505050908060030160009054906101000a900473ffffffffffffffffffffffffffffffffffffffff16908060040154905085565b8280546109da90610f3e565b90600052602060002090601f0160209004810192826109fc5760008555610a43565b82601f10610a1557805160ff1916838001178555610a43565b82800160010185558215610a43579182015b82811115610a42578251825591602001919060010190610a27565b5b509050610a509190610a54565b5090565b5b80821115610a6d576000816000905550600101610a55565b5090565b6000610a84610a7f84610e2f565b610dfe565b905082815260208101848484011115610a9c57600080fd5b610aa7848285610efc565b509392505050565b600081359050610abe81611057565b92915050565b600082601f830112610ad557600080fd5b8135610ae5848260208601610a71565b91505092915050565b600081359050610afd8161106e565b92915050565b600060208284031215610b1557600080fd5b6000610b2384828501610aaf565b91505092915050565b600080600060608486031215610b4157600080fd5b600084013567ffffffffffffffff811115610b5b57600080fd5b610b6786828701610ac4565b935050602084013567ffffffffffffffff811115610b8457600080fd5b610b9086828701610ac4565b925050604084013567ffffffffffffffff811115610bad57600080fd5b610bb986828701610ac4565b9150509250925092565b600060208284031215610bd557600080fd5b6000610be384828501610aee565b91505092915050565b6000610bf88383610c04565b60208301905092915050565b610c0d81610eb4565b82525050565b610c1c81610eb4565b82525050565b6000610c2d82610e6f565b610c378185610e92565b9350610c4283610e5f565b8060005b83811015610c73578151610c5a8882610bec565b9750610c6583610e85565b925050600181019050610c46565b5085935050505092915050565b610c8981610ec6565b82525050565b6000610c9a82610e7a565b610ca48185610ea3565b9350610cb4818560208601610f0b565b610cbd81611046565b840191505092915050565b610cd181610ef2565b82525050565b6000602082019050610cec6000830184610c13565b92915050565b60006020820190508181036000830152610d0c8184610c22565b905092915050565b6000602082019050610d296000830184610c80565b92915050565b60006060820190508181036000830152610d498186610c8f565b90508181036020830152610d5d8185610c8f565b90508181036040830152610d718184610c8f565b9050949350505050565b600060a0820190508181036000830152610d958188610c8f565b90508181036020830152610da98187610c8f565b90508181036040830152610dbd8186610c8f565b9050610dcc6060830185610c13565b610dd96080830184610cc8565b9695505050505050565b6000602082019050610df86000830184610cc8565b92915050565b6000604051905081810181811067ffffffffffffffff82111715610e2557610e24611017565b5b8060405250919050565b600067ffffffffffffffff821115610e4a57610e49611017565b5b601f19601f8301169050602081019050919050565b6000819050602082019050919050565b600081519050919050565b600081519050919050565b6000602082019050919050565b600082825260208201905092915050565b600082825260208201905092915050565b6000610ebf82610ed2565b9050919050565b60008115159050919050565b600073ffffffffffffffffffffffffffffffffffffffff82169050919050565b6000819050919050565b82818337600083830152505050565b60005b83811015610f29578082015181840152602081019050610f0e565b83811115610f38576000848401525b50505050565b60006002820490506001821680610f5657607f821691505b60208210811415610f6a57610f69610fe8565b5b50919050565b6000610f7b82610ef2565b91507fffffffffffffffffffffffffffffffffffffffffffffffffffffffffffffffff821415610fae57610fad610fb9565b5b600182019050919050565b7f4e487b7100000000000000000000000000000000000000000000000000000000600052601160045260246000fd5b7f4e487b7100000000000000000000000000000000000000000000000000000000600052602260045260246000fd5b7f4e487b7100000000000000000000000000000000000000000000000000000000600052604160045260246000fd5b6000601f19601f8301169050919050565b61106081610eb4565b811461106b57600080fd5b50565b61107781610ef2565b811461108257600080fd5b5056fea2646970667358221220f5269ddf88f2b8cf7c8db7b8b711de3f569cb9071996a1858f6552204192487464736f6c63430008000033",
  "immutableReferences": {},
  "source": "// SPDX-License-Identifier: MIT\r\npragma solidity ^0.8.0;\r\n\r\ncontract HospitalRecords {\r\n\r\n    event HospitalRegistered(string hospitalName, string contactNum, string hospitalAddress);\r\n\r\n   struct Hospital {\r\n        string hospitalName;\r\n        string contactNum;\r\n        string hospitalAddress;\r\n        address addr;\r\n        uint date;\r\n    }\r\n\r\n    address public owner; \r\n    address[] public hospitalList;\r\n    mapping(address => Hospital) public hospitals; // Mapping to associate addresses with structs\r\n    mapping(address => bool) public isHospital; //tracks of whether a specific Ethereum address is registered\r\n    uint256 public hospitalCount = 0; // Total count of registered hospital\r\n    \r\n    constructor() {\r\n        owner = msg.sender;\r\n    }\r\n\r\n    function registerHospital(string memory _hospitalName, string memory _contactNum, string memory _hospitalAddress) public {\r\n        require(!isHospital[msg.sender]);\r\n        \r\n        Hospital memory h = hospitals[msg.sender];\r\n        h.hospitalName = _hospitalName;\r\n        h.contactNum = _contactNum;\r\n        h.hospitalAddress = _hospitalAddress;\r\n        h.addr = msg.sender;\r\n        h.date = block.timestamp;\r\n\r\n        hospitalList.push(msg.sender);\r\n        isHospital[msg.sender] = true;\r\n        hospitalCount++;\r\n        emit HospitalRegistered(_hospitalName, _contactNum, _hospitalAddress);\r\n    }\r\n\r\n    function editHospitalProfile(string memory _hospitalName, string memory _contactNum, string memory _hospitalAddress) public {\r\n        require(isHospital[msg.sender]);\r\n        Hospital storage h = hospitals[msg.sender];\r\n        \r\n        h.hospitalName = _hospitalName;\r\n        h.contactNum = _contactNum;\r\n        h.hospitalAddress = _hospitalAddress;\r\n    }\r\n\r\n    function getHospitalList() public view returns (address[] memory) {\r\n        return hospitalList;\r\n    }\r\n}\r\n",
  "sourcePath": "C:\\Users\\Abby\\Desktop\\APPCON 2023\\MediVerse-Web3-Dapp\\contracts\\Hospital.sol",
  "compiler": {
    "name": "solc",
    "version": "0.8.0+commit.c7dfd78e.Emscripten.clang"
  },
  "schemaVersion": "3.4.16",
  "updatedAt": "2024-02-16T09:39:33.371Z",
  "networkType": "ethereum",
  "devdoc": {
    "kind": "dev",
    "methods": {},
    "version": 1
  },
  "userdoc": {
    "kind": "user",
    "methods": {},
    "version": 1
  }
}