{
  "contractName": "HospitalRecords",
  "abi": [
    {
      "inputs": [],
      "name": "hospitalCount",
      "outputs": [
        {
          "internalType": "uint256",
          "name": "",
          "type": "uint256"
        }
      ],
      "stateMutability": "view",
      "type": "function",
      "constant": true
    },
    {
      "inputs": [
        {
          "internalType": "uint256",
          "name": "",
          "type": "uint256"
        }
      ],
      "name": "hospitalList",
      "outputs": [
        {
          "internalType": "address",
          "name": "",
          "type": "address"
        }
      ],
      "stateMutability": "view",
      "type": "function",
      "constant": true
    },
    {
      "inputs": [
        {
          "internalType": "address",
          "name": "",
          "type": "address"
        }
      ],
      "name": "hospitals",
      "outputs": [
        {
          "internalType": "string",
          "name": "hospitalName",
          "type": "string"
        },
        {
          "internalType": "string",
          "name": "contactNum",
          "type": "string"
        },
        {
          "internalType": "string",
          "name": "hospitalAddress",
          "type": "string"
        },
        {
          "internalType": "address",
          "name": "addr",
          "type": "address"
        },
        {
          "internalType": "uint256",
          "name": "date",
          "type": "uint256"
        }
      ],
      "stateMutability": "view",
      "type": "function",
      "constant": true
    },
    {
      "inputs": [
        {
          "internalType": "address",
          "name": "",
          "type": "address"
        }
      ],
      "name": "isHospital",
      "outputs": [
        {
          "internalType": "bool",
          "name": "",
          "type": "bool"
        }
      ],
      "stateMutability": "view",
      "type": "function",
      "constant": true
    },
    {
      "inputs": [
        {
          "internalType": "string",
          "name": "_hospitalName",
          "type": "string"
        },
        {
          "internalType": "string",
          "name": "_contactNum",
          "type": "string"
        },
        {
          "internalType": "string",
          "name": "_hospitalAddress",
          "type": "string"
        }
      ],
      "name": "registerHospital",
      "outputs": [],
      "stateMutability": "nonpayable",
      "type": "function"
    },
    {
      "inputs": [
        {
          "internalType": "string",
          "name": "_hospitalName",
          "type": "string"
        },
        {
          "internalType": "string",
          "name": "_contactNum",
          "type": "string"
        },
        {
          "internalType": "string",
          "name": "_hospitalAddress",
          "type": "string"
        }
      ],
      "name": "editHospitalProfile",
      "outputs": [],
      "stateMutability": "nonpayable",
      "type": "function"
    },
    {
      "inputs": [],
      "name": "getHospitalList",
      "outputs": [
        {
          "internalType": "address[]",
          "name": "",
          "type": "address[]"
        }
      ],
      "stateMutability": "view",
      "type": "function",
      "constant": true
    },
    {
      "inputs": [],
      "name": "getHospitalCount",
      "outputs": [
        {
          "internalType": "uint256",
          "name": "",
          "type": "uint256"
        }
      ],
      "stateMutability": "view",
      "type": "function",
      "constant": true
    }
  ],
  "bytecode": "0x6080604052600060035534801561001557600080fd5b5061101a806100256000396000f3fe608060405234801561001057600080fd5b50600436106100885760003560e01c8063bdf6c6731161005b578063bdf6c67314610101578063c82412b914610131578063f093cf8014610161578063fe45a81d1461019557610088565b806321a1500a1461008d578063350dadb7146100a9578063526b44ac146100c75780636933e414146100e3575b600080fd5b6100a760048036038101906100a29190610ad7565b6101b3565b005b6100b161029d565b6040516100be9190610d42565b60405180910390f35b6100e160048036038101906100dc9190610ad7565b6102a3565b005b6100eb610694565b6040516100f89190610c9d565b60405180910390f35b61011b60048036038101906101169190610aae565b610722565b6040516101289190610cbf565b60405180910390f35b61014b60048036038101906101469190610b6e565b610742565b6040516101589190610c82565b60405180910390f35b61017b60048036038101906101769190610aae565b610781565b60405161018c959493929190610cda565b60405180910390f35b61019d61096f565b6040516101aa9190610d42565b60405180910390f35b600260003373ffffffffffffffffffffffffffffffffffffffff1673ffffffffffffffffffffffffffffffffffffffff16815260200190815260200160002060009054906101000a900460ff1661020957600080fd5b6000600160003373ffffffffffffffffffffffffffffffffffffffff1673ffffffffffffffffffffffffffffffffffffffff168152602001908152602001600020905083816000019080519060200190610264929190610979565b508281600101908051906020019061027d929190610979565b5081816002019080519060200190610296929190610979565b5050505050565b60035481565b600260003373ffffffffffffffffffffffffffffffffffffffff1673ffffffffffffffffffffffffffffffffffffffff16815260200190815260200160002060009054906101000a900460ff16156102fa57600080fd5b6000600160003373ffffffffffffffffffffffffffffffffffffffff1673ffffffffffffffffffffffffffffffffffffffff1681526020019081526020016000206040518060a001604052908160008201805461035690610e9d565b80601f016020809104026020016040519081016040528092919081815260200182805461038290610e9d565b80156103cf5780601f106103a4576101008083540402835291602001916103cf565b820191906000526020600020905b8154815290600101906020018083116103b257829003601f168201915b505050505081526020016001820180546103e890610e9d565b80601f016020809104026020016040519081016040528092919081815260200182805461041490610e9d565b80156104615780601f1061043657610100808354040283529160200191610461565b820191906000526020600020905b81548152906001019060200180831161044457829003601f168201915b5050505050815260200160028201805461047a90610e9d565b80601f01602080910402602001604051908101604052809291908181526020018280546104a690610e9d565b80156104f35780601f106104c8576101008083540402835291602001916104f3565b820191906000526020600020905b8154815290600101906020018083116104d657829003601f168201915b505050505081526020016003820160009054906101000a900473ffffffffffffffffffffffffffffffffffffffff1673ffffffffffffffffffffffffffffffffffffffff1673ffffffffffffffffffffffffffffffffffffffff168152602001600482015481525050905083816000018190525082816020018190525081816040018190525033816060019073ffffffffffffffffffffffffffffffffffffffff16908173ffffffffffffffffffffffffffffffffffffffff1681525050428160800181815250506000339080600181540180825580915050600190039060005260206000200160009091909190916101000a81548173ffffffffffffffffffffffffffffffffffffffff021916908373ffffffffffffffffffffffffffffffffffffffff1602179055506001600260003373ffffffffffffffffffffffffffffffffffffffff1673ffffffffffffffffffffffffffffffffffffffff16815260200190815260200160002060006101000a81548160ff0219169083151502179055506003600081548092919061068990610ecf565b919050555050505050565b6060600080548060200260200160405190810160405280929190818152602001828054801561071857602002820191906000526020600020905b8160009054906101000a900473ffffffffffffffffffffffffffffffffffffffff1673ffffffffffffffffffffffffffffffffffffffff16815260200190600101908083116106ce575b5050505050905090565b60026020528060005260406000206000915054906101000a900460ff1681565b6000818154811061075257600080fd5b906000526020600020016000915054906101000a900473ffffffffffffffffffffffffffffffffffffffff1681565b60016020528060005260406000206000915090508060000180546107a490610e9d565b80601f01602080910402602001604051908101604052809291908181526020018280546107d090610e9d565b801561081d5780601f106107f25761010080835404028352916020019161081d565b820191906000526020600020905b81548152906001019060200180831161080057829003601f168201915b50505050509080600101805461083290610e9d565b80601f016020809104026020016040519081016040528092919081815260200182805461085e90610e9d565b80156108ab5780601f10610880576101008083540402835291602001916108ab565b820191906000526020600020905b81548152906001019060200180831161088e57829003601f168201915b5050505050908060020180546108c090610e9d565b80601f01602080910402602001604051908101604052809291908181526020018280546108ec90610e9d565b80156109395780601f1061090e57610100808354040283529160200191610939565b820191906000526020600020905b81548152906001019060200180831161091c57829003601f168201915b5050505050908060030160009054906101000a900473ffffffffffffffffffffffffffffffffffffffff16908060040154905085565b6000600354905090565b82805461098590610e9d565b90600052602060002090601f0160209004810192826109a757600085556109ee565b82601f106109c057805160ff19168380011785556109ee565b828001600101855582156109ee579182015b828111156109ed5782518255916020019190600101906109d2565b5b5090506109fb91906109ff565b5090565b5b80821115610a18576000816000905550600101610a00565b5090565b6000610a2f610a2a84610d8e565b610d5d565b905082815260208101848484011115610a4757600080fd5b610a52848285610e5b565b509392505050565b600081359050610a6981610fb6565b92915050565b600082601f830112610a8057600080fd5b8135610a90848260208601610a1c565b91505092915050565b600081359050610aa881610fcd565b92915050565b600060208284031215610ac057600080fd5b6000610ace84828501610a5a565b91505092915050565b600080600060608486031215610aec57600080fd5b600084013567ffffffffffffffff811115610b0657600080fd5b610b1286828701610a6f565b935050602084013567ffffffffffffffff811115610b2f57600080fd5b610b3b86828701610a6f565b925050604084013567ffffffffffffffff811115610b5857600080fd5b610b6486828701610a6f565b9150509250925092565b600060208284031215610b8057600080fd5b6000610b8e84828501610a99565b91505092915050565b6000610ba38383610baf565b60208301905092915050565b610bb881610e13565b82525050565b610bc781610e13565b82525050565b6000610bd882610dce565b610be28185610df1565b9350610bed83610dbe565b8060005b83811015610c1e578151610c058882610b97565b9750610c1083610de4565b925050600181019050610bf1565b5085935050505092915050565b610c3481610e25565b82525050565b6000610c4582610dd9565b610c4f8185610e02565b9350610c5f818560208601610e6a565b610c6881610fa5565b840191505092915050565b610c7c81610e51565b82525050565b6000602082019050610c976000830184610bbe565b92915050565b60006020820190508181036000830152610cb78184610bcd565b905092915050565b6000602082019050610cd46000830184610c2b565b92915050565b600060a0820190508181036000830152610cf48188610c3a565b90508181036020830152610d088187610c3a565b90508181036040830152610d1c8186610c3a565b9050610d2b6060830185610bbe565b610d386080830184610c73565b9695505050505050565b6000602082019050610d576000830184610c73565b92915050565b6000604051905081810181811067ffffffffffffffff82111715610d8457610d83610f76565b5b8060405250919050565b600067ffffffffffffffff821115610da957610da8610f76565b5b601f19601f8301169050602081019050919050565b6000819050602082019050919050565b600081519050919050565b600081519050919050565b6000602082019050919050565b600082825260208201905092915050565b600082825260208201905092915050565b6000610e1e82610e31565b9050919050565b60008115159050919050565b600073ffffffffffffffffffffffffffffffffffffffff82169050919050565b6000819050919050565b82818337600083830152505050565b60005b83811015610e88578082015181840152602081019050610e6d565b83811115610e97576000848401525b50505050565b60006002820490506001821680610eb557607f821691505b60208210811415610ec957610ec8610f47565b5b50919050565b6000610eda82610e51565b91507fffffffffffffffffffffffffffffffffffffffffffffffffffffffffffffffff821415610f0d57610f0c610f18565b5b600182019050919050565b7f4e487b7100000000000000000000000000000000000000000000000000000000600052601160045260246000fd5b7f4e487b7100000000000000000000000000000000000000000000000000000000600052602260045260246000fd5b7f4e487b7100000000000000000000000000000000000000000000000000000000600052604160045260246000fd5b6000601f19601f8301169050919050565b610fbf81610e13565b8114610fca57600080fd5b50565b610fd681610e51565b8114610fe157600080fd5b5056fea2646970667358221220a7a904fc3ee7cf63c1c6f1cb0504a66676593d551a362b4bf4a7b55b3e0f01ba64736f6c63430008000033",
  "immutableReferences": {},
  "source": "// SPDX-License-Identifier: MIT\r\npragma solidity >=0.4.22 <0.9.0;\r\n\r\ncontract HospitalRecords {\r\n\r\n    struct Hospital {\r\n        string hospitalName;\r\n        string contactNum;\r\n        string hospitalAddress;\r\n        address addr;\r\n        uint date;\r\n    }\r\n\r\n    address[] public hospitalList;\r\n    mapping(address => Hospital) public hospitals; // Mapping to associate addresses with structs\r\n    mapping(address => bool) public isHospital; //tracks of whether a specific Ethereum address is registered\r\n    uint256 public hospitalCount = 0; // Total count of registered hospital\r\n \r\n\r\n    function registerHospital(string memory _hospitalName, string memory _contactNum, string memory _hospitalAddress) public {\r\n        require(!isHospital[msg.sender]);\r\n        Hospital memory h = hospitals[msg.sender];\r\n        h.hospitalName = _hospitalName;\r\n        h.contactNum = _contactNum;\r\n        h.hospitalAddress = _hospitalAddress;\r\n        h.addr = msg.sender;\r\n        h.date = block.timestamp;\r\n\r\n        hospitalList.push(msg.sender);\r\n        isHospital[msg.sender] = true;\r\n        hospitalCount++;\r\n    }\r\n\r\n    function editHospitalProfile(string memory _hospitalName, string memory _contactNum, string memory _hospitalAddress) public {\r\n        require(isHospital[msg.sender]);\r\n        Hospital storage h = hospitals[msg.sender];\r\n        \r\n        h.hospitalName = _hospitalName;\r\n        h.contactNum = _contactNum;\r\n        h.hospitalAddress = _hospitalAddress;\r\n    }\r\n\r\n    function getHospitalList() public view returns (address[] memory) {\r\n        return hospitalList;\r\n    }\r\n\r\n    function getHospitalCount() public view returns(uint256) {\r\n        return hospitalCount;\r\n    }\r\n}\r\n",
  "sourcePath": "C:\\Users\\Abby\\Desktop\\APPCON 2023\\MediVerse-Web3-Dapp\\contracts\\Hospital.sol",
  "compiler": {
    "name": "solc",
    "version": "0.8.0+commit.c7dfd78e.Emscripten.clang"
  },
  "schemaVersion": "3.4.16",
  "updatedAt": "2024-02-18T11:11:46.836Z",
  "networkType": "ethereum",
  "devdoc": {
    "kind": "dev",
    "methods": {},
    "version": 1
  },
  "userdoc": {
    "kind": "user",
    "methods": {},
    "version": 1
  }
}