{
  "contractName": "HospitalizationHistoryRecords",
  "abi": [
    {
      "inputs": [
        {
          "internalType": "string",
          "name": "_hospitalName",
          "type": "string"
        },
        {
          "internalType": "string",
          "name": "_contactNum",
          "type": "string"
        },
        {
          "internalType": "string",
          "name": "_hospitalAddress",
          "type": "string"
        }
      ],
      "name": "editHospitalProfile",
      "outputs": [],
      "stateMutability": "nonpayable",
      "type": "function"
    },
    {
      "inputs": [],
      "name": "getHospitalCount",
      "outputs": [
        {
          "internalType": "uint256",
          "name": "",
          "type": "uint256"
        }
      ],
      "stateMutability": "view",
      "type": "function",
      "constant": true
    },
    {
      "inputs": [],
      "name": "getHospitalList",
      "outputs": [
        {
          "internalType": "address[]",
          "name": "",
          "type": "address[]"
        }
      ],
      "stateMutability": "view",
      "type": "function",
      "constant": true
    },
    {
      "inputs": [],
      "name": "hospitalCount",
      "outputs": [
        {
          "internalType": "uint256",
          "name": "",
          "type": "uint256"
        }
      ],
      "stateMutability": "view",
      "type": "function",
      "constant": true
    },
    {
      "inputs": [
        {
          "internalType": "uint256",
          "name": "",
          "type": "uint256"
        }
      ],
      "name": "hospitalList",
      "outputs": [
        {
          "internalType": "address",
          "name": "",
          "type": "address"
        }
      ],
      "stateMutability": "view",
      "type": "function",
      "constant": true
    },
    {
      "inputs": [],
      "name": "hospitalizationHistoryCount",
      "outputs": [
        {
          "internalType": "uint256",
          "name": "",
          "type": "uint256"
        }
      ],
      "stateMutability": "view",
      "type": "function",
      "constant": true
    },
    {
      "inputs": [
        {
          "internalType": "uint256",
          "name": "",
          "type": "uint256"
        }
      ],
      "name": "hospitalizationList",
      "outputs": [
        {
          "internalType": "address",
          "name": "",
          "type": "address"
        }
      ],
      "stateMutability": "view",
      "type": "function",
      "constant": true
    },
    {
      "inputs": [
        {
          "internalType": "address",
          "name": "",
          "type": "address"
        }
      ],
      "name": "hospitalizationRecords",
      "outputs": [
        {
          "internalType": "address",
          "name": "owner",
          "type": "address"
        },
        {
          "internalType": "address",
          "name": "hospitalAddr",
          "type": "address"
        },
        {
          "internalType": "string",
          "name": "hospital",
          "type": "string"
        },
        {
          "internalType": "string",
          "name": "admissionDate",
          "type": "string"
        },
        {
          "internalType": "string",
          "name": "dischargeDate",
          "type": "string"
        },
        {
          "internalType": "string",
          "name": "reasonForHospitalization",
          "type": "string"
        },
        {
          "internalType": "string",
          "name": "admittingDiagnosis",
          "type": "string"
        },
        {
          "internalType": "string",
          "name": "dischargeDiagnosis",
          "type": "string"
        }
      ],
      "stateMutability": "view",
      "type": "function",
      "constant": true
    },
    {
      "inputs": [
        {
          "internalType": "address",
          "name": "",
          "type": "address"
        }
      ],
      "name": "hospitals",
      "outputs": [
        {
          "internalType": "string",
          "name": "hospitalName",
          "type": "string"
        },
        {
          "internalType": "string",
          "name": "contactNum",
          "type": "string"
        },
        {
          "internalType": "string",
          "name": "hospitalAddress",
          "type": "string"
        },
        {
          "internalType": "address",
          "name": "addr",
          "type": "address"
        },
        {
          "internalType": "uint256",
          "name": "date",
          "type": "uint256"
        }
      ],
      "stateMutability": "view",
      "type": "function",
      "constant": true
    },
    {
      "inputs": [
        {
          "internalType": "address",
          "name": "",
          "type": "address"
        }
      ],
      "name": "isHospital",
      "outputs": [
        {
          "internalType": "bool",
          "name": "",
          "type": "bool"
        }
      ],
      "stateMutability": "view",
      "type": "function",
      "constant": true
    },
    {
      "inputs": [
        {
          "internalType": "address",
          "name": "",
          "type": "address"
        },
        {
          "internalType": "uint256",
          "name": "",
          "type": "uint256"
        }
      ],
      "name": "patientHospitalizationRecords",
      "outputs": [
        {
          "internalType": "address",
          "name": "",
          "type": "address"
        }
      ],
      "stateMutability": "view",
      "type": "function",
      "constant": true
    },
    {
      "inputs": [
        {
          "internalType": "string",
          "name": "_hospitalName",
          "type": "string"
        },
        {
          "internalType": "string",
          "name": "_contactNum",
          "type": "string"
        },
        {
          "internalType": "string",
          "name": "_hospitalAddress",
          "type": "string"
        }
      ],
      "name": "registerHospital",
      "outputs": [],
      "stateMutability": "nonpayable",
      "type": "function"
    }
  ],
  "bytecode": "0x60806040526000600355600060075534801561001a57600080fd5b5061162a8061002a6000396000f3fe608060405234801561001057600080fd5b50600436106100b45760003560e01c80636933e414116100715780636933e4141461018d578063a364e9e6146101ab578063bdf6c673146101e2578063c82412b914610212578063f093cf8014610242578063fe45a81d14610276576100b4565b806321a1500a146100b9578063350dadb7146100d5578063526b44ac146100f35780635c6a5f971461010f5780635cbe9d5a1461013f57806361c4f4a31461016f575b600080fd5b6100d360048036038101906100ce919061103f565b610294565b005b6100dd61037e565b6040516100ea9190611352565b60405180910390f35b61010d6004803603810190610108919061103f565b610384565b005b610129600480360381019061012491906110d6565b610775565b60405161013691906111ea565b60405180910390f35b61015960048036038101906101549190611003565b6107b4565b60405161016691906111ea565b60405180910390f35b610177610802565b6040516101849190611352565b60405180910390f35b610195610808565b6040516101a291906112ad565b60405180910390f35b6101c560048036038101906101c09190610fda565b610896565b6040516101d9989796959493929190611205565b60405180910390f35b6101fc60048036038101906101f79190610fda565b610c4e565b60405161020991906112cf565b60405180910390f35b61022c600480360381019061022791906110d6565b610c6e565b60405161023991906111ea565b60405180910390f35b61025c60048036038101906102579190610fda565b610cad565b60405161026d9594939291906112ea565b60405180910390f35b61027e610e9b565b60405161028b9190611352565b60405180910390f35b600260003373ffffffffffffffffffffffffffffffffffffffff1673ffffffffffffffffffffffffffffffffffffffff16815260200190815260200160002060009054906101000a900460ff166102ea57600080fd5b6000600160003373ffffffffffffffffffffffffffffffffffffffff1673ffffffffffffffffffffffffffffffffffffffff168152602001908152602001600020905083816000019080519060200190610345929190610ea5565b508281600101908051906020019061035e929190610ea5565b5081816002019080519060200190610377929190610ea5565b5050505050565b60035481565b600260003373ffffffffffffffffffffffffffffffffffffffff1673ffffffffffffffffffffffffffffffffffffffff16815260200190815260200160002060009054906101000a900460ff16156103db57600080fd5b6000600160003373ffffffffffffffffffffffffffffffffffffffff1673ffffffffffffffffffffffffffffffffffffffff1681526020019081526020016000206040518060a0016040529081600082018054610437906114ad565b80601f0160208091040260200160405190810160405280929190818152602001828054610463906114ad565b80156104b05780601f10610485576101008083540402835291602001916104b0565b820191906000526020600020905b81548152906001019060200180831161049357829003601f168201915b505050505081526020016001820180546104c9906114ad565b80601f01602080910402602001604051908101604052809291908181526020018280546104f5906114ad565b80156105425780601f1061051757610100808354040283529160200191610542565b820191906000526020600020905b81548152906001019060200180831161052557829003601f168201915b5050505050815260200160028201805461055b906114ad565b80601f0160208091040260200160405190810160405280929190818152602001828054610587906114ad565b80156105d45780601f106105a9576101008083540402835291602001916105d4565b820191906000526020600020905b8154815290600101906020018083116105b757829003601f168201915b505050505081526020016003820160009054906101000a900473ffffffffffffffffffffffffffffffffffffffff1673ffffffffffffffffffffffffffffffffffffffff1673ffffffffffffffffffffffffffffffffffffffff168152602001600482015481525050905083816000018190525082816020018190525081816040018190525033816060019073ffffffffffffffffffffffffffffffffffffffff16908173ffffffffffffffffffffffffffffffffffffffff1681525050428160800181815250506000339080600181540180825580915050600190039060005260206000200160009091909190916101000a81548173ffffffffffffffffffffffffffffffffffffffff021916908373ffffffffffffffffffffffffffffffffffffffff1602179055506001600260003373ffffffffffffffffffffffffffffffffffffffff1673ffffffffffffffffffffffffffffffffffffffff16815260200190815260200160002060006101000a81548160ff0219169083151502179055506003600081548092919061076a906114df565b919050555050505050565b6004818154811061078557600080fd5b906000526020600020016000915054906101000a900473ffffffffffffffffffffffffffffffffffffffff1681565b600660205281600052604060002081815481106107d057600080fd5b906000526020600020016000915091509054906101000a900473ffffffffffffffffffffffffffffffffffffffff1681565b60075481565b6060600080548060200260200160405190810160405280929190818152602001828054801561088c57602002820191906000526020600020905b8160009054906101000a900473ffffffffffffffffffffffffffffffffffffffff1673ffffffffffffffffffffffffffffffffffffffff1681526020019060010190808311610842575b5050505050905090565b60056020528060005260406000206000915090508060000160009054906101000a900473ffffffffffffffffffffffffffffffffffffffff16908060010160009054906101000a900473ffffffffffffffffffffffffffffffffffffffff1690806002018054610905906114ad565b80601f0160208091040260200160405190810160405280929190818152602001828054610931906114ad565b801561097e5780601f106109535761010080835404028352916020019161097e565b820191906000526020600020905b81548152906001019060200180831161096157829003601f168201915b505050505090806003018054610993906114ad565b80601f01602080910402602001604051908101604052809291908181526020018280546109bf906114ad565b8015610a0c5780601f106109e157610100808354040283529160200191610a0c565b820191906000526020600020905b8154815290600101906020018083116109ef57829003601f168201915b505050505090806004018054610a21906114ad565b80601f0160208091040260200160405190810160405280929190818152602001828054610a4d906114ad565b8015610a9a5780601f10610a6f57610100808354040283529160200191610a9a565b820191906000526020600020905b815481529060010190602001808311610a7d57829003601f168201915b505050505090806005018054610aaf906114ad565b80601f0160208091040260200160405190810160405280929190818152602001828054610adb906114ad565b8015610b285780601f10610afd57610100808354040283529160200191610b28565b820191906000526020600020905b815481529060010190602001808311610b0b57829003601f168201915b505050505090806006018054610b3d906114ad565b80601f0160208091040260200160405190810160405280929190818152602001828054610b69906114ad565b8015610bb65780601f10610b8b57610100808354040283529160200191610bb6565b820191906000526020600020905b815481529060010190602001808311610b9957829003601f168201915b505050505090806007018054610bcb906114ad565b80601f0160208091040260200160405190810160405280929190818152602001828054610bf7906114ad565b8015610c445780601f10610c1957610100808354040283529160200191610c44565b820191906000526020600020905b815481529060010190602001808311610c2757829003601f168201915b5050505050905088565b60026020528060005260406000206000915054906101000a900460ff1681565b60008181548110610c7e57600080fd5b906000526020600020016000915054906101000a900473ffffffffffffffffffffffffffffffffffffffff1681565b6001602052806000526040600020600091509050806000018054610cd0906114ad565b80601f0160208091040260200160405190810160405280929190818152602001828054610cfc906114ad565b8015610d495780601f10610d1e57610100808354040283529160200191610d49565b820191906000526020600020905b815481529060010190602001808311610d2c57829003601f168201915b505050505090806001018054610d5e906114ad565b80601f0160208091040260200160405190810160405280929190818152602001828054610d8a906114ad565b8015610dd75780601f10610dac57610100808354040283529160200191610dd7565b820191906000526020600020905b815481529060010190602001808311610dba57829003601f168201915b505050505090806002018054610dec906114ad565b80601f0160208091040260200160405190810160405280929190818152602001828054610e18906114ad565b8015610e655780601f10610e3a57610100808354040283529160200191610e65565b820191906000526020600020905b815481529060010190602001808311610e4857829003601f168201915b5050505050908060030160009054906101000a900473ffffffffffffffffffffffffffffffffffffffff16908060040154905085565b6000600354905090565b828054610eb1906114ad565b90600052602060002090601f016020900481019282610ed35760008555610f1a565b82601f10610eec57805160ff1916838001178555610f1a565b82800160010185558215610f1a579182015b82811115610f19578251825591602001919060010190610efe565b5b509050610f279190610f2b565b5090565b5b80821115610f44576000816000905550600101610f2c565b5090565b6000610f5b610f568461139e565b61136d565b905082815260208101848484011115610f7357600080fd5b610f7e84828561146b565b509392505050565b600081359050610f95816115c6565b92915050565b600082601f830112610fac57600080fd5b8135610fbc848260208601610f48565b91505092915050565b600081359050610fd4816115dd565b92915050565b600060208284031215610fec57600080fd5b6000610ffa84828501610f86565b91505092915050565b6000806040838503121561101657600080fd5b600061102485828601610f86565b925050602061103585828601610fc5565b9150509250929050565b60008060006060848603121561105457600080fd5b600084013567ffffffffffffffff81111561106e57600080fd5b61107a86828701610f9b565b935050602084013567ffffffffffffffff81111561109757600080fd5b6110a386828701610f9b565b925050604084013567ffffffffffffffff8111156110c057600080fd5b6110cc86828701610f9b565b9150509250925092565b6000602082840312156110e857600080fd5b60006110f684828501610fc5565b91505092915050565b600061110b8383611117565b60208301905092915050565b61112081611423565b82525050565b61112f81611423565b82525050565b6000611140826113de565b61114a8185611401565b9350611155836113ce565b8060005b8381101561118657815161116d88826110ff565b9750611178836113f4565b925050600181019050611159565b5085935050505092915050565b61119c81611435565b82525050565b60006111ad826113e9565b6111b78185611412565b93506111c781856020860161147a565b6111d0816115b5565b840191505092915050565b6111e481611461565b82525050565b60006020820190506111ff6000830184611126565b92915050565b60006101008201905061121b600083018b611126565b611228602083018a611126565b818103604083015261123a81896111a2565b9050818103606083015261124e81886111a2565b9050818103608083015261126281876111a2565b905081810360a083015261127681866111a2565b905081810360c083015261128a81856111a2565b905081810360e083015261129e81846111a2565b90509998505050505050505050565b600060208201905081810360008301526112c78184611135565b905092915050565b60006020820190506112e46000830184611193565b92915050565b600060a082019050818103600083015261130481886111a2565b9050818103602083015261131881876111a2565b9050818103604083015261132c81866111a2565b905061133b6060830185611126565b61134860808301846111db565b9695505050505050565b600060208201905061136760008301846111db565b92915050565b6000604051905081810181811067ffffffffffffffff8211171561139457611393611586565b5b8060405250919050565b600067ffffffffffffffff8211156113b9576113b8611586565b5b601f19601f8301169050602081019050919050565b6000819050602082019050919050565b600081519050919050565b600081519050919050565b6000602082019050919050565b600082825260208201905092915050565b600082825260208201905092915050565b600061142e82611441565b9050919050565b60008115159050919050565b600073ffffffffffffffffffffffffffffffffffffffff82169050919050565b6000819050919050565b82818337600083830152505050565b60005b8381101561149857808201518184015260208101905061147d565b838111156114a7576000848401525b50505050565b600060028204905060018216806114c557607f821691505b602082108114156114d9576114d8611557565b5b50919050565b60006114ea82611461565b91507fffffffffffffffffffffffffffffffffffffffffffffffffffffffffffffffff82141561151d5761151c611528565b5b600182019050919050565b7f4e487b7100000000000000000000000000000000000000000000000000000000600052601160045260246000fd5b7f4e487b7100000000000000000000000000000000000000000000000000000000600052602260045260246000fd5b7f4e487b7100000000000000000000000000000000000000000000000000000000600052604160045260246000fd5b6000601f19601f8301169050919050565b6115cf81611423565b81146115da57600080fd5b50565b6115e681611461565b81146115f157600080fd5b5056fea264697066735822122026cf08119358577e6d52a9c94dc846ace0e23400a39c8200bf41c878f498c35264736f6c63430008000033",
  "immutableReferences": {},
  "source": "// SPDX-License-Identifier: MIT\r\npragma solidity ^0.8.0;\r\n\r\nimport \"./Hospital.sol\";\r\n\r\ncontract HospitalizationHistoryRecords is HospitalRecords{\r\n    \r\n    struct HospitalizationRecord{\r\n        address owner; //Patient's address\r\n        address hospitalAddr;\r\n        string hospital;\r\n        string admissionDate;\r\n        string dischargeDate;\r\n        string reasonForHospitalization;\r\n        string admittingDiagnosis;\r\n        string dischargeDiagnosis;\r\n    }\r\n\r\n    address[] public hospitalizationList;\r\n    mapping(address => HospitalizationRecord) public hospitalizationRecords;\r\n    mapping(address => address[]) public patientHospitalizationRecords;\r\n    uint256 public hospitalizationHistoryCount = 0;\r\n\r\n}",
  "sourcePath": "C:\\Users\\Abby\\Desktop\\APPCON 2023\\MediVerse-Web3-Dapp\\contracts\\HospitalizationHistory.sol",
  "compiler": {
    "name": "solc",
    "version": "0.8.0+commit.c7dfd78e.Emscripten.clang"
  },
  "schemaVersion": "3.4.16",
  "updatedAt": "2024-02-18T11:11:46.885Z",
  "networkType": "ethereum",
  "devdoc": {
    "kind": "dev",
    "methods": {},
    "version": 1
  },
  "userdoc": {
    "kind": "user",
    "methods": {},
    "version": 1
  }
}