{
  "contractName": "LaboratoryHistoryRecords",
  "abi": [
    {
      "inputs": [
        {
          "internalType": "string",
          "name": "_hospitalName",
          "type": "string"
        },
        {
          "internalType": "string",
          "name": "_contactNum",
          "type": "string"
        },
        {
          "internalType": "string",
          "name": "_hospitalAddress",
          "type": "string"
        }
      ],
      "name": "editHospitalProfile",
      "outputs": [],
      "stateMutability": "nonpayable",
      "type": "function"
    },
    {
      "inputs": [],
      "name": "getHospitalCount",
      "outputs": [
        {
          "internalType": "uint256",
          "name": "",
          "type": "uint256"
        }
      ],
      "stateMutability": "view",
      "type": "function",
      "constant": true
    },
    {
      "inputs": [],
      "name": "getHospitalList",
      "outputs": [
        {
          "internalType": "address[]",
          "name": "",
          "type": "address[]"
        }
      ],
      "stateMutability": "view",
      "type": "function",
      "constant": true
    },
    {
      "inputs": [],
      "name": "hospitalCount",
      "outputs": [
        {
          "internalType": "uint256",
          "name": "",
          "type": "uint256"
        }
      ],
      "stateMutability": "view",
      "type": "function",
      "constant": true
    },
    {
      "inputs": [
        {
          "internalType": "uint256",
          "name": "",
          "type": "uint256"
        }
      ],
      "name": "hospitalList",
      "outputs": [
        {
          "internalType": "address",
          "name": "",
          "type": "address"
        }
      ],
      "stateMutability": "view",
      "type": "function",
      "constant": true
    },
    {
      "inputs": [
        {
          "internalType": "address",
          "name": "",
          "type": "address"
        }
      ],
      "name": "hospitals",
      "outputs": [
        {
          "internalType": "string",
          "name": "hospitalName",
          "type": "string"
        },
        {
          "internalType": "string",
          "name": "contactNum",
          "type": "string"
        },
        {
          "internalType": "string",
          "name": "hospitalAddress",
          "type": "string"
        },
        {
          "internalType": "address",
          "name": "addr",
          "type": "address"
        },
        {
          "internalType": "uint256",
          "name": "date",
          "type": "uint256"
        }
      ],
      "stateMutability": "view",
      "type": "function",
      "constant": true
    },
    {
      "inputs": [
        {
          "internalType": "address",
          "name": "",
          "type": "address"
        }
      ],
      "name": "isHospital",
      "outputs": [
        {
          "internalType": "bool",
          "name": "",
          "type": "bool"
        }
      ],
      "stateMutability": "view",
      "type": "function",
      "constant": true
    },
    {
      "inputs": [],
      "name": "laboratoryHistoryCount",
      "outputs": [
        {
          "internalType": "uint256",
          "name": "",
          "type": "uint256"
        }
      ],
      "stateMutability": "view",
      "type": "function",
      "constant": true
    },
    {
      "inputs": [
        {
          "internalType": "uint256",
          "name": "",
          "type": "uint256"
        }
      ],
      "name": "laboratoryList",
      "outputs": [
        {
          "internalType": "address",
          "name": "",
          "type": "address"
        }
      ],
      "stateMutability": "view",
      "type": "function",
      "constant": true
    },
    {
      "inputs": [
        {
          "internalType": "address",
          "name": "",
          "type": "address"
        }
      ],
      "name": "laboratoryRecords",
      "outputs": [
        {
          "internalType": "address",
          "name": "owner",
          "type": "address"
        },
        {
          "internalType": "address",
          "name": "hospitalAddr",
          "type": "address"
        },
        {
          "internalType": "string",
          "name": "hospital",
          "type": "string"
        },
        {
          "internalType": "string",
          "name": "testType",
          "type": "string"
        },
        {
          "internalType": "string",
          "name": "dateOfTest",
          "type": "string"
        },
        {
          "internalType": "string",
          "name": "orderingPhysician",
          "type": "string"
        },
        {
          "internalType": "string",
          "name": "testCategory",
          "type": "string"
        },
        {
          "internalType": "string",
          "name": "resultsIpfsHash",
          "type": "string"
        },
        {
          "internalType": "string",
          "name": "reviewingPhysician",
          "type": "string"
        },
        {
          "internalType": "string",
          "name": "interpretation",
          "type": "string"
        }
      ],
      "stateMutability": "view",
      "type": "function",
      "constant": true
    },
    {
      "inputs": [
        {
          "internalType": "address",
          "name": "",
          "type": "address"
        },
        {
          "internalType": "uint256",
          "name": "",
          "type": "uint256"
        }
      ],
      "name": "patientLaboratoryRecords",
      "outputs": [
        {
          "internalType": "address",
          "name": "",
          "type": "address"
        }
      ],
      "stateMutability": "view",
      "type": "function",
      "constant": true
    },
    {
      "inputs": [
        {
          "internalType": "string",
          "name": "_hospitalName",
          "type": "string"
        },
        {
          "internalType": "string",
          "name": "_contactNum",
          "type": "string"
        },
        {
          "internalType": "string",
          "name": "_hospitalAddress",
          "type": "string"
        }
      ],
      "name": "registerHospital",
      "outputs": [],
      "stateMutability": "nonpayable",
      "type": "function"
    },
    {
      "inputs": [
        {
          "internalType": "address",
          "name": "_patientAddr",
          "type": "address"
        },
        {
          "internalType": "string",
          "name": "_hospital",
          "type": "string"
        },
        {
          "internalType": "string",
          "name": "_testType",
          "type": "string"
        },
        {
          "internalType": "string",
          "name": "_dateOfTest",
          "type": "string"
        },
        {
          "internalType": "string",
          "name": "_orderingPhysician",
          "type": "string"
        },
        {
          "internalType": "string",
          "name": "_testCategory",
          "type": "string"
        },
        {
          "internalType": "string",
          "name": "_resultsIpfsHash",
          "type": "string"
        },
        {
          "internalType": "string",
          "name": "_reviewingPhysician",
          "type": "string"
        },
        {
          "internalType": "string",
          "name": "_interpretation",
          "type": "string"
        }
      ],
      "name": "addLaboratoryHistory",
      "outputs": [],
      "stateMutability": "nonpayable",
      "type": "function"
    },
    {
      "inputs": [
        {
          "internalType": "address",
          "name": "_patientAddr",
          "type": "address"
        },
        {
          "internalType": "string",
          "name": "_hospital",
          "type": "string"
        },
        {
          "internalType": "string",
          "name": "_testType",
          "type": "string"
        },
        {
          "internalType": "string",
          "name": "_dateOfTest",
          "type": "string"
        },
        {
          "internalType": "string",
          "name": "_orderingPhysician",
          "type": "string"
        },
        {
          "internalType": "string",
          "name": "_testCategory",
          "type": "string"
        },
        {
          "internalType": "string",
          "name": "_resultsIpfsHash",
          "type": "string"
        },
        {
          "internalType": "string",
          "name": "_reviewingPhysician",
          "type": "string"
        },
        {
          "internalType": "string",
          "name": "_interpretation",
          "type": "string"
        }
      ],
      "name": "editLaboratoryHistory",
      "outputs": [],
      "stateMutability": "nonpayable",
      "type": "function"
    },
    {
      "inputs": [
        {
          "internalType": "address",
          "name": "patientAddr",
          "type": "address"
        }
      ],
      "name": "getLaboratoryHistory",
      "outputs": [
        {
          "components": [
            {
              "internalType": "address",
              "name": "owner",
              "type": "address"
            },
            {
              "internalType": "address",
              "name": "hospitalAddr",
              "type": "address"
            },
            {
              "internalType": "string",
              "name": "hospital",
              "type": "string"
            },
            {
              "internalType": "string",
              "name": "testType",
              "type": "string"
            },
            {
              "internalType": "string",
              "name": "dateOfTest",
              "type": "string"
            },
            {
              "internalType": "string",
              "name": "orderingPhysician",
              "type": "string"
            },
            {
              "internalType": "string",
              "name": "testCategory",
              "type": "string"
            },
            {
              "internalType": "string",
              "name": "resultsIpfsHash",
              "type": "string"
            },
            {
              "internalType": "string",
              "name": "reviewingPhysician",
              "type": "string"
            },
            {
              "internalType": "string",
              "name": "interpretation",
              "type": "string"
            }
          ],
          "internalType": "struct LaboratoryHistoryRecords.LaboratoryRecord",
          "name": "",
          "type": "tuple"
        }
      ],
      "stateMutability": "view",
      "type": "function",
      "constant": true
    }
  ],
  "bytecode": "0x60806040526000600355600060085534801561001a57600080fd5b506126038061002a6000396000f3fe608060405234801561001057600080fd5b50600436106100f55760003560e01c8063a26f560011610097578063cb790e1d11610066578063cb790e1d1461029f578063f093cf80146102cf578063f574c07414610303578063fe45a81d14610321576100f5565b8063a26f5600146101f3578063bdf6c67314610223578063c007141514610253578063c82412b91461026f576100f5565b8063526b44ac116100d3578063526b44ac146101505780636933e4141461016c5780637b3bde201461018a5780639884bdd8146101c3576100f5565b806306677487146100fa57806321a1500a14610116578063350dadb714610132575b600080fd5b610114600480360381019061010f9190611bf3565b61033f565b005b610130600480360381019061012b9190611db5565b6105ea565b005b61013a6106d4565b604051610147919061231a565b60405180910390f35b61016a60048036038101906101659190611db5565b6106da565b005b6101746108e4565b6040516101819190612213565b60405180910390f35b6101a4600480360381019061019f9190611bca565b610972565b6040516101ba9a9998979695949392919061213f565b60405180910390f35b6101dd60048036038101906101d89190611d79565b610e46565b6040516101ea9190612124565b60405180910390f35b61020d60048036038101906102089190611bca565b610e94565b60405161021a91906122f8565b60405180910390f35b61023d60048036038101906102389190611bca565b6114f3565b60405161024a9190612235565b60405180910390f35b61026d60048036038101906102689190611bf3565b611513565b005b61028960048036038101906102849190611e4c565b61179a565b6040516102969190612124565b60405180910390f35b6102b960048036038101906102b49190611e4c565b6117d9565b6040516102c69190612124565b60405180910390f35b6102e960048036038101906102e49190611bca565b611818565b6040516102fa959493929190612250565b60405180910390f35b61030b611a06565b604051610318919061231a565b60405180910390f35b610329611a0c565b604051610336919061231a565b60405180910390f35b600260003373ffffffffffffffffffffffffffffffffffffffff1673ffffffffffffffffffffffffffffffffffffffff16815260200190815260200160002060009054906101000a900460ff1661039557600080fd5b6000600660008b73ffffffffffffffffffffffffffffffffffffffff1673ffffffffffffffffffffffffffffffffffffffff1681526020019081526020016000209050338160010160006101000a81548173ffffffffffffffffffffffffffffffffffffffff021916908373ffffffffffffffffffffffffffffffffffffffff160217905550898160000160006101000a81548173ffffffffffffffffffffffffffffffffffffffff021916908373ffffffffffffffffffffffffffffffffffffffff16021790555088816002019080519060200190610476929190611a16565b508781600301908051906020019061048f929190611a16565b50868160040190805190602001906104a8929190611a16565b50858160050190805190602001906104c1929190611a16565b50848160060190805190602001906104da929190611a16565b50838160070190805190602001906104f3929190611a16565b508281600801908051906020019061050c929190611a16565b5081816009019080519060200190610525929190611a16565b50600760008b73ffffffffffffffffffffffffffffffffffffffff1673ffffffffffffffffffffffffffffffffffffffff168152602001908152602001600020339080600181540180825580915050600190039060005260206000200160009091909190916101000a81548173ffffffffffffffffffffffffffffffffffffffff021916908373ffffffffffffffffffffffffffffffffffffffff160217905550600860008154809291906105d9906124b8565b919050555050505050505050505050565b600260003373ffffffffffffffffffffffffffffffffffffffff1673ffffffffffffffffffffffffffffffffffffffff16815260200190815260200160002060009054906101000a900460ff1661064057600080fd5b6000600160003373ffffffffffffffffffffffffffffffffffffffff1673ffffffffffffffffffffffffffffffffffffffff16815260200190815260200160002090508381600001908051906020019061069b929190611a16565b50828160010190805190602001906106b4929190611a16565b50818160020190805190602001906106cd929190611a16565b5050505050565b60035481565b600260003373ffffffffffffffffffffffffffffffffffffffff1673ffffffffffffffffffffffffffffffffffffffff16815260200190815260200160002060009054906101000a900460ff161561073157600080fd5b6000600160003373ffffffffffffffffffffffffffffffffffffffff1673ffffffffffffffffffffffffffffffffffffffff16815260200190815260200160002090508381600001908051906020019061078c929190611a16565b50828160010190805190602001906107a5929190611a16565b50818160020190805190602001906107be929190611a16565b50338160030160006101000a81548173ffffffffffffffffffffffffffffffffffffffff021916908373ffffffffffffffffffffffffffffffffffffffff1602179055504281600401819055506000339080600181540180825580915050600190039060005260206000200160009091909190916101000a81548173ffffffffffffffffffffffffffffffffffffffff021916908373ffffffffffffffffffffffffffffffffffffffff1602179055506001600260003373ffffffffffffffffffffffffffffffffffffffff1673ffffffffffffffffffffffffffffffffffffffff16815260200190815260200160002060006101000a81548160ff021916908315150217905550600360008154809291906108d9906124b8565b919050555050505050565b6060600080548060200260200160405190810160405280929190818152602001828054801561096857602002820191906000526020600020905b8160009054906101000a900473ffffffffffffffffffffffffffffffffffffffff1673ffffffffffffffffffffffffffffffffffffffff168152602001906001019080831161091e575b5050505050905090565b60066020528060005260406000206000915090508060000160009054906101000a900473ffffffffffffffffffffffffffffffffffffffff16908060010160009054906101000a900473ffffffffffffffffffffffffffffffffffffffff16908060020180546109e190612486565b80601f0160208091040260200160405190810160405280929190818152602001828054610a0d90612486565b8015610a5a5780601f10610a2f57610100808354040283529160200191610a5a565b820191906000526020600020905b815481529060010190602001808311610a3d57829003601f168201915b505050505090806003018054610a6f90612486565b80601f0160208091040260200160405190810160405280929190818152602001828054610a9b90612486565b8015610ae85780601f10610abd57610100808354040283529160200191610ae8565b820191906000526020600020905b815481529060010190602001808311610acb57829003601f168201915b505050505090806004018054610afd90612486565b80601f0160208091040260200160405190810160405280929190818152602001828054610b2990612486565b8015610b765780601f10610b4b57610100808354040283529160200191610b76565b820191906000526020600020905b815481529060010190602001808311610b5957829003601f168201915b505050505090806005018054610b8b90612486565b80601f0160208091040260200160405190810160405280929190818152602001828054610bb790612486565b8015610c045780601f10610bd957610100808354040283529160200191610c04565b820191906000526020600020905b815481529060010190602001808311610be757829003601f168201915b505050505090806006018054610c1990612486565b80601f0160208091040260200160405190810160405280929190818152602001828054610c4590612486565b8015610c925780601f10610c6757610100808354040283529160200191610c92565b820191906000526020600020905b815481529060010190602001808311610c7557829003601f168201915b505050505090806007018054610ca790612486565b80601f0160208091040260200160405190810160405280929190818152602001828054610cd390612486565b8015610d205780601f10610cf557610100808354040283529160200191610d20565b820191906000526020600020905b815481529060010190602001808311610d0357829003601f168201915b505050505090806008018054610d3590612486565b80601f0160208091040260200160405190810160405280929190818152602001828054610d6190612486565b8015610dae5780601f10610d8357610100808354040283529160200191610dae565b820191906000526020600020905b815481529060010190602001808311610d9157829003601f168201915b505050505090806009018054610dc390612486565b80601f0160208091040260200160405190810160405280929190818152602001828054610def90612486565b8015610e3c5780601f10610e1157610100808354040283529160200191610e3c565b820191906000526020600020905b815481529060010190602001808311610e1f57829003601f168201915b505050505090508a565b60076020528160005260406000208181548110610e6257600080fd5b906000526020600020016000915091509054906101000a900473ffffffffffffffffffffffffffffffffffffffff1681565b610e9c611a9c565b600460008373ffffffffffffffffffffffffffffffffffffffff1673ffffffffffffffffffffffffffffffffffffffff16815260200190815260200160002060003373ffffffffffffffffffffffffffffffffffffffff1673ffffffffffffffffffffffffffffffffffffffff16815260200190815260200160002060009054906101000a900460ff16610f65576040517f08c379a0000000000000000000000000000000000000000000000000000000008152600401610f5c906122d8565b60405180910390fd5b600660008373ffffffffffffffffffffffffffffffffffffffff1673ffffffffffffffffffffffffffffffffffffffff168152602001908152602001600020604051806101400160405290816000820160009054906101000a900473ffffffffffffffffffffffffffffffffffffffff1673ffffffffffffffffffffffffffffffffffffffff1673ffffffffffffffffffffffffffffffffffffffff1681526020016001820160009054906101000a900473ffffffffffffffffffffffffffffffffffffffff1673ffffffffffffffffffffffffffffffffffffffff1673ffffffffffffffffffffffffffffffffffffffff16815260200160028201805461106c90612486565b80601f016020809104026020016040519081016040528092919081815260200182805461109890612486565b80156110e55780601f106110ba576101008083540402835291602001916110e5565b820191906000526020600020905b8154815290600101906020018083116110c857829003601f168201915b505050505081526020016003820180546110fe90612486565b80601f016020809104026020016040519081016040528092919081815260200182805461112a90612486565b80156111775780601f1061114c57610100808354040283529160200191611177565b820191906000526020600020905b81548152906001019060200180831161115a57829003601f168201915b5050505050815260200160048201805461119090612486565b80601f01602080910402602001604051908101604052809291908181526020018280546111bc90612486565b80156112095780601f106111de57610100808354040283529160200191611209565b820191906000526020600020905b8154815290600101906020018083116111ec57829003601f168201915b5050505050815260200160058201805461122290612486565b80601f016020809104026020016040519081016040528092919081815260200182805461124e90612486565b801561129b5780601f106112705761010080835404028352916020019161129b565b820191906000526020600020905b81548152906001019060200180831161127e57829003601f168201915b505050505081526020016006820180546112b490612486565b80601f01602080910402602001604051908101604052809291908181526020018280546112e090612486565b801561132d5780601f106113025761010080835404028352916020019161132d565b820191906000526020600020905b81548152906001019060200180831161131057829003601f168201915b5050505050815260200160078201805461134690612486565b80601f016020809104026020016040519081016040528092919081815260200182805461137290612486565b80156113bf5780601f10611394576101008083540402835291602001916113bf565b820191906000526020600020905b8154815290600101906020018083116113a257829003601f168201915b505050505081526020016008820180546113d890612486565b80601f016020809104026020016040519081016040528092919081815260200182805461140490612486565b80156114515780601f1061142657610100808354040283529160200191611451565b820191906000526020600020905b81548152906001019060200180831161143457829003601f168201915b5050505050815260200160098201805461146a90612486565b80601f016020809104026020016040519081016040528092919081815260200182805461149690612486565b80156114e35780601f106114b8576101008083540402835291602001916114e3565b820191906000526020600020905b8154815290600101906020018083116114c657829003601f168201915b5050505050815250509050919050565b60026020528060005260406000206000915054906101000a900460ff1681565b600260003373ffffffffffffffffffffffffffffffffffffffff1673ffffffffffffffffffffffffffffffffffffffff16815260200190815260200160002060009054906101000a900460ff1661156957600080fd5b6000600660008b73ffffffffffffffffffffffffffffffffffffffff1673ffffffffffffffffffffffffffffffffffffffff1681526020019081526020016000209050600073ffffffffffffffffffffffffffffffffffffffff168160010160009054906101000a900473ffffffffffffffffffffffffffffffffffffffff1673ffffffffffffffffffffffffffffffffffffffff161415611640576040517f08c379a0000000000000000000000000000000000000000000000000000000008152600401611637906122b8565b60405180910390fd5b338160010160006101000a81548173ffffffffffffffffffffffffffffffffffffffff021916908373ffffffffffffffffffffffffffffffffffffffff160217905550898160000160006101000a81548173ffffffffffffffffffffffffffffffffffffffff021916908373ffffffffffffffffffffffffffffffffffffffff160217905550888160020190805190602001906116de929190611a16565b50878160030190805190602001906116f7929190611a16565b5086816004019080519060200190611710929190611a16565b5085816005019080519060200190611729929190611a16565b5084816006019080519060200190611742929190611a16565b508381600701908051906020019061175b929190611a16565b5082816008019080519060200190611774929190611a16565b508181600901908051906020019061178d929190611a16565b5050505050505050505050565b600081815481106117aa57600080fd5b906000526020600020016000915054906101000a900473ffffffffffffffffffffffffffffffffffffffff1681565b600581815481106117e957600080fd5b906000526020600020016000915054906101000a900473ffffffffffffffffffffffffffffffffffffffff1681565b600160205280600052604060002060009150905080600001805461183b90612486565b80601f016020809104026020016040519081016040528092919081815260200182805461186790612486565b80156118b45780601f10611889576101008083540402835291602001916118b4565b820191906000526020600020905b81548152906001019060200180831161189757829003601f168201915b5050505050908060010180546118c990612486565b80601f01602080910402602001604051908101604052809291908181526020018280546118f590612486565b80156119425780601f1061191757610100808354040283529160200191611942565b820191906000526020600020905b81548152906001019060200180831161192557829003601f168201915b50505050509080600201805461195790612486565b80601f016020809104026020016040519081016040528092919081815260200182805461198390612486565b80156119d05780601f106119a5576101008083540402835291602001916119d0565b820191906000526020600020905b8154815290600101906020018083116119b357829003601f168201915b5050505050908060030160009054906101000a900473ffffffffffffffffffffffffffffffffffffffff16908060040154905085565b60085481565b6000600354905090565b828054611a2290612486565b90600052602060002090601f016020900481019282611a445760008555611a8b565b82601f10611a5d57805160ff1916838001178555611a8b565b82800160010185558215611a8b579182015b82811115611a8a578251825591602001919060010190611a6f565b5b509050611a989190611b1b565b5090565b604051806101400160405280600073ffffffffffffffffffffffffffffffffffffffff168152602001600073ffffffffffffffffffffffffffffffffffffffff16815260200160608152602001606081526020016060815260200160608152602001606081526020016060815260200160608152602001606081525090565b5b80821115611b34576000816000905550600101611b1c565b5090565b6000611b4b611b4684612366565b612335565b905082815260208101848484011115611b6357600080fd5b611b6e848285612444565b509392505050565b600081359050611b858161259f565b92915050565b600082601f830112611b9c57600080fd5b8135611bac848260208601611b38565b91505092915050565b600081359050611bc4816125b6565b92915050565b600060208284031215611bdc57600080fd5b6000611bea84828501611b76565b91505092915050565b60008060008060008060008060006101208a8c031215611c1257600080fd5b6000611c208c828d01611b76565b99505060208a013567ffffffffffffffff811115611c3d57600080fd5b611c498c828d01611b8b565b98505060408a013567ffffffffffffffff811115611c6657600080fd5b611c728c828d01611b8b565b97505060608a013567ffffffffffffffff811115611c8f57600080fd5b611c9b8c828d01611b8b565b96505060808a013567ffffffffffffffff811115611cb857600080fd5b611cc48c828d01611b8b565b95505060a08a013567ffffffffffffffff811115611ce157600080fd5b611ced8c828d01611b8b565b94505060c08a013567ffffffffffffffff811115611d0a57600080fd5b611d168c828d01611b8b565b93505060e08a013567ffffffffffffffff811115611d3357600080fd5b611d3f8c828d01611b8b565b9250506101008a013567ffffffffffffffff811115611d5d57600080fd5b611d698c828d01611b8b565b9150509295985092959850929598565b60008060408385031215611d8c57600080fd5b6000611d9a85828601611b76565b9250506020611dab85828601611bb5565b9150509250929050565b600080600060608486031215611dca57600080fd5b600084013567ffffffffffffffff811115611de457600080fd5b611df086828701611b8b565b935050602084013567ffffffffffffffff811115611e0d57600080fd5b611e1986828701611b8b565b925050604084013567ffffffffffffffff811115611e3657600080fd5b611e4286828701611b8b565b9150509250925092565b600060208284031215611e5e57600080fd5b6000611e6c84828501611bb5565b91505092915050565b6000611e818383611e8d565b60208301905092915050565b611e96816123fc565b82525050565b611ea5816123fc565b82525050565b6000611eb6826123a6565b611ec081856123c9565b9350611ecb83612396565b8060005b83811015611efc578151611ee38882611e75565b9750611eee836123bc565b925050600181019050611ecf565b5085935050505092915050565b611f128161240e565b82525050565b6000611f23826123b1565b611f2d81856123da565b9350611f3d818560208601612453565b611f468161258e565b840191505092915050565b6000611f5c826123b1565b611f6681856123eb565b9350611f76818560208601612453565b611f7f8161258e565b840191505092915050565b6000611f976015836123eb565b91507f5265636f726420646f6573206e6f7420657869737400000000000000000000006000830152602082019050919050565b6000611fd7600e836123eb565b91507f4163636573732044656e6965642e0000000000000000000000000000000000006000830152602082019050919050565b6000610140830160008301516120236000860182611e8d565b5060208301516120366020860182611e8d565b506040830151848203604086015261204e8282611f18565b915050606083015184820360608601526120688282611f18565b915050608083015184820360808601526120828282611f18565b91505060a083015184820360a086015261209c8282611f18565b91505060c083015184820360c08601526120b68282611f18565b91505060e083015184820360e08601526120d08282611f18565b9150506101008301518482036101008601526120ec8282611f18565b9150506101208301518482036101208601526121088282611f18565b9150508091505092915050565b61211e8161243a565b82525050565b60006020820190506121396000830184611e9c565b92915050565b600061014082019050612155600083018d611e9c565b612162602083018c611e9c565b8181036040830152612174818b611f51565b90508181036060830152612188818a611f51565b9050818103608083015261219c8189611f51565b905081810360a08301526121b08188611f51565b905081810360c08301526121c48187611f51565b905081810360e08301526121d88186611f51565b90508181036101008301526121ed8185611f51565b90508181036101208301526122028184611f51565b90509b9a5050505050505050505050565b6000602082019050818103600083015261222d8184611eab565b905092915050565b600060208201905061224a6000830184611f09565b92915050565b600060a082019050818103600083015261226a8188611f51565b9050818103602083015261227e8187611f51565b905081810360408301526122928186611f51565b90506122a16060830185611e9c565b6122ae6080830184612115565b9695505050505050565b600060208201905081810360008301526122d181611f8a565b9050919050565b600060208201905081810360008301526122f181611fca565b9050919050565b60006020820190508181036000830152612312818461200a565b905092915050565b600060208201905061232f6000830184612115565b92915050565b6000604051905081810181811067ffffffffffffffff8211171561235c5761235b61255f565b5b8060405250919050565b600067ffffffffffffffff8211156123815761238061255f565b5b601f19601f8301169050602081019050919050565b6000819050602082019050919050565b600081519050919050565b600081519050919050565b6000602082019050919050565b600082825260208201905092915050565b600082825260208201905092915050565b600082825260208201905092915050565b60006124078261241a565b9050919050565b60008115159050919050565b600073ffffffffffffffffffffffffffffffffffffffff82169050919050565b6000819050919050565b82818337600083830152505050565b60005b83811015612471578082015181840152602081019050612456565b83811115612480576000848401525b50505050565b6000600282049050600182168061249e57607f821691505b602082108114156124b2576124b1612530565b5b50919050565b60006124c38261243a565b91507fffffffffffffffffffffffffffffffffffffffffffffffffffffffffffffffff8214156124f6576124f5612501565b5b600182019050919050565b7f4e487b7100000000000000000000000000000000000000000000000000000000600052601160045260246000fd5b7f4e487b7100000000000000000000000000000000000000000000000000000000600052602260045260246000fd5b7f4e487b7100000000000000000000000000000000000000000000000000000000600052604160045260246000fd5b6000601f19601f8301169050919050565b6125a8816123fc565b81146125b357600080fd5b50565b6125bf8161243a565b81146125ca57600080fd5b5056fea264697066735822122064b188dcc8331e454e8c2ecfc8191de64ece1b3568bcb12b0a1e87cfec0c1fa764736f6c63430008000033",
  "immutableReferences": {},
  "source": "// SPDX-License-Identifier: MIT\r\npragma solidity ^0.8.0;\r\n\r\nimport \"./Hospital.sol\";\r\nimport \"./PermissionLibrary.sol\";\r\n\r\ncontract LaboratoryHistoryRecords is HospitalRecords {\r\n\r\n    using PermissionLibrary for mapping(address => mapping(address => bool));\r\n    mapping(address => mapping(address => bool)) isApprovedToViewLaboratoryHistory;\r\n\r\n    struct LaboratoryRecord {\r\n        address owner; //Patient's address\r\n        address hospitalAddr;\r\n        string hospital;\r\n        string testType; //kung ano type ng test (blood test, urinalysis, etc)\r\n        string dateOfTest;\r\n        string orderingPhysician;\r\n        string testCategory; //kung ano category niya (ex. CBC, CTS, etc)\r\n        string resultsIpfsHash;  // Results (Upload file/IPFS hash)\r\n        string reviewingPhysician;\r\n        string interpretation;\r\n    }\r\n\r\n    address[] public laboratoryList;\r\n    mapping(address => LaboratoryRecord) public laboratoryRecords;\r\n    mapping(address => address[]) public patientLaboratoryRecords;\r\n    uint256 public laboratoryHistoryCount = 0;\r\n\r\n    function addLaboratoryHistory(\r\n        address _patientAddr,\r\n        string memory _hospital,\r\n        string memory _testType,\r\n        string memory _dateOfTest,\r\n        string memory _orderingPhysician,\r\n        string memory _testCategory,\r\n        string memory _resultsIpfsHash,\r\n        string memory _reviewingPhysician,\r\n        string memory _interpretation\r\n    ) public{\r\n        require(isHospital[msg.sender]);\r\n\r\n        LaboratoryRecord storage record = laboratoryRecords[_patientAddr];\r\n\r\n        record.hospitalAddr = msg.sender;\r\n        record.owner = _patientAddr;\r\n        record.hospital = _hospital;\r\n        record.testType = _testType;\r\n        record.dateOfTest = _dateOfTest;\r\n        record.orderingPhysician = _orderingPhysician;\r\n        record.testCategory = _testCategory;\r\n        record.resultsIpfsHash =  _resultsIpfsHash;\r\n        record.reviewingPhysician = _reviewingPhysician;\r\n        record.interpretation = _interpretation;\r\n\r\n        patientLaboratoryRecords[_patientAddr].push(msg.sender);\r\n        laboratoryHistoryCount++;\r\n    }\r\n\r\n    function editLaboratoryHistory(\r\n        address _patientAddr,\r\n        string memory _hospital,\r\n        string memory _testType,\r\n        string memory _dateOfTest,\r\n        string memory _orderingPhysician,\r\n        string memory _testCategory,\r\n        string memory _resultsIpfsHash,\r\n        string memory _reviewingPhysician,\r\n        string memory _interpretation\r\n    ) public {\r\n        require(isHospital[msg.sender]);\r\n\r\n        LaboratoryRecord storage record = laboratoryRecords[_patientAddr];\r\n\r\n         // Check if the record exists and belongs to the specified patient\r\n        require(record.hospitalAddr != address(0), \"Record does not exist\");\r\n\r\n        record.hospitalAddr = msg.sender;\r\n        record.owner = _patientAddr;\r\n        record.hospital = _hospital;\r\n        record.testType = _testType;\r\n        record.dateOfTest = _dateOfTest;\r\n        record.orderingPhysician = _orderingPhysician;\r\n        record.testCategory = _testCategory;\r\n        record.resultsIpfsHash =  _resultsIpfsHash;\r\n        record.reviewingPhysician = _reviewingPhysician;\r\n        record.interpretation = _interpretation;\r\n    }\r\n\r\n    // Function to retrieve medical history for a specific patient if meron permission\r\n    function getLaboratoryHistory(address patientAddr) public view returns (LaboratoryHistoryRecords.LaboratoryRecord memory) {\r\n        require(isApprovedToViewLaboratoryHistory[patientAddr][msg.sender], \"Access Denied.\"); //checker kung may permission\r\n        return LaboratoryHistoryRecords.laboratoryRecords[patientAddr];\r\n    }\r\n}   \r\n\r\n\r\n        ",
  "sourcePath": "C:\\Users\\Abby\\Desktop\\APPCON 2023\\MediVerse-Web3-Dapp\\contracts\\LaboratoryHistory.sol",
  "compiler": {
    "name": "solc",
    "version": "0.8.0+commit.c7dfd78e.Emscripten.clang"
  },
  "schemaVersion": "3.4.16",
  "updatedAt": "2024-02-19T16:06:39.916Z",
  "networkType": "ethereum",
  "devdoc": {
    "kind": "dev",
    "methods": {},
    "version": 1
  },
  "userdoc": {
    "kind": "user",
    "methods": {},
    "version": 1
  }
}