{
  "contractName": "LaboratoryHistoryRecords",
  "abi": [
    {
      "inputs": [
        {
          "internalType": "string",
          "name": "",
          "type": "string"
        }
      ],
      "name": "hospitalToPatient",
      "outputs": [
        {
          "internalType": "address",
          "name": "",
          "type": "address"
        }
      ],
      "stateMutability": "view",
      "type": "function",
      "constant": true
    },
    {
      "inputs": [
        {
          "internalType": "string",
          "name": "",
          "type": "string"
        }
      ],
      "name": "laboratoryRecords",
      "outputs": [
        {
          "internalType": "address",
          "name": "hospitalAddr",
          "type": "address"
        },
        {
          "internalType": "string",
          "name": "patientID",
          "type": "string"
        },
        {
          "internalType": "string",
          "name": "recordID",
          "type": "string"
        },
        {
          "internalType": "string",
          "name": "hospital",
          "type": "string"
        },
        {
          "internalType": "string",
          "name": "testType",
          "type": "string"
        },
        {
          "internalType": "string",
          "name": "dateOfTest",
          "type": "string"
        },
        {
          "internalType": "string",
          "name": "orderingPhysician",
          "type": "string"
        },
        {
          "internalType": "string",
          "name": "testCategory",
          "type": "string"
        },
        {
          "internalType": "string",
          "name": "resultsIpfsHash",
          "type": "string"
        },
        {
          "internalType": "string",
          "name": "reviewingPhysician",
          "type": "string"
        },
        {
          "internalType": "string",
          "name": "interpretation",
          "type": "string"
        }
      ],
      "stateMutability": "view",
      "type": "function",
      "constant": true
    },
    {
      "inputs": [
        {
          "internalType": "string",
          "name": "",
          "type": "string"
        },
        {
          "internalType": "uint256",
          "name": "",
          "type": "uint256"
        }
      ],
      "name": "patientLaboratoryRecords",
      "outputs": [
        {
          "internalType": "string",
          "name": "",
          "type": "string"
        }
      ],
      "stateMutability": "view",
      "type": "function",
      "constant": true
    },
    {
      "inputs": [
        {
          "internalType": "string",
          "name": "",
          "type": "string"
        },
        {
          "internalType": "address",
          "name": "",
          "type": "address"
        }
      ],
      "name": "patientPermissions",
      "outputs": [
        {
          "internalType": "bool",
          "name": "",
          "type": "bool"
        }
      ],
      "stateMutability": "view",
      "type": "function",
      "constant": true
    },
    {
      "inputs": [
        {
          "internalType": "string",
          "name": "_patientID",
          "type": "string"
        },
        {
          "internalType": "string",
          "name": "_recordID",
          "type": "string"
        },
        {
          "internalType": "string",
          "name": "_hospital",
          "type": "string"
        },
        {
          "internalType": "string",
          "name": "_testType",
          "type": "string"
        },
        {
          "internalType": "string",
          "name": "_dateOfTest",
          "type": "string"
        },
        {
          "internalType": "string",
          "name": "_orderingPhysician",
          "type": "string"
        },
        {
          "internalType": "string",
          "name": "_testCategory",
          "type": "string"
        },
        {
          "internalType": "string",
          "name": "_resultsIpfsHash",
          "type": "string"
        },
        {
          "internalType": "string",
          "name": "_reviewingPhysician",
          "type": "string"
        },
        {
          "internalType": "string",
          "name": "_interpretation",
          "type": "string"
        }
      ],
      "name": "addLaboratoryHistory",
      "outputs": [],
      "stateMutability": "nonpayable",
      "type": "function"
    },
    {
      "inputs": [
        {
          "internalType": "string",
          "name": "_recordID",
          "type": "string"
        },
        {
          "internalType": "string",
          "name": "_testType",
          "type": "string"
        },
        {
          "internalType": "string",
          "name": "_dateOfTest",
          "type": "string"
        },
        {
          "internalType": "string",
          "name": "_orderingPhysician",
          "type": "string"
        },
        {
          "internalType": "string",
          "name": "_testCategory",
          "type": "string"
        },
        {
          "internalType": "string",
          "name": "_resultsIpfsHash",
          "type": "string"
        },
        {
          "internalType": "string",
          "name": "_reviewingPhysician",
          "type": "string"
        },
        {
          "internalType": "string",
          "name": "_interpretation",
          "type": "string"
        }
      ],
      "name": "editLaboratoryHistory",
      "outputs": [],
      "stateMutability": "nonpayable",
      "type": "function"
    },
    {
      "inputs": [
        {
          "internalType": "string",
          "name": "_patientID",
          "type": "string"
        }
      ],
      "name": "getAllLaboratoryHistoryRecords",
      "outputs": [
        {
          "components": [
            {
              "internalType": "address",
              "name": "hospitalAddr",
              "type": "address"
            },
            {
              "internalType": "string",
              "name": "patientID",
              "type": "string"
            },
            {
              "internalType": "string",
              "name": "recordID",
              "type": "string"
            },
            {
              "internalType": "string",
              "name": "hospital",
              "type": "string"
            },
            {
              "internalType": "string",
              "name": "testType",
              "type": "string"
            },
            {
              "internalType": "string",
              "name": "dateOfTest",
              "type": "string"
            },
            {
              "internalType": "string",
              "name": "orderingPhysician",
              "type": "string"
            },
            {
              "internalType": "string",
              "name": "testCategory",
              "type": "string"
            },
            {
              "internalType": "string",
              "name": "resultsIpfsHash",
              "type": "string"
            },
            {
              "internalType": "string",
              "name": "reviewingPhysician",
              "type": "string"
            },
            {
              "internalType": "string",
              "name": "interpretation",
              "type": "string"
            }
          ],
          "internalType": "struct LaboratoryHistoryRecords.LaboratoryRecord[]",
          "name": "",
          "type": "tuple[]"
        }
      ],
      "stateMutability": "view",
      "type": "function",
      "constant": true
    },
    {
      "inputs": [
        {
          "internalType": "string",
          "name": "_patientID",
          "type": "string"
        },
        {
          "internalType": "string",
          "name": "_testTypeKeyword",
          "type": "string"
        },
        {
          "internalType": "string",
          "name": "_testCategoryKeyword",
          "type": "string"
        }
      ],
      "name": "searchLaboratoryRecords",
      "outputs": [
        {
          "components": [
            {
              "internalType": "address",
              "name": "hospitalAddr",
              "type": "address"
            },
            {
              "internalType": "string",
              "name": "patientID",
              "type": "string"
            },
            {
              "internalType": "string",
              "name": "recordID",
              "type": "string"
            },
            {
              "internalType": "string",
              "name": "hospital",
              "type": "string"
            },
            {
              "internalType": "string",
              "name": "testType",
              "type": "string"
            },
            {
              "internalType": "string",
              "name": "dateOfTest",
              "type": "string"
            },
            {
              "internalType": "string",
              "name": "orderingPhysician",
              "type": "string"
            },
            {
              "internalType": "string",
              "name": "testCategory",
              "type": "string"
            },
            {
              "internalType": "string",
              "name": "resultsIpfsHash",
              "type": "string"
            },
            {
              "internalType": "string",
              "name": "reviewingPhysician",
              "type": "string"
            },
            {
              "internalType": "string",
              "name": "interpretation",
              "type": "string"
            }
          ],
          "internalType": "struct LaboratoryHistoryRecords.LaboratoryRecord[]",
          "name": "",
          "type": "tuple[]"
        }
      ],
      "stateMutability": "view",
      "type": "function",
      "constant": true
    }
  ],
  "bytecode": "0x608060405234801561001057600080fd5b50612de8806100206000396000f3fe608060405234801561001057600080fd5b50600436106100885760003560e01c8063aeea77241161005b578063aeea772414610157578063af99f51d14610187578063c27c87b4146101a3578063cae2f220146101d357610088565b806327a460e41461008d5780632ad8649a146100bd578063492b07e7146100ed57806367709dc914610127575b600080fd5b6100a760048036038101906100a291906120be565b6101ef565b6040516100b49190612a1c565b60405180910390f35b6100d760048036038101906100d29190612112565b610234565b6040516100e491906129fa565b60405180910390f35b6101076004803603810190610102919061207d565b610bb1565b60405161011e9b9a99989796959493929190612909565b60405180910390f35b610141600480360381019061013c91906124e6565b611191565b60405161014e9190612a37565b60405180910390f35b610171600480360381019061016c919061207d565b611260565b60405161017e91906128ee565b60405180910390f35b6101a1600480360381019061019c919061231b565b6112a9565b005b6101bd60048036038101906101b8919061207d565b61146c565b6040516101ca91906129fa565b60405180910390f35b6101ed60048036038101906101e891906121a9565b611d69565b005b6003828051602081018201805184825260208301602085012081835280955050505050506020528060005260406000206000915091509054906101000a900460ff1681565b606060038460405161024691906128d7565b908152602001604051809103902060003373ffffffffffffffffffffffffffffffffffffffff1673ffffffffffffffffffffffffffffffffffffffff16815260200190815260200160002060009054906101000a900460ff166102de576040517f08c379a00000000000000000000000000000000000000000000000000000000081526004016102d590612a59565b60405180910390fd5b60006001856040516102f091906128d7565b9081526020016040518091039020805480602002602001604051908101604052809291908181526020016000905b828210156103ca57838290600052602060002001805461033d90612c6b565b80601f016020809104026020016040519081016040528092919081815260200182805461036990612c6b565b80156103b65780601f1061038b576101008083540402835291602001916103b6565b820191906000526020600020905b81548152906001019060200180831161039957829003601f168201915b50505050508152602001906001019061031e565b50505050905060606000805b8351811015610ba05760008085838151811061041b577f4e487b7100000000000000000000000000000000000000000000000000000000600052603260045260246000fd5b602002602001015160405161043091906128d7565b9081526020016040518091039020905087805190602001208160040160405161045991906128c0565b604051809103902014801561048c575086805190602001208160070160405161048291906128c0565b6040518091039020145b15610b8c57828451141561052457600184516104a89190612b8b565b67ffffffffffffffff8111156104e7577f4e487b7100000000000000000000000000000000000000000000000000000000600052604160045260246000fd5b60405190808252806020026020018201604052801561052057816020015b61050d611ed8565b8152602001906001900390816105055790505b5093505b80604051806101600160405290816000820160009054906101000a900473ffffffffffffffffffffffffffffffffffffffff1673ffffffffffffffffffffffffffffffffffffffff1673ffffffffffffffffffffffffffffffffffffffff16815260200160018201805461059790612c6b565b80601f01602080910402602001604051908101604052809291908181526020018280546105c390612c6b565b80156106105780601f106105e557610100808354040283529160200191610610565b820191906000526020600020905b8154815290600101906020018083116105f357829003601f168201915b5050505050815260200160028201805461062990612c6b565b80601f016020809104026020016040519081016040528092919081815260200182805461065590612c6b565b80156106a25780601f10610677576101008083540402835291602001916106a2565b820191906000526020600020905b81548152906001019060200180831161068557829003601f168201915b505050505081526020016003820180546106bb90612c6b565b80601f01602080910402602001604051908101604052809291908181526020018280546106e790612c6b565b80156107345780601f1061070957610100808354040283529160200191610734565b820191906000526020600020905b81548152906001019060200180831161071757829003601f168201915b5050505050815260200160048201805461074d90612c6b565b80601f016020809104026020016040519081016040528092919081815260200182805461077990612c6b565b80156107c65780601f1061079b576101008083540402835291602001916107c6565b820191906000526020600020905b8154815290600101906020018083116107a957829003601f168201915b505050505081526020016005820180546107df90612c6b565b80601f016020809104026020016040519081016040528092919081815260200182805461080b90612c6b565b80156108585780601f1061082d57610100808354040283529160200191610858565b820191906000526020600020905b81548152906001019060200180831161083b57829003601f168201915b5050505050815260200160068201805461087190612c6b565b80601f016020809104026020016040519081016040528092919081815260200182805461089d90612c6b565b80156108ea5780601f106108bf576101008083540402835291602001916108ea565b820191906000526020600020905b8154815290600101906020018083116108cd57829003601f168201915b5050505050815260200160078201805461090390612c6b565b80601f016020809104026020016040519081016040528092919081815260200182805461092f90612c6b565b801561097c5780601f106109515761010080835404028352916020019161097c565b820191906000526020600020905b81548152906001019060200180831161095f57829003601f168201915b5050505050815260200160088201805461099590612c6b565b80601f01602080910402602001604051908101604052809291908181526020018280546109c190612c6b565b8015610a0e5780601f106109e357610100808354040283529160200191610a0e565b820191906000526020600020905b8154815290600101906020018083116109f157829003601f168201915b50505050508152602001600982018054610a2790612c6b565b80601f0160208091040260200160405190810160405280929190818152602001828054610a5390612c6b565b8015610aa05780601f10610a7557610100808354040283529160200191610aa0565b820191906000526020600020905b815481529060010190602001808311610a8357829003601f168201915b50505050508152602001600a82018054610ab990612c6b565b80601f0160208091040260200160405190810160405280929190818152602001828054610ae590612c6b565b8015610b325780601f10610b0757610100808354040283529160200191610b32565b820191906000526020600020905b815481529060010190602001808311610b1557829003601f168201915b505050505081525050848480610b4790612c9d565b955081518110610b80577f4e487b7100000000000000000000000000000000000000000000000000000000600052603260045260246000fd5b60200260200101819052505b508080610b9890612c9d565b9150506103d6565b508082528193505050509392505050565b6000818051602081018201805184825260208301602085012081835280955050505050506000915090508060000160009054906101000a900473ffffffffffffffffffffffffffffffffffffffff1690806001018054610c1090612c6b565b80601f0160208091040260200160405190810160405280929190818152602001828054610c3c90612c6b565b8015610c895780601f10610c5e57610100808354040283529160200191610c89565b820191906000526020600020905b815481529060010190602001808311610c6c57829003601f168201915b505050505090806002018054610c9e90612c6b565b80601f0160208091040260200160405190810160405280929190818152602001828054610cca90612c6b565b8015610d175780601f10610cec57610100808354040283529160200191610d17565b820191906000526020600020905b815481529060010190602001808311610cfa57829003601f168201915b505050505090806003018054610d2c90612c6b565b80601f0160208091040260200160405190810160405280929190818152602001828054610d5890612c6b565b8015610da55780601f10610d7a57610100808354040283529160200191610da5565b820191906000526020600020905b815481529060010190602001808311610d8857829003601f168201915b505050505090806004018054610dba90612c6b565b80601f0160208091040260200160405190810160405280929190818152602001828054610de690612c6b565b8015610e335780601f10610e0857610100808354040283529160200191610e33565b820191906000526020600020905b815481529060010190602001808311610e1657829003601f168201915b505050505090806005018054610e4890612c6b565b80601f0160208091040260200160405190810160405280929190818152602001828054610e7490612c6b565b8015610ec15780601f10610e9657610100808354040283529160200191610ec1565b820191906000526020600020905b815481529060010190602001808311610ea457829003601f168201915b505050505090806006018054610ed690612c6b565b80601f0160208091040260200160405190810160405280929190818152602001828054610f0290612c6b565b8015610f4f5780601f10610f2457610100808354040283529160200191610f4f565b820191906000526020600020905b815481529060010190602001808311610f3257829003601f168201915b505050505090806007018054610f6490612c6b565b80601f0160208091040260200160405190810160405280929190818152602001828054610f9090612c6b565b8015610fdd5780601f10610fb257610100808354040283529160200191610fdd565b820191906000526020600020905b815481529060010190602001808311610fc057829003601f168201915b505050505090806008018054610ff290612c6b565b80601f016020809104026020016040519081016040528092919081815260200182805461101e90612c6b565b801561106b5780601f106110405761010080835404028352916020019161106b565b820191906000526020600020905b81548152906001019060200180831161104e57829003601f168201915b50505050509080600901805461108090612c6b565b80601f01602080910402602001604051908101604052809291908181526020018280546110ac90612c6b565b80156110f95780601f106110ce576101008083540402835291602001916110f9565b820191906000526020600020905b8154815290600101906020018083116110dc57829003601f168201915b50505050509080600a01805461110e90612c6b565b80601f016020809104026020016040519081016040528092919081815260200182805461113a90612c6b565b80156111875780601f1061115c57610100808354040283529160200191611187565b820191906000526020600020905b81548152906001019060200180831161116a57829003601f168201915b505050505090508b565b60018280516020810182018051848252602083016020850120818352809550505050505081815481106111c357600080fd5b906000526020600020016000915091505080546111df90612c6b565b80601f016020809104026020016040519081016040528092919081815260200182805461120b90612c6b565b80156112585780601f1061122d57610100808354040283529160200191611258565b820191906000526020600020905b81548152906001019060200180831161123b57829003601f168201915b505050505081565b6002818051602081018201805184825260208301602085012081835280955050505050506000915054906101000a900473ffffffffffffffffffffffffffffffffffffffff1681565b6000808a6040516112ba91906128d7565b90815260200160405180910390209050338160000160006101000a81548173ffffffffffffffffffffffffffffffffffffffff021916908373ffffffffffffffffffffffffffffffffffffffff1602179055508a816001019080519060200190611325929190611f48565b508981600201908051906020019061133e929190611f48565b5088816003019080519060200190611357929190611f48565b5087816004019080519060200190611370929190611f48565b5086816005019080519060200190611389929190611f48565b50858160060190805190602001906113a2929190611f48565b50848160070190805190602001906113bb929190611f48565b50838160080190805190602001906113d4929190611f48565b50828160090190805190602001906113ed929190611f48565b508181600a019080519060200190611406929190611f48565b5060018b60405161141791906128d7565b90815260200160405180910390208a90806001815401808255809150506001900390600052602060002001600090919091909150908051906020019061145e929190611f48565b505050505050505050505050565b606060038260405161147e91906128d7565b908152602001604051809103902060003373ffffffffffffffffffffffffffffffffffffffff1673ffffffffffffffffffffffffffffffffffffffff16815260200190815260200160002060009054906101000a900460ff16611516576040517f08c379a000000000000000000000000000000000000000000000000000000000815260040161150d90612a59565b60405180910390fd5b600060018360405161152891906128d7565b9081526020016040518091039020805480602002602001604051908101604052809291908181526020016000905b8282101561160257838290600052602060002001805461157590612c6b565b80601f01602080910402602001604051908101604052809291908181526020018280546115a190612c6b565b80156115ee5780601f106115c3576101008083540402835291602001916115ee565b820191906000526020600020905b8154815290600101906020018083116115d157829003601f168201915b505050505081526020019060010190611556565b5050505090506000815167ffffffffffffffff81111561164b577f4e487b7100000000000000000000000000000000000000000000000000000000600052604160045260246000fd5b60405190808252806020026020018201604052801561168457816020015b611671611ed8565b8152602001906001900390816116695790505b50905060005b8251811015611d5e5760008382815181106116ce577f4e487b7100000000000000000000000000000000000000000000000000000000600052603260045260246000fd5b60200260200101516040516116e391906128d7565b9081526020016040518091039020604051806101600160405290816000820160009054906101000a900473ffffffffffffffffffffffffffffffffffffffff1673ffffffffffffffffffffffffffffffffffffffff1673ffffffffffffffffffffffffffffffffffffffff16815260200160018201805461176390612c6b565b80601f016020809104026020016040519081016040528092919081815260200182805461178f90612c6b565b80156117dc5780601f106117b1576101008083540402835291602001916117dc565b820191906000526020600020905b8154815290600101906020018083116117bf57829003601f168201915b505050505081526020016002820180546117f590612c6b565b80601f016020809104026020016040519081016040528092919081815260200182805461182190612c6b565b801561186e5780601f106118435761010080835404028352916020019161186e565b820191906000526020600020905b81548152906001019060200180831161185157829003601f168201915b5050505050815260200160038201805461188790612c6b565b80601f01602080910402602001604051908101604052809291908181526020018280546118b390612c6b565b80156119005780601f106118d557610100808354040283529160200191611900565b820191906000526020600020905b8154815290600101906020018083116118e357829003601f168201915b5050505050815260200160048201805461191990612c6b565b80601f016020809104026020016040519081016040528092919081815260200182805461194590612c6b565b80156119925780601f1061196757610100808354040283529160200191611992565b820191906000526020600020905b81548152906001019060200180831161197557829003601f168201915b505050505081526020016005820180546119ab90612c6b565b80601f01602080910402602001604051908101604052809291908181526020018280546119d790612c6b565b8015611a245780601f106119f957610100808354040283529160200191611a24565b820191906000526020600020905b815481529060010190602001808311611a0757829003601f168201915b50505050508152602001600682018054611a3d90612c6b565b80601f0160208091040260200160405190810160405280929190818152602001828054611a6990612c6b565b8015611ab65780601f10611a8b57610100808354040283529160200191611ab6565b820191906000526020600020905b815481529060010190602001808311611a9957829003601f168201915b50505050508152602001600782018054611acf90612c6b565b80601f0160208091040260200160405190810160405280929190818152602001828054611afb90612c6b565b8015611b485780601f10611b1d57610100808354040283529160200191611b48565b820191906000526020600020905b815481529060010190602001808311611b2b57829003601f168201915b50505050508152602001600882018054611b6190612c6b565b80601f0160208091040260200160405190810160405280929190818152602001828054611b8d90612c6b565b8015611bda5780601f10611baf57610100808354040283529160200191611bda565b820191906000526020600020905b815481529060010190602001808311611bbd57829003601f168201915b50505050508152602001600982018054611bf390612c6b565b80601f0160208091040260200160405190810160405280929190818152602001828054611c1f90612c6b565b8015611c6c5780601f10611c4157610100808354040283529160200191611c6c565b820191906000526020600020905b815481529060010190602001808311611c4f57829003601f168201915b50505050508152602001600a82018054611c8590612c6b565b80601f0160208091040260200160405190810160405280929190818152602001828054611cb190612c6b565b8015611cfe5780601f10611cd357610100808354040283529160200191611cfe565b820191906000526020600020905b815481529060010190602001808311611ce157829003601f168201915b505050505081525050828281518110611d40577f4e487b7100000000000000000000000000000000000000000000000000000000600052603260045260246000fd5b60200260200101819052508080611d5690612c9d565b91505061168a565b508092505050919050565b60008089604051611d7a91906128d7565b90815260200160405180910390209050600073ffffffffffffffffffffffffffffffffffffffff168160000160009054906101000a900473ffffffffffffffffffffffffffffffffffffffff1673ffffffffffffffffffffffffffffffffffffffff161415611e1e576040517f08c379a0000000000000000000000000000000000000000000000000000000008152600401611e1590612a79565b60405180910390fd5b87816004019080519060200190611e36929190611f48565b5086816005019080519060200190611e4f929190611f48565b5085816006019080519060200190611e68929190611f48565b5084816007019080519060200190611e81929190611f48565b5083816008019080519060200190611e9a929190611f48565b5082816009019080519060200190611eb3929190611f48565b508181600a019080519060200190611ecc929190611f48565b50505050505050505050565b604051806101600160405280600073ffffffffffffffffffffffffffffffffffffffff168152602001606081526020016060815260200160608152602001606081526020016060815260200160608152602001606081526020016060815260200160608152602001606081525090565b828054611f5490612c6b565b90600052602060002090601f016020900481019282611f765760008555611fbd565b82601f10611f8f57805160ff1916838001178555611fbd565b82800160010185558215611fbd579182015b82811115611fbc578251825591602001919060010190611fa1565b5b509050611fca9190611fce565b5090565b5b80821115611fe7576000816000905550600101611fcf565b5090565b6000611ffe611ff984612aca565b612a99565b90508281526020810184848401111561201657600080fd5b612021848285612c29565b509392505050565b60008135905061203881612d84565b92915050565b600082601f83011261204f57600080fd5b813561205f848260208601611feb565b91505092915050565b60008135905061207781612d9b565b92915050565b60006020828403121561208f57600080fd5b600082013567ffffffffffffffff8111156120a957600080fd5b6120b58482850161203e565b91505092915050565b600080604083850312156120d157600080fd5b600083013567ffffffffffffffff8111156120eb57600080fd5b6120f78582860161203e565b925050602061210885828601612029565b9150509250929050565b60008060006060848603121561212757600080fd5b600084013567ffffffffffffffff81111561214157600080fd5b61214d8682870161203e565b935050602084013567ffffffffffffffff81111561216a57600080fd5b6121768682870161203e565b925050604084013567ffffffffffffffff81111561219357600080fd5b61219f8682870161203e565b9150509250925092565b600080600080600080600080610100898b0312156121c657600080fd5b600089013567ffffffffffffffff8111156121e057600080fd5b6121ec8b828c0161203e565b985050602089013567ffffffffffffffff81111561220957600080fd5b6122158b828c0161203e565b975050604089013567ffffffffffffffff81111561223257600080fd5b61223e8b828c0161203e565b965050606089013567ffffffffffffffff81111561225b57600080fd5b6122678b828c0161203e565b955050608089013567ffffffffffffffff81111561228457600080fd5b6122908b828c0161203e565b94505060a089013567ffffffffffffffff8111156122ad57600080fd5b6122b98b828c0161203e565b93505060c089013567ffffffffffffffff8111156122d657600080fd5b6122e28b828c0161203e565b92505060e089013567ffffffffffffffff8111156122ff57600080fd5b61230b8b828c0161203e565b9150509295985092959890939650565b6000806000806000806000806000806101408b8d03121561233b57600080fd5b60008b013567ffffffffffffffff81111561235557600080fd5b6123618d828e0161203e565b9a505060208b013567ffffffffffffffff81111561237e57600080fd5b61238a8d828e0161203e565b99505060408b013567ffffffffffffffff8111156123a757600080fd5b6123b38d828e0161203e565b98505060608b013567ffffffffffffffff8111156123d057600080fd5b6123dc8d828e0161203e565b97505060808b013567ffffffffffffffff8111156123f957600080fd5b6124058d828e0161203e565b96505060a08b013567ffffffffffffffff81111561242257600080fd5b61242e8d828e0161203e565b95505060c08b013567ffffffffffffffff81111561244b57600080fd5b6124578d828e0161203e565b94505060e08b013567ffffffffffffffff81111561247457600080fd5b6124808d828e0161203e565b9350506101008b013567ffffffffffffffff81111561249e57600080fd5b6124aa8d828e0161203e565b9250506101208b013567ffffffffffffffff8111156124c857600080fd5b6124d48d828e0161203e565b9150509295989b9194979a5092959850565b600080604083850312156124f957600080fd5b600083013567ffffffffffffffff81111561251357600080fd5b61251f8582860161203e565b925050602061253085828601612068565b9150509250929050565b60006125468383612792565b905092915050565b61255781612be1565b82525050565b61256681612be1565b82525050565b600061257782612b1f565b6125818185612b42565b93508360208202850161259385612afa565b8060005b858110156125cf57848403895281516125b0858261253a565b94506125bb83612b35565b925060208a01995050600181019050612597565b50829750879550505050505092915050565b6125ea81612bf3565b82525050565b600081546125fd81612c6b565b6126078186612b53565b94506001821660008114612622576001811461263357612666565b60ff19831686528186019350612666565b61263c85612b0a565b60005b8381101561265e5781548189015260018201915060208101905061263f565b838801955050505b50505092915050565b600061267a82612b2a565b6126848185612b5e565b9350612694818560208601612c38565b61269d81612d73565b840191505092915050565b60006126b382612b2a565b6126bd8185612b6f565b93506126cd818560208601612c38565b6126d681612d73565b840191505092915050565b60006126ec82612b2a565b6126f68185612b80565b9350612706818560208601612c38565b80840191505092915050565b600061271f601683612b6f565b91507f5065726d697373696f6e206e6f74206772616e746564000000000000000000006000830152602082019050919050565b600061275f601583612b6f565b91507f5265636f726420646f6573206e6f7420657869737400000000000000000000006000830152602082019050919050565b6000610160830160008301516127ab600086018261254e565b50602083015184820360208601526127c3828261266f565b915050604083015184820360408601526127dd828261266f565b915050606083015184820360608601526127f7828261266f565b91505060808301518482036080860152612811828261266f565b91505060a083015184820360a086015261282b828261266f565b91505060c083015184820360c0860152612845828261266f565b91505060e083015184820360e086015261285f828261266f565b91505061010083015184820361010086015261287b828261266f565b915050610120830151848203610120860152612897828261266f565b9150506101408301518482036101408601526128b3828261266f565b9150508091505092915050565b60006128cc82846125f0565b915081905092915050565b60006128e382846126e1565b915081905092915050565b6000602082019050612903600083018461255d565b92915050565b60006101608201905061291f600083018e61255d565b8181036020830152612931818d6126a8565b90508181036040830152612945818c6126a8565b90508181036060830152612959818b6126a8565b9050818103608083015261296d818a6126a8565b905081810360a083015261298181896126a8565b905081810360c083015261299581886126a8565b905081810360e08301526129a981876126a8565b90508181036101008301526129be81866126a8565b90508181036101208301526129d381856126a8565b90508181036101408301526129e881846126a8565b90509c9b505050505050505050505050565b60006020820190508181036000830152612a14818461256c565b905092915050565b6000602082019050612a3160008301846125e1565b92915050565b60006020820190508181036000830152612a5181846126a8565b905092915050565b60006020820190508181036000830152612a7281612712565b9050919050565b60006020820190508181036000830152612a9281612752565b9050919050565b6000604051905081810181811067ffffffffffffffff82111715612ac057612abf612d44565b5b8060405250919050565b600067ffffffffffffffff821115612ae557612ae4612d44565b5b601f19601f8301169050602081019050919050565b6000819050602082019050919050565b60008190508160005260206000209050919050565b600081519050919050565b600081519050919050565b6000602082019050919050565b600082825260208201905092915050565b600081905092915050565b600082825260208201905092915050565b600082825260208201905092915050565b600081905092915050565b6000612b9682612c1f565b9150612ba183612c1f565b9250827fffffffffffffffffffffffffffffffffffffffffffffffffffffffffffffffff03821115612bd657612bd5612ce6565b5b828201905092915050565b6000612bec82612bff565b9050919050565b60008115159050919050565b600073ffffffffffffffffffffffffffffffffffffffff82169050919050565b6000819050919050565b82818337600083830152505050565b60005b83811015612c56578082015181840152602081019050612c3b565b83811115612c65576000848401525b50505050565b60006002820490506001821680612c8357607f821691505b60208210811415612c9757612c96612d15565b5b50919050565b6000612ca882612c1f565b91507fffffffffffffffffffffffffffffffffffffffffffffffffffffffffffffffff821415612cdb57612cda612ce6565b5b600182019050919050565b7f4e487b7100000000000000000000000000000000000000000000000000000000600052601160045260246000fd5b7f4e487b7100000000000000000000000000000000000000000000000000000000600052602260045260246000fd5b7f4e487b7100000000000000000000000000000000000000000000000000000000600052604160045260246000fd5b6000601f19601f8301169050919050565b612d8d81612be1565b8114612d9857600080fd5b50565b612da481612c1f565b8114612daf57600080fd5b5056fea26469706673582212207fb37342add03187400809cec42eaba4cf7de70a2eeddae2b3b1a44a69d482a064736f6c63430008000033",
  "immutableReferences": {},
  "source": "// SPDX-License-Identifier: MIT\r\npragma solidity ^0.8.0;\r\n\r\nimport \"./Patient.sol\";\r\nimport \"./AccessControl.sol\";\r\n\r\ncontract LaboratoryHistoryRecords {\r\n\r\n    struct LaboratoryRecord {\r\n        address hospitalAddr;\r\n        string patientID;\r\n        string recordID;\r\n        string hospital;\r\n        string testType; //kung ano type ng test (blood test, urinalysis, etc)\r\n        string dateOfTest;\r\n        string orderingPhysician;\r\n        string testCategory; //kung ano category niya (ex. CBC, CTS, etc)\r\n        string resultsIpfsHash;  // Results (Upload file/IPFS hash)\r\n        string reviewingPhysician;\r\n        string interpretation;\r\n    }\r\n\r\n    mapping(string => LaboratoryRecord) public laboratoryRecords;\r\n    mapping(string => string[]) public patientLaboratoryRecords;\r\n    mapping(string => address) public hospitalToPatient;\r\n    mapping(string => mapping(address => bool)) public patientPermissions;\r\n\r\n    function addLaboratoryHistory(\r\n        string memory _patientID,\r\n        string memory _recordID,\r\n        string memory _hospital,\r\n        string memory _testType,\r\n        string memory _dateOfTest,\r\n        string memory _orderingPhysician,\r\n        string memory _testCategory,\r\n        string memory _resultsIpfsHash,\r\n        string memory _reviewingPhysician,\r\n        string memory _interpretation\r\n    ) public {\r\n\r\n        LaboratoryRecord storage record = laboratoryRecords[_recordID];\r\n        \r\n        record.hospitalAddr = msg.sender;\r\n        record.patientID = _patientID;\r\n        record.recordID = _recordID;\r\n        record.hospital = _hospital;\r\n        record.testType = _testType;\r\n        record.dateOfTest = _dateOfTest;\r\n        record.orderingPhysician = _orderingPhysician;\r\n        record.testCategory = _testCategory;\r\n        record.resultsIpfsHash = _resultsIpfsHash;\r\n        record.reviewingPhysician = _reviewingPhysician;\r\n        record.interpretation = _interpretation;\r\n\r\n        patientLaboratoryRecords[_patientID].push(_recordID);\r\n    }\r\n\r\n    function editLaboratoryHistory(\r\n        string memory _recordID, \r\n        string memory _testType, \r\n        string memory _dateOfTest,\r\n        string memory _orderingPhysician, \r\n        string memory _testCategory, \r\n        string memory _resultsIpfsHash,\r\n        string memory _reviewingPhysician,\r\n        string memory _interpretation\r\n    ) public {\r\n\r\n        LaboratoryRecord storage record = laboratoryRecords[_recordID];\r\n        require(record.hospitalAddr != address(0), \"Record does not exist\");\r\n        \r\n        record.testType = _testType;\r\n        record.dateOfTest = _dateOfTest;\r\n        record.orderingPhysician = _orderingPhysician;\r\n        record.testCategory = _testCategory;\r\n        record.resultsIpfsHash = _resultsIpfsHash;\r\n        record.reviewingPhysician = _reviewingPhysician;\r\n        record.interpretation = _interpretation;\r\n    }\r\n\r\n    function getAllLaboratoryHistoryRecords(string memory _patientID) public view returns (LaboratoryRecord[] memory) {\r\n        // Check if the hospital has permission to access the patient's records\r\n        require(patientPermissions[_patientID][msg.sender], \"Permission not granted\");\r\n\r\n        string[] memory recordIDs = patientLaboratoryRecords[_patientID];\r\n        LaboratoryRecord[] memory records = new LaboratoryRecord[](recordIDs.length);\r\n\r\n        // Retrieve each medical record for the patient\r\n        for (uint i = 0; i < recordIDs.length; i++) {\r\n            records[i] = laboratoryRecords[recordIDs[i]];\r\n        }\r\n\r\n        return records;\r\n    }\r\n\r\n    function searchLaboratoryRecords(string memory _patientID, string memory _testTypeKeyword, string memory _testCategoryKeyword\r\n        ) public view returns (LaboratoryRecord[] memory) {\r\n        // Check if the user has permission to access this record\r\n        require(patientPermissions[_patientID][msg.sender], \"Permission not granted\");\r\n\r\n        string[] memory recordIDs = patientLaboratoryRecords[_patientID];\r\n        LaboratoryRecord[] memory matchingRecords;\r\n        uint matchingCount = 0;\r\n\r\n        // Iterate through each record and check for matching criteria\r\n        for (uint i = 0; i < recordIDs.length; i++) {\r\n            LaboratoryRecord storage record = laboratoryRecords[recordIDs[i]];\r\n\r\n            // Check if the record matches the specified criteria\r\n            //`keccak256()` compares the hashes of both strings and returns `true` if they are equal\r\n            if (keccak256(bytes(record.testType)) == keccak256(bytes(_testTypeKeyword)) &&\r\n                (keccak256(bytes(record.testCategory)) == keccak256(bytes(_testCategoryKeyword)))) {\r\n                // Add the matching record to the result array\r\n                if (matchingRecords.length == matchingCount) {\r\n                    // Extend the array if needed\r\n                    matchingRecords = new LaboratoryRecord[](matchingRecords.length + 1);\r\n                }\r\n                matchingRecords[matchingCount++] = record;\r\n            }\r\n        }\r\n        // Resize the array to remove unused slots\r\n        assembly {\r\n            mstore(matchingRecords, matchingCount)\r\n        }\r\n        return matchingRecords;\r\n    }\r\n}   \r\n\r\n\r\n        \r\n",
  "sourcePath": "C:\\Users\\Abby\\Desktop\\APPCON 2023\\MediVerse-Web3-Dapp\\contracts\\LaboratoryHistory.sol",
  "compiler": {
    "name": "solc",
    "version": "0.8.0+commit.c7dfd78e.Emscripten.clang"
  },
  "schemaVersion": "3.4.16",
  "updatedAt": "2024-02-16T09:39:33.446Z",
  "networkType": "ethereum",
  "devdoc": {
    "kind": "dev",
    "methods": {},
    "version": 1
  },
  "userdoc": {
    "kind": "user",
    "methods": {},
    "version": 1
  }
}