{
  "contractName": "LaboratoryHistoryRecords",
  "abi": [
    {
      "inputs": [
        {
          "internalType": "string",
          "name": "_hospitalName",
          "type": "string"
        },
        {
          "internalType": "string",
          "name": "_contactNum",
          "type": "string"
        },
        {
          "internalType": "string",
          "name": "_hospitalAddress",
          "type": "string"
        }
      ],
      "name": "editHospitalProfile",
      "outputs": [],
      "stateMutability": "nonpayable",
      "type": "function"
    },
    {
      "inputs": [],
      "name": "getHospitalCount",
      "outputs": [
        {
          "internalType": "uint256",
          "name": "",
          "type": "uint256"
        }
      ],
      "stateMutability": "view",
      "type": "function",
      "constant": true
    },
    {
      "inputs": [],
      "name": "getHospitalList",
      "outputs": [
        {
          "internalType": "address[]",
          "name": "",
          "type": "address[]"
        }
      ],
      "stateMutability": "view",
      "type": "function",
      "constant": true
    },
    {
      "inputs": [],
      "name": "hospitalCount",
      "outputs": [
        {
          "internalType": "uint256",
          "name": "",
          "type": "uint256"
        }
      ],
      "stateMutability": "view",
      "type": "function",
      "constant": true
    },
    {
      "inputs": [
        {
          "internalType": "uint256",
          "name": "",
          "type": "uint256"
        }
      ],
      "name": "hospitalList",
      "outputs": [
        {
          "internalType": "address",
          "name": "",
          "type": "address"
        }
      ],
      "stateMutability": "view",
      "type": "function",
      "constant": true
    },
    {
      "inputs": [
        {
          "internalType": "address",
          "name": "",
          "type": "address"
        }
      ],
      "name": "hospitals",
      "outputs": [
        {
          "internalType": "string",
          "name": "hospitalName",
          "type": "string"
        },
        {
          "internalType": "string",
          "name": "contactNum",
          "type": "string"
        },
        {
          "internalType": "string",
          "name": "hospitalAddress",
          "type": "string"
        },
        {
          "internalType": "address",
          "name": "addr",
          "type": "address"
        },
        {
          "internalType": "uint256",
          "name": "date",
          "type": "uint256"
        }
      ],
      "stateMutability": "view",
      "type": "function",
      "constant": true
    },
    {
      "inputs": [
        {
          "internalType": "address",
          "name": "",
          "type": "address"
        }
      ],
      "name": "isHospital",
      "outputs": [
        {
          "internalType": "bool",
          "name": "",
          "type": "bool"
        }
      ],
      "stateMutability": "view",
      "type": "function",
      "constant": true
    },
    {
      "inputs": [],
      "name": "laboratoryHistoryCount",
      "outputs": [
        {
          "internalType": "uint256",
          "name": "",
          "type": "uint256"
        }
      ],
      "stateMutability": "view",
      "type": "function",
      "constant": true
    },
    {
      "inputs": [
        {
          "internalType": "uint256",
          "name": "",
          "type": "uint256"
        }
      ],
      "name": "laboratoryList",
      "outputs": [
        {
          "internalType": "address",
          "name": "",
          "type": "address"
        }
      ],
      "stateMutability": "view",
      "type": "function",
      "constant": true
    },
    {
      "inputs": [
        {
          "internalType": "address",
          "name": "",
          "type": "address"
        }
      ],
      "name": "laboratoryRecords",
      "outputs": [
        {
          "internalType": "address",
          "name": "owner",
          "type": "address"
        },
        {
          "internalType": "address",
          "name": "hospitalAddr",
          "type": "address"
        },
        {
          "internalType": "string",
          "name": "hospital",
          "type": "string"
        },
        {
          "internalType": "string",
          "name": "testType",
          "type": "string"
        },
        {
          "internalType": "string",
          "name": "dateOfTest",
          "type": "string"
        },
        {
          "internalType": "string",
          "name": "orderingPhysician",
          "type": "string"
        },
        {
          "internalType": "string",
          "name": "testCategory",
          "type": "string"
        },
        {
          "internalType": "string",
          "name": "resultsIpfsHash",
          "type": "string"
        },
        {
          "internalType": "string",
          "name": "reviewingPhysician",
          "type": "string"
        },
        {
          "internalType": "string",
          "name": "interpretation",
          "type": "string"
        }
      ],
      "stateMutability": "view",
      "type": "function",
      "constant": true
    },
    {
      "inputs": [
        {
          "internalType": "address",
          "name": "",
          "type": "address"
        },
        {
          "internalType": "uint256",
          "name": "",
          "type": "uint256"
        }
      ],
      "name": "patientLaboratoryRecords",
      "outputs": [
        {
          "internalType": "address",
          "name": "",
          "type": "address"
        }
      ],
      "stateMutability": "view",
      "type": "function",
      "constant": true
    },
    {
      "inputs": [
        {
          "internalType": "string",
          "name": "_hospitalName",
          "type": "string"
        },
        {
          "internalType": "string",
          "name": "_contactNum",
          "type": "string"
        },
        {
          "internalType": "string",
          "name": "_hospitalAddress",
          "type": "string"
        }
      ],
      "name": "registerHospital",
      "outputs": [],
      "stateMutability": "nonpayable",
      "type": "function"
    }
  ],
  "bytecode": "0x60806040526000600355600060075534801561001a57600080fd5b506117748061002a6000396000f3fe608060405234801561001057600080fd5b50600436106100b45760003560e01c8063bdf6c67311610071578063bdf6c67314610196578063c82412b9146101c6578063cb790e1d146101f6578063f093cf8014610226578063f574c0741461025a578063fe45a81d14610278576100b4565b806321a1500a146100b9578063350dadb7146100d5578063526b44ac146100f35780636933e4141461010f5780637b3bde201461012d5780639884bdd814610166575b600080fd5b6100d360048036038101906100ce919061115d565b610296565b005b6100dd610380565b6040516100ea919061149c565b60405180910390f35b61010d6004803603810190610108919061115d565b610386565b005b610117610777565b60405161012491906113f7565b60405180910390f35b610147600480360381019061014291906110f8565b610805565b60405161015d9a99989796959493929190611323565b60405180910390f35b610180600480360381019061017b9190611121565b610cd9565b60405161018d9190611308565b60405180910390f35b6101b060048036038101906101ab91906110f8565b610d27565b6040516101bd9190611419565b60405180910390f35b6101e060048036038101906101db91906111f4565b610d47565b6040516101ed9190611308565b60405180910390f35b610210600480360381019061020b91906111f4565b610d86565b60405161021d9190611308565b60405180910390f35b610240600480360381019061023b91906110f8565b610dc5565b604051610251959493929190611434565b60405180910390f35b610262610fb3565b60405161026f919061149c565b60405180910390f35b610280610fb9565b60405161028d919061149c565b60405180910390f35b600260003373ffffffffffffffffffffffffffffffffffffffff1673ffffffffffffffffffffffffffffffffffffffff16815260200190815260200160002060009054906101000a900460ff166102ec57600080fd5b6000600160003373ffffffffffffffffffffffffffffffffffffffff1673ffffffffffffffffffffffffffffffffffffffff168152602001908152602001600020905083816000019080519060200190610347929190610fc3565b5082816001019080519060200190610360929190610fc3565b5081816002019080519060200190610379929190610fc3565b5050505050565b60035481565b600260003373ffffffffffffffffffffffffffffffffffffffff1673ffffffffffffffffffffffffffffffffffffffff16815260200190815260200160002060009054906101000a900460ff16156103dd57600080fd5b6000600160003373ffffffffffffffffffffffffffffffffffffffff1673ffffffffffffffffffffffffffffffffffffffff1681526020019081526020016000206040518060a0016040529081600082018054610439906115f7565b80601f0160208091040260200160405190810160405280929190818152602001828054610465906115f7565b80156104b25780601f10610487576101008083540402835291602001916104b2565b820191906000526020600020905b81548152906001019060200180831161049557829003601f168201915b505050505081526020016001820180546104cb906115f7565b80601f01602080910402602001604051908101604052809291908181526020018280546104f7906115f7565b80156105445780601f1061051957610100808354040283529160200191610544565b820191906000526020600020905b81548152906001019060200180831161052757829003601f168201915b5050505050815260200160028201805461055d906115f7565b80601f0160208091040260200160405190810160405280929190818152602001828054610589906115f7565b80156105d65780601f106105ab576101008083540402835291602001916105d6565b820191906000526020600020905b8154815290600101906020018083116105b957829003601f168201915b505050505081526020016003820160009054906101000a900473ffffffffffffffffffffffffffffffffffffffff1673ffffffffffffffffffffffffffffffffffffffff1673ffffffffffffffffffffffffffffffffffffffff168152602001600482015481525050905083816000018190525082816020018190525081816040018190525033816060019073ffffffffffffffffffffffffffffffffffffffff16908173ffffffffffffffffffffffffffffffffffffffff1681525050428160800181815250506000339080600181540180825580915050600190039060005260206000200160009091909190916101000a81548173ffffffffffffffffffffffffffffffffffffffff021916908373ffffffffffffffffffffffffffffffffffffffff1602179055506001600260003373ffffffffffffffffffffffffffffffffffffffff1673ffffffffffffffffffffffffffffffffffffffff16815260200190815260200160002060006101000a81548160ff0219169083151502179055506003600081548092919061076c90611629565b919050555050505050565b606060008054806020026020016040519081016040528092919081815260200182805480156107fb57602002820191906000526020600020905b8160009054906101000a900473ffffffffffffffffffffffffffffffffffffffff1673ffffffffffffffffffffffffffffffffffffffff16815260200190600101908083116107b1575b5050505050905090565b60056020528060005260406000206000915090508060000160009054906101000a900473ffffffffffffffffffffffffffffffffffffffff16908060010160009054906101000a900473ffffffffffffffffffffffffffffffffffffffff1690806002018054610874906115f7565b80601f01602080910402602001604051908101604052809291908181526020018280546108a0906115f7565b80156108ed5780601f106108c2576101008083540402835291602001916108ed565b820191906000526020600020905b8154815290600101906020018083116108d057829003601f168201915b505050505090806003018054610902906115f7565b80601f016020809104026020016040519081016040528092919081815260200182805461092e906115f7565b801561097b5780601f106109505761010080835404028352916020019161097b565b820191906000526020600020905b81548152906001019060200180831161095e57829003601f168201915b505050505090806004018054610990906115f7565b80601f01602080910402602001604051908101604052809291908181526020018280546109bc906115f7565b8015610a095780601f106109de57610100808354040283529160200191610a09565b820191906000526020600020905b8154815290600101906020018083116109ec57829003601f168201915b505050505090806005018054610a1e906115f7565b80601f0160208091040260200160405190810160405280929190818152602001828054610a4a906115f7565b8015610a975780601f10610a6c57610100808354040283529160200191610a97565b820191906000526020600020905b815481529060010190602001808311610a7a57829003601f168201915b505050505090806006018054610aac906115f7565b80601f0160208091040260200160405190810160405280929190818152602001828054610ad8906115f7565b8015610b255780601f10610afa57610100808354040283529160200191610b25565b820191906000526020600020905b815481529060010190602001808311610b0857829003601f168201915b505050505090806007018054610b3a906115f7565b80601f0160208091040260200160405190810160405280929190818152602001828054610b66906115f7565b8015610bb35780601f10610b8857610100808354040283529160200191610bb3565b820191906000526020600020905b815481529060010190602001808311610b9657829003601f168201915b505050505090806008018054610bc8906115f7565b80601f0160208091040260200160405190810160405280929190818152602001828054610bf4906115f7565b8015610c415780601f10610c1657610100808354040283529160200191610c41565b820191906000526020600020905b815481529060010190602001808311610c2457829003601f168201915b505050505090806009018054610c56906115f7565b80601f0160208091040260200160405190810160405280929190818152602001828054610c82906115f7565b8015610ccf5780601f10610ca457610100808354040283529160200191610ccf565b820191906000526020600020905b815481529060010190602001808311610cb257829003601f168201915b505050505090508a565b60066020528160005260406000208181548110610cf557600080fd5b906000526020600020016000915091509054906101000a900473ffffffffffffffffffffffffffffffffffffffff1681565b60026020528060005260406000206000915054906101000a900460ff1681565b60008181548110610d5757600080fd5b906000526020600020016000915054906101000a900473ffffffffffffffffffffffffffffffffffffffff1681565b60048181548110610d9657600080fd5b906000526020600020016000915054906101000a900473ffffffffffffffffffffffffffffffffffffffff1681565b6001602052806000526040600020600091509050806000018054610de8906115f7565b80601f0160208091040260200160405190810160405280929190818152602001828054610e14906115f7565b8015610e615780601f10610e3657610100808354040283529160200191610e61565b820191906000526020600020905b815481529060010190602001808311610e4457829003601f168201915b505050505090806001018054610e76906115f7565b80601f0160208091040260200160405190810160405280929190818152602001828054610ea2906115f7565b8015610eef5780601f10610ec457610100808354040283529160200191610eef565b820191906000526020600020905b815481529060010190602001808311610ed257829003601f168201915b505050505090806002018054610f04906115f7565b80601f0160208091040260200160405190810160405280929190818152602001828054610f30906115f7565b8015610f7d5780601f10610f5257610100808354040283529160200191610f7d565b820191906000526020600020905b815481529060010190602001808311610f6057829003601f168201915b5050505050908060030160009054906101000a900473ffffffffffffffffffffffffffffffffffffffff16908060040154905085565b60075481565b6000600354905090565b828054610fcf906115f7565b90600052602060002090601f016020900481019282610ff15760008555611038565b82601f1061100a57805160ff1916838001178555611038565b82800160010185558215611038579182015b8281111561103757825182559160200191906001019061101c565b5b5090506110459190611049565b5090565b5b8082111561106257600081600090555060010161104a565b5090565b6000611079611074846114e8565b6114b7565b90508281526020810184848401111561109157600080fd5b61109c8482856115b5565b509392505050565b6000813590506110b381611710565b92915050565b600082601f8301126110ca57600080fd5b81356110da848260208601611066565b91505092915050565b6000813590506110f281611727565b92915050565b60006020828403121561110a57600080fd5b6000611118848285016110a4565b91505092915050565b6000806040838503121561113457600080fd5b6000611142858286016110a4565b9250506020611153858286016110e3565b9150509250929050565b60008060006060848603121561117257600080fd5b600084013567ffffffffffffffff81111561118c57600080fd5b611198868287016110b9565b935050602084013567ffffffffffffffff8111156111b557600080fd5b6111c1868287016110b9565b925050604084013567ffffffffffffffff8111156111de57600080fd5b6111ea868287016110b9565b9150509250925092565b60006020828403121561120657600080fd5b6000611214848285016110e3565b91505092915050565b60006112298383611235565b60208301905092915050565b61123e8161156d565b82525050565b61124d8161156d565b82525050565b600061125e82611528565b611268818561154b565b935061127383611518565b8060005b838110156112a457815161128b888261121d565b97506112968361153e565b925050600181019050611277565b5085935050505092915050565b6112ba8161157f565b82525050565b60006112cb82611533565b6112d5818561155c565b93506112e58185602086016115c4565b6112ee816116ff565b840191505092915050565b611302816115ab565b82525050565b600060208201905061131d6000830184611244565b92915050565b600061014082019050611339600083018d611244565b611346602083018c611244565b8181036040830152611358818b6112c0565b9050818103606083015261136c818a6112c0565b9050818103608083015261138081896112c0565b905081810360a083015261139481886112c0565b905081810360c08301526113a881876112c0565b905081810360e08301526113bc81866112c0565b90508181036101008301526113d181856112c0565b90508181036101208301526113e681846112c0565b90509b9a5050505050505050505050565b600060208201905081810360008301526114118184611253565b905092915050565b600060208201905061142e60008301846112b1565b92915050565b600060a082019050818103600083015261144e81886112c0565b9050818103602083015261146281876112c0565b9050818103604083015261147681866112c0565b90506114856060830185611244565b61149260808301846112f9565b9695505050505050565b60006020820190506114b160008301846112f9565b92915050565b6000604051905081810181811067ffffffffffffffff821117156114de576114dd6116d0565b5b8060405250919050565b600067ffffffffffffffff821115611503576115026116d0565b5b601f19601f8301169050602081019050919050565b6000819050602082019050919050565b600081519050919050565b600081519050919050565b6000602082019050919050565b600082825260208201905092915050565b600082825260208201905092915050565b60006115788261158b565b9050919050565b60008115159050919050565b600073ffffffffffffffffffffffffffffffffffffffff82169050919050565b6000819050919050565b82818337600083830152505050565b60005b838110156115e25780820151818401526020810190506115c7565b838111156115f1576000848401525b50505050565b6000600282049050600182168061160f57607f821691505b60208210811415611623576116226116a1565b5b50919050565b6000611634826115ab565b91507fffffffffffffffffffffffffffffffffffffffffffffffffffffffffffffffff82141561166757611666611672565b5b600182019050919050565b7f4e487b7100000000000000000000000000000000000000000000000000000000600052601160045260246000fd5b7f4e487b7100000000000000000000000000000000000000000000000000000000600052602260045260246000fd5b7f4e487b7100000000000000000000000000000000000000000000000000000000600052604160045260246000fd5b6000601f19601f8301169050919050565b6117198161156d565b811461172457600080fd5b50565b611730816115ab565b811461173b57600080fd5b5056fea26469706673582212202db32c28c1707650cff7bc0ae503c6393a1e1455972dfdf8f1680c044401405764736f6c63430008000033",
  "immutableReferences": {},
  "source": "// SPDX-License-Identifier: MIT\r\npragma solidity ^0.8.0;\r\n\r\nimport \"./Hospital.sol\";\r\n\r\ncontract LaboratoryHistoryRecords is HospitalRecords{\r\n\r\n    struct LaboratoryRecord {\r\n        address owner; //Patient's address\r\n        address hospitalAddr;\r\n        string hospital;\r\n        string testType; //kung ano type ng test (blood test, urinalysis, etc)\r\n        string dateOfTest;\r\n        string orderingPhysician;\r\n        string testCategory; //kung ano category niya (ex. CBC, CTS, etc)\r\n        string resultsIpfsHash;  // Results (Upload file/IPFS hash)\r\n        string reviewingPhysician;\r\n        string interpretation;\r\n    }\r\n\r\n    address[] public laboratoryList;\r\n    mapping(address => LaboratoryRecord) public laboratoryRecords;\r\n    mapping(address => address[]) public patientLaboratoryRecords;\r\n    uint256 public laboratoryHistoryCount = 0;\r\n}   \r\n\r\n\r\n        ",
  "sourcePath": "C:\\Users\\Abby\\Desktop\\APPCON 2023\\MediVerse-Web3-Dapp\\contracts\\LaboratoryHistory.sol",
  "compiler": {
    "name": "solc",
    "version": "0.8.0+commit.c7dfd78e.Emscripten.clang"
  },
  "schemaVersion": "3.4.16",
  "updatedAt": "2024-02-18T11:11:46.873Z",
  "networkType": "ethereum",
  "devdoc": {
    "kind": "dev",
    "methods": {},
    "version": 1
  },
  "userdoc": {
    "kind": "user",
    "methods": {},
    "version": 1
  }
}