{
  "contractName": "MediVerse",
  "abi": [
    {
      "anonymous": false,
      "inputs": [
        {
          "indexed": false,
          "internalType": "address",
          "name": "patientAddr",
          "type": "address"
        },
        {
          "indexed": false,
          "internalType": "address",
          "name": "hospitalAddr",
          "type": "address"
        }
      ],
      "name": "GeneralHealthProfileAdded",
      "type": "event"
    },
    {
      "anonymous": false,
      "inputs": [
        {
          "indexed": false,
          "internalType": "address",
          "name": "hospitalAddr",
          "type": "address"
        }
      ],
      "name": "HospitalRegistered",
      "type": "event"
    },
    {
      "anonymous": false,
      "inputs": [
        {
          "indexed": false,
          "internalType": "address",
          "name": "patientAddr",
          "type": "address"
        },
        {
          "indexed": false,
          "internalType": "address",
          "name": "hospitalAddr",
          "type": "address"
        }
      ],
      "name": "MedicalHistoryAdded",
      "type": "event"
    },
    {
      "anonymous": false,
      "inputs": [
        {
          "indexed": false,
          "internalType": "address",
          "name": "patientAddr",
          "type": "address"
        }
      ],
      "name": "PatientRegistered",
      "type": "event"
    },
    {
      "anonymous": false,
      "inputs": [
        {
          "indexed": false,
          "internalType": "address",
          "name": "patientAddr",
          "type": "address"
        },
        {
          "indexed": false,
          "internalType": "address",
          "name": "hospitalAddr",
          "type": "address"
        }
      ],
      "name": "PermissionGranted",
      "type": "event"
    },
    {
      "anonymous": false,
      "inputs": [
        {
          "indexed": false,
          "internalType": "address",
          "name": "patientAddr",
          "type": "address"
        },
        {
          "indexed": false,
          "internalType": "address",
          "name": "hospitalAddr",
          "type": "address"
        }
      ],
      "name": "PermissionRevoked",
      "type": "event"
    },
    {
      "inputs": [
        {
          "internalType": "uint256",
          "name": "",
          "type": "uint256"
        }
      ],
      "name": "hospitalList",
      "outputs": [
        {
          "internalType": "address",
          "name": "",
          "type": "address"
        }
      ],
      "stateMutability": "view",
      "type": "function",
      "constant": true
    },
    {
      "inputs": [
        {
          "internalType": "address",
          "name": "",
          "type": "address"
        }
      ],
      "name": "hospitals",
      "outputs": [
        {
          "internalType": "string",
          "name": "name",
          "type": "string"
        },
        {
          "internalType": "string",
          "name": "contactNum",
          "type": "string"
        },
        {
          "internalType": "string",
          "name": "addr",
          "type": "string"
        },
        {
          "internalType": "uint256",
          "name": "registrationDate",
          "type": "uint256"
        }
      ],
      "stateMutability": "view",
      "type": "function",
      "constant": true
    },
    {
      "inputs": [
        {
          "internalType": "address",
          "name": "",
          "type": "address"
        }
      ],
      "name": "isRegistered",
      "outputs": [
        {
          "internalType": "bool",
          "name": "",
          "type": "bool"
        }
      ],
      "stateMutability": "view",
      "type": "function",
      "constant": true
    },
    {
      "inputs": [
        {
          "internalType": "address",
          "name": "",
          "type": "address"
        },
        {
          "internalType": "uint256",
          "name": "",
          "type": "uint256"
        }
      ],
      "name": "medicalHistories",
      "outputs": [
        {
          "internalType": "address",
          "name": "patientAddr",
          "type": "address"
        },
        {
          "internalType": "address",
          "name": "hospitalAddr",
          "type": "address"
        },
        {
          "internalType": "string",
          "name": "physician",
          "type": "string"
        },
        {
          "internalType": "string",
          "name": "diagnosis",
          "type": "string"
        },
        {
          "internalType": "string",
          "name": "signsAndSymptoms",
          "type": "string"
        },
        {
          "internalType": "string",
          "name": "treatmentProcedure",
          "type": "string"
        },
        {
          "internalType": "string",
          "name": "tests",
          "type": "string"
        },
        {
          "internalType": "string",
          "name": "medications",
          "type": "string"
        },
        {
          "internalType": "string",
          "name": "admission",
          "type": "string"
        },
        {
          "internalType": "uint256",
          "name": "creationDate",
          "type": "uint256"
        }
      ],
      "stateMutability": "view",
      "type": "function",
      "constant": true
    },
    {
      "inputs": [
        {
          "internalType": "uint256",
          "name": "",
          "type": "uint256"
        }
      ],
      "name": "medicalHistoryList",
      "outputs": [
        {
          "internalType": "address",
          "name": "patientAddr",
          "type": "address"
        },
        {
          "internalType": "address",
          "name": "hospitalAddr",
          "type": "address"
        },
        {
          "internalType": "string",
          "name": "physician",
          "type": "string"
        },
        {
          "internalType": "string",
          "name": "diagnosis",
          "type": "string"
        },
        {
          "internalType": "string",
          "name": "signsAndSymptoms",
          "type": "string"
        },
        {
          "internalType": "string",
          "name": "treatmentProcedure",
          "type": "string"
        },
        {
          "internalType": "string",
          "name": "tests",
          "type": "string"
        },
        {
          "internalType": "string",
          "name": "medications",
          "type": "string"
        },
        {
          "internalType": "string",
          "name": "admission",
          "type": "string"
        },
        {
          "internalType": "uint256",
          "name": "creationDate",
          "type": "uint256"
        }
      ],
      "stateMutability": "view",
      "type": "function",
      "constant": true
    },
    {
      "inputs": [
        {
          "internalType": "uint256",
          "name": "",
          "type": "uint256"
        }
      ],
      "name": "patientList",
      "outputs": [
        {
          "internalType": "address",
          "name": "",
          "type": "address"
        }
      ],
      "stateMutability": "view",
      "type": "function",
      "constant": true
    },
    {
      "inputs": [
        {
          "internalType": "address",
          "name": "",
          "type": "address"
        }
      ],
      "name": "patients",
      "outputs": [
        {
          "internalType": "string",
          "name": "name",
          "type": "string"
        },
        {
          "internalType": "string",
          "name": "age",
          "type": "string"
        },
        {
          "internalType": "string",
          "name": "gender",
          "type": "string"
        },
        {
          "internalType": "string",
          "name": "dateOfBirth",
          "type": "string"
        },
        {
          "internalType": "string",
          "name": "height",
          "type": "string"
        },
        {
          "internalType": "string",
          "name": "weight",
          "type": "string"
        },
        {
          "internalType": "string",
          "name": "contactNum",
          "type": "string"
        },
        {
          "internalType": "string",
          "name": "addr",
          "type": "string"
        },
        {
          "internalType": "uint256",
          "name": "registrationDate",
          "type": "uint256"
        }
      ],
      "stateMutability": "view",
      "type": "function",
      "constant": true
    },
    {
      "inputs": [
        {
          "internalType": "address",
          "name": "",
          "type": "address"
        },
        {
          "internalType": "uint256",
          "name": "",
          "type": "uint256"
        }
      ],
      "name": "pendingRequests",
      "outputs": [
        {
          "internalType": "address",
          "name": "",
          "type": "address"
        }
      ],
      "stateMutability": "view",
      "type": "function",
      "constant": true
    },
    {
      "inputs": [
        {
          "internalType": "string",
          "name": "_name",
          "type": "string"
        },
        {
          "internalType": "string",
          "name": "_age",
          "type": "string"
        },
        {
          "internalType": "string",
          "name": "_gender",
          "type": "string"
        },
        {
          "internalType": "string",
          "name": "_dateOfBirth",
          "type": "string"
        },
        {
          "internalType": "string",
          "name": "_height",
          "type": "string"
        },
        {
          "internalType": "string",
          "name": "_weight",
          "type": "string"
        },
        {
          "internalType": "string",
          "name": "_contactNum",
          "type": "string"
        },
        {
          "internalType": "string",
          "name": "_address",
          "type": "string"
        }
      ],
      "name": "registerPatient",
      "outputs": [],
      "stateMutability": "nonpayable",
      "type": "function"
    },
    {
      "inputs": [
        {
          "internalType": "string",
          "name": "_name",
          "type": "string"
        },
        {
          "internalType": "string",
          "name": "_age",
          "type": "string"
        },
        {
          "internalType": "string",
          "name": "_gender",
          "type": "string"
        },
        {
          "internalType": "string",
          "name": "_dateOfBirth",
          "type": "string"
        },
        {
          "internalType": "string",
          "name": "_height",
          "type": "string"
        },
        {
          "internalType": "string",
          "name": "_weight",
          "type": "string"
        },
        {
          "internalType": "string",
          "name": "_contactNum",
          "type": "string"
        },
        {
          "internalType": "string",
          "name": "_address",
          "type": "string"
        }
      ],
      "name": "editPatientDetails",
      "outputs": [],
      "stateMutability": "nonpayable",
      "type": "function"
    },
    {
      "inputs": [
        {
          "internalType": "string",
          "name": "_name",
          "type": "string"
        },
        {
          "internalType": "string",
          "name": "_contactNum",
          "type": "string"
        },
        {
          "internalType": "string",
          "name": "_address",
          "type": "string"
        }
      ],
      "name": "registerHospital",
      "outputs": [],
      "stateMutability": "nonpayable",
      "type": "function"
    },
    {
      "inputs": [
        {
          "internalType": "string",
          "name": "_name",
          "type": "string"
        },
        {
          "internalType": "string",
          "name": "_contactNum",
          "type": "string"
        },
        {
          "internalType": "string",
          "name": "_addr",
          "type": "string"
        }
      ],
      "name": "editHospitalDetails",
      "outputs": [],
      "stateMutability": "nonpayable",
      "type": "function"
    },
    {
      "inputs": [
        {
          "internalType": "address",
          "name": "_patientAddr",
          "type": "address"
        },
        {
          "internalType": "string",
          "name": "_physician",
          "type": "string"
        },
        {
          "internalType": "string",
          "name": "_diagnosis",
          "type": "string"
        },
        {
          "internalType": "string",
          "name": "_signsAndSymptoms",
          "type": "string"
        },
        {
          "internalType": "string",
          "name": "_treatmentProcedure",
          "type": "string"
        },
        {
          "internalType": "string",
          "name": "_tests",
          "type": "string"
        },
        {
          "internalType": "string",
          "name": "_medications",
          "type": "string"
        },
        {
          "internalType": "string",
          "name": "_admission",
          "type": "string"
        }
      ],
      "name": "addMedicalHistory",
      "outputs": [],
      "stateMutability": "nonpayable",
      "type": "function"
    },
    {
      "inputs": [
        {
          "internalType": "address",
          "name": "_patientAddr",
          "type": "address"
        },
        {
          "internalType": "string",
          "name": "_physician",
          "type": "string"
        },
        {
          "internalType": "string",
          "name": "_diagnosis",
          "type": "string"
        },
        {
          "internalType": "string",
          "name": "_signsAndSymptoms",
          "type": "string"
        },
        {
          "internalType": "string",
          "name": "_treatmentProcedure",
          "type": "string"
        },
        {
          "internalType": "string",
          "name": "_tests",
          "type": "string"
        },
        {
          "internalType": "string",
          "name": "_medications",
          "type": "string"
        },
        {
          "internalType": "string",
          "name": "_admission",
          "type": "string"
        }
      ],
      "name": "editMedicalHistory",
      "outputs": [],
      "stateMutability": "nonpayable",
      "type": "function"
    },
    {
      "inputs": [
        {
          "internalType": "address",
          "name": "_patientAddr",
          "type": "address"
        }
      ],
      "name": "getMedicalHistory",
      "outputs": [
        {
          "components": [
            {
              "internalType": "address",
              "name": "patientAddr",
              "type": "address"
            },
            {
              "internalType": "address",
              "name": "hospitalAddr",
              "type": "address"
            },
            {
              "internalType": "string",
              "name": "physician",
              "type": "string"
            },
            {
              "internalType": "string",
              "name": "diagnosis",
              "type": "string"
            },
            {
              "internalType": "string",
              "name": "signsAndSymptoms",
              "type": "string"
            },
            {
              "internalType": "string",
              "name": "treatmentProcedure",
              "type": "string"
            },
            {
              "internalType": "string",
              "name": "tests",
              "type": "string"
            },
            {
              "internalType": "string",
              "name": "medications",
              "type": "string"
            },
            {
              "internalType": "string",
              "name": "admission",
              "type": "string"
            },
            {
              "internalType": "uint256",
              "name": "creationDate",
              "type": "uint256"
            }
          ],
          "internalType": "struct MediVerse.MedicalHistory[]",
          "name": "",
          "type": "tuple[]"
        }
      ],
      "stateMutability": "view",
      "type": "function",
      "constant": true
    },
    {
      "inputs": [],
      "name": "getAllMedicalHistory",
      "outputs": [
        {
          "components": [
            {
              "internalType": "address",
              "name": "patientAddr",
              "type": "address"
            },
            {
              "internalType": "address",
              "name": "hospitalAddr",
              "type": "address"
            },
            {
              "internalType": "string",
              "name": "physician",
              "type": "string"
            },
            {
              "internalType": "string",
              "name": "diagnosis",
              "type": "string"
            },
            {
              "internalType": "string",
              "name": "signsAndSymptoms",
              "type": "string"
            },
            {
              "internalType": "string",
              "name": "treatmentProcedure",
              "type": "string"
            },
            {
              "internalType": "string",
              "name": "tests",
              "type": "string"
            },
            {
              "internalType": "string",
              "name": "medications",
              "type": "string"
            },
            {
              "internalType": "string",
              "name": "admission",
              "type": "string"
            },
            {
              "internalType": "uint256",
              "name": "creationDate",
              "type": "uint256"
            }
          ],
          "internalType": "struct MediVerse.MedicalHistory[]",
          "name": "",
          "type": "tuple[]"
        }
      ],
      "stateMutability": "view",
      "type": "function",
      "constant": true
    },
    {
      "inputs": [
        {
          "internalType": "address",
          "name": "patientAddress",
          "type": "address"
        }
      ],
      "name": "getPatientInfo",
      "outputs": [
        {
          "internalType": "string",
          "name": "",
          "type": "string"
        },
        {
          "internalType": "string",
          "name": "",
          "type": "string"
        },
        {
          "internalType": "string",
          "name": "",
          "type": "string"
        },
        {
          "internalType": "string",
          "name": "",
          "type": "string"
        },
        {
          "internalType": "string",
          "name": "",
          "type": "string"
        },
        {
          "internalType": "string",
          "name": "",
          "type": "string"
        },
        {
          "internalType": "string",
          "name": "",
          "type": "string"
        },
        {
          "internalType": "string",
          "name": "",
          "type": "string"
        },
        {
          "internalType": "address[]",
          "name": "",
          "type": "address[]"
        },
        {
          "internalType": "uint256",
          "name": "",
          "type": "uint256"
        }
      ],
      "stateMutability": "view",
      "type": "function",
      "constant": true
    },
    {
      "inputs": [
        {
          "internalType": "address",
          "name": "hospitalAddress",
          "type": "address"
        }
      ],
      "name": "getHospitalInfo",
      "outputs": [
        {
          "internalType": "string",
          "name": "",
          "type": "string"
        },
        {
          "internalType": "string",
          "name": "",
          "type": "string"
        },
        {
          "internalType": "string",
          "name": "",
          "type": "string"
        },
        {
          "internalType": "uint256",
          "name": "",
          "type": "uint256"
        }
      ],
      "stateMutability": "view",
      "type": "function",
      "constant": true
    },
    {
      "inputs": [
        {
          "internalType": "address",
          "name": "_hospitalAddr",
          "type": "address"
        }
      ],
      "name": "givePermission",
      "outputs": [],
      "stateMutability": "nonpayable",
      "type": "function"
    },
    {
      "inputs": [
        {
          "internalType": "address",
          "name": "_hospitalAddr",
          "type": "address"
        }
      ],
      "name": "revokeAccess",
      "outputs": [],
      "stateMutability": "nonpayable",
      "type": "function"
    },
    {
      "inputs": [
        {
          "internalType": "address",
          "name": "_patientAddr",
          "type": "address"
        }
      ],
      "name": "getAuthorizedHospitals",
      "outputs": [
        {
          "internalType": "address[]",
          "name": "",
          "type": "address[]"
        }
      ],
      "stateMutability": "view",
      "type": "function",
      "constant": true
    },
    {
      "inputs": [
        {
          "internalType": "address",
          "name": "_patientAddr",
          "type": "address"
        }
      ],
      "name": "getPendingRequests",
      "outputs": [
        {
          "internalType": "address[]",
          "name": "",
          "type": "address[]"
        }
      ],
      "stateMutability": "view",
      "type": "function",
      "constant": true
    },
    {
      "inputs": [],
      "name": "getPatientList",
      "outputs": [
        {
          "internalType": "address[]",
          "name": "",
          "type": "address[]"
        }
      ],
      "stateMutability": "view",
      "type": "function",
      "constant": true
    },
    {
      "inputs": [],
      "name": "getHospitalList",
      "outputs": [
        {
          "internalType": "address[]",
          "name": "",
          "type": "address[]"
        }
      ],
      "stateMutability": "view",
      "type": "function",
      "constant": true
    },
    {
      "inputs": [
        {
          "internalType": "string",
          "name": "query",
          "type": "string"
        }
      ],
      "name": "searchByName",
      "outputs": [
        {
          "internalType": "address[]",
          "name": "",
          "type": "address[]"
        }
      ],
      "stateMutability": "view",
      "type": "function",
      "constant": true
    }
  ],
  "bytecode": "0x608060405234801561001057600080fd5b50615f9e80620000216000396000f3fe608060405234801561001057600080fd5b50600436106101735760003560e01c806372339509116100de578063c82412b911610097578063e1de2d5911610071578063e1de2d59146104e0578063f05bfa7b146104fc578063f093cf801461052c578063f74258f91461055f57610173565b8063c82412b914610450578063d31e372914610480578063ddbbc35c146104b057610173565b8063723395091461034c5780638486f67a1461038557806385e68531146103b85780639ec310be146103d4578063babb1d41146103f0578063c3c5a5471461042057610173565b8063488ff1c811610130578063488ff1c81461025b5780634b4261781461028b578063503b1354146102c4578063526b44ac146102e25780635986de61146102fe5780636933e4141461032e57610173565b80630869cfbc1461017857806319406a64146101b057806329cf54a3146101e95780632d57f4ed146102055780633d391f70146102215780634150f5541461023d575b600080fd5b610192600480360381019061018d9190614e4c565b61057b565b6040516101a799989796959493929190615a03565b60405180910390f35b6101ca60048036038101906101c59190615255565b610a09565b6040516101e09a999897969594939291906157fc565b60405180910390f35b61020360048036038101906101fe91906150e3565b610e65565b005b61021f600480360381019061021a919061504c565b611103565b005b61023b60048036038101906102369190614e4c565b611197565b005b6102456114a7565b60405161025291906158eb565b60405180910390f35b61027560048036038101906102709190614fcf565b6119bb565b60405161028291906157b8565b60405180910390f35b6102a560048036038101906102a09190614e4c565b611a09565b6040516102bb9a99989796959493929190615928565b60405180910390f35b6102cc611f8e565b6040516102d991906158c9565b60405180910390f35b6102fc60048036038101906102f7919061504c565b61201c565b005b61031860048036038101906103139190614e4c565b6121e0565b60405161032591906158eb565b60405180910390f35b610336612d02565b60405161034391906158c9565b60405180910390f35b61036660048036038101906103619190614fcf565b612d90565b60405161037c9a999897969594939291906157fc565b60405180910390f35b61039f600480360381019061039a9190614e4c565b6131f9565b6040516103af9493929190615ac8565b60405180910390f35b6103d260048036038101906103cd9190614e4c565b613407565b005b6103ee60048036038101906103e99190614e75565b6136f6565b005b61040a60048036038101906104059190615255565b613b26565b60405161041791906157b8565b60405180910390f35b61043a60048036038101906104359190614e4c565b613b65565b604051610447919061590d565b60405180910390f35b61046a60048036038101906104659190615255565b613b85565b60405161047791906157b8565b60405180910390f35b61049a60048036038101906104959190614e4c565b613bc4565b6040516104a791906158c9565b60405180910390f35b6104ca60048036038101906104c5919061500b565b613c94565b6040516104d791906158c9565b60405180910390f35b6104fa60048036038101906104f591906150e3565b61415d565b005b61051660048036038101906105119190614e4c565b614273565b60405161052391906158c9565b60405180910390f35b61054660048036038101906105419190614e4c565b614340565b6040516105569493929190615ac8565b60405180910390f35b61057960048036038101906105749190614e75565b614508565b005b600460205280600052604060002060009150905080600001805461059e90615e21565b80601f01602080910402602001604051908101604052809291908181526020018280546105ca90615e21565b80156106175780601f106105ec57610100808354040283529160200191610617565b820191906000526020600020905b8154815290600101906020018083116105fa57829003601f168201915b50505050509080600101805461062c90615e21565b80601f016020809104026020016040519081016040528092919081815260200182805461065890615e21565b80156106a55780601f1061067a576101008083540402835291602001916106a5565b820191906000526020600020905b81548152906001019060200180831161068857829003601f168201915b5050505050908060020180546106ba90615e21565b80601f01602080910402602001604051908101604052809291908181526020018280546106e690615e21565b80156107335780601f1061070857610100808354040283529160200191610733565b820191906000526020600020905b81548152906001019060200180831161071657829003601f168201915b50505050509080600301805461074890615e21565b80601f016020809104026020016040519081016040528092919081815260200182805461077490615e21565b80156107c15780601f10610796576101008083540402835291602001916107c1565b820191906000526020600020905b8154815290600101906020018083116107a457829003601f168201915b5050505050908060040180546107d690615e21565b80601f016020809104026020016040519081016040528092919081815260200182805461080290615e21565b801561084f5780601f106108245761010080835404028352916020019161084f565b820191906000526020600020905b81548152906001019060200180831161083257829003601f168201915b50505050509080600501805461086490615e21565b80601f016020809104026020016040519081016040528092919081815260200182805461089090615e21565b80156108dd5780601f106108b2576101008083540402835291602001916108dd565b820191906000526020600020905b8154815290600101906020018083116108c057829003601f168201915b5050505050908060060180546108f290615e21565b80601f016020809104026020016040519081016040528092919081815260200182805461091e90615e21565b801561096b5780601f106109405761010080835404028352916020019161096b565b820191906000526020600020905b81548152906001019060200180831161094e57829003601f168201915b50505050509080600701805461098090615e21565b80601f01602080910402602001604051908101604052809291908181526020018280546109ac90615e21565b80156109f95780601f106109ce576101008083540402835291602001916109f9565b820191906000526020600020905b8154815290600101906020018083116109dc57829003601f168201915b5050505050908060090154905089565b60028181548110610a1957600080fd5b90600052602060002090600a02016000915090508060000160009054906101000a900473ffffffffffffffffffffffffffffffffffffffff16908060010160009054906101000a900473ffffffffffffffffffffffffffffffffffffffff1690806002018054610a8890615e21565b80601f0160208091040260200160405190810160405280929190818152602001828054610ab490615e21565b8015610b015780601f10610ad657610100808354040283529160200191610b01565b820191906000526020600020905b815481529060010190602001808311610ae457829003601f168201915b505050505090806003018054610b1690615e21565b80601f0160208091040260200160405190810160405280929190818152602001828054610b4290615e21565b8015610b8f5780601f10610b6457610100808354040283529160200191610b8f565b820191906000526020600020905b815481529060010190602001808311610b7257829003601f168201915b505050505090806004018054610ba490615e21565b80601f0160208091040260200160405190810160405280929190818152602001828054610bd090615e21565b8015610c1d5780601f10610bf257610100808354040283529160200191610c1d565b820191906000526020600020905b815481529060010190602001808311610c0057829003601f168201915b505050505090806005018054610c3290615e21565b80601f0160208091040260200160405190810160405280929190818152602001828054610c5e90615e21565b8015610cab5780601f10610c8057610100808354040283529160200191610cab565b820191906000526020600020905b815481529060010190602001808311610c8e57829003601f168201915b505050505090806006018054610cc090615e21565b80601f0160208091040260200160405190810160405280929190818152602001828054610cec90615e21565b8015610d395780601f10610d0e57610100808354040283529160200191610d39565b820191906000526020600020905b815481529060010190602001808311610d1c57829003601f168201915b505050505090806007018054610d4e90615e21565b80601f0160208091040260200160405190810160405280929190818152602001828054610d7a90615e21565b8015610dc75780601f10610d9c57610100808354040283529160200191610dc7565b820191906000526020600020905b815481529060010190602001808311610daa57829003601f168201915b505050505090806008018054610ddc90615e21565b80601f0160208091040260200160405190810160405280929190818152602001828054610e0890615e21565b8015610e555780601f10610e2a57610100808354040283529160200191610e55565b820191906000526020600020905b815481529060010190602001808311610e3857829003601f168201915b505050505090806009015490508a565b600360003373ffffffffffffffffffffffffffffffffffffffff1673ffffffffffffffffffffffffffffffffffffffff16815260200190815260200160002060009054906101000a900460ff1615610ef2576040517f08c379a0000000000000000000000000000000000000000000000000000000008152600401610ee990615b22565b60405180910390fd5b6000600460003373ffffffffffffffffffffffffffffffffffffffff1673ffffffffffffffffffffffffffffffffffffffff168152602001908152602001600020905088816000019080519060200190610f4d929190614c98565b5087816001019080519060200190610f66929190614c98565b5086816002019080519060200190610f7f929190614c98565b5085816003019080519060200190610f98929190614c98565b5084816004019080519060200190610fb1929190614c98565b5083816005019080519060200190610fca929190614c98565b5082816006019080519060200190610fe3929190614c98565b5081816007019080519060200190610ffc929190614c98565b504281600901819055506000339080600181540180825580915050600190039060005260206000200160009091909190916101000a81548173ffffffffffffffffffffffffffffffffffffffff021916908373ffffffffffffffffffffffffffffffffffffffff1602179055506001600360003373ffffffffffffffffffffffffffffffffffffffff1673ffffffffffffffffffffffffffffffffffffffff16815260200190815260200160002060006101000a81548160ff0219169083151502179055507fc9fa2003fca4ce0dfc8cb0deae32266b715536df6685365b05b5be96ede8e49c336040516110f091906157b8565b60405180910390a1505050505050505050565b6000600560003373ffffffffffffffffffffffffffffffffffffffff1673ffffffffffffffffffffffffffffffffffffffff16815260200190815260200160002090508381600001908051906020019061115e929190614c98565b5082816001019080519060200190611177929190614c98565b5081816002019080519060200190611190929190614c98565b5050505050565b6111a13382614ae9565b156111e1576040517f08c379a00000000000000000000000000000000000000000000000000000000081526004016111d890615bc2565b60405180910390fd5b6000805b600760003373ffffffffffffffffffffffffffffffffffffffff1673ffffffffffffffffffffffffffffffffffffffff16815260200190815260200160002080549050811015611320578273ffffffffffffffffffffffffffffffffffffffff16600760003373ffffffffffffffffffffffffffffffffffffffff1673ffffffffffffffffffffffffffffffffffffffff16815260200190815260200160002082815481106112bd577f4e487b7100000000000000000000000000000000000000000000000000000000600052603260045260246000fd5b9060005260206000200160009054906101000a900473ffffffffffffffffffffffffffffffffffffffff1673ffffffffffffffffffffffffffffffffffffffff16141561130d5760019150611320565b808061131890615e53565b9150506111e5565b508061146a57600460003373ffffffffffffffffffffffffffffffffffffffff1673ffffffffffffffffffffffffffffffffffffffff168152602001908152602001600020600801829080600181540180825580915050600190039060005260206000200160009091909190916101000a81548173ffffffffffffffffffffffffffffffffffffffff021916908373ffffffffffffffffffffffffffffffffffffffff160217905550600760003373ffffffffffffffffffffffffffffffffffffffff1673ffffffffffffffffffffffffffffffffffffffff168152602001908152602001600020829080600181540180825580915050600190039060005260206000200160009091909190916101000a81548173ffffffffffffffffffffffffffffffffffffffff021916908373ffffffffffffffffffffffffffffffffffffffff1602179055505b7f0ceda602a8e00ef76afe24614343eb6c034877c816b6184d641d2d8b713a0fc6338360405161149b9291906157d3565b60405180910390a15050565b60606002805480602002602001604051908101604052809291908181526020016000905b828210156119b257838290600052602060002090600a0201604051806101400160405290816000820160009054906101000a900473ffffffffffffffffffffffffffffffffffffffff1673ffffffffffffffffffffffffffffffffffffffff1673ffffffffffffffffffffffffffffffffffffffff1681526020016001820160009054906101000a900473ffffffffffffffffffffffffffffffffffffffff1673ffffffffffffffffffffffffffffffffffffffff1673ffffffffffffffffffffffffffffffffffffffff1681526020016002820180546115ab90615e21565b80601f01602080910402602001604051908101604052809291908181526020018280546115d790615e21565b80156116245780601f106115f957610100808354040283529160200191611624565b820191906000526020600020905b81548152906001019060200180831161160757829003601f168201915b5050505050815260200160038201805461163d90615e21565b80601f016020809104026020016040519081016040528092919081815260200182805461166990615e21565b80156116b65780601f1061168b576101008083540402835291602001916116b6565b820191906000526020600020905b81548152906001019060200180831161169957829003601f168201915b505050505081526020016004820180546116cf90615e21565b80601f01602080910402602001604051908101604052809291908181526020018280546116fb90615e21565b80156117485780601f1061171d57610100808354040283529160200191611748565b820191906000526020600020905b81548152906001019060200180831161172b57829003601f168201915b5050505050815260200160058201805461176190615e21565b80601f016020809104026020016040519081016040528092919081815260200182805461178d90615e21565b80156117da5780601f106117af576101008083540402835291602001916117da565b820191906000526020600020905b8154815290600101906020018083116117bd57829003601f168201915b505050505081526020016006820180546117f390615e21565b80601f016020809104026020016040519081016040528092919081815260200182805461181f90615e21565b801561186c5780601f106118415761010080835404028352916020019161186c565b820191906000526020600020905b81548152906001019060200180831161184f57829003601f168201915b5050505050815260200160078201805461188590615e21565b80601f01602080910402602001604051908101604052809291908181526020018280546118b190615e21565b80156118fe5780601f106118d3576101008083540402835291602001916118fe565b820191906000526020600020905b8154815290600101906020018083116118e157829003601f168201915b5050505050815260200160088201805461191790615e21565b80601f016020809104026020016040519081016040528092919081815260200182805461194390615e21565b80156119905780601f1061196557610100808354040283529160200191611990565b820191906000526020600020905b81548152906001019060200180831161197357829003601f168201915b50505050508152602001600982015481525050815260200190600101906114cb565b50505050905090565b600760205281600052604060002081815481106119d757600080fd5b906000526020600020016000915091509054906101000a900473ffffffffffffffffffffffffffffffffffffffff1681565b6060806060806060806060806060600080600460008d73ffffffffffffffffffffffffffffffffffffffff1673ffffffffffffffffffffffffffffffffffffffff16815260200190815260200160002090508060000181600101826002018360030184600401856005018660060187600701886008018960090154898054611a9090615e21565b80601f0160208091040260200160405190810160405280929190818152602001828054611abc90615e21565b8015611b095780601f10611ade57610100808354040283529160200191611b09565b820191906000526020600020905b815481529060010190602001808311611aec57829003601f168201915b50505050509950888054611b1c90615e21565b80601f0160208091040260200160405190810160405280929190818152602001828054611b4890615e21565b8015611b955780601f10611b6a57610100808354040283529160200191611b95565b820191906000526020600020905b815481529060010190602001808311611b7857829003601f168201915b50505050509850878054611ba890615e21565b80601f0160208091040260200160405190810160405280929190818152602001828054611bd490615e21565b8015611c215780601f10611bf657610100808354040283529160200191611c21565b820191906000526020600020905b815481529060010190602001808311611c0457829003601f168201915b50505050509750868054611c3490615e21565b80601f0160208091040260200160405190810160405280929190818152602001828054611c6090615e21565b8015611cad5780601f10611c8257610100808354040283529160200191611cad565b820191906000526020600020905b815481529060010190602001808311611c9057829003601f168201915b50505050509650858054611cc090615e21565b80601f0160208091040260200160405190810160405280929190818152602001828054611cec90615e21565b8015611d395780601f10611d0e57610100808354040283529160200191611d39565b820191906000526020600020905b815481529060010190602001808311611d1c57829003601f168201915b50505050509550848054611d4c90615e21565b80601f0160208091040260200160405190810160405280929190818152602001828054611d7890615e21565b8015611dc55780601f10611d9a57610100808354040283529160200191611dc5565b820191906000526020600020905b815481529060010190602001808311611da857829003601f168201915b50505050509450838054611dd890615e21565b80601f0160208091040260200160405190810160405280929190818152602001828054611e0490615e21565b8015611e515780601f10611e2657610100808354040283529160200191611e51565b820191906000526020600020905b815481529060010190602001808311611e3457829003601f168201915b50505050509350828054611e6490615e21565b80601f0160208091040260200160405190810160405280929190818152602001828054611e9090615e21565b8015611edd5780601f10611eb257610100808354040283529160200191611edd565b820191906000526020600020905b815481529060010190602001808311611ec057829003601f168201915b5050505050925081805480602002602001604051908101604052809291908181526020018280548015611f6557602002820191906000526020600020905b8160009054906101000a900473ffffffffffffffffffffffffffffffffffffffff1673ffffffffffffffffffffffffffffffffffffffff1681526020019060010190808311611f1b575b505050505091509a509a509a509a509a509a509a509a509a509a50509193959799509193959799565b6060600080548060200260200160405190810160405280929190818152602001828054801561201257602002820191906000526020600020905b8160009054906101000a900473ffffffffffffffffffffffffffffffffffffffff1673ffffffffffffffffffffffffffffffffffffffff1681526020019060010190808311611fc8575b5050505050905090565b600360003373ffffffffffffffffffffffffffffffffffffffff1673ffffffffffffffffffffffffffffffffffffffff16815260200190815260200160002060009054906101000a900460ff16156120a9576040517f08c379a00000000000000000000000000000000000000000000000000000000081526004016120a090615b22565b60405180910390fd5b6000600560003373ffffffffffffffffffffffffffffffffffffffff1673ffffffffffffffffffffffffffffffffffffffff168152602001908152602001600020905083816000019080519060200190612104929190614c98565b508281600101908051906020019061211d929190614c98565b5081816002019080519060200190612136929190614c98565b504281600301819055506001339080600181540180825580915050600190039060005260206000200160009091909190916101000a81548173ffffffffffffffffffffffffffffffffffffffff021916908373ffffffffffffffffffffffffffffffffffffffff1602179055507f380355b6fe4f9755ddcef7c5c195edae45bdb34953a41d82386022f3cd5899f0336040516121d291906157b8565b60405180910390a150505050565b60608173ffffffffffffffffffffffffffffffffffffffff163373ffffffffffffffffffffffffffffffffffffffff16141561276757600660008373ffffffffffffffffffffffffffffffffffffffff1673ffffffffffffffffffffffffffffffffffffffff168152602001908152602001600020805480602002602001604051908101604052809291908181526020016000905b8282101561275c57838290600052602060002090600a0201604051806101400160405290816000820160009054906101000a900473ffffffffffffffffffffffffffffffffffffffff1673ffffffffffffffffffffffffffffffffffffffff1673ffffffffffffffffffffffffffffffffffffffff1681526020016001820160009054906101000a900473ffffffffffffffffffffffffffffffffffffffff1673ffffffffffffffffffffffffffffffffffffffff1673ffffffffffffffffffffffffffffffffffffffff16815260200160028201805461235590615e21565b80601f016020809104026020016040519081016040528092919081815260200182805461238190615e21565b80156123ce5780601f106123a3576101008083540402835291602001916123ce565b820191906000526020600020905b8154815290600101906020018083116123b157829003601f168201915b505050505081526020016003820180546123e790615e21565b80601f016020809104026020016040519081016040528092919081815260200182805461241390615e21565b80156124605780601f1061243557610100808354040283529160200191612460565b820191906000526020600020905b81548152906001019060200180831161244357829003601f168201915b5050505050815260200160048201805461247990615e21565b80601f01602080910402602001604051908101604052809291908181526020018280546124a590615e21565b80156124f25780601f106124c7576101008083540402835291602001916124f2565b820191906000526020600020905b8154815290600101906020018083116124d557829003601f168201915b5050505050815260200160058201805461250b90615e21565b80601f016020809104026020016040519081016040528092919081815260200182805461253790615e21565b80156125845780601f1061255957610100808354040283529160200191612584565b820191906000526020600020905b81548152906001019060200180831161256757829003601f168201915b5050505050815260200160068201805461259d90615e21565b80601f01602080910402602001604051908101604052809291908181526020018280546125c990615e21565b80156126165780601f106125eb57610100808354040283529160200191612616565b820191906000526020600020905b8154815290600101906020018083116125f957829003601f168201915b5050505050815260200160078201805461262f90615e21565b80601f016020809104026020016040519081016040528092919081815260200182805461265b90615e21565b80156126a85780601f1061267d576101008083540402835291602001916126a8565b820191906000526020600020905b81548152906001019060200180831161268b57829003601f168201915b505050505081526020016008820180546126c190615e21565b80601f01602080910402602001604051908101604052809291908181526020018280546126ed90615e21565b801561273a5780601f1061270f5761010080835404028352916020019161273a565b820191906000526020600020905b81548152906001019060200180831161271d57829003601f168201915b5050505050815260200160098201548152505081526020019060010190612275565b505050509050612cfd565b6127718233614ae9565b6127b0576040517f08c379a00000000000000000000000000000000000000000000000000000000081526004016127a790615b62565b60405180910390fd5b600660008373ffffffffffffffffffffffffffffffffffffffff1673ffffffffffffffffffffffffffffffffffffffff168152602001908152602001600020805480602002602001604051908101604052809291908181526020016000905b82821015612cf657838290600052602060002090600a0201604051806101400160405290816000820160009054906101000a900473ffffffffffffffffffffffffffffffffffffffff1673ffffffffffffffffffffffffffffffffffffffff1673ffffffffffffffffffffffffffffffffffffffff1681526020016001820160009054906101000a900473ffffffffffffffffffffffffffffffffffffffff1673ffffffffffffffffffffffffffffffffffffffff1673ffffffffffffffffffffffffffffffffffffffff1681526020016002820180546128ef90615e21565b80601f016020809104026020016040519081016040528092919081815260200182805461291b90615e21565b80156129685780601f1061293d57610100808354040283529160200191612968565b820191906000526020600020905b81548152906001019060200180831161294b57829003601f168201915b5050505050815260200160038201805461298190615e21565b80601f01602080910402602001604051908101604052809291908181526020018280546129ad90615e21565b80156129fa5780601f106129cf576101008083540402835291602001916129fa565b820191906000526020600020905b8154815290600101906020018083116129dd57829003601f168201915b50505050508152602001600482018054612a1390615e21565b80601f0160208091040260200160405190810160405280929190818152602001828054612a3f90615e21565b8015612a8c5780601f10612a6157610100808354040283529160200191612a8c565b820191906000526020600020905b815481529060010190602001808311612a6f57829003601f168201915b50505050508152602001600582018054612aa590615e21565b80601f0160208091040260200160405190810160405280929190818152602001828054612ad190615e21565b8015612b1e5780601f10612af357610100808354040283529160200191612b1e565b820191906000526020600020905b815481529060010190602001808311612b0157829003601f168201915b50505050508152602001600682018054612b3790615e21565b80601f0160208091040260200160405190810160405280929190818152602001828054612b6390615e21565b8015612bb05780601f10612b8557610100808354040283529160200191612bb0565b820191906000526020600020905b815481529060010190602001808311612b9357829003601f168201915b50505050508152602001600782018054612bc990615e21565b80601f0160208091040260200160405190810160405280929190818152602001828054612bf590615e21565b8015612c425780601f10612c1757610100808354040283529160200191612c42565b820191906000526020600020905b815481529060010190602001808311612c2557829003601f168201915b50505050508152602001600882018054612c5b90615e21565b80601f0160208091040260200160405190810160405280929190818152602001828054612c8790615e21565b8015612cd45780601f10612ca957610100808354040283529160200191612cd4565b820191906000526020600020905b815481529060010190602001808311612cb757829003601f168201915b505050505081526020016009820154815250508152602001906001019061280f565b5050505090505b919050565b60606001805480602002602001604051908101604052809291908181526020018280548015612d8657602002820191906000526020600020905b8160009054906101000a900473ffffffffffffffffffffffffffffffffffffffff1673ffffffffffffffffffffffffffffffffffffffff1681526020019060010190808311612d3c575b5050505050905090565b60066020528160005260406000208181548110612dac57600080fd5b90600052602060002090600a0201600091509150508060000160009054906101000a900473ffffffffffffffffffffffffffffffffffffffff16908060010160009054906101000a900473ffffffffffffffffffffffffffffffffffffffff1690806002018054612e1c90615e21565b80601f0160208091040260200160405190810160405280929190818152602001828054612e4890615e21565b8015612e955780601f10612e6a57610100808354040283529160200191612e95565b820191906000526020600020905b815481529060010190602001808311612e7857829003601f168201915b505050505090806003018054612eaa90615e21565b80601f0160208091040260200160405190810160405280929190818152602001828054612ed690615e21565b8015612f235780601f10612ef857610100808354040283529160200191612f23565b820191906000526020600020905b815481529060010190602001808311612f0657829003601f168201915b505050505090806004018054612f3890615e21565b80601f0160208091040260200160405190810160405280929190818152602001828054612f6490615e21565b8015612fb15780601f10612f8657610100808354040283529160200191612fb1565b820191906000526020600020905b815481529060010190602001808311612f9457829003601f168201915b505050505090806005018054612fc690615e21565b80601f0160208091040260200160405190810160405280929190818152602001828054612ff290615e21565b801561303f5780601f106130145761010080835404028352916020019161303f565b820191906000526020600020905b81548152906001019060200180831161302257829003601f168201915b50505050509080600601805461305490615e21565b80601f016020809104026020016040519081016040528092919081815260200182805461308090615e21565b80156130cd5780601f106130a2576101008083540402835291602001916130cd565b820191906000526020600020905b8154815290600101906020018083116130b057829003601f168201915b5050505050908060070180546130e290615e21565b80601f016020809104026020016040519081016040528092919081815260200182805461310e90615e21565b801561315b5780601f106131305761010080835404028352916020019161315b565b820191906000526020600020905b81548152906001019060200180831161313e57829003601f168201915b50505050509080600801805461317090615e21565b80601f016020809104026020016040519081016040528092919081815260200182805461319c90615e21565b80156131e95780601f106131be576101008083540402835291602001916131e9565b820191906000526020600020905b8154815290600101906020018083116131cc57829003601f168201915b505050505090806009015490508a565b6060806060600080600560008773ffffffffffffffffffffffffffffffffffffffff1673ffffffffffffffffffffffffffffffffffffffff1681526020019081526020016000209050806000018160010182600201836003015483805461325f90615e21565b80601f016020809104026020016040519081016040528092919081815260200182805461328b90615e21565b80156132d85780601f106132ad576101008083540402835291602001916132d8565b820191906000526020600020905b8154815290600101906020018083116132bb57829003601f168201915b505050505093508280546132eb90615e21565b80601f016020809104026020016040519081016040528092919081815260200182805461331790615e21565b80156133645780601f1061333957610100808354040283529160200191613364565b820191906000526020600020905b81548152906001019060200180831161334757829003601f168201915b5050505050925081805461337790615e21565b80601f01602080910402602001604051908101604052809291908181526020018280546133a390615e21565b80156133f05780601f106133c5576101008083540402835291602001916133f0565b820191906000526020600020905b8154815290600101906020018083116133d357829003601f168201915b505050505091509450945094509450509193509193565b6134113382614ae9565b613450576040517f08c379a000000000000000000000000000000000000000000000000000000000815260040161344790615b82565b60405180910390fd5b6000600460003373ffffffffffffffffffffffffffffffffffffffff1673ffffffffffffffffffffffffffffffffffffffff168152602001908152602001600020600801905060005b81805490508110156136f0578273ffffffffffffffffffffffffffffffffffffffff168282815481106134f5577f4e487b7100000000000000000000000000000000000000000000000000000000600052603260045260246000fd5b9060005260206000200160009054906101000a900473ffffffffffffffffffffffffffffffffffffffff1673ffffffffffffffffffffffffffffffffffffffff1614156136dd57816001838054905061354e9190615d63565b81548110613585577f4e487b7100000000000000000000000000000000000000000000000000000000600052603260045260246000fd5b9060005260206000200160009054906101000a900473ffffffffffffffffffffffffffffffffffffffff168282815481106135e9577f4e487b7100000000000000000000000000000000000000000000000000000000600052603260045260246000fd5b9060005260206000200160006101000a81548173ffffffffffffffffffffffffffffffffffffffff021916908373ffffffffffffffffffffffffffffffffffffffff16021790555081805480613668577f4e487b7100000000000000000000000000000000000000000000000000000000600052603160045260246000fd5b6001900381819060005260206000200160006101000a81549073ffffffffffffffffffffffffffffffffffffffff021916905590557f5f708ef9fc37d19d88246c264788c8cdf640c9ff500bd168e941ea1421c4f6c433846040516136ce9291906157d3565b60405180910390a150506136f3565b80806136e890615e53565b915050613499565b50505b50565b6000600660008a73ffffffffffffffffffffffffffffffffffffffff1673ffffffffffffffffffffffffffffffffffffffff16815260200190815260200160002090506000818054905011613780576040517f08c379a000000000000000000000000000000000000000000000000000000000815260040161377790615ba2565b60405180910390fd5b60005b8180549050811015613ae0573373ffffffffffffffffffffffffffffffffffffffff168282815481106137df577f4e487b7100000000000000000000000000000000000000000000000000000000600052603260045260246000fd5b90600052602060002090600a020160010160009054906101000a900473ffffffffffffffffffffffffffffffffffffffff1673ffffffffffffffffffffffffffffffffffffffff161415613acd5788828281548110613867577f4e487b7100000000000000000000000000000000000000000000000000000000600052603260045260246000fd5b90600052602060002090600a0201600201908051906020019061388b929190614c98565b50878282815481106138c6577f4e487b7100000000000000000000000000000000000000000000000000000000600052603260045260246000fd5b90600052602060002090600a020160030190805190602001906138ea929190614c98565b5086828281548110613925577f4e487b7100000000000000000000000000000000000000000000000000000000600052603260045260246000fd5b90600052602060002090600a02016004019080519060200190613949929190614c98565b5085828281548110613984577f4e487b7100000000000000000000000000000000000000000000000000000000600052603260045260246000fd5b90600052602060002090600a020160050190805190602001906139a8929190614c98565b50848282815481106139e3577f4e487b7100000000000000000000000000000000000000000000000000000000600052603260045260246000fd5b90600052602060002090600a02016006019080519060200190613a07929190614c98565b5083828281548110613a42577f4e487b7100000000000000000000000000000000000000000000000000000000600052603260045260246000fd5b90600052602060002090600a02016007019080519060200190613a66929190614c98565b5082828281548110613aa1577f4e487b7100000000000000000000000000000000000000000000000000000000600052603260045260246000fd5b90600052602060002090600a02016008019080519060200190613ac5929190614c98565b505050613b1c565b8080613ad890615e53565b915050613783565b506040517f08c379a0000000000000000000000000000000000000000000000000000000008152600401613b1390615be2565b60405180910390fd5b5050505050505050565b60008181548110613b3657600080fd5b906000526020600020016000915054906101000a900473ffffffffffffffffffffffffffffffffffffffff1681565b60036020528060005260406000206000915054906101000a900460ff1681565b60018181548110613b9557600080fd5b906000526020600020016000915054906101000a900473ffffffffffffffffffffffffffffffffffffffff1681565b6060600460008373ffffffffffffffffffffffffffffffffffffffff1673ffffffffffffffffffffffffffffffffffffffff168152602001908152602001600020600801805480602002602001604051908101604052809291908181526020018280548015613c8857602002820191906000526020600020905b8160009054906101000a900473ffffffffffffffffffffffffffffffffffffffff1673ffffffffffffffffffffffffffffffffffffffff1681526020019060010190808311613c3e575b50505050509050919050565b60606000600180549050600080549050613cae9190615d0d565b67ffffffffffffffff811115613ced577f4e487b7100000000000000000000000000000000000000000000000000000000600052604160045260246000fd5b604051908082528060200260200182016040528015613d1b5781602001602082028036833780820191505090505b5090506000805b600080549050811015613f07576000808281548110613d6a577f4e487b7100000000000000000000000000000000000000000000000000000000600052603260045260246000fd5b9060005260206000200160009054906101000a900473ffffffffffffffffffffffffffffffffffffffff169050613e6b600460008373ffffffffffffffffffffffffffffffffffffffff1673ffffffffffffffffffffffffffffffffffffffff1681526020019081526020016000206000018054613de790615e21565b80601f0160208091040260200160405190810160405280929190818152602001828054613e1390615e21565b8015613e605780601f10613e3557610100808354040283529160200191613e60565b820191906000526020600020905b815481529060010190602001808311613e4357829003601f168201915b505050505087614c3f565b15613ef35780848481518110613eaa577f4e487b7100000000000000000000000000000000000000000000000000000000600052603260045260246000fd5b602002602001019073ffffffffffffffffffffffffffffffffffffffff16908173ffffffffffffffffffffffffffffffffffffffff16815250508280613eef90615e53565b9350505b508080613eff90615e53565b915050613d22565b5060005b60018054905081101561414f576140506005600060018481548110613f59577f4e487b7100000000000000000000000000000000000000000000000000000000600052603260045260246000fd5b9060005260206000200160009054906101000a900473ffffffffffffffffffffffffffffffffffffffff1673ffffffffffffffffffffffffffffffffffffffff1673ffffffffffffffffffffffffffffffffffffffff1681526020019081526020016000206000018054613fcc90615e21565b80601f0160208091040260200160405190810160405280929190818152602001828054613ff890615e21565b80156140455780601f1061401a57610100808354040283529160200191614045565b820191906000526020600020905b81548152906001019060200180831161402857829003601f168201915b505050505086614c3f565b1561413c576001818154811061408f577f4e487b7100000000000000000000000000000000000000000000000000000000600052603260045260246000fd5b9060005260206000200160009054906101000a900473ffffffffffffffffffffffffffffffffffffffff168383815181106140f3577f4e487b7100000000000000000000000000000000000000000000000000000000600052603260045260246000fd5b602002602001019073ffffffffffffffffffffffffffffffffffffffff16908173ffffffffffffffffffffffffffffffffffffffff1681525050818061413890615e53565b9250505b808061414790615e53565b915050613f0b565b508082528192505050919050565b6000600460003373ffffffffffffffffffffffffffffffffffffffff1673ffffffffffffffffffffffffffffffffffffffff1681526020019081526020016000209050888160000190805190602001906141b8929190614c98565b50878160010190805190602001906141d1929190614c98565b50868160020190805190602001906141ea929190614c98565b5085816003019080519060200190614203929190614c98565b508481600401908051906020019061421c929190614c98565b5083816005019080519060200190614235929190614c98565b508281600601908051906020019061424e929190614c98565b5081816007019080519060200190614267929190614c98565b50505050505050505050565b6060600760008373ffffffffffffffffffffffffffffffffffffffff1673ffffffffffffffffffffffffffffffffffffffff16815260200190815260200160002080548060200260200160405190810160405280929190818152602001828054801561433457602002820191906000526020600020905b8160009054906101000a900473ffffffffffffffffffffffffffffffffffffffff1673ffffffffffffffffffffffffffffffffffffffff16815260200190600101908083116142ea575b50505050509050919050565b600560205280600052604060002060009150905080600001805461436390615e21565b80601f016020809104026020016040519081016040528092919081815260200182805461438f90615e21565b80156143dc5780601f106143b1576101008083540402835291602001916143dc565b820191906000526020600020905b8154815290600101906020018083116143bf57829003601f168201915b5050505050908060010180546143f190615e21565b80601f016020809104026020016040519081016040528092919081815260200182805461441d90615e21565b801561446a5780601f1061443f5761010080835404028352916020019161446a565b820191906000526020600020905b81548152906001019060200180831161444d57829003601f168201915b50505050509080600201805461447f90615e21565b80601f01602080910402602001604051908101604052809291908181526020018280546144ab90615e21565b80156144f85780601f106144cd576101008083540402835291602001916144f8565b820191906000526020600020905b8154815290600101906020018083116144db57829003601f168201915b5050505050908060030154905084565b600360008973ffffffffffffffffffffffffffffffffffffffff1673ffffffffffffffffffffffffffffffffffffffff16815260200190815260200160002060009054906101000a900460ff16614594576040517f08c379a000000000000000000000000000000000000000000000000000000000815260040161458b90615b42565b60405180910390fd5b61459e8833614ae9565b61467f57600460008973ffffffffffffffffffffffffffffffffffffffff1673ffffffffffffffffffffffffffffffffffffffff168152602001908152602001600020600801339080600181540180825580915050600190039060005260206000200160009091909190916101000a81548173ffffffffffffffffffffffffffffffffffffffff021916908373ffffffffffffffffffffffffffffffffffffffff1602179055507f0ceda602a8e00ef76afe24614343eb6c034877c816b6184d641d2d8b713a0fc688336040516146769291906157d3565b60405180910390a15b614687614d1e565b88816000019073ffffffffffffffffffffffffffffffffffffffff16908173ffffffffffffffffffffffffffffffffffffffff168152505033816020019073ffffffffffffffffffffffffffffffffffffffff16908173ffffffffffffffffffffffffffffffffffffffff1681525050878160400181905250868160600181905250858160800181905250848160a00181905250838160c00181905250828160e00181905250818161010001819052504281610120018181525050600660008a73ffffffffffffffffffffffffffffffffffffffff1673ffffffffffffffffffffffffffffffffffffffff1681526020019081526020016000208190806001815401808255809150506001900390600052602060002090600a020160009091909190915060008201518160000160006101000a81548173ffffffffffffffffffffffffffffffffffffffff021916908373ffffffffffffffffffffffffffffffffffffffff16021790555060208201518160010160006101000a81548173ffffffffffffffffffffffffffffffffffffffff021916908373ffffffffffffffffffffffffffffffffffffffff1602179055506040820151816002019080519060200190614855929190614c98565b506060820151816003019080519060200190614872929190614c98565b50608082015181600401908051906020019061488f929190614c98565b5060a08201518160050190805190602001906148ac929190614c98565b5060c08201518160060190805190602001906148c9929190614c98565b5060e08201518160070190805190602001906148e6929190614c98565b50610100820151816008019080519060200190614904929190614c98565b506101208201518160090155505060028190806001815401808255809150506001900390600052602060002090600a020160009091909190915060008201518160000160006101000a81548173ffffffffffffffffffffffffffffffffffffffff021916908373ffffffffffffffffffffffffffffffffffffffff16021790555060208201518160010160006101000a81548173ffffffffffffffffffffffffffffffffffffffff021916908373ffffffffffffffffffffffffffffffffffffffff16021790555060408201518160020190805190602001906149e8929190614c98565b506060820151816003019080519060200190614a05929190614c98565b506080820151816004019080519060200190614a22929190614c98565b5060a0820151816005019080519060200190614a3f929190614c98565b5060c0820151816006019080519060200190614a5c929190614c98565b5060e0820151816007019080519060200190614a79929190614c98565b50610100820151816008019080519060200190614a97929190614c98565b50610120820151816009015550507fc7151deb4da24eab96e6b6ebf3dd8737aa991256fe726afc42b62e652564bef08933604051614ad69291906157d3565b60405180910390a1505050505050505050565b600080600090505b600460008573ffffffffffffffffffffffffffffffffffffffff1673ffffffffffffffffffffffffffffffffffffffff16815260200190815260200160002060080180549050811015614c33578273ffffffffffffffffffffffffffffffffffffffff16600460008673ffffffffffffffffffffffffffffffffffffffff1673ffffffffffffffffffffffffffffffffffffffff1681526020019081526020016000206008018281548110614bcf577f4e487b7100000000000000000000000000000000000000000000000000000000600052603260045260246000fd5b9060005260206000200160009054906101000a900473ffffffffffffffffffffffffffffffffffffffff1673ffffffffffffffffffffffffffffffffffffffff161415614c20576001915050614c39565b8080614c2b90615e53565b915050614af1565b50600090505b92915050565b600081604051602001614c5291906157a1565b6040516020818303038152906040528051906020012083604051602001614c7991906157a1565b6040516020818303038152906040528051906020012014905092915050565b828054614ca490615e21565b90600052602060002090601f016020900481019282614cc65760008555614d0d565b82601f10614cdf57805160ff1916838001178555614d0d565b82800160010185558215614d0d579182015b82811115614d0c578251825591602001919060010190614cf1565b5b509050614d1a9190614d9d565b5090565b604051806101400160405280600073ffffffffffffffffffffffffffffffffffffffff168152602001600073ffffffffffffffffffffffffffffffffffffffff16815260200160608152602001606081526020016060815260200160608152602001606081526020016060815260200160608152602001600081525090565b5b80821115614db6576000816000905550600101614d9e565b5090565b6000614dcd614dc884615c33565b615c02565b905082815260208101848484011115614de557600080fd5b614df0848285615ddf565b509392505050565b600081359050614e0781615f3a565b92915050565b600082601f830112614e1e57600080fd5b8135614e2e848260208601614dba565b91505092915050565b600081359050614e4681615f51565b92915050565b600060208284031215614e5e57600080fd5b6000614e6c84828501614df8565b91505092915050565b600080600080600080600080610100898b031215614e9257600080fd5b6000614ea08b828c01614df8565b985050602089013567ffffffffffffffff811115614ebd57600080fd5b614ec98b828c01614e0d565b975050604089013567ffffffffffffffff811115614ee657600080fd5b614ef28b828c01614e0d565b965050606089013567ffffffffffffffff811115614f0f57600080fd5b614f1b8b828c01614e0d565b955050608089013567ffffffffffffffff811115614f3857600080fd5b614f448b828c01614e0d565b94505060a089013567ffffffffffffffff811115614f6157600080fd5b614f6d8b828c01614e0d565b93505060c089013567ffffffffffffffff811115614f8a57600080fd5b614f968b828c01614e0d565b92505060e089013567ffffffffffffffff811115614fb357600080fd5b614fbf8b828c01614e0d565b9150509295985092959890939650565b60008060408385031215614fe257600080fd5b6000614ff085828601614df8565b925050602061500185828601614e37565b9150509250929050565b60006020828403121561501d57600080fd5b600082013567ffffffffffffffff81111561503757600080fd5b61504384828501614e0d565b91505092915050565b60008060006060848603121561506157600080fd5b600084013567ffffffffffffffff81111561507b57600080fd5b61508786828701614e0d565b935050602084013567ffffffffffffffff8111156150a457600080fd5b6150b086828701614e0d565b925050604084013567ffffffffffffffff8111156150cd57600080fd5b6150d986828701614e0d565b9150509250925092565b600080600080600080600080610100898b03121561510057600080fd5b600089013567ffffffffffffffff81111561511a57600080fd5b6151268b828c01614e0d565b985050602089013567ffffffffffffffff81111561514357600080fd5b61514f8b828c01614e0d565b975050604089013567ffffffffffffffff81111561516c57600080fd5b6151788b828c01614e0d565b965050606089013567ffffffffffffffff81111561519557600080fd5b6151a18b828c01614e0d565b955050608089013567ffffffffffffffff8111156151be57600080fd5b6151ca8b828c01614e0d565b94505060a089013567ffffffffffffffff8111156151e757600080fd5b6151f38b828c01614e0d565b93505060c089013567ffffffffffffffff81111561521057600080fd5b61521c8b828c01614e0d565b92505060e089013567ffffffffffffffff81111561523957600080fd5b6152458b828c01614e0d565b9150509295985092959890939650565b60006020828403121561526757600080fd5b600061527584828501614e37565b91505092915050565b600061528a83836152aa565b60208301905092915050565b60006152a2838361567f565b905092915050565b6152b381615d97565b82525050565b6152c281615d97565b82525050565b60006152d382615c83565b6152dd8185615cbe565b93506152e883615c63565b8060005b83811015615319578151615300888261527e565b975061530b83615ca4565b9250506001810190506152ec565b5085935050505092915050565b600061533182615c8e565b61533b8185615ccf565b93508360208202850161534d85615c73565b8060005b85811015615389578484038952815161536a8582615296565b945061537583615cb1565b925060208a01995050600181019050615351565b50829750879550505050505092915050565b6153a481615da9565b82525050565b60006153b582615c99565b6153bf8185615ce0565b93506153cf818560208601615dee565b6153d881615f29565b840191505092915050565b60006153ee82615c99565b6153f88185615cf1565b9350615408818560208601615dee565b61541181615f29565b840191505092915050565b600061542782615c99565b6154318185615d02565b9350615441818560208601615dee565b80840191505092915050565b600061545a601a83615cf1565b91507f50617469656e7420616c726561647920726567697374657265640000000000006000830152602082019050919050565b600061549a601683615cf1565b91507f50617469656e74206e6f742072656769737465726564000000000000000000006000830152602082019050919050565b60006154da603283615cf1565b91507f43616c6c6572206973206e6f7420617574686f72697a656420746f206163636560008301527f73732070617469656e74207265636f72647300000000000000000000000000006020830152604082019050919050565b6000615540601783615cf1565b91507f486f73706974616c206e6f7420617574686f72697a65640000000000000000006000830152602082019050919050565b6000615580603083615cf1565b91507f4e6f206d65646963616c20686973746f7279207265636f72647320666f756e6460008301527f20666f72207468652070617469656e74000000000000000000000000000000006020830152604082019050919050565b60006155e6601b83615cf1565b91507f486f73706974616c20616c726561647920617574686f72697a656400000000006000830152602082019050919050565b6000615626603b83615cf1565b91507f4d65646963616c20686973746f7279207265636f7264206e6f7420666f756e6460008301527f20666f72207468652073706563696669656420686f73706974616c00000000006020830152604082019050919050565b60006101408301600083015161569860008601826152aa565b5060208301516156ab60208601826152aa565b50604083015184820360408601526156c382826153aa565b915050606083015184820360608601526156dd82826153aa565b915050608083015184820360808601526156f782826153aa565b91505060a083015184820360a086015261571182826153aa565b91505060c083015184820360c086015261572b82826153aa565b91505060e083015184820360e086015261574582826153aa565b91505061010083015184820361010086015261576182826153aa565b915050610120830151615778610120860182615783565b508091505092915050565b61578c81615dd5565b82525050565b61579b81615dd5565b82525050565b60006157ad828461541c565b915081905092915050565b60006020820190506157cd60008301846152b9565b92915050565b60006040820190506157e860008301856152b9565b6157f560208301846152b9565b9392505050565b600061014082019050615812600083018d6152b9565b61581f602083018c6152b9565b8181036040830152615831818b6153e3565b90508181036060830152615845818a6153e3565b9050818103608083015261585981896153e3565b905081810360a083015261586d81886153e3565b905081810360c083015261588181876153e3565b905081810360e083015261589581866153e3565b90508181036101008301526158aa81856153e3565b90506158ba610120830184615792565b9b9a5050505050505050505050565b600060208201905081810360008301526158e381846152c8565b905092915050565b600060208201905081810360008301526159058184615326565b905092915050565b6000602082019050615922600083018461539b565b92915050565b6000610140820190508181036000830152615943818d6153e3565b90508181036020830152615957818c6153e3565b9050818103604083015261596b818b6153e3565b9050818103606083015261597f818a6153e3565b9050818103608083015261599381896153e3565b905081810360a08301526159a781886153e3565b905081810360c08301526159bb81876153e3565b905081810360e08301526159cf81866153e3565b90508181036101008301526159e481856152c8565b90506159f4610120830184615792565b9b9a5050505050505050505050565b6000610120820190508181036000830152615a1e818c6153e3565b90508181036020830152615a32818b6153e3565b90508181036040830152615a46818a6153e3565b90508181036060830152615a5a81896153e3565b90508181036080830152615a6e81886153e3565b905081810360a0830152615a8281876153e3565b905081810360c0830152615a9681866153e3565b905081810360e0830152615aaa81856153e3565b9050615aba610100830184615792565b9a9950505050505050505050565b60006080820190508181036000830152615ae281876153e3565b90508181036020830152615af681866153e3565b90508181036040830152615b0a81856153e3565b9050615b196060830184615792565b95945050505050565b60006020820190508181036000830152615b3b8161544d565b9050919050565b60006020820190508181036000830152615b5b8161548d565b9050919050565b60006020820190508181036000830152615b7b816154cd565b9050919050565b60006020820190508181036000830152615b9b81615533565b9050919050565b60006020820190508181036000830152615bbb81615573565b9050919050565b60006020820190508181036000830152615bdb816155d9565b9050919050565b60006020820190508181036000830152615bfb81615619565b9050919050565b6000604051905081810181811067ffffffffffffffff82111715615c2957615c28615efa565b5b8060405250919050565b600067ffffffffffffffff821115615c4e57615c4d615efa565b5b601f19601f8301169050602081019050919050565b6000819050602082019050919050565b6000819050602082019050919050565b600081519050919050565b600081519050919050565b600081519050919050565b6000602082019050919050565b6000602082019050919050565b600082825260208201905092915050565b600082825260208201905092915050565b600082825260208201905092915050565b600082825260208201905092915050565b600081905092915050565b6000615d1882615dd5565b9150615d2383615dd5565b9250827fffffffffffffffffffffffffffffffffffffffffffffffffffffffffffffffff03821115615d5857615d57615e9c565b5b828201905092915050565b6000615d6e82615dd5565b9150615d7983615dd5565b925082821015615d8c57615d8b615e9c565b5b828203905092915050565b6000615da282615db5565b9050919050565b60008115159050919050565b600073ffffffffffffffffffffffffffffffffffffffff82169050919050565b6000819050919050565b82818337600083830152505050565b60005b83811015615e0c578082015181840152602081019050615df1565b83811115615e1b576000848401525b50505050565b60006002820490506001821680615e3957607f821691505b60208210811415615e4d57615e4c615ecb565b5b50919050565b6000615e5e82615dd5565b91507fffffffffffffffffffffffffffffffffffffffffffffffffffffffffffffffff821415615e9157615e90615e9c565b5b600182019050919050565b7f4e487b7100000000000000000000000000000000000000000000000000000000600052601160045260246000fd5b7f4e487b7100000000000000000000000000000000000000000000000000000000600052602260045260246000fd5b7f4e487b7100000000000000000000000000000000000000000000000000000000600052604160045260246000fd5b6000601f19601f8301169050919050565b615f4381615d97565b8114615f4e57600080fd5b50565b615f5a81615dd5565b8114615f6557600080fd5b5056fea2646970667358221220e1e25771aa9b41dacf0aade1497d923aa543cd3a6dc1c37cf5cfd8eef9590f3d64736f6c63430008000033",
  "immutableReferences": {},
  "source": "// SPDX-License-Identifier: MIT\r\npragma solidity ^0.8.0;\r\n\r\n//Note kapag ginawa na ang backend. If halo halong characters ang isa-save, dapat may \" \"\r\n//bago ilagay sa function ng smart contract\r\n\r\ncontract MediVerse {\r\n    \r\n    struct Patient {\r\n        string name;\r\n        string age;\r\n        string gender;\r\n        string dateOfBirth;\r\n        string height;\r\n        string weight;\r\n        string contactNum;\r\n        string addr;\r\n        address[] authorizedHospitals;\r\n        uint registrationDate;\r\n    }\r\n\r\n    struct Hospital {\r\n        string name;\r\n        string contactNum;\r\n        string addr;\r\n        uint registrationDate;\r\n    }\r\n\r\n    struct MedicalHistory {\r\n        address patientAddr;\r\n        address hospitalAddr;\r\n        string physician;\r\n        string diagnosis;\r\n        string signsAndSymptoms;\r\n        string treatmentProcedure;\r\n        string tests;\r\n        string medications;\r\n        string admission;\r\n        uint creationDate;\r\n    }\r\n\r\n    address[] public patientList; // Dynamic array to store the addresses of registered patients\r\n    address[] public hospitalList;\r\n    MedicalHistory[] public medicalHistoryList;\r\n    mapping(address => bool) public isRegistered;\r\n    mapping(address => Patient) public patients;\r\n    mapping(address => Hospital) public hospitals;\r\n    mapping(address => MedicalHistory[]) public medicalHistories;\r\n    mapping(address => address[]) public pendingRequests;\r\n\r\n    event PatientRegistered(address patientAddr);\r\n    event HospitalRegistered(address hospitalAddr);\r\n    event MedicalHistoryAdded(address patientAddr, address hospitalAddr);\r\n    event GeneralHealthProfileAdded(address patientAddr, address hospitalAddr);\r\n    event PermissionGranted(address patientAddr, address hospitalAddr);\r\n    event PermissionRevoked(address patientAddr, address hospitalAddr);\r\n\r\n    modifier isRegister() {\r\n        require(isRegistered[msg.sender], \"Account is not registered\");\r\n        _;\r\n    }\r\n\r\n    modifier isAuthorized(address _patientAddr) {\r\n        require(\r\n            isHospitalAuthorized(_patientAddr, msg.sender),\r\n            \"Hospital not authorized to access patient records\"\r\n        );\r\n        _;\r\n    }\r\n\r\n    function isHospitalAuthorized(address _patientAddr, address _hospitalAddr) internal view returns (bool) {\r\n        for (uint i = 0; i < patients[_patientAddr].authorizedHospitals.length; i++) {\r\n            if (patients[_patientAddr].authorizedHospitals[i] == _hospitalAddr) {\r\n                return true;\r\n            }\r\n        }\r\n        return false;\r\n    }\r\n\r\n    function registerPatient(\r\n        string memory _name,\r\n        string memory _age,\r\n        string memory _gender,\r\n        string memory _dateOfBirth,\r\n        string memory _height,\r\n        string memory _weight,\r\n        string memory _contactNum,\r\n        string memory _address\r\n    ) public {\r\n        require(!isRegistered[msg.sender], \"Patient already registered\");\r\n\r\n        Patient storage patient = patients[msg.sender];\r\n        patient.name = _name;\r\n        patient.age = _age;\r\n        patient.gender = _gender;\r\n        patient.dateOfBirth = _dateOfBirth;\r\n        patient.height = _height;\r\n        patient.weight = _weight;\r\n        patient.contactNum = _contactNum;\r\n        patient.addr = _address;\r\n\r\n        patient.registrationDate = block.timestamp;\r\n        patientList.push(msg.sender);\r\n        isRegistered[msg.sender] = true;\r\n        emit PatientRegistered(msg.sender);\r\n    }\r\n\r\n    function editPatientDetails(\r\n        string memory _name,\r\n        string memory _age,\r\n        string memory _gender,\r\n        string memory _dateOfBirth,\r\n        string memory _height,\r\n        string memory _weight,\r\n        string memory _contactNum,\r\n        string memory _address\r\n    ) public {\r\n        Patient storage patient = patients[msg.sender];\r\n        patient.name = _name;\r\n        patient.age = _age;\r\n        patient.gender = _gender;\r\n        patient.dateOfBirth = _dateOfBirth;\r\n        patient.height = _height;\r\n        patient.weight = _weight;\r\n        patient.contactNum = _contactNum;\r\n        patient.addr = _address;\r\n    }\r\n\r\n    function registerHospital(\r\n        string memory _name,\r\n        string memory _contactNum,\r\n        string memory _address\r\n    ) public {\r\n        require(!isRegistered[msg.sender], \"Patient already registered\");\r\n        Hospital storage hospital = hospitals[msg.sender];\r\n        hospital.name = _name;\r\n        hospital.contactNum = _contactNum;\r\n        hospital.addr = _address;\r\n        hospital.registrationDate = block.timestamp;\r\n\r\n        hospitalList.push(msg.sender);\r\n        emit HospitalRegistered(msg.sender);\r\n    }\r\n\r\n    function editHospitalDetails(\r\n        string memory _name,\r\n        string memory _contactNum,\r\n        string memory _addr\r\n    ) public {\r\n        Hospital storage hospital = hospitals[msg.sender];\r\n        hospital.name = _name;\r\n        hospital.contactNum = _contactNum;\r\n        hospital.addr = _addr;\r\n    }\r\n\r\n    function addMedicalHistory(\r\n        address _patientAddr,\r\n        string memory _physician,\r\n        string memory _diagnosis,\r\n        string memory _signsAndSymptoms,\r\n        string memory _treatmentProcedure,\r\n        string memory _tests,\r\n        string memory _medications,\r\n        string memory _admission\r\n    ) public {\r\n        // Check if the patient is registered\r\n        require(isRegistered[_patientAddr], \"Patient not registered\");\r\n\r\n        // Check if the hospital is authorized, if not, grant access\r\n        if (!isHospitalAuthorized(_patientAddr, msg.sender)) {\r\n            patients[_patientAddr].authorizedHospitals.push(msg.sender);\r\n            emit PermissionGranted(_patientAddr, msg.sender);\r\n        }\r\n\r\n        MedicalHistory memory history;\r\n        history.patientAddr = _patientAddr;\r\n        history.hospitalAddr = msg.sender;\r\n        history.physician = _physician;\r\n        history.diagnosis = _diagnosis;\r\n        history.signsAndSymptoms = _signsAndSymptoms;\r\n        history.treatmentProcedure = _treatmentProcedure;\r\n        history.tests = _tests;\r\n        history.medications = _medications;\r\n        history.admission = _admission;\r\n        history.creationDate = block.timestamp;\r\n\r\n        medicalHistories[_patientAddr].push(history);\r\n        medicalHistoryList.push(history);\r\n        emit MedicalHistoryAdded(_patientAddr, msg.sender);\r\n    }\r\n\r\n    function editMedicalHistory(\r\n        address _patientAddr,\r\n        string memory _physician,\r\n        string memory _diagnosis,\r\n        string memory _signsAndSymptoms,\r\n        string memory _treatmentProcedure,\r\n        string memory _tests,\r\n        string memory _medications,\r\n        string memory _admission\r\n    ) public {\r\n        MedicalHistory[] storage history = medicalHistories[_patientAddr];\r\n\r\n        // Check if there are any records for the specified patient\r\n        require(history.length > 0, \"No medical history records found for the patient\");\r\n\r\n        // Iterate through the records to find the one matching your criteria\r\n        for (uint i = 0; i < history.length; i++) {\r\n            if (history[i].hospitalAddr == msg.sender) {\r\n                // Update the record with the new information\r\n                history[i].physician = _physician;\r\n                history[i].diagnosis = _diagnosis;\r\n                history[i].signsAndSymptoms = _signsAndSymptoms;\r\n                history[i].treatmentProcedure = _treatmentProcedure;\r\n                history[i].tests = _tests;\r\n                history[i].medications = _medications;\r\n                history[i].admission = _admission;\r\n\r\n                return; // Exit the function after updating the record\r\n            }\r\n        }\r\n        // If no matching record is found, revert the transaction\r\n        revert(\"Medical history record not found for the specified hospital\");\r\n    }\r\n\r\n    // Function that retrieves medical records for a specific patient\r\n    function getMedicalHistory(address _patientAddr) public view returns (MedicalHistory[] memory) {\r\n        // Check if the caller is the patient themselves\r\n        if (msg.sender == _patientAddr) {\r\n            // Return medical records for the patient\r\n            return medicalHistories[_patientAddr];\r\n        } else {\r\n            // Check if the caller is authorized to access the patient's medical history\r\n            require(isHospitalAuthorized(_patientAddr, msg.sender), \"Caller is not authorized to access patient records\");\r\n            // Return medical records for the patient\r\n            return medicalHistories[_patientAddr];\r\n        }\r\n    }\r\n\r\n    // function that will retrieve all the list of medical record\r\n    function getAllMedicalHistory() public view returns (MedicalHistory[] memory) {\r\n        return medicalHistoryList;\r\n    }\r\n\r\n    // Function to retrieve patient information\r\n    function getPatientInfo(address patientAddress) external view returns (string memory, string memory, string memory, string memory, string memory, string memory, string memory, string memory, address[] memory, uint) {\r\n        Patient storage patient = patients[patientAddress];\r\n        return (patient.name, patient.age, patient.gender, patient.dateOfBirth, patient.height, patient.weight, patient.contactNum, patient.addr, patient.authorizedHospitals, patient.registrationDate);\r\n    }\r\n\r\n    // Function to retrieve hospital information\r\n    function getHospitalInfo(address hospitalAddress) external view returns (string memory, string memory, string memory, uint) {\r\n        Hospital storage hospital = hospitals[hospitalAddress];\r\n        return (hospital.name, hospital.contactNum, hospital.addr, hospital.registrationDate);\r\n    }\r\n    \r\n    function givePermission(address _hospitalAddr) public  {\r\n        require(!isHospitalAuthorized(msg.sender, _hospitalAddr), \"Hospital already authorized\");\r\n\r\n        // Check if the hospital is already in the pending requests\r\n        bool isPending = false;\r\n        for (uint i = 0; i < pendingRequests[msg.sender].length; i++) {\r\n            if (pendingRequests[msg.sender][i] == _hospitalAddr) {\r\n                isPending = true;\r\n                break;\r\n            }\r\n        }\r\n        // If not in pending, add to both authorized and pending requests\r\n        if (!isPending) {\r\n            patients[msg.sender].authorizedHospitals.push(_hospitalAddr);\r\n            pendingRequests[msg.sender].push(_hospitalAddr);\r\n        }\r\n\r\n        emit PermissionGranted(msg.sender, _hospitalAddr);\r\n    }\r\n\r\n    function revokeAccess(address _hospitalAddr) public {\r\n        require(isHospitalAuthorized(msg.sender, _hospitalAddr), \"Hospital not authorized\");\r\n\r\n        address[] storage authorizedHospitals = patients[msg.sender].authorizedHospitals;\r\n        for (uint i = 0; i < authorizedHospitals.length; i++) {\r\n            if (authorizedHospitals[i] == _hospitalAddr) {\r\n                authorizedHospitals[i] = authorizedHospitals[authorizedHospitals.length - 1];\r\n                authorizedHospitals.pop();\r\n                emit PermissionRevoked(msg.sender, _hospitalAddr);\r\n                return;\r\n            }\r\n        }\r\n    }\r\n\r\n    /** FUNCTION THAT WILL GET THE LIST OF AUTHORIZED HOSPITALS TO VIEW PATIENTS MEDICAL RECORDS **/\r\n    function getAuthorizedHospitals(address _patientAddr) public view returns (address[] memory) {\r\n        return patients[_patientAddr].authorizedHospitals;\r\n    }\r\n\r\n    // Function to get the list of pending permission requests for a patient\r\n    function getPendingRequests(address _patientAddr) public view returns (address[] memory) {\r\n        return pendingRequests[_patientAddr];\r\n    }\r\n\r\n    function getPatientList() public view returns (address[] memory) {\r\n        return patientList;\r\n    }\r\n\r\n    function getHospitalList() public view returns (address[] memory) {\r\n        return hospitalList;\r\n    }\r\n\r\n    function searchByName(string memory query) public view returns (address[] memory) {\r\n        address[] memory searchResults = new address[](patientList.length + hospitalList.length);\r\n\r\n        uint resultIndex = 0;\r\n\r\n        // Search among patients by name\r\n        for (uint i = 0; i < patientList.length; i++) {\r\n            address patientAddr = patientList[i];\r\n            if (compareStringsIgnoreCase(patients[patientAddr].name, query)) {\r\n                searchResults[resultIndex] = patientAddr;\r\n                resultIndex++;\r\n            }\r\n        }\r\n\r\n        // Search among hospitals by name\r\n        for (uint j = 0; j < hospitalList.length; j++) {\r\n            if (compareStringsIgnoreCase(hospitals[hospitalList[j]].name, query)) {\r\n                searchResults[resultIndex] = hospitalList[j];\r\n                resultIndex++;\r\n            }\r\n        }\r\n\r\n        // Resize the array to remove any unused slots\r\n        assembly {\r\n            mstore(searchResults, resultIndex)\r\n        }\r\n\r\n        return searchResults;\r\n    }\r\n\r\n    function compareStringsIgnoreCase(string memory a, string memory b) internal pure returns (bool) {\r\n        return (keccak256(abi.encodePacked((a))) == keccak256(abi.encodePacked((b))));\r\n    }\r\n}",
  "sourcePath": "C:\\Users\\Abby\\Desktop\\APPCON 2023\\MediVerse-Web3-Dapp\\contracts\\MediVerse.sol",
  "compiler": {
    "name": "solc",
    "version": "0.8.0+commit.c7dfd78e.Emscripten.clang"
  },
  "schemaVersion": "3.4.16",
  "updatedAt": "2024-03-26T11:55:48.978Z",
  "networkType": "ethereum",
  "devdoc": {
    "kind": "dev",
    "methods": {},
    "version": 1
  },
  "userdoc": {
    "kind": "user",
    "methods": {
      "getAuthorizedHospitals(address)": {
        "notice": "FUNCTION THAT WILL GET THE LIST OF AUTHORIZED HOSPITALS TO VIEW PATIENTS MEDICAL RECORDS *"
      }
    },
    "version": 1
  }
}