{
  "contractName": "MediVerse",
  "abi": [
    {
      "inputs": [
        {
          "internalType": "uint256",
          "name": "",
          "type": "uint256"
        }
      ],
      "name": "hospitalList",
      "outputs": [
        {
          "internalType": "address",
          "name": "",
          "type": "address"
        }
      ],
      "stateMutability": "view",
      "type": "function",
      "constant": true
    },
    {
      "inputs": [
        {
          "internalType": "address",
          "name": "",
          "type": "address"
        }
      ],
      "name": "hospitals",
      "outputs": [
        {
          "internalType": "string",
          "name": "name",
          "type": "string"
        },
        {
          "internalType": "string",
          "name": "contactNum",
          "type": "string"
        },
        {
          "internalType": "string",
          "name": "addr",
          "type": "string"
        },
        {
          "internalType": "uint256",
          "name": "creationDate",
          "type": "uint256"
        }
      ],
      "stateMutability": "view",
      "type": "function",
      "constant": true
    },
    {
      "inputs": [
        {
          "internalType": "address",
          "name": "",
          "type": "address"
        }
      ],
      "name": "isRegistered",
      "outputs": [
        {
          "internalType": "bool",
          "name": "",
          "type": "bool"
        }
      ],
      "stateMutability": "view",
      "type": "function",
      "constant": true
    },
    {
      "inputs": [
        {
          "internalType": "address",
          "name": "",
          "type": "address"
        },
        {
          "internalType": "uint256",
          "name": "",
          "type": "uint256"
        }
      ],
      "name": "medicalHistories",
      "outputs": [
        {
          "internalType": "address",
          "name": "patientAddr",
          "type": "address"
        },
        {
          "internalType": "address",
          "name": "hospitalAddr",
          "type": "address"
        },
        {
          "internalType": "string",
          "name": "physician",
          "type": "string"
        },
        {
          "internalType": "string",
          "name": "diagnosis",
          "type": "string"
        },
        {
          "internalType": "string",
          "name": "signsAndSymptoms",
          "type": "string"
        },
        {
          "internalType": "string",
          "name": "treatmentProcedure",
          "type": "string"
        },
        {
          "internalType": "string",
          "name": "tests",
          "type": "string"
        },
        {
          "internalType": "string",
          "name": "medications",
          "type": "string"
        },
        {
          "internalType": "string",
          "name": "admission",
          "type": "string"
        },
        {
          "internalType": "uint256",
          "name": "creationDate",
          "type": "uint256"
        }
      ],
      "stateMutability": "view",
      "type": "function",
      "constant": true
    },
    {
      "inputs": [
        {
          "internalType": "uint256",
          "name": "",
          "type": "uint256"
        }
      ],
      "name": "medicalHistoryList",
      "outputs": [
        {
          "internalType": "address",
          "name": "patientAddr",
          "type": "address"
        },
        {
          "internalType": "address",
          "name": "hospitalAddr",
          "type": "address"
        },
        {
          "internalType": "string",
          "name": "physician",
          "type": "string"
        },
        {
          "internalType": "string",
          "name": "diagnosis",
          "type": "string"
        },
        {
          "internalType": "string",
          "name": "signsAndSymptoms",
          "type": "string"
        },
        {
          "internalType": "string",
          "name": "treatmentProcedure",
          "type": "string"
        },
        {
          "internalType": "string",
          "name": "tests",
          "type": "string"
        },
        {
          "internalType": "string",
          "name": "medications",
          "type": "string"
        },
        {
          "internalType": "string",
          "name": "admission",
          "type": "string"
        },
        {
          "internalType": "uint256",
          "name": "creationDate",
          "type": "uint256"
        }
      ],
      "stateMutability": "view",
      "type": "function",
      "constant": true
    },
    {
      "inputs": [
        {
          "internalType": "uint256",
          "name": "",
          "type": "uint256"
        }
      ],
      "name": "patientList",
      "outputs": [
        {
          "internalType": "address",
          "name": "",
          "type": "address"
        }
      ],
      "stateMutability": "view",
      "type": "function",
      "constant": true
    },
    {
      "inputs": [
        {
          "internalType": "address",
          "name": "",
          "type": "address"
        }
      ],
      "name": "patients",
      "outputs": [
        {
          "internalType": "string",
          "name": "name",
          "type": "string"
        },
        {
          "internalType": "string",
          "name": "age",
          "type": "string"
        },
        {
          "internalType": "string",
          "name": "gender",
          "type": "string"
        },
        {
          "internalType": "string",
          "name": "dateOfBirth",
          "type": "string"
        },
        {
          "internalType": "string",
          "name": "height",
          "type": "string"
        },
        {
          "internalType": "string",
          "name": "weight",
          "type": "string"
        },
        {
          "internalType": "string",
          "name": "contactNum",
          "type": "string"
        },
        {
          "internalType": "string",
          "name": "addr",
          "type": "string"
        },
        {
          "internalType": "uint256",
          "name": "creationDate",
          "type": "uint256"
        }
      ],
      "stateMutability": "view",
      "type": "function",
      "constant": true
    },
    {
      "inputs": [
        {
          "internalType": "string",
          "name": "_name",
          "type": "string"
        },
        {
          "internalType": "string",
          "name": "_age",
          "type": "string"
        },
        {
          "internalType": "string",
          "name": "_gender",
          "type": "string"
        },
        {
          "internalType": "string",
          "name": "_dateOfBirth",
          "type": "string"
        },
        {
          "internalType": "string",
          "name": "_height",
          "type": "string"
        },
        {
          "internalType": "string",
          "name": "_weight",
          "type": "string"
        },
        {
          "internalType": "string",
          "name": "_contactNum",
          "type": "string"
        },
        {
          "internalType": "string",
          "name": "_address",
          "type": "string"
        }
      ],
      "name": "registerPatient",
      "outputs": [],
      "stateMutability": "nonpayable",
      "type": "function"
    },
    {
      "inputs": [
        {
          "internalType": "string",
          "name": "_name",
          "type": "string"
        },
        {
          "internalType": "string",
          "name": "_age",
          "type": "string"
        },
        {
          "internalType": "string",
          "name": "_gender",
          "type": "string"
        },
        {
          "internalType": "string",
          "name": "_dateOfBirth",
          "type": "string"
        },
        {
          "internalType": "string",
          "name": "_height",
          "type": "string"
        },
        {
          "internalType": "string",
          "name": "_weight",
          "type": "string"
        },
        {
          "internalType": "string",
          "name": "_contactNum",
          "type": "string"
        },
        {
          "internalType": "string",
          "name": "_address",
          "type": "string"
        }
      ],
      "name": "editPatientDetails",
      "outputs": [],
      "stateMutability": "nonpayable",
      "type": "function"
    },
    {
      "inputs": [
        {
          "internalType": "string",
          "name": "_name",
          "type": "string"
        },
        {
          "internalType": "string",
          "name": "_contactNum",
          "type": "string"
        },
        {
          "internalType": "string",
          "name": "_address",
          "type": "string"
        }
      ],
      "name": "registerHospital",
      "outputs": [],
      "stateMutability": "nonpayable",
      "type": "function"
    },
    {
      "inputs": [
        {
          "internalType": "string",
          "name": "_name",
          "type": "string"
        },
        {
          "internalType": "string",
          "name": "_contactNum",
          "type": "string"
        },
        {
          "internalType": "string",
          "name": "_addr",
          "type": "string"
        }
      ],
      "name": "editHospitalDetails",
      "outputs": [],
      "stateMutability": "nonpayable",
      "type": "function"
    },
    {
      "inputs": [
        {
          "internalType": "address",
          "name": "_patientAddr",
          "type": "address"
        },
        {
          "internalType": "string",
          "name": "_physician",
          "type": "string"
        },
        {
          "internalType": "string",
          "name": "_diagnosis",
          "type": "string"
        },
        {
          "internalType": "string",
          "name": "_signsAndSymptoms",
          "type": "string"
        },
        {
          "internalType": "string",
          "name": "_treatmentProcedure",
          "type": "string"
        },
        {
          "internalType": "string",
          "name": "_tests",
          "type": "string"
        },
        {
          "internalType": "string",
          "name": "_medications",
          "type": "string"
        },
        {
          "internalType": "string",
          "name": "_admission",
          "type": "string"
        }
      ],
      "name": "addMedicalHistory",
      "outputs": [],
      "stateMutability": "nonpayable",
      "type": "function"
    },
    {
      "inputs": [
        {
          "internalType": "address",
          "name": "_patientAddr",
          "type": "address"
        },
        {
          "internalType": "string",
          "name": "_physician",
          "type": "string"
        },
        {
          "internalType": "string",
          "name": "_diagnosis",
          "type": "string"
        },
        {
          "internalType": "string",
          "name": "_signsAndSymptoms",
          "type": "string"
        },
        {
          "internalType": "string",
          "name": "_treatmentProcedure",
          "type": "string"
        },
        {
          "internalType": "string",
          "name": "_tests",
          "type": "string"
        },
        {
          "internalType": "string",
          "name": "_medications",
          "type": "string"
        },
        {
          "internalType": "string",
          "name": "_admission",
          "type": "string"
        }
      ],
      "name": "editMedicalHistory",
      "outputs": [],
      "stateMutability": "nonpayable",
      "type": "function"
    },
    {
      "inputs": [
        {
          "internalType": "address",
          "name": "_patientAddr",
          "type": "address"
        }
      ],
      "name": "getMedicalHistory",
      "outputs": [
        {
          "components": [
            {
              "internalType": "address",
              "name": "patientAddr",
              "type": "address"
            },
            {
              "internalType": "address",
              "name": "hospitalAddr",
              "type": "address"
            },
            {
              "internalType": "string",
              "name": "physician",
              "type": "string"
            },
            {
              "internalType": "string",
              "name": "diagnosis",
              "type": "string"
            },
            {
              "internalType": "string",
              "name": "signsAndSymptoms",
              "type": "string"
            },
            {
              "internalType": "string",
              "name": "treatmentProcedure",
              "type": "string"
            },
            {
              "internalType": "string",
              "name": "tests",
              "type": "string"
            },
            {
              "internalType": "string",
              "name": "medications",
              "type": "string"
            },
            {
              "internalType": "string",
              "name": "admission",
              "type": "string"
            },
            {
              "internalType": "uint256",
              "name": "creationDate",
              "type": "uint256"
            }
          ],
          "internalType": "struct MediVerse.MedicalHistory[]",
          "name": "",
          "type": "tuple[]"
        }
      ],
      "stateMutability": "view",
      "type": "function",
      "constant": true
    },
    {
      "inputs": [],
      "name": "getAllMedicalHistory",
      "outputs": [
        {
          "components": [
            {
              "internalType": "address",
              "name": "patientAddr",
              "type": "address"
            },
            {
              "internalType": "address",
              "name": "hospitalAddr",
              "type": "address"
            },
            {
              "internalType": "string",
              "name": "physician",
              "type": "string"
            },
            {
              "internalType": "string",
              "name": "diagnosis",
              "type": "string"
            },
            {
              "internalType": "string",
              "name": "signsAndSymptoms",
              "type": "string"
            },
            {
              "internalType": "string",
              "name": "treatmentProcedure",
              "type": "string"
            },
            {
              "internalType": "string",
              "name": "tests",
              "type": "string"
            },
            {
              "internalType": "string",
              "name": "medications",
              "type": "string"
            },
            {
              "internalType": "string",
              "name": "admission",
              "type": "string"
            },
            {
              "internalType": "uint256",
              "name": "creationDate",
              "type": "uint256"
            }
          ],
          "internalType": "struct MediVerse.MedicalHistory[]",
          "name": "",
          "type": "tuple[]"
        }
      ],
      "stateMutability": "view",
      "type": "function",
      "constant": true
    },
    {
      "inputs": [
        {
          "internalType": "address",
          "name": "patientAddress",
          "type": "address"
        }
      ],
      "name": "getPatientInfo",
      "outputs": [
        {
          "internalType": "string",
          "name": "",
          "type": "string"
        },
        {
          "internalType": "string",
          "name": "",
          "type": "string"
        },
        {
          "internalType": "string",
          "name": "",
          "type": "string"
        },
        {
          "internalType": "string",
          "name": "",
          "type": "string"
        },
        {
          "internalType": "string",
          "name": "",
          "type": "string"
        },
        {
          "internalType": "string",
          "name": "",
          "type": "string"
        },
        {
          "internalType": "string",
          "name": "",
          "type": "string"
        },
        {
          "internalType": "string",
          "name": "",
          "type": "string"
        },
        {
          "internalType": "address[]",
          "name": "",
          "type": "address[]"
        },
        {
          "internalType": "uint256",
          "name": "",
          "type": "uint256"
        }
      ],
      "stateMutability": "view",
      "type": "function",
      "constant": true
    },
    {
      "inputs": [
        {
          "internalType": "address",
          "name": "hospitalAddress",
          "type": "address"
        }
      ],
      "name": "getHospitalInfo",
      "outputs": [
        {
          "internalType": "string",
          "name": "",
          "type": "string"
        },
        {
          "internalType": "string",
          "name": "",
          "type": "string"
        },
        {
          "internalType": "string",
          "name": "",
          "type": "string"
        },
        {
          "internalType": "uint256",
          "name": "",
          "type": "uint256"
        }
      ],
      "stateMutability": "view",
      "type": "function",
      "constant": true
    },
    {
      "inputs": [
        {
          "internalType": "address",
          "name": "_hospitalAddr",
          "type": "address"
        }
      ],
      "name": "givePermission",
      "outputs": [],
      "stateMutability": "nonpayable",
      "type": "function"
    },
    {
      "inputs": [
        {
          "internalType": "address",
          "name": "_hospitalAddr",
          "type": "address"
        }
      ],
      "name": "revokeAccess",
      "outputs": [],
      "stateMutability": "nonpayable",
      "type": "function"
    },
    {
      "inputs": [
        {
          "internalType": "address",
          "name": "_patientAddr",
          "type": "address"
        }
      ],
      "name": "requestPermission",
      "outputs": [],
      "stateMutability": "nonpayable",
      "type": "function"
    },
    {
      "inputs": [
        {
          "internalType": "address",
          "name": "_patientAddr",
          "type": "address"
        }
      ],
      "name": "getAuthorizedHospitals",
      "outputs": [
        {
          "internalType": "address[]",
          "name": "",
          "type": "address[]"
        }
      ],
      "stateMutability": "view",
      "type": "function",
      "constant": true
    },
    {
      "inputs": [
        {
          "internalType": "address",
          "name": "_patientAddr",
          "type": "address"
        }
      ],
      "name": "getPendingRequests",
      "outputs": [
        {
          "internalType": "address[]",
          "name": "",
          "type": "address[]"
        }
      ],
      "stateMutability": "view",
      "type": "function",
      "constant": true
    },
    {
      "inputs": [],
      "name": "getPatientList",
      "outputs": [
        {
          "internalType": "address[]",
          "name": "",
          "type": "address[]"
        }
      ],
      "stateMutability": "view",
      "type": "function",
      "constant": true
    },
    {
      "inputs": [],
      "name": "getHospitalList",
      "outputs": [
        {
          "internalType": "address[]",
          "name": "",
          "type": "address[]"
        }
      ],
      "stateMutability": "view",
      "type": "function",
      "constant": true
    },
    {
      "inputs": [
        {
          "internalType": "string",
          "name": "query",
          "type": "string"
        }
      ],
      "name": "searchByName",
      "outputs": [
        {
          "internalType": "address[]",
          "name": "",
          "type": "address[]"
        }
      ],
      "stateMutability": "view",
      "type": "function",
      "constant": true
    }
  ],
  "bytecode": "0x608060405234801561001057600080fd5b506159fe80620000216000396000f3fe608060405234801561001057600080fd5b50600436106101585760003560e01c806372339509116100c3578063c82412b91161007c578063c82412b914610421578063d31e372914610451578063e1de2d5914610481578063f05bfa7b1461049d578063f093cf80146104cd578063f74258f91461050057610158565b8063723395091461031d5780638486f67a1461035657806385e68531146103895780639ec310be146103a5578063babb1d41146103c1578063c3c5a547146103f157610158565b80634b426178116101155780634b42617814610240578063503b135414610279578063507f478b14610297578063526b44ac146102b35780635986de61146102cf5780636933e414146102ff57610158565b80630869cfbc1461015d57806319406a641461019557806329cf54a3146101ce5780632d57f4ed146101ea5780633d391f70146102065780634150f55414610222575b600080fd5b610177600480360381019061017291906148ff565b61051c565b60405161018c99989796959493929190615484565b60405180910390f35b6101af60048036038101906101aa9190614cc7565b6109aa565b6040516101c59a9998979695949392919061527d565b60405180910390f35b6101e860048036038101906101e39190614b55565b610e06565b005b61020460048036038101906101ff9190614abe565b61106d565b005b610220600480360381019061021b91906148ff565b61110a565b005b61022a61145e565b604051610237919061536c565b60405180910390f35b61025a600480360381019061025591906148ff565b611972565b6040516102709a999897969594939291906153a9565b60405180910390f35b610281611ef7565b60405161028e919061534a565b60405180910390f35b6102b160048036038101906102ac91906148ff565b611f85565b005b6102cd60048036038101906102c89190614abe565b612072565b005b6102e960048036038101906102e491906148ff565b612257565b6040516102f6919061536c565b60405180910390f35b610307612d79565b604051610314919061534a565b60405180910390f35b61033760048036038101906103329190614a82565b612e07565b60405161034d9a9998979695949392919061527d565b60405180910390f35b610370600480360381019061036b91906148ff565b613270565b6040516103809493929190615549565b60405180910390f35b6103a3600480360381019061039e91906148ff565b61347e565b005b6103bf60048036038101906103ba9190614928565b613734565b005b6103db60048036038101906103d69190614cc7565b613b64565b6040516103e89190615262565b60405180910390f35b61040b600480360381019061040691906148ff565b613ba3565b604051610418919061538e565b60405180910390f35b61043b60048036038101906104369190614cc7565b613bc3565b6040516104489190615262565b60405180910390f35b61046b600480360381019061046691906148ff565b613c02565b604051610478919061534a565b60405180910390f35b61049b60048036038101906104969190614b55565b613cd2565b005b6104b760048036038101906104b291906148ff565b613df1565b6040516104c4919061534a565b60405180910390f35b6104e760048036038101906104e291906148ff565b613ebe565b6040516104f79493929190615549565b60405180910390f35b61051a60048036038101906105159190614928565b614086565b005b600460205280600052604060002060009150905080600001805461053f90615881565b80601f016020809104026020016040519081016040528092919081815260200182805461056b90615881565b80156105b85780601f1061058d576101008083540402835291602001916105b8565b820191906000526020600020905b81548152906001019060200180831161059b57829003601f168201915b5050505050908060010180546105cd90615881565b80601f01602080910402602001604051908101604052809291908181526020018280546105f990615881565b80156106465780601f1061061b57610100808354040283529160200191610646565b820191906000526020600020905b81548152906001019060200180831161062957829003601f168201915b50505050509080600201805461065b90615881565b80601f016020809104026020016040519081016040528092919081815260200182805461068790615881565b80156106d45780601f106106a9576101008083540402835291602001916106d4565b820191906000526020600020905b8154815290600101906020018083116106b757829003601f168201915b5050505050908060030180546106e990615881565b80601f016020809104026020016040519081016040528092919081815260200182805461071590615881565b80156107625780601f1061073757610100808354040283529160200191610762565b820191906000526020600020905b81548152906001019060200180831161074557829003601f168201915b50505050509080600401805461077790615881565b80601f01602080910402602001604051908101604052809291908181526020018280546107a390615881565b80156107f05780601f106107c5576101008083540402835291602001916107f0565b820191906000526020600020905b8154815290600101906020018083116107d357829003601f168201915b50505050509080600501805461080590615881565b80601f016020809104026020016040519081016040528092919081815260200182805461083190615881565b801561087e5780601f106108535761010080835404028352916020019161087e565b820191906000526020600020905b81548152906001019060200180831161086157829003601f168201915b50505050509080600601805461089390615881565b80601f01602080910402602001604051908101604052809291908181526020018280546108bf90615881565b801561090c5780601f106108e15761010080835404028352916020019161090c565b820191906000526020600020905b8154815290600101906020018083116108ef57829003601f168201915b50505050509080600701805461092190615881565b80601f016020809104026020016040519081016040528092919081815260200182805461094d90615881565b801561099a5780601f1061096f5761010080835404028352916020019161099a565b820191906000526020600020905b81548152906001019060200180831161097d57829003601f168201915b5050505050908060090154905089565b600281815481106109ba57600080fd5b90600052602060002090600a02016000915090508060000160009054906101000a900473ffffffffffffffffffffffffffffffffffffffff16908060010160009054906101000a900473ffffffffffffffffffffffffffffffffffffffff1690806002018054610a2990615881565b80601f0160208091040260200160405190810160405280929190818152602001828054610a5590615881565b8015610aa25780601f10610a7757610100808354040283529160200191610aa2565b820191906000526020600020905b815481529060010190602001808311610a8557829003601f168201915b505050505090806003018054610ab790615881565b80601f0160208091040260200160405190810160405280929190818152602001828054610ae390615881565b8015610b305780601f10610b0557610100808354040283529160200191610b30565b820191906000526020600020905b815481529060010190602001808311610b1357829003601f168201915b505050505090806004018054610b4590615881565b80601f0160208091040260200160405190810160405280929190818152602001828054610b7190615881565b8015610bbe5780601f10610b9357610100808354040283529160200191610bbe565b820191906000526020600020905b815481529060010190602001808311610ba157829003601f168201915b505050505090806005018054610bd390615881565b80601f0160208091040260200160405190810160405280929190818152602001828054610bff90615881565b8015610c4c5780601f10610c2157610100808354040283529160200191610c4c565b820191906000526020600020905b815481529060010190602001808311610c2f57829003601f168201915b505050505090806006018054610c6190615881565b80601f0160208091040260200160405190810160405280929190818152602001828054610c8d90615881565b8015610cda5780601f10610caf57610100808354040283529160200191610cda565b820191906000526020600020905b815481529060010190602001808311610cbd57829003601f168201915b505050505090806007018054610cef90615881565b80601f0160208091040260200160405190810160405280929190818152602001828054610d1b90615881565b8015610d685780601f10610d3d57610100808354040283529160200191610d68565b820191906000526020600020905b815481529060010190602001808311610d4b57829003601f168201915b505050505090806008018054610d7d90615881565b80601f0160208091040260200160405190810160405280929190818152602001828054610da990615881565b8015610df65780601f10610dcb57610100808354040283529160200191610df6565b820191906000526020600020905b815481529060010190602001808311610dd957829003601f168201915b505050505090806009015490508a565b600360003373ffffffffffffffffffffffffffffffffffffffff1673ffffffffffffffffffffffffffffffffffffffff16815260200190815260200160002060009054906101000a900460ff1615610e93576040517f08c379a0000000000000000000000000000000000000000000000000000000008152600401610e8a906155a3565b60405180910390fd5b6000600460003373ffffffffffffffffffffffffffffffffffffffff1673ffffffffffffffffffffffffffffffffffffffff168152602001908152602001600020905088816000019080519060200190610eee92919061474b565b5087816001019080519060200190610f0792919061474b565b5086816002019080519060200190610f2092919061474b565b5085816003019080519060200190610f3992919061474b565b5084816004019080519060200190610f5292919061474b565b5083816005019080519060200190610f6b92919061474b565b5082816006019080519060200190610f8492919061474b565b5081816007019080519060200190610f9d92919061474b565b504281600901819055506000339080600181540180825580915050600190039060005260206000200160009091909190916101000a81548173ffffffffffffffffffffffffffffffffffffffff021916908373ffffffffffffffffffffffffffffffffffffffff1602179055506001600360003373ffffffffffffffffffffffffffffffffffffffff1673ffffffffffffffffffffffffffffffffffffffff16815260200190815260200160002060006101000a81548160ff021916908315150217905550505050505050505050565b6000600560003373ffffffffffffffffffffffffffffffffffffffff1673ffffffffffffffffffffffffffffffffffffffff1681526020019081526020016000209050838160000190805190602001906110c892919061474b565b50828160010190805190602001906110e192919061474b565b50818160020190805190602001906110fa92919061474b565b5042816003018190555050505050565b61111433826145f5565b15611154576040517f08c379a000000000000000000000000000000000000000000000000000000000815260040161114b90615683565b60405180910390fd5b6000600760003373ffffffffffffffffffffffffffffffffffffffff1673ffffffffffffffffffffffffffffffffffffffff168152602001908152602001600020905060005b81805490508110156113b6578273ffffffffffffffffffffffffffffffffffffffff168282815481106111f6577f4e487b7100000000000000000000000000000000000000000000000000000000600052603260045260246000fd5b9060005260206000200160009054906101000a900473ffffffffffffffffffffffffffffffffffffffff1673ffffffffffffffffffffffffffffffffffffffff1614156113a357816001838054905061124f91906157c3565b81548110611286577f4e487b7100000000000000000000000000000000000000000000000000000000600052603260045260246000fd5b9060005260206000200160009054906101000a900473ffffffffffffffffffffffffffffffffffffffff168282815481106112ea577f4e487b7100000000000000000000000000000000000000000000000000000000600052603260045260246000fd5b9060005260206000200160006101000a81548173ffffffffffffffffffffffffffffffffffffffff021916908373ffffffffffffffffffffffffffffffffffffffff16021790555081805480611369577f4e487b7100000000000000000000000000000000000000000000000000000000600052603160045260246000fd5b6001900381819060005260206000200160006101000a81549073ffffffffffffffffffffffffffffffffffffffff021916905590556113b6565b80806113ae906158b3565b91505061119a565b50600460003373ffffffffffffffffffffffffffffffffffffffff1673ffffffffffffffffffffffffffffffffffffffff168152602001908152602001600020600801829080600181540180825580915050600190039060005260206000200160009091909190916101000a81548173ffffffffffffffffffffffffffffffffffffffff021916908373ffffffffffffffffffffffffffffffffffffffff1602179055505050565b60606002805480602002602001604051908101604052809291908181526020016000905b8282101561196957838290600052602060002090600a0201604051806101400160405290816000820160009054906101000a900473ffffffffffffffffffffffffffffffffffffffff1673ffffffffffffffffffffffffffffffffffffffff1673ffffffffffffffffffffffffffffffffffffffff1681526020016001820160009054906101000a900473ffffffffffffffffffffffffffffffffffffffff1673ffffffffffffffffffffffffffffffffffffffff1673ffffffffffffffffffffffffffffffffffffffff16815260200160028201805461156290615881565b80601f016020809104026020016040519081016040528092919081815260200182805461158e90615881565b80156115db5780601f106115b0576101008083540402835291602001916115db565b820191906000526020600020905b8154815290600101906020018083116115be57829003601f168201915b505050505081526020016003820180546115f490615881565b80601f016020809104026020016040519081016040528092919081815260200182805461162090615881565b801561166d5780601f106116425761010080835404028352916020019161166d565b820191906000526020600020905b81548152906001019060200180831161165057829003601f168201915b5050505050815260200160048201805461168690615881565b80601f01602080910402602001604051908101604052809291908181526020018280546116b290615881565b80156116ff5780601f106116d4576101008083540402835291602001916116ff565b820191906000526020600020905b8154815290600101906020018083116116e257829003601f168201915b5050505050815260200160058201805461171890615881565b80601f016020809104026020016040519081016040528092919081815260200182805461174490615881565b80156117915780601f1061176657610100808354040283529160200191611791565b820191906000526020600020905b81548152906001019060200180831161177457829003601f168201915b505050505081526020016006820180546117aa90615881565b80601f01602080910402602001604051908101604052809291908181526020018280546117d690615881565b80156118235780601f106117f857610100808354040283529160200191611823565b820191906000526020600020905b81548152906001019060200180831161180657829003601f168201915b5050505050815260200160078201805461183c90615881565b80601f016020809104026020016040519081016040528092919081815260200182805461186890615881565b80156118b55780601f1061188a576101008083540402835291602001916118b5565b820191906000526020600020905b81548152906001019060200180831161189857829003601f168201915b505050505081526020016008820180546118ce90615881565b80601f01602080910402602001604051908101604052809291908181526020018280546118fa90615881565b80156119475780601f1061191c57610100808354040283529160200191611947565b820191906000526020600020905b81548152906001019060200180831161192a57829003601f168201915b5050505050815260200160098201548152505081526020019060010190611482565b50505050905090565b6060806060806060806060806060600080600460008d73ffffffffffffffffffffffffffffffffffffffff1673ffffffffffffffffffffffffffffffffffffffff168152602001908152602001600020905080600001816001018260020183600301846004018560050186600601876007018860080189600901548980546119f990615881565b80601f0160208091040260200160405190810160405280929190818152602001828054611a2590615881565b8015611a725780601f10611a4757610100808354040283529160200191611a72565b820191906000526020600020905b815481529060010190602001808311611a5557829003601f168201915b50505050509950888054611a8590615881565b80601f0160208091040260200160405190810160405280929190818152602001828054611ab190615881565b8015611afe5780601f10611ad357610100808354040283529160200191611afe565b820191906000526020600020905b815481529060010190602001808311611ae157829003601f168201915b50505050509850878054611b1190615881565b80601f0160208091040260200160405190810160405280929190818152602001828054611b3d90615881565b8015611b8a5780601f10611b5f57610100808354040283529160200191611b8a565b820191906000526020600020905b815481529060010190602001808311611b6d57829003601f168201915b50505050509750868054611b9d90615881565b80601f0160208091040260200160405190810160405280929190818152602001828054611bc990615881565b8015611c165780601f10611beb57610100808354040283529160200191611c16565b820191906000526020600020905b815481529060010190602001808311611bf957829003601f168201915b50505050509650858054611c2990615881565b80601f0160208091040260200160405190810160405280929190818152602001828054611c5590615881565b8015611ca25780601f10611c7757610100808354040283529160200191611ca2565b820191906000526020600020905b815481529060010190602001808311611c8557829003601f168201915b50505050509550848054611cb590615881565b80601f0160208091040260200160405190810160405280929190818152602001828054611ce190615881565b8015611d2e5780601f10611d0357610100808354040283529160200191611d2e565b820191906000526020600020905b815481529060010190602001808311611d1157829003601f168201915b50505050509450838054611d4190615881565b80601f0160208091040260200160405190810160405280929190818152602001828054611d6d90615881565b8015611dba5780601f10611d8f57610100808354040283529160200191611dba565b820191906000526020600020905b815481529060010190602001808311611d9d57829003601f168201915b50505050509350828054611dcd90615881565b80601f0160208091040260200160405190810160405280929190818152602001828054611df990615881565b8015611e465780601f10611e1b57610100808354040283529160200191611e46565b820191906000526020600020905b815481529060010190602001808311611e2957829003601f168201915b5050505050925081805480602002602001604051908101604052809291908181526020018280548015611ece57602002820191906000526020600020905b8160009054906101000a900473ffffffffffffffffffffffffffffffffffffffff1673ffffffffffffffffffffffffffffffffffffffff1681526020019060010190808311611e84575b505050505091509a509a509a509a509a509a509a509a509a509a50509193959799509193959799565b60606000805480602002602001604051908101604052809291908181526020018280548015611f7b57602002820191906000526020600020905b8160009054906101000a900473ffffffffffffffffffffffffffffffffffffffff1673ffffffffffffffffffffffffffffffffffffffff1681526020019060010190808311611f31575b5050505050905090565b611f8f81336145f5565b15611fcf576040517f08c379a0000000000000000000000000000000000000000000000000000000008152600401611fc690615643565b60405180910390fd5b600760008273ffffffffffffffffffffffffffffffffffffffff1673ffffffffffffffffffffffffffffffffffffffff168152602001908152602001600020339080600181540180825580915050600190039060005260206000200160009091909190916101000a81548173ffffffffffffffffffffffffffffffffffffffff021916908373ffffffffffffffffffffffffffffffffffffffff16021790555050565b600360003373ffffffffffffffffffffffffffffffffffffffff1673ffffffffffffffffffffffffffffffffffffffff16815260200190815260200160002060009054906101000a900460ff16156120ff576040517f08c379a00000000000000000000000000000000000000000000000000000000081526004016120f690615663565b60405180910390fd5b6000600560003373ffffffffffffffffffffffffffffffffffffffff1673ffffffffffffffffffffffffffffffffffffffff16815260200190815260200160002090508381600001908051906020019061215a92919061474b565b508281600101908051906020019061217392919061474b565b508181600201908051906020019061218c92919061474b565b504281600301819055506001339080600181540180825580915050600190039060005260206000200160009091909190916101000a81548173ffffffffffffffffffffffffffffffffffffffff021916908373ffffffffffffffffffffffffffffffffffffffff1602179055506001600360003373ffffffffffffffffffffffffffffffffffffffff1673ffffffffffffffffffffffffffffffffffffffff16815260200190815260200160002060006101000a81548160ff02191690831515021790555050505050565b60608173ffffffffffffffffffffffffffffffffffffffff163373ffffffffffffffffffffffffffffffffffffffff1614156127de57600660008373ffffffffffffffffffffffffffffffffffffffff1673ffffffffffffffffffffffffffffffffffffffff168152602001908152602001600020805480602002602001604051908101604052809291908181526020016000905b828210156127d357838290600052602060002090600a0201604051806101400160405290816000820160009054906101000a900473ffffffffffffffffffffffffffffffffffffffff1673ffffffffffffffffffffffffffffffffffffffff1673ffffffffffffffffffffffffffffffffffffffff1681526020016001820160009054906101000a900473ffffffffffffffffffffffffffffffffffffffff1673ffffffffffffffffffffffffffffffffffffffff1673ffffffffffffffffffffffffffffffffffffffff1681526020016002820180546123cc90615881565b80601f01602080910402602001604051908101604052809291908181526020018280546123f890615881565b80156124455780601f1061241a57610100808354040283529160200191612445565b820191906000526020600020905b81548152906001019060200180831161242857829003601f168201915b5050505050815260200160038201805461245e90615881565b80601f016020809104026020016040519081016040528092919081815260200182805461248a90615881565b80156124d75780601f106124ac576101008083540402835291602001916124d7565b820191906000526020600020905b8154815290600101906020018083116124ba57829003601f168201915b505050505081526020016004820180546124f090615881565b80601f016020809104026020016040519081016040528092919081815260200182805461251c90615881565b80156125695780601f1061253e57610100808354040283529160200191612569565b820191906000526020600020905b81548152906001019060200180831161254c57829003601f168201915b5050505050815260200160058201805461258290615881565b80601f01602080910402602001604051908101604052809291908181526020018280546125ae90615881565b80156125fb5780601f106125d0576101008083540402835291602001916125fb565b820191906000526020600020905b8154815290600101906020018083116125de57829003601f168201915b5050505050815260200160068201805461261490615881565b80601f016020809104026020016040519081016040528092919081815260200182805461264090615881565b801561268d5780601f106126625761010080835404028352916020019161268d565b820191906000526020600020905b81548152906001019060200180831161267057829003601f168201915b505050505081526020016007820180546126a690615881565b80601f01602080910402602001604051908101604052809291908181526020018280546126d290615881565b801561271f5780601f106126f45761010080835404028352916020019161271f565b820191906000526020600020905b81548152906001019060200180831161270257829003601f168201915b5050505050815260200160088201805461273890615881565b80601f016020809104026020016040519081016040528092919081815260200182805461276490615881565b80156127b15780601f10612786576101008083540402835291602001916127b1565b820191906000526020600020905b81548152906001019060200180831161279457829003601f168201915b50505050508152602001600982015481525050815260200190600101906122ec565b505050509050612d74565b6127e882336145f5565b612827576040517f08c379a000000000000000000000000000000000000000000000000000000000815260040161281e906155e3565b60405180910390fd5b600660008373ffffffffffffffffffffffffffffffffffffffff1673ffffffffffffffffffffffffffffffffffffffff168152602001908152602001600020805480602002602001604051908101604052809291908181526020016000905b82821015612d6d57838290600052602060002090600a0201604051806101400160405290816000820160009054906101000a900473ffffffffffffffffffffffffffffffffffffffff1673ffffffffffffffffffffffffffffffffffffffff1673ffffffffffffffffffffffffffffffffffffffff1681526020016001820160009054906101000a900473ffffffffffffffffffffffffffffffffffffffff1673ffffffffffffffffffffffffffffffffffffffff1673ffffffffffffffffffffffffffffffffffffffff16815260200160028201805461296690615881565b80601f016020809104026020016040519081016040528092919081815260200182805461299290615881565b80156129df5780601f106129b4576101008083540402835291602001916129df565b820191906000526020600020905b8154815290600101906020018083116129c257829003601f168201915b505050505081526020016003820180546129f890615881565b80601f0160208091040260200160405190810160405280929190818152602001828054612a2490615881565b8015612a715780601f10612a4657610100808354040283529160200191612a71565b820191906000526020600020905b815481529060010190602001808311612a5457829003601f168201915b50505050508152602001600482018054612a8a90615881565b80601f0160208091040260200160405190810160405280929190818152602001828054612ab690615881565b8015612b035780601f10612ad857610100808354040283529160200191612b03565b820191906000526020600020905b815481529060010190602001808311612ae657829003601f168201915b50505050508152602001600582018054612b1c90615881565b80601f0160208091040260200160405190810160405280929190818152602001828054612b4890615881565b8015612b955780601f10612b6a57610100808354040283529160200191612b95565b820191906000526020600020905b815481529060010190602001808311612b7857829003601f168201915b50505050508152602001600682018054612bae90615881565b80601f0160208091040260200160405190810160405280929190818152602001828054612bda90615881565b8015612c275780601f10612bfc57610100808354040283529160200191612c27565b820191906000526020600020905b815481529060010190602001808311612c0a57829003601f168201915b50505050508152602001600782018054612c4090615881565b80601f0160208091040260200160405190810160405280929190818152602001828054612c6c90615881565b8015612cb95780601f10612c8e57610100808354040283529160200191612cb9565b820191906000526020600020905b815481529060010190602001808311612c9c57829003601f168201915b50505050508152602001600882018054612cd290615881565b80601f0160208091040260200160405190810160405280929190818152602001828054612cfe90615881565b8015612d4b5780601f10612d2057610100808354040283529160200191612d4b565b820191906000526020600020905b815481529060010190602001808311612d2e57829003601f168201915b5050505050815260200160098201548152505081526020019060010190612886565b5050505090505b919050565b60606001805480602002602001604051908101604052809291908181526020018280548015612dfd57602002820191906000526020600020905b8160009054906101000a900473ffffffffffffffffffffffffffffffffffffffff1673ffffffffffffffffffffffffffffffffffffffff1681526020019060010190808311612db3575b5050505050905090565b60066020528160005260406000208181548110612e2357600080fd5b90600052602060002090600a0201600091509150508060000160009054906101000a900473ffffffffffffffffffffffffffffffffffffffff16908060010160009054906101000a900473ffffffffffffffffffffffffffffffffffffffff1690806002018054612e9390615881565b80601f0160208091040260200160405190810160405280929190818152602001828054612ebf90615881565b8015612f0c5780601f10612ee157610100808354040283529160200191612f0c565b820191906000526020600020905b815481529060010190602001808311612eef57829003601f168201915b505050505090806003018054612f2190615881565b80601f0160208091040260200160405190810160405280929190818152602001828054612f4d90615881565b8015612f9a5780601f10612f6f57610100808354040283529160200191612f9a565b820191906000526020600020905b815481529060010190602001808311612f7d57829003601f168201915b505050505090806004018054612faf90615881565b80601f0160208091040260200160405190810160405280929190818152602001828054612fdb90615881565b80156130285780601f10612ffd57610100808354040283529160200191613028565b820191906000526020600020905b81548152906001019060200180831161300b57829003601f168201915b50505050509080600501805461303d90615881565b80601f016020809104026020016040519081016040528092919081815260200182805461306990615881565b80156130b65780601f1061308b576101008083540402835291602001916130b6565b820191906000526020600020905b81548152906001019060200180831161309957829003601f168201915b5050505050908060060180546130cb90615881565b80601f01602080910402602001604051908101604052809291908181526020018280546130f790615881565b80156131445780601f1061311957610100808354040283529160200191613144565b820191906000526020600020905b81548152906001019060200180831161312757829003601f168201915b50505050509080600701805461315990615881565b80601f016020809104026020016040519081016040528092919081815260200182805461318590615881565b80156131d25780601f106131a7576101008083540402835291602001916131d2565b820191906000526020600020905b8154815290600101906020018083116131b557829003601f168201915b5050505050908060080180546131e790615881565b80601f016020809104026020016040519081016040528092919081815260200182805461321390615881565b80156132605780601f1061323557610100808354040283529160200191613260565b820191906000526020600020905b81548152906001019060200180831161324357829003601f168201915b505050505090806009015490508a565b6060806060600080600560008773ffffffffffffffffffffffffffffffffffffffff1673ffffffffffffffffffffffffffffffffffffffff168152602001908152602001600020905080600001816001018260020183600301548380546132d690615881565b80601f016020809104026020016040519081016040528092919081815260200182805461330290615881565b801561334f5780601f106133245761010080835404028352916020019161334f565b820191906000526020600020905b81548152906001019060200180831161333257829003601f168201915b5050505050935082805461336290615881565b80601f016020809104026020016040519081016040528092919081815260200182805461338e90615881565b80156133db5780601f106133b0576101008083540402835291602001916133db565b820191906000526020600020905b8154815290600101906020018083116133be57829003601f168201915b505050505092508180546133ee90615881565b80601f016020809104026020016040519081016040528092919081815260200182805461341a90615881565b80156134675780601f1061343c57610100808354040283529160200191613467565b820191906000526020600020905b81548152906001019060200180831161344a57829003601f168201915b505050505091509450945094509450509193509193565b61348833826145f5565b6134c7576040517f08c379a00000000000000000000000000000000000000000000000000000000081526004016134be90615603565b60405180910390fd5b6000600460003373ffffffffffffffffffffffffffffffffffffffff1673ffffffffffffffffffffffffffffffffffffffff168152602001908152602001600020600801905060005b818054905081101561372e578273ffffffffffffffffffffffffffffffffffffffff1682828154811061356c577f4e487b7100000000000000000000000000000000000000000000000000000000600052603260045260246000fd5b9060005260206000200160009054906101000a900473ffffffffffffffffffffffffffffffffffffffff1673ffffffffffffffffffffffffffffffffffffffff16141561371b5781600183805490506135c591906157c3565b815481106135fc577f4e487b7100000000000000000000000000000000000000000000000000000000600052603260045260246000fd5b9060005260206000200160009054906101000a900473ffffffffffffffffffffffffffffffffffffffff16828281548110613660577f4e487b7100000000000000000000000000000000000000000000000000000000600052603260045260246000fd5b9060005260206000200160006101000a81548173ffffffffffffffffffffffffffffffffffffffff021916908373ffffffffffffffffffffffffffffffffffffffff160217905550818054806136df577f4e487b7100000000000000000000000000000000000000000000000000000000600052603160045260246000fd5b6001900381819060005260206000200160006101000a81549073ffffffffffffffffffffffffffffffffffffffff021916905590555050613731565b8080613726906158b3565b915050613510565b50505b50565b6000600660008a73ffffffffffffffffffffffffffffffffffffffff1673ffffffffffffffffffffffffffffffffffffffff168152602001908152602001600020905060008180549050116137be576040517f08c379a00000000000000000000000000000000000000000000000000000000081526004016137b590615623565b60405180910390fd5b60005b8180549050811015613b1e573373ffffffffffffffffffffffffffffffffffffffff1682828154811061381d577f4e487b7100000000000000000000000000000000000000000000000000000000600052603260045260246000fd5b90600052602060002090600a020160010160009054906101000a900473ffffffffffffffffffffffffffffffffffffffff1673ffffffffffffffffffffffffffffffffffffffff161415613b0b57888282815481106138a5577f4e487b7100000000000000000000000000000000000000000000000000000000600052603260045260246000fd5b90600052602060002090600a020160020190805190602001906138c992919061474b565b5087828281548110613904577f4e487b7100000000000000000000000000000000000000000000000000000000600052603260045260246000fd5b90600052602060002090600a0201600301908051906020019061392892919061474b565b5086828281548110613963577f4e487b7100000000000000000000000000000000000000000000000000000000600052603260045260246000fd5b90600052602060002090600a0201600401908051906020019061398792919061474b565b50858282815481106139c2577f4e487b7100000000000000000000000000000000000000000000000000000000600052603260045260246000fd5b90600052602060002090600a020160050190805190602001906139e692919061474b565b5084828281548110613a21577f4e487b7100000000000000000000000000000000000000000000000000000000600052603260045260246000fd5b90600052602060002090600a02016006019080519060200190613a4592919061474b565b5083828281548110613a80577f4e487b7100000000000000000000000000000000000000000000000000000000600052603260045260246000fd5b90600052602060002090600a02016007019080519060200190613aa492919061474b565b5082828281548110613adf577f4e487b7100000000000000000000000000000000000000000000000000000000600052603260045260246000fd5b90600052602060002090600a02016008019080519060200190613b0392919061474b565b505050613b5a565b8080613b16906158b3565b9150506137c1565b506040517f08c379a0000000000000000000000000000000000000000000000000000000008152600401613b51906156a3565b60405180910390fd5b5050505050505050565b60008181548110613b7457600080fd5b906000526020600020016000915054906101000a900473ffffffffffffffffffffffffffffffffffffffff1681565b60036020528060005260406000206000915054906101000a900460ff1681565b60018181548110613bd357600080fd5b906000526020600020016000915054906101000a900473ffffffffffffffffffffffffffffffffffffffff1681565b6060600460008373ffffffffffffffffffffffffffffffffffffffff1673ffffffffffffffffffffffffffffffffffffffff168152602001908152602001600020600801805480602002602001604051908101604052809291908181526020018280548015613cc657602002820191906000526020600020905b8160009054906101000a900473ffffffffffffffffffffffffffffffffffffffff1673ffffffffffffffffffffffffffffffffffffffff1681526020019060010190808311613c7c575b50505050509050919050565b6000600460003373ffffffffffffffffffffffffffffffffffffffff1673ffffffffffffffffffffffffffffffffffffffff168152602001908152602001600020905088816000019080519060200190613d2d92919061474b565b5087816001019080519060200190613d4692919061474b565b5086816002019080519060200190613d5f92919061474b565b5085816003019080519060200190613d7892919061474b565b5084816004019080519060200190613d9192919061474b565b5083816005019080519060200190613daa92919061474b565b5082816006019080519060200190613dc392919061474b565b5081816007019080519060200190613ddc92919061474b565b50428160090181905550505050505050505050565b6060600760008373ffffffffffffffffffffffffffffffffffffffff1673ffffffffffffffffffffffffffffffffffffffff168152602001908152602001600020805480602002602001604051908101604052809291908181526020018280548015613eb257602002820191906000526020600020905b8160009054906101000a900473ffffffffffffffffffffffffffffffffffffffff1673ffffffffffffffffffffffffffffffffffffffff1681526020019060010190808311613e68575b50505050509050919050565b6005602052806000526040600020600091509050806000018054613ee190615881565b80601f0160208091040260200160405190810160405280929190818152602001828054613f0d90615881565b8015613f5a5780601f10613f2f57610100808354040283529160200191613f5a565b820191906000526020600020905b815481529060010190602001808311613f3d57829003601f168201915b505050505090806001018054613f6f90615881565b80601f0160208091040260200160405190810160405280929190818152602001828054613f9b90615881565b8015613fe85780601f10613fbd57610100808354040283529160200191613fe8565b820191906000526020600020905b815481529060010190602001808311613fcb57829003601f168201915b505050505090806002018054613ffd90615881565b80601f016020809104026020016040519081016040528092919081815260200182805461402990615881565b80156140765780601f1061404b57610100808354040283529160200191614076565b820191906000526020600020905b81548152906001019060200180831161405957829003601f168201915b5050505050908060030154905084565b600360008973ffffffffffffffffffffffffffffffffffffffff1673ffffffffffffffffffffffffffffffffffffffff16815260200190815260200160002060009054906101000a900460ff16614112576040517f08c379a0000000000000000000000000000000000000000000000000000000008152600401614109906155c3565b60405180910390fd5b61411c88336145f5565b6141c457600460008973ffffffffffffffffffffffffffffffffffffffff1673ffffffffffffffffffffffffffffffffffffffff168152602001908152602001600020600801339080600181540180825580915050600190039060005260206000200160009091909190916101000a81548173ffffffffffffffffffffffffffffffffffffffff021916908373ffffffffffffffffffffffffffffffffffffffff1602179055505b6141cc6147d1565b88816000019073ffffffffffffffffffffffffffffffffffffffff16908173ffffffffffffffffffffffffffffffffffffffff168152505033816020019073ffffffffffffffffffffffffffffffffffffffff16908173ffffffffffffffffffffffffffffffffffffffff1681525050878160400181905250868160600181905250858160800181905250848160a00181905250838160c00181905250828160e00181905250818161010001819052504281610120018181525050600660008a73ffffffffffffffffffffffffffffffffffffffff1673ffffffffffffffffffffffffffffffffffffffff1681526020019081526020016000208190806001815401808255809150506001900390600052602060002090600a020160009091909190915060008201518160000160006101000a81548173ffffffffffffffffffffffffffffffffffffffff021916908373ffffffffffffffffffffffffffffffffffffffff16021790555060208201518160010160006101000a81548173ffffffffffffffffffffffffffffffffffffffff021916908373ffffffffffffffffffffffffffffffffffffffff160217905550604082015181600201908051906020019061439a92919061474b565b5060608201518160030190805190602001906143b792919061474b565b5060808201518160040190805190602001906143d492919061474b565b5060a08201518160050190805190602001906143f192919061474b565b5060c082015181600601908051906020019061440e92919061474b565b5060e082015181600701908051906020019061442b92919061474b565b5061010082015181600801908051906020019061444992919061474b565b506101208201518160090155505060028190806001815401808255809150506001900390600052602060002090600a020160009091909190915060008201518160000160006101000a81548173ffffffffffffffffffffffffffffffffffffffff021916908373ffffffffffffffffffffffffffffffffffffffff16021790555060208201518160010160006101000a81548173ffffffffffffffffffffffffffffffffffffffff021916908373ffffffffffffffffffffffffffffffffffffffff160217905550604082015181600201908051906020019061452d92919061474b565b50606082015181600301908051906020019061454a92919061474b565b50608082015181600401908051906020019061456792919061474b565b5060a082015181600501908051906020019061458492919061474b565b5060c08201518160060190805190602001906145a192919061474b565b5060e08201518160070190805190602001906145be92919061474b565b506101008201518160080190805190602001906145dc92919061474b565b5061012082015181600901555050505050505050505050565b600080600090505b600460008573ffffffffffffffffffffffffffffffffffffffff1673ffffffffffffffffffffffffffffffffffffffff1681526020019081526020016000206008018054905081101561473f578273ffffffffffffffffffffffffffffffffffffffff16600460008673ffffffffffffffffffffffffffffffffffffffff1673ffffffffffffffffffffffffffffffffffffffff16815260200190815260200160002060080182815481106146db577f4e487b7100000000000000000000000000000000000000000000000000000000600052603260045260246000fd5b9060005260206000200160009054906101000a900473ffffffffffffffffffffffffffffffffffffffff1673ffffffffffffffffffffffffffffffffffffffff16141561472c576001915050614745565b8080614737906158b3565b9150506145fd565b50600090505b92915050565b82805461475790615881565b90600052602060002090601f01602090048101928261477957600085556147c0565b82601f1061479257805160ff19168380011785556147c0565b828001600101855582156147c0579182015b828111156147bf5782518255916020019190600101906147a4565b5b5090506147cd9190614850565b5090565b604051806101400160405280600073ffffffffffffffffffffffffffffffffffffffff168152602001600073ffffffffffffffffffffffffffffffffffffffff16815260200160608152602001606081526020016060815260200160608152602001606081526020016060815260200160608152602001600081525090565b5b80821115614869576000816000905550600101614851565b5090565b600061488061487b846156f4565b6156c3565b90508281526020810184848401111561489857600080fd5b6148a384828561583f565b509392505050565b6000813590506148ba8161599a565b92915050565b600082601f8301126148d157600080fd5b81356148e184826020860161486d565b91505092915050565b6000813590506148f9816159b1565b92915050565b60006020828403121561491157600080fd5b600061491f848285016148ab565b91505092915050565b600080600080600080600080610100898b03121561494557600080fd5b60006149538b828c016148ab565b985050602089013567ffffffffffffffff81111561497057600080fd5b61497c8b828c016148c0565b975050604089013567ffffffffffffffff81111561499957600080fd5b6149a58b828c016148c0565b965050606089013567ffffffffffffffff8111156149c257600080fd5b6149ce8b828c016148c0565b955050608089013567ffffffffffffffff8111156149eb57600080fd5b6149f78b828c016148c0565b94505060a089013567ffffffffffffffff811115614a1457600080fd5b614a208b828c016148c0565b93505060c089013567ffffffffffffffff811115614a3d57600080fd5b614a498b828c016148c0565b92505060e089013567ffffffffffffffff811115614a6657600080fd5b614a728b828c016148c0565b9150509295985092959890939650565b60008060408385031215614a9557600080fd5b6000614aa3858286016148ab565b9250506020614ab4858286016148ea565b9150509250929050565b600080600060608486031215614ad357600080fd5b600084013567ffffffffffffffff811115614aed57600080fd5b614af9868287016148c0565b935050602084013567ffffffffffffffff811115614b1657600080fd5b614b22868287016148c0565b925050604084013567ffffffffffffffff811115614b3f57600080fd5b614b4b868287016148c0565b9150509250925092565b600080600080600080600080610100898b031215614b7257600080fd5b600089013567ffffffffffffffff811115614b8c57600080fd5b614b988b828c016148c0565b985050602089013567ffffffffffffffff811115614bb557600080fd5b614bc18b828c016148c0565b975050604089013567ffffffffffffffff811115614bde57600080fd5b614bea8b828c016148c0565b965050606089013567ffffffffffffffff811115614c0757600080fd5b614c138b828c016148c0565b955050608089013567ffffffffffffffff811115614c3057600080fd5b614c3c8b828c016148c0565b94505060a089013567ffffffffffffffff811115614c5957600080fd5b614c658b828c016148c0565b93505060c089013567ffffffffffffffff811115614c8257600080fd5b614c8e8b828c016148c0565b92505060e089013567ffffffffffffffff811115614cab57600080fd5b614cb78b828c016148c0565b9150509295985092959890939650565b600060208284031215614cd957600080fd5b6000614ce7848285016148ea565b91505092915050565b6000614cfc8383614d1c565b60208301905092915050565b6000614d148383615140565b905092915050565b614d25816157f7565b82525050565b614d34816157f7565b82525050565b6000614d4582615744565b614d4f818561577f565b9350614d5a83615724565b8060005b83811015614d8b578151614d728882614cf0565b9750614d7d83615765565b925050600181019050614d5e565b5085935050505092915050565b6000614da38261574f565b614dad8185615790565b935083602082028501614dbf85615734565b8060005b85811015614dfb5784840389528151614ddc8582614d08565b9450614de783615772565b925060208a01995050600181019050614dc3565b50829750879550505050505092915050565b614e1681615809565b82525050565b6000614e278261575a565b614e3181856157a1565b9350614e4181856020860161584e565b614e4a81615989565b840191505092915050565b6000614e608261575a565b614e6a81856157b2565b9350614e7a81856020860161584e565b614e8381615989565b840191505092915050565b6000614e9b601a836157b2565b91507f50617469656e7420616c726561647920726567697374657265640000000000006000830152602082019050919050565b6000614edb6016836157b2565b91507f50617469656e74206e6f742072656769737465726564000000000000000000006000830152602082019050919050565b6000614f1b6032836157b2565b91507f43616c6c6572206973206e6f7420617574686f72697a656420746f206163636560008301527f73732070617469656e74207265636f72647300000000000000000000000000006020830152604082019050919050565b6000614f816017836157b2565b91507f486f73706974616c206e6f7420617574686f72697a65640000000000000000006000830152602082019050919050565b6000614fc16030836157b2565b91507f4e6f206d65646963616c20686973746f7279207265636f72647320666f756e6460008301527f20666f72207468652070617469656e74000000000000000000000000000000006020830152604082019050919050565b60006150276014836157b2565b91507f5265717565737420616c72656164792073656e740000000000000000000000006000830152602082019050919050565b6000615067601b836157b2565b91507f486f73706974616c20616c7265616479207265676973746572656400000000006000830152602082019050919050565b60006150a7601b836157b2565b91507f486f73706974616c20616c726561647920617574686f72697a656400000000006000830152602082019050919050565b60006150e7603b836157b2565b91507f4d65646963616c20686973746f7279207265636f7264206e6f7420666f756e6460008301527f20666f72207468652073706563696669656420686f73706974616c00000000006020830152604082019050919050565b6000610140830160008301516151596000860182614d1c565b50602083015161516c6020860182614d1c565b50604083015184820360408601526151848282614e1c565b9150506060830151848203606086015261519e8282614e1c565b915050608083015184820360808601526151b88282614e1c565b91505060a083015184820360a08601526151d28282614e1c565b91505060c083015184820360c08601526151ec8282614e1c565b91505060e083015184820360e08601526152068282614e1c565b9150506101008301518482036101008601526152228282614e1c565b915050610120830151615239610120860182615244565b508091505092915050565b61524d81615835565b82525050565b61525c81615835565b82525050565b60006020820190506152776000830184614d2b565b92915050565b600061014082019050615293600083018d614d2b565b6152a0602083018c614d2b565b81810360408301526152b2818b614e55565b905081810360608301526152c6818a614e55565b905081810360808301526152da8189614e55565b905081810360a08301526152ee8188614e55565b905081810360c08301526153028187614e55565b905081810360e08301526153168186614e55565b905081810361010083015261532b8185614e55565b905061533b610120830184615253565b9b9a5050505050505050505050565b600060208201905081810360008301526153648184614d3a565b905092915050565b600060208201905081810360008301526153868184614d98565b905092915050565b60006020820190506153a36000830184614e0d565b92915050565b60006101408201905081810360008301526153c4818d614e55565b905081810360208301526153d8818c614e55565b905081810360408301526153ec818b614e55565b90508181036060830152615400818a614e55565b905081810360808301526154148189614e55565b905081810360a08301526154288188614e55565b905081810360c083015261543c8187614e55565b905081810360e08301526154508186614e55565b90508181036101008301526154658185614d3a565b9050615475610120830184615253565b9b9a5050505050505050505050565b600061012082019050818103600083015261549f818c614e55565b905081810360208301526154b3818b614e55565b905081810360408301526154c7818a614e55565b905081810360608301526154db8189614e55565b905081810360808301526154ef8188614e55565b905081810360a08301526155038187614e55565b905081810360c08301526155178186614e55565b905081810360e083015261552b8185614e55565b905061553b610100830184615253565b9a9950505050505050505050565b600060808201905081810360008301526155638187614e55565b905081810360208301526155778186614e55565b9050818103604083015261558b8185614e55565b905061559a6060830184615253565b95945050505050565b600060208201905081810360008301526155bc81614e8e565b9050919050565b600060208201905081810360008301526155dc81614ece565b9050919050565b600060208201905081810360008301526155fc81614f0e565b9050919050565b6000602082019050818103600083015261561c81614f74565b9050919050565b6000602082019050818103600083015261563c81614fb4565b9050919050565b6000602082019050818103600083015261565c8161501a565b9050919050565b6000602082019050818103600083015261567c8161505a565b9050919050565b6000602082019050818103600083015261569c8161509a565b9050919050565b600060208201905081810360008301526156bc816150da565b9050919050565b6000604051905081810181811067ffffffffffffffff821117156156ea576156e961595a565b5b8060405250919050565b600067ffffffffffffffff82111561570f5761570e61595a565b5b601f19601f8301169050602081019050919050565b6000819050602082019050919050565b6000819050602082019050919050565b600081519050919050565b600081519050919050565b600081519050919050565b6000602082019050919050565b6000602082019050919050565b600082825260208201905092915050565b600082825260208201905092915050565b600082825260208201905092915050565b600082825260208201905092915050565b60006157ce82615835565b91506157d983615835565b9250828210156157ec576157eb6158fc565b5b828203905092915050565b600061580282615815565b9050919050565b60008115159050919050565b600073ffffffffffffffffffffffffffffffffffffffff82169050919050565b6000819050919050565b82818337600083830152505050565b60005b8381101561586c578082015181840152602081019050615851565b8381111561587b576000848401525b50505050565b6000600282049050600182168061589957607f821691505b602082108114156158ad576158ac61592b565b5b50919050565b60006158be82615835565b91507fffffffffffffffffffffffffffffffffffffffffffffffffffffffffffffffff8214156158f1576158f06158fc565b5b600182019050919050565b7f4e487b7100000000000000000000000000000000000000000000000000000000600052601160045260246000fd5b7f4e487b7100000000000000000000000000000000000000000000000000000000600052602260045260246000fd5b7f4e487b7100000000000000000000000000000000000000000000000000000000600052604160045260246000fd5b6000601f19601f8301169050919050565b6159a3816157f7565b81146159ae57600080fd5b50565b6159ba81615835565b81146159c557600080fd5b5056fea2646970667358221220925b174070b08813c77eb63bdf7b07c3fb9f75b163273189bdd8790a42e62e3f64736f6c63430008000033",
  "immutableReferences": {},
  "source": "// SPDX-License-Identifier: MIT\r\npragma solidity ^0.8.0;\r\n\r\ncontract MediVerse {\r\n    \r\n    struct Patient {\r\n        string name;\r\n        string age;\r\n        string gender;\r\n        string dateOfBirth;\r\n        string height;\r\n        string weight;\r\n        string contactNum;\r\n        string addr;\r\n        address[] authorizedHospitals;\r\n        uint creationDate;\r\n    }\r\n\r\n    struct Hospital {\r\n        string name;\r\n        string contactNum;\r\n        string addr;\r\n        uint creationDate;\r\n    }\r\n\r\n    struct MedicalHistory {\r\n        address patientAddr;\r\n        address hospitalAddr;\r\n        string physician;\r\n        string diagnosis;\r\n        string signsAndSymptoms;\r\n        string treatmentProcedure;\r\n        string tests;\r\n        string medications;\r\n        string admission;\r\n        uint creationDate;\r\n    }\r\n\r\n    address[] public patientList; \r\n    address[] public hospitalList;\r\n    MedicalHistory[] public medicalHistoryList;\r\n    mapping(address => bool) public isRegistered;\r\n    mapping(address => Patient) public patients;\r\n    mapping(address => Hospital) public hospitals;\r\n    mapping(address => MedicalHistory[]) public medicalHistories;\r\n    mapping(address => address[]) private pendingRequests;\r\n\r\n    modifier isRegister() {\r\n        require(isRegistered[msg.sender], \"Account is not registered\");\r\n        _;\r\n    }\r\n\r\n    modifier isAuthorized(address _patientAddr) {\r\n        require(\r\n            isHospitalAuthorized(_patientAddr, msg.sender),\r\n            \"Hospital not authorized to access patient records\"\r\n        );\r\n        _;\r\n    }\r\n\r\n    function isHospitalAuthorized(address _patientAddr, address _hospitalAddr) internal view returns (bool) {\r\n        for (uint i = 0; i < patients[_patientAddr].authorizedHospitals.length; i++) {\r\n            if (patients[_patientAddr].authorizedHospitals[i] == _hospitalAddr) {\r\n                return true;\r\n            }\r\n        }\r\n        return false;\r\n    }\r\n\r\n    function registerPatient(\r\n        string memory _name,\r\n        string memory _age,\r\n        string memory _gender,\r\n        string memory _dateOfBirth,\r\n        string memory _height,\r\n        string memory _weight,\r\n        string memory _contactNum,\r\n        string memory _address\r\n    ) public {\r\n        require(!isRegistered[msg.sender], \"Patient already registered\");\r\n        Patient storage patient = patients[msg.sender];\r\n        patient.name = _name;\r\n        patient.age = _age;\r\n        patient.gender = _gender;\r\n        patient.dateOfBirth = _dateOfBirth;\r\n        patient.height = _height;\r\n        patient.weight = _weight;\r\n        patient.contactNum = _contactNum;\r\n        patient.addr = _address;\r\n        patient.creationDate = block.timestamp;\r\n        patientList.push(msg.sender);\r\n        isRegistered[msg.sender] = true;\r\n    }\r\n\r\n    function editPatientDetails(\r\n        string memory _name,\r\n        string memory _age,\r\n        string memory _gender,\r\n        string memory _dateOfBirth,\r\n        string memory _height,\r\n        string memory _weight,\r\n        string memory _contactNum,\r\n        string memory _address\r\n    ) public {\r\n        Patient storage patient = patients[msg.sender];\r\n        patient.name = _name;\r\n        patient.age = _age;\r\n        patient.gender = _gender;\r\n        patient.dateOfBirth = _dateOfBirth;\r\n        patient.height = _height;\r\n        patient.weight = _weight;\r\n        patient.contactNum = _contactNum;\r\n        patient.addr = _address;\r\n        patient.creationDate = block.timestamp;\r\n    }\r\n\r\n    function registerHospital(\r\n        string memory _name,\r\n        string memory _contactNum,\r\n        string memory _address\r\n    ) public {\r\n        require(!isRegistered[msg.sender], \"Hospital already registered\");\r\n        Hospital storage hospital = hospitals[msg.sender];\r\n        hospital.name = _name;\r\n        hospital.contactNum = _contactNum;\r\n        hospital.addr = _address;\r\n        hospital.creationDate = block.timestamp;\r\n\r\n        hospitalList.push(msg.sender);\r\n        isRegistered[msg.sender] = true;\r\n    }\r\n\r\n    function editHospitalDetails(\r\n        string memory _name,\r\n        string memory _contactNum,\r\n        string memory _addr\r\n    ) public {\r\n        Hospital storage hospital = hospitals[msg.sender];\r\n        hospital.name = _name;\r\n        hospital.contactNum = _contactNum;\r\n        hospital.addr = _addr;\r\n        hospital.creationDate = block.timestamp;\r\n    }\r\n\r\n    function addMedicalHistory(\r\n        address _patientAddr,\r\n        string memory _physician,\r\n        string memory _diagnosis,\r\n        string memory _signsAndSymptoms,\r\n        string memory _treatmentProcedure,\r\n        string memory _tests,\r\n        string memory _medications,\r\n        string memory _admission\r\n    ) public {\r\n        require(isRegistered[_patientAddr], \"Patient not registered\");\r\n        if (!isHospitalAuthorized(_patientAddr, msg.sender)) {\r\n            patients[_patientAddr].authorizedHospitals.push(msg.sender);\r\n        }\r\n        MedicalHistory memory history;\r\n        history.patientAddr = _patientAddr;\r\n        history.hospitalAddr = msg.sender;\r\n        history.physician = _physician;\r\n        history.diagnosis = _diagnosis;\r\n        history.signsAndSymptoms = _signsAndSymptoms;\r\n        history.treatmentProcedure = _treatmentProcedure;\r\n        history.tests = _tests;\r\n        history.medications = _medications;\r\n        history.admission = _admission;\r\n        history.creationDate = block.timestamp;\r\n\r\n        medicalHistories[_patientAddr].push(history);\r\n        medicalHistoryList.push(history);\r\n    }\r\n\r\n    function editMedicalHistory(\r\n        address _patientAddr,\r\n        string memory _physician,\r\n        string memory _diagnosis,\r\n        string memory _signsAndSymptoms,\r\n        string memory _treatmentProcedure,\r\n        string memory _tests,\r\n        string memory _medications,\r\n        string memory _admission\r\n    ) public {\r\n        MedicalHistory[] storage history = medicalHistories[_patientAddr];\r\n\r\n        require(history.length > 0, \"No medical history records found for the patient\");\r\n        for (uint i = 0; i < history.length; i++) {\r\n            if (history[i].hospitalAddr == msg.sender) {\r\n                history[i].physician = _physician;\r\n                history[i].diagnosis = _diagnosis;\r\n                history[i].signsAndSymptoms = _signsAndSymptoms;\r\n                history[i].treatmentProcedure = _treatmentProcedure;\r\n                history[i].tests = _tests;\r\n                history[i].medications = _medications;\r\n                history[i].admission = _admission;\r\n                return; \r\n            }\r\n        }\r\n        revert(\"Medical history record not found for the specified hospital\");\r\n    }\r\n\r\n    function getMedicalHistory(address _patientAddr) public view returns (MedicalHistory[] memory) {\r\n        if (msg.sender == _patientAddr) {\r\n            return medicalHistories[_patientAddr];\r\n        } else {\r\n            require(isHospitalAuthorized(_patientAddr, msg.sender), \"Caller is not authorized to access patient records\");\r\n            return medicalHistories[_patientAddr];\r\n        }\r\n    }\r\n\r\n    function getAllMedicalHistory() public view returns (MedicalHistory[] memory) {\r\n        return medicalHistoryList;\r\n    }\r\n\r\n    function getPatientInfo(address patientAddress) external view returns (string memory, string memory, string memory, string memory, string memory, string memory, string memory, string memory, address[] memory, uint) {\r\n        Patient storage patient = patients[patientAddress];\r\n        return (patient.name, patient.age, patient.gender, patient.dateOfBirth, patient.height, patient.weight, patient.contactNum, patient.addr, patient.authorizedHospitals, patient.creationDate);\r\n    }\r\n\r\n    function getHospitalInfo(address hospitalAddress) external view returns (string memory, string memory, string memory, uint) {\r\n        Hospital storage hospital = hospitals[hospitalAddress];\r\n        return (hospital.name, hospital.contactNum, hospital.addr, hospital.creationDate);\r\n    }\r\n    \r\n    function givePermission(address _hospitalAddr) public  {\r\n        require(!isHospitalAuthorized(msg.sender, _hospitalAddr), \"Hospital already authorized\");\r\n        address[] storage pending = pendingRequests[msg.sender];\r\n        for (uint i = 0; i < pending.length; i++) {\r\n            if (pending[i] == _hospitalAddr) {\r\n                pending[i] = pending[pending.length - 1];\r\n                pending.pop();\r\n                break;\r\n            }\r\n        }\r\n        patients[msg.sender].authorizedHospitals.push(_hospitalAddr);\r\n    }\r\n\r\n    function revokeAccess(address _hospitalAddr) public {\r\n        require(isHospitalAuthorized(msg.sender, _hospitalAddr), \"Hospital not authorized\");\r\n        address[] storage authorizedHospitals = patients[msg.sender].authorizedHospitals;\r\n        for (uint i = 0; i < authorizedHospitals.length; i++) {\r\n            if (authorizedHospitals[i] == _hospitalAddr) {\r\n                authorizedHospitals[i] = authorizedHospitals[authorizedHospitals.length - 1];\r\n                authorizedHospitals.pop();\r\n                return;\r\n            }\r\n        }\r\n    }\r\n\r\n    function requestPermission(address _patientAddr) public {\r\n        require(!isHospitalAuthorized(_patientAddr, msg.sender), \"Request already sent\");\r\n        pendingRequests[_patientAddr].push(msg.sender);\r\n    }\r\n\r\n    function getAuthorizedHospitals(address _patientAddr) public view returns (address[] memory) {\r\n        return patients[_patientAddr].authorizedHospitals;\r\n    }\r\n\r\n    function getPendingRequests(address _patientAddr) public view returns (address[] memory) {\r\n        return pendingRequests[_patientAddr];\r\n    }\r\n\r\n    function getPatientList() public view returns (address[] memory) {\r\n        return patientList;\r\n    }\r\n\r\n    function getHospitalList() public view returns (address[] memory) {\r\n        return hospitalList;\r\n    }\r\n}",
  "sourcePath": "C:\\Users\\Abby\\Desktop\\APPCON 2023\\MediVerse-Web3-Dapp\\contracts\\MediVerse.sol",
  "compiler": {
    "name": "solc",
    "version": "0.8.0+commit.c7dfd78e.Emscripten.clang"
  },
  "schemaVersion": "3.4.16",
  "updatedAt": "2024-04-15T12:56:41.114Z",
  "networkType": "ethereum",
  "devdoc": {
    "kind": "dev",
    "methods": {},
    "version": 1
  },
  "userdoc": {
    "kind": "user",
    "methods": {},
    "version": 1
  }
}