{
  "contractName": "MedicalHistoryRecords",
  "abi": [
    {
      "anonymous": false,
      "inputs": [
        {
          "indexed": false,
          "internalType": "address",
          "name": "patientAddr",
          "type": "address"
        }
      ],
      "name": "MedicalHistoryRecordAdded",
      "type": "event"
    },
    {
      "anonymous": false,
      "inputs": [
        {
          "indexed": false,
          "internalType": "address",
          "name": "patientAddr",
          "type": "address"
        }
      ],
      "name": "MedicalHistoryRecordEdited",
      "type": "event"
    },
    {
      "inputs": [
        {
          "internalType": "string",
          "name": "_hospitalName",
          "type": "string"
        },
        {
          "internalType": "string",
          "name": "_contactNum",
          "type": "string"
        },
        {
          "internalType": "string",
          "name": "_hospitalAddress",
          "type": "string"
        }
      ],
      "name": "editHospitalProfile",
      "outputs": [],
      "stateMutability": "nonpayable",
      "type": "function"
    },
    {
      "inputs": [],
      "name": "getHospitalCount",
      "outputs": [
        {
          "internalType": "uint256",
          "name": "",
          "type": "uint256"
        }
      ],
      "stateMutability": "view",
      "type": "function",
      "constant": true
    },
    {
      "inputs": [],
      "name": "getHospitalList",
      "outputs": [
        {
          "internalType": "address[]",
          "name": "",
          "type": "address[]"
        }
      ],
      "stateMutability": "view",
      "type": "function",
      "constant": true
    },
    {
      "inputs": [
        {
          "internalType": "address",
          "name": "",
          "type": "address"
        }
      ],
      "name": "historyRecords",
      "outputs": [
        {
          "internalType": "address",
          "name": "owner",
          "type": "address"
        },
        {
          "internalType": "address",
          "name": "hospitalAddr",
          "type": "address"
        },
        {
          "internalType": "string",
          "name": "hospital",
          "type": "string"
        },
        {
          "internalType": "string",
          "name": "physician",
          "type": "string"
        },
        {
          "internalType": "string",
          "name": "dateOfDiagnosis",
          "type": "string"
        },
        {
          "internalType": "string",
          "name": "diagnosis",
          "type": "string"
        },
        {
          "internalType": "string",
          "name": "symptoms",
          "type": "string"
        },
        {
          "internalType": "string",
          "name": "durationSeverity",
          "type": "string"
        },
        {
          "internalType": "string",
          "name": "signs",
          "type": "string"
        },
        {
          "internalType": "string",
          "name": "relevantMedicalHistory",
          "type": "string"
        }
      ],
      "stateMutability": "view",
      "type": "function",
      "constant": true
    },
    {
      "inputs": [],
      "name": "hospitalCount",
      "outputs": [
        {
          "internalType": "uint256",
          "name": "",
          "type": "uint256"
        }
      ],
      "stateMutability": "view",
      "type": "function",
      "constant": true
    },
    {
      "inputs": [
        {
          "internalType": "uint256",
          "name": "",
          "type": "uint256"
        }
      ],
      "name": "hospitalList",
      "outputs": [
        {
          "internalType": "address",
          "name": "",
          "type": "address"
        }
      ],
      "stateMutability": "view",
      "type": "function",
      "constant": true
    },
    {
      "inputs": [
        {
          "internalType": "address",
          "name": "",
          "type": "address"
        }
      ],
      "name": "hospitals",
      "outputs": [
        {
          "internalType": "string",
          "name": "hospitalName",
          "type": "string"
        },
        {
          "internalType": "string",
          "name": "contactNum",
          "type": "string"
        },
        {
          "internalType": "string",
          "name": "hospitalAddress",
          "type": "string"
        },
        {
          "internalType": "address",
          "name": "addr",
          "type": "address"
        },
        {
          "internalType": "uint256",
          "name": "date",
          "type": "uint256"
        }
      ],
      "stateMutability": "view",
      "type": "function",
      "constant": true
    },
    {
      "inputs": [
        {
          "internalType": "address",
          "name": "",
          "type": "address"
        }
      ],
      "name": "isHospital",
      "outputs": [
        {
          "internalType": "bool",
          "name": "",
          "type": "bool"
        }
      ],
      "stateMutability": "view",
      "type": "function",
      "constant": true
    },
    {
      "inputs": [],
      "name": "medicalHistoryCount",
      "outputs": [
        {
          "internalType": "uint256",
          "name": "",
          "type": "uint256"
        }
      ],
      "stateMutability": "view",
      "type": "function",
      "constant": true
    },
    {
      "inputs": [
        {
          "internalType": "uint256",
          "name": "",
          "type": "uint256"
        }
      ],
      "name": "medicalHistoryList",
      "outputs": [
        {
          "internalType": "address",
          "name": "",
          "type": "address"
        }
      ],
      "stateMutability": "view",
      "type": "function",
      "constant": true
    },
    {
      "inputs": [
        {
          "internalType": "address",
          "name": "",
          "type": "address"
        },
        {
          "internalType": "uint256",
          "name": "",
          "type": "uint256"
        }
      ],
      "name": "patientHistoryRecords",
      "outputs": [
        {
          "internalType": "address",
          "name": "",
          "type": "address"
        }
      ],
      "stateMutability": "view",
      "type": "function",
      "constant": true
    },
    {
      "inputs": [
        {
          "internalType": "string",
          "name": "_hospitalName",
          "type": "string"
        },
        {
          "internalType": "string",
          "name": "_contactNum",
          "type": "string"
        },
        {
          "internalType": "string",
          "name": "_hospitalAddress",
          "type": "string"
        }
      ],
      "name": "registerHospital",
      "outputs": [],
      "stateMutability": "nonpayable",
      "type": "function"
    },
    {
      "inputs": [
        {
          "internalType": "address",
          "name": "_patientAddr",
          "type": "address"
        },
        {
          "internalType": "string",
          "name": "_physician",
          "type": "string"
        },
        {
          "internalType": "string",
          "name": "_hospital",
          "type": "string"
        },
        {
          "internalType": "string",
          "name": "_dateOfDiagnosis",
          "type": "string"
        },
        {
          "internalType": "string",
          "name": "_diagnosis",
          "type": "string"
        },
        {
          "internalType": "string",
          "name": "_symptoms",
          "type": "string"
        },
        {
          "internalType": "string",
          "name": "_durationSeverity",
          "type": "string"
        },
        {
          "internalType": "string",
          "name": "_signs",
          "type": "string"
        },
        {
          "internalType": "string",
          "name": "_relevantMedicalHistory",
          "type": "string"
        }
      ],
      "name": "addMedicalHistory",
      "outputs": [],
      "stateMutability": "nonpayable",
      "type": "function"
    },
    {
      "inputs": [
        {
          "internalType": "address",
          "name": "_patientAddr",
          "type": "address"
        },
        {
          "internalType": "string",
          "name": "_physician",
          "type": "string"
        },
        {
          "internalType": "string",
          "name": "_hospital",
          "type": "string"
        },
        {
          "internalType": "string",
          "name": "_dateOfDiagnosis",
          "type": "string"
        },
        {
          "internalType": "string",
          "name": "_diagnosis",
          "type": "string"
        },
        {
          "internalType": "string",
          "name": "_symptoms",
          "type": "string"
        },
        {
          "internalType": "string",
          "name": "_durationSeverity",
          "type": "string"
        },
        {
          "internalType": "string",
          "name": "_signs",
          "type": "string"
        },
        {
          "internalType": "string",
          "name": "_relevantMedicalHistory",
          "type": "string"
        }
      ],
      "name": "editMedicalHistory",
      "outputs": [],
      "stateMutability": "nonpayable",
      "type": "function"
    },
    {
      "inputs": [
        {
          "internalType": "address",
          "name": "patientAddr",
          "type": "address"
        }
      ],
      "name": "getMedicalHistory",
      "outputs": [
        {
          "components": [
            {
              "internalType": "address",
              "name": "owner",
              "type": "address"
            },
            {
              "internalType": "address",
              "name": "hospitalAddr",
              "type": "address"
            },
            {
              "internalType": "string",
              "name": "hospital",
              "type": "string"
            },
            {
              "internalType": "string",
              "name": "physician",
              "type": "string"
            },
            {
              "internalType": "string",
              "name": "dateOfDiagnosis",
              "type": "string"
            },
            {
              "internalType": "string",
              "name": "diagnosis",
              "type": "string"
            },
            {
              "internalType": "string",
              "name": "symptoms",
              "type": "string"
            },
            {
              "internalType": "string",
              "name": "durationSeverity",
              "type": "string"
            },
            {
              "internalType": "string",
              "name": "signs",
              "type": "string"
            },
            {
              "internalType": "string",
              "name": "relevantMedicalHistory",
              "type": "string"
            }
          ],
          "internalType": "struct MedicalHistoryRecords.HistoryRecord",
          "name": "",
          "type": "tuple"
        }
      ],
      "stateMutability": "view",
      "type": "function",
      "constant": true
    }
  ],
  "bytecode": "0x60806040526000600355600060085534801561001a57600080fd5b506125eb8061002a6000396000f3fe608060405234801561001057600080fd5b50600436106100f55760003560e01c80635986de6111610097578063bdf6c67311610066578063bdf6c6731461028d578063c82412b9146102bd578063f093cf80146102ed578063fe45a81d14610321576100f5565b80635986de61146101f35780635d7e5396146102235780636933e414146102535780639aec2c1e14610271576100f5565b806321a1500a116100d357806321a1500a14610181578063350dadb71461019d57806338feda25146101bb578063526b44ac146101d7576100f5565b806317c586bc146100fa57806319406a64146101185780631d31ea8214610148575b600080fd5b61010261033f565b60405161010f9190612302565b60405180910390f35b610132600480360381019061012d9190611e34565b610345565b60405161013f919061210c565b60405180910390f35b610162600480360381019061015d9190611bb2565b610384565b6040516101789a99989796959493929190612127565b60405180910390f35b61019b60048036038101906101969190611d9d565b610858565b005b6101a5610942565b6040516101b29190612302565b60405180910390f35b6101d560048036038101906101d09190611bdb565b610948565b005b6101f160048036038101906101ec9190611d9d565b610b80565b005b61020d60048036038101906102089190611bb2565b610d8a565b60405161021a91906122e0565b60405180910390f35b61023d60048036038101906102389190611d61565b6113e9565b60405161024a919061210c565b60405180910390f35b61025b611437565b60405161026891906121fb565b60405180910390f35b61028b60048036038101906102869190611bdb565b6114c5565b005b6102a760048036038101906102a29190611bb2565b6117a7565b6040516102b4919061221d565b60405180910390f35b6102d760048036038101906102d29190611e34565b6117c7565b6040516102e4919061210c565b60405180910390f35b61030760048036038101906103029190611bb2565b611806565b604051610318959493929190612238565b60405180910390f35b6103296119f4565b6040516103369190612302565b60405180910390f35b60085481565b6005818154811061035557600080fd5b906000526020600020016000915054906101000a900473ffffffffffffffffffffffffffffffffffffffff1681565b60066020528060005260406000206000915090508060000160009054906101000a900473ffffffffffffffffffffffffffffffffffffffff16908060010160009054906101000a900473ffffffffffffffffffffffffffffffffffffffff16908060020180546103f39061246e565b80601f016020809104026020016040519081016040528092919081815260200182805461041f9061246e565b801561046c5780601f106104415761010080835404028352916020019161046c565b820191906000526020600020905b81548152906001019060200180831161044f57829003601f168201915b5050505050908060030180546104819061246e565b80601f01602080910402602001604051908101604052809291908181526020018280546104ad9061246e565b80156104fa5780601f106104cf576101008083540402835291602001916104fa565b820191906000526020600020905b8154815290600101906020018083116104dd57829003601f168201915b50505050509080600401805461050f9061246e565b80601f016020809104026020016040519081016040528092919081815260200182805461053b9061246e565b80156105885780601f1061055d57610100808354040283529160200191610588565b820191906000526020600020905b81548152906001019060200180831161056b57829003601f168201915b50505050509080600501805461059d9061246e565b80601f01602080910402602001604051908101604052809291908181526020018280546105c99061246e565b80156106165780601f106105eb57610100808354040283529160200191610616565b820191906000526020600020905b8154815290600101906020018083116105f957829003601f168201915b50505050509080600601805461062b9061246e565b80601f01602080910402602001604051908101604052809291908181526020018280546106579061246e565b80156106a45780601f10610679576101008083540402835291602001916106a4565b820191906000526020600020905b81548152906001019060200180831161068757829003601f168201915b5050505050908060070180546106b99061246e565b80601f01602080910402602001604051908101604052809291908181526020018280546106e59061246e565b80156107325780601f1061070757610100808354040283529160200191610732565b820191906000526020600020905b81548152906001019060200180831161071557829003601f168201915b5050505050908060080180546107479061246e565b80601f01602080910402602001604051908101604052809291908181526020018280546107739061246e565b80156107c05780601f10610795576101008083540402835291602001916107c0565b820191906000526020600020905b8154815290600101906020018083116107a357829003601f168201915b5050505050908060090180546107d59061246e565b80601f01602080910402602001604051908101604052809291908181526020018280546108019061246e565b801561084e5780601f106108235761010080835404028352916020019161084e565b820191906000526020600020905b81548152906001019060200180831161083157829003601f168201915b505050505090508a565b600260003373ffffffffffffffffffffffffffffffffffffffff1673ffffffffffffffffffffffffffffffffffffffff16815260200190815260200160002060009054906101000a900460ff166108ae57600080fd5b6000600160003373ffffffffffffffffffffffffffffffffffffffff1673ffffffffffffffffffffffffffffffffffffffff1681526020019081526020016000209050838160000190805190602001906109099291906119fe565b50828160010190805190602001906109229291906119fe565b508181600201908051906020019061093b9291906119fe565b5050505050565b60035481565b600260003373ffffffffffffffffffffffffffffffffffffffff1673ffffffffffffffffffffffffffffffffffffffff16815260200190815260200160002060009054906101000a900460ff1661099e57600080fd5b6000600660008b73ffffffffffffffffffffffffffffffffffffffff1673ffffffffffffffffffffffffffffffffffffffff1681526020019081526020016000209050600073ffffffffffffffffffffffffffffffffffffffff168160010160009054906101000a900473ffffffffffffffffffffffffffffffffffffffff1673ffffffffffffffffffffffffffffffffffffffff161415610a75576040517f08c379a0000000000000000000000000000000000000000000000000000000008152600401610a6c906122a0565b60405180910390fd5b88816003019080519060200190610a8d9291906119fe565b5087816002019080519060200190610aa69291906119fe565b5086816004019080519060200190610abf9291906119fe565b5085816005019080519060200190610ad89291906119fe565b5084816006019080519060200190610af19291906119fe565b5083816007019080519060200190610b0a9291906119fe565b5082816008019080519060200190610b239291906119fe565b5081816009019080519060200190610b3c9291906119fe565b507f1bb1b20e403b5435168413f507756985b0194ec0a05d36b709aff1b99e7e0ea48a604051610b6c919061210c565b60405180910390a150505050505050505050565b600260003373ffffffffffffffffffffffffffffffffffffffff1673ffffffffffffffffffffffffffffffffffffffff16815260200190815260200160002060009054906101000a900460ff1615610bd757600080fd5b6000600160003373ffffffffffffffffffffffffffffffffffffffff1673ffffffffffffffffffffffffffffffffffffffff168152602001908152602001600020905083816000019080519060200190610c329291906119fe565b5082816001019080519060200190610c4b9291906119fe565b5081816002019080519060200190610c649291906119fe565b50338160030160006101000a81548173ffffffffffffffffffffffffffffffffffffffff021916908373ffffffffffffffffffffffffffffffffffffffff1602179055504281600401819055506000339080600181540180825580915050600190039060005260206000200160009091909190916101000a81548173ffffffffffffffffffffffffffffffffffffffff021916908373ffffffffffffffffffffffffffffffffffffffff1602179055506001600260003373ffffffffffffffffffffffffffffffffffffffff1673ffffffffffffffffffffffffffffffffffffffff16815260200190815260200160002060006101000a81548160ff02191690831515021790555060036000815480929190610d7f906124a0565b919050555050505050565b610d92611a84565b600460008373ffffffffffffffffffffffffffffffffffffffff1673ffffffffffffffffffffffffffffffffffffffff16815260200190815260200160002060003373ffffffffffffffffffffffffffffffffffffffff1673ffffffffffffffffffffffffffffffffffffffff16815260200190815260200160002060009054906101000a900460ff16610e5b576040517f08c379a0000000000000000000000000000000000000000000000000000000008152600401610e52906122c0565b60405180910390fd5b600660008373ffffffffffffffffffffffffffffffffffffffff1673ffffffffffffffffffffffffffffffffffffffff168152602001908152602001600020604051806101400160405290816000820160009054906101000a900473ffffffffffffffffffffffffffffffffffffffff1673ffffffffffffffffffffffffffffffffffffffff1673ffffffffffffffffffffffffffffffffffffffff1681526020016001820160009054906101000a900473ffffffffffffffffffffffffffffffffffffffff1673ffffffffffffffffffffffffffffffffffffffff1673ffffffffffffffffffffffffffffffffffffffff168152602001600282018054610f629061246e565b80601f0160208091040260200160405190810160405280929190818152602001828054610f8e9061246e565b8015610fdb5780601f10610fb057610100808354040283529160200191610fdb565b820191906000526020600020905b815481529060010190602001808311610fbe57829003601f168201915b50505050508152602001600382018054610ff49061246e565b80601f01602080910402602001604051908101604052809291908181526020018280546110209061246e565b801561106d5780601f106110425761010080835404028352916020019161106d565b820191906000526020600020905b81548152906001019060200180831161105057829003601f168201915b505050505081526020016004820180546110869061246e565b80601f01602080910402602001604051908101604052809291908181526020018280546110b29061246e565b80156110ff5780601f106110d4576101008083540402835291602001916110ff565b820191906000526020600020905b8154815290600101906020018083116110e257829003601f168201915b505050505081526020016005820180546111189061246e565b80601f01602080910402602001604051908101604052809291908181526020018280546111449061246e565b80156111915780601f1061116657610100808354040283529160200191611191565b820191906000526020600020905b81548152906001019060200180831161117457829003601f168201915b505050505081526020016006820180546111aa9061246e565b80601f01602080910402602001604051908101604052809291908181526020018280546111d69061246e565b80156112235780601f106111f857610100808354040283529160200191611223565b820191906000526020600020905b81548152906001019060200180831161120657829003601f168201915b5050505050815260200160078201805461123c9061246e565b80601f01602080910402602001604051908101604052809291908181526020018280546112689061246e565b80156112b55780601f1061128a576101008083540402835291602001916112b5565b820191906000526020600020905b81548152906001019060200180831161129857829003601f168201915b505050505081526020016008820180546112ce9061246e565b80601f01602080910402602001604051908101604052809291908181526020018280546112fa9061246e565b80156113475780601f1061131c57610100808354040283529160200191611347565b820191906000526020600020905b81548152906001019060200180831161132a57829003601f168201915b505050505081526020016009820180546113609061246e565b80601f016020809104026020016040519081016040528092919081815260200182805461138c9061246e565b80156113d95780601f106113ae576101008083540402835291602001916113d9565b820191906000526020600020905b8154815290600101906020018083116113bc57829003601f168201915b5050505050815250509050919050565b6007602052816000526040600020818154811061140557600080fd5b906000526020600020016000915091509054906101000a900473ffffffffffffffffffffffffffffffffffffffff1681565b606060008054806020026020016040519081016040528092919081815260200182805480156114bb57602002820191906000526020600020905b8160009054906101000a900473ffffffffffffffffffffffffffffffffffffffff1673ffffffffffffffffffffffffffffffffffffffff1681526020019060010190808311611471575b5050505050905090565b600260003373ffffffffffffffffffffffffffffffffffffffff1673ffffffffffffffffffffffffffffffffffffffff16815260200190815260200160002060009054906101000a900460ff1661151b57600080fd5b6000600660008b73ffffffffffffffffffffffffffffffffffffffff1673ffffffffffffffffffffffffffffffffffffffff1681526020019081526020016000209050338160010160006101000a81548173ffffffffffffffffffffffffffffffffffffffff021916908373ffffffffffffffffffffffffffffffffffffffff160217905550898160000160006101000a81548173ffffffffffffffffffffffffffffffffffffffff021916908373ffffffffffffffffffffffffffffffffffffffff160217905550878160020190805190602001906115fc9291906119fe565b50888160030190805190602001906116159291906119fe565b508681600401908051906020019061162e9291906119fe565b50858160050190805190602001906116479291906119fe565b50848160060190805190602001906116609291906119fe565b50838160070190805190602001906116799291906119fe565b50828160080190805190602001906116929291906119fe565b50818160090190805190602001906116ab9291906119fe565b50600760008b73ffffffffffffffffffffffffffffffffffffffff1673ffffffffffffffffffffffffffffffffffffffff168152602001908152602001600020339080600181540180825580915050600190039060005260206000200160009091909190916101000a81548173ffffffffffffffffffffffffffffffffffffffff021916908373ffffffffffffffffffffffffffffffffffffffff1602179055506008600081548092919061175f906124a0565b91905055507fd227fb64b88bf438275d27787dd0e084477e716309437e7d2a50f605d74176568a604051611793919061210c565b60405180910390a150505050505050505050565b60026020528060005260406000206000915054906101000a900460ff1681565b600081815481106117d757600080fd5b906000526020600020016000915054906101000a900473ffffffffffffffffffffffffffffffffffffffff1681565b60016020528060005260406000206000915090508060000180546118299061246e565b80601f01602080910402602001604051908101604052809291908181526020018280546118559061246e565b80156118a25780601f10611877576101008083540402835291602001916118a2565b820191906000526020600020905b81548152906001019060200180831161188557829003601f168201915b5050505050908060010180546118b79061246e565b80601f01602080910402602001604051908101604052809291908181526020018280546118e39061246e565b80156119305780601f1061190557610100808354040283529160200191611930565b820191906000526020600020905b81548152906001019060200180831161191357829003601f168201915b5050505050908060020180546119459061246e565b80601f01602080910402602001604051908101604052809291908181526020018280546119719061246e565b80156119be5780601f10611993576101008083540402835291602001916119be565b820191906000526020600020905b8154815290600101906020018083116119a157829003601f168201915b5050505050908060030160009054906101000a900473ffffffffffffffffffffffffffffffffffffffff16908060040154905085565b6000600354905090565b828054611a0a9061246e565b90600052602060002090601f016020900481019282611a2c5760008555611a73565b82601f10611a4557805160ff1916838001178555611a73565b82800160010185558215611a73579182015b82811115611a72578251825591602001919060010190611a57565b5b509050611a809190611b03565b5090565b604051806101400160405280600073ffffffffffffffffffffffffffffffffffffffff168152602001600073ffffffffffffffffffffffffffffffffffffffff16815260200160608152602001606081526020016060815260200160608152602001606081526020016060815260200160608152602001606081525090565b5b80821115611b1c576000816000905550600101611b04565b5090565b6000611b33611b2e8461234e565b61231d565b905082815260208101848484011115611b4b57600080fd5b611b5684828561242c565b509392505050565b600081359050611b6d81612587565b92915050565b600082601f830112611b8457600080fd5b8135611b94848260208601611b20565b91505092915050565b600081359050611bac8161259e565b92915050565b600060208284031215611bc457600080fd5b6000611bd284828501611b5e565b91505092915050565b60008060008060008060008060006101208a8c031215611bfa57600080fd5b6000611c088c828d01611b5e565b99505060208a013567ffffffffffffffff811115611c2557600080fd5b611c318c828d01611b73565b98505060408a013567ffffffffffffffff811115611c4e57600080fd5b611c5a8c828d01611b73565b97505060608a013567ffffffffffffffff811115611c7757600080fd5b611c838c828d01611b73565b96505060808a013567ffffffffffffffff811115611ca057600080fd5b611cac8c828d01611b73565b95505060a08a013567ffffffffffffffff811115611cc957600080fd5b611cd58c828d01611b73565b94505060c08a013567ffffffffffffffff811115611cf257600080fd5b611cfe8c828d01611b73565b93505060e08a013567ffffffffffffffff811115611d1b57600080fd5b611d278c828d01611b73565b9250506101008a013567ffffffffffffffff811115611d4557600080fd5b611d518c828d01611b73565b9150509295985092959850929598565b60008060408385031215611d7457600080fd5b6000611d8285828601611b5e565b9250506020611d9385828601611b9d565b9150509250929050565b600080600060608486031215611db257600080fd5b600084013567ffffffffffffffff811115611dcc57600080fd5b611dd886828701611b73565b935050602084013567ffffffffffffffff811115611df557600080fd5b611e0186828701611b73565b925050604084013567ffffffffffffffff811115611e1e57600080fd5b611e2a86828701611b73565b9150509250925092565b600060208284031215611e4657600080fd5b6000611e5484828501611b9d565b91505092915050565b6000611e698383611e75565b60208301905092915050565b611e7e816123e4565b82525050565b611e8d816123e4565b82525050565b6000611e9e8261238e565b611ea881856123b1565b9350611eb38361237e565b8060005b83811015611ee4578151611ecb8882611e5d565b9750611ed6836123a4565b925050600181019050611eb7565b5085935050505092915050565b611efa816123f6565b82525050565b6000611f0b82612399565b611f1581856123c2565b9350611f2581856020860161243b565b611f2e81612576565b840191505092915050565b6000611f4482612399565b611f4e81856123d3565b9350611f5e81856020860161243b565b611f6781612576565b840191505092915050565b6000611f7f6015836123d3565b91507f5265636f726420646f6573206e6f7420657869737400000000000000000000006000830152602082019050919050565b6000611fbf600e836123d3565b91507f4163636573732044656e6965642e0000000000000000000000000000000000006000830152602082019050919050565b60006101408301600083015161200b6000860182611e75565b50602083015161201e6020860182611e75565b50604083015184820360408601526120368282611f00565b915050606083015184820360608601526120508282611f00565b9150506080830151848203608086015261206a8282611f00565b91505060a083015184820360a08601526120848282611f00565b91505060c083015184820360c086015261209e8282611f00565b91505060e083015184820360e08601526120b88282611f00565b9150506101008301518482036101008601526120d48282611f00565b9150506101208301518482036101208601526120f08282611f00565b9150508091505092915050565b61210681612422565b82525050565b60006020820190506121216000830184611e84565b92915050565b60006101408201905061213d600083018d611e84565b61214a602083018c611e84565b818103604083015261215c818b611f39565b90508181036060830152612170818a611f39565b905081810360808301526121848189611f39565b905081810360a08301526121988188611f39565b905081810360c08301526121ac8187611f39565b905081810360e08301526121c08186611f39565b90508181036101008301526121d58185611f39565b90508181036101208301526121ea8184611f39565b90509b9a5050505050505050505050565b600060208201905081810360008301526122158184611e93565b905092915050565b60006020820190506122326000830184611ef1565b92915050565b600060a08201905081810360008301526122528188611f39565b905081810360208301526122668187611f39565b9050818103604083015261227a8186611f39565b90506122896060830185611e84565b61229660808301846120fd565b9695505050505050565b600060208201905081810360008301526122b981611f72565b9050919050565b600060208201905081810360008301526122d981611fb2565b9050919050565b600060208201905081810360008301526122fa8184611ff2565b905092915050565b600060208201905061231760008301846120fd565b92915050565b6000604051905081810181811067ffffffffffffffff8211171561234457612343612547565b5b8060405250919050565b600067ffffffffffffffff82111561236957612368612547565b5b601f19601f8301169050602081019050919050565b6000819050602082019050919050565b600081519050919050565b600081519050919050565b6000602082019050919050565b600082825260208201905092915050565b600082825260208201905092915050565b600082825260208201905092915050565b60006123ef82612402565b9050919050565b60008115159050919050565b600073ffffffffffffffffffffffffffffffffffffffff82169050919050565b6000819050919050565b82818337600083830152505050565b60005b8381101561245957808201518184015260208101905061243e565b83811115612468576000848401525b50505050565b6000600282049050600182168061248657607f821691505b6020821081141561249a57612499612518565b5b50919050565b60006124ab82612422565b91507fffffffffffffffffffffffffffffffffffffffffffffffffffffffffffffffff8214156124de576124dd6124e9565b5b600182019050919050565b7f4e487b7100000000000000000000000000000000000000000000000000000000600052601160045260246000fd5b7f4e487b7100000000000000000000000000000000000000000000000000000000600052602260045260246000fd5b7f4e487b7100000000000000000000000000000000000000000000000000000000600052604160045260246000fd5b6000601f19601f8301169050919050565b612590816123e4565b811461259b57600080fd5b50565b6125a781612422565b81146125b257600080fd5b5056fea264697066735822122099a163c64ebb4ddb669b5fe7a863e4670292bf4d7015bb5da3d22a4c4873811364736f6c63430008000033",
  "immutableReferences": {},
  "source": "// SPDX-License-Identifier: MIT\r\npragma solidity ^0.8.0;\r\n\r\nimport \"./Hospital.sol\";\r\nimport \"./PermissionLibrary.sol\";\r\n\r\ncontract MedicalHistoryRecords is HospitalRecords {\r\n\r\n    using PermissionLibrary for mapping(address => mapping(address => bool));\r\n    mapping(address => mapping(address => bool)) isApprovedToViewMedicalHistory;\r\n\r\n    // Structure to store medical history record details\r\n    struct HistoryRecord {\r\n        address owner; //Patient's address\r\n        address hospitalAddr;\r\n        string hospital;\r\n        string physician;\r\n        string dateOfDiagnosis;\r\n        string diagnosis;\r\n        string symptoms;\r\n        string durationSeverity;\r\n        string signs;\r\n        string relevantMedicalHistory;\r\n    }   \r\n    \r\n    address[] public medicalHistoryList;\r\n    mapping(address => HistoryRecord) public historyRecords;\r\n    mapping(address => address[]) public patientHistoryRecords;\r\n    uint256 public medicalHistoryCount = 0;\r\n    \r\n    // Event emitted when a medical history record is added\r\n    event MedicalHistoryRecordAdded(address patientAddr);\r\n\r\n    // Event emitted when a medical history record is edited\r\n    event MedicalHistoryRecordEdited(address patientAddr);\r\n\r\n    function addMedicalHistory(\r\n        address _patientAddr,\r\n        string memory _physician,\r\n        string memory _hospital,\r\n        string memory _dateOfDiagnosis,\r\n        string memory _diagnosis,\r\n        string memory _symptoms,\r\n        string memory _durationSeverity,\r\n        string memory _signs,\r\n        string memory _relevantMedicalHistory\r\n    ) public {\r\n        require(isHospital[msg.sender]);\r\n        // Set the details of the new medical history record\r\n        HistoryRecord storage record = historyRecords[_patientAddr];\r\n        record.hospitalAddr = msg.sender;\r\n        record.owner = _patientAddr;\r\n        record.hospital = _hospital;\r\n        record.physician = _physician;\r\n        record.dateOfDiagnosis = _dateOfDiagnosis;\r\n        record.diagnosis = _diagnosis;\r\n        record.symptoms = _symptoms;\r\n        record.durationSeverity = _durationSeverity;\r\n        record.signs = _signs;\r\n        record.relevantMedicalHistory = _relevantMedicalHistory;\r\n\r\n        // Update patient's history records and increment the total count\r\n        patientHistoryRecords[_patientAddr].push(msg.sender);\r\n        medicalHistoryCount++;\r\n\r\n        // Emit the event after modifying the historyRecords mapping\r\n        emit MedicalHistoryRecordAdded(_patientAddr);\r\n    }\r\n\r\n    function editMedicalHistory(\r\n        address _patientAddr,\r\n        string memory _physician,\r\n        string memory _hospital,\r\n        string memory _dateOfDiagnosis,\r\n        string memory _diagnosis,\r\n        string memory _symptoms,\r\n        string memory _durationSeverity,\r\n        string memory _signs,\r\n        string memory _relevantMedicalHistory\r\n    ) public {\r\n        require(isHospital[msg.sender]);\r\n        // Retrieve the record from storage\r\n        HistoryRecord storage record = historyRecords[_patientAddr];\r\n\r\n        // Check if the record exists and belongs to the specified patient\r\n        require(record.hospitalAddr != address(0), \"Record does not exist\");\r\n\r\n        // Update the record with the new information\r\n        record.physician = _physician;\r\n        record.hospital = _hospital;\r\n        record.dateOfDiagnosis = _dateOfDiagnosis;\r\n        record.diagnosis = _diagnosis;\r\n        record.symptoms = _symptoms;\r\n        record.durationSeverity = _durationSeverity;\r\n        record.signs = _signs;\r\n        record.relevantMedicalHistory = _relevantMedicalHistory;\r\n\r\n        // Emit the event after modifying the record\r\n        emit MedicalHistoryRecordEdited(_patientAddr);\r\n    }\r\n\r\n    // Function to retrieve medical history for a specific patient if meron permission\r\n    function getMedicalHistory(address patientAddr) public view returns (MedicalHistoryRecords.HistoryRecord memory) {\r\n        require(isApprovedToViewMedicalHistory[patientAddr][msg.sender], \"Access Denied.\"); //checker kung may permission\r\n        return MedicalHistoryRecords.historyRecords[patientAddr];\r\n    }\r\n}\r\n",
  "sourcePath": "C:\\Users\\Abby\\Desktop\\APPCON 2023\\MediVerse-Web3-Dapp\\contracts\\MedicalHistory.sol",
  "compiler": {
    "name": "solc",
    "version": "0.8.0+commit.c7dfd78e.Emscripten.clang"
  },
  "schemaVersion": "3.4.16",
  "updatedAt": "2024-02-19T16:06:39.873Z",
  "networkType": "ethereum",
  "devdoc": {
    "kind": "dev",
    "methods": {},
    "version": 1
  },
  "userdoc": {
    "kind": "user",
    "methods": {},
    "version": 1
  }
}