{
  "contractName": "MedicalProcedureHistory",
  "abi": [
    {
      "inputs": [
        {
          "internalType": "string",
          "name": "_hospitalName",
          "type": "string"
        },
        {
          "internalType": "string",
          "name": "_contactNum",
          "type": "string"
        },
        {
          "internalType": "string",
          "name": "_hospitalAddress",
          "type": "string"
        }
      ],
      "name": "editHospitalProfile",
      "outputs": [],
      "stateMutability": "nonpayable",
      "type": "function"
    },
    {
      "inputs": [],
      "name": "getHospitalCount",
      "outputs": [
        {
          "internalType": "uint256",
          "name": "",
          "type": "uint256"
        }
      ],
      "stateMutability": "view",
      "type": "function",
      "constant": true
    },
    {
      "inputs": [],
      "name": "getHospitalList",
      "outputs": [
        {
          "internalType": "address[]",
          "name": "",
          "type": "address[]"
        }
      ],
      "stateMutability": "view",
      "type": "function",
      "constant": true
    },
    {
      "inputs": [],
      "name": "hospitalCount",
      "outputs": [
        {
          "internalType": "uint256",
          "name": "",
          "type": "uint256"
        }
      ],
      "stateMutability": "view",
      "type": "function",
      "constant": true
    },
    {
      "inputs": [
        {
          "internalType": "uint256",
          "name": "",
          "type": "uint256"
        }
      ],
      "name": "hospitalList",
      "outputs": [
        {
          "internalType": "address",
          "name": "",
          "type": "address"
        }
      ],
      "stateMutability": "view",
      "type": "function",
      "constant": true
    },
    {
      "inputs": [
        {
          "internalType": "address",
          "name": "",
          "type": "address"
        }
      ],
      "name": "hospitals",
      "outputs": [
        {
          "internalType": "string",
          "name": "hospitalName",
          "type": "string"
        },
        {
          "internalType": "string",
          "name": "contactNum",
          "type": "string"
        },
        {
          "internalType": "string",
          "name": "hospitalAddress",
          "type": "string"
        },
        {
          "internalType": "address",
          "name": "addr",
          "type": "address"
        },
        {
          "internalType": "uint256",
          "name": "date",
          "type": "uint256"
        }
      ],
      "stateMutability": "view",
      "type": "function",
      "constant": true
    },
    {
      "inputs": [
        {
          "internalType": "address",
          "name": "",
          "type": "address"
        }
      ],
      "name": "isHospital",
      "outputs": [
        {
          "internalType": "bool",
          "name": "",
          "type": "bool"
        }
      ],
      "stateMutability": "view",
      "type": "function",
      "constant": true
    },
    {
      "inputs": [
        {
          "internalType": "address",
          "name": "",
          "type": "address"
        },
        {
          "internalType": "uint256",
          "name": "",
          "type": "uint256"
        }
      ],
      "name": "patientProcedureRecords",
      "outputs": [
        {
          "internalType": "address",
          "name": "",
          "type": "address"
        }
      ],
      "stateMutability": "view",
      "type": "function",
      "constant": true
    },
    {
      "inputs": [],
      "name": "procedureHistoryCount",
      "outputs": [
        {
          "internalType": "uint256",
          "name": "",
          "type": "uint256"
        }
      ],
      "stateMutability": "view",
      "type": "function",
      "constant": true
    },
    {
      "inputs": [
        {
          "internalType": "uint256",
          "name": "",
          "type": "uint256"
        }
      ],
      "name": "procedureHistoryList",
      "outputs": [
        {
          "internalType": "address",
          "name": "",
          "type": "address"
        }
      ],
      "stateMutability": "view",
      "type": "function",
      "constant": true
    },
    {
      "inputs": [
        {
          "internalType": "address",
          "name": "",
          "type": "address"
        }
      ],
      "name": "procedureRecords",
      "outputs": [
        {
          "internalType": "address",
          "name": "owner",
          "type": "address"
        },
        {
          "internalType": "address",
          "name": "hospitalAddr",
          "type": "address"
        },
        {
          "internalType": "string",
          "name": "hospital",
          "type": "string"
        },
        {
          "internalType": "string",
          "name": "procedureType",
          "type": "string"
        },
        {
          "internalType": "string",
          "name": "procedureDescription",
          "type": "string"
        },
        {
          "internalType": "string",
          "name": "procedureComplications",
          "type": "string"
        },
        {
          "internalType": "string",
          "name": "dateOfProcedure",
          "type": "string"
        },
        {
          "internalType": "string",
          "name": "preOperativeInstructions",
          "type": "string"
        },
        {
          "internalType": "string",
          "name": "postOperativeCare",
          "type": "string"
        }
      ],
      "stateMutability": "view",
      "type": "function",
      "constant": true
    },
    {
      "inputs": [
        {
          "internalType": "string",
          "name": "_hospitalName",
          "type": "string"
        },
        {
          "internalType": "string",
          "name": "_contactNum",
          "type": "string"
        },
        {
          "internalType": "string",
          "name": "_hospitalAddress",
          "type": "string"
        }
      ],
      "name": "registerHospital",
      "outputs": [],
      "stateMutability": "nonpayable",
      "type": "function"
    },
    {
      "inputs": [
        {
          "internalType": "address",
          "name": "_patientAddr",
          "type": "address"
        },
        {
          "internalType": "string",
          "name": "_procedureType",
          "type": "string"
        },
        {
          "internalType": "string",
          "name": "_procedureDescription",
          "type": "string"
        },
        {
          "internalType": "string",
          "name": "_procedureComplications",
          "type": "string"
        },
        {
          "internalType": "string",
          "name": "_dateOfProcedure",
          "type": "string"
        },
        {
          "internalType": "string",
          "name": "_preOperativeInstructions",
          "type": "string"
        },
        {
          "internalType": "string",
          "name": "_postOperativeCare",
          "type": "string"
        }
      ],
      "name": "addMedicalProcedure",
      "outputs": [],
      "stateMutability": "nonpayable",
      "type": "function"
    },
    {
      "inputs": [
        {
          "internalType": "address",
          "name": "_patientAddr",
          "type": "address"
        },
        {
          "internalType": "string",
          "name": "_procedureType",
          "type": "string"
        },
        {
          "internalType": "string",
          "name": "_procedureDescription",
          "type": "string"
        },
        {
          "internalType": "string",
          "name": "_procedureComplications",
          "type": "string"
        },
        {
          "internalType": "string",
          "name": "_dateOfProcedure",
          "type": "string"
        },
        {
          "internalType": "string",
          "name": "_preOperativeInstructions",
          "type": "string"
        },
        {
          "internalType": "string",
          "name": "_postOperativeCare",
          "type": "string"
        }
      ],
      "name": "editMedicalProcedure",
      "outputs": [],
      "stateMutability": "nonpayable",
      "type": "function"
    },
    {
      "inputs": [
        {
          "internalType": "address",
          "name": "patientAddr",
          "type": "address"
        }
      ],
      "name": "getProcedureHistory",
      "outputs": [
        {
          "components": [
            {
              "internalType": "address",
              "name": "owner",
              "type": "address"
            },
            {
              "internalType": "address",
              "name": "hospitalAddr",
              "type": "address"
            },
            {
              "internalType": "string",
              "name": "hospital",
              "type": "string"
            },
            {
              "internalType": "string",
              "name": "procedureType",
              "type": "string"
            },
            {
              "internalType": "string",
              "name": "procedureDescription",
              "type": "string"
            },
            {
              "internalType": "string",
              "name": "procedureComplications",
              "type": "string"
            },
            {
              "internalType": "string",
              "name": "dateOfProcedure",
              "type": "string"
            },
            {
              "internalType": "string",
              "name": "preOperativeInstructions",
              "type": "string"
            },
            {
              "internalType": "string",
              "name": "postOperativeCare",
              "type": "string"
            }
          ],
          "internalType": "struct MedicalProcedureHistory.ProcedureRecord",
          "name": "",
          "type": "tuple"
        }
      ],
      "stateMutability": "view",
      "type": "function",
      "constant": true
    }
  ],
  "bytecode": "0x60806040526000600355600060085534801561001a57600080fd5b506123e98061002a6000396000f3fe608060405234801561001057600080fd5b50600436106100f55760003560e01c80636933e41411610097578063bdf6c67311610066578063bdf6c6731461028c578063c82412b9146102bc578063f093cf80146102ec578063fe45a81d14610320576100f5565b80636933e414146101e85780637404806d1461020657806383fb90b014610224578063bc774e0414610254576100f5565b8063350dadb7116100d3578063350dadb71461016257806338d18014146101805780634df3939a146101b0578063526b44ac146101cc576100f5565b806321a1500a146100fa5780632357f1e9146101165780632fd4558e14610146575b600080fd5b610114600480360381019061010f9190611bcd565b61033e565b005b610130600480360381019061012b9190611c64565b610428565b60405161013d9190611f20565b60405180910390f35b610160600480360381019061015b9190611a63565b610467565b005b61016a6106ba565b6040516101779190612100565b60405180910390f35b61019a60048036038101906101959190611b91565b6106c0565b6040516101a79190611f20565b60405180910390f35b6101ca60048036038101906101c59190611a63565b61070e565b005b6101e660048036038101906101e19190611bcd565b610985565b005b6101f0610b8f565b6040516101fd9190611ff9565b60405180910390f35b61020e610c1d565b60405161021b9190612100565b60405180910390f35b61023e60048036038101906102399190611a3a565b610c23565b60405161024b91906120de565b60405180910390f35b61026e60048036038101906102699190611a3a565b6111f0565b60405161028399989796959493929190611f3b565b60405180910390f35b6102a660048036038101906102a19190611a3a565b611636565b6040516102b3919061201b565b60405180910390f35b6102d660048036038101906102d19190611c64565b611656565b6040516102e39190611f20565b60405180910390f35b61030660048036038101906103019190611a3a565b611695565b604051610317959493929190612036565b60405180910390f35b610328611883565b6040516103359190612100565b60405180910390f35b600260003373ffffffffffffffffffffffffffffffffffffffff1673ffffffffffffffffffffffffffffffffffffffff16815260200190815260200160002060009054906101000a900460ff1661039457600080fd5b6000600160003373ffffffffffffffffffffffffffffffffffffffff1673ffffffffffffffffffffffffffffffffffffffff1681526020019081526020016000209050838160000190805190602001906103ef92919061188d565b508281600101908051906020019061040892919061188d565b508181600201908051906020019061042192919061188d565b5050505050565b6005818154811061043857600080fd5b906000526020600020016000915054906101000a900473ffffffffffffffffffffffffffffffffffffffff1681565b600260003373ffffffffffffffffffffffffffffffffffffffff1673ffffffffffffffffffffffffffffffffffffffff16815260200190815260200160002060009054906101000a900460ff166104bd57600080fd5b6000600660008973ffffffffffffffffffffffffffffffffffffffff1673ffffffffffffffffffffffffffffffffffffffff1681526020019081526020016000209050600073ffffffffffffffffffffffffffffffffffffffff168160010160009054906101000a900473ffffffffffffffffffffffffffffffffffffffff1673ffffffffffffffffffffffffffffffffffffffff161415610594576040517f08c379a000000000000000000000000000000000000000000000000000000000815260040161058b9061209e565b60405180910390fd5b338160010160006101000a81548173ffffffffffffffffffffffffffffffffffffffff021916908373ffffffffffffffffffffffffffffffffffffffff160217905550878160000160006101000a81548173ffffffffffffffffffffffffffffffffffffffff021916908373ffffffffffffffffffffffffffffffffffffffff1602179055508681600301908051906020019061063292919061188d565b508581600401908051906020019061064b92919061188d565b508481600501908051906020019061066492919061188d565b508381600601908051906020019061067d92919061188d565b508281600701908051906020019061069692919061188d565b50818160080190805190602001906106af92919061188d565b505050505050505050565b60035481565b600760205281600052604060002081815481106106dc57600080fd5b906000526020600020016000915091509054906101000a900473ffffffffffffffffffffffffffffffffffffffff1681565b600260003373ffffffffffffffffffffffffffffffffffffffff1673ffffffffffffffffffffffffffffffffffffffff16815260200190815260200160002060009054906101000a900460ff1661076457600080fd5b6000600660008973ffffffffffffffffffffffffffffffffffffffff1673ffffffffffffffffffffffffffffffffffffffff1681526020019081526020016000209050338160010160006101000a81548173ffffffffffffffffffffffffffffffffffffffff021916908373ffffffffffffffffffffffffffffffffffffffff160217905550878160000160006101000a81548173ffffffffffffffffffffffffffffffffffffffff021916908373ffffffffffffffffffffffffffffffffffffffff1602179055508681600301908051906020019061084592919061188d565b508581600401908051906020019061085e92919061188d565b508481600501908051906020019061087792919061188d565b508381600601908051906020019061089092919061188d565b50828160070190805190602001906108a992919061188d565b50818160080190805190602001906108c292919061188d565b50600760008973ffffffffffffffffffffffffffffffffffffffff1673ffffffffffffffffffffffffffffffffffffffff168152602001908152602001600020339080600181540180825580915050600190039060005260206000200160009091909190916101000a81548173ffffffffffffffffffffffffffffffffffffffff021916908373ffffffffffffffffffffffffffffffffffffffff160217905550600860008154809291906109769061229e565b91905055505050505050505050565b600260003373ffffffffffffffffffffffffffffffffffffffff1673ffffffffffffffffffffffffffffffffffffffff16815260200190815260200160002060009054906101000a900460ff16156109dc57600080fd5b6000600160003373ffffffffffffffffffffffffffffffffffffffff1673ffffffffffffffffffffffffffffffffffffffff168152602001908152602001600020905083816000019080519060200190610a3792919061188d565b5082816001019080519060200190610a5092919061188d565b5081816002019080519060200190610a6992919061188d565b50338160030160006101000a81548173ffffffffffffffffffffffffffffffffffffffff021916908373ffffffffffffffffffffffffffffffffffffffff1602179055504281600401819055506000339080600181540180825580915050600190039060005260206000200160009091909190916101000a81548173ffffffffffffffffffffffffffffffffffffffff021916908373ffffffffffffffffffffffffffffffffffffffff1602179055506001600260003373ffffffffffffffffffffffffffffffffffffffff1673ffffffffffffffffffffffffffffffffffffffff16815260200190815260200160002060006101000a81548160ff02191690831515021790555060036000815480929190610b849061229e565b919050555050505050565b60606000805480602002602001604051908101604052809291908181526020018280548015610c1357602002820191906000526020600020905b8160009054906101000a900473ffffffffffffffffffffffffffffffffffffffff1673ffffffffffffffffffffffffffffffffffffffff1681526020019060010190808311610bc9575b5050505050905090565b60085481565b610c2b611913565b600460008373ffffffffffffffffffffffffffffffffffffffff1673ffffffffffffffffffffffffffffffffffffffff16815260200190815260200160002060003373ffffffffffffffffffffffffffffffffffffffff1673ffffffffffffffffffffffffffffffffffffffff16815260200190815260200160002060009054906101000a900460ff16610cf4576040517f08c379a0000000000000000000000000000000000000000000000000000000008152600401610ceb906120be565b60405180910390fd5b600660008373ffffffffffffffffffffffffffffffffffffffff1673ffffffffffffffffffffffffffffffffffffffff168152602001908152602001600020604051806101200160405290816000820160009054906101000a900473ffffffffffffffffffffffffffffffffffffffff1673ffffffffffffffffffffffffffffffffffffffff1673ffffffffffffffffffffffffffffffffffffffff1681526020016001820160009054906101000a900473ffffffffffffffffffffffffffffffffffffffff1673ffffffffffffffffffffffffffffffffffffffff1673ffffffffffffffffffffffffffffffffffffffff168152602001600282018054610dfb9061226c565b80601f0160208091040260200160405190810160405280929190818152602001828054610e279061226c565b8015610e745780601f10610e4957610100808354040283529160200191610e74565b820191906000526020600020905b815481529060010190602001808311610e5757829003601f168201915b50505050508152602001600382018054610e8d9061226c565b80601f0160208091040260200160405190810160405280929190818152602001828054610eb99061226c565b8015610f065780601f10610edb57610100808354040283529160200191610f06565b820191906000526020600020905b815481529060010190602001808311610ee957829003601f168201915b50505050508152602001600482018054610f1f9061226c565b80601f0160208091040260200160405190810160405280929190818152602001828054610f4b9061226c565b8015610f985780601f10610f6d57610100808354040283529160200191610f98565b820191906000526020600020905b815481529060010190602001808311610f7b57829003601f168201915b50505050508152602001600582018054610fb19061226c565b80601f0160208091040260200160405190810160405280929190818152602001828054610fdd9061226c565b801561102a5780601f10610fff5761010080835404028352916020019161102a565b820191906000526020600020905b81548152906001019060200180831161100d57829003601f168201915b505050505081526020016006820180546110439061226c565b80601f016020809104026020016040519081016040528092919081815260200182805461106f9061226c565b80156110bc5780601f10611091576101008083540402835291602001916110bc565b820191906000526020600020905b81548152906001019060200180831161109f57829003601f168201915b505050505081526020016007820180546110d59061226c565b80601f01602080910402602001604051908101604052809291908181526020018280546111019061226c565b801561114e5780601f106111235761010080835404028352916020019161114e565b820191906000526020600020905b81548152906001019060200180831161113157829003601f168201915b505050505081526020016008820180546111679061226c565b80601f01602080910402602001604051908101604052809291908181526020018280546111939061226c565b80156111e05780601f106111b5576101008083540402835291602001916111e0565b820191906000526020600020905b8154815290600101906020018083116111c357829003601f168201915b5050505050815250509050919050565b60066020528060005260406000206000915090508060000160009054906101000a900473ffffffffffffffffffffffffffffffffffffffff16908060010160009054906101000a900473ffffffffffffffffffffffffffffffffffffffff169080600201805461125f9061226c565b80601f016020809104026020016040519081016040528092919081815260200182805461128b9061226c565b80156112d85780601f106112ad576101008083540402835291602001916112d8565b820191906000526020600020905b8154815290600101906020018083116112bb57829003601f168201915b5050505050908060030180546112ed9061226c565b80601f01602080910402602001604051908101604052809291908181526020018280546113199061226c565b80156113665780601f1061133b57610100808354040283529160200191611366565b820191906000526020600020905b81548152906001019060200180831161134957829003601f168201915b50505050509080600401805461137b9061226c565b80601f01602080910402602001604051908101604052809291908181526020018280546113a79061226c565b80156113f45780601f106113c9576101008083540402835291602001916113f4565b820191906000526020600020905b8154815290600101906020018083116113d757829003601f168201915b5050505050908060050180546114099061226c565b80601f01602080910402602001604051908101604052809291908181526020018280546114359061226c565b80156114825780601f1061145757610100808354040283529160200191611482565b820191906000526020600020905b81548152906001019060200180831161146557829003601f168201915b5050505050908060060180546114979061226c565b80601f01602080910402602001604051908101604052809291908181526020018280546114c39061226c565b80156115105780601f106114e557610100808354040283529160200191611510565b820191906000526020600020905b8154815290600101906020018083116114f357829003601f168201915b5050505050908060070180546115259061226c565b80601f01602080910402602001604051908101604052809291908181526020018280546115519061226c565b801561159e5780601f106115735761010080835404028352916020019161159e565b820191906000526020600020905b81548152906001019060200180831161158157829003601f168201915b5050505050908060080180546115b39061226c565b80601f01602080910402602001604051908101604052809291908181526020018280546115df9061226c565b801561162c5780601f106116015761010080835404028352916020019161162c565b820191906000526020600020905b81548152906001019060200180831161160f57829003601f168201915b5050505050905089565b60026020528060005260406000206000915054906101000a900460ff1681565b6000818154811061166657600080fd5b906000526020600020016000915054906101000a900473ffffffffffffffffffffffffffffffffffffffff1681565b60016020528060005260406000206000915090508060000180546116b89061226c565b80601f01602080910402602001604051908101604052809291908181526020018280546116e49061226c565b80156117315780601f1061170657610100808354040283529160200191611731565b820191906000526020600020905b81548152906001019060200180831161171457829003601f168201915b5050505050908060010180546117469061226c565b80601f01602080910402602001604051908101604052809291908181526020018280546117729061226c565b80156117bf5780601f10611794576101008083540402835291602001916117bf565b820191906000526020600020905b8154815290600101906020018083116117a257829003601f168201915b5050505050908060020180546117d49061226c565b80601f01602080910402602001604051908101604052809291908181526020018280546118009061226c565b801561184d5780601f106118225761010080835404028352916020019161184d565b820191906000526020600020905b81548152906001019060200180831161183057829003601f168201915b5050505050908060030160009054906101000a900473ffffffffffffffffffffffffffffffffffffffff16908060040154905085565b6000600354905090565b8280546118999061226c565b90600052602060002090601f0160209004810192826118bb5760008555611902565b82601f106118d457805160ff1916838001178555611902565b82800160010185558215611902579182015b828111156119015782518255916020019190600101906118e6565b5b50905061190f919061198b565b5090565b604051806101200160405280600073ffffffffffffffffffffffffffffffffffffffff168152602001600073ffffffffffffffffffffffffffffffffffffffff168152602001606081526020016060815260200160608152602001606081526020016060815260200160608152602001606081525090565b5b808211156119a457600081600090555060010161198c565b5090565b60006119bb6119b68461214c565b61211b565b9050828152602081018484840111156119d357600080fd5b6119de84828561222a565b509392505050565b6000813590506119f581612385565b92915050565b600082601f830112611a0c57600080fd5b8135611a1c8482602086016119a8565b91505092915050565b600081359050611a348161239c565b92915050565b600060208284031215611a4c57600080fd5b6000611a5a848285016119e6565b91505092915050565b600080600080600080600060e0888a031215611a7e57600080fd5b6000611a8c8a828b016119e6565b975050602088013567ffffffffffffffff811115611aa957600080fd5b611ab58a828b016119fb565b965050604088013567ffffffffffffffff811115611ad257600080fd5b611ade8a828b016119fb565b955050606088013567ffffffffffffffff811115611afb57600080fd5b611b078a828b016119fb565b945050608088013567ffffffffffffffff811115611b2457600080fd5b611b308a828b016119fb565b93505060a088013567ffffffffffffffff811115611b4d57600080fd5b611b598a828b016119fb565b92505060c088013567ffffffffffffffff811115611b7657600080fd5b611b828a828b016119fb565b91505092959891949750929550565b60008060408385031215611ba457600080fd5b6000611bb2858286016119e6565b9250506020611bc385828601611a25565b9150509250929050565b600080600060608486031215611be257600080fd5b600084013567ffffffffffffffff811115611bfc57600080fd5b611c08868287016119fb565b935050602084013567ffffffffffffffff811115611c2557600080fd5b611c31868287016119fb565b925050604084013567ffffffffffffffff811115611c4e57600080fd5b611c5a868287016119fb565b9150509250925092565b600060208284031215611c7657600080fd5b6000611c8484828501611a25565b91505092915050565b6000611c998383611ca5565b60208301905092915050565b611cae816121e2565b82525050565b611cbd816121e2565b82525050565b6000611cce8261218c565b611cd881856121af565b9350611ce38361217c565b8060005b83811015611d14578151611cfb8882611c8d565b9750611d06836121a2565b925050600181019050611ce7565b5085935050505092915050565b611d2a816121f4565b82525050565b6000611d3b82612197565b611d4581856121c0565b9350611d55818560208601612239565b611d5e81612374565b840191505092915050565b6000611d7482612197565b611d7e81856121d1565b9350611d8e818560208601612239565b611d9781612374565b840191505092915050565b6000611daf6015836121d1565b91507f5265636f726420646f6573206e6f7420657869737400000000000000000000006000830152602082019050919050565b6000611def600e836121d1565b91507f4163636573732044656e6965642e0000000000000000000000000000000000006000830152602082019050919050565b600061012083016000830151611e3b6000860182611ca5565b506020830151611e4e6020860182611ca5565b5060408301518482036040860152611e668282611d30565b91505060608301518482036060860152611e808282611d30565b91505060808301518482036080860152611e9a8282611d30565b91505060a083015184820360a0860152611eb48282611d30565b91505060c083015184820360c0860152611ece8282611d30565b91505060e083015184820360e0860152611ee88282611d30565b915050610100830151848203610100860152611f048282611d30565b9150508091505092915050565b611f1a81612220565b82525050565b6000602082019050611f356000830184611cb4565b92915050565b600061012082019050611f51600083018c611cb4565b611f5e602083018b611cb4565b8181036040830152611f70818a611d69565b90508181036060830152611f848189611d69565b90508181036080830152611f988188611d69565b905081810360a0830152611fac8187611d69565b905081810360c0830152611fc08186611d69565b905081810360e0830152611fd48185611d69565b9050818103610100830152611fe98184611d69565b90509a9950505050505050505050565b600060208201905081810360008301526120138184611cc3565b905092915050565b60006020820190506120306000830184611d21565b92915050565b600060a08201905081810360008301526120508188611d69565b905081810360208301526120648187611d69565b905081810360408301526120788186611d69565b90506120876060830185611cb4565b6120946080830184611f11565b9695505050505050565b600060208201905081810360008301526120b781611da2565b9050919050565b600060208201905081810360008301526120d781611de2565b9050919050565b600060208201905081810360008301526120f88184611e22565b905092915050565b60006020820190506121156000830184611f11565b92915050565b6000604051905081810181811067ffffffffffffffff8211171561214257612141612345565b5b8060405250919050565b600067ffffffffffffffff82111561216757612166612345565b5b601f19601f8301169050602081019050919050565b6000819050602082019050919050565b600081519050919050565b600081519050919050565b6000602082019050919050565b600082825260208201905092915050565b600082825260208201905092915050565b600082825260208201905092915050565b60006121ed82612200565b9050919050565b60008115159050919050565b600073ffffffffffffffffffffffffffffffffffffffff82169050919050565b6000819050919050565b82818337600083830152505050565b60005b8381101561225757808201518184015260208101905061223c565b83811115612266576000848401525b50505050565b6000600282049050600182168061228457607f821691505b6020821081141561229857612297612316565b5b50919050565b60006122a982612220565b91507fffffffffffffffffffffffffffffffffffffffffffffffffffffffffffffffff8214156122dc576122db6122e7565b5b600182019050919050565b7f4e487b7100000000000000000000000000000000000000000000000000000000600052601160045260246000fd5b7f4e487b7100000000000000000000000000000000000000000000000000000000600052602260045260246000fd5b7f4e487b7100000000000000000000000000000000000000000000000000000000600052604160045260246000fd5b6000601f19601f8301169050919050565b61238e816121e2565b811461239957600080fd5b50565b6123a581612220565b81146123b057600080fd5b5056fea2646970667358221220d62a9a03a425c9d2950deeb5728156eca79f9ed98ac73946750c464d3b52828464736f6c63430008000033",
  "immutableReferences": {},
  "source": "// SPDX-License-Identifier: MIT\r\npragma solidity ^0.8.0;\r\n\r\nimport \"./Hospital.sol\";\r\nimport \"./PermissionLibrary.sol\";\r\n\r\ncontract MedicalProcedureHistory is HospitalRecords{\r\n\r\n    using PermissionLibrary for mapping(address => mapping(address => bool));\r\n    mapping(address => mapping(address => bool)) isApprovedToViewProcedureHistory;\r\n\r\n    struct ProcedureRecord {\r\n        address owner; //Patient's address\r\n        address hospitalAddr;\r\n        string hospital;\r\n        string procedureType; \r\n        string procedureDescription;   // Procedure Details\r\n        string procedureComplications;\r\n        string dateOfProcedure; \r\n        string preOperativeInstructions; \r\n        string postOperativeCare;   // Post-operative Care\r\n    }\r\n\r\n    address[] public procedureHistoryList;\r\n    mapping(address => ProcedureRecord) public procedureRecords;\r\n    mapping(address => address[]) public patientProcedureRecords;\r\n    uint256 public procedureHistoryCount = 0;\r\n\r\n    function addMedicalProcedure(\r\n        address _patientAddr,\r\n        string memory _procedureType,\r\n        string memory _procedureDescription,\r\n        string memory _procedureComplications,\r\n        string memory _dateOfProcedure,\r\n        string memory _preOperativeInstructions,\r\n        string memory _postOperativeCare\r\n    ) public {\r\n        require(isHospital[msg.sender]);\r\n\r\n        ProcedureRecord storage record = procedureRecords[_patientAddr];\r\n\r\n        record.hospitalAddr = msg.sender;\r\n        record.owner = _patientAddr;\r\n        record.procedureType = _procedureType;\r\n        record.procedureDescription = _procedureDescription;\r\n        record.procedureComplications = _procedureComplications;\r\n        record.dateOfProcedure = _dateOfProcedure;\r\n        record.preOperativeInstructions = _preOperativeInstructions;\r\n        record.postOperativeCare = _postOperativeCare;\r\n\r\n        patientProcedureRecords[_patientAddr].push(msg.sender);\r\n        procedureHistoryCount++;\r\n   }\r\n\r\n   function editMedicalProcedure(\r\n        address _patientAddr,\r\n        string memory _procedureType,\r\n        string memory _procedureDescription,\r\n        string memory _procedureComplications,\r\n        string memory _dateOfProcedure,\r\n        string memory _preOperativeInstructions,\r\n        string memory _postOperativeCare\r\n   ) public {\r\n        \r\n        require(isHospital[msg.sender]);\r\n\r\n        ProcedureRecord storage record = procedureRecords[_patientAddr];\r\n\r\n        // Check if the record exists and belongs to the specified patient\r\n        require(record.hospitalAddr != address(0), \"Record does not exist\");\r\n        \r\n        record.hospitalAddr = msg.sender;\r\n        record.owner = _patientAddr;\r\n        record.procedureType = _procedureType;\r\n        record.procedureDescription = _procedureDescription;\r\n        record.procedureComplications = _procedureComplications;\r\n        record.dateOfProcedure = _dateOfProcedure;\r\n        record.preOperativeInstructions = _preOperativeInstructions;\r\n        record.postOperativeCare = _postOperativeCare;\r\n   }\r\n\r\n    // Function to retrieve medical history for a specific patient if meron permission\r\n    function getProcedureHistory(address patientAddr) public view returns (MedicalProcedureHistory.ProcedureRecord memory) {\r\n        require(isApprovedToViewProcedureHistory[patientAddr][msg.sender], \"Access Denied.\"); //checker kung may permission\r\n        return MedicalProcedureHistory.procedureRecords[patientAddr];\r\n    }\r\n}   ",
  "sourcePath": "C:\\Users\\Abby\\Desktop\\APPCON 2023\\MediVerse-Web3-Dapp\\contracts\\MedicalProcedureHistory.sol",
  "compiler": {
    "name": "solc",
    "version": "0.8.0+commit.c7dfd78e.Emscripten.clang"
  },
  "schemaVersion": "3.4.16",
  "updatedAt": "2024-02-19T16:06:39.897Z",
  "networkType": "ethereum",
  "devdoc": {
    "kind": "dev",
    "methods": {},
    "version": 1
  },
  "userdoc": {
    "kind": "user",
    "methods": {},
    "version": 1
  }
}