{
  "contractName": "MediVerse",
  "abi": [
    {
      "inputs": [
        {
          "internalType": "uint256",
          "name": "",
          "type": "uint256"
        }
      ],
      "name": "hospitalList",
      "outputs": [
        {
          "internalType": "address",
          "name": "",
          "type": "address"
        }
      ],
      "stateMutability": "view",
      "type": "function",
      "constant": true
    },
    {
      "inputs": [
        {
          "internalType": "address",
          "name": "",
          "type": "address"
        }
      ],
      "name": "hospitals",
      "outputs": [
        {
          "internalType": "string",
          "name": "name",
          "type": "string"
        },
        {
          "internalType": "string",
          "name": "contactNum",
          "type": "string"
        },
        {
          "internalType": "string",
          "name": "addr",
          "type": "string"
        },
        {
          "internalType": "uint256",
          "name": "creationDate",
          "type": "uint256"
        }
      ],
      "stateMutability": "view",
      "type": "function",
      "constant": true
    },
    {
      "inputs": [
        {
          "internalType": "address",
          "name": "",
          "type": "address"
        }
      ],
      "name": "isRegistered",
      "outputs": [
        {
          "internalType": "bool",
          "name": "",
          "type": "bool"
        }
      ],
      "stateMutability": "view",
      "type": "function",
      "constant": true
    },
    {
      "inputs": [
        {
          "internalType": "address",
          "name": "",
          "type": "address"
        },
        {
          "internalType": "uint256",
          "name": "",
          "type": "uint256"
        }
      ],
      "name": "medicalHistories",
      "outputs": [
        {
          "internalType": "address",
          "name": "patientAddr",
          "type": "address"
        },
        {
          "internalType": "address",
          "name": "hospitalAddr",
          "type": "address"
        },
        {
          "internalType": "string",
          "name": "physician",
          "type": "string"
        },
        {
          "internalType": "string",
          "name": "diagnosis",
          "type": "string"
        },
        {
          "internalType": "string",
          "name": "signsAndSymptoms",
          "type": "string"
        },
        {
          "internalType": "string",
          "name": "treatmentProcedure",
          "type": "string"
        },
        {
          "internalType": "string",
          "name": "tests",
          "type": "string"
        },
        {
          "internalType": "string",
          "name": "medications",
          "type": "string"
        },
        {
          "internalType": "string",
          "name": "admission",
          "type": "string"
        },
        {
          "internalType": "uint256",
          "name": "creationDate",
          "type": "uint256"
        }
      ],
      "stateMutability": "view",
      "type": "function",
      "constant": true
    },
    {
      "inputs": [
        {
          "internalType": "uint256",
          "name": "",
          "type": "uint256"
        }
      ],
      "name": "medicalHistoryList",
      "outputs": [
        {
          "internalType": "address",
          "name": "patientAddr",
          "type": "address"
        },
        {
          "internalType": "address",
          "name": "hospitalAddr",
          "type": "address"
        },
        {
          "internalType": "string",
          "name": "physician",
          "type": "string"
        },
        {
          "internalType": "string",
          "name": "diagnosis",
          "type": "string"
        },
        {
          "internalType": "string",
          "name": "signsAndSymptoms",
          "type": "string"
        },
        {
          "internalType": "string",
          "name": "treatmentProcedure",
          "type": "string"
        },
        {
          "internalType": "string",
          "name": "tests",
          "type": "string"
        },
        {
          "internalType": "string",
          "name": "medications",
          "type": "string"
        },
        {
          "internalType": "string",
          "name": "admission",
          "type": "string"
        },
        {
          "internalType": "uint256",
          "name": "creationDate",
          "type": "uint256"
        }
      ],
      "stateMutability": "view",
      "type": "function",
      "constant": true
    },
    {
      "inputs": [
        {
          "internalType": "uint256",
          "name": "",
          "type": "uint256"
        }
      ],
      "name": "patientList",
      "outputs": [
        {
          "internalType": "address",
          "name": "",
          "type": "address"
        }
      ],
      "stateMutability": "view",
      "type": "function",
      "constant": true
    },
    {
      "inputs": [
        {
          "internalType": "address",
          "name": "",
          "type": "address"
        }
      ],
      "name": "patients",
      "outputs": [
        {
          "internalType": "string",
          "name": "name",
          "type": "string"
        },
        {
          "internalType": "string",
          "name": "age",
          "type": "string"
        },
        {
          "internalType": "string",
          "name": "gender",
          "type": "string"
        },
        {
          "internalType": "string",
          "name": "dateOfBirth",
          "type": "string"
        },
        {
          "internalType": "string",
          "name": "height",
          "type": "string"
        },
        {
          "internalType": "string",
          "name": "weight",
          "type": "string"
        },
        {
          "internalType": "string",
          "name": "contactNum",
          "type": "string"
        },
        {
          "internalType": "string",
          "name": "addr",
          "type": "string"
        },
        {
          "internalType": "uint256",
          "name": "creationDate",
          "type": "uint256"
        }
      ],
      "stateMutability": "view",
      "type": "function",
      "constant": true
    },
    {
      "inputs": [
        {
          "internalType": "string",
          "name": "_name",
          "type": "string"
        },
        {
          "internalType": "string",
          "name": "_age",
          "type": "string"
        },
        {
          "internalType": "string",
          "name": "_gender",
          "type": "string"
        },
        {
          "internalType": "string",
          "name": "_dateOfBirth",
          "type": "string"
        },
        {
          "internalType": "string",
          "name": "_height",
          "type": "string"
        },
        {
          "internalType": "string",
          "name": "_weight",
          "type": "string"
        },
        {
          "internalType": "string",
          "name": "_contactNum",
          "type": "string"
        },
        {
          "internalType": "string",
          "name": "_address",
          "type": "string"
        }
      ],
      "name": "registerPatient",
      "outputs": [],
      "stateMutability": "nonpayable",
      "type": "function"
    },
    {
      "inputs": [
        {
          "internalType": "string",
          "name": "_name",
          "type": "string"
        },
        {
          "internalType": "string",
          "name": "_age",
          "type": "string"
        },
        {
          "internalType": "string",
          "name": "_gender",
          "type": "string"
        },
        {
          "internalType": "string",
          "name": "_dateOfBirth",
          "type": "string"
        },
        {
          "internalType": "string",
          "name": "_height",
          "type": "string"
        },
        {
          "internalType": "string",
          "name": "_weight",
          "type": "string"
        },
        {
          "internalType": "string",
          "name": "_contactNum",
          "type": "string"
        },
        {
          "internalType": "string",
          "name": "_address",
          "type": "string"
        }
      ],
      "name": "editPatientDetails",
      "outputs": [],
      "stateMutability": "nonpayable",
      "type": "function"
    },
    {
      "inputs": [
        {
          "internalType": "string",
          "name": "_name",
          "type": "string"
        },
        {
          "internalType": "string",
          "name": "_contactNum",
          "type": "string"
        },
        {
          "internalType": "string",
          "name": "_address",
          "type": "string"
        }
      ],
      "name": "registerHospital",
      "outputs": [],
      "stateMutability": "nonpayable",
      "type": "function"
    },
    {
      "inputs": [
        {
          "internalType": "string",
          "name": "_name",
          "type": "string"
        },
        {
          "internalType": "string",
          "name": "_contactNum",
          "type": "string"
        },
        {
          "internalType": "string",
          "name": "_addr",
          "type": "string"
        }
      ],
      "name": "editHospitalDetails",
      "outputs": [],
      "stateMutability": "nonpayable",
      "type": "function"
    },
    {
      "inputs": [
        {
          "internalType": "address",
          "name": "_patientAddr",
          "type": "address"
        },
        {
          "internalType": "string",
          "name": "_physician",
          "type": "string"
        },
        {
          "internalType": "string",
          "name": "_diagnosis",
          "type": "string"
        },
        {
          "internalType": "string",
          "name": "_signsAndSymptoms",
          "type": "string"
        },
        {
          "internalType": "string",
          "name": "_treatmentProcedure",
          "type": "string"
        },
        {
          "internalType": "string",
          "name": "_tests",
          "type": "string"
        },
        {
          "internalType": "string",
          "name": "_medications",
          "type": "string"
        },
        {
          "internalType": "string",
          "name": "_admission",
          "type": "string"
        }
      ],
      "name": "addMedicalHistory",
      "outputs": [],
      "stateMutability": "nonpayable",
      "type": "function"
    },
    {
      "inputs": [
        {
          "internalType": "address",
          "name": "_patientAddr",
          "type": "address"
        },
        {
          "internalType": "string",
          "name": "_physician",
          "type": "string"
        },
        {
          "internalType": "string",
          "name": "_diagnosis",
          "type": "string"
        },
        {
          "internalType": "string",
          "name": "_signsAndSymptoms",
          "type": "string"
        },
        {
          "internalType": "string",
          "name": "_treatmentProcedure",
          "type": "string"
        },
        {
          "internalType": "string",
          "name": "_tests",
          "type": "string"
        },
        {
          "internalType": "string",
          "name": "_medications",
          "type": "string"
        },
        {
          "internalType": "string",
          "name": "_admission",
          "type": "string"
        }
      ],
      "name": "editMedicalHistory",
      "outputs": [],
      "stateMutability": "nonpayable",
      "type": "function"
    },
    {
      "inputs": [
        {
          "internalType": "address",
          "name": "_patientAddr",
          "type": "address"
        },
        {
          "internalType": "string",
          "name": "_name",
          "type": "string"
        },
        {
          "internalType": "string",
          "name": "_age",
          "type": "string"
        },
        {
          "internalType": "string",
          "name": "_gender",
          "type": "string"
        },
        {
          "internalType": "string",
          "name": "_dateOfBirth",
          "type": "string"
        },
        {
          "internalType": "string",
          "name": "_height",
          "type": "string"
        },
        {
          "internalType": "string",
          "name": "_weight",
          "type": "string"
        },
        {
          "internalType": "string",
          "name": "_contactNum",
          "type": "string"
        },
        {
          "internalType": "string",
          "name": "_address",
          "type": "string"
        }
      ],
      "name": "addPatient",
      "outputs": [],
      "stateMutability": "nonpayable",
      "type": "function"
    },
    {
      "inputs": [
        {
          "internalType": "address",
          "name": "_patientAddr",
          "type": "address"
        }
      ],
      "name": "getMedicalHistory",
      "outputs": [
        {
          "components": [
            {
              "internalType": "address",
              "name": "patientAddr",
              "type": "address"
            },
            {
              "internalType": "address",
              "name": "hospitalAddr",
              "type": "address"
            },
            {
              "internalType": "string",
              "name": "physician",
              "type": "string"
            },
            {
              "internalType": "string",
              "name": "diagnosis",
              "type": "string"
            },
            {
              "internalType": "string",
              "name": "signsAndSymptoms",
              "type": "string"
            },
            {
              "internalType": "string",
              "name": "treatmentProcedure",
              "type": "string"
            },
            {
              "internalType": "string",
              "name": "tests",
              "type": "string"
            },
            {
              "internalType": "string",
              "name": "medications",
              "type": "string"
            },
            {
              "internalType": "string",
              "name": "admission",
              "type": "string"
            },
            {
              "internalType": "uint256",
              "name": "creationDate",
              "type": "uint256"
            }
          ],
          "internalType": "struct MediVerse.MedicalHistory[]",
          "name": "",
          "type": "tuple[]"
        }
      ],
      "stateMutability": "view",
      "type": "function",
      "constant": true
    },
    {
      "inputs": [],
      "name": "getAllMedicalHistory",
      "outputs": [
        {
          "components": [
            {
              "internalType": "address",
              "name": "patientAddr",
              "type": "address"
            },
            {
              "internalType": "address",
              "name": "hospitalAddr",
              "type": "address"
            },
            {
              "internalType": "string",
              "name": "physician",
              "type": "string"
            },
            {
              "internalType": "string",
              "name": "diagnosis",
              "type": "string"
            },
            {
              "internalType": "string",
              "name": "signsAndSymptoms",
              "type": "string"
            },
            {
              "internalType": "string",
              "name": "treatmentProcedure",
              "type": "string"
            },
            {
              "internalType": "string",
              "name": "tests",
              "type": "string"
            },
            {
              "internalType": "string",
              "name": "medications",
              "type": "string"
            },
            {
              "internalType": "string",
              "name": "admission",
              "type": "string"
            },
            {
              "internalType": "uint256",
              "name": "creationDate",
              "type": "uint256"
            }
          ],
          "internalType": "struct MediVerse.MedicalHistory[]",
          "name": "",
          "type": "tuple[]"
        }
      ],
      "stateMutability": "view",
      "type": "function",
      "constant": true
    },
    {
      "inputs": [
        {
          "internalType": "address",
          "name": "patientAddress",
          "type": "address"
        }
      ],
      "name": "getPatientInfo",
      "outputs": [
        {
          "internalType": "string",
          "name": "",
          "type": "string"
        },
        {
          "internalType": "string",
          "name": "",
          "type": "string"
        },
        {
          "internalType": "string",
          "name": "",
          "type": "string"
        },
        {
          "internalType": "string",
          "name": "",
          "type": "string"
        },
        {
          "internalType": "string",
          "name": "",
          "type": "string"
        },
        {
          "internalType": "string",
          "name": "",
          "type": "string"
        },
        {
          "internalType": "string",
          "name": "",
          "type": "string"
        },
        {
          "internalType": "string",
          "name": "",
          "type": "string"
        },
        {
          "internalType": "address[]",
          "name": "",
          "type": "address[]"
        },
        {
          "internalType": "uint256",
          "name": "",
          "type": "uint256"
        }
      ],
      "stateMutability": "view",
      "type": "function",
      "constant": true
    },
    {
      "inputs": [
        {
          "internalType": "address",
          "name": "hospitalAddress",
          "type": "address"
        }
      ],
      "name": "getHospitalInfo",
      "outputs": [
        {
          "internalType": "string",
          "name": "",
          "type": "string"
        },
        {
          "internalType": "string",
          "name": "",
          "type": "string"
        },
        {
          "internalType": "string",
          "name": "",
          "type": "string"
        },
        {
          "internalType": "uint256",
          "name": "",
          "type": "uint256"
        }
      ],
      "stateMutability": "view",
      "type": "function",
      "constant": true
    },
    {
      "inputs": [
        {
          "internalType": "address",
          "name": "_hospitalAddr",
          "type": "address"
        }
      ],
      "name": "givePermission",
      "outputs": [],
      "stateMutability": "nonpayable",
      "type": "function"
    },
    {
      "inputs": [
        {
          "internalType": "address",
          "name": "_hospitalAddr",
          "type": "address"
        }
      ],
      "name": "revokeAccess",
      "outputs": [],
      "stateMutability": "nonpayable",
      "type": "function"
    },
    {
      "inputs": [
        {
          "internalType": "address",
          "name": "_patientAddr",
          "type": "address"
        }
      ],
      "name": "requestPermission",
      "outputs": [],
      "stateMutability": "nonpayable",
      "type": "function"
    },
    {
      "inputs": [
        {
          "internalType": "address",
          "name": "_patientAddr",
          "type": "address"
        }
      ],
      "name": "getAuthorizedHospitals",
      "outputs": [
        {
          "internalType": "address[]",
          "name": "",
          "type": "address[]"
        }
      ],
      "stateMutability": "view",
      "type": "function",
      "constant": true
    },
    {
      "inputs": [
        {
          "internalType": "address",
          "name": "_patientAddr",
          "type": "address"
        }
      ],
      "name": "getPendingRequests",
      "outputs": [
        {
          "internalType": "address[]",
          "name": "",
          "type": "address[]"
        }
      ],
      "stateMutability": "view",
      "type": "function",
      "constant": true
    },
    {
      "inputs": [],
      "name": "getPatientList",
      "outputs": [
        {
          "internalType": "address[]",
          "name": "",
          "type": "address[]"
        }
      ],
      "stateMutability": "view",
      "type": "function",
      "constant": true
    },
    {
      "inputs": [],
      "name": "getHospitalList",
      "outputs": [
        {
          "internalType": "address[]",
          "name": "",
          "type": "address[]"
        }
      ],
      "stateMutability": "view",
      "type": "function",
      "constant": true
    }
  ],
  "bytecode": "0x608060405234801561001057600080fd5b506157ce80620000216000396000f3fe608060405234801561001057600080fd5b50600436106101735760003560e01c806372339509116100de578063c82412b911610097578063e1de2d5911610071578063e1de2d59146104b8578063f05bfa7b146104d4578063f093cf8014610504578063f74258f91461053757610173565b8063c82412b91461043c578063d31e37291461046c578063db49021c1461049c57610173565b806372339509146103385780638486f67a1461037157806385e68531146103a45780639ec310be146103c0578063babb1d41146103dc578063c3c5a5471461040c57610173565b80634b426178116101305780634b4261781461025b578063503b135414610294578063507f478b146102b2578063526b44ac146102ce5780635986de61146102ea5780636933e4141461031a57610173565b80630869cfbc1461017857806319406a64146101b057806329cf54a3146101e95780632d57f4ed146102055780633d391f70146102215780634150f5541461023d575b600080fd5b610192600480360381019061018d91906145cf565b610553565b6040516101a799989796959493929190615274565b60405180910390f35b6101ca60048036038101906101c59190614b1d565b6109e1565b6040516101e09a9998979695949392919061506d565b60405180910390f35b61020360048036038101906101fe91906149ab565b610e3d565b005b61021f600480360381019061021a9190614914565b6110a4565b005b61023b600480360381019061023691906145cf565b611141565b005b610245611495565b604051610252919061515c565b60405180910390f35b610275600480360381019061027091906145cf565b6119a9565b60405161028b9a99989796959493929190615199565b60405180910390f35b61029c611f2e565b6040516102a9919061513a565b60405180910390f35b6102cc60048036038101906102c791906145cf565b611fbc565b005b6102e860048036038101906102e39190614914565b6120a9565b005b61030460048036038101906102ff91906145cf565b61228e565b604051610311919061515c565b60405180910390f35b6103226127e1565b60405161032f919061513a565b60405180910390f35b610352600480360381019061034d91906148d8565b61286f565b6040516103689a9998979695949392919061506d565b60405180910390f35b61038b600480360381019061038691906145cf565b612cd8565b60405161039b9493929190615339565b60405180910390f35b6103be60048036038101906103b991906145cf565b612ee6565b005b6103da60048036038101906103d591906145f8565b61319c565b005b6103f660048036038101906103f19190614b1d565b6135cc565b6040516104039190615052565b60405180910390f35b610426600480360381019061042191906145cf565b61360b565b604051610433919061517e565b60405180910390f35b61045660048036038101906104519190614b1d565b61362b565b6040516104639190615052565b60405180910390f35b610486600480360381019061048191906145cf565b61366a565b604051610493919061513a565b60405180910390f35b6104b660048036038101906104b19190614752565b61373a565b005b6104d260048036038101906104cd91906149ab565b6139a2565b005b6104ee60048036038101906104e991906145cf565b613ac1565b6040516104fb919061513a565b60405180910390f35b61051e600480360381019061051991906145cf565b613b8e565b60405161052e9493929190615339565b60405180910390f35b610551600480360381019061054c91906145f8565b613d56565b005b600460205280600052604060002060009150905080600001805461057690615651565b80601f01602080910402602001604051908101604052809291908181526020018280546105a290615651565b80156105ef5780601f106105c4576101008083540402835291602001916105ef565b820191906000526020600020905b8154815290600101906020018083116105d257829003601f168201915b50505050509080600101805461060490615651565b80601f016020809104026020016040519081016040528092919081815260200182805461063090615651565b801561067d5780601f106106525761010080835404028352916020019161067d565b820191906000526020600020905b81548152906001019060200180831161066057829003601f168201915b50505050509080600201805461069290615651565b80601f01602080910402602001604051908101604052809291908181526020018280546106be90615651565b801561070b5780601f106106e05761010080835404028352916020019161070b565b820191906000526020600020905b8154815290600101906020018083116106ee57829003601f168201915b50505050509080600301805461072090615651565b80601f016020809104026020016040519081016040528092919081815260200182805461074c90615651565b80156107995780601f1061076e57610100808354040283529160200191610799565b820191906000526020600020905b81548152906001019060200180831161077c57829003601f168201915b5050505050908060040180546107ae90615651565b80601f01602080910402602001604051908101604052809291908181526020018280546107da90615651565b80156108275780601f106107fc57610100808354040283529160200191610827565b820191906000526020600020905b81548152906001019060200180831161080a57829003601f168201915b50505050509080600501805461083c90615651565b80601f016020809104026020016040519081016040528092919081815260200182805461086890615651565b80156108b55780601f1061088a576101008083540402835291602001916108b5565b820191906000526020600020905b81548152906001019060200180831161089857829003601f168201915b5050505050908060060180546108ca90615651565b80601f01602080910402602001604051908101604052809291908181526020018280546108f690615651565b80156109435780601f1061091857610100808354040283529160200191610943565b820191906000526020600020905b81548152906001019060200180831161092657829003601f168201915b50505050509080600701805461095890615651565b80601f016020809104026020016040519081016040528092919081815260200182805461098490615651565b80156109d15780601f106109a6576101008083540402835291602001916109d1565b820191906000526020600020905b8154815290600101906020018083116109b457829003601f168201915b5050505050908060090154905089565b600281815481106109f157600080fd5b90600052602060002090600a02016000915090508060000160009054906101000a900473ffffffffffffffffffffffffffffffffffffffff16908060010160009054906101000a900473ffffffffffffffffffffffffffffffffffffffff1690806002018054610a6090615651565b80601f0160208091040260200160405190810160405280929190818152602001828054610a8c90615651565b8015610ad95780601f10610aae57610100808354040283529160200191610ad9565b820191906000526020600020905b815481529060010190602001808311610abc57829003601f168201915b505050505090806003018054610aee90615651565b80601f0160208091040260200160405190810160405280929190818152602001828054610b1a90615651565b8015610b675780601f10610b3c57610100808354040283529160200191610b67565b820191906000526020600020905b815481529060010190602001808311610b4a57829003601f168201915b505050505090806004018054610b7c90615651565b80601f0160208091040260200160405190810160405280929190818152602001828054610ba890615651565b8015610bf55780601f10610bca57610100808354040283529160200191610bf5565b820191906000526020600020905b815481529060010190602001808311610bd857829003601f168201915b505050505090806005018054610c0a90615651565b80601f0160208091040260200160405190810160405280929190818152602001828054610c3690615651565b8015610c835780601f10610c5857610100808354040283529160200191610c83565b820191906000526020600020905b815481529060010190602001808311610c6657829003601f168201915b505050505090806006018054610c9890615651565b80601f0160208091040260200160405190810160405280929190818152602001828054610cc490615651565b8015610d115780601f10610ce657610100808354040283529160200191610d11565b820191906000526020600020905b815481529060010190602001808311610cf457829003601f168201915b505050505090806007018054610d2690615651565b80601f0160208091040260200160405190810160405280929190818152602001828054610d5290615651565b8015610d9f5780601f10610d7457610100808354040283529160200191610d9f565b820191906000526020600020905b815481529060010190602001808311610d8257829003601f168201915b505050505090806008018054610db490615651565b80601f0160208091040260200160405190810160405280929190818152602001828054610de090615651565b8015610e2d5780601f10610e0257610100808354040283529160200191610e2d565b820191906000526020600020905b815481529060010190602001808311610e1057829003601f168201915b505050505090806009015490508a565b600360003373ffffffffffffffffffffffffffffffffffffffff1673ffffffffffffffffffffffffffffffffffffffff16815260200190815260200160002060009054906101000a900460ff1615610eca576040517f08c379a0000000000000000000000000000000000000000000000000000000008152600401610ec190615393565b60405180910390fd5b6000600460003373ffffffffffffffffffffffffffffffffffffffff1673ffffffffffffffffffffffffffffffffffffffff168152602001908152602001600020905088816000019080519060200190610f2592919061441b565b5087816001019080519060200190610f3e92919061441b565b5086816002019080519060200190610f5792919061441b565b5085816003019080519060200190610f7092919061441b565b5084816004019080519060200190610f8992919061441b565b5083816005019080519060200190610fa292919061441b565b5082816006019080519060200190610fbb92919061441b565b5081816007019080519060200190610fd492919061441b565b504281600901819055506000339080600181540180825580915050600190039060005260206000200160009091909190916101000a81548173ffffffffffffffffffffffffffffffffffffffff021916908373ffffffffffffffffffffffffffffffffffffffff1602179055506001600360003373ffffffffffffffffffffffffffffffffffffffff1673ffffffffffffffffffffffffffffffffffffffff16815260200190815260200160002060006101000a81548160ff021916908315150217905550505050505050505050565b6000600560003373ffffffffffffffffffffffffffffffffffffffff1673ffffffffffffffffffffffffffffffffffffffff1681526020019081526020016000209050838160000190805190602001906110ff92919061441b565b508281600101908051906020019061111892919061441b565b508181600201908051906020019061113192919061441b565b5042816003018190555050505050565b61114b33826142c5565b1561118b576040517f08c379a000000000000000000000000000000000000000000000000000000000815260040161118290615453565b60405180910390fd5b6000600760003373ffffffffffffffffffffffffffffffffffffffff1673ffffffffffffffffffffffffffffffffffffffff168152602001908152602001600020905060005b81805490508110156113ed578273ffffffffffffffffffffffffffffffffffffffff1682828154811061122d577f4e487b7100000000000000000000000000000000000000000000000000000000600052603260045260246000fd5b9060005260206000200160009054906101000a900473ffffffffffffffffffffffffffffffffffffffff1673ffffffffffffffffffffffffffffffffffffffff1614156113da5781600183805490506112869190615593565b815481106112bd577f4e487b7100000000000000000000000000000000000000000000000000000000600052603260045260246000fd5b9060005260206000200160009054906101000a900473ffffffffffffffffffffffffffffffffffffffff16828281548110611321577f4e487b7100000000000000000000000000000000000000000000000000000000600052603260045260246000fd5b9060005260206000200160006101000a81548173ffffffffffffffffffffffffffffffffffffffff021916908373ffffffffffffffffffffffffffffffffffffffff160217905550818054806113a0577f4e487b7100000000000000000000000000000000000000000000000000000000600052603160045260246000fd5b6001900381819060005260206000200160006101000a81549073ffffffffffffffffffffffffffffffffffffffff021916905590556113ed565b80806113e590615683565b9150506111d1565b50600460003373ffffffffffffffffffffffffffffffffffffffff1673ffffffffffffffffffffffffffffffffffffffff168152602001908152602001600020600801829080600181540180825580915050600190039060005260206000200160009091909190916101000a81548173ffffffffffffffffffffffffffffffffffffffff021916908373ffffffffffffffffffffffffffffffffffffffff1602179055505050565b60606002805480602002602001604051908101604052809291908181526020016000905b828210156119a057838290600052602060002090600a0201604051806101400160405290816000820160009054906101000a900473ffffffffffffffffffffffffffffffffffffffff1673ffffffffffffffffffffffffffffffffffffffff1673ffffffffffffffffffffffffffffffffffffffff1681526020016001820160009054906101000a900473ffffffffffffffffffffffffffffffffffffffff1673ffffffffffffffffffffffffffffffffffffffff1673ffffffffffffffffffffffffffffffffffffffff16815260200160028201805461159990615651565b80601f01602080910402602001604051908101604052809291908181526020018280546115c590615651565b80156116125780601f106115e757610100808354040283529160200191611612565b820191906000526020600020905b8154815290600101906020018083116115f557829003601f168201915b5050505050815260200160038201805461162b90615651565b80601f016020809104026020016040519081016040528092919081815260200182805461165790615651565b80156116a45780601f10611679576101008083540402835291602001916116a4565b820191906000526020600020905b81548152906001019060200180831161168757829003601f168201915b505050505081526020016004820180546116bd90615651565b80601f01602080910402602001604051908101604052809291908181526020018280546116e990615651565b80156117365780601f1061170b57610100808354040283529160200191611736565b820191906000526020600020905b81548152906001019060200180831161171957829003601f168201915b5050505050815260200160058201805461174f90615651565b80601f016020809104026020016040519081016040528092919081815260200182805461177b90615651565b80156117c85780601f1061179d576101008083540402835291602001916117c8565b820191906000526020600020905b8154815290600101906020018083116117ab57829003601f168201915b505050505081526020016006820180546117e190615651565b80601f016020809104026020016040519081016040528092919081815260200182805461180d90615651565b801561185a5780601f1061182f5761010080835404028352916020019161185a565b820191906000526020600020905b81548152906001019060200180831161183d57829003601f168201915b5050505050815260200160078201805461187390615651565b80601f016020809104026020016040519081016040528092919081815260200182805461189f90615651565b80156118ec5780601f106118c1576101008083540402835291602001916118ec565b820191906000526020600020905b8154815290600101906020018083116118cf57829003601f168201915b5050505050815260200160088201805461190590615651565b80601f016020809104026020016040519081016040528092919081815260200182805461193190615651565b801561197e5780601f106119535761010080835404028352916020019161197e565b820191906000526020600020905b81548152906001019060200180831161196157829003601f168201915b50505050508152602001600982015481525050815260200190600101906114b9565b50505050905090565b6060806060806060806060806060600080600460008d73ffffffffffffffffffffffffffffffffffffffff1673ffffffffffffffffffffffffffffffffffffffff16815260200190815260200160002090508060000181600101826002018360030184600401856005018660060187600701886008018960090154898054611a3090615651565b80601f0160208091040260200160405190810160405280929190818152602001828054611a5c90615651565b8015611aa95780601f10611a7e57610100808354040283529160200191611aa9565b820191906000526020600020905b815481529060010190602001808311611a8c57829003601f168201915b50505050509950888054611abc90615651565b80601f0160208091040260200160405190810160405280929190818152602001828054611ae890615651565b8015611b355780601f10611b0a57610100808354040283529160200191611b35565b820191906000526020600020905b815481529060010190602001808311611b1857829003601f168201915b50505050509850878054611b4890615651565b80601f0160208091040260200160405190810160405280929190818152602001828054611b7490615651565b8015611bc15780601f10611b9657610100808354040283529160200191611bc1565b820191906000526020600020905b815481529060010190602001808311611ba457829003601f168201915b50505050509750868054611bd490615651565b80601f0160208091040260200160405190810160405280929190818152602001828054611c0090615651565b8015611c4d5780601f10611c2257610100808354040283529160200191611c4d565b820191906000526020600020905b815481529060010190602001808311611c3057829003601f168201915b50505050509650858054611c6090615651565b80601f0160208091040260200160405190810160405280929190818152602001828054611c8c90615651565b8015611cd95780601f10611cae57610100808354040283529160200191611cd9565b820191906000526020600020905b815481529060010190602001808311611cbc57829003601f168201915b50505050509550848054611cec90615651565b80601f0160208091040260200160405190810160405280929190818152602001828054611d1890615651565b8015611d655780601f10611d3a57610100808354040283529160200191611d65565b820191906000526020600020905b815481529060010190602001808311611d4857829003601f168201915b50505050509450838054611d7890615651565b80601f0160208091040260200160405190810160405280929190818152602001828054611da490615651565b8015611df15780601f10611dc657610100808354040283529160200191611df1565b820191906000526020600020905b815481529060010190602001808311611dd457829003601f168201915b50505050509350828054611e0490615651565b80601f0160208091040260200160405190810160405280929190818152602001828054611e3090615651565b8015611e7d5780601f10611e5257610100808354040283529160200191611e7d565b820191906000526020600020905b815481529060010190602001808311611e6057829003601f168201915b5050505050925081805480602002602001604051908101604052809291908181526020018280548015611f0557602002820191906000526020600020905b8160009054906101000a900473ffffffffffffffffffffffffffffffffffffffff1673ffffffffffffffffffffffffffffffffffffffff1681526020019060010190808311611ebb575b505050505091509a509a509a509a509a509a509a509a509a509a50509193959799509193959799565b60606000805480602002602001604051908101604052809291908181526020018280548015611fb257602002820191906000526020600020905b8160009054906101000a900473ffffffffffffffffffffffffffffffffffffffff1673ffffffffffffffffffffffffffffffffffffffff1681526020019060010190808311611f68575b5050505050905090565b611fc681336142c5565b15612006576040517f08c379a0000000000000000000000000000000000000000000000000000000008152600401611ffd90615413565b60405180910390fd5b600760008273ffffffffffffffffffffffffffffffffffffffff1673ffffffffffffffffffffffffffffffffffffffff168152602001908152602001600020339080600181540180825580915050600190039060005260206000200160009091909190916101000a81548173ffffffffffffffffffffffffffffffffffffffff021916908373ffffffffffffffffffffffffffffffffffffffff16021790555050565b600360003373ffffffffffffffffffffffffffffffffffffffff1673ffffffffffffffffffffffffffffffffffffffff16815260200190815260200160002060009054906101000a900460ff1615612136576040517f08c379a000000000000000000000000000000000000000000000000000000000815260040161212d90615433565b60405180910390fd5b6000600560003373ffffffffffffffffffffffffffffffffffffffff1673ffffffffffffffffffffffffffffffffffffffff16815260200190815260200160002090508381600001908051906020019061219192919061441b565b50828160010190805190602001906121aa92919061441b565b50818160020190805190602001906121c392919061441b565b504281600301819055506001339080600181540180825580915050600190039060005260206000200160009091909190916101000a81548173ffffffffffffffffffffffffffffffffffffffff021916908373ffffffffffffffffffffffffffffffffffffffff1602179055506001600360003373ffffffffffffffffffffffffffffffffffffffff1673ffffffffffffffffffffffffffffffffffffffff16815260200190815260200160002060006101000a81548160ff02191690831515021790555050505050565b6060600660008373ffffffffffffffffffffffffffffffffffffffff1673ffffffffffffffffffffffffffffffffffffffff168152602001908152602001600020805480602002602001604051908101604052809291908181526020016000905b828210156127d657838290600052602060002090600a0201604051806101400160405290816000820160009054906101000a900473ffffffffffffffffffffffffffffffffffffffff1673ffffffffffffffffffffffffffffffffffffffff1673ffffffffffffffffffffffffffffffffffffffff1681526020016001820160009054906101000a900473ffffffffffffffffffffffffffffffffffffffff1673ffffffffffffffffffffffffffffffffffffffff1673ffffffffffffffffffffffffffffffffffffffff1681526020016002820180546123cf90615651565b80601f01602080910402602001604051908101604052809291908181526020018280546123fb90615651565b80156124485780601f1061241d57610100808354040283529160200191612448565b820191906000526020600020905b81548152906001019060200180831161242b57829003601f168201915b5050505050815260200160038201805461246190615651565b80601f016020809104026020016040519081016040528092919081815260200182805461248d90615651565b80156124da5780601f106124af576101008083540402835291602001916124da565b820191906000526020600020905b8154815290600101906020018083116124bd57829003601f168201915b505050505081526020016004820180546124f390615651565b80601f016020809104026020016040519081016040528092919081815260200182805461251f90615651565b801561256c5780601f106125415761010080835404028352916020019161256c565b820191906000526020600020905b81548152906001019060200180831161254f57829003601f168201915b5050505050815260200160058201805461258590615651565b80601f01602080910402602001604051908101604052809291908181526020018280546125b190615651565b80156125fe5780601f106125d3576101008083540402835291602001916125fe565b820191906000526020600020905b8154815290600101906020018083116125e157829003601f168201915b5050505050815260200160068201805461261790615651565b80601f016020809104026020016040519081016040528092919081815260200182805461264390615651565b80156126905780601f1061266557610100808354040283529160200191612690565b820191906000526020600020905b81548152906001019060200180831161267357829003601f168201915b505050505081526020016007820180546126a990615651565b80601f01602080910402602001604051908101604052809291908181526020018280546126d590615651565b80156127225780601f106126f757610100808354040283529160200191612722565b820191906000526020600020905b81548152906001019060200180831161270557829003601f168201915b5050505050815260200160088201805461273b90615651565b80601f016020809104026020016040519081016040528092919081815260200182805461276790615651565b80156127b45780601f10612789576101008083540402835291602001916127b4565b820191906000526020600020905b81548152906001019060200180831161279757829003601f168201915b50505050508152602001600982015481525050815260200190600101906122ef565b505050509050919050565b6060600180548060200260200160405190810160405280929190818152602001828054801561286557602002820191906000526020600020905b8160009054906101000a900473ffffffffffffffffffffffffffffffffffffffff1673ffffffffffffffffffffffffffffffffffffffff168152602001906001019080831161281b575b5050505050905090565b6006602052816000526040600020818154811061288b57600080fd5b90600052602060002090600a0201600091509150508060000160009054906101000a900473ffffffffffffffffffffffffffffffffffffffff16908060010160009054906101000a900473ffffffffffffffffffffffffffffffffffffffff16908060020180546128fb90615651565b80601f016020809104026020016040519081016040528092919081815260200182805461292790615651565b80156129745780601f1061294957610100808354040283529160200191612974565b820191906000526020600020905b81548152906001019060200180831161295757829003601f168201915b50505050509080600301805461298990615651565b80601f01602080910402602001604051908101604052809291908181526020018280546129b590615651565b8015612a025780601f106129d757610100808354040283529160200191612a02565b820191906000526020600020905b8154815290600101906020018083116129e557829003601f168201915b505050505090806004018054612a1790615651565b80601f0160208091040260200160405190810160405280929190818152602001828054612a4390615651565b8015612a905780601f10612a6557610100808354040283529160200191612a90565b820191906000526020600020905b815481529060010190602001808311612a7357829003601f168201915b505050505090806005018054612aa590615651565b80601f0160208091040260200160405190810160405280929190818152602001828054612ad190615651565b8015612b1e5780601f10612af357610100808354040283529160200191612b1e565b820191906000526020600020905b815481529060010190602001808311612b0157829003601f168201915b505050505090806006018054612b3390615651565b80601f0160208091040260200160405190810160405280929190818152602001828054612b5f90615651565b8015612bac5780601f10612b8157610100808354040283529160200191612bac565b820191906000526020600020905b815481529060010190602001808311612b8f57829003601f168201915b505050505090806007018054612bc190615651565b80601f0160208091040260200160405190810160405280929190818152602001828054612bed90615651565b8015612c3a5780601f10612c0f57610100808354040283529160200191612c3a565b820191906000526020600020905b815481529060010190602001808311612c1d57829003601f168201915b505050505090806008018054612c4f90615651565b80601f0160208091040260200160405190810160405280929190818152602001828054612c7b90615651565b8015612cc85780601f10612c9d57610100808354040283529160200191612cc8565b820191906000526020600020905b815481529060010190602001808311612cab57829003601f168201915b505050505090806009015490508a565b6060806060600080600560008773ffffffffffffffffffffffffffffffffffffffff1673ffffffffffffffffffffffffffffffffffffffff16815260200190815260200160002090508060000181600101826002018360030154838054612d3e90615651565b80601f0160208091040260200160405190810160405280929190818152602001828054612d6a90615651565b8015612db75780601f10612d8c57610100808354040283529160200191612db7565b820191906000526020600020905b815481529060010190602001808311612d9a57829003601f168201915b50505050509350828054612dca90615651565b80601f0160208091040260200160405190810160405280929190818152602001828054612df690615651565b8015612e435780601f10612e1857610100808354040283529160200191612e43565b820191906000526020600020905b815481529060010190602001808311612e2657829003601f168201915b50505050509250818054612e5690615651565b80601f0160208091040260200160405190810160405280929190818152602001828054612e8290615651565b8015612ecf5780601f10612ea457610100808354040283529160200191612ecf565b820191906000526020600020905b815481529060010190602001808311612eb257829003601f168201915b505050505091509450945094509450509193509193565b612ef033826142c5565b612f2f576040517f08c379a0000000000000000000000000000000000000000000000000000000008152600401612f26906153d3565b60405180910390fd5b6000600460003373ffffffffffffffffffffffffffffffffffffffff1673ffffffffffffffffffffffffffffffffffffffff168152602001908152602001600020600801905060005b8180549050811015613196578273ffffffffffffffffffffffffffffffffffffffff16828281548110612fd4577f4e487b7100000000000000000000000000000000000000000000000000000000600052603260045260246000fd5b9060005260206000200160009054906101000a900473ffffffffffffffffffffffffffffffffffffffff1673ffffffffffffffffffffffffffffffffffffffff16141561318357816001838054905061302d9190615593565b81548110613064577f4e487b7100000000000000000000000000000000000000000000000000000000600052603260045260246000fd5b9060005260206000200160009054906101000a900473ffffffffffffffffffffffffffffffffffffffff168282815481106130c8577f4e487b7100000000000000000000000000000000000000000000000000000000600052603260045260246000fd5b9060005260206000200160006101000a81548173ffffffffffffffffffffffffffffffffffffffff021916908373ffffffffffffffffffffffffffffffffffffffff16021790555081805480613147577f4e487b7100000000000000000000000000000000000000000000000000000000600052603160045260246000fd5b6001900381819060005260206000200160006101000a81549073ffffffffffffffffffffffffffffffffffffffff021916905590555050613199565b808061318e90615683565b915050612f78565b50505b50565b6000600660008a73ffffffffffffffffffffffffffffffffffffffff1673ffffffffffffffffffffffffffffffffffffffff16815260200190815260200160002090506000818054905011613226576040517f08c379a000000000000000000000000000000000000000000000000000000000815260040161321d906153f3565b60405180910390fd5b60005b8180549050811015613586573373ffffffffffffffffffffffffffffffffffffffff16828281548110613285577f4e487b7100000000000000000000000000000000000000000000000000000000600052603260045260246000fd5b90600052602060002090600a020160010160009054906101000a900473ffffffffffffffffffffffffffffffffffffffff1673ffffffffffffffffffffffffffffffffffffffff161415613573578882828154811061330d577f4e487b7100000000000000000000000000000000000000000000000000000000600052603260045260246000fd5b90600052602060002090600a0201600201908051906020019061333192919061441b565b508782828154811061336c577f4e487b7100000000000000000000000000000000000000000000000000000000600052603260045260246000fd5b90600052602060002090600a0201600301908051906020019061339092919061441b565b50868282815481106133cb577f4e487b7100000000000000000000000000000000000000000000000000000000600052603260045260246000fd5b90600052602060002090600a020160040190805190602001906133ef92919061441b565b508582828154811061342a577f4e487b7100000000000000000000000000000000000000000000000000000000600052603260045260246000fd5b90600052602060002090600a0201600501908051906020019061344e92919061441b565b5084828281548110613489577f4e487b7100000000000000000000000000000000000000000000000000000000600052603260045260246000fd5b90600052602060002090600a020160060190805190602001906134ad92919061441b565b50838282815481106134e8577f4e487b7100000000000000000000000000000000000000000000000000000000600052603260045260246000fd5b90600052602060002090600a0201600701908051906020019061350c92919061441b565b5082828281548110613547577f4e487b7100000000000000000000000000000000000000000000000000000000600052603260045260246000fd5b90600052602060002090600a0201600801908051906020019061356b92919061441b565b5050506135c2565b808061357e90615683565b915050613229565b506040517f08c379a00000000000000000000000000000000000000000000000000000000081526004016135b990615473565b60405180910390fd5b5050505050505050565b600081815481106135dc57600080fd5b906000526020600020016000915054906101000a900473ffffffffffffffffffffffffffffffffffffffff1681565b60036020528060005260406000206000915054906101000a900460ff1681565b6001818154811061363b57600080fd5b906000526020600020016000915054906101000a900473ffffffffffffffffffffffffffffffffffffffff1681565b6060600460008373ffffffffffffffffffffffffffffffffffffffff1673ffffffffffffffffffffffffffffffffffffffff16815260200190815260200160002060080180548060200260200160405190810160405280929190818152602001828054801561372e57602002820191906000526020600020905b8160009054906101000a900473ffffffffffffffffffffffffffffffffffffffff1673ffffffffffffffffffffffffffffffffffffffff16815260200190600101908083116136e4575b50505050509050919050565b600360008a73ffffffffffffffffffffffffffffffffffffffff1673ffffffffffffffffffffffffffffffffffffffff16815260200190815260200160002060009054906101000a900460ff16156137c7576040517f08c379a00000000000000000000000000000000000000000000000000000000081526004016137be90615393565b60405180910390fd5b6000600460008b73ffffffffffffffffffffffffffffffffffffffff1673ffffffffffffffffffffffffffffffffffffffff16815260200190815260200160002090508881600001908051906020019061382292919061441b565b508781600101908051906020019061383b92919061441b565b508681600201908051906020019061385492919061441b565b508581600301908051906020019061386d92919061441b565b508481600401908051906020019061388692919061441b565b508381600501908051906020019061389f92919061441b565b50828160060190805190602001906138b892919061441b565b50818160070190805190602001906138d192919061441b565b5042816009018190555060008a9080600181540180825580915050600190039060005260206000200160009091909190916101000a81548173ffffffffffffffffffffffffffffffffffffffff021916908373ffffffffffffffffffffffffffffffffffffffff1602179055506001600360008c73ffffffffffffffffffffffffffffffffffffffff1673ffffffffffffffffffffffffffffffffffffffff16815260200190815260200160002060006101000a81548160ff02191690831515021790555050505050505050505050565b6000600460003373ffffffffffffffffffffffffffffffffffffffff1673ffffffffffffffffffffffffffffffffffffffff1681526020019081526020016000209050888160000190805190602001906139fd92919061441b565b5087816001019080519060200190613a1692919061441b565b5086816002019080519060200190613a2f92919061441b565b5085816003019080519060200190613a4892919061441b565b5084816004019080519060200190613a6192919061441b565b5083816005019080519060200190613a7a92919061441b565b5082816006019080519060200190613a9392919061441b565b5081816007019080519060200190613aac92919061441b565b50428160090181905550505050505050505050565b6060600760008373ffffffffffffffffffffffffffffffffffffffff1673ffffffffffffffffffffffffffffffffffffffff168152602001908152602001600020805480602002602001604051908101604052809291908181526020018280548015613b8257602002820191906000526020600020905b8160009054906101000a900473ffffffffffffffffffffffffffffffffffffffff1673ffffffffffffffffffffffffffffffffffffffff1681526020019060010190808311613b38575b50505050509050919050565b6005602052806000526040600020600091509050806000018054613bb190615651565b80601f0160208091040260200160405190810160405280929190818152602001828054613bdd90615651565b8015613c2a5780601f10613bff57610100808354040283529160200191613c2a565b820191906000526020600020905b815481529060010190602001808311613c0d57829003601f168201915b505050505090806001018054613c3f90615651565b80601f0160208091040260200160405190810160405280929190818152602001828054613c6b90615651565b8015613cb85780601f10613c8d57610100808354040283529160200191613cb8565b820191906000526020600020905b815481529060010190602001808311613c9b57829003601f168201915b505050505090806002018054613ccd90615651565b80601f0160208091040260200160405190810160405280929190818152602001828054613cf990615651565b8015613d465780601f10613d1b57610100808354040283529160200191613d46565b820191906000526020600020905b815481529060010190602001808311613d2957829003601f168201915b5050505050908060030154905084565b600360008973ffffffffffffffffffffffffffffffffffffffff1673ffffffffffffffffffffffffffffffffffffffff16815260200190815260200160002060009054906101000a900460ff16613de2576040517f08c379a0000000000000000000000000000000000000000000000000000000008152600401613dd9906153b3565b60405180910390fd5b613dec88336142c5565b613e9457600460008973ffffffffffffffffffffffffffffffffffffffff1673ffffffffffffffffffffffffffffffffffffffff168152602001908152602001600020600801339080600181540180825580915050600190039060005260206000200160009091909190916101000a81548173ffffffffffffffffffffffffffffffffffffffff021916908373ffffffffffffffffffffffffffffffffffffffff1602179055505b613e9c6144a1565b88816000019073ffffffffffffffffffffffffffffffffffffffff16908173ffffffffffffffffffffffffffffffffffffffff168152505033816020019073ffffffffffffffffffffffffffffffffffffffff16908173ffffffffffffffffffffffffffffffffffffffff1681525050878160400181905250868160600181905250858160800181905250848160a00181905250838160c00181905250828160e00181905250818161010001819052504281610120018181525050600660008a73ffffffffffffffffffffffffffffffffffffffff1673ffffffffffffffffffffffffffffffffffffffff1681526020019081526020016000208190806001815401808255809150506001900390600052602060002090600a020160009091909190915060008201518160000160006101000a81548173ffffffffffffffffffffffffffffffffffffffff021916908373ffffffffffffffffffffffffffffffffffffffff16021790555060208201518160010160006101000a81548173ffffffffffffffffffffffffffffffffffffffff021916908373ffffffffffffffffffffffffffffffffffffffff160217905550604082015181600201908051906020019061406a92919061441b565b50606082015181600301908051906020019061408792919061441b565b5060808201518160040190805190602001906140a492919061441b565b5060a08201518160050190805190602001906140c192919061441b565b5060c08201518160060190805190602001906140de92919061441b565b5060e08201518160070190805190602001906140fb92919061441b565b5061010082015181600801908051906020019061411992919061441b565b506101208201518160090155505060028190806001815401808255809150506001900390600052602060002090600a020160009091909190915060008201518160000160006101000a81548173ffffffffffffffffffffffffffffffffffffffff021916908373ffffffffffffffffffffffffffffffffffffffff16021790555060208201518160010160006101000a81548173ffffffffffffffffffffffffffffffffffffffff021916908373ffffffffffffffffffffffffffffffffffffffff16021790555060408201518160020190805190602001906141fd92919061441b565b50606082015181600301908051906020019061421a92919061441b565b50608082015181600401908051906020019061423792919061441b565b5060a082015181600501908051906020019061425492919061441b565b5060c082015181600601908051906020019061427192919061441b565b5060e082015181600701908051906020019061428e92919061441b565b506101008201518160080190805190602001906142ac92919061441b565b5061012082015181600901555050505050505050505050565b600080600090505b600460008573ffffffffffffffffffffffffffffffffffffffff1673ffffffffffffffffffffffffffffffffffffffff1681526020019081526020016000206008018054905081101561440f578273ffffffffffffffffffffffffffffffffffffffff16600460008673ffffffffffffffffffffffffffffffffffffffff1673ffffffffffffffffffffffffffffffffffffffff16815260200190815260200160002060080182815481106143ab577f4e487b7100000000000000000000000000000000000000000000000000000000600052603260045260246000fd5b9060005260206000200160009054906101000a900473ffffffffffffffffffffffffffffffffffffffff1673ffffffffffffffffffffffffffffffffffffffff1614156143fc576001915050614415565b808061440790615683565b9150506142cd565b50600090505b92915050565b82805461442790615651565b90600052602060002090601f0160209004810192826144495760008555614490565b82601f1061446257805160ff1916838001178555614490565b82800160010185558215614490579182015b8281111561448f578251825591602001919060010190614474565b5b50905061449d9190614520565b5090565b604051806101400160405280600073ffffffffffffffffffffffffffffffffffffffff168152602001600073ffffffffffffffffffffffffffffffffffffffff16815260200160608152602001606081526020016060815260200160608152602001606081526020016060815260200160608152602001600081525090565b5b80821115614539576000816000905550600101614521565b5090565b600061455061454b846154c4565b615493565b90508281526020810184848401111561456857600080fd5b61457384828561560f565b509392505050565b60008135905061458a8161576a565b92915050565b600082601f8301126145a157600080fd5b81356145b184826020860161453d565b91505092915050565b6000813590506145c981615781565b92915050565b6000602082840312156145e157600080fd5b60006145ef8482850161457b565b91505092915050565b600080600080600080600080610100898b03121561461557600080fd5b60006146238b828c0161457b565b985050602089013567ffffffffffffffff81111561464057600080fd5b61464c8b828c01614590565b975050604089013567ffffffffffffffff81111561466957600080fd5b6146758b828c01614590565b965050606089013567ffffffffffffffff81111561469257600080fd5b61469e8b828c01614590565b955050608089013567ffffffffffffffff8111156146bb57600080fd5b6146c78b828c01614590565b94505060a089013567ffffffffffffffff8111156146e457600080fd5b6146f08b828c01614590565b93505060c089013567ffffffffffffffff81111561470d57600080fd5b6147198b828c01614590565b92505060e089013567ffffffffffffffff81111561473657600080fd5b6147428b828c01614590565b9150509295985092959890939650565b60008060008060008060008060006101208a8c03121561477157600080fd5b600061477f8c828d0161457b565b99505060208a013567ffffffffffffffff81111561479c57600080fd5b6147a88c828d01614590565b98505060408a013567ffffffffffffffff8111156147c557600080fd5b6147d18c828d01614590565b97505060608a013567ffffffffffffffff8111156147ee57600080fd5b6147fa8c828d01614590565b96505060808a013567ffffffffffffffff81111561481757600080fd5b6148238c828d01614590565b95505060a08a013567ffffffffffffffff81111561484057600080fd5b61484c8c828d01614590565b94505060c08a013567ffffffffffffffff81111561486957600080fd5b6148758c828d01614590565b93505060e08a013567ffffffffffffffff81111561489257600080fd5b61489e8c828d01614590565b9250506101008a013567ffffffffffffffff8111156148bc57600080fd5b6148c88c828d01614590565b9150509295985092959850929598565b600080604083850312156148eb57600080fd5b60006148f98582860161457b565b925050602061490a858286016145ba565b9150509250929050565b60008060006060848603121561492957600080fd5b600084013567ffffffffffffffff81111561494357600080fd5b61494f86828701614590565b935050602084013567ffffffffffffffff81111561496c57600080fd5b61497886828701614590565b925050604084013567ffffffffffffffff81111561499557600080fd5b6149a186828701614590565b9150509250925092565b600080600080600080600080610100898b0312156149c857600080fd5b600089013567ffffffffffffffff8111156149e257600080fd5b6149ee8b828c01614590565b985050602089013567ffffffffffffffff811115614a0b57600080fd5b614a178b828c01614590565b975050604089013567ffffffffffffffff811115614a3457600080fd5b614a408b828c01614590565b965050606089013567ffffffffffffffff811115614a5d57600080fd5b614a698b828c01614590565b955050608089013567ffffffffffffffff811115614a8657600080fd5b614a928b828c01614590565b94505060a089013567ffffffffffffffff811115614aaf57600080fd5b614abb8b828c01614590565b93505060c089013567ffffffffffffffff811115614ad857600080fd5b614ae48b828c01614590565b92505060e089013567ffffffffffffffff811115614b0157600080fd5b614b0d8b828c01614590565b9150509295985092959890939650565b600060208284031215614b2f57600080fd5b6000614b3d848285016145ba565b91505092915050565b6000614b528383614b72565b60208301905092915050565b6000614b6a8383614f30565b905092915050565b614b7b816155c7565b82525050565b614b8a816155c7565b82525050565b6000614b9b82615514565b614ba5818561554f565b9350614bb0836154f4565b8060005b83811015614be1578151614bc88882614b46565b9750614bd383615535565b925050600181019050614bb4565b5085935050505092915050565b6000614bf98261551f565b614c038185615560565b935083602082028501614c1585615504565b8060005b85811015614c515784840389528151614c328582614b5e565b9450614c3d83615542565b925060208a01995050600181019050614c19565b50829750879550505050505092915050565b614c6c816155d9565b82525050565b6000614c7d8261552a565b614c878185615571565b9350614c9781856020860161561e565b614ca081615759565b840191505092915050565b6000614cb68261552a565b614cc08185615582565b9350614cd081856020860161561e565b614cd981615759565b840191505092915050565b6000614cf1601a83615582565b91507f50617469656e7420616c726561647920726567697374657265640000000000006000830152602082019050919050565b6000614d31601683615582565b91507f50617469656e74206e6f742072656769737465726564000000000000000000006000830152602082019050919050565b6000614d71601783615582565b91507f486f73706974616c206e6f7420617574686f72697a65640000000000000000006000830152602082019050919050565b6000614db1603083615582565b91507f4e6f206d65646963616c20686973746f7279207265636f72647320666f756e6460008301527f20666f72207468652070617469656e74000000000000000000000000000000006020830152604082019050919050565b6000614e17601483615582565b91507f5265717565737420616c72656164792073656e740000000000000000000000006000830152602082019050919050565b6000614e57601b83615582565b91507f486f73706974616c20616c7265616479207265676973746572656400000000006000830152602082019050919050565b6000614e97601b83615582565b91507f486f73706974616c20616c726561647920617574686f72697a656400000000006000830152602082019050919050565b6000614ed7603b83615582565b91507f4d65646963616c20686973746f7279207265636f7264206e6f7420666f756e6460008301527f20666f72207468652073706563696669656420686f73706974616c00000000006020830152604082019050919050565b600061014083016000830151614f496000860182614b72565b506020830151614f5c6020860182614b72565b5060408301518482036040860152614f748282614c72565b91505060608301518482036060860152614f8e8282614c72565b91505060808301518482036080860152614fa88282614c72565b91505060a083015184820360a0860152614fc28282614c72565b91505060c083015184820360c0860152614fdc8282614c72565b91505060e083015184820360e0860152614ff68282614c72565b9150506101008301518482036101008601526150128282614c72565b915050610120830151615029610120860182615034565b508091505092915050565b61503d81615605565b82525050565b61504c81615605565b82525050565b60006020820190506150676000830184614b81565b92915050565b600061014082019050615083600083018d614b81565b615090602083018c614b81565b81810360408301526150a2818b614cab565b905081810360608301526150b6818a614cab565b905081810360808301526150ca8189614cab565b905081810360a08301526150de8188614cab565b905081810360c08301526150f28187614cab565b905081810360e08301526151068186614cab565b905081810361010083015261511b8185614cab565b905061512b610120830184615043565b9b9a5050505050505050505050565b600060208201905081810360008301526151548184614b90565b905092915050565b600060208201905081810360008301526151768184614bee565b905092915050565b60006020820190506151936000830184614c63565b92915050565b60006101408201905081810360008301526151b4818d614cab565b905081810360208301526151c8818c614cab565b905081810360408301526151dc818b614cab565b905081810360608301526151f0818a614cab565b905081810360808301526152048189614cab565b905081810360a08301526152188188614cab565b905081810360c083015261522c8187614cab565b905081810360e08301526152408186614cab565b90508181036101008301526152558185614b90565b9050615265610120830184615043565b9b9a5050505050505050505050565b600061012082019050818103600083015261528f818c614cab565b905081810360208301526152a3818b614cab565b905081810360408301526152b7818a614cab565b905081810360608301526152cb8189614cab565b905081810360808301526152df8188614cab565b905081810360a08301526152f38187614cab565b905081810360c08301526153078186614cab565b905081810360e083015261531b8185614cab565b905061532b610100830184615043565b9a9950505050505050505050565b600060808201905081810360008301526153538187614cab565b905081810360208301526153678186614cab565b9050818103604083015261537b8185614cab565b905061538a6060830184615043565b95945050505050565b600060208201905081810360008301526153ac81614ce4565b9050919050565b600060208201905081810360008301526153cc81614d24565b9050919050565b600060208201905081810360008301526153ec81614d64565b9050919050565b6000602082019050818103600083015261540c81614da4565b9050919050565b6000602082019050818103600083015261542c81614e0a565b9050919050565b6000602082019050818103600083015261544c81614e4a565b9050919050565b6000602082019050818103600083015261546c81614e8a565b9050919050565b6000602082019050818103600083015261548c81614eca565b9050919050565b6000604051905081810181811067ffffffffffffffff821117156154ba576154b961572a565b5b8060405250919050565b600067ffffffffffffffff8211156154df576154de61572a565b5b601f19601f8301169050602081019050919050565b6000819050602082019050919050565b6000819050602082019050919050565b600081519050919050565b600081519050919050565b600081519050919050565b6000602082019050919050565b6000602082019050919050565b600082825260208201905092915050565b600082825260208201905092915050565b600082825260208201905092915050565b600082825260208201905092915050565b600061559e82615605565b91506155a983615605565b9250828210156155bc576155bb6156cc565b5b828203905092915050565b60006155d2826155e5565b9050919050565b60008115159050919050565b600073ffffffffffffffffffffffffffffffffffffffff82169050919050565b6000819050919050565b82818337600083830152505050565b60005b8381101561563c578082015181840152602081019050615621565b8381111561564b576000848401525b50505050565b6000600282049050600182168061566957607f821691505b6020821081141561567d5761567c6156fb565b5b50919050565b600061568e82615605565b91507fffffffffffffffffffffffffffffffffffffffffffffffffffffffffffffffff8214156156c1576156c06156cc565b5b600182019050919050565b7f4e487b7100000000000000000000000000000000000000000000000000000000600052601160045260246000fd5b7f4e487b7100000000000000000000000000000000000000000000000000000000600052602260045260246000fd5b7f4e487b7100000000000000000000000000000000000000000000000000000000600052604160045260246000fd5b6000601f19601f8301169050919050565b615773816155c7565b811461577e57600080fd5b50565b61578a81615605565b811461579557600080fd5b5056fea2646970667358221220f075edc1f68438489757f640c9363106ee3a2d7027ea76a711a2ec8cde592ee164736f6c63430008000033",
  "immutableReferences": {},
  "source": "// SPDX-License-Identifier: MIT\r\npragma solidity ^0.8.0;\r\n\r\n//GALING REMIX TO ABBY AT TESTED NA TO\r\n\r\ncontract MediVerse {\r\n    \r\n    struct Patient {\r\n        string name;\r\n        string age;\r\n        string gender;\r\n        string dateOfBirth;\r\n        string height;\r\n        string weight;\r\n        string contactNum;\r\n        string addr;\r\n        address[] authorizedHospitals;\r\n        uint creationDate;\r\n    }\r\n\r\n    struct Hospital {\r\n        string name;\r\n        string contactNum;\r\n        string addr;\r\n        uint creationDate;\r\n    }\r\n\r\n    struct MedicalHistory {\r\n        address patientAddr;\r\n        address hospitalAddr;\r\n        string physician;\r\n        string diagnosis;\r\n        string signsAndSymptoms;\r\n        string treatmentProcedure;\r\n        string tests;\r\n        string medications;\r\n        string admission;\r\n        uint creationDate;\r\n    }\r\n\r\n    address[] public patientList; \r\n    address[] public hospitalList;\r\n    MedicalHistory[] public medicalHistoryList;\r\n    mapping(address => bool) public isRegistered;\r\n    mapping(address => Patient) public patients;\r\n    mapping(address => Hospital) public hospitals;\r\n    mapping(address => MedicalHistory[]) public medicalHistories;\r\n    mapping(address => address[]) private pendingRequests;\r\n\r\n    modifier isRegister() {\r\n        require(isRegistered[msg.sender], \"Account is not registered\");\r\n        _;\r\n    }\r\n\r\n    modifier isAuthorized(address _patientAddr) {\r\n        require(\r\n            isHospitalAuthorized(_patientAddr, msg.sender),\r\n            \"Hospital not authorized to access patient records\"\r\n        );\r\n        _;\r\n    }\r\n\r\n    function isHospitalAuthorized(address _patientAddr, address _hospitalAddr) internal view returns (bool) {\r\n        for (uint i = 0; i < patients[_patientAddr].authorizedHospitals.length; i++) {\r\n            if (patients[_patientAddr].authorizedHospitals[i] == _hospitalAddr) {\r\n                return true;\r\n            }\r\n        }\r\n        return false;\r\n    }\r\n\r\n    function registerPatient(\r\n        string memory _name,\r\n        string memory _age,\r\n        string memory _gender,\r\n        string memory _dateOfBirth,\r\n        string memory _height,\r\n        string memory _weight,\r\n        string memory _contactNum,\r\n        string memory _address\r\n    ) public {\r\n        require(!isRegistered[msg.sender], \"Patient already registered\");\r\n        Patient storage patient = patients[msg.sender];\r\n        patient.name = _name;\r\n        patient.age = _age;\r\n        patient.gender = _gender;\r\n        patient.dateOfBirth = _dateOfBirth;\r\n        patient.height = _height;\r\n        patient.weight = _weight;\r\n        patient.contactNum = _contactNum;\r\n        patient.addr = _address;\r\n        patient.creationDate = block.timestamp;\r\n        patientList.push(msg.sender);\r\n        isRegistered[msg.sender] = true;\r\n    }\r\n\r\n    function editPatientDetails(\r\n        string memory _name,\r\n        string memory _age,\r\n        string memory _gender,\r\n        string memory _dateOfBirth,\r\n        string memory _height,\r\n        string memory _weight,\r\n        string memory _contactNum,\r\n        string memory _address\r\n    ) public {\r\n        Patient storage patient = patients[msg.sender];\r\n        patient.name = _name;\r\n        patient.age = _age;\r\n        patient.gender = _gender;\r\n        patient.dateOfBirth = _dateOfBirth;\r\n        patient.height = _height;\r\n        patient.weight = _weight;\r\n        patient.contactNum = _contactNum;\r\n        patient.addr = _address;\r\n        patient.creationDate = block.timestamp;\r\n    }\r\n\r\n    function registerHospital(\r\n        string memory _name,\r\n        string memory _contactNum,\r\n        string memory _address\r\n    ) public {\r\n        require(!isRegistered[msg.sender], \"Hospital already registered\");\r\n        Hospital storage hospital = hospitals[msg.sender];\r\n        hospital.name = _name;\r\n        hospital.contactNum = _contactNum;\r\n        hospital.addr = _address;\r\n        hospital.creationDate = block.timestamp;\r\n\r\n        hospitalList.push(msg.sender);\r\n        isRegistered[msg.sender] = true;\r\n    }\r\n\r\n    function editHospitalDetails(\r\n        string memory _name,\r\n        string memory _contactNum,\r\n        string memory _addr\r\n    ) public {\r\n        Hospital storage hospital = hospitals[msg.sender];\r\n        hospital.name = _name;\r\n        hospital.contactNum = _contactNum;\r\n        hospital.addr = _addr;\r\n        hospital.creationDate = block.timestamp;\r\n    }\r\n\r\n    function addMedicalHistory(\r\n        address _patientAddr,\r\n        string memory _physician,\r\n        string memory _diagnosis,\r\n        string memory _signsAndSymptoms,\r\n        string memory _treatmentProcedure,\r\n        string memory _tests,\r\n        string memory _medications,\r\n        string memory _admission\r\n    ) public {\r\n        require(isRegistered[_patientAddr], \"Patient not registered\");\r\n        if (!isHospitalAuthorized(_patientAddr, msg.sender)) {\r\n            patients[_patientAddr].authorizedHospitals.push(msg.sender);\r\n        }\r\n        MedicalHistory memory history;\r\n        history.patientAddr = _patientAddr;\r\n        history.hospitalAddr = msg.sender;\r\n        history.physician = _physician;\r\n        history.diagnosis = _diagnosis;\r\n        history.signsAndSymptoms = _signsAndSymptoms;\r\n        history.treatmentProcedure = _treatmentProcedure;\r\n        history.tests = _tests;\r\n        history.medications = _medications;\r\n        history.admission = _admission;\r\n        history.creationDate = block.timestamp; //just added a timestamp here para sa pag check for notif\r\n\r\n        medicalHistories[_patientAddr].push(history);\r\n        medicalHistoryList.push(history);\r\n    }\r\n\r\n    function editMedicalHistory(\r\n        address _patientAddr,\r\n        string memory _physician,\r\n        string memory _diagnosis,\r\n        string memory _signsAndSymptoms,\r\n        string memory _treatmentProcedure,\r\n        string memory _tests,\r\n        string memory _medications,\r\n        string memory _admission\r\n    ) public {\r\n        MedicalHistory[] storage history = medicalHistories[_patientAddr];\r\n\r\n        require(history.length > 0, \"No medical history records found for the patient\");\r\n        for (uint i = 0; i < history.length; i++) {\r\n            if (history[i].hospitalAddr == msg.sender) {\r\n                history[i].physician = _physician;\r\n                history[i].diagnosis = _diagnosis;\r\n                history[i].signsAndSymptoms = _signsAndSymptoms;\r\n                history[i].treatmentProcedure = _treatmentProcedure;\r\n                history[i].tests = _tests;\r\n                history[i].medications = _medications;\r\n                history[i].admission = _admission;\r\n                return; \r\n            }\r\n        }\r\n        revert(\"Medical history record not found for the specified hospital\");\r\n    }\r\n\r\n    function addPatient(\r\n        address _patientAddr,\r\n        string memory _name,\r\n        string memory _age,\r\n        string memory _gender,\r\n        string memory _dateOfBirth,\r\n        string memory _height,\r\n        string memory _weight,\r\n        string memory _contactNum,\r\n        string memory _address\r\n    ) public {\r\n        require(!isRegistered[_patientAddr], \"Patient already registered\");\r\n        Patient storage patient = patients[_patientAddr];\r\n        patient.name = _name;\r\n        patient.age = _age;\r\n        patient.gender = _gender;\r\n        patient.dateOfBirth = _dateOfBirth;\r\n        patient.height = _height;\r\n        patient.weight = _weight;\r\n        patient.contactNum = _contactNum;\r\n        patient.addr = _address;\r\n        patient.creationDate = block.timestamp;\r\n        patientList.push(_patientAddr);\r\n        isRegistered[_patientAddr] = true;\r\n    }\r\n\r\n    function getMedicalHistory(address _patientAddr) public view returns (MedicalHistory[] memory) {\r\n        return medicalHistories[_patientAddr];\r\n    }\r\n\r\n    function getAllMedicalHistory() public view returns (MedicalHistory[] memory) {\r\n        return medicalHistoryList;\r\n    }\r\n\r\n    function getPatientInfo(address patientAddress) external view returns (string memory, string memory, string memory, string memory, string memory, string memory, string memory, string memory, address[] memory, uint) {\r\n        Patient storage patient = patients[patientAddress];\r\n        return (patient.name, patient.age, patient.gender, patient.dateOfBirth, patient.height, patient.weight, patient.contactNum, patient.addr, patient.authorizedHospitals, patient.creationDate);\r\n    }\r\n\r\n    function getHospitalInfo(address hospitalAddress) external view returns (string memory, string memory, string memory, uint) {\r\n        Hospital storage hospital = hospitals[hospitalAddress];\r\n        return (hospital.name, hospital.contactNum, hospital.addr, hospital.creationDate);\r\n    }\r\n    \r\n    function givePermission(address _hospitalAddr) public  {\r\n        require(!isHospitalAuthorized(msg.sender, _hospitalAddr), \"Hospital already authorized\");\r\n        address[] storage pending = pendingRequests[msg.sender];\r\n        for (uint i = 0; i < pending.length; i++) {\r\n            if (pending[i] == _hospitalAddr) {\r\n                pending[i] = pending[pending.length - 1];\r\n                pending.pop();\r\n                break;\r\n            }\r\n        }\r\n        patients[msg.sender].authorizedHospitals.push(_hospitalAddr);\r\n    }\r\n\r\n    function revokeAccess(address _hospitalAddr) public {\r\n        require(isHospitalAuthorized(msg.sender, _hospitalAddr), \"Hospital not authorized\");\r\n        address[] storage authorizedHospitals = patients[msg.sender].authorizedHospitals;\r\n        for (uint i = 0; i < authorizedHospitals.length; i++) {\r\n            if (authorizedHospitals[i] == _hospitalAddr) {\r\n                authorizedHospitals[i] = authorizedHospitals[authorizedHospitals.length - 1];\r\n                authorizedHospitals.pop();\r\n                return;\r\n            }\r\n        }\r\n    }\r\n\r\n    function requestPermission(address _patientAddr) public {\r\n        require(!isHospitalAuthorized(_patientAddr, msg.sender), \"Request already sent\");\r\n        pendingRequests[_patientAddr].push(msg.sender);\r\n    }\r\n\r\n    function getAuthorizedHospitals(address _patientAddr) public view returns (address[] memory) {\r\n        return patients[_patientAddr].authorizedHospitals;\r\n    }\r\n\r\n    function getPendingRequests(address _patientAddr) public view returns (address[] memory) {\r\n        return pendingRequests[_patientAddr];\r\n    }\r\n\r\n    function getPatientList() public view returns (address[] memory) {\r\n        return patientList;\r\n    }\r\n\r\n    function getHospitalList() public view returns (address[] memory) {\r\n        return hospitalList;\r\n    }\r\n}",
  "sourcePath": "C:\\Users\\Abby\\Desktop\\APPCON 2023\\MediVerse-Web3-Dapp\\contracts\\MediVerse.sol",
  "compiler": {
    "name": "solc",
    "version": "0.8.0+commit.c7dfd78e.Emscripten.clang"
  },
  "schemaVersion": "3.4.16",
  "updatedAt": "2024-04-24T07:37:59.393Z",
  "networkType": "ethereum",
  "devdoc": {
    "kind": "dev",
    "methods": {},
    "version": 1
  },
  "userdoc": {
    "kind": "user",
    "methods": {},
    "version": 1
  }
}