{
  "contractName": "MediVerse",
  "abi": [
    {
      "inputs": [
        {
          "internalType": "uint256",
          "name": "",
          "type": "uint256"
        }
      ],
      "name": "hospitalList",
      "outputs": [
        {
          "internalType": "address",
          "name": "",
          "type": "address"
        }
      ],
      "stateMutability": "view",
      "type": "function",
      "constant": true
    },
    {
      "inputs": [
        {
          "internalType": "address",
          "name": "",
          "type": "address"
        }
      ],
      "name": "hospitals",
      "outputs": [
        {
          "internalType": "string",
          "name": "name",
          "type": "string"
        },
        {
          "internalType": "string",
          "name": "contactNum",
          "type": "string"
        },
        {
          "internalType": "string",
          "name": "addr",
          "type": "string"
        },
        {
          "internalType": "uint256",
          "name": "creationDate",
          "type": "uint256"
        }
      ],
      "stateMutability": "view",
      "type": "function",
      "constant": true
    },
    {
      "inputs": [
        {
          "internalType": "address",
          "name": "",
          "type": "address"
        }
      ],
      "name": "isRegistered",
      "outputs": [
        {
          "internalType": "bool",
          "name": "",
          "type": "bool"
        }
      ],
      "stateMutability": "view",
      "type": "function",
      "constant": true
    },
    {
      "inputs": [
        {
          "internalType": "address",
          "name": "",
          "type": "address"
        },
        {
          "internalType": "uint256",
          "name": "",
          "type": "uint256"
        }
      ],
      "name": "medicalHistories",
      "outputs": [
        {
          "internalType": "address",
          "name": "patientAddr",
          "type": "address"
        },
        {
          "internalType": "address",
          "name": "hospitalAddr",
          "type": "address"
        },
        {
          "internalType": "string",
          "name": "physician",
          "type": "string"
        },
        {
          "internalType": "string",
          "name": "diagnosis",
          "type": "string"
        },
        {
          "internalType": "string",
          "name": "signsAndSymptoms",
          "type": "string"
        },
        {
          "internalType": "string",
          "name": "treatmentProcedure",
          "type": "string"
        },
        {
          "internalType": "string",
          "name": "tests",
          "type": "string"
        },
        {
          "internalType": "string",
          "name": "medications",
          "type": "string"
        },
        {
          "internalType": "string",
          "name": "admission",
          "type": "string"
        },
        {
          "internalType": "uint256",
          "name": "creationDate",
          "type": "uint256"
        }
      ],
      "stateMutability": "view",
      "type": "function",
      "constant": true
    },
    {
      "inputs": [
        {
          "internalType": "uint256",
          "name": "",
          "type": "uint256"
        }
      ],
      "name": "medicalHistoryList",
      "outputs": [
        {
          "internalType": "address",
          "name": "patientAddr",
          "type": "address"
        },
        {
          "internalType": "address",
          "name": "hospitalAddr",
          "type": "address"
        },
        {
          "internalType": "string",
          "name": "physician",
          "type": "string"
        },
        {
          "internalType": "string",
          "name": "diagnosis",
          "type": "string"
        },
        {
          "internalType": "string",
          "name": "signsAndSymptoms",
          "type": "string"
        },
        {
          "internalType": "string",
          "name": "treatmentProcedure",
          "type": "string"
        },
        {
          "internalType": "string",
          "name": "tests",
          "type": "string"
        },
        {
          "internalType": "string",
          "name": "medications",
          "type": "string"
        },
        {
          "internalType": "string",
          "name": "admission",
          "type": "string"
        },
        {
          "internalType": "uint256",
          "name": "creationDate",
          "type": "uint256"
        }
      ],
      "stateMutability": "view",
      "type": "function",
      "constant": true
    },
    {
      "inputs": [
        {
          "internalType": "uint256",
          "name": "",
          "type": "uint256"
        }
      ],
      "name": "patientList",
      "outputs": [
        {
          "internalType": "address",
          "name": "",
          "type": "address"
        }
      ],
      "stateMutability": "view",
      "type": "function",
      "constant": true
    },
    {
      "inputs": [
        {
          "internalType": "address",
          "name": "",
          "type": "address"
        }
      ],
      "name": "patients",
      "outputs": [
        {
          "internalType": "string",
          "name": "name",
          "type": "string"
        },
        {
          "internalType": "string",
          "name": "age",
          "type": "string"
        },
        {
          "internalType": "string",
          "name": "gender",
          "type": "string"
        },
        {
          "internalType": "string",
          "name": "dateOfBirth",
          "type": "string"
        },
        {
          "internalType": "string",
          "name": "height",
          "type": "string"
        },
        {
          "internalType": "string",
          "name": "weight",
          "type": "string"
        },
        {
          "internalType": "string",
          "name": "contactNum",
          "type": "string"
        },
        {
          "internalType": "string",
          "name": "addr",
          "type": "string"
        },
        {
          "internalType": "uint256",
          "name": "creationDate",
          "type": "uint256"
        }
      ],
      "stateMutability": "view",
      "type": "function",
      "constant": true
    },
    {
      "inputs": [
        {
          "internalType": "string",
          "name": "_name",
          "type": "string"
        },
        {
          "internalType": "string",
          "name": "_age",
          "type": "string"
        },
        {
          "internalType": "string",
          "name": "_gender",
          "type": "string"
        },
        {
          "internalType": "string",
          "name": "_dateOfBirth",
          "type": "string"
        },
        {
          "internalType": "string",
          "name": "_height",
          "type": "string"
        },
        {
          "internalType": "string",
          "name": "_weight",
          "type": "string"
        },
        {
          "internalType": "string",
          "name": "_contactNum",
          "type": "string"
        },
        {
          "internalType": "string",
          "name": "_address",
          "type": "string"
        }
      ],
      "name": "registerPatient",
      "outputs": [],
      "stateMutability": "nonpayable",
      "type": "function"
    },
    {
      "inputs": [
        {
          "internalType": "string",
          "name": "_name",
          "type": "string"
        },
        {
          "internalType": "string",
          "name": "_age",
          "type": "string"
        },
        {
          "internalType": "string",
          "name": "_gender",
          "type": "string"
        },
        {
          "internalType": "string",
          "name": "_dateOfBirth",
          "type": "string"
        },
        {
          "internalType": "string",
          "name": "_height",
          "type": "string"
        },
        {
          "internalType": "string",
          "name": "_weight",
          "type": "string"
        },
        {
          "internalType": "string",
          "name": "_contactNum",
          "type": "string"
        },
        {
          "internalType": "string",
          "name": "_address",
          "type": "string"
        }
      ],
      "name": "editPatientDetails",
      "outputs": [],
      "stateMutability": "nonpayable",
      "type": "function"
    },
    {
      "inputs": [
        {
          "internalType": "string",
          "name": "_name",
          "type": "string"
        },
        {
          "internalType": "string",
          "name": "_contactNum",
          "type": "string"
        },
        {
          "internalType": "string",
          "name": "_address",
          "type": "string"
        }
      ],
      "name": "registerHospital",
      "outputs": [],
      "stateMutability": "nonpayable",
      "type": "function"
    },
    {
      "inputs": [
        {
          "internalType": "string",
          "name": "_name",
          "type": "string"
        },
        {
          "internalType": "string",
          "name": "_contactNum",
          "type": "string"
        },
        {
          "internalType": "string",
          "name": "_addr",
          "type": "string"
        }
      ],
      "name": "editHospitalDetails",
      "outputs": [],
      "stateMutability": "nonpayable",
      "type": "function"
    },
    {
      "inputs": [
        {
          "internalType": "address",
          "name": "_patientAddr",
          "type": "address"
        },
        {
          "internalType": "string",
          "name": "_physician",
          "type": "string"
        },
        {
          "internalType": "string",
          "name": "_diagnosis",
          "type": "string"
        },
        {
          "internalType": "string",
          "name": "_signsAndSymptoms",
          "type": "string"
        },
        {
          "internalType": "string",
          "name": "_treatmentProcedure",
          "type": "string"
        },
        {
          "internalType": "string",
          "name": "_tests",
          "type": "string"
        },
        {
          "internalType": "string",
          "name": "_medications",
          "type": "string"
        },
        {
          "internalType": "string",
          "name": "_admission",
          "type": "string"
        }
      ],
      "name": "addMedicalHistory",
      "outputs": [],
      "stateMutability": "nonpayable",
      "type": "function"
    },
    {
      "inputs": [
        {
          "internalType": "address",
          "name": "_patientAddr",
          "type": "address"
        },
        {
          "internalType": "string",
          "name": "_physician",
          "type": "string"
        },
        {
          "internalType": "string",
          "name": "_diagnosis",
          "type": "string"
        },
        {
          "internalType": "string",
          "name": "_signsAndSymptoms",
          "type": "string"
        },
        {
          "internalType": "string",
          "name": "_treatmentProcedure",
          "type": "string"
        },
        {
          "internalType": "string",
          "name": "_tests",
          "type": "string"
        },
        {
          "internalType": "string",
          "name": "_medications",
          "type": "string"
        },
        {
          "internalType": "string",
          "name": "_admission",
          "type": "string"
        }
      ],
      "name": "editMedicalHistory",
      "outputs": [],
      "stateMutability": "nonpayable",
      "type": "function"
    },
    {
      "inputs": [
        {
          "internalType": "address",
          "name": "_patientAddr",
          "type": "address"
        }
      ],
      "name": "getMedicalHistory",
      "outputs": [
        {
          "components": [
            {
              "internalType": "address",
              "name": "patientAddr",
              "type": "address"
            },
            {
              "internalType": "address",
              "name": "hospitalAddr",
              "type": "address"
            },
            {
              "internalType": "string",
              "name": "physician",
              "type": "string"
            },
            {
              "internalType": "string",
              "name": "diagnosis",
              "type": "string"
            },
            {
              "internalType": "string",
              "name": "signsAndSymptoms",
              "type": "string"
            },
            {
              "internalType": "string",
              "name": "treatmentProcedure",
              "type": "string"
            },
            {
              "internalType": "string",
              "name": "tests",
              "type": "string"
            },
            {
              "internalType": "string",
              "name": "medications",
              "type": "string"
            },
            {
              "internalType": "string",
              "name": "admission",
              "type": "string"
            },
            {
              "internalType": "uint256",
              "name": "creationDate",
              "type": "uint256"
            }
          ],
          "internalType": "struct MediVerse.MedicalHistory[]",
          "name": "",
          "type": "tuple[]"
        }
      ],
      "stateMutability": "view",
      "type": "function",
      "constant": true
    },
    {
      "inputs": [],
      "name": "getAllMedicalHistory",
      "outputs": [
        {
          "components": [
            {
              "internalType": "address",
              "name": "patientAddr",
              "type": "address"
            },
            {
              "internalType": "address",
              "name": "hospitalAddr",
              "type": "address"
            },
            {
              "internalType": "string",
              "name": "physician",
              "type": "string"
            },
            {
              "internalType": "string",
              "name": "diagnosis",
              "type": "string"
            },
            {
              "internalType": "string",
              "name": "signsAndSymptoms",
              "type": "string"
            },
            {
              "internalType": "string",
              "name": "treatmentProcedure",
              "type": "string"
            },
            {
              "internalType": "string",
              "name": "tests",
              "type": "string"
            },
            {
              "internalType": "string",
              "name": "medications",
              "type": "string"
            },
            {
              "internalType": "string",
              "name": "admission",
              "type": "string"
            },
            {
              "internalType": "uint256",
              "name": "creationDate",
              "type": "uint256"
            }
          ],
          "internalType": "struct MediVerse.MedicalHistory[]",
          "name": "",
          "type": "tuple[]"
        }
      ],
      "stateMutability": "view",
      "type": "function",
      "constant": true
    },
    {
      "inputs": [
        {
          "internalType": "address",
          "name": "patientAddress",
          "type": "address"
        }
      ],
      "name": "getPatientInfo",
      "outputs": [
        {
          "internalType": "string",
          "name": "",
          "type": "string"
        },
        {
          "internalType": "string",
          "name": "",
          "type": "string"
        },
        {
          "internalType": "string",
          "name": "",
          "type": "string"
        },
        {
          "internalType": "string",
          "name": "",
          "type": "string"
        },
        {
          "internalType": "string",
          "name": "",
          "type": "string"
        },
        {
          "internalType": "string",
          "name": "",
          "type": "string"
        },
        {
          "internalType": "string",
          "name": "",
          "type": "string"
        },
        {
          "internalType": "string",
          "name": "",
          "type": "string"
        },
        {
          "internalType": "address[]",
          "name": "",
          "type": "address[]"
        },
        {
          "internalType": "uint256",
          "name": "",
          "type": "uint256"
        }
      ],
      "stateMutability": "view",
      "type": "function",
      "constant": true
    },
    {
      "inputs": [
        {
          "internalType": "address",
          "name": "hospitalAddress",
          "type": "address"
        }
      ],
      "name": "getHospitalInfo",
      "outputs": [
        {
          "internalType": "string",
          "name": "",
          "type": "string"
        },
        {
          "internalType": "string",
          "name": "",
          "type": "string"
        },
        {
          "internalType": "string",
          "name": "",
          "type": "string"
        },
        {
          "internalType": "uint256",
          "name": "",
          "type": "uint256"
        }
      ],
      "stateMutability": "view",
      "type": "function",
      "constant": true
    },
    {
      "inputs": [
        {
          "internalType": "address",
          "name": "_hospitalAddr",
          "type": "address"
        }
      ],
      "name": "givePermission",
      "outputs": [],
      "stateMutability": "nonpayable",
      "type": "function"
    },
    {
      "inputs": [
        {
          "internalType": "address",
          "name": "_hospitalAddr",
          "type": "address"
        }
      ],
      "name": "revokeAccess",
      "outputs": [],
      "stateMutability": "nonpayable",
      "type": "function"
    },
    {
      "inputs": [
        {
          "internalType": "address",
          "name": "_patientAddr",
          "type": "address"
        }
      ],
      "name": "requestPermission",
      "outputs": [],
      "stateMutability": "nonpayable",
      "type": "function"
    },
    {
      "inputs": [
        {
          "internalType": "address",
          "name": "_patientAddr",
          "type": "address"
        }
      ],
      "name": "getAuthorizedHospitals",
      "outputs": [
        {
          "internalType": "address[]",
          "name": "",
          "type": "address[]"
        }
      ],
      "stateMutability": "view",
      "type": "function",
      "constant": true
    },
    {
      "inputs": [
        {
          "internalType": "address",
          "name": "_patientAddr",
          "type": "address"
        }
      ],
      "name": "getPendingRequests",
      "outputs": [
        {
          "internalType": "address[]",
          "name": "",
          "type": "address[]"
        }
      ],
      "stateMutability": "view",
      "type": "function",
      "constant": true
    },
    {
      "inputs": [],
      "name": "getPatientList",
      "outputs": [
        {
          "internalType": "address[]",
          "name": "",
          "type": "address[]"
        }
      ],
      "stateMutability": "view",
      "type": "function",
      "constant": true
    },
    {
      "inputs": [],
      "name": "getHospitalList",
      "outputs": [
        {
          "internalType": "address[]",
          "name": "",
          "type": "address[]"
        }
      ],
      "stateMutability": "view",
      "type": "function",
      "constant": true
    },
    {
      "inputs": [
        {
          "internalType": "string",
          "name": "query",
          "type": "string"
        }
      ],
      "name": "searchByName",
      "outputs": [
        {
          "internalType": "address[]",
          "name": "",
          "type": "address[]"
        }
      ],
      "stateMutability": "view",
      "type": "function",
      "constant": true
    }
  ],
  "bytecode": "0x608060405234801561001057600080fd5b50615fd880620000216000396000f3fe608060405234801561001057600080fd5b50600436106101735760003560e01c806372339509116100de578063c82412b911610097578063e1de2d5911610071578063e1de2d59146104cc578063f05bfa7b146104e8578063f093cf8014610518578063f74258f91461054b57610173565b8063c82412b91461043c578063d31e37291461046c578063ddbbc35c1461049c57610173565b806372339509146103385780638486f67a1461037157806385e68531146103a45780639ec310be146103c0578063babb1d41146103dc578063c3c5a5471461040c57610173565b80634b426178116101305780634b4261781461025b578063503b135414610294578063507f478b146102b2578063526b44ac146102ce5780635986de61146102ea5780636933e4141461031a57610173565b80630869cfbc1461017857806319406a64146101b057806329cf54a3146101e95780632d57f4ed146102055780633d391f70146102215780634150f5541461023d575b600080fd5b610192600480360381019061018d9190614def565b610567565b6040516101a7999897969594939291906159fd565b60405180910390f35b6101ca60048036038101906101c591906151f8565b6109f5565b6040516101e09a999897969594939291906157f6565b60405180910390f35b61020360048036038101906101fe9190615086565b610e51565b005b61021f600480360381019061021a9190614fef565b6110b8565b005b61023b60048036038101906102369190614def565b611155565b005b61024561142c565b60405161025291906158e5565b60405180910390f35b61027560048036038101906102709190614def565b611940565b60405161028b9a99989796959493929190615922565b60405180910390f35b61029c611ec5565b6040516102a991906158c3565b60405180910390f35b6102cc60048036038101906102c79190614def565b611f53565b005b6102e860048036038101906102e39190614fef565b612040565b005b61030460048036038101906102ff9190614def565b612225565b60405161031191906158e5565b60405180910390f35b610322612d47565b60405161032f91906158c3565b60405180910390f35b610352600480360381019061034d9190614f72565b612dd5565b6040516103689a999897969594939291906157f6565b60405180910390f35b61038b60048036038101906103869190614def565b61323e565b60405161039b9493929190615ac2565b60405180910390f35b6103be60048036038101906103b99190614def565b61344c565b005b6103da60048036038101906103d59190614e18565b613702565b005b6103f660048036038101906103f191906151f8565b613b32565b60405161040391906157db565b60405180910390f35b61042660048036038101906104219190614def565b613b71565b6040516104339190615907565b60405180910390f35b610456600480360381019061045191906151f8565b613b91565b60405161046391906157db565b60405180910390f35b61048660048036038101906104819190614def565b613bd0565b60405161049391906158c3565b60405180910390f35b6104b660048036038101906104b19190614fae565b613ca0565b6040516104c391906158c3565b60405180910390f35b6104e660048036038101906104e19190615086565b614169565b005b61050260048036038101906104fd9190614def565b614288565b60405161050f91906158c3565b60405180910390f35b610532600480360381019061052d9190614def565b614355565b6040516105429493929190615ac2565b60405180910390f35b61056560048036038101906105609190614e18565b61451d565b005b600460205280600052604060002060009150905080600001805461058a90615e5b565b80601f01602080910402602001604051908101604052809291908181526020018280546105b690615e5b565b80156106035780601f106105d857610100808354040283529160200191610603565b820191906000526020600020905b8154815290600101906020018083116105e657829003601f168201915b50505050509080600101805461061890615e5b565b80601f016020809104026020016040519081016040528092919081815260200182805461064490615e5b565b80156106915780601f1061066657610100808354040283529160200191610691565b820191906000526020600020905b81548152906001019060200180831161067457829003601f168201915b5050505050908060020180546106a690615e5b565b80601f01602080910402602001604051908101604052809291908181526020018280546106d290615e5b565b801561071f5780601f106106f45761010080835404028352916020019161071f565b820191906000526020600020905b81548152906001019060200180831161070257829003601f168201915b50505050509080600301805461073490615e5b565b80601f016020809104026020016040519081016040528092919081815260200182805461076090615e5b565b80156107ad5780601f10610782576101008083540402835291602001916107ad565b820191906000526020600020905b81548152906001019060200180831161079057829003601f168201915b5050505050908060040180546107c290615e5b565b80601f01602080910402602001604051908101604052809291908181526020018280546107ee90615e5b565b801561083b5780601f106108105761010080835404028352916020019161083b565b820191906000526020600020905b81548152906001019060200180831161081e57829003601f168201915b50505050509080600501805461085090615e5b565b80601f016020809104026020016040519081016040528092919081815260200182805461087c90615e5b565b80156108c95780601f1061089e576101008083540402835291602001916108c9565b820191906000526020600020905b8154815290600101906020018083116108ac57829003601f168201915b5050505050908060060180546108de90615e5b565b80601f016020809104026020016040519081016040528092919081815260200182805461090a90615e5b565b80156109575780601f1061092c57610100808354040283529160200191610957565b820191906000526020600020905b81548152906001019060200180831161093a57829003601f168201915b50505050509080600701805461096c90615e5b565b80601f016020809104026020016040519081016040528092919081815260200182805461099890615e5b565b80156109e55780601f106109ba576101008083540402835291602001916109e5565b820191906000526020600020905b8154815290600101906020018083116109c857829003601f168201915b5050505050908060090154905089565b60028181548110610a0557600080fd5b90600052602060002090600a02016000915090508060000160009054906101000a900473ffffffffffffffffffffffffffffffffffffffff16908060010160009054906101000a900473ffffffffffffffffffffffffffffffffffffffff1690806002018054610a7490615e5b565b80601f0160208091040260200160405190810160405280929190818152602001828054610aa090615e5b565b8015610aed5780601f10610ac257610100808354040283529160200191610aed565b820191906000526020600020905b815481529060010190602001808311610ad057829003601f168201915b505050505090806003018054610b0290615e5b565b80601f0160208091040260200160405190810160405280929190818152602001828054610b2e90615e5b565b8015610b7b5780601f10610b5057610100808354040283529160200191610b7b565b820191906000526020600020905b815481529060010190602001808311610b5e57829003601f168201915b505050505090806004018054610b9090615e5b565b80601f0160208091040260200160405190810160405280929190818152602001828054610bbc90615e5b565b8015610c095780601f10610bde57610100808354040283529160200191610c09565b820191906000526020600020905b815481529060010190602001808311610bec57829003601f168201915b505050505090806005018054610c1e90615e5b565b80601f0160208091040260200160405190810160405280929190818152602001828054610c4a90615e5b565b8015610c975780601f10610c6c57610100808354040283529160200191610c97565b820191906000526020600020905b815481529060010190602001808311610c7a57829003601f168201915b505050505090806006018054610cac90615e5b565b80601f0160208091040260200160405190810160405280929190818152602001828054610cd890615e5b565b8015610d255780601f10610cfa57610100808354040283529160200191610d25565b820191906000526020600020905b815481529060010190602001808311610d0857829003601f168201915b505050505090806007018054610d3a90615e5b565b80601f0160208091040260200160405190810160405280929190818152602001828054610d6690615e5b565b8015610db35780601f10610d8857610100808354040283529160200191610db3565b820191906000526020600020905b815481529060010190602001808311610d9657829003601f168201915b505050505090806008018054610dc890615e5b565b80601f0160208091040260200160405190810160405280929190818152602001828054610df490615e5b565b8015610e415780601f10610e1657610100808354040283529160200191610e41565b820191906000526020600020905b815481529060010190602001808311610e2457829003601f168201915b505050505090806009015490508a565b600360003373ffffffffffffffffffffffffffffffffffffffff1673ffffffffffffffffffffffffffffffffffffffff16815260200190815260200160002060009054906101000a900460ff1615610ede576040517f08c379a0000000000000000000000000000000000000000000000000000000008152600401610ed590615b1c565b60405180910390fd5b6000600460003373ffffffffffffffffffffffffffffffffffffffff1673ffffffffffffffffffffffffffffffffffffffff168152602001908152602001600020905088816000019080519060200190610f39929190614c3b565b5087816001019080519060200190610f52929190614c3b565b5086816002019080519060200190610f6b929190614c3b565b5085816003019080519060200190610f84929190614c3b565b5084816004019080519060200190610f9d929190614c3b565b5083816005019080519060200190610fb6929190614c3b565b5082816006019080519060200190610fcf929190614c3b565b5081816007019080519060200190610fe8929190614c3b565b504281600901819055506000339080600181540180825580915050600190039060005260206000200160009091909190916101000a81548173ffffffffffffffffffffffffffffffffffffffff021916908373ffffffffffffffffffffffffffffffffffffffff1602179055506001600360003373ffffffffffffffffffffffffffffffffffffffff1673ffffffffffffffffffffffffffffffffffffffff16815260200190815260200160002060006101000a81548160ff021916908315150217905550505050505050505050565b6000600560003373ffffffffffffffffffffffffffffffffffffffff1673ffffffffffffffffffffffffffffffffffffffff168152602001908152602001600020905083816000019080519060200190611113929190614c3b565b508281600101908051906020019061112c929190614c3b565b5081816002019080519060200190611145929190614c3b565b5042816003018190555050505050565b61115f3382614a8c565b1561119f576040517f08c379a000000000000000000000000000000000000000000000000000000000815260040161119690615bfc565b60405180910390fd5b6000805b600760003373ffffffffffffffffffffffffffffffffffffffff1673ffffffffffffffffffffffffffffffffffffffff168152602001908152602001600020805490508110156112de578273ffffffffffffffffffffffffffffffffffffffff16600760003373ffffffffffffffffffffffffffffffffffffffff1673ffffffffffffffffffffffffffffffffffffffff168152602001908152602001600020828154811061127b577f4e487b7100000000000000000000000000000000000000000000000000000000600052603260045260246000fd5b9060005260206000200160009054906101000a900473ffffffffffffffffffffffffffffffffffffffff1673ffffffffffffffffffffffffffffffffffffffff1614156112cb57600191506112de565b80806112d690615e8d565b9150506111a3565b508061142857600460003373ffffffffffffffffffffffffffffffffffffffff1673ffffffffffffffffffffffffffffffffffffffff168152602001908152602001600020600801829080600181540180825580915050600190039060005260206000200160009091909190916101000a81548173ffffffffffffffffffffffffffffffffffffffff021916908373ffffffffffffffffffffffffffffffffffffffff160217905550600760003373ffffffffffffffffffffffffffffffffffffffff1673ffffffffffffffffffffffffffffffffffffffff168152602001908152602001600020829080600181540180825580915050600190039060005260206000200160009091909190916101000a81548173ffffffffffffffffffffffffffffffffffffffff021916908373ffffffffffffffffffffffffffffffffffffffff1602179055505b5050565b60606002805480602002602001604051908101604052809291908181526020016000905b8282101561193757838290600052602060002090600a0201604051806101400160405290816000820160009054906101000a900473ffffffffffffffffffffffffffffffffffffffff1673ffffffffffffffffffffffffffffffffffffffff1673ffffffffffffffffffffffffffffffffffffffff1681526020016001820160009054906101000a900473ffffffffffffffffffffffffffffffffffffffff1673ffffffffffffffffffffffffffffffffffffffff1673ffffffffffffffffffffffffffffffffffffffff16815260200160028201805461153090615e5b565b80601f016020809104026020016040519081016040528092919081815260200182805461155c90615e5b565b80156115a95780601f1061157e576101008083540402835291602001916115a9565b820191906000526020600020905b81548152906001019060200180831161158c57829003601f168201915b505050505081526020016003820180546115c290615e5b565b80601f01602080910402602001604051908101604052809291908181526020018280546115ee90615e5b565b801561163b5780601f106116105761010080835404028352916020019161163b565b820191906000526020600020905b81548152906001019060200180831161161e57829003601f168201915b5050505050815260200160048201805461165490615e5b565b80601f016020809104026020016040519081016040528092919081815260200182805461168090615e5b565b80156116cd5780601f106116a2576101008083540402835291602001916116cd565b820191906000526020600020905b8154815290600101906020018083116116b057829003601f168201915b505050505081526020016005820180546116e690615e5b565b80601f016020809104026020016040519081016040528092919081815260200182805461171290615e5b565b801561175f5780601f106117345761010080835404028352916020019161175f565b820191906000526020600020905b81548152906001019060200180831161174257829003601f168201915b5050505050815260200160068201805461177890615e5b565b80601f01602080910402602001604051908101604052809291908181526020018280546117a490615e5b565b80156117f15780601f106117c6576101008083540402835291602001916117f1565b820191906000526020600020905b8154815290600101906020018083116117d457829003601f168201915b5050505050815260200160078201805461180a90615e5b565b80601f016020809104026020016040519081016040528092919081815260200182805461183690615e5b565b80156118835780601f1061185857610100808354040283529160200191611883565b820191906000526020600020905b81548152906001019060200180831161186657829003601f168201915b5050505050815260200160088201805461189c90615e5b565b80601f01602080910402602001604051908101604052809291908181526020018280546118c890615e5b565b80156119155780601f106118ea57610100808354040283529160200191611915565b820191906000526020600020905b8154815290600101906020018083116118f857829003601f168201915b5050505050815260200160098201548152505081526020019060010190611450565b50505050905090565b6060806060806060806060806060600080600460008d73ffffffffffffffffffffffffffffffffffffffff1673ffffffffffffffffffffffffffffffffffffffff168152602001908152602001600020905080600001816001018260020183600301846004018560050186600601876007018860080189600901548980546119c790615e5b565b80601f01602080910402602001604051908101604052809291908181526020018280546119f390615e5b565b8015611a405780601f10611a1557610100808354040283529160200191611a40565b820191906000526020600020905b815481529060010190602001808311611a2357829003601f168201915b50505050509950888054611a5390615e5b565b80601f0160208091040260200160405190810160405280929190818152602001828054611a7f90615e5b565b8015611acc5780601f10611aa157610100808354040283529160200191611acc565b820191906000526020600020905b815481529060010190602001808311611aaf57829003601f168201915b50505050509850878054611adf90615e5b565b80601f0160208091040260200160405190810160405280929190818152602001828054611b0b90615e5b565b8015611b585780601f10611b2d57610100808354040283529160200191611b58565b820191906000526020600020905b815481529060010190602001808311611b3b57829003601f168201915b50505050509750868054611b6b90615e5b565b80601f0160208091040260200160405190810160405280929190818152602001828054611b9790615e5b565b8015611be45780601f10611bb957610100808354040283529160200191611be4565b820191906000526020600020905b815481529060010190602001808311611bc757829003601f168201915b50505050509650858054611bf790615e5b565b80601f0160208091040260200160405190810160405280929190818152602001828054611c2390615e5b565b8015611c705780601f10611c4557610100808354040283529160200191611c70565b820191906000526020600020905b815481529060010190602001808311611c5357829003601f168201915b50505050509550848054611c8390615e5b565b80601f0160208091040260200160405190810160405280929190818152602001828054611caf90615e5b565b8015611cfc5780601f10611cd157610100808354040283529160200191611cfc565b820191906000526020600020905b815481529060010190602001808311611cdf57829003601f168201915b50505050509450838054611d0f90615e5b565b80601f0160208091040260200160405190810160405280929190818152602001828054611d3b90615e5b565b8015611d885780601f10611d5d57610100808354040283529160200191611d88565b820191906000526020600020905b815481529060010190602001808311611d6b57829003601f168201915b50505050509350828054611d9b90615e5b565b80601f0160208091040260200160405190810160405280929190818152602001828054611dc790615e5b565b8015611e145780601f10611de957610100808354040283529160200191611e14565b820191906000526020600020905b815481529060010190602001808311611df757829003601f168201915b5050505050925081805480602002602001604051908101604052809291908181526020018280548015611e9c57602002820191906000526020600020905b8160009054906101000a900473ffffffffffffffffffffffffffffffffffffffff1673ffffffffffffffffffffffffffffffffffffffff1681526020019060010190808311611e52575b505050505091509a509a509a509a509a509a509a509a509a509a50509193959799509193959799565b60606000805480602002602001604051908101604052809291908181526020018280548015611f4957602002820191906000526020600020905b8160009054906101000a900473ffffffffffffffffffffffffffffffffffffffff1673ffffffffffffffffffffffffffffffffffffffff1681526020019060010190808311611eff575b5050505050905090565b611f5d8133614a8c565b15611f9d576040517f08c379a0000000000000000000000000000000000000000000000000000000008152600401611f9490615bbc565b60405180910390fd5b600760008273ffffffffffffffffffffffffffffffffffffffff1673ffffffffffffffffffffffffffffffffffffffff168152602001908152602001600020339080600181540180825580915050600190039060005260206000200160009091909190916101000a81548173ffffffffffffffffffffffffffffffffffffffff021916908373ffffffffffffffffffffffffffffffffffffffff16021790555050565b600360003373ffffffffffffffffffffffffffffffffffffffff1673ffffffffffffffffffffffffffffffffffffffff16815260200190815260200160002060009054906101000a900460ff16156120cd576040517f08c379a00000000000000000000000000000000000000000000000000000000081526004016120c490615bdc565b60405180910390fd5b6000600560003373ffffffffffffffffffffffffffffffffffffffff1673ffffffffffffffffffffffffffffffffffffffff168152602001908152602001600020905083816000019080519060200190612128929190614c3b565b5082816001019080519060200190612141929190614c3b565b508181600201908051906020019061215a929190614c3b565b504281600301819055506001339080600181540180825580915050600190039060005260206000200160009091909190916101000a81548173ffffffffffffffffffffffffffffffffffffffff021916908373ffffffffffffffffffffffffffffffffffffffff1602179055506001600360003373ffffffffffffffffffffffffffffffffffffffff1673ffffffffffffffffffffffffffffffffffffffff16815260200190815260200160002060006101000a81548160ff02191690831515021790555050505050565b60608173ffffffffffffffffffffffffffffffffffffffff163373ffffffffffffffffffffffffffffffffffffffff1614156127ac57600660008373ffffffffffffffffffffffffffffffffffffffff1673ffffffffffffffffffffffffffffffffffffffff168152602001908152602001600020805480602002602001604051908101604052809291908181526020016000905b828210156127a157838290600052602060002090600a0201604051806101400160405290816000820160009054906101000a900473ffffffffffffffffffffffffffffffffffffffff1673ffffffffffffffffffffffffffffffffffffffff1673ffffffffffffffffffffffffffffffffffffffff1681526020016001820160009054906101000a900473ffffffffffffffffffffffffffffffffffffffff1673ffffffffffffffffffffffffffffffffffffffff1673ffffffffffffffffffffffffffffffffffffffff16815260200160028201805461239a90615e5b565b80601f01602080910402602001604051908101604052809291908181526020018280546123c690615e5b565b80156124135780601f106123e857610100808354040283529160200191612413565b820191906000526020600020905b8154815290600101906020018083116123f657829003601f168201915b5050505050815260200160038201805461242c90615e5b565b80601f016020809104026020016040519081016040528092919081815260200182805461245890615e5b565b80156124a55780601f1061247a576101008083540402835291602001916124a5565b820191906000526020600020905b81548152906001019060200180831161248857829003601f168201915b505050505081526020016004820180546124be90615e5b565b80601f01602080910402602001604051908101604052809291908181526020018280546124ea90615e5b565b80156125375780601f1061250c57610100808354040283529160200191612537565b820191906000526020600020905b81548152906001019060200180831161251a57829003601f168201915b5050505050815260200160058201805461255090615e5b565b80601f016020809104026020016040519081016040528092919081815260200182805461257c90615e5b565b80156125c95780601f1061259e576101008083540402835291602001916125c9565b820191906000526020600020905b8154815290600101906020018083116125ac57829003601f168201915b505050505081526020016006820180546125e290615e5b565b80601f016020809104026020016040519081016040528092919081815260200182805461260e90615e5b565b801561265b5780601f106126305761010080835404028352916020019161265b565b820191906000526020600020905b81548152906001019060200180831161263e57829003601f168201915b5050505050815260200160078201805461267490615e5b565b80601f01602080910402602001604051908101604052809291908181526020018280546126a090615e5b565b80156126ed5780601f106126c2576101008083540402835291602001916126ed565b820191906000526020600020905b8154815290600101906020018083116126d057829003601f168201915b5050505050815260200160088201805461270690615e5b565b80601f016020809104026020016040519081016040528092919081815260200182805461273290615e5b565b801561277f5780601f106127545761010080835404028352916020019161277f565b820191906000526020600020905b81548152906001019060200180831161276257829003601f168201915b50505050508152602001600982015481525050815260200190600101906122ba565b505050509050612d42565b6127b68233614a8c565b6127f5576040517f08c379a00000000000000000000000000000000000000000000000000000000081526004016127ec90615b5c565b60405180910390fd5b600660008373ffffffffffffffffffffffffffffffffffffffff1673ffffffffffffffffffffffffffffffffffffffff168152602001908152602001600020805480602002602001604051908101604052809291908181526020016000905b82821015612d3b57838290600052602060002090600a0201604051806101400160405290816000820160009054906101000a900473ffffffffffffffffffffffffffffffffffffffff1673ffffffffffffffffffffffffffffffffffffffff1673ffffffffffffffffffffffffffffffffffffffff1681526020016001820160009054906101000a900473ffffffffffffffffffffffffffffffffffffffff1673ffffffffffffffffffffffffffffffffffffffff1673ffffffffffffffffffffffffffffffffffffffff16815260200160028201805461293490615e5b565b80601f016020809104026020016040519081016040528092919081815260200182805461296090615e5b565b80156129ad5780601f10612982576101008083540402835291602001916129ad565b820191906000526020600020905b81548152906001019060200180831161299057829003601f168201915b505050505081526020016003820180546129c690615e5b565b80601f01602080910402602001604051908101604052809291908181526020018280546129f290615e5b565b8015612a3f5780601f10612a1457610100808354040283529160200191612a3f565b820191906000526020600020905b815481529060010190602001808311612a2257829003601f168201915b50505050508152602001600482018054612a5890615e5b565b80601f0160208091040260200160405190810160405280929190818152602001828054612a8490615e5b565b8015612ad15780601f10612aa657610100808354040283529160200191612ad1565b820191906000526020600020905b815481529060010190602001808311612ab457829003601f168201915b50505050508152602001600582018054612aea90615e5b565b80601f0160208091040260200160405190810160405280929190818152602001828054612b1690615e5b565b8015612b635780601f10612b3857610100808354040283529160200191612b63565b820191906000526020600020905b815481529060010190602001808311612b4657829003601f168201915b50505050508152602001600682018054612b7c90615e5b565b80601f0160208091040260200160405190810160405280929190818152602001828054612ba890615e5b565b8015612bf55780601f10612bca57610100808354040283529160200191612bf5565b820191906000526020600020905b815481529060010190602001808311612bd857829003601f168201915b50505050508152602001600782018054612c0e90615e5b565b80601f0160208091040260200160405190810160405280929190818152602001828054612c3a90615e5b565b8015612c875780601f10612c5c57610100808354040283529160200191612c87565b820191906000526020600020905b815481529060010190602001808311612c6a57829003601f168201915b50505050508152602001600882018054612ca090615e5b565b80601f0160208091040260200160405190810160405280929190818152602001828054612ccc90615e5b565b8015612d195780601f10612cee57610100808354040283529160200191612d19565b820191906000526020600020905b815481529060010190602001808311612cfc57829003601f168201915b5050505050815260200160098201548152505081526020019060010190612854565b5050505090505b919050565b60606001805480602002602001604051908101604052809291908181526020018280548015612dcb57602002820191906000526020600020905b8160009054906101000a900473ffffffffffffffffffffffffffffffffffffffff1673ffffffffffffffffffffffffffffffffffffffff1681526020019060010190808311612d81575b5050505050905090565b60066020528160005260406000208181548110612df157600080fd5b90600052602060002090600a0201600091509150508060000160009054906101000a900473ffffffffffffffffffffffffffffffffffffffff16908060010160009054906101000a900473ffffffffffffffffffffffffffffffffffffffff1690806002018054612e6190615e5b565b80601f0160208091040260200160405190810160405280929190818152602001828054612e8d90615e5b565b8015612eda5780601f10612eaf57610100808354040283529160200191612eda565b820191906000526020600020905b815481529060010190602001808311612ebd57829003601f168201915b505050505090806003018054612eef90615e5b565b80601f0160208091040260200160405190810160405280929190818152602001828054612f1b90615e5b565b8015612f685780601f10612f3d57610100808354040283529160200191612f68565b820191906000526020600020905b815481529060010190602001808311612f4b57829003601f168201915b505050505090806004018054612f7d90615e5b565b80601f0160208091040260200160405190810160405280929190818152602001828054612fa990615e5b565b8015612ff65780601f10612fcb57610100808354040283529160200191612ff6565b820191906000526020600020905b815481529060010190602001808311612fd957829003601f168201915b50505050509080600501805461300b90615e5b565b80601f016020809104026020016040519081016040528092919081815260200182805461303790615e5b565b80156130845780601f1061305957610100808354040283529160200191613084565b820191906000526020600020905b81548152906001019060200180831161306757829003601f168201915b50505050509080600601805461309990615e5b565b80601f01602080910402602001604051908101604052809291908181526020018280546130c590615e5b565b80156131125780601f106130e757610100808354040283529160200191613112565b820191906000526020600020905b8154815290600101906020018083116130f557829003601f168201915b50505050509080600701805461312790615e5b565b80601f016020809104026020016040519081016040528092919081815260200182805461315390615e5b565b80156131a05780601f10613175576101008083540402835291602001916131a0565b820191906000526020600020905b81548152906001019060200180831161318357829003601f168201915b5050505050908060080180546131b590615e5b565b80601f01602080910402602001604051908101604052809291908181526020018280546131e190615e5b565b801561322e5780601f106132035761010080835404028352916020019161322e565b820191906000526020600020905b81548152906001019060200180831161321157829003601f168201915b505050505090806009015490508a565b6060806060600080600560008773ffffffffffffffffffffffffffffffffffffffff1673ffffffffffffffffffffffffffffffffffffffff168152602001908152602001600020905080600001816001018260020183600301548380546132a490615e5b565b80601f01602080910402602001604051908101604052809291908181526020018280546132d090615e5b565b801561331d5780601f106132f25761010080835404028352916020019161331d565b820191906000526020600020905b81548152906001019060200180831161330057829003601f168201915b5050505050935082805461333090615e5b565b80601f016020809104026020016040519081016040528092919081815260200182805461335c90615e5b565b80156133a95780601f1061337e576101008083540402835291602001916133a9565b820191906000526020600020905b81548152906001019060200180831161338c57829003601f168201915b505050505092508180546133bc90615e5b565b80601f01602080910402602001604051908101604052809291908181526020018280546133e890615e5b565b80156134355780601f1061340a57610100808354040283529160200191613435565b820191906000526020600020905b81548152906001019060200180831161341857829003601f168201915b505050505091509450945094509450509193509193565b6134563382614a8c565b613495576040517f08c379a000000000000000000000000000000000000000000000000000000000815260040161348c90615b7c565b60405180910390fd5b6000600460003373ffffffffffffffffffffffffffffffffffffffff1673ffffffffffffffffffffffffffffffffffffffff168152602001908152602001600020600801905060005b81805490508110156136fc578273ffffffffffffffffffffffffffffffffffffffff1682828154811061353a577f4e487b7100000000000000000000000000000000000000000000000000000000600052603260045260246000fd5b9060005260206000200160009054906101000a900473ffffffffffffffffffffffffffffffffffffffff1673ffffffffffffffffffffffffffffffffffffffff1614156136e95781600183805490506135939190615d9d565b815481106135ca577f4e487b7100000000000000000000000000000000000000000000000000000000600052603260045260246000fd5b9060005260206000200160009054906101000a900473ffffffffffffffffffffffffffffffffffffffff1682828154811061362e577f4e487b7100000000000000000000000000000000000000000000000000000000600052603260045260246000fd5b9060005260206000200160006101000a81548173ffffffffffffffffffffffffffffffffffffffff021916908373ffffffffffffffffffffffffffffffffffffffff160217905550818054806136ad577f4e487b7100000000000000000000000000000000000000000000000000000000600052603160045260246000fd5b6001900381819060005260206000200160006101000a81549073ffffffffffffffffffffffffffffffffffffffff0219169055905550506136ff565b80806136f490615e8d565b9150506134de565b50505b50565b6000600660008a73ffffffffffffffffffffffffffffffffffffffff1673ffffffffffffffffffffffffffffffffffffffff1681526020019081526020016000209050600081805490501161378c576040517f08c379a000000000000000000000000000000000000000000000000000000000815260040161378390615b9c565b60405180910390fd5b60005b8180549050811015613aec573373ffffffffffffffffffffffffffffffffffffffff168282815481106137eb577f4e487b7100000000000000000000000000000000000000000000000000000000600052603260045260246000fd5b90600052602060002090600a020160010160009054906101000a900473ffffffffffffffffffffffffffffffffffffffff1673ffffffffffffffffffffffffffffffffffffffff161415613ad95788828281548110613873577f4e487b7100000000000000000000000000000000000000000000000000000000600052603260045260246000fd5b90600052602060002090600a02016002019080519060200190613897929190614c3b565b50878282815481106138d2577f4e487b7100000000000000000000000000000000000000000000000000000000600052603260045260246000fd5b90600052602060002090600a020160030190805190602001906138f6929190614c3b565b5086828281548110613931577f4e487b7100000000000000000000000000000000000000000000000000000000600052603260045260246000fd5b90600052602060002090600a02016004019080519060200190613955929190614c3b565b5085828281548110613990577f4e487b7100000000000000000000000000000000000000000000000000000000600052603260045260246000fd5b90600052602060002090600a020160050190805190602001906139b4929190614c3b565b50848282815481106139ef577f4e487b7100000000000000000000000000000000000000000000000000000000600052603260045260246000fd5b90600052602060002090600a02016006019080519060200190613a13929190614c3b565b5083828281548110613a4e577f4e487b7100000000000000000000000000000000000000000000000000000000600052603260045260246000fd5b90600052602060002090600a02016007019080519060200190613a72929190614c3b565b5082828281548110613aad577f4e487b7100000000000000000000000000000000000000000000000000000000600052603260045260246000fd5b90600052602060002090600a02016008019080519060200190613ad1929190614c3b565b505050613b28565b8080613ae490615e8d565b91505061378f565b506040517f08c379a0000000000000000000000000000000000000000000000000000000008152600401613b1f90615c1c565b60405180910390fd5b5050505050505050565b60008181548110613b4257600080fd5b906000526020600020016000915054906101000a900473ffffffffffffffffffffffffffffffffffffffff1681565b60036020528060005260406000206000915054906101000a900460ff1681565b60018181548110613ba157600080fd5b906000526020600020016000915054906101000a900473ffffffffffffffffffffffffffffffffffffffff1681565b6060600460008373ffffffffffffffffffffffffffffffffffffffff1673ffffffffffffffffffffffffffffffffffffffff168152602001908152602001600020600801805480602002602001604051908101604052809291908181526020018280548015613c9457602002820191906000526020600020905b8160009054906101000a900473ffffffffffffffffffffffffffffffffffffffff1673ffffffffffffffffffffffffffffffffffffffff1681526020019060010190808311613c4a575b50505050509050919050565b60606000600180549050600080549050613cba9190615d47565b67ffffffffffffffff811115613cf9577f4e487b7100000000000000000000000000000000000000000000000000000000600052604160045260246000fd5b604051908082528060200260200182016040528015613d275781602001602082028036833780820191505090505b5090506000805b600080549050811015613f13576000808281548110613d76577f4e487b7100000000000000000000000000000000000000000000000000000000600052603260045260246000fd5b9060005260206000200160009054906101000a900473ffffffffffffffffffffffffffffffffffffffff169050613e77600460008373ffffffffffffffffffffffffffffffffffffffff1673ffffffffffffffffffffffffffffffffffffffff1681526020019081526020016000206000018054613df390615e5b565b80601f0160208091040260200160405190810160405280929190818152602001828054613e1f90615e5b565b8015613e6c5780601f10613e4157610100808354040283529160200191613e6c565b820191906000526020600020905b815481529060010190602001808311613e4f57829003601f168201915b505050505087614be2565b15613eff5780848481518110613eb6577f4e487b7100000000000000000000000000000000000000000000000000000000600052603260045260246000fd5b602002602001019073ffffffffffffffffffffffffffffffffffffffff16908173ffffffffffffffffffffffffffffffffffffffff16815250508280613efb90615e8d565b9350505b508080613f0b90615e8d565b915050613d2e565b5060005b60018054905081101561415b5761405c6005600060018481548110613f65577f4e487b7100000000000000000000000000000000000000000000000000000000600052603260045260246000fd5b9060005260206000200160009054906101000a900473ffffffffffffffffffffffffffffffffffffffff1673ffffffffffffffffffffffffffffffffffffffff1673ffffffffffffffffffffffffffffffffffffffff1681526020019081526020016000206000018054613fd890615e5b565b80601f016020809104026020016040519081016040528092919081815260200182805461400490615e5b565b80156140515780601f1061402657610100808354040283529160200191614051565b820191906000526020600020905b81548152906001019060200180831161403457829003601f168201915b505050505086614be2565b15614148576001818154811061409b577f4e487b7100000000000000000000000000000000000000000000000000000000600052603260045260246000fd5b9060005260206000200160009054906101000a900473ffffffffffffffffffffffffffffffffffffffff168383815181106140ff577f4e487b7100000000000000000000000000000000000000000000000000000000600052603260045260246000fd5b602002602001019073ffffffffffffffffffffffffffffffffffffffff16908173ffffffffffffffffffffffffffffffffffffffff1681525050818061414490615e8d565b9250505b808061415390615e8d565b915050613f17565b508082528192505050919050565b6000600460003373ffffffffffffffffffffffffffffffffffffffff1673ffffffffffffffffffffffffffffffffffffffff1681526020019081526020016000209050888160000190805190602001906141c4929190614c3b565b50878160010190805190602001906141dd929190614c3b565b50868160020190805190602001906141f6929190614c3b565b508581600301908051906020019061420f929190614c3b565b5084816004019080519060200190614228929190614c3b565b5083816005019080519060200190614241929190614c3b565b508281600601908051906020019061425a929190614c3b565b5081816007019080519060200190614273929190614c3b565b50428160090181905550505050505050505050565b6060600760008373ffffffffffffffffffffffffffffffffffffffff1673ffffffffffffffffffffffffffffffffffffffff16815260200190815260200160002080548060200260200160405190810160405280929190818152602001828054801561434957602002820191906000526020600020905b8160009054906101000a900473ffffffffffffffffffffffffffffffffffffffff1673ffffffffffffffffffffffffffffffffffffffff16815260200190600101908083116142ff575b50505050509050919050565b600560205280600052604060002060009150905080600001805461437890615e5b565b80601f01602080910402602001604051908101604052809291908181526020018280546143a490615e5b565b80156143f15780601f106143c6576101008083540402835291602001916143f1565b820191906000526020600020905b8154815290600101906020018083116143d457829003601f168201915b50505050509080600101805461440690615e5b565b80601f016020809104026020016040519081016040528092919081815260200182805461443290615e5b565b801561447f5780601f106144545761010080835404028352916020019161447f565b820191906000526020600020905b81548152906001019060200180831161446257829003601f168201915b50505050509080600201805461449490615e5b565b80601f01602080910402602001604051908101604052809291908181526020018280546144c090615e5b565b801561450d5780601f106144e25761010080835404028352916020019161450d565b820191906000526020600020905b8154815290600101906020018083116144f057829003601f168201915b5050505050908060030154905084565b600360008973ffffffffffffffffffffffffffffffffffffffff1673ffffffffffffffffffffffffffffffffffffffff16815260200190815260200160002060009054906101000a900460ff166145a9576040517f08c379a00000000000000000000000000000000000000000000000000000000081526004016145a090615b3c565b60405180910390fd5b6145b38833614a8c565b61465b57600460008973ffffffffffffffffffffffffffffffffffffffff1673ffffffffffffffffffffffffffffffffffffffff168152602001908152602001600020600801339080600181540180825580915050600190039060005260206000200160009091909190916101000a81548173ffffffffffffffffffffffffffffffffffffffff021916908373ffffffffffffffffffffffffffffffffffffffff1602179055505b614663614cc1565b88816000019073ffffffffffffffffffffffffffffffffffffffff16908173ffffffffffffffffffffffffffffffffffffffff168152505033816020019073ffffffffffffffffffffffffffffffffffffffff16908173ffffffffffffffffffffffffffffffffffffffff1681525050878160400181905250868160600181905250858160800181905250848160a00181905250838160c00181905250828160e00181905250818161010001819052504281610120018181525050600660008a73ffffffffffffffffffffffffffffffffffffffff1673ffffffffffffffffffffffffffffffffffffffff1681526020019081526020016000208190806001815401808255809150506001900390600052602060002090600a020160009091909190915060008201518160000160006101000a81548173ffffffffffffffffffffffffffffffffffffffff021916908373ffffffffffffffffffffffffffffffffffffffff16021790555060208201518160010160006101000a81548173ffffffffffffffffffffffffffffffffffffffff021916908373ffffffffffffffffffffffffffffffffffffffff1602179055506040820151816002019080519060200190614831929190614c3b565b50606082015181600301908051906020019061484e929190614c3b565b50608082015181600401908051906020019061486b929190614c3b565b5060a0820151816005019080519060200190614888929190614c3b565b5060c08201518160060190805190602001906148a5929190614c3b565b5060e08201518160070190805190602001906148c2929190614c3b565b506101008201518160080190805190602001906148e0929190614c3b565b506101208201518160090155505060028190806001815401808255809150506001900390600052602060002090600a020160009091909190915060008201518160000160006101000a81548173ffffffffffffffffffffffffffffffffffffffff021916908373ffffffffffffffffffffffffffffffffffffffff16021790555060208201518160010160006101000a81548173ffffffffffffffffffffffffffffffffffffffff021916908373ffffffffffffffffffffffffffffffffffffffff16021790555060408201518160020190805190602001906149c4929190614c3b565b5060608201518160030190805190602001906149e1929190614c3b565b5060808201518160040190805190602001906149fe929190614c3b565b5060a0820151816005019080519060200190614a1b929190614c3b565b5060c0820151816006019080519060200190614a38929190614c3b565b5060e0820151816007019080519060200190614a55929190614c3b565b50610100820151816008019080519060200190614a73929190614c3b565b5061012082015181600901555050505050505050505050565b600080600090505b600460008573ffffffffffffffffffffffffffffffffffffffff1673ffffffffffffffffffffffffffffffffffffffff16815260200190815260200160002060080180549050811015614bd6578273ffffffffffffffffffffffffffffffffffffffff16600460008673ffffffffffffffffffffffffffffffffffffffff1673ffffffffffffffffffffffffffffffffffffffff1681526020019081526020016000206008018281548110614b72577f4e487b7100000000000000000000000000000000000000000000000000000000600052603260045260246000fd5b9060005260206000200160009054906101000a900473ffffffffffffffffffffffffffffffffffffffff1673ffffffffffffffffffffffffffffffffffffffff161415614bc3576001915050614bdc565b8080614bce90615e8d565b915050614a94565b50600090505b92915050565b600081604051602001614bf591906157c4565b6040516020818303038152906040528051906020012083604051602001614c1c91906157c4565b6040516020818303038152906040528051906020012014905092915050565b828054614c4790615e5b565b90600052602060002090601f016020900481019282614c695760008555614cb0565b82601f10614c8257805160ff1916838001178555614cb0565b82800160010185558215614cb0579182015b82811115614caf578251825591602001919060010190614c94565b5b509050614cbd9190614d40565b5090565b604051806101400160405280600073ffffffffffffffffffffffffffffffffffffffff168152602001600073ffffffffffffffffffffffffffffffffffffffff16815260200160608152602001606081526020016060815260200160608152602001606081526020016060815260200160608152602001600081525090565b5b80821115614d59576000816000905550600101614d41565b5090565b6000614d70614d6b84615c6d565b615c3c565b905082815260208101848484011115614d8857600080fd5b614d93848285615e19565b509392505050565b600081359050614daa81615f74565b92915050565b600082601f830112614dc157600080fd5b8135614dd1848260208601614d5d565b91505092915050565b600081359050614de981615f8b565b92915050565b600060208284031215614e0157600080fd5b6000614e0f84828501614d9b565b91505092915050565b600080600080600080600080610100898b031215614e3557600080fd5b6000614e438b828c01614d9b565b985050602089013567ffffffffffffffff811115614e6057600080fd5b614e6c8b828c01614db0565b975050604089013567ffffffffffffffff811115614e8957600080fd5b614e958b828c01614db0565b965050606089013567ffffffffffffffff811115614eb257600080fd5b614ebe8b828c01614db0565b955050608089013567ffffffffffffffff811115614edb57600080fd5b614ee78b828c01614db0565b94505060a089013567ffffffffffffffff811115614f0457600080fd5b614f108b828c01614db0565b93505060c089013567ffffffffffffffff811115614f2d57600080fd5b614f398b828c01614db0565b92505060e089013567ffffffffffffffff811115614f5657600080fd5b614f628b828c01614db0565b9150509295985092959890939650565b60008060408385031215614f8557600080fd5b6000614f9385828601614d9b565b9250506020614fa485828601614dda565b9150509250929050565b600060208284031215614fc057600080fd5b600082013567ffffffffffffffff811115614fda57600080fd5b614fe684828501614db0565b91505092915050565b60008060006060848603121561500457600080fd5b600084013567ffffffffffffffff81111561501e57600080fd5b61502a86828701614db0565b935050602084013567ffffffffffffffff81111561504757600080fd5b61505386828701614db0565b925050604084013567ffffffffffffffff81111561507057600080fd5b61507c86828701614db0565b9150509250925092565b600080600080600080600080610100898b0312156150a357600080fd5b600089013567ffffffffffffffff8111156150bd57600080fd5b6150c98b828c01614db0565b985050602089013567ffffffffffffffff8111156150e657600080fd5b6150f28b828c01614db0565b975050604089013567ffffffffffffffff81111561510f57600080fd5b61511b8b828c01614db0565b965050606089013567ffffffffffffffff81111561513857600080fd5b6151448b828c01614db0565b955050608089013567ffffffffffffffff81111561516157600080fd5b61516d8b828c01614db0565b94505060a089013567ffffffffffffffff81111561518a57600080fd5b6151968b828c01614db0565b93505060c089013567ffffffffffffffff8111156151b357600080fd5b6151bf8b828c01614db0565b92505060e089013567ffffffffffffffff8111156151dc57600080fd5b6151e88b828c01614db0565b9150509295985092959890939650565b60006020828403121561520a57600080fd5b600061521884828501614dda565b91505092915050565b600061522d838361524d565b60208301905092915050565b600061524583836156a2565b905092915050565b61525681615dd1565b82525050565b61526581615dd1565b82525050565b600061527682615cbd565b6152808185615cf8565b935061528b83615c9d565b8060005b838110156152bc5781516152a38882615221565b97506152ae83615cde565b92505060018101905061528f565b5085935050505092915050565b60006152d482615cc8565b6152de8185615d09565b9350836020820285016152f085615cad565b8060005b8581101561532c578484038952815161530d8582615239565b945061531883615ceb565b925060208a019950506001810190506152f4565b50829750879550505050505092915050565b61534781615de3565b82525050565b600061535882615cd3565b6153628185615d1a565b9350615372818560208601615e28565b61537b81615f63565b840191505092915050565b600061539182615cd3565b61539b8185615d2b565b93506153ab818560208601615e28565b6153b481615f63565b840191505092915050565b60006153ca82615cd3565b6153d48185615d3c565b93506153e4818560208601615e28565b80840191505092915050565b60006153fd601a83615d2b565b91507f50617469656e7420616c726561647920726567697374657265640000000000006000830152602082019050919050565b600061543d601683615d2b565b91507f50617469656e74206e6f742072656769737465726564000000000000000000006000830152602082019050919050565b600061547d603283615d2b565b91507f43616c6c6572206973206e6f7420617574686f72697a656420746f206163636560008301527f73732070617469656e74207265636f72647300000000000000000000000000006020830152604082019050919050565b60006154e3601783615d2b565b91507f486f73706974616c206e6f7420617574686f72697a65640000000000000000006000830152602082019050919050565b6000615523603083615d2b565b91507f4e6f206d65646963616c20686973746f7279207265636f72647320666f756e6460008301527f20666f72207468652070617469656e74000000000000000000000000000000006020830152604082019050919050565b6000615589601483615d2b565b91507f5265717565737420616c72656164792073656e740000000000000000000000006000830152602082019050919050565b60006155c9601b83615d2b565b91507f486f73706974616c20616c7265616479207265676973746572656400000000006000830152602082019050919050565b6000615609601b83615d2b565b91507f486f73706974616c20616c726561647920617574686f72697a656400000000006000830152602082019050919050565b6000615649603b83615d2b565b91507f4d65646963616c20686973746f7279207265636f7264206e6f7420666f756e6460008301527f20666f72207468652073706563696669656420686f73706974616c00000000006020830152604082019050919050565b6000610140830160008301516156bb600086018261524d565b5060208301516156ce602086018261524d565b50604083015184820360408601526156e6828261534d565b91505060608301518482036060860152615700828261534d565b9150506080830151848203608086015261571a828261534d565b91505060a083015184820360a0860152615734828261534d565b91505060c083015184820360c086015261574e828261534d565b91505060e083015184820360e0860152615768828261534d565b915050610100830151848203610100860152615784828261534d565b91505061012083015161579b6101208601826157a6565b508091505092915050565b6157af81615e0f565b82525050565b6157be81615e0f565b82525050565b60006157d082846153bf565b915081905092915050565b60006020820190506157f0600083018461525c565b92915050565b60006101408201905061580c600083018d61525c565b615819602083018c61525c565b818103604083015261582b818b615386565b9050818103606083015261583f818a615386565b905081810360808301526158538189615386565b905081810360a08301526158678188615386565b905081810360c083015261587b8187615386565b905081810360e083015261588f8186615386565b90508181036101008301526158a48185615386565b90506158b46101208301846157b5565b9b9a5050505050505050505050565b600060208201905081810360008301526158dd818461526b565b905092915050565b600060208201905081810360008301526158ff81846152c9565b905092915050565b600060208201905061591c600083018461533e565b92915050565b600061014082019050818103600083015261593d818d615386565b90508181036020830152615951818c615386565b90508181036040830152615965818b615386565b90508181036060830152615979818a615386565b9050818103608083015261598d8189615386565b905081810360a08301526159a18188615386565b905081810360c08301526159b58187615386565b905081810360e08301526159c98186615386565b90508181036101008301526159de818561526b565b90506159ee6101208301846157b5565b9b9a5050505050505050505050565b6000610120820190508181036000830152615a18818c615386565b90508181036020830152615a2c818b615386565b90508181036040830152615a40818a615386565b90508181036060830152615a548189615386565b90508181036080830152615a688188615386565b905081810360a0830152615a7c8187615386565b905081810360c0830152615a908186615386565b905081810360e0830152615aa48185615386565b9050615ab46101008301846157b5565b9a9950505050505050505050565b60006080820190508181036000830152615adc8187615386565b90508181036020830152615af08186615386565b90508181036040830152615b048185615386565b9050615b1360608301846157b5565b95945050505050565b60006020820190508181036000830152615b35816153f0565b9050919050565b60006020820190508181036000830152615b5581615430565b9050919050565b60006020820190508181036000830152615b7581615470565b9050919050565b60006020820190508181036000830152615b95816154d6565b9050919050565b60006020820190508181036000830152615bb581615516565b9050919050565b60006020820190508181036000830152615bd58161557c565b9050919050565b60006020820190508181036000830152615bf5816155bc565b9050919050565b60006020820190508181036000830152615c15816155fc565b9050919050565b60006020820190508181036000830152615c358161563c565b9050919050565b6000604051905081810181811067ffffffffffffffff82111715615c6357615c62615f34565b5b8060405250919050565b600067ffffffffffffffff821115615c8857615c87615f34565b5b601f19601f8301169050602081019050919050565b6000819050602082019050919050565b6000819050602082019050919050565b600081519050919050565b600081519050919050565b600081519050919050565b6000602082019050919050565b6000602082019050919050565b600082825260208201905092915050565b600082825260208201905092915050565b600082825260208201905092915050565b600082825260208201905092915050565b600081905092915050565b6000615d5282615e0f565b9150615d5d83615e0f565b9250827fffffffffffffffffffffffffffffffffffffffffffffffffffffffffffffffff03821115615d9257615d91615ed6565b5b828201905092915050565b6000615da882615e0f565b9150615db383615e0f565b925082821015615dc657615dc5615ed6565b5b828203905092915050565b6000615ddc82615def565b9050919050565b60008115159050919050565b600073ffffffffffffffffffffffffffffffffffffffff82169050919050565b6000819050919050565b82818337600083830152505050565b60005b83811015615e46578082015181840152602081019050615e2b565b83811115615e55576000848401525b50505050565b60006002820490506001821680615e7357607f821691505b60208210811415615e8757615e86615f05565b5b50919050565b6000615e9882615e0f565b91507fffffffffffffffffffffffffffffffffffffffffffffffffffffffffffffffff821415615ecb57615eca615ed6565b5b600182019050919050565b7f4e487b7100000000000000000000000000000000000000000000000000000000600052601160045260246000fd5b7f4e487b7100000000000000000000000000000000000000000000000000000000600052602260045260246000fd5b7f4e487b7100000000000000000000000000000000000000000000000000000000600052604160045260246000fd5b6000601f19601f8301169050919050565b615f7d81615dd1565b8114615f8857600080fd5b50565b615f9481615e0f565b8114615f9f57600080fd5b5056fea2646970667358221220d96b7f8c411baa0c2f847ab50b18ce8565acbdbb2ccbde9a677a80a11be5d0bc64736f6c63430008000033",
  "immutableReferences": {},
  "source": "// SPDX-License-Identifier: MIT\r\npragma solidity ^0.8.0;\r\n\r\ncontract MediVerse {\r\n    \r\n    struct Patient {\r\n        string name;\r\n        string age;\r\n        string gender;\r\n        string dateOfBirth;\r\n        string height;\r\n        string weight;\r\n        string contactNum;\r\n        string addr;\r\n        address[] authorizedHospitals;\r\n        uint creationDate;\r\n    }\r\n\r\n    struct Hospital {\r\n        string name;\r\n        string contactNum;\r\n        string addr;\r\n        uint creationDate;\r\n    }\r\n\r\n    struct MedicalHistory {\r\n        address patientAddr;\r\n        address hospitalAddr;\r\n        string physician;\r\n        string diagnosis;\r\n        string signsAndSymptoms;\r\n        string treatmentProcedure;\r\n        string tests;\r\n        string medications;\r\n        string admission;\r\n        uint creationDate;\r\n    }\r\n\r\n    address[] public patientList; \r\n    address[] public hospitalList;\r\n    MedicalHistory[] public medicalHistoryList;\r\n    mapping(address => bool) public isRegistered;\r\n    mapping(address => Patient) public patients;\r\n    mapping(address => Hospital) public hospitals;\r\n    mapping(address => MedicalHistory[]) public medicalHistories;\r\n    mapping(address => address[]) private pendingRequests;\r\n\r\n    modifier isRegister() {\r\n        require(isRegistered[msg.sender], \"Account is not registered\");\r\n        _;\r\n    }\r\n\r\n    modifier isAuthorized(address _patientAddr) {\r\n        require(\r\n            isHospitalAuthorized(_patientAddr, msg.sender),\r\n            \"Hospital not authorized to access patient records\"\r\n        );\r\n        _;\r\n    }\r\n\r\n    function isHospitalAuthorized(address _patientAddr, address _hospitalAddr) internal view returns (bool) {\r\n        for (uint i = 0; i < patients[_patientAddr].authorizedHospitals.length; i++) {\r\n            if (patients[_patientAddr].authorizedHospitals[i] == _hospitalAddr) {\r\n                return true;\r\n            }\r\n        }\r\n        return false;\r\n    }\r\n\r\n    function registerPatient(\r\n        string memory _name,\r\n        string memory _age,\r\n        string memory _gender,\r\n        string memory _dateOfBirth,\r\n        string memory _height,\r\n        string memory _weight,\r\n        string memory _contactNum,\r\n        string memory _address\r\n    ) public {\r\n        require(!isRegistered[msg.sender], \"Patient already registered\");\r\n\r\n        Patient storage patient = patients[msg.sender];\r\n        patient.name = _name;\r\n        patient.age = _age;\r\n        patient.gender = _gender;\r\n        patient.dateOfBirth = _dateOfBirth;\r\n        patient.height = _height;\r\n        patient.weight = _weight;\r\n        patient.contactNum = _contactNum;\r\n        patient.addr = _address;\r\n\r\n        patient.creationDate = block.timestamp;\r\n        patientList.push(msg.sender);\r\n        isRegistered[msg.sender] = true;\r\n    }\r\n\r\n    function editPatientDetails(\r\n        string memory _name,\r\n        string memory _age,\r\n        string memory _gender,\r\n        string memory _dateOfBirth,\r\n        string memory _height,\r\n        string memory _weight,\r\n        string memory _contactNum,\r\n        string memory _address\r\n    ) public {\r\n        Patient storage patient = patients[msg.sender];\r\n        patient.name = _name;\r\n        patient.age = _age;\r\n        patient.gender = _gender;\r\n        patient.dateOfBirth = _dateOfBirth;\r\n        patient.height = _height;\r\n        patient.weight = _weight;\r\n        patient.contactNum = _contactNum;\r\n        patient.addr = _address;\r\n        patient.creationDate = block.timestamp;\r\n    }\r\n\r\n    function registerHospital(\r\n        string memory _name,\r\n        string memory _contactNum,\r\n        string memory _address\r\n    ) public {\r\n        require(!isRegistered[msg.sender], \"Hospital already registered\");\r\n        Hospital storage hospital = hospitals[msg.sender];\r\n        hospital.name = _name;\r\n        hospital.contactNum = _contactNum;\r\n        hospital.addr = _address;\r\n        hospital.creationDate = block.timestamp;\r\n\r\n        hospitalList.push(msg.sender);\r\n        isRegistered[msg.sender] = true;\r\n    }\r\n\r\n    function editHospitalDetails(\r\n        string memory _name,\r\n        string memory _contactNum,\r\n        string memory _addr\r\n    ) public {\r\n        Hospital storage hospital = hospitals[msg.sender];\r\n        hospital.name = _name;\r\n        hospital.contactNum = _contactNum;\r\n        hospital.addr = _addr;\r\n        hospital.creationDate = block.timestamp;\r\n    }\r\n\r\n    function addMedicalHistory(\r\n        address _patientAddr,\r\n        string memory _physician,\r\n        string memory _diagnosis,\r\n        string memory _signsAndSymptoms,\r\n        string memory _treatmentProcedure,\r\n        string memory _tests,\r\n        string memory _medications,\r\n        string memory _admission\r\n    ) public {\r\n\r\n        require(isRegistered[_patientAddr], \"Patient not registered\");\r\n\r\n        if (!isHospitalAuthorized(_patientAddr, msg.sender)) {\r\n            patients[_patientAddr].authorizedHospitals.push(msg.sender);\r\n        }\r\n\r\n        MedicalHistory memory history;\r\n        history.patientAddr = _patientAddr;\r\n        history.hospitalAddr = msg.sender;\r\n        history.physician = _physician;\r\n        history.diagnosis = _diagnosis;\r\n        history.signsAndSymptoms = _signsAndSymptoms;\r\n        history.treatmentProcedure = _treatmentProcedure;\r\n        history.tests = _tests;\r\n        history.medications = _medications;\r\n        history.admission = _admission;\r\n        history.creationDate = block.timestamp;\r\n\r\n        medicalHistories[_patientAddr].push(history);\r\n        medicalHistoryList.push(history);\r\n    }\r\n\r\n    function editMedicalHistory(\r\n        address _patientAddr,\r\n        string memory _physician,\r\n        string memory _diagnosis,\r\n        string memory _signsAndSymptoms,\r\n        string memory _treatmentProcedure,\r\n        string memory _tests,\r\n        string memory _medications,\r\n        string memory _admission\r\n    ) public {\r\n        MedicalHistory[] storage history = medicalHistories[_patientAddr];\r\n\r\n        // Check if there are any records for the specified patient\r\n        require(history.length > 0, \"No medical history records found for the patient\");\r\n\r\n        // Iterate through the records to find the one matching your criteria\r\n        for (uint i = 0; i < history.length; i++) {\r\n            if (history[i].hospitalAddr == msg.sender) {\r\n                // Update the record with the new information\r\n                history[i].physician = _physician;\r\n                history[i].diagnosis = _diagnosis;\r\n                history[i].signsAndSymptoms = _signsAndSymptoms;\r\n                history[i].treatmentProcedure = _treatmentProcedure;\r\n                history[i].tests = _tests;\r\n                history[i].medications = _medications;\r\n                history[i].admission = _admission;\r\n\r\n                return; // Exit the function after updating the record\r\n            }\r\n        }\r\n        // If no matching record is found, revert the transaction\r\n        revert(\"Medical history record not found for the specified hospital\");\r\n    }\r\n\r\n    function getMedicalHistory(address _patientAddr) public view returns (MedicalHistory[] memory) {\r\n        if (msg.sender == _patientAddr) {\r\n            return medicalHistories[_patientAddr];\r\n        } else {\r\n            require(isHospitalAuthorized(_patientAddr, msg.sender), \"Caller is not authorized to access patient records\");\r\n            return medicalHistories[_patientAddr];\r\n        }\r\n    }\r\n\r\n    // function that will retrieve all the list of medical record\r\n    function getAllMedicalHistory() public view returns (MedicalHistory[] memory) {\r\n        return medicalHistoryList;\r\n    }\r\n\r\n    // Function to retrieve patient information\r\n    function getPatientInfo(address patientAddress) external view returns (string memory, string memory, string memory, string memory, string memory, string memory, string memory, string memory, address[] memory, uint) {\r\n        Patient storage patient = patients[patientAddress];\r\n        return (patient.name, patient.age, patient.gender, patient.dateOfBirth, patient.height, patient.weight, patient.contactNum, patient.addr, patient.authorizedHospitals, patient.creationDate);\r\n    }\r\n\r\n    // Function to retrieve hospital information\r\n    function getHospitalInfo(address hospitalAddress) external view returns (string memory, string memory, string memory, uint) {\r\n        Hospital storage hospital = hospitals[hospitalAddress];\r\n        return (hospital.name, hospital.contactNum, hospital.addr, hospital.creationDate);\r\n    }\r\n    \r\n    function givePermission(address _hospitalAddr) public  {\r\n        require(!isHospitalAuthorized(msg.sender, _hospitalAddr), \"Hospital already authorized\");\r\n        // Check if the hospital is already in the pending requests\r\n        bool isPending = false;\r\n        for (uint i = 0; i < pendingRequests[msg.sender].length; i++) {\r\n            if (pendingRequests[msg.sender][i] == _hospitalAddr) {\r\n                isPending = true;\r\n                break;\r\n            }\r\n        }\r\n        // If not in pending, add to both authorized and pending requests\r\n        if (!isPending) {\r\n            patients[msg.sender].authorizedHospitals.push(_hospitalAddr);\r\n            pendingRequests[msg.sender].push(_hospitalAddr);\r\n        }\r\n    }\r\n\r\n    function revokeAccess(address _hospitalAddr) public {\r\n        require(isHospitalAuthorized(msg.sender, _hospitalAddr), \"Hospital not authorized\");\r\n        address[] storage authorizedHospitals = patients[msg.sender].authorizedHospitals;\r\n        for (uint i = 0; i < authorizedHospitals.length; i++) {\r\n            if (authorizedHospitals[i] == _hospitalAddr) {\r\n                authorizedHospitals[i] = authorizedHospitals[authorizedHospitals.length - 1];\r\n                authorizedHospitals.pop();\r\n                return;\r\n            }\r\n        }\r\n    }\r\n    \r\n    // Function that will request access for patients medical record\r\n    function requestPermission(address _patientAddr) public {\r\n        require(!isHospitalAuthorized(_patientAddr, msg.sender), \"Request already sent\");\r\n        pendingRequests[_patientAddr].push(msg.sender);\r\n    }\r\n\r\n    function getAuthorizedHospitals(address _patientAddr) public view returns (address[] memory) {\r\n        return patients[_patientAddr].authorizedHospitals;\r\n    }\r\n\r\n    function getPendingRequests(address _patientAddr) public view returns (address[] memory) {\r\n        return pendingRequests[_patientAddr];\r\n    }\r\n\r\n    function getPatientList() public view returns (address[] memory) {\r\n        return patientList;\r\n    }\r\n\r\n    function getHospitalList() public view returns (address[] memory) {\r\n        return hospitalList;\r\n    }\r\n\r\n    function searchByName(string memory query) public view returns (address[] memory) {\r\n        address[] memory searchResults = new address[](patientList.length + hospitalList.length);\r\n\r\n        uint resultIndex = 0;\r\n\r\n        // Search among patients by name\r\n        for (uint i = 0; i < patientList.length; i++) {\r\n            address patientAddr = patientList[i];\r\n            if (compareStringsIgnoreCase(patients[patientAddr].name, query)) {\r\n                searchResults[resultIndex] = patientAddr;\r\n                resultIndex++;\r\n            }\r\n        }\r\n\r\n        // Search among hospitals by name\r\n        for (uint j = 0; j < hospitalList.length; j++) {\r\n            if (compareStringsIgnoreCase(hospitals[hospitalList[j]].name, query)) {\r\n                searchResults[resultIndex] = hospitalList[j];\r\n                resultIndex++;\r\n            }\r\n        }\r\n\r\n        // Resize the array to remove any unused slots\r\n        assembly {\r\n            mstore(searchResults, resultIndex)\r\n        }\r\n\r\n        return searchResults;\r\n    }\r\n\r\n    function compareStringsIgnoreCase(string memory a, string memory b) internal pure returns (bool) {\r\n        return (keccak256(abi.encodePacked((a))) == keccak256(abi.encodePacked((b))));\r\n    }\r\n}",
  "sourcePath": "C:\\Users\\Abby\\Desktop\\APPCON 2023\\MediVerse-Web3-Dapp\\contracts\\MediVerse.sol",
  "compiler": {
    "name": "solc",
    "version": "0.8.0+commit.c7dfd78e.Emscripten.clang"
  },
  "schemaVersion": "3.4.16",
  "updatedAt": "2024-04-11T18:32:40.446Z",
  "networkType": "ethereum",
  "devdoc": {
    "kind": "dev",
    "methods": {},
    "version": 1
  },
  "userdoc": {
    "kind": "user",
    "methods": {},
    "version": 1
  }
}