{
  "contractName": "MediVerse",
  "abi": [
    {
      "anonymous": false,
      "inputs": [
        {
          "indexed": false,
          "internalType": "address",
          "name": "patientAddr",
          "type": "address"
        },
        {
          "indexed": false,
          "internalType": "address",
          "name": "hospitalAddr",
          "type": "address"
        }
      ],
      "name": "GeneralHealthProfileAdded",
      "type": "event"
    },
    {
      "anonymous": false,
      "inputs": [
        {
          "indexed": false,
          "internalType": "address",
          "name": "hospitalAddr",
          "type": "address"
        }
      ],
      "name": "HospitalRegistered",
      "type": "event"
    },
    {
      "anonymous": false,
      "inputs": [
        {
          "indexed": false,
          "internalType": "address",
          "name": "patientAddr",
          "type": "address"
        },
        {
          "indexed": false,
          "internalType": "address",
          "name": "hospitalAddr",
          "type": "address"
        }
      ],
      "name": "MedicalHistoryAdded",
      "type": "event"
    },
    {
      "anonymous": false,
      "inputs": [
        {
          "indexed": false,
          "internalType": "address",
          "name": "patientAddr",
          "type": "address"
        }
      ],
      "name": "PatientRegistered",
      "type": "event"
    },
    {
      "anonymous": false,
      "inputs": [
        {
          "indexed": false,
          "internalType": "address",
          "name": "patientAddr",
          "type": "address"
        },
        {
          "indexed": false,
          "internalType": "address",
          "name": "hospitalAddr",
          "type": "address"
        }
      ],
      "name": "PermissionGranted",
      "type": "event"
    },
    {
      "anonymous": false,
      "inputs": [
        {
          "indexed": false,
          "internalType": "address",
          "name": "patientAddr",
          "type": "address"
        },
        {
          "indexed": false,
          "internalType": "address",
          "name": "hospitalAddr",
          "type": "address"
        }
      ],
      "name": "PermissionRevoked",
      "type": "event"
    },
    {
      "inputs": [
        {
          "internalType": "address",
          "name": "",
          "type": "address"
        },
        {
          "internalType": "uint256",
          "name": "",
          "type": "uint256"
        }
      ],
      "name": "generalHealthProfiles",
      "outputs": [
        {
          "internalType": "address",
          "name": "patientAddr",
          "type": "address"
        },
        {
          "internalType": "address",
          "name": "hospitalAddr",
          "type": "address"
        },
        {
          "internalType": "string",
          "name": "physicalExamination",
          "type": "string"
        },
        {
          "internalType": "string",
          "name": "medicalHistorySummary",
          "type": "string"
        },
        {
          "internalType": "string",
          "name": "maintenanceMedication",
          "type": "string"
        },
        {
          "internalType": "string",
          "name": "allergies",
          "type": "string"
        },
        {
          "internalType": "string",
          "name": "medicalProcedureSummary",
          "type": "string"
        },
        {
          "internalType": "uint256",
          "name": "creationDate",
          "type": "uint256"
        }
      ],
      "stateMutability": "view",
      "type": "function",
      "constant": true
    },
    {
      "inputs": [
        {
          "internalType": "address",
          "name": "",
          "type": "address"
        }
      ],
      "name": "hospitals",
      "outputs": [
        {
          "internalType": "string",
          "name": "name",
          "type": "string"
        },
        {
          "internalType": "string",
          "name": "contactNum",
          "type": "string"
        },
        {
          "internalType": "string",
          "name": "addr",
          "type": "string"
        },
        {
          "internalType": "uint256",
          "name": "registrationDate",
          "type": "uint256"
        }
      ],
      "stateMutability": "view",
      "type": "function",
      "constant": true
    },
    {
      "inputs": [
        {
          "internalType": "address",
          "name": "",
          "type": "address"
        },
        {
          "internalType": "uint256",
          "name": "",
          "type": "uint256"
        }
      ],
      "name": "medicalHistories",
      "outputs": [
        {
          "internalType": "address",
          "name": "patientAddr",
          "type": "address"
        },
        {
          "internalType": "address",
          "name": "hospitalAddr",
          "type": "address"
        },
        {
          "internalType": "string",
          "name": "physician",
          "type": "string"
        },
        {
          "internalType": "string",
          "name": "diagnosis",
          "type": "string"
        },
        {
          "internalType": "string",
          "name": "signsAndSymptoms",
          "type": "string"
        },
        {
          "internalType": "string",
          "name": "treatmentProcedure",
          "type": "string"
        },
        {
          "internalType": "string",
          "name": "tests",
          "type": "string"
        },
        {
          "internalType": "string",
          "name": "medications",
          "type": "string"
        },
        {
          "internalType": "string",
          "name": "admission",
          "type": "string"
        },
        {
          "internalType": "uint256",
          "name": "creationDate",
          "type": "uint256"
        }
      ],
      "stateMutability": "view",
      "type": "function",
      "constant": true
    },
    {
      "inputs": [
        {
          "internalType": "address",
          "name": "",
          "type": "address"
        }
      ],
      "name": "patients",
      "outputs": [
        {
          "internalType": "string",
          "name": "name",
          "type": "string"
        },
        {
          "internalType": "string",
          "name": "gender",
          "type": "string"
        },
        {
          "internalType": "string",
          "name": "dateOfBirth",
          "type": "string"
        },
        {
          "internalType": "string",
          "name": "height",
          "type": "string"
        },
        {
          "internalType": "string",
          "name": "weight",
          "type": "string"
        },
        {
          "internalType": "string",
          "name": "contactNum",
          "type": "string"
        },
        {
          "internalType": "string",
          "name": "addr",
          "type": "string"
        },
        {
          "internalType": "uint256",
          "name": "registrationDate",
          "type": "uint256"
        }
      ],
      "stateMutability": "view",
      "type": "function",
      "constant": true
    },
    {
      "inputs": [
        {
          "internalType": "string",
          "name": "_name",
          "type": "string"
        },
        {
          "internalType": "string",
          "name": "_contactNum",
          "type": "string"
        },
        {
          "internalType": "string",
          "name": "_gender",
          "type": "string"
        },
        {
          "internalType": "string",
          "name": "_dateOfBirth",
          "type": "string"
        },
        {
          "internalType": "string",
          "name": "_height",
          "type": "string"
        },
        {
          "internalType": "string",
          "name": "_weight",
          "type": "string"
        },
        {
          "internalType": "string",
          "name": "_address",
          "type": "string"
        }
      ],
      "name": "registerPatient",
      "outputs": [],
      "stateMutability": "nonpayable",
      "type": "function"
    },
    {
      "inputs": [
        {
          "internalType": "string",
          "name": "_name",
          "type": "string"
        },
        {
          "internalType": "string",
          "name": "_contactNum",
          "type": "string"
        },
        {
          "internalType": "string",
          "name": "_gender",
          "type": "string"
        },
        {
          "internalType": "string",
          "name": "_dateOfBirth",
          "type": "string"
        },
        {
          "internalType": "string",
          "name": "_height",
          "type": "string"
        },
        {
          "internalType": "string",
          "name": "_weight",
          "type": "string"
        },
        {
          "internalType": "string",
          "name": "_address",
          "type": "string"
        }
      ],
      "name": "editPatientDetails",
      "outputs": [],
      "stateMutability": "nonpayable",
      "type": "function"
    },
    {
      "inputs": [
        {
          "internalType": "string",
          "name": "_name",
          "type": "string"
        },
        {
          "internalType": "string",
          "name": "_contactNum",
          "type": "string"
        },
        {
          "internalType": "string",
          "name": "_address",
          "type": "string"
        }
      ],
      "name": "registerHospital",
      "outputs": [],
      "stateMutability": "nonpayable",
      "type": "function"
    },
    {
      "inputs": [
        {
          "internalType": "string",
          "name": "_name",
          "type": "string"
        },
        {
          "internalType": "string",
          "name": "_contactNum",
          "type": "string"
        },
        {
          "internalType": "string",
          "name": "_addr",
          "type": "string"
        }
      ],
      "name": "editHospitalDetails",
      "outputs": [],
      "stateMutability": "nonpayable",
      "type": "function"
    },
    {
      "inputs": [
        {
          "internalType": "address",
          "name": "_patientAddr",
          "type": "address"
        },
        {
          "internalType": "string",
          "name": "_physician",
          "type": "string"
        },
        {
          "internalType": "string",
          "name": "_diagnosis",
          "type": "string"
        },
        {
          "internalType": "string",
          "name": "_signsAndSymptoms",
          "type": "string"
        },
        {
          "internalType": "string",
          "name": "_treatmentProcedure",
          "type": "string"
        },
        {
          "internalType": "string",
          "name": "_tests",
          "type": "string"
        },
        {
          "internalType": "string",
          "name": "_medications",
          "type": "string"
        },
        {
          "internalType": "string",
          "name": "_admission",
          "type": "string"
        }
      ],
      "name": "addMedicalHistory",
      "outputs": [],
      "stateMutability": "nonpayable",
      "type": "function"
    },
    {
      "inputs": [
        {
          "internalType": "address",
          "name": "_patientAddr",
          "type": "address"
        },
        {
          "internalType": "string",
          "name": "_medicalHistorySummary",
          "type": "string"
        },
        {
          "internalType": "string",
          "name": "_maintenanceMedication",
          "type": "string"
        },
        {
          "internalType": "string",
          "name": "_allergies",
          "type": "string"
        },
        {
          "internalType": "string",
          "name": "_medicalProcedureSummary",
          "type": "string"
        }
      ],
      "name": "addGeneralHealthProfile",
      "outputs": [],
      "stateMutability": "nonpayable",
      "type": "function"
    },
    {
      "inputs": [
        {
          "internalType": "address",
          "name": "_patientAddr",
          "type": "address"
        }
      ],
      "name": "getMedicalHistory",
      "outputs": [
        {
          "components": [
            {
              "internalType": "address",
              "name": "patientAddr",
              "type": "address"
            },
            {
              "internalType": "address",
              "name": "hospitalAddr",
              "type": "address"
            },
            {
              "internalType": "string",
              "name": "physician",
              "type": "string"
            },
            {
              "internalType": "string",
              "name": "diagnosis",
              "type": "string"
            },
            {
              "internalType": "string",
              "name": "signsAndSymptoms",
              "type": "string"
            },
            {
              "internalType": "string",
              "name": "treatmentProcedure",
              "type": "string"
            },
            {
              "internalType": "string",
              "name": "tests",
              "type": "string"
            },
            {
              "internalType": "string",
              "name": "medications",
              "type": "string"
            },
            {
              "internalType": "string",
              "name": "admission",
              "type": "string"
            },
            {
              "internalType": "uint256",
              "name": "creationDate",
              "type": "uint256"
            }
          ],
          "internalType": "struct MediVerse.MedicalHistory[]",
          "name": "",
          "type": "tuple[]"
        }
      ],
      "stateMutability": "view",
      "type": "function",
      "constant": true
    },
    {
      "inputs": [
        {
          "internalType": "address",
          "name": "_patientAddr",
          "type": "address"
        }
      ],
      "name": "getGeneralProfile",
      "outputs": [
        {
          "components": [
            {
              "internalType": "address",
              "name": "patientAddr",
              "type": "address"
            },
            {
              "internalType": "address",
              "name": "hospitalAddr",
              "type": "address"
            },
            {
              "internalType": "string",
              "name": "physicalExamination",
              "type": "string"
            },
            {
              "internalType": "string",
              "name": "medicalHistorySummary",
              "type": "string"
            },
            {
              "internalType": "string",
              "name": "maintenanceMedication",
              "type": "string"
            },
            {
              "internalType": "string",
              "name": "allergies",
              "type": "string"
            },
            {
              "internalType": "string",
              "name": "medicalProcedureSummary",
              "type": "string"
            },
            {
              "internalType": "uint256",
              "name": "creationDate",
              "type": "uint256"
            }
          ],
          "internalType": "struct MediVerse.GeneralHealthProfile[]",
          "name": "",
          "type": "tuple[]"
        }
      ],
      "stateMutability": "view",
      "type": "function",
      "constant": true
    },
    {
      "inputs": [
        {
          "internalType": "address",
          "name": "_hospitalAddr",
          "type": "address"
        }
      ],
      "name": "givePermission",
      "outputs": [],
      "stateMutability": "nonpayable",
      "type": "function"
    },
    {
      "inputs": [
        {
          "internalType": "address",
          "name": "_hospitalAddr",
          "type": "address"
        }
      ],
      "name": "revokePermission",
      "outputs": [],
      "stateMutability": "nonpayable",
      "type": "function"
    },
    {
      "inputs": [
        {
          "internalType": "address",
          "name": "_patientAddr",
          "type": "address"
        }
      ],
      "name": "getAuthorizedHospitals",
      "outputs": [
        {
          "internalType": "address[]",
          "name": "",
          "type": "address[]"
        }
      ],
      "stateMutability": "view",
      "type": "function",
      "constant": true
    },
    {
      "inputs": [
        {
          "internalType": "address",
          "name": "_patientAddr",
          "type": "address"
        }
      ],
      "name": "getMedicalHistoryCount",
      "outputs": [
        {
          "internalType": "uint256",
          "name": "",
          "type": "uint256"
        }
      ],
      "stateMutability": "view",
      "type": "function",
      "constant": true
    },
    {
      "inputs": [
        {
          "internalType": "address",
          "name": "_patientAddr",
          "type": "address"
        }
      ],
      "name": "getGeneralProfileCount",
      "outputs": [
        {
          "internalType": "uint256",
          "name": "",
          "type": "uint256"
        }
      ],
      "stateMutability": "view",
      "type": "function",
      "constant": true
    }
  ],
  "bytecode": "0x608060405234801561001057600080fd5b5061439d806100206000396000f3fe608060405234801561001057600080fd5b506004361061010b5760003560e01c8063a30b6ec3116100a2578063b14b203411610071578063b14b2034146102e8578063d31e372914610304578063dc7d632f14610334578063f093cf801461036b578063f74258f91461039e5761010b565b8063a30b6ec314610250578063a3bf5b9a1461026c578063ae114fa214610288578063ae23704b146102b85761010b565b80633d391f70116100de5780633d391f70146101af578063526b44ac146101cb5780635986de61146101e757806372339509146102175761010b565b80630869cfbc14610110578063088bb73b146101475780630bf46d70146101635780632d57f4ed14610193575b600080fd5b61012a600480360381019061012591906131ba565b6103ba565b60405161013e989796959493929190613e31565b60405180910390f35b610161600480360381019061015c91906134e7565b6107ba565b005b61017d600480360381019061017891906131ba565b610945565b60405161018a9190613ded565b60405180910390f35b6101ad60048036038101906101a89190613450565b610dbf565b005b6101c960048036038101906101c491906131ba565b610ee4565b005b6101e560048036038101906101e09190613450565b61109c565b005b61020160048036038101906101fc91906131ba565b611201565b60405161020e9190613e0f565b60405180910390f35b610231600480360381019061022c9190613414565b61179f565b6040516102479a99989796959493929190613c5d565b60405180910390f35b61026a600480360381019061026591906134e7565b611c08565b005b610286600480360381019061028191906131ba565b611dd3565b005b6102a2600480360381019061029d91906131ba565b612151565b6040516102af919061401a565b60405180910390f35b6102d260048036038101906102cd91906131ba565b61219d565b6040516102df919061401a565b60405180910390f35b61030260048036038101906102fd91906131e3565b6121e9565b005b61031e600480360381019061031991906131ba565b6124f5565b60405161032b9190613dcb565b60405180910390f35b61034e60048036038101906103499190613414565b6125c4565b604051610362989796959493929190613d2a565b60405180910390f35b610385600480360381019061038091906131ba565b612911565b6040516103959493929190613ee0565b60405180910390f35b6103b860048036038101906103b391906132ba565b612ad9565b005b60006020528060005260406000206000915090508060000180546103dd90614220565b80601f016020809104026020016040519081016040528092919081815260200182805461040990614220565b80156104565780601f1061042b57610100808354040283529160200191610456565b820191906000526020600020905b81548152906001019060200180831161043957829003601f168201915b50505050509080600101805461046b90614220565b80601f016020809104026020016040519081016040528092919081815260200182805461049790614220565b80156104e45780601f106104b9576101008083540402835291602001916104e4565b820191906000526020600020905b8154815290600101906020018083116104c757829003601f168201915b5050505050908060020180546104f990614220565b80601f016020809104026020016040519081016040528092919081815260200182805461052590614220565b80156105725780601f1061054757610100808354040283529160200191610572565b820191906000526020600020905b81548152906001019060200180831161055557829003601f168201915b50505050509080600301805461058790614220565b80601f01602080910402602001604051908101604052809291908181526020018280546105b390614220565b80156106005780601f106105d557610100808354040283529160200191610600565b820191906000526020600020905b8154815290600101906020018083116105e357829003601f168201915b50505050509080600401805461061590614220565b80601f016020809104026020016040519081016040528092919081815260200182805461064190614220565b801561068e5780601f106106635761010080835404028352916020019161068e565b820191906000526020600020905b81548152906001019060200180831161067157829003601f168201915b5050505050908060050180546106a390614220565b80601f01602080910402602001604051908101604052809291908181526020018280546106cf90614220565b801561071c5780601f106106f15761010080835404028352916020019161071c565b820191906000526020600020905b8154815290600101906020018083116106ff57829003601f168201915b50505050509080600601805461073190614220565b80601f016020809104026020016040519081016040528092919081815260200182805461075d90614220565b80156107aa5780601f1061077f576101008083540402835291602001916107aa565b820191906000526020600020905b81548152906001019060200180831161078d57829003601f168201915b5050505050908060080154905088565b60008060003373ffffffffffffffffffffffffffffffffffffffff1673ffffffffffffffffffffffffffffffffffffffff168152602001908152602001600020600001805461080890614220565b90501161084a576040517f08c379a000000000000000000000000000000000000000000000000000000000815260040161084190613f7a565b60405180910390fd5b60008060003373ffffffffffffffffffffffffffffffffffffffff1673ffffffffffffffffffffffffffffffffffffffff1681526020019081526020016000209050878160000190805190602001906108a4929190612f95565b50868160050190805190602001906108bd929190612f95565b50858160010190805190602001906108d6929190612f95565b50848160020190805190602001906108ef929190612f95565b5083816003019080519060200190610908929190612f95565b5082816004019080519060200190610921929190612f95565b508181600601908051906020019061093a929190612f95565b505050505050505050565b6060816109528133612e41565b610991576040517f08c379a000000000000000000000000000000000000000000000000000000000815260040161098890613f3a565b60405180910390fd5b600360008473ffffffffffffffffffffffffffffffffffffffff1673ffffffffffffffffffffffffffffffffffffffff168152602001908152602001600020805480602002602001604051908101604052809291908181526020016000905b82821015610db35783829060005260206000209060080201604051806101000160405290816000820160009054906101000a900473ffffffffffffffffffffffffffffffffffffffff1673ffffffffffffffffffffffffffffffffffffffff1673ffffffffffffffffffffffffffffffffffffffff1681526020016001820160009054906101000a900473ffffffffffffffffffffffffffffffffffffffff1673ffffffffffffffffffffffffffffffffffffffff1673ffffffffffffffffffffffffffffffffffffffff168152602001600282018054610ad090614220565b80601f0160208091040260200160405190810160405280929190818152602001828054610afc90614220565b8015610b495780601f10610b1e57610100808354040283529160200191610b49565b820191906000526020600020905b815481529060010190602001808311610b2c57829003601f168201915b50505050508152602001600382018054610b6290614220565b80601f0160208091040260200160405190810160405280929190818152602001828054610b8e90614220565b8015610bdb5780601f10610bb057610100808354040283529160200191610bdb565b820191906000526020600020905b815481529060010190602001808311610bbe57829003601f168201915b50505050508152602001600482018054610bf490614220565b80601f0160208091040260200160405190810160405280929190818152602001828054610c2090614220565b8015610c6d5780601f10610c4257610100808354040283529160200191610c6d565b820191906000526020600020905b815481529060010190602001808311610c5057829003601f168201915b50505050508152602001600582018054610c8690614220565b80601f0160208091040260200160405190810160405280929190818152602001828054610cb290614220565b8015610cff5780601f10610cd457610100808354040283529160200191610cff565b820191906000526020600020905b815481529060010190602001808311610ce257829003601f168201915b50505050508152602001600682018054610d1890614220565b80601f0160208091040260200160405190810160405280929190818152602001828054610d4490614220565b8015610d915780601f10610d6657610100808354040283529160200191610d91565b820191906000526020600020905b815481529060010190602001808311610d7457829003601f168201915b50505050508152602001600782015481525050815260200190600101906109f0565b50505050915050919050565b6000600160003373ffffffffffffffffffffffffffffffffffffffff1673ffffffffffffffffffffffffffffffffffffffff1681526020019081526020016000206000018054610e0e90614220565b905011610e50576040517f08c379a0000000000000000000000000000000000000000000000000000000008152600401610e4790613f9a565b60405180910390fd5b6000600160003373ffffffffffffffffffffffffffffffffffffffff1673ffffffffffffffffffffffffffffffffffffffff168152602001908152602001600020905083816000019080519060200190610eab929190612f95565b5082816001019080519060200190610ec4929190612f95565b5081816002019080519060200190610edd929190612f95565b5050505050565b60008060003373ffffffffffffffffffffffffffffffffffffffff1673ffffffffffffffffffffffffffffffffffffffff1681526020019081526020016000206000018054610f3290614220565b905011610f74576040517f08c379a0000000000000000000000000000000000000000000000000000000008152600401610f6b90613f7a565b60405180910390fd5b610f7e3382612e41565b15610fbe576040517f08c379a0000000000000000000000000000000000000000000000000000000008152600401610fb590613ffa565b60405180910390fd5b6000803373ffffffffffffffffffffffffffffffffffffffff1673ffffffffffffffffffffffffffffffffffffffff168152602001908152602001600020600701819080600181540180825580915050600190039060005260206000200160009091909190916101000a81548173ffffffffffffffffffffffffffffffffffffffff021916908373ffffffffffffffffffffffffffffffffffffffff1602179055507f0ceda602a8e00ef76afe24614343eb6c034877c816b6184d641d2d8b713a0fc63382604051611091929190613c34565b60405180910390a150565b6000600160003373ffffffffffffffffffffffffffffffffffffffff1673ffffffffffffffffffffffffffffffffffffffff16815260200190815260200160002060000180546110eb90614220565b90501461112d576040517f08c379a000000000000000000000000000000000000000000000000000000000815260040161112490613fda565b60405180910390fd5b6000600160003373ffffffffffffffffffffffffffffffffffffffff1673ffffffffffffffffffffffffffffffffffffffff168152602001908152602001600020905083816000019080519060200190611188929190612f95565b50828160010190805190602001906111a1929190612f95565b50818160020190805190602001906111ba929190612f95565b504281600301819055507f380355b6fe4f9755ddcef7c5c195edae45bdb34953a41d82386022f3cd5899f0336040516111f39190613c19565b60405180910390a150505050565b60608161120e8133612e41565b61124d576040517f08c379a000000000000000000000000000000000000000000000000000000000815260040161124490613f3a565b60405180910390fd5b600260008473ffffffffffffffffffffffffffffffffffffffff1673ffffffffffffffffffffffffffffffffffffffff168152602001908152602001600020805480602002602001604051908101604052809291908181526020016000905b8282101561179357838290600052602060002090600a0201604051806101400160405290816000820160009054906101000a900473ffffffffffffffffffffffffffffffffffffffff1673ffffffffffffffffffffffffffffffffffffffff1673ffffffffffffffffffffffffffffffffffffffff1681526020016001820160009054906101000a900473ffffffffffffffffffffffffffffffffffffffff1673ffffffffffffffffffffffffffffffffffffffff1673ffffffffffffffffffffffffffffffffffffffff16815260200160028201805461138c90614220565b80601f01602080910402602001604051908101604052809291908181526020018280546113b890614220565b80156114055780601f106113da57610100808354040283529160200191611405565b820191906000526020600020905b8154815290600101906020018083116113e857829003601f168201915b5050505050815260200160038201805461141e90614220565b80601f016020809104026020016040519081016040528092919081815260200182805461144a90614220565b80156114975780601f1061146c57610100808354040283529160200191611497565b820191906000526020600020905b81548152906001019060200180831161147a57829003601f168201915b505050505081526020016004820180546114b090614220565b80601f01602080910402602001604051908101604052809291908181526020018280546114dc90614220565b80156115295780601f106114fe57610100808354040283529160200191611529565b820191906000526020600020905b81548152906001019060200180831161150c57829003601f168201915b5050505050815260200160058201805461154290614220565b80601f016020809104026020016040519081016040528092919081815260200182805461156e90614220565b80156115bb5780601f10611590576101008083540402835291602001916115bb565b820191906000526020600020905b81548152906001019060200180831161159e57829003601f168201915b505050505081526020016006820180546115d490614220565b80601f016020809104026020016040519081016040528092919081815260200182805461160090614220565b801561164d5780601f106116225761010080835404028352916020019161164d565b820191906000526020600020905b81548152906001019060200180831161163057829003601f168201915b5050505050815260200160078201805461166690614220565b80601f016020809104026020016040519081016040528092919081815260200182805461169290614220565b80156116df5780601f106116b4576101008083540402835291602001916116df565b820191906000526020600020905b8154815290600101906020018083116116c257829003601f168201915b505050505081526020016008820180546116f890614220565b80601f016020809104026020016040519081016040528092919081815260200182805461172490614220565b80156117715780601f1061174657610100808354040283529160200191611771565b820191906000526020600020905b81548152906001019060200180831161175457829003601f168201915b50505050508152602001600982015481525050815260200190600101906112ac565b50505050915050919050565b600260205281600052604060002081815481106117bb57600080fd5b90600052602060002090600a0201600091509150508060000160009054906101000a900473ffffffffffffffffffffffffffffffffffffffff16908060010160009054906101000a900473ffffffffffffffffffffffffffffffffffffffff169080600201805461182b90614220565b80601f016020809104026020016040519081016040528092919081815260200182805461185790614220565b80156118a45780601f10611879576101008083540402835291602001916118a4565b820191906000526020600020905b81548152906001019060200180831161188757829003601f168201915b5050505050908060030180546118b990614220565b80601f01602080910402602001604051908101604052809291908181526020018280546118e590614220565b80156119325780601f1061190757610100808354040283529160200191611932565b820191906000526020600020905b81548152906001019060200180831161191557829003601f168201915b50505050509080600401805461194790614220565b80601f016020809104026020016040519081016040528092919081815260200182805461197390614220565b80156119c05780601f10611995576101008083540402835291602001916119c0565b820191906000526020600020905b8154815290600101906020018083116119a357829003601f168201915b5050505050908060050180546119d590614220565b80601f0160208091040260200160405190810160405280929190818152602001828054611a0190614220565b8015611a4e5780601f10611a2357610100808354040283529160200191611a4e565b820191906000526020600020905b815481529060010190602001808311611a3157829003601f168201915b505050505090806006018054611a6390614220565b80601f0160208091040260200160405190810160405280929190818152602001828054611a8f90614220565b8015611adc5780601f10611ab157610100808354040283529160200191611adc565b820191906000526020600020905b815481529060010190602001808311611abf57829003601f168201915b505050505090806007018054611af190614220565b80601f0160208091040260200160405190810160405280929190818152602001828054611b1d90614220565b8015611b6a5780601f10611b3f57610100808354040283529160200191611b6a565b820191906000526020600020905b815481529060010190602001808311611b4d57829003601f168201915b505050505090806008018054611b7f90614220565b80601f0160208091040260200160405190810160405280929190818152602001828054611bab90614220565b8015611bf85780601f10611bcd57610100808354040283529160200191611bf8565b820191906000526020600020905b815481529060010190602001808311611bdb57829003601f168201915b505050505090806009015490508a565b60008060003373ffffffffffffffffffffffffffffffffffffffff1673ffffffffffffffffffffffffffffffffffffffff1681526020019081526020016000206000018054611c5690614220565b905014611c98576040517f08c379a0000000000000000000000000000000000000000000000000000000008152600401611c8f90613f5a565b60405180910390fd5b60008060003373ffffffffffffffffffffffffffffffffffffffff1673ffffffffffffffffffffffffffffffffffffffff168152602001908152602001600020905087816000019080519060200190611cf2929190612f95565b5086816005019080519060200190611d0b929190612f95565b5085816001019080519060200190611d24929190612f95565b5084816002019080519060200190611d3d929190612f95565b5083816003019080519060200190611d56929190612f95565b5082816004019080519060200190611d6f929190612f95565b5081816006019080519060200190611d88929190612f95565b504281600801819055507fc9fa2003fca4ce0dfc8cb0deae32266b715536df6685365b05b5be96ede8e49c33604051611dc19190613c19565b60405180910390a15050505050505050565b60008060003373ffffffffffffffffffffffffffffffffffffffff1673ffffffffffffffffffffffffffffffffffffffff1681526020019081526020016000206000018054611e2190614220565b905011611e63576040517f08c379a0000000000000000000000000000000000000000000000000000000008152600401611e5a90613f7a565b60405180910390fd5b611e6d3382612e41565b611eac576040517f08c379a0000000000000000000000000000000000000000000000000000000008152600401611ea390613fba565b60405180910390fd5b60008060003373ffffffffffffffffffffffffffffffffffffffff1673ffffffffffffffffffffffffffffffffffffffff168152602001908152602001600020600701905060005b818054905081101561214b578273ffffffffffffffffffffffffffffffffffffffff16828281548110611f50577f4e487b7100000000000000000000000000000000000000000000000000000000600052603260045260246000fd5b9060005260206000200160009054906101000a900473ffffffffffffffffffffffffffffffffffffffff1673ffffffffffffffffffffffffffffffffffffffff161415612138578160018380549050611fa9919061416e565b81548110611fe0577f4e487b7100000000000000000000000000000000000000000000000000000000600052603260045260246000fd5b9060005260206000200160009054906101000a900473ffffffffffffffffffffffffffffffffffffffff16828281548110612044577f4e487b7100000000000000000000000000000000000000000000000000000000600052603260045260246000fd5b9060005260206000200160006101000a81548173ffffffffffffffffffffffffffffffffffffffff021916908373ffffffffffffffffffffffffffffffffffffffff160217905550818054806120c3577f4e487b7100000000000000000000000000000000000000000000000000000000600052603160045260246000fd5b6001900381819060005260206000200160006101000a81549073ffffffffffffffffffffffffffffffffffffffff021916905590557f5f708ef9fc37d19d88246c264788c8cdf640c9ff500bd168e941ea1421c4f6c43384604051612129929190613c34565b60405180910390a1505061214e565b808061214390614252565b915050611ef4565b50505b50565b6000600260008373ffffffffffffffffffffffffffffffffffffffff1673ffffffffffffffffffffffffffffffffffffffff168152602001908152602001600020805490509050919050565b6000600260008373ffffffffffffffffffffffffffffffffffffffff1673ffffffffffffffffffffffffffffffffffffffff168152602001908152602001600020805490509050919050565b6000600160003373ffffffffffffffffffffffffffffffffffffffff1673ffffffffffffffffffffffffffffffffffffffff168152602001908152602001600020600001805461223890614220565b90501161227a576040517f08c379a000000000000000000000000000000000000000000000000000000000815260040161227190613f9a565b60405180910390fd5b61228261301b565b85816000019073ffffffffffffffffffffffffffffffffffffffff16908173ffffffffffffffffffffffffffffffffffffffff168152505033816020019073ffffffffffffffffffffffffffffffffffffffff16908173ffffffffffffffffffffffffffffffffffffffff1681525050848160600181905250838160800181905250828160a00181905250818160c00181905250428160e0018181525050600360008773ffffffffffffffffffffffffffffffffffffffff1673ffffffffffffffffffffffffffffffffffffffff16815260200190815260200160002081908060018154018082558091505060019003906000526020600020906008020160009091909190915060008201518160000160006101000a81548173ffffffffffffffffffffffffffffffffffffffff021916908373ffffffffffffffffffffffffffffffffffffffff16021790555060208201518160010160006101000a81548173ffffffffffffffffffffffffffffffffffffffff021916908373ffffffffffffffffffffffffffffffffffffffff1602179055506040820151816002019080519060200190612433929190612f95565b506060820151816003019080519060200190612450929190612f95565b50608082015181600401908051906020019061246d929190612f95565b5060a082015181600501908051906020019061248a929190612f95565b5060c08201518160060190805190602001906124a7929190612f95565b5060e0820151816007015550507f626e2abf9092b58c88dd0cb54fff4cc3af1619847ab306cc362286b9d46bef2986336040516124e5929190613c34565b60405180910390a1505050505050565b60606000808373ffffffffffffffffffffffffffffffffffffffff1673ffffffffffffffffffffffffffffffffffffffff1681526020019081526020016000206007018054806020026020016040519081016040528092919081815260200182805480156125b857602002820191906000526020600020905b8160009054906101000a900473ffffffffffffffffffffffffffffffffffffffff1673ffffffffffffffffffffffffffffffffffffffff168152602001906001019080831161256e575b50505050509050919050565b600360205281600052604060002081815481106125e057600080fd5b9060005260206000209060080201600091509150508060000160009054906101000a900473ffffffffffffffffffffffffffffffffffffffff16908060010160009054906101000a900473ffffffffffffffffffffffffffffffffffffffff169080600201805461265090614220565b80601f016020809104026020016040519081016040528092919081815260200182805461267c90614220565b80156126c95780601f1061269e576101008083540402835291602001916126c9565b820191906000526020600020905b8154815290600101906020018083116126ac57829003601f168201915b5050505050908060030180546126de90614220565b80601f016020809104026020016040519081016040528092919081815260200182805461270a90614220565b80156127575780601f1061272c57610100808354040283529160200191612757565b820191906000526020600020905b81548152906001019060200180831161273a57829003601f168201915b50505050509080600401805461276c90614220565b80601f016020809104026020016040519081016040528092919081815260200182805461279890614220565b80156127e55780601f106127ba576101008083540402835291602001916127e5565b820191906000526020600020905b8154815290600101906020018083116127c857829003601f168201915b5050505050908060050180546127fa90614220565b80601f016020809104026020016040519081016040528092919081815260200182805461282690614220565b80156128735780601f1061284857610100808354040283529160200191612873565b820191906000526020600020905b81548152906001019060200180831161285657829003601f168201915b50505050509080600601805461288890614220565b80601f01602080910402602001604051908101604052809291908181526020018280546128b490614220565b80156129015780601f106128d657610100808354040283529160200191612901565b820191906000526020600020905b8154815290600101906020018083116128e457829003601f168201915b5050505050908060070154905088565b600160205280600052604060002060009150905080600001805461293490614220565b80601f016020809104026020016040519081016040528092919081815260200182805461296090614220565b80156129ad5780601f10612982576101008083540402835291602001916129ad565b820191906000526020600020905b81548152906001019060200180831161299057829003601f168201915b5050505050908060010180546129c290614220565b80601f01602080910402602001604051908101604052809291908181526020018280546129ee90614220565b8015612a3b5780601f10612a1057610100808354040283529160200191612a3b565b820191906000526020600020905b815481529060010190602001808311612a1e57829003601f168201915b505050505090806002018054612a5090614220565b80601f0160208091040260200160405190810160405280929190818152602001828054612a7c90614220565b8015612ac95780601f10612a9e57610100808354040283529160200191612ac9565b820191906000526020600020905b815481529060010190602001808311612aac57829003601f168201915b5050505050908060030154905084565b6000600160003373ffffffffffffffffffffffffffffffffffffffff1673ffffffffffffffffffffffffffffffffffffffff1681526020019081526020016000206000018054612b2890614220565b905011612b6a576040517f08c379a0000000000000000000000000000000000000000000000000000000008152600401612b6190613f9a565b60405180910390fd5b612b7261308c565b88816000019073ffffffffffffffffffffffffffffffffffffffff16908173ffffffffffffffffffffffffffffffffffffffff168152505033816020019073ffffffffffffffffffffffffffffffffffffffff16908173ffffffffffffffffffffffffffffffffffffffff1681525050878160400181905250868160600181905250858160800181905250848160a00181905250838160c00181905250828160e00181905250818161010001819052504281610120018181525050600260008a73ffffffffffffffffffffffffffffffffffffffff1673ffffffffffffffffffffffffffffffffffffffff1681526020019081526020016000208190806001815401808255809150506001900390600052602060002090600a020160009091909190915060008201518160000160006101000a81548173ffffffffffffffffffffffffffffffffffffffff021916908373ffffffffffffffffffffffffffffffffffffffff16021790555060208201518160010160006101000a81548173ffffffffffffffffffffffffffffffffffffffff021916908373ffffffffffffffffffffffffffffffffffffffff1602179055506040820151816002019080519060200190612d40929190612f95565b506060820151816003019080519060200190612d5d929190612f95565b506080820151816004019080519060200190612d7a929190612f95565b5060a0820151816005019080519060200190612d97929190612f95565b5060c0820151816006019080519060200190612db4929190612f95565b5060e0820151816007019080519060200190612dd1929190612f95565b50610100820151816008019080519060200190612def929190612f95565b50610120820151816009015550507fc7151deb4da24eab96e6b6ebf3dd8737aa991256fe726afc42b62e652564bef08933604051612e2e929190613c34565b60405180910390a1505050505050505050565b600080600090505b6000808573ffffffffffffffffffffffffffffffffffffffff1673ffffffffffffffffffffffffffffffffffffffff16815260200190815260200160002060070180549050811015612f89578273ffffffffffffffffffffffffffffffffffffffff166000808673ffffffffffffffffffffffffffffffffffffffff1673ffffffffffffffffffffffffffffffffffffffff1681526020019081526020016000206007018281548110612f25577f4e487b7100000000000000000000000000000000000000000000000000000000600052603260045260246000fd5b9060005260206000200160009054906101000a900473ffffffffffffffffffffffffffffffffffffffff1673ffffffffffffffffffffffffffffffffffffffff161415612f76576001915050612f8f565b8080612f8190614252565b915050612e49565b50600090505b92915050565b828054612fa190614220565b90600052602060002090601f016020900481019282612fc3576000855561300a565b82601f10612fdc57805160ff191683800117855561300a565b8280016001018555821561300a579182015b82811115613009578251825591602001919060010190612fee565b5b509050613017919061310b565b5090565b604051806101000160405280600073ffffffffffffffffffffffffffffffffffffffff168152602001600073ffffffffffffffffffffffffffffffffffffffff1681526020016060815260200160608152602001606081526020016060815260200160608152602001600081525090565b604051806101400160405280600073ffffffffffffffffffffffffffffffffffffffff168152602001600073ffffffffffffffffffffffffffffffffffffffff16815260200160608152602001606081526020016060815260200160608152602001606081526020016060815260200160608152602001600081525090565b5b8082111561312457600081600090555060010161310c565b5090565b600061313b61313684614066565b614035565b90508281526020810184848401111561315357600080fd5b61315e8482856141de565b509392505050565b60008135905061317581614339565b92915050565b600082601f83011261318c57600080fd5b813561319c848260208601613128565b91505092915050565b6000813590506131b481614350565b92915050565b6000602082840312156131cc57600080fd5b60006131da84828501613166565b91505092915050565b600080600080600060a086880312156131fb57600080fd5b600061320988828901613166565b955050602086013567ffffffffffffffff81111561322657600080fd5b6132328882890161317b565b945050604086013567ffffffffffffffff81111561324f57600080fd5b61325b8882890161317b565b935050606086013567ffffffffffffffff81111561327857600080fd5b6132848882890161317b565b925050608086013567ffffffffffffffff8111156132a157600080fd5b6132ad8882890161317b565b9150509295509295909350565b600080600080600080600080610100898b0312156132d757600080fd5b60006132e58b828c01613166565b985050602089013567ffffffffffffffff81111561330257600080fd5b61330e8b828c0161317b565b975050604089013567ffffffffffffffff81111561332b57600080fd5b6133378b828c0161317b565b965050606089013567ffffffffffffffff81111561335457600080fd5b6133608b828c0161317b565b955050608089013567ffffffffffffffff81111561337d57600080fd5b6133898b828c0161317b565b94505060a089013567ffffffffffffffff8111156133a657600080fd5b6133b28b828c0161317b565b93505060c089013567ffffffffffffffff8111156133cf57600080fd5b6133db8b828c0161317b565b92505060e089013567ffffffffffffffff8111156133f857600080fd5b6134048b828c0161317b565b9150509295985092959890939650565b6000806040838503121561342757600080fd5b600061343585828601613166565b9250506020613446858286016131a5565b9150509250929050565b60008060006060848603121561346557600080fd5b600084013567ffffffffffffffff81111561347f57600080fd5b61348b8682870161317b565b935050602084013567ffffffffffffffff8111156134a857600080fd5b6134b48682870161317b565b925050604084013567ffffffffffffffff8111156134d157600080fd5b6134dd8682870161317b565b9150509250925092565b600080600080600080600060e0888a03121561350257600080fd5b600088013567ffffffffffffffff81111561351c57600080fd5b6135288a828b0161317b565b975050602088013567ffffffffffffffff81111561354557600080fd5b6135518a828b0161317b565b965050604088013567ffffffffffffffff81111561356e57600080fd5b61357a8a828b0161317b565b955050606088013567ffffffffffffffff81111561359757600080fd5b6135a38a828b0161317b565b945050608088013567ffffffffffffffff8111156135c057600080fd5b6135cc8a828b0161317b565b93505060a088013567ffffffffffffffff8111156135e957600080fd5b6135f58a828b0161317b565b92505060c088013567ffffffffffffffff81111561361257600080fd5b61361e8a828b0161317b565b91505092959891949750929550565b6000613639838361366d565b60208301905092915050565b60006136518383613a2b565b905092915050565b60006136658383613af7565b905092915050565b613676816141a2565b82525050565b613685816141a2565b82525050565b6000613696826140c6565b6136a08185614119565b93506136ab83614096565b8060005b838110156136dc5781516136c3888261362d565b97506136ce836140f2565b9250506001810190506136af565b5085935050505092915050565b60006136f4826140d1565b6136fe818561412a565b935083602082028501613710856140a6565b8060005b8581101561374c578484038952815161372d8582613645565b9450613738836140ff565b925060208a01995050600181019050613714565b50829750879550505050505092915050565b6000613769826140dc565b613773818561413b565b935083602082028501613785856140b6565b8060005b858110156137c157848403895281516137a28582613659565b94506137ad8361410c565b925060208a01995050600181019050613789565b50829750879550505050505092915050565b60006137de826140e7565b6137e8818561414c565b93506137f88185602086016141ed565b61380181614328565b840191505092915050565b6000613817826140e7565b613821818561415d565b93506138318185602086016141ed565b61383a81614328565b840191505092915050565b600061385260318361415d565b91507f486f73706974616c206e6f7420617574686f72697a656420746f20616363657360008301527f732070617469656e74207265636f7264730000000000000000000000000000006020830152604082019050919050565b60006138b8601a8361415d565b91507f50617469656e7420616c726561647920726567697374657265640000000000006000830152602082019050919050565b60006138f860168361415d565b91507f50617469656e74206e6f742072656769737465726564000000000000000000006000830152602082019050919050565b600061393860178361415d565b91507f486f73706974616c206e6f7420726567697374657265640000000000000000006000830152602082019050919050565b600061397860178361415d565b91507f486f73706974616c206e6f7420617574686f72697a65640000000000000000006000830152602082019050919050565b60006139b8601b8361415d565b91507f486f73706974616c20616c7265616479207265676973746572656400000000006000830152602082019050919050565b60006139f8601b8361415d565b91507f486f73706974616c20616c726561647920617574686f72697a656400000000006000830152602082019050919050565b600061010083016000830151613a44600086018261366d565b506020830151613a57602086018261366d565b5060408301518482036040860152613a6f82826137d3565b91505060608301518482036060860152613a8982826137d3565b91505060808301518482036080860152613aa382826137d3565b91505060a083015184820360a0860152613abd82826137d3565b91505060c083015184820360c0860152613ad782826137d3565b91505060e0830151613aec60e0860182613bfb565b508091505092915050565b600061014083016000830151613b10600086018261366d565b506020830151613b23602086018261366d565b5060408301518482036040860152613b3b82826137d3565b91505060608301518482036060860152613b5582826137d3565b91505060808301518482036080860152613b6f82826137d3565b91505060a083015184820360a0860152613b8982826137d3565b91505060c083015184820360c0860152613ba382826137d3565b91505060e083015184820360e0860152613bbd82826137d3565b915050610100830151848203610100860152613bd982826137d3565b915050610120830151613bf0610120860182613bfb565b508091505092915050565b613c04816141d4565b82525050565b613c13816141d4565b82525050565b6000602082019050613c2e600083018461367c565b92915050565b6000604082019050613c49600083018561367c565b613c56602083018461367c565b9392505050565b600061014082019050613c73600083018d61367c565b613c80602083018c61367c565b8181036040830152613c92818b61380c565b90508181036060830152613ca6818a61380c565b90508181036080830152613cba818961380c565b905081810360a0830152613cce818861380c565b905081810360c0830152613ce2818761380c565b905081810360e0830152613cf6818661380c565b9050818103610100830152613d0b818561380c565b9050613d1b610120830184613c0a565b9b9a5050505050505050505050565b600061010082019050613d40600083018b61367c565b613d4d602083018a61367c565b8181036040830152613d5f818961380c565b90508181036060830152613d73818861380c565b90508181036080830152613d87818761380c565b905081810360a0830152613d9b818661380c565b905081810360c0830152613daf818561380c565b9050613dbe60e0830184613c0a565b9998505050505050505050565b60006020820190508181036000830152613de5818461368b565b905092915050565b60006020820190508181036000830152613e0781846136e9565b905092915050565b60006020820190508181036000830152613e29818461375e565b905092915050565b6000610100820190508181036000830152613e4c818b61380c565b90508181036020830152613e60818a61380c565b90508181036040830152613e74818961380c565b90508181036060830152613e88818861380c565b90508181036080830152613e9c818761380c565b905081810360a0830152613eb0818661380c565b905081810360c0830152613ec4818561380c565b9050613ed360e0830184613c0a565b9998505050505050505050565b60006080820190508181036000830152613efa818761380c565b90508181036020830152613f0e818661380c565b90508181036040830152613f22818561380c565b9050613f316060830184613c0a565b95945050505050565b60006020820190508181036000830152613f5381613845565b9050919050565b60006020820190508181036000830152613f73816138ab565b9050919050565b60006020820190508181036000830152613f93816138eb565b9050919050565b60006020820190508181036000830152613fb38161392b565b9050919050565b60006020820190508181036000830152613fd38161396b565b9050919050565b60006020820190508181036000830152613ff3816139ab565b9050919050565b60006020820190508181036000830152614013816139eb565b9050919050565b600060208201905061402f6000830184613c0a565b92915050565b6000604051905081810181811067ffffffffffffffff8211171561405c5761405b6142f9565b5b8060405250919050565b600067ffffffffffffffff821115614081576140806142f9565b5b601f19601f8301169050602081019050919050565b6000819050602082019050919050565b6000819050602082019050919050565b6000819050602082019050919050565b600081519050919050565b600081519050919050565b600081519050919050565b600081519050919050565b6000602082019050919050565b6000602082019050919050565b6000602082019050919050565b600082825260208201905092915050565b600082825260208201905092915050565b600082825260208201905092915050565b600082825260208201905092915050565b600082825260208201905092915050565b6000614179826141d4565b9150614184836141d4565b9250828210156141975761419661429b565b5b828203905092915050565b60006141ad826141b4565b9050919050565b600073ffffffffffffffffffffffffffffffffffffffff82169050919050565b6000819050919050565b82818337600083830152505050565b60005b8381101561420b5780820151818401526020810190506141f0565b8381111561421a576000848401525b50505050565b6000600282049050600182168061423857607f821691505b6020821081141561424c5761424b6142ca565b5b50919050565b600061425d826141d4565b91507fffffffffffffffffffffffffffffffffffffffffffffffffffffffffffffffff8214156142905761428f61429b565b5b600182019050919050565b7f4e487b7100000000000000000000000000000000000000000000000000000000600052601160045260246000fd5b7f4e487b7100000000000000000000000000000000000000000000000000000000600052602260045260246000fd5b7f4e487b7100000000000000000000000000000000000000000000000000000000600052604160045260246000fd5b6000601f19601f8301169050919050565b614342816141a2565b811461434d57600080fd5b50565b614359816141d4565b811461436457600080fd5b5056fea2646970667358221220dbc549ed7e82408f4f1dbcbfe36c2d28b38856b33def883ca4d0ddef2e4dcccd64736f6c63430008000033",
  "immutableReferences": {},
  "source": "// SPDX-License-Identifier: MIT\r\npragma solidity ^0.8.0;\r\n\r\n//Note kapag ginawa na ang backend. If halo halong characters ang isa-save, dapat may \" \"\r\n//bago ilagay sa function ng smart contract\r\n\r\ncontract MediVerse {\r\n    \r\n    struct Patient {\r\n        string name;\r\n        string gender;\r\n        string dateOfBirth;\r\n        string height;\r\n        string weight;\r\n        string contactNum;\r\n        string addr;\r\n        address[] authorizedHospitals;\r\n        uint registrationDate;\r\n    }\r\n\r\n    struct Hospital {\r\n        string name;\r\n        string contactNum;\r\n        string addr;\r\n        uint registrationDate;\r\n    }\r\n\r\n    struct MedicalHistory {\r\n        address patientAddr;\r\n        address hospitalAddr;\r\n        string physician;\r\n        string diagnosis;\r\n        string signsAndSymptoms;\r\n        string treatmentProcedure;\r\n        string tests;\r\n        string medications;\r\n        string admission;\r\n        uint creationDate;\r\n    }\r\n\r\n    struct GeneralHealthProfile {\r\n        address patientAddr;\r\n        address hospitalAddr;\r\n        string physicalExamination;\r\n        string medicalHistorySummary;\r\n        string maintenanceMedication;\r\n        string allergies;\r\n        string medicalProcedureSummary;\r\n        uint creationDate;\r\n    }\r\n\r\n    mapping(address => Patient) public patients;\r\n    mapping(address => Hospital) public hospitals;\r\n    mapping(address => MedicalHistory[]) public medicalHistories;\r\n    mapping(address => GeneralHealthProfile[]) public generalHealthProfiles;\r\n\r\n    event PatientRegistered(address patientAddr);\r\n    event HospitalRegistered(address hospitalAddr);\r\n    event MedicalHistoryAdded(address patientAddr, address hospitalAddr);\r\n    event GeneralHealthProfileAdded(address patientAddr, address hospitalAddr);\r\n    event PermissionGranted(address patientAddr, address hospitalAddr);\r\n    event PermissionRevoked(address patientAddr, address hospitalAddr);\r\n\r\n    modifier onlyPatient() {\r\n        require(bytes(patients[msg.sender].name).length > 0, \"Patient not registered\");\r\n        _;\r\n    }\r\n\r\n    modifier onlyHospital() {\r\n        require(bytes(hospitals[msg.sender].name).length > 0, \"Hospital not registered\");\r\n        _;\r\n    }\r\n\r\n    modifier isAuthorized(address _patientAddr) {\r\n        require(\r\n            isHospitalAuthorized(_patientAddr, msg.sender),\r\n            \"Hospital not authorized to access patient records\"\r\n        );\r\n        _;\r\n    }\r\n\r\n    function isHospitalAuthorized(address _patientAddr, address _hospitalAddr) internal view returns (bool) {\r\n        for (uint i = 0; i < patients[_patientAddr].authorizedHospitals.length; i++) {\r\n            if (patients[_patientAddr].authorizedHospitals[i] == _hospitalAddr) {\r\n                return true;\r\n            }\r\n        }\r\n        return false;\r\n    }\r\n\r\n    function registerPatient(\r\n        string memory _name,\r\n        string memory _contactNum,\r\n        string memory _gender,\r\n        string memory _dateOfBirth,\r\n        string memory _height,\r\n        string memory _weight,\r\n        string memory _address\r\n    ) public {\r\n        require(bytes(patients[msg.sender].name).length == 0, \"Patient already registered\");\r\n\r\n        Patient storage patient = patients[msg.sender];\r\n        patient.name = _name;\r\n        patient.contactNum = _contactNum;\r\n        patient.gender = _gender;\r\n        patient.dateOfBirth = _dateOfBirth;\r\n        patient.height = _height;\r\n        patient.weight = _weight;\r\n        patient.addr = _address;\r\n\r\n        patient.registrationDate = block.timestamp;\r\n\r\n        emit PatientRegistered(msg.sender);\r\n    }\r\n\r\n    function editPatientDetails(\r\n        string memory _name,\r\n        string memory _contactNum,\r\n        string memory _gender,\r\n        string memory _dateOfBirth,\r\n        string memory _height,\r\n        string memory _weight,\r\n        string memory _address\r\n    ) public onlyPatient {\r\n        Patient storage patient = patients[msg.sender];\r\n        patient.name = _name;\r\n        patient.contactNum = _contactNum;\r\n        patient.gender = _gender;\r\n        patient.dateOfBirth = _dateOfBirth;\r\n        patient.height = _height;\r\n        patient.weight = _weight;\r\n        patient.addr = _address;\r\n    }\r\n\r\n    function registerHospital(\r\n        string memory _name,\r\n        string memory _contactNum,\r\n        string memory _address\r\n    ) public {\r\n        require(bytes(hospitals[msg.sender].name).length == 0, \"Hospital already registered\");\r\n\r\n        Hospital storage hospital = hospitals[msg.sender];\r\n        hospital.name = _name;\r\n        hospital.contactNum = _contactNum;\r\n        hospital.addr = _address;\r\n        hospital.registrationDate = block.timestamp;\r\n\r\n        emit HospitalRegistered(msg.sender);\r\n    }\r\n\r\n    function editHospitalDetails(\r\n        string memory _name,\r\n        string memory _contactNum,\r\n        string memory _addr\r\n    ) public onlyHospital {\r\n        Hospital storage hospital = hospitals[msg.sender];\r\n        hospital.name = _name;\r\n        hospital.contactNum = _contactNum;\r\n        hospital.addr = _addr;\r\n    }\r\n\r\n    function addMedicalHistory(\r\n        address _patientAddr,\r\n        string memory _physician,\r\n        string memory _diagnosis,\r\n        string memory _signsAndSymptoms,\r\n        string memory _treatmentProcedure,\r\n        string memory _tests,\r\n        string memory _medications,\r\n        string memory _admission\r\n    ) public onlyHospital {\r\n        MedicalHistory memory history;\r\n        history.patientAddr = _patientAddr;\r\n        history.hospitalAddr = msg.sender;\r\n        history.physician = _physician;\r\n        history.diagnosis = _diagnosis;\r\n        history.signsAndSymptoms = _signsAndSymptoms;\r\n        history.treatmentProcedure = _treatmentProcedure;\r\n        history.tests = _tests;\r\n        history.medications = _medications;\r\n        history.admission = _admission;\r\n        history.creationDate = block.timestamp;\r\n\r\n        medicalHistories[_patientAddr].push(history);\r\n\r\n        emit MedicalHistoryAdded(_patientAddr, msg.sender);\r\n    }\r\n\r\n    function addGeneralHealthProfile(\r\n        address _patientAddr,\r\n        string memory _medicalHistorySummary,\r\n        string memory _maintenanceMedication,\r\n        string memory _allergies,\r\n        string memory _medicalProcedureSummary\r\n    ) public onlyHospital {\r\n        GeneralHealthProfile memory profile;\r\n        profile.patientAddr = _patientAddr;\r\n        profile.hospitalAddr = msg.sender;\r\n        profile.medicalHistorySummary = _medicalHistorySummary;\r\n        profile.maintenanceMedication = _maintenanceMedication;\r\n        profile.allergies = _allergies;\r\n        profile.medicalProcedureSummary = _medicalProcedureSummary;\r\n        profile.creationDate = block.timestamp;\r\n\r\n        generalHealthProfiles[_patientAddr].push(profile);\r\n        emit GeneralHealthProfileAdded(_patientAddr, msg.sender);\r\n    }\r\n\r\n    /** FUNCTION THAT WILL RETRIEVE PATIENTS MEDICAL RECORD AND PROFILE **/\r\n    function getMedicalHistory(address _patientAddr) public view isAuthorized(_patientAddr) returns (MedicalHistory[] memory) {\r\n        return medicalHistories[_patientAddr];\r\n    }\r\n\r\n    function getGeneralProfile(address _patientAddr) public view isAuthorized(_patientAddr) returns (GeneralHealthProfile[] memory) {\r\n        return generalHealthProfiles[_patientAddr];\r\n    }\r\n\r\n    function givePermission(address _hospitalAddr) public onlyPatient {\r\n        require(!isHospitalAuthorized(msg.sender, _hospitalAddr), \"Hospital already authorized\");\r\n\r\n        patients[msg.sender].authorizedHospitals.push(_hospitalAddr);\r\n        emit PermissionGranted(msg.sender, _hospitalAddr);\r\n    }\r\n\r\n    function revokePermission(address _hospitalAddr) public onlyPatient {\r\n        require(isHospitalAuthorized(msg.sender, _hospitalAddr), \"Hospital not authorized\");\r\n\r\n        address[] storage authorizedHospitals = patients[msg.sender].authorizedHospitals;\r\n        for (uint i = 0; i < authorizedHospitals.length; i++) {\r\n            if (authorizedHospitals[i] == _hospitalAddr) {\r\n                authorizedHospitals[i] = authorizedHospitals[authorizedHospitals.length - 1];\r\n                authorizedHospitals.pop();\r\n                emit PermissionRevoked(msg.sender, _hospitalAddr);\r\n                return;\r\n            }\r\n        }\r\n    }\r\n    /** FUNCTION THAT WILL GET THE LIST OF AUTHORIZED HOSPITALS TO VIEW PATIENTS MEDICAL RECORDS **/\r\n    function getAuthorizedHospitals(address _patientAddr) public view returns (address[] memory) {\r\n        return patients[_patientAddr].authorizedHospitals;\r\n    }\r\n\r\n     function getMedicalHistoryCount(address _patientAddr) public view returns (uint256) {\r\n        return medicalHistories[_patientAddr].length;\r\n    }\r\n\r\n    function getGeneralProfileCount(address _patientAddr) public view returns (uint256) {\r\n        return medicalHistories[_patientAddr].length;\r\n    }\r\n}\r\n",
  "sourcePath": "C:\\Users\\Abby\\Desktop\\APPCON 2023\\MediVerse-Web3-Dapp\\contracts\\MediVerse.sol",
  "compiler": {
    "name": "solc",
    "version": "0.8.0+commit.c7dfd78e.Emscripten.clang"
  },
  "schemaVersion": "3.4.16",
  "updatedAt": "2024-03-03T05:01:45.739Z",
  "networkType": "ethereum",
  "devdoc": {
    "kind": "dev",
    "methods": {},
    "version": 1
  },
  "userdoc": {
    "kind": "user",
    "methods": {
      "getAuthorizedHospitals(address)": {
        "notice": "FUNCTION THAT WILL GET THE LIST OF AUTHORIZED HOSPITALS TO VIEW PATIENTS MEDICAL RECORDS *"
      },
      "getMedicalHistory(address)": {
        "notice": "FUNCTION THAT WILL RETRIEVE PATIENTS MEDICAL RECORD AND PROFILE *"
      }
    },
    "version": 1
  }
}