{
  "contractName": "MedicalHistoryRecords",
  "abi": [
    {
      "anonymous": false,
      "inputs": [
        {
          "indexed": false,
          "internalType": "string",
          "name": "recordID",
          "type": "string"
        },
        {
          "indexed": false,
          "internalType": "string",
          "name": "patientID",
          "type": "string"
        }
      ],
      "name": "MedicalHistoryRecordAdded",
      "type": "event"
    },
    {
      "anonymous": false,
      "inputs": [
        {
          "indexed": false,
          "internalType": "string",
          "name": "recordID",
          "type": "string"
        },
        {
          "indexed": false,
          "internalType": "string",
          "name": "patientID",
          "type": "string"
        }
      ],
      "name": "MedicalHistoryRecordEdited",
      "type": "event"
    },
    {
      "inputs": [
        {
          "internalType": "string",
          "name": "",
          "type": "string"
        }
      ],
      "name": "historyRecords",
      "outputs": [
        {
          "internalType": "address",
          "name": "hospitalAddr",
          "type": "address"
        },
        {
          "internalType": "string",
          "name": "patientID",
          "type": "string"
        },
        {
          "internalType": "string",
          "name": "recordID",
          "type": "string"
        },
        {
          "internalType": "string",
          "name": "physician",
          "type": "string"
        },
        {
          "internalType": "uint256",
          "name": "dateOfDiagnosis",
          "type": "uint256"
        },
        {
          "internalType": "string",
          "name": "diagnosis",
          "type": "string"
        },
        {
          "internalType": "string",
          "name": "symptoms",
          "type": "string"
        },
        {
          "internalType": "string",
          "name": "durationSeverity",
          "type": "string"
        },
        {
          "internalType": "string",
          "name": "signs",
          "type": "string"
        },
        {
          "internalType": "string",
          "name": "relevantMedicalHistory",
          "type": "string"
        }
      ],
      "stateMutability": "view",
      "type": "function",
      "constant": true
    },
    {
      "inputs": [
        {
          "internalType": "string",
          "name": "",
          "type": "string"
        }
      ],
      "name": "hospitalToPatient",
      "outputs": [
        {
          "internalType": "address",
          "name": "",
          "type": "address"
        }
      ],
      "stateMutability": "view",
      "type": "function",
      "constant": true
    },
    {
      "inputs": [
        {
          "internalType": "address",
          "name": "",
          "type": "address"
        }
      ],
      "name": "isPatient",
      "outputs": [
        {
          "internalType": "bool",
          "name": "",
          "type": "bool"
        }
      ],
      "stateMutability": "view",
      "type": "function",
      "constant": true
    },
    {
      "inputs": [
        {
          "internalType": "string",
          "name": "",
          "type": "string"
        },
        {
          "internalType": "uint256",
          "name": "",
          "type": "uint256"
        }
      ],
      "name": "patientHistoryRecords",
      "outputs": [
        {
          "internalType": "string",
          "name": "",
          "type": "string"
        }
      ],
      "stateMutability": "view",
      "type": "function",
      "constant": true
    },
    {
      "inputs": [
        {
          "internalType": "string",
          "name": "_patientID",
          "type": "string"
        },
        {
          "internalType": "string",
          "name": "_recordID",
          "type": "string"
        },
        {
          "internalType": "string",
          "name": "_physician",
          "type": "string"
        },
        {
          "internalType": "uint256",
          "name": "_dateOfDiagnosis",
          "type": "uint256"
        },
        {
          "internalType": "string",
          "name": "_diagnosis",
          "type": "string"
        },
        {
          "internalType": "string",
          "name": "_symptoms",
          "type": "string"
        },
        {
          "internalType": "string",
          "name": "_durationSeverity",
          "type": "string"
        },
        {
          "internalType": "string",
          "name": "_signs",
          "type": "string"
        },
        {
          "internalType": "string",
          "name": "_relevantMedicalHistory",
          "type": "string"
        }
      ],
      "name": "addMedicalHistory",
      "outputs": [],
      "stateMutability": "nonpayable",
      "type": "function"
    },
    {
      "inputs": [
        {
          "internalType": "string",
          "name": "_recordID",
          "type": "string"
        },
        {
          "internalType": "string",
          "name": "_physician",
          "type": "string"
        },
        {
          "internalType": "uint256",
          "name": "_dateOfDiagnosis",
          "type": "uint256"
        },
        {
          "internalType": "string",
          "name": "_diagnosis",
          "type": "string"
        },
        {
          "internalType": "string",
          "name": "_symptoms",
          "type": "string"
        },
        {
          "internalType": "string",
          "name": "_durationSeverity",
          "type": "string"
        },
        {
          "internalType": "string",
          "name": "_signs",
          "type": "string"
        },
        {
          "internalType": "string",
          "name": "_relevantMedicalHistory",
          "type": "string"
        }
      ],
      "name": "editMedicalHistory",
      "outputs": [],
      "stateMutability": "nonpayable",
      "type": "function"
    },
    {
      "inputs": [
        {
          "internalType": "string",
          "name": "_patientID",
          "type": "string"
        }
      ],
      "name": "getMedicalHistoryRecords",
      "outputs": [
        {
          "internalType": "string[]",
          "name": "",
          "type": "string[]"
        }
      ],
      "stateMutability": "view",
      "type": "function",
      "constant": true
    }
  ],
  "bytecode": "0x608060405234801561001057600080fd5b506117a7806100206000396000f3fe608060405234801561001057600080fd5b506004361061007d5760003560e01c80638f9c79ed1161005b5780638f9c79ed14610107578063aeea772414610137578063c9cc82c614610167578063dfbf68aa146101975761007d565b80635386c5da146100825780635c6384a5146100bb5780636cbdc740146100eb575b600080fd5b61009c60048036038101906100979190610db0565b6101b3565b6040516100b29a99989796959493929190611370565b60405180910390f35b6100d560048036038101906100d091906110d1565b61067d565b6040516100e29190611481565b60405180910390f35b61010560048036038101906101009190610f77565b61074c565b005b610121600480360381019061011c9190610d87565b6108e7565b60405161012e9190611466565b60405180910390f35b610151600480360381019061014c9190610db0565b610907565b60405161015e9190611355565b60405180910390f35b610181600480360381019061017c9190610db0565b610950565b60405161018e9190611444565b60405180910390f35b6101b160048036038101906101ac9190610df1565b610a47565b005b6000818051602081018201805184825260208301602085012081835280955050505050506000915090508060000160009054906101000a900473ffffffffffffffffffffffffffffffffffffffff1690806001018054610212906116a2565b80601f016020809104026020016040519081016040528092919081815260200182805461023e906116a2565b801561028b5780601f106102605761010080835404028352916020019161028b565b820191906000526020600020905b81548152906001019060200180831161026e57829003601f168201915b5050505050908060020180546102a0906116a2565b80601f01602080910402602001604051908101604052809291908181526020018280546102cc906116a2565b80156103195780601f106102ee57610100808354040283529160200191610319565b820191906000526020600020905b8154815290600101906020018083116102fc57829003601f168201915b50505050509080600301805461032e906116a2565b80601f016020809104026020016040519081016040528092919081815260200182805461035a906116a2565b80156103a75780601f1061037c576101008083540402835291602001916103a7565b820191906000526020600020905b81548152906001019060200180831161038a57829003601f168201915b5050505050908060040154908060050180546103c2906116a2565b80601f01602080910402602001604051908101604052809291908181526020018280546103ee906116a2565b801561043b5780601f106104105761010080835404028352916020019161043b565b820191906000526020600020905b81548152906001019060200180831161041e57829003601f168201915b505050505090806006018054610450906116a2565b80601f016020809104026020016040519081016040528092919081815260200182805461047c906116a2565b80156104c95780601f1061049e576101008083540402835291602001916104c9565b820191906000526020600020905b8154815290600101906020018083116104ac57829003601f168201915b5050505050908060070180546104de906116a2565b80601f016020809104026020016040519081016040528092919081815260200182805461050a906116a2565b80156105575780601f1061052c57610100808354040283529160200191610557565b820191906000526020600020905b81548152906001019060200180831161053a57829003601f168201915b50505050509080600801805461056c906116a2565b80601f0160208091040260200160405190810160405280929190818152602001828054610598906116a2565b80156105e55780601f106105ba576101008083540402835291602001916105e5565b820191906000526020600020905b8154815290600101906020018083116105c857829003601f168201915b5050505050908060090180546105fa906116a2565b80601f0160208091040260200160405190810160405280929190818152602001828054610626906116a2565b80156106735780601f1061064857610100808354040283529160200191610673565b820191906000526020600020905b81548152906001019060200180831161065657829003601f168201915b505050505090508a565b60018280516020810182018051848252602083016020850120818352809550505050505081815481106106af57600080fd5b906000526020600020016000915091505080546106cb906116a2565b80601f01602080910402602001604051908101604052809291908181526020018280546106f7906116a2565b80156107445780601f1061071957610100808354040283529160200191610744565b820191906000526020600020905b81548152906001019060200180831161072757829003601f168201915b505050505081565b6000808960405161075d919061133e565b90815260200160405180910390209050600073ffffffffffffffffffffffffffffffffffffffff168160000160009054906101000a900473ffffffffffffffffffffffffffffffffffffffff1673ffffffffffffffffffffffffffffffffffffffff161415610801576040517f08c379a00000000000000000000000000000000000000000000000000000000081526004016107f890611511565b60405180910390fd5b87816003019080519060200190610819929190610c52565b508681600401819055508581600501908051906020019061083b929190610c52565b5084816006019080519060200190610854929190610c52565b508381600701908051906020019061086d929190610c52565b5082816008019080519060200190610886929190610c52565b508181600901908051906020019061089f929190610c52565b507f708c866c6e7dca148fcfa72f483c15990e773614de2e60dcbe36d26c7bd8101489826001016040516108d49291906114da565b60405180910390a1505050505050505050565b60036020528060005260406000206000915054906101000a900460ff1681565b6002818051602081018201805184825260208301602085012081835280955050505050506000915054906101000a900473ffffffffffffffffffffffffffffffffffffffff1681565b6060600182604051610962919061133e565b9081526020016040518091039020805480602002602001604051908101604052809291908181526020016000905b82821015610a3c5783829060005260206000200180546109af906116a2565b80601f01602080910402602001604051908101604052809291908181526020018280546109db906116a2565b8015610a285780601f106109fd57610100808354040283529160200191610a28565b820191906000526020600020905b815481529060010190602001808311610a0b57829003601f168201915b505050505081526020019060010190610990565b505050509050919050565b7f0e4b3ec57a254f92745700e50f96ac740d664336c0377736139d7f0fe572de3d888a604051610a789291906114a3565b60405180910390a160008089604051610a91919061133e565b90815260200160405180910390209050338160000160006101000a81548173ffffffffffffffffffffffffffffffffffffffff021916908373ffffffffffffffffffffffffffffffffffffffff16021790555089816001019080519060200190610afc929190610c52565b5088816002019080519060200190610b15929190610c52565b5087816003019080519060200190610b2e929190610c52565b5086816004018190555085816005019080519060200190610b50929190610c52565b5084816006019080519060200190610b69929190610c52565b5083816007019080519060200190610b82929190610c52565b5082816008019080519060200190610b9b929190610c52565b5081816009019080519060200190610bb4929190610c52565b5060018a604051610bc5919061133e565b908152602001604051809103902089908060018154018082558091505060019003906000526020600020016000909190919091509080519060200190610c0c929190610c52565b507f0e4b3ec57a254f92745700e50f96ac740d664336c0377736139d7f0fe572de3d898b604051610c3e9291906114a3565b60405180910390a150505050505050505050565b828054610c5e906116a2565b90600052602060002090601f016020900481019282610c805760008555610cc7565b82601f10610c9957805160ff1916838001178555610cc7565b82800160010185558215610cc7579182015b82811115610cc6578251825591602001919060010190610cab565b5b509050610cd49190610cd8565b5090565b5b80821115610cf1576000816000905550600101610cd9565b5090565b6000610d08610d0384611562565b611531565b905082815260208101848484011115610d2057600080fd5b610d2b848285611660565b509392505050565b600081359050610d4281611743565b92915050565b600082601f830112610d5957600080fd5b8135610d69848260208601610cf5565b91505092915050565b600081359050610d818161175a565b92915050565b600060208284031215610d9957600080fd5b6000610da784828501610d33565b91505092915050565b600060208284031215610dc257600080fd5b600082013567ffffffffffffffff811115610ddc57600080fd5b610de884828501610d48565b91505092915050565b60008060008060008060008060006101208a8c031215610e1057600080fd5b60008a013567ffffffffffffffff811115610e2a57600080fd5b610e368c828d01610d48565b99505060208a013567ffffffffffffffff811115610e5357600080fd5b610e5f8c828d01610d48565b98505060408a013567ffffffffffffffff811115610e7c57600080fd5b610e888c828d01610d48565b9750506060610e998c828d01610d72565b96505060808a013567ffffffffffffffff811115610eb657600080fd5b610ec28c828d01610d48565b95505060a08a013567ffffffffffffffff811115610edf57600080fd5b610eeb8c828d01610d48565b94505060c08a013567ffffffffffffffff811115610f0857600080fd5b610f148c828d01610d48565b93505060e08a013567ffffffffffffffff811115610f3157600080fd5b610f3d8c828d01610d48565b9250506101008a013567ffffffffffffffff811115610f5b57600080fd5b610f678c828d01610d48565b9150509295985092959850929598565b600080600080600080600080610100898b031215610f9457600080fd5b600089013567ffffffffffffffff811115610fae57600080fd5b610fba8b828c01610d48565b985050602089013567ffffffffffffffff811115610fd757600080fd5b610fe38b828c01610d48565b9750506040610ff48b828c01610d72565b965050606089013567ffffffffffffffff81111561101157600080fd5b61101d8b828c01610d48565b955050608089013567ffffffffffffffff81111561103a57600080fd5b6110468b828c01610d48565b94505060a089013567ffffffffffffffff81111561106357600080fd5b61106f8b828c01610d48565b93505060c089013567ffffffffffffffff81111561108c57600080fd5b6110988b828c01610d48565b92505060e089013567ffffffffffffffff8111156110b557600080fd5b6110c18b828c01610d48565b9150509295985092959890939650565b600080604083850312156110e457600080fd5b600083013567ffffffffffffffff8111156110fe57600080fd5b61110a85828601610d48565b925050602061111b85828601610d72565b9150509250929050565b600061113183836111cc565b905092915050565b61114281611618565b82525050565b6000611153826115b7565b61115d81856115da565b93508360208202850161116f85611592565b8060005b858110156111ab578484038952815161118c8582611125565b9450611197836115cd565b925060208a01995050600181019050611173565b50829750879550505050505092915050565b6111c68161162a565b82525050565b60006111d7826115c2565b6111e181856115eb565b93506111f181856020860161166f565b6111fa81611732565b840191505092915050565b6000611210826115c2565b61121a81856115fc565b935061122a81856020860161166f565b61123381611732565b840191505092915050565b6000611249826115c2565b611253818561160d565b935061126381856020860161166f565b80840191505092915050565b6000815461127c816116a2565b61128681866115fc565b945060018216600081146112a157600181146112b3576112e6565b60ff19831686526020860193506112e6565b6112bc856115a2565b60005b838110156112de578154818901526001820191506020810190506112bf565b808801955050505b50505092915050565b60006112fc6015836115fc565b91507f5265636f726420646f6573206e6f7420657869737400000000000000000000006000830152602082019050919050565b61133881611656565b82525050565b600061134a828461123e565b915081905092915050565b600060208201905061136a6000830184611139565b92915050565b600061014082019050611386600083018d611139565b8181036020830152611398818c611205565b905081810360408301526113ac818b611205565b905081810360608301526113c0818a611205565b90506113cf608083018961132f565b81810360a08301526113e18188611205565b905081810360c08301526113f58187611205565b905081810360e08301526114098186611205565b905081810361010083015261141e8185611205565b90508181036101208301526114338184611205565b90509b9a5050505050505050505050565b6000602082019050818103600083015261145e8184611148565b905092915050565b600060208201905061147b60008301846111bd565b92915050565b6000602082019050818103600083015261149b8184611205565b905092915050565b600060408201905081810360008301526114bd8185611205565b905081810360208301526114d18184611205565b90509392505050565b600060408201905081810360008301526114f48185611205565b90508181036020830152611508818461126f565b90509392505050565b6000602082019050818103600083015261152a816112ef565b9050919050565b6000604051905081810181811067ffffffffffffffff8211171561155857611557611703565b5b8060405250919050565b600067ffffffffffffffff82111561157d5761157c611703565b5b601f19601f8301169050602081019050919050565b6000819050602082019050919050565b60008190508160005260206000209050919050565b600081519050919050565b600081519050919050565b6000602082019050919050565b600082825260208201905092915050565b600082825260208201905092915050565b600082825260208201905092915050565b600081905092915050565b600061162382611636565b9050919050565b60008115159050919050565b600073ffffffffffffffffffffffffffffffffffffffff82169050919050565b6000819050919050565b82818337600083830152505050565b60005b8381101561168d578082015181840152602081019050611672565b8381111561169c576000848401525b50505050565b600060028204905060018216806116ba57607f821691505b602082108114156116ce576116cd6116d4565b5b50919050565b7f4e487b7100000000000000000000000000000000000000000000000000000000600052602260045260246000fd5b7f4e487b7100000000000000000000000000000000000000000000000000000000600052604160045260246000fd5b6000601f19601f8301169050919050565b61174c81611618565b811461175757600080fd5b50565b61176381611656565b811461176e57600080fd5b5056fea264697066735822122042cc6a37dfca930d63dde7c88e86cb20a50473e6c03239c88280a330206398ad64736f6c63430008000033",
  "immutableReferences": {},
  "source": "// SPDX-License-Identifier: MIT\r\npragma solidity >=0.4.22 <0.9.0;\r\n\r\nimport \"./Patient.sol\";\r\nimport \"./Hospital.sol\";\r\n\r\ncontract MedicalHistoryRecords {\r\n    \r\n    struct HistoryRecord {\r\n        address hospitalAddr;\r\n        string patientID;\r\n        string recordID;\r\n        string physician;\r\n        uint dateOfDiagnosis;\r\n        string diagnosis;\r\n        string symptoms;\r\n        string durationSeverity;\r\n        string signs;\r\n        string relevantMedicalHistory;\r\n    }\r\n\r\n    mapping(string => HistoryRecord) public historyRecords;\r\n    mapping(string => string[]) public patientHistoryRecords;\r\n    mapping(string => address) public hospitalToPatient; \r\n    mapping(address => bool) public isPatient;\r\n\r\n    event MedicalHistoryRecordAdded(string recordID, string patientID);\r\n    event MedicalHistoryRecordEdited(string recordID, string patientID);\r\n\r\n    function addMedicalHistory(\r\n        string memory _patientID,\r\n        string memory _recordID,\r\n        string memory _physician,\r\n        uint _dateOfDiagnosis,\r\n        string memory _diagnosis,\r\n        string memory _symptoms,\r\n        string memory _durationSeverity,\r\n        string memory _signs,\r\n        string memory _relevantMedicalHistory\r\n    ) public {\r\n        \r\n        // Debugging log\r\n        emit MedicalHistoryRecordAdded(_recordID, _patientID);\r\n\r\n        HistoryRecord storage record = historyRecords[_recordID];\r\n        record.hospitalAddr = msg.sender;\r\n        record.patientID = _patientID;\r\n        record.recordID = _recordID;\r\n        record.physician = _physician;\r\n        record.dateOfDiagnosis = _dateOfDiagnosis;\r\n        record.diagnosis = _diagnosis;\r\n        record.symptoms = _symptoms;\r\n        record.durationSeverity = _durationSeverity;\r\n        record.signs = _signs;\r\n        record.relevantMedicalHistory = _relevantMedicalHistory;\r\n\r\n        patientHistoryRecords[_patientID].push(_recordID);\r\n\r\n        // Debugging log\r\n        emit MedicalHistoryRecordAdded(_recordID, _patientID);\r\n    }\r\n\r\n    function editMedicalHistory(string memory _recordID, string memory _physician, uint _dateOfDiagnosis, string memory _diagnosis, \r\n    string memory _symptoms, string memory _durationSeverity, string memory _signs, string memory _relevantMedicalHistory) public {\r\n    \r\n        // Retrieve the record from storage\r\n        HistoryRecord storage record = historyRecords[_recordID];\r\n\r\n        // Check if the record exists and belongs to the specified patient\r\n        require(record.hospitalAddr != address(0), \"Record does not exist\");\r\n\r\n        // Update the record with the new information\r\n        record.physician = _physician;\r\n        record.dateOfDiagnosis = _dateOfDiagnosis;\r\n        record.diagnosis = _diagnosis;\r\n        record.symptoms = _symptoms;\r\n        record.durationSeverity = _durationSeverity;\r\n        record.signs = _signs;\r\n        record.relevantMedicalHistory = _relevantMedicalHistory;\r\n\r\n        // Debugging log\r\n        emit MedicalHistoryRecordEdited(_recordID, record.patientID);\r\n    }\r\n\r\n    // Retrieve and medical record\r\n    function getMedicalHistoryRecords(string memory _patientID) public view returns (string[] memory) {\r\n        return patientHistoryRecords[_patientID];\r\n    }\r\n}\r\n",
  "sourcePath": "C:\\Users\\Abby\\Desktop\\APPCON 2023\\MediVerse-Web3-Dapp\\contracts\\MedicalHistory.sol",
  "compiler": {
    "name": "solc",
    "version": "0.8.0+commit.c7dfd78e.Emscripten.clang"
  },
  "schemaVersion": "3.4.16",
  "updatedAt": "2024-02-13T16:57:47.057Z",
  "networkType": "ethereum",
  "devdoc": {
    "kind": "dev",
    "methods": {},
    "version": 1
  },
  "userdoc": {
    "kind": "user",
    "methods": {},
    "version": 1
  }
}