{
  "contractName": "MediVerse",
  "abi": [
    {
      "inputs": [
        {
          "internalType": "uint256",
          "name": "",
          "type": "uint256"
        }
      ],
      "name": "hospitalList",
      "outputs": [
        {
          "internalType": "address",
          "name": "",
          "type": "address"
        }
      ],
      "stateMutability": "view",
      "type": "function",
      "constant": true
    },
    {
      "inputs": [
        {
          "internalType": "address",
          "name": "",
          "type": "address"
        }
      ],
      "name": "hospitals",
      "outputs": [
        {
          "internalType": "string",
          "name": "name",
          "type": "string"
        },
        {
          "internalType": "string",
          "name": "contactNum",
          "type": "string"
        },
        {
          "internalType": "string",
          "name": "addr",
          "type": "string"
        },
        {
          "internalType": "uint256",
          "name": "creationDate",
          "type": "uint256"
        }
      ],
      "stateMutability": "view",
      "type": "function",
      "constant": true
    },
    {
      "inputs": [
        {
          "internalType": "address",
          "name": "",
          "type": "address"
        }
      ],
      "name": "isRegistered",
      "outputs": [
        {
          "internalType": "bool",
          "name": "",
          "type": "bool"
        }
      ],
      "stateMutability": "view",
      "type": "function",
      "constant": true
    },
    {
      "inputs": [
        {
          "internalType": "address",
          "name": "",
          "type": "address"
        },
        {
          "internalType": "uint256",
          "name": "",
          "type": "uint256"
        }
      ],
      "name": "medicalHistories",
      "outputs": [
        {
          "internalType": "address",
          "name": "patientAddr",
          "type": "address"
        },
        {
          "internalType": "address",
          "name": "hospitalAddr",
          "type": "address"
        },
        {
          "internalType": "string",
          "name": "physician",
          "type": "string"
        },
        {
          "internalType": "string",
          "name": "diagnosis",
          "type": "string"
        },
        {
          "internalType": "string",
          "name": "signsAndSymptoms",
          "type": "string"
        },
        {
          "internalType": "string",
          "name": "treatmentProcedure",
          "type": "string"
        },
        {
          "internalType": "string",
          "name": "tests",
          "type": "string"
        },
        {
          "internalType": "string",
          "name": "medications",
          "type": "string"
        },
        {
          "internalType": "string",
          "name": "admission",
          "type": "string"
        },
        {
          "internalType": "uint256",
          "name": "creationDate",
          "type": "uint256"
        }
      ],
      "stateMutability": "view",
      "type": "function",
      "constant": true
    },
    {
      "inputs": [
        {
          "internalType": "uint256",
          "name": "",
          "type": "uint256"
        }
      ],
      "name": "medicalHistoryList",
      "outputs": [
        {
          "internalType": "address",
          "name": "patientAddr",
          "type": "address"
        },
        {
          "internalType": "address",
          "name": "hospitalAddr",
          "type": "address"
        },
        {
          "internalType": "string",
          "name": "physician",
          "type": "string"
        },
        {
          "internalType": "string",
          "name": "diagnosis",
          "type": "string"
        },
        {
          "internalType": "string",
          "name": "signsAndSymptoms",
          "type": "string"
        },
        {
          "internalType": "string",
          "name": "treatmentProcedure",
          "type": "string"
        },
        {
          "internalType": "string",
          "name": "tests",
          "type": "string"
        },
        {
          "internalType": "string",
          "name": "medications",
          "type": "string"
        },
        {
          "internalType": "string",
          "name": "admission",
          "type": "string"
        },
        {
          "internalType": "uint256",
          "name": "creationDate",
          "type": "uint256"
        }
      ],
      "stateMutability": "view",
      "type": "function",
      "constant": true
    },
    {
      "inputs": [
        {
          "internalType": "uint256",
          "name": "",
          "type": "uint256"
        }
      ],
      "name": "patientList",
      "outputs": [
        {
          "internalType": "address",
          "name": "",
          "type": "address"
        }
      ],
      "stateMutability": "view",
      "type": "function",
      "constant": true
    },
    {
      "inputs": [
        {
          "internalType": "address",
          "name": "",
          "type": "address"
        }
      ],
      "name": "patients",
      "outputs": [
        {
          "internalType": "string",
          "name": "name",
          "type": "string"
        },
        {
          "internalType": "string",
          "name": "age",
          "type": "string"
        },
        {
          "internalType": "string",
          "name": "gender",
          "type": "string"
        },
        {
          "internalType": "string",
          "name": "dateOfBirth",
          "type": "string"
        },
        {
          "internalType": "string",
          "name": "height",
          "type": "string"
        },
        {
          "internalType": "string",
          "name": "weight",
          "type": "string"
        },
        {
          "internalType": "string",
          "name": "contactNum",
          "type": "string"
        },
        {
          "internalType": "string",
          "name": "addr",
          "type": "string"
        },
        {
          "internalType": "uint256",
          "name": "creationDate",
          "type": "uint256"
        }
      ],
      "stateMutability": "view",
      "type": "function",
      "constant": true
    },
    {
      "inputs": [
        {
          "internalType": "string",
          "name": "_name",
          "type": "string"
        },
        {
          "internalType": "string",
          "name": "_age",
          "type": "string"
        },
        {
          "internalType": "string",
          "name": "_gender",
          "type": "string"
        },
        {
          "internalType": "string",
          "name": "_dateOfBirth",
          "type": "string"
        },
        {
          "internalType": "string",
          "name": "_height",
          "type": "string"
        },
        {
          "internalType": "string",
          "name": "_weight",
          "type": "string"
        },
        {
          "internalType": "string",
          "name": "_contactNum",
          "type": "string"
        },
        {
          "internalType": "string",
          "name": "_address",
          "type": "string"
        }
      ],
      "name": "registerPatient",
      "outputs": [],
      "stateMutability": "nonpayable",
      "type": "function"
    },
    {
      "inputs": [
        {
          "internalType": "string",
          "name": "_name",
          "type": "string"
        },
        {
          "internalType": "string",
          "name": "_age",
          "type": "string"
        },
        {
          "internalType": "string",
          "name": "_gender",
          "type": "string"
        },
        {
          "internalType": "string",
          "name": "_dateOfBirth",
          "type": "string"
        },
        {
          "internalType": "string",
          "name": "_height",
          "type": "string"
        },
        {
          "internalType": "string",
          "name": "_weight",
          "type": "string"
        },
        {
          "internalType": "string",
          "name": "_contactNum",
          "type": "string"
        },
        {
          "internalType": "string",
          "name": "_address",
          "type": "string"
        }
      ],
      "name": "editPatientDetails",
      "outputs": [],
      "stateMutability": "nonpayable",
      "type": "function"
    },
    {
      "inputs": [
        {
          "internalType": "string",
          "name": "_name",
          "type": "string"
        },
        {
          "internalType": "string",
          "name": "_contactNum",
          "type": "string"
        },
        {
          "internalType": "string",
          "name": "_address",
          "type": "string"
        }
      ],
      "name": "registerHospital",
      "outputs": [],
      "stateMutability": "nonpayable",
      "type": "function"
    },
    {
      "inputs": [
        {
          "internalType": "string",
          "name": "_name",
          "type": "string"
        },
        {
          "internalType": "string",
          "name": "_contactNum",
          "type": "string"
        },
        {
          "internalType": "string",
          "name": "_addr",
          "type": "string"
        }
      ],
      "name": "editHospitalDetails",
      "outputs": [],
      "stateMutability": "nonpayable",
      "type": "function"
    },
    {
      "inputs": [
        {
          "internalType": "address",
          "name": "_patientAddr",
          "type": "address"
        },
        {
          "internalType": "string",
          "name": "_physician",
          "type": "string"
        },
        {
          "internalType": "string",
          "name": "_diagnosis",
          "type": "string"
        },
        {
          "internalType": "string",
          "name": "_signsAndSymptoms",
          "type": "string"
        },
        {
          "internalType": "string",
          "name": "_treatmentProcedure",
          "type": "string"
        },
        {
          "internalType": "string",
          "name": "_tests",
          "type": "string"
        },
        {
          "internalType": "string",
          "name": "_medications",
          "type": "string"
        },
        {
          "internalType": "string",
          "name": "_admission",
          "type": "string"
        }
      ],
      "name": "addMedicalHistory",
      "outputs": [],
      "stateMutability": "nonpayable",
      "type": "function"
    },
    {
      "inputs": [
        {
          "internalType": "address",
          "name": "_patientAddr",
          "type": "address"
        },
        {
          "internalType": "uint256",
          "name": "creationDate",
          "type": "uint256"
        },
        {
          "internalType": "string",
          "name": "_physician",
          "type": "string"
        },
        {
          "internalType": "string",
          "name": "_diagnosis",
          "type": "string"
        },
        {
          "internalType": "string",
          "name": "_signsAndSymptoms",
          "type": "string"
        },
        {
          "internalType": "string",
          "name": "_treatmentProcedure",
          "type": "string"
        },
        {
          "internalType": "string",
          "name": "_tests",
          "type": "string"
        },
        {
          "internalType": "string",
          "name": "_medications",
          "type": "string"
        },
        {
          "internalType": "string",
          "name": "_admission",
          "type": "string"
        }
      ],
      "name": "editMedicalHistory",
      "outputs": [],
      "stateMutability": "nonpayable",
      "type": "function"
    },
    {
      "inputs": [
        {
          "internalType": "address",
          "name": "_patientAddr",
          "type": "address"
        },
        {
          "internalType": "string",
          "name": "_name",
          "type": "string"
        },
        {
          "internalType": "string",
          "name": "_age",
          "type": "string"
        },
        {
          "internalType": "string",
          "name": "_gender",
          "type": "string"
        },
        {
          "internalType": "string",
          "name": "_dateOfBirth",
          "type": "string"
        },
        {
          "internalType": "string",
          "name": "_height",
          "type": "string"
        },
        {
          "internalType": "string",
          "name": "_weight",
          "type": "string"
        },
        {
          "internalType": "string",
          "name": "_contactNum",
          "type": "string"
        },
        {
          "internalType": "string",
          "name": "_address",
          "type": "string"
        }
      ],
      "name": "addPatient",
      "outputs": [],
      "stateMutability": "nonpayable",
      "type": "function"
    },
    {
      "inputs": [
        {
          "internalType": "address",
          "name": "_patientAddr",
          "type": "address"
        }
      ],
      "name": "getMedicalHistory",
      "outputs": [
        {
          "components": [
            {
              "internalType": "address",
              "name": "patientAddr",
              "type": "address"
            },
            {
              "internalType": "address",
              "name": "hospitalAddr",
              "type": "address"
            },
            {
              "internalType": "string",
              "name": "physician",
              "type": "string"
            },
            {
              "internalType": "string",
              "name": "diagnosis",
              "type": "string"
            },
            {
              "internalType": "string",
              "name": "signsAndSymptoms",
              "type": "string"
            },
            {
              "internalType": "string",
              "name": "treatmentProcedure",
              "type": "string"
            },
            {
              "internalType": "string",
              "name": "tests",
              "type": "string"
            },
            {
              "internalType": "string",
              "name": "medications",
              "type": "string"
            },
            {
              "internalType": "string",
              "name": "admission",
              "type": "string"
            },
            {
              "internalType": "uint256",
              "name": "creationDate",
              "type": "uint256"
            }
          ],
          "internalType": "struct MediVerse.MedicalHistory[]",
          "name": "",
          "type": "tuple[]"
        }
      ],
      "stateMutability": "view",
      "type": "function",
      "constant": true
    },
    {
      "inputs": [],
      "name": "getAllMedicalHistory",
      "outputs": [
        {
          "components": [
            {
              "internalType": "address",
              "name": "patientAddr",
              "type": "address"
            },
            {
              "internalType": "address",
              "name": "hospitalAddr",
              "type": "address"
            },
            {
              "internalType": "string",
              "name": "physician",
              "type": "string"
            },
            {
              "internalType": "string",
              "name": "diagnosis",
              "type": "string"
            },
            {
              "internalType": "string",
              "name": "signsAndSymptoms",
              "type": "string"
            },
            {
              "internalType": "string",
              "name": "treatmentProcedure",
              "type": "string"
            },
            {
              "internalType": "string",
              "name": "tests",
              "type": "string"
            },
            {
              "internalType": "string",
              "name": "medications",
              "type": "string"
            },
            {
              "internalType": "string",
              "name": "admission",
              "type": "string"
            },
            {
              "internalType": "uint256",
              "name": "creationDate",
              "type": "uint256"
            }
          ],
          "internalType": "struct MediVerse.MedicalHistory[]",
          "name": "",
          "type": "tuple[]"
        }
      ],
      "stateMutability": "view",
      "type": "function",
      "constant": true
    },
    {
      "inputs": [
        {
          "internalType": "address",
          "name": "patientAddress",
          "type": "address"
        }
      ],
      "name": "getPatientInfo",
      "outputs": [
        {
          "internalType": "string",
          "name": "",
          "type": "string"
        },
        {
          "internalType": "string",
          "name": "",
          "type": "string"
        },
        {
          "internalType": "string",
          "name": "",
          "type": "string"
        },
        {
          "internalType": "string",
          "name": "",
          "type": "string"
        },
        {
          "internalType": "string",
          "name": "",
          "type": "string"
        },
        {
          "internalType": "string",
          "name": "",
          "type": "string"
        },
        {
          "internalType": "string",
          "name": "",
          "type": "string"
        },
        {
          "internalType": "string",
          "name": "",
          "type": "string"
        },
        {
          "internalType": "address[]",
          "name": "",
          "type": "address[]"
        },
        {
          "internalType": "uint256",
          "name": "",
          "type": "uint256"
        }
      ],
      "stateMutability": "view",
      "type": "function",
      "constant": true
    },
    {
      "inputs": [
        {
          "internalType": "address",
          "name": "hospitalAddress",
          "type": "address"
        }
      ],
      "name": "getHospitalInfo",
      "outputs": [
        {
          "internalType": "string",
          "name": "",
          "type": "string"
        },
        {
          "internalType": "string",
          "name": "",
          "type": "string"
        },
        {
          "internalType": "string",
          "name": "",
          "type": "string"
        },
        {
          "internalType": "uint256",
          "name": "",
          "type": "uint256"
        }
      ],
      "stateMutability": "view",
      "type": "function",
      "constant": true
    },
    {
      "inputs": [
        {
          "internalType": "address",
          "name": "_hospitalAddr",
          "type": "address"
        }
      ],
      "name": "givePermission",
      "outputs": [],
      "stateMutability": "nonpayable",
      "type": "function"
    },
    {
      "inputs": [
        {
          "internalType": "address",
          "name": "_hospitalAddr",
          "type": "address"
        }
      ],
      "name": "revokeAccess",
      "outputs": [],
      "stateMutability": "nonpayable",
      "type": "function"
    },
    {
      "inputs": [
        {
          "internalType": "address",
          "name": "_patientAddr",
          "type": "address"
        }
      ],
      "name": "requestPermission",
      "outputs": [],
      "stateMutability": "nonpayable",
      "type": "function"
    },
    {
      "inputs": [
        {
          "internalType": "address",
          "name": "_patientAddr",
          "type": "address"
        }
      ],
      "name": "getAuthorizedHospitals",
      "outputs": [
        {
          "internalType": "address[]",
          "name": "",
          "type": "address[]"
        }
      ],
      "stateMutability": "view",
      "type": "function",
      "constant": true
    },
    {
      "inputs": [
        {
          "internalType": "address",
          "name": "_patientAddr",
          "type": "address"
        }
      ],
      "name": "getPendingRequests",
      "outputs": [
        {
          "internalType": "address[]",
          "name": "",
          "type": "address[]"
        }
      ],
      "stateMutability": "view",
      "type": "function",
      "constant": true
    },
    {
      "inputs": [],
      "name": "getPatientList",
      "outputs": [
        {
          "internalType": "address[]",
          "name": "",
          "type": "address[]"
        }
      ],
      "stateMutability": "view",
      "type": "function",
      "constant": true
    },
    {
      "inputs": [],
      "name": "getHospitalList",
      "outputs": [
        {
          "internalType": "address[]",
          "name": "",
          "type": "address[]"
        }
      ],
      "stateMutability": "view",
      "type": "function",
      "constant": true
    }
  ],
  "bytecode": "0x608060405234801561001057600080fd5b5061599280620000216000396000f3fe608060405234801561001057600080fd5b50600436106101735760003560e01c80636933e414116100de578063c82412b911610097578063e1de2d5911610071578063e1de2d59146104b8578063f05bfa7b146104d4578063f093cf8014610504578063f74258f91461053757610173565b8063c82412b91461043c578063d31e37291461046c578063db49021c1461049c57610173565b80636933e4141461033657806372339509146103545780638486f67a1461038d57806385e68531146103c0578063babb1d41146103dc578063c3c5a5471461040c57610173565b80634150f554116101305780634150f554146102595780634b42617814610277578063503b1354146102b0578063507f478b146102ce578063526b44ac146102ea5780635986de611461030657610173565b80630869cfbc1461017857806319406a64146101b05780631e31bfdd146101e957806329cf54a3146102055780632d57f4ed146102215780633d391f701461023d575b600080fd5b610192600480360381019061018d9190614625565b610553565b6040516101a799989796959493929190615438565b60405180910390f35b6101ca60048036038101906101c59190614ce1565b6109e1565b6040516101e09a99989796959493929190615231565b60405180910390f35b61020360048036038101906101fe919061496a565b610e3d565b005b61021f600480360381019061021a9190614b6f565b6112c3565b005b61023b60048036038101906102369190614ad8565b61152a565b005b61025760048036038101906102529190614625565b6115c7565b005b61026161191b565b60405161026e9190615320565b60405180910390f35b610291600480360381019061028c9190614625565b611e2f565b6040516102a79a9998979695949392919061535d565b60405180910390f35b6102b86123b4565b6040516102c591906152fe565b60405180910390f35b6102e860048036038101906102e39190614625565b612442565b005b61030460048036038101906102ff9190614ad8565b61252f565b005b610320600480360381019061031b9190614625565b612714565b60405161032d9190615320565b60405180910390f35b61033e612c67565b60405161034b91906152fe565b60405180910390f35b61036e6004803603810190610369919061492e565b612cf5565b6040516103849a99989796959493929190615231565b60405180910390f35b6103a760048036038101906103a29190614625565b61315e565b6040516103b794939291906154fd565b60405180910390f35b6103da60048036038101906103d59190614625565b61336c565b005b6103f660048036038101906103f19190614ce1565b613622565b6040516104039190615216565b60405180910390f35b61042660048036038101906104219190614625565b613661565b6040516104339190615342565b60405180910390f35b61045660048036038101906104519190614ce1565b613681565b6040516104639190615216565b60405180910390f35b61048660048036038101906104819190614625565b6136c0565b60405161049391906152fe565b60405180910390f35b6104b660048036038101906104b191906147a8565b613790565b005b6104d260048036038101906104cd9190614b6f565b6139f8565b005b6104ee60048036038101906104e99190614625565b613b17565b6040516104fb91906152fe565b60405180910390f35b61051e60048036038101906105199190614625565b613be4565b60405161052e94939291906154fd565b60405180910390f35b610551600480360381019061054c919061464e565b613dac565b005b600460205280600052604060002060009150905080600001805461057690615815565b80601f01602080910402602001604051908101604052809291908181526020018280546105a290615815565b80156105ef5780601f106105c4576101008083540402835291602001916105ef565b820191906000526020600020905b8154815290600101906020018083116105d257829003601f168201915b50505050509080600101805461060490615815565b80601f016020809104026020016040519081016040528092919081815260200182805461063090615815565b801561067d5780601f106106525761010080835404028352916020019161067d565b820191906000526020600020905b81548152906001019060200180831161066057829003601f168201915b50505050509080600201805461069290615815565b80601f01602080910402602001604051908101604052809291908181526020018280546106be90615815565b801561070b5780601f106106e05761010080835404028352916020019161070b565b820191906000526020600020905b8154815290600101906020018083116106ee57829003601f168201915b50505050509080600301805461072090615815565b80601f016020809104026020016040519081016040528092919081815260200182805461074c90615815565b80156107995780601f1061076e57610100808354040283529160200191610799565b820191906000526020600020905b81548152906001019060200180831161077c57829003601f168201915b5050505050908060040180546107ae90615815565b80601f01602080910402602001604051908101604052809291908181526020018280546107da90615815565b80156108275780601f106107fc57610100808354040283529160200191610827565b820191906000526020600020905b81548152906001019060200180831161080a57829003601f168201915b50505050509080600501805461083c90615815565b80601f016020809104026020016040519081016040528092919081815260200182805461086890615815565b80156108b55780601f1061088a576101008083540402835291602001916108b5565b820191906000526020600020905b81548152906001019060200180831161089857829003601f168201915b5050505050908060060180546108ca90615815565b80601f01602080910402602001604051908101604052809291908181526020018280546108f690615815565b80156109435780601f1061091857610100808354040283529160200191610943565b820191906000526020600020905b81548152906001019060200180831161092657829003601f168201915b50505050509080600701805461095890615815565b80601f016020809104026020016040519081016040528092919081815260200182805461098490615815565b80156109d15780601f106109a6576101008083540402835291602001916109d1565b820191906000526020600020905b8154815290600101906020018083116109b457829003601f168201915b5050505050908060090154905089565b600281815481106109f157600080fd5b90600052602060002090600a02016000915090508060000160009054906101000a900473ffffffffffffffffffffffffffffffffffffffff16908060010160009054906101000a900473ffffffffffffffffffffffffffffffffffffffff1690806002018054610a6090615815565b80601f0160208091040260200160405190810160405280929190818152602001828054610a8c90615815565b8015610ad95780601f10610aae57610100808354040283529160200191610ad9565b820191906000526020600020905b815481529060010190602001808311610abc57829003601f168201915b505050505090806003018054610aee90615815565b80601f0160208091040260200160405190810160405280929190818152602001828054610b1a90615815565b8015610b675780601f10610b3c57610100808354040283529160200191610b67565b820191906000526020600020905b815481529060010190602001808311610b4a57829003601f168201915b505050505090806004018054610b7c90615815565b80601f0160208091040260200160405190810160405280929190818152602001828054610ba890615815565b8015610bf55780601f10610bca57610100808354040283529160200191610bf5565b820191906000526020600020905b815481529060010190602001808311610bd857829003601f168201915b505050505090806005018054610c0a90615815565b80601f0160208091040260200160405190810160405280929190818152602001828054610c3690615815565b8015610c835780601f10610c5857610100808354040283529160200191610c83565b820191906000526020600020905b815481529060010190602001808311610c6657829003601f168201915b505050505090806006018054610c9890615815565b80601f0160208091040260200160405190810160405280929190818152602001828054610cc490615815565b8015610d115780601f10610ce657610100808354040283529160200191610d11565b820191906000526020600020905b815481529060010190602001808311610cf457829003601f168201915b505050505090806007018054610d2690615815565b80601f0160208091040260200160405190810160405280929190818152602001828054610d5290615815565b8015610d9f5780601f10610d7457610100808354040283529160200191610d9f565b820191906000526020600020905b815481529060010190602001808311610d8257829003601f168201915b505050505090806008018054610db490615815565b80601f0160208091040260200160405190810160405280929190818152602001828054610de090615815565b8015610e2d5780601f10610e0257610100808354040283529160200191610e2d565b820191906000526020600020905b815481529060010190602001808311610e1057829003601f168201915b505050505090806009015490508a565b6000600660008b73ffffffffffffffffffffffffffffffffffffffff1673ffffffffffffffffffffffffffffffffffffffff16815260200190815260200160002090506000818054905011610ec7576040517f08c379a0000000000000000000000000000000000000000000000000000000008152600401610ebe906155b7565b60405180910390fd5b60005b818054905081101561127c5789828281548110610f10577f4e487b7100000000000000000000000000000000000000000000000000000000600052603260045260246000fd5b90600052602060002090600a020160090154148015610fc457503373ffffffffffffffffffffffffffffffffffffffff16828281548110610f7a577f4e487b7100000000000000000000000000000000000000000000000000000000600052603260045260246000fd5b90600052602060002090600a020160010160009054906101000a900473ffffffffffffffffffffffffffffffffffffffff1673ffffffffffffffffffffffffffffffffffffffff16145b156112695788828281548110611003577f4e487b7100000000000000000000000000000000000000000000000000000000600052603260045260246000fd5b90600052602060002090600a02016002019080519060200190611027929190614471565b5087828281548110611062577f4e487b7100000000000000000000000000000000000000000000000000000000600052603260045260246000fd5b90600052602060002090600a02016003019080519060200190611086929190614471565b50868282815481106110c1577f4e487b7100000000000000000000000000000000000000000000000000000000600052603260045260246000fd5b90600052602060002090600a020160040190805190602001906110e5929190614471565b5085828281548110611120577f4e487b7100000000000000000000000000000000000000000000000000000000600052603260045260246000fd5b90600052602060002090600a02016005019080519060200190611144929190614471565b508482828154811061117f577f4e487b7100000000000000000000000000000000000000000000000000000000600052603260045260246000fd5b90600052602060002090600a020160060190805190602001906111a3929190614471565b50838282815481106111de577f4e487b7100000000000000000000000000000000000000000000000000000000600052603260045260246000fd5b90600052602060002090600a02016007019080519060200190611202929190614471565b508282828154811061123d577f4e487b7100000000000000000000000000000000000000000000000000000000600052603260045260246000fd5b90600052602060002090600a02016008019080519060200190611261929190614471565b5050506112b8565b808061127490615847565b915050610eca565b506040517f08c379a00000000000000000000000000000000000000000000000000000000081526004016112af90615637565b60405180910390fd5b505050505050505050565b600360003373ffffffffffffffffffffffffffffffffffffffff1673ffffffffffffffffffffffffffffffffffffffff16815260200190815260200160002060009054906101000a900460ff1615611350576040517f08c379a000000000000000000000000000000000000000000000000000000000815260040161134790615557565b60405180910390fd5b6000600460003373ffffffffffffffffffffffffffffffffffffffff1673ffffffffffffffffffffffffffffffffffffffff1681526020019081526020016000209050888160000190805190602001906113ab929190614471565b50878160010190805190602001906113c4929190614471565b50868160020190805190602001906113dd929190614471565b50858160030190805190602001906113f6929190614471565b508481600401908051906020019061140f929190614471565b5083816005019080519060200190611428929190614471565b5082816006019080519060200190611441929190614471565b508181600701908051906020019061145a929190614471565b504281600901819055506000339080600181540180825580915050600190039060005260206000200160009091909190916101000a81548173ffffffffffffffffffffffffffffffffffffffff021916908373ffffffffffffffffffffffffffffffffffffffff1602179055506001600360003373ffffffffffffffffffffffffffffffffffffffff1673ffffffffffffffffffffffffffffffffffffffff16815260200190815260200160002060006101000a81548160ff021916908315150217905550505050505050505050565b6000600560003373ffffffffffffffffffffffffffffffffffffffff1673ffffffffffffffffffffffffffffffffffffffff168152602001908152602001600020905083816000019080519060200190611585929190614471565b508281600101908051906020019061159e929190614471565b50818160020190805190602001906115b7929190614471565b5042816003018190555050505050565b6115d1338261431b565b15611611576040517f08c379a000000000000000000000000000000000000000000000000000000000815260040161160890615617565b60405180910390fd5b6000600760003373ffffffffffffffffffffffffffffffffffffffff1673ffffffffffffffffffffffffffffffffffffffff168152602001908152602001600020905060005b8180549050811015611873578273ffffffffffffffffffffffffffffffffffffffff168282815481106116b3577f4e487b7100000000000000000000000000000000000000000000000000000000600052603260045260246000fd5b9060005260206000200160009054906101000a900473ffffffffffffffffffffffffffffffffffffffff1673ffffffffffffffffffffffffffffffffffffffff16141561186057816001838054905061170c9190615757565b81548110611743577f4e487b7100000000000000000000000000000000000000000000000000000000600052603260045260246000fd5b9060005260206000200160009054906101000a900473ffffffffffffffffffffffffffffffffffffffff168282815481106117a7577f4e487b7100000000000000000000000000000000000000000000000000000000600052603260045260246000fd5b9060005260206000200160006101000a81548173ffffffffffffffffffffffffffffffffffffffff021916908373ffffffffffffffffffffffffffffffffffffffff16021790555081805480611826577f4e487b7100000000000000000000000000000000000000000000000000000000600052603160045260246000fd5b6001900381819060005260206000200160006101000a81549073ffffffffffffffffffffffffffffffffffffffff02191690559055611873565b808061186b90615847565b915050611657565b50600460003373ffffffffffffffffffffffffffffffffffffffff1673ffffffffffffffffffffffffffffffffffffffff168152602001908152602001600020600801829080600181540180825580915050600190039060005260206000200160009091909190916101000a81548173ffffffffffffffffffffffffffffffffffffffff021916908373ffffffffffffffffffffffffffffffffffffffff1602179055505050565b60606002805480602002602001604051908101604052809291908181526020016000905b82821015611e2657838290600052602060002090600a0201604051806101400160405290816000820160009054906101000a900473ffffffffffffffffffffffffffffffffffffffff1673ffffffffffffffffffffffffffffffffffffffff1673ffffffffffffffffffffffffffffffffffffffff1681526020016001820160009054906101000a900473ffffffffffffffffffffffffffffffffffffffff1673ffffffffffffffffffffffffffffffffffffffff1673ffffffffffffffffffffffffffffffffffffffff168152602001600282018054611a1f90615815565b80601f0160208091040260200160405190810160405280929190818152602001828054611a4b90615815565b8015611a985780601f10611a6d57610100808354040283529160200191611a98565b820191906000526020600020905b815481529060010190602001808311611a7b57829003601f168201915b50505050508152602001600382018054611ab190615815565b80601f0160208091040260200160405190810160405280929190818152602001828054611add90615815565b8015611b2a5780601f10611aff57610100808354040283529160200191611b2a565b820191906000526020600020905b815481529060010190602001808311611b0d57829003601f168201915b50505050508152602001600482018054611b4390615815565b80601f0160208091040260200160405190810160405280929190818152602001828054611b6f90615815565b8015611bbc5780601f10611b9157610100808354040283529160200191611bbc565b820191906000526020600020905b815481529060010190602001808311611b9f57829003601f168201915b50505050508152602001600582018054611bd590615815565b80601f0160208091040260200160405190810160405280929190818152602001828054611c0190615815565b8015611c4e5780601f10611c2357610100808354040283529160200191611c4e565b820191906000526020600020905b815481529060010190602001808311611c3157829003601f168201915b50505050508152602001600682018054611c6790615815565b80601f0160208091040260200160405190810160405280929190818152602001828054611c9390615815565b8015611ce05780601f10611cb557610100808354040283529160200191611ce0565b820191906000526020600020905b815481529060010190602001808311611cc357829003601f168201915b50505050508152602001600782018054611cf990615815565b80601f0160208091040260200160405190810160405280929190818152602001828054611d2590615815565b8015611d725780601f10611d4757610100808354040283529160200191611d72565b820191906000526020600020905b815481529060010190602001808311611d5557829003601f168201915b50505050508152602001600882018054611d8b90615815565b80601f0160208091040260200160405190810160405280929190818152602001828054611db790615815565b8015611e045780601f10611dd957610100808354040283529160200191611e04565b820191906000526020600020905b815481529060010190602001808311611de757829003601f168201915b505050505081526020016009820154815250508152602001906001019061193f565b50505050905090565b6060806060806060806060806060600080600460008d73ffffffffffffffffffffffffffffffffffffffff1673ffffffffffffffffffffffffffffffffffffffff16815260200190815260200160002090508060000181600101826002018360030184600401856005018660060187600701886008018960090154898054611eb690615815565b80601f0160208091040260200160405190810160405280929190818152602001828054611ee290615815565b8015611f2f5780601f10611f0457610100808354040283529160200191611f2f565b820191906000526020600020905b815481529060010190602001808311611f1257829003601f168201915b50505050509950888054611f4290615815565b80601f0160208091040260200160405190810160405280929190818152602001828054611f6e90615815565b8015611fbb5780601f10611f9057610100808354040283529160200191611fbb565b820191906000526020600020905b815481529060010190602001808311611f9e57829003601f168201915b50505050509850878054611fce90615815565b80601f0160208091040260200160405190810160405280929190818152602001828054611ffa90615815565b80156120475780601f1061201c57610100808354040283529160200191612047565b820191906000526020600020905b81548152906001019060200180831161202a57829003601f168201915b5050505050975086805461205a90615815565b80601f016020809104026020016040519081016040528092919081815260200182805461208690615815565b80156120d35780601f106120a8576101008083540402835291602001916120d3565b820191906000526020600020905b8154815290600101906020018083116120b657829003601f168201915b505050505096508580546120e690615815565b80601f016020809104026020016040519081016040528092919081815260200182805461211290615815565b801561215f5780601f106121345761010080835404028352916020019161215f565b820191906000526020600020905b81548152906001019060200180831161214257829003601f168201915b5050505050955084805461217290615815565b80601f016020809104026020016040519081016040528092919081815260200182805461219e90615815565b80156121eb5780601f106121c0576101008083540402835291602001916121eb565b820191906000526020600020905b8154815290600101906020018083116121ce57829003601f168201915b505050505094508380546121fe90615815565b80601f016020809104026020016040519081016040528092919081815260200182805461222a90615815565b80156122775780601f1061224c57610100808354040283529160200191612277565b820191906000526020600020905b81548152906001019060200180831161225a57829003601f168201915b5050505050935082805461228a90615815565b80601f01602080910402602001604051908101604052809291908181526020018280546122b690615815565b80156123035780601f106122d857610100808354040283529160200191612303565b820191906000526020600020905b8154815290600101906020018083116122e657829003601f168201915b505050505092508180548060200260200160405190810160405280929190818152602001828054801561238b57602002820191906000526020600020905b8160009054906101000a900473ffffffffffffffffffffffffffffffffffffffff1673ffffffffffffffffffffffffffffffffffffffff1681526020019060010190808311612341575b505050505091509a509a509a509a509a509a509a509a509a509a50509193959799509193959799565b6060600080548060200260200160405190810160405280929190818152602001828054801561243857602002820191906000526020600020905b8160009054906101000a900473ffffffffffffffffffffffffffffffffffffffff1673ffffffffffffffffffffffffffffffffffffffff16815260200190600101908083116123ee575b5050505050905090565b61244c813361431b565b1561248c576040517f08c379a0000000000000000000000000000000000000000000000000000000008152600401612483906155d7565b60405180910390fd5b600760008273ffffffffffffffffffffffffffffffffffffffff1673ffffffffffffffffffffffffffffffffffffffff168152602001908152602001600020339080600181540180825580915050600190039060005260206000200160009091909190916101000a81548173ffffffffffffffffffffffffffffffffffffffff021916908373ffffffffffffffffffffffffffffffffffffffff16021790555050565b600360003373ffffffffffffffffffffffffffffffffffffffff1673ffffffffffffffffffffffffffffffffffffffff16815260200190815260200160002060009054906101000a900460ff16156125bc576040517f08c379a00000000000000000000000000000000000000000000000000000000081526004016125b3906155f7565b60405180910390fd5b6000600560003373ffffffffffffffffffffffffffffffffffffffff1673ffffffffffffffffffffffffffffffffffffffff168152602001908152602001600020905083816000019080519060200190612617929190614471565b5082816001019080519060200190612630929190614471565b5081816002019080519060200190612649929190614471565b504281600301819055506001339080600181540180825580915050600190039060005260206000200160009091909190916101000a81548173ffffffffffffffffffffffffffffffffffffffff021916908373ffffffffffffffffffffffffffffffffffffffff1602179055506001600360003373ffffffffffffffffffffffffffffffffffffffff1673ffffffffffffffffffffffffffffffffffffffff16815260200190815260200160002060006101000a81548160ff02191690831515021790555050505050565b6060600660008373ffffffffffffffffffffffffffffffffffffffff1673ffffffffffffffffffffffffffffffffffffffff168152602001908152602001600020805480602002602001604051908101604052809291908181526020016000905b82821015612c5c57838290600052602060002090600a0201604051806101400160405290816000820160009054906101000a900473ffffffffffffffffffffffffffffffffffffffff1673ffffffffffffffffffffffffffffffffffffffff1673ffffffffffffffffffffffffffffffffffffffff1681526020016001820160009054906101000a900473ffffffffffffffffffffffffffffffffffffffff1673ffffffffffffffffffffffffffffffffffffffff1673ffffffffffffffffffffffffffffffffffffffff16815260200160028201805461285590615815565b80601f016020809104026020016040519081016040528092919081815260200182805461288190615815565b80156128ce5780601f106128a3576101008083540402835291602001916128ce565b820191906000526020600020905b8154815290600101906020018083116128b157829003601f168201915b505050505081526020016003820180546128e790615815565b80601f016020809104026020016040519081016040528092919081815260200182805461291390615815565b80156129605780601f1061293557610100808354040283529160200191612960565b820191906000526020600020905b81548152906001019060200180831161294357829003601f168201915b5050505050815260200160048201805461297990615815565b80601f01602080910402602001604051908101604052809291908181526020018280546129a590615815565b80156129f25780601f106129c7576101008083540402835291602001916129f2565b820191906000526020600020905b8154815290600101906020018083116129d557829003601f168201915b50505050508152602001600582018054612a0b90615815565b80601f0160208091040260200160405190810160405280929190818152602001828054612a3790615815565b8015612a845780601f10612a5957610100808354040283529160200191612a84565b820191906000526020600020905b815481529060010190602001808311612a6757829003601f168201915b50505050508152602001600682018054612a9d90615815565b80601f0160208091040260200160405190810160405280929190818152602001828054612ac990615815565b8015612b165780601f10612aeb57610100808354040283529160200191612b16565b820191906000526020600020905b815481529060010190602001808311612af957829003601f168201915b50505050508152602001600782018054612b2f90615815565b80601f0160208091040260200160405190810160405280929190818152602001828054612b5b90615815565b8015612ba85780601f10612b7d57610100808354040283529160200191612ba8565b820191906000526020600020905b815481529060010190602001808311612b8b57829003601f168201915b50505050508152602001600882018054612bc190615815565b80601f0160208091040260200160405190810160405280929190818152602001828054612bed90615815565b8015612c3a5780601f10612c0f57610100808354040283529160200191612c3a565b820191906000526020600020905b815481529060010190602001808311612c1d57829003601f168201915b5050505050815260200160098201548152505081526020019060010190612775565b505050509050919050565b60606001805480602002602001604051908101604052809291908181526020018280548015612ceb57602002820191906000526020600020905b8160009054906101000a900473ffffffffffffffffffffffffffffffffffffffff1673ffffffffffffffffffffffffffffffffffffffff1681526020019060010190808311612ca1575b5050505050905090565b60066020528160005260406000208181548110612d1157600080fd5b90600052602060002090600a0201600091509150508060000160009054906101000a900473ffffffffffffffffffffffffffffffffffffffff16908060010160009054906101000a900473ffffffffffffffffffffffffffffffffffffffff1690806002018054612d8190615815565b80601f0160208091040260200160405190810160405280929190818152602001828054612dad90615815565b8015612dfa5780601f10612dcf57610100808354040283529160200191612dfa565b820191906000526020600020905b815481529060010190602001808311612ddd57829003601f168201915b505050505090806003018054612e0f90615815565b80601f0160208091040260200160405190810160405280929190818152602001828054612e3b90615815565b8015612e885780601f10612e5d57610100808354040283529160200191612e88565b820191906000526020600020905b815481529060010190602001808311612e6b57829003601f168201915b505050505090806004018054612e9d90615815565b80601f0160208091040260200160405190810160405280929190818152602001828054612ec990615815565b8015612f165780601f10612eeb57610100808354040283529160200191612f16565b820191906000526020600020905b815481529060010190602001808311612ef957829003601f168201915b505050505090806005018054612f2b90615815565b80601f0160208091040260200160405190810160405280929190818152602001828054612f5790615815565b8015612fa45780601f10612f7957610100808354040283529160200191612fa4565b820191906000526020600020905b815481529060010190602001808311612f8757829003601f168201915b505050505090806006018054612fb990615815565b80601f0160208091040260200160405190810160405280929190818152602001828054612fe590615815565b80156130325780601f1061300757610100808354040283529160200191613032565b820191906000526020600020905b81548152906001019060200180831161301557829003601f168201915b50505050509080600701805461304790615815565b80601f016020809104026020016040519081016040528092919081815260200182805461307390615815565b80156130c05780601f10613095576101008083540402835291602001916130c0565b820191906000526020600020905b8154815290600101906020018083116130a357829003601f168201915b5050505050908060080180546130d590615815565b80601f016020809104026020016040519081016040528092919081815260200182805461310190615815565b801561314e5780601f106131235761010080835404028352916020019161314e565b820191906000526020600020905b81548152906001019060200180831161313157829003601f168201915b505050505090806009015490508a565b6060806060600080600560008773ffffffffffffffffffffffffffffffffffffffff1673ffffffffffffffffffffffffffffffffffffffff168152602001908152602001600020905080600001816001018260020183600301548380546131c490615815565b80601f01602080910402602001604051908101604052809291908181526020018280546131f090615815565b801561323d5780601f106132125761010080835404028352916020019161323d565b820191906000526020600020905b81548152906001019060200180831161322057829003601f168201915b5050505050935082805461325090615815565b80601f016020809104026020016040519081016040528092919081815260200182805461327c90615815565b80156132c95780601f1061329e576101008083540402835291602001916132c9565b820191906000526020600020905b8154815290600101906020018083116132ac57829003601f168201915b505050505092508180546132dc90615815565b80601f016020809104026020016040519081016040528092919081815260200182805461330890615815565b80156133555780601f1061332a57610100808354040283529160200191613355565b820191906000526020600020905b81548152906001019060200180831161333857829003601f168201915b505050505091509450945094509450509193509193565b613376338261431b565b6133b5576040517f08c379a00000000000000000000000000000000000000000000000000000000081526004016133ac90615597565b60405180910390fd5b6000600460003373ffffffffffffffffffffffffffffffffffffffff1673ffffffffffffffffffffffffffffffffffffffff168152602001908152602001600020600801905060005b818054905081101561361c578273ffffffffffffffffffffffffffffffffffffffff1682828154811061345a577f4e487b7100000000000000000000000000000000000000000000000000000000600052603260045260246000fd5b9060005260206000200160009054906101000a900473ffffffffffffffffffffffffffffffffffffffff1673ffffffffffffffffffffffffffffffffffffffff1614156136095781600183805490506134b39190615757565b815481106134ea577f4e487b7100000000000000000000000000000000000000000000000000000000600052603260045260246000fd5b9060005260206000200160009054906101000a900473ffffffffffffffffffffffffffffffffffffffff1682828154811061354e577f4e487b7100000000000000000000000000000000000000000000000000000000600052603260045260246000fd5b9060005260206000200160006101000a81548173ffffffffffffffffffffffffffffffffffffffff021916908373ffffffffffffffffffffffffffffffffffffffff160217905550818054806135cd577f4e487b7100000000000000000000000000000000000000000000000000000000600052603160045260246000fd5b6001900381819060005260206000200160006101000a81549073ffffffffffffffffffffffffffffffffffffffff02191690559055505061361f565b808061361490615847565b9150506133fe565b50505b50565b6000818154811061363257600080fd5b906000526020600020016000915054906101000a900473ffffffffffffffffffffffffffffffffffffffff1681565b60036020528060005260406000206000915054906101000a900460ff1681565b6001818154811061369157600080fd5b906000526020600020016000915054906101000a900473ffffffffffffffffffffffffffffffffffffffff1681565b6060600460008373ffffffffffffffffffffffffffffffffffffffff1673ffffffffffffffffffffffffffffffffffffffff16815260200190815260200160002060080180548060200260200160405190810160405280929190818152602001828054801561378457602002820191906000526020600020905b8160009054906101000a900473ffffffffffffffffffffffffffffffffffffffff1673ffffffffffffffffffffffffffffffffffffffff168152602001906001019080831161373a575b50505050509050919050565b600360008a73ffffffffffffffffffffffffffffffffffffffff1673ffffffffffffffffffffffffffffffffffffffff16815260200190815260200160002060009054906101000a900460ff161561381d576040517f08c379a000000000000000000000000000000000000000000000000000000000815260040161381490615557565b60405180910390fd5b6000600460008b73ffffffffffffffffffffffffffffffffffffffff1673ffffffffffffffffffffffffffffffffffffffff168152602001908152602001600020905088816000019080519060200190613878929190614471565b5087816001019080519060200190613891929190614471565b50868160020190805190602001906138aa929190614471565b50858160030190805190602001906138c3929190614471565b50848160040190805190602001906138dc929190614471565b50838160050190805190602001906138f5929190614471565b508281600601908051906020019061390e929190614471565b5081816007019080519060200190613927929190614471565b5042816009018190555060008a9080600181540180825580915050600190039060005260206000200160009091909190916101000a81548173ffffffffffffffffffffffffffffffffffffffff021916908373ffffffffffffffffffffffffffffffffffffffff1602179055506001600360008c73ffffffffffffffffffffffffffffffffffffffff1673ffffffffffffffffffffffffffffffffffffffff16815260200190815260200160002060006101000a81548160ff02191690831515021790555050505050505050505050565b6000600460003373ffffffffffffffffffffffffffffffffffffffff1673ffffffffffffffffffffffffffffffffffffffff168152602001908152602001600020905088816000019080519060200190613a53929190614471565b5087816001019080519060200190613a6c929190614471565b5086816002019080519060200190613a85929190614471565b5085816003019080519060200190613a9e929190614471565b5084816004019080519060200190613ab7929190614471565b5083816005019080519060200190613ad0929190614471565b5082816006019080519060200190613ae9929190614471565b5081816007019080519060200190613b02929190614471565b50428160090181905550505050505050505050565b6060600760008373ffffffffffffffffffffffffffffffffffffffff1673ffffffffffffffffffffffffffffffffffffffff168152602001908152602001600020805480602002602001604051908101604052809291908181526020018280548015613bd857602002820191906000526020600020905b8160009054906101000a900473ffffffffffffffffffffffffffffffffffffffff1673ffffffffffffffffffffffffffffffffffffffff1681526020019060010190808311613b8e575b50505050509050919050565b6005602052806000526040600020600091509050806000018054613c0790615815565b80601f0160208091040260200160405190810160405280929190818152602001828054613c3390615815565b8015613c805780601f10613c5557610100808354040283529160200191613c80565b820191906000526020600020905b815481529060010190602001808311613c6357829003601f168201915b505050505090806001018054613c9590615815565b80601f0160208091040260200160405190810160405280929190818152602001828054613cc190615815565b8015613d0e5780601f10613ce357610100808354040283529160200191613d0e565b820191906000526020600020905b815481529060010190602001808311613cf157829003601f168201915b505050505090806002018054613d2390615815565b80601f0160208091040260200160405190810160405280929190818152602001828054613d4f90615815565b8015613d9c5780601f10613d7157610100808354040283529160200191613d9c565b820191906000526020600020905b815481529060010190602001808311613d7f57829003601f168201915b5050505050908060030154905084565b600360008973ffffffffffffffffffffffffffffffffffffffff1673ffffffffffffffffffffffffffffffffffffffff16815260200190815260200160002060009054906101000a900460ff16613e38576040517f08c379a0000000000000000000000000000000000000000000000000000000008152600401613e2f90615577565b60405180910390fd5b613e42883361431b565b613eea57600460008973ffffffffffffffffffffffffffffffffffffffff1673ffffffffffffffffffffffffffffffffffffffff168152602001908152602001600020600801339080600181540180825580915050600190039060005260206000200160009091909190916101000a81548173ffffffffffffffffffffffffffffffffffffffff021916908373ffffffffffffffffffffffffffffffffffffffff1602179055505b613ef26144f7565b88816000019073ffffffffffffffffffffffffffffffffffffffff16908173ffffffffffffffffffffffffffffffffffffffff168152505033816020019073ffffffffffffffffffffffffffffffffffffffff16908173ffffffffffffffffffffffffffffffffffffffff1681525050878160400181905250868160600181905250858160800181905250848160a00181905250838160c00181905250828160e00181905250818161010001819052504281610120018181525050600660008a73ffffffffffffffffffffffffffffffffffffffff1673ffffffffffffffffffffffffffffffffffffffff1681526020019081526020016000208190806001815401808255809150506001900390600052602060002090600a020160009091909190915060008201518160000160006101000a81548173ffffffffffffffffffffffffffffffffffffffff021916908373ffffffffffffffffffffffffffffffffffffffff16021790555060208201518160010160006101000a81548173ffffffffffffffffffffffffffffffffffffffff021916908373ffffffffffffffffffffffffffffffffffffffff16021790555060408201518160020190805190602001906140c0929190614471565b5060608201518160030190805190602001906140dd929190614471565b5060808201518160040190805190602001906140fa929190614471565b5060a0820151816005019080519060200190614117929190614471565b5060c0820151816006019080519060200190614134929190614471565b5060e0820151816007019080519060200190614151929190614471565b5061010082015181600801908051906020019061416f929190614471565b506101208201518160090155505060028190806001815401808255809150506001900390600052602060002090600a020160009091909190915060008201518160000160006101000a81548173ffffffffffffffffffffffffffffffffffffffff021916908373ffffffffffffffffffffffffffffffffffffffff16021790555060208201518160010160006101000a81548173ffffffffffffffffffffffffffffffffffffffff021916908373ffffffffffffffffffffffffffffffffffffffff1602179055506040820151816002019080519060200190614253929190614471565b506060820151816003019080519060200190614270929190614471565b50608082015181600401908051906020019061428d929190614471565b5060a08201518160050190805190602001906142aa929190614471565b5060c08201518160060190805190602001906142c7929190614471565b5060e08201518160070190805190602001906142e4929190614471565b50610100820151816008019080519060200190614302929190614471565b5061012082015181600901555050505050505050505050565b600080600090505b600460008573ffffffffffffffffffffffffffffffffffffffff1673ffffffffffffffffffffffffffffffffffffffff16815260200190815260200160002060080180549050811015614465578273ffffffffffffffffffffffffffffffffffffffff16600460008673ffffffffffffffffffffffffffffffffffffffff1673ffffffffffffffffffffffffffffffffffffffff1681526020019081526020016000206008018281548110614401577f4e487b7100000000000000000000000000000000000000000000000000000000600052603260045260246000fd5b9060005260206000200160009054906101000a900473ffffffffffffffffffffffffffffffffffffffff1673ffffffffffffffffffffffffffffffffffffffff16141561445257600191505061446b565b808061445d90615847565b915050614323565b50600090505b92915050565b82805461447d90615815565b90600052602060002090601f01602090048101928261449f57600085556144e6565b82601f106144b857805160ff19168380011785556144e6565b828001600101855582156144e6579182015b828111156144e55782518255916020019190600101906144ca565b5b5090506144f39190614576565b5090565b604051806101400160405280600073ffffffffffffffffffffffffffffffffffffffff168152602001600073ffffffffffffffffffffffffffffffffffffffff16815260200160608152602001606081526020016060815260200160608152602001606081526020016060815260200160608152602001600081525090565b5b8082111561458f576000816000905550600101614577565b5090565b60006145a66145a184615688565b615657565b9050828152602081018484840111156145be57600080fd5b6145c98482856157d3565b509392505050565b6000813590506145e08161592e565b92915050565b600082601f8301126145f757600080fd5b8135614607848260208601614593565b91505092915050565b60008135905061461f81615945565b92915050565b60006020828403121561463757600080fd5b6000614645848285016145d1565b91505092915050565b600080600080600080600080610100898b03121561466b57600080fd5b60006146798b828c016145d1565b985050602089013567ffffffffffffffff81111561469657600080fd5b6146a28b828c016145e6565b975050604089013567ffffffffffffffff8111156146bf57600080fd5b6146cb8b828c016145e6565b965050606089013567ffffffffffffffff8111156146e857600080fd5b6146f48b828c016145e6565b955050608089013567ffffffffffffffff81111561471157600080fd5b61471d8b828c016145e6565b94505060a089013567ffffffffffffffff81111561473a57600080fd5b6147468b828c016145e6565b93505060c089013567ffffffffffffffff81111561476357600080fd5b61476f8b828c016145e6565b92505060e089013567ffffffffffffffff81111561478c57600080fd5b6147988b828c016145e6565b9150509295985092959890939650565b60008060008060008060008060006101208a8c0312156147c757600080fd5b60006147d58c828d016145d1565b99505060208a013567ffffffffffffffff8111156147f257600080fd5b6147fe8c828d016145e6565b98505060408a013567ffffffffffffffff81111561481b57600080fd5b6148278c828d016145e6565b97505060608a013567ffffffffffffffff81111561484457600080fd5b6148508c828d016145e6565b96505060808a013567ffffffffffffffff81111561486d57600080fd5b6148798c828d016145e6565b95505060a08a013567ffffffffffffffff81111561489657600080fd5b6148a28c828d016145e6565b94505060c08a013567ffffffffffffffff8111156148bf57600080fd5b6148cb8c828d016145e6565b93505060e08a013567ffffffffffffffff8111156148e857600080fd5b6148f48c828d016145e6565b9250506101008a013567ffffffffffffffff81111561491257600080fd5b61491e8c828d016145e6565b9150509295985092959850929598565b6000806040838503121561494157600080fd5b600061494f858286016145d1565b925050602061496085828601614610565b9150509250929050565b60008060008060008060008060006101208a8c03121561498957600080fd5b60006149978c828d016145d1565b99505060206149a88c828d01614610565b98505060408a013567ffffffffffffffff8111156149c557600080fd5b6149d18c828d016145e6565b97505060608a013567ffffffffffffffff8111156149ee57600080fd5b6149fa8c828d016145e6565b96505060808a013567ffffffffffffffff811115614a1757600080fd5b614a238c828d016145e6565b95505060a08a013567ffffffffffffffff811115614a4057600080fd5b614a4c8c828d016145e6565b94505060c08a013567ffffffffffffffff811115614a6957600080fd5b614a758c828d016145e6565b93505060e08a013567ffffffffffffffff811115614a9257600080fd5b614a9e8c828d016145e6565b9250506101008a013567ffffffffffffffff811115614abc57600080fd5b614ac88c828d016145e6565b9150509295985092959850929598565b600080600060608486031215614aed57600080fd5b600084013567ffffffffffffffff811115614b0757600080fd5b614b13868287016145e6565b935050602084013567ffffffffffffffff811115614b3057600080fd5b614b3c868287016145e6565b925050604084013567ffffffffffffffff811115614b5957600080fd5b614b65868287016145e6565b9150509250925092565b600080600080600080600080610100898b031215614b8c57600080fd5b600089013567ffffffffffffffff811115614ba657600080fd5b614bb28b828c016145e6565b985050602089013567ffffffffffffffff811115614bcf57600080fd5b614bdb8b828c016145e6565b975050604089013567ffffffffffffffff811115614bf857600080fd5b614c048b828c016145e6565b965050606089013567ffffffffffffffff811115614c2157600080fd5b614c2d8b828c016145e6565b955050608089013567ffffffffffffffff811115614c4a57600080fd5b614c568b828c016145e6565b94505060a089013567ffffffffffffffff811115614c7357600080fd5b614c7f8b828c016145e6565b93505060c089013567ffffffffffffffff811115614c9c57600080fd5b614ca88b828c016145e6565b92505060e089013567ffffffffffffffff811115614cc557600080fd5b614cd18b828c016145e6565b9150509295985092959890939650565b600060208284031215614cf357600080fd5b6000614d0184828501614610565b91505092915050565b6000614d168383614d36565b60208301905092915050565b6000614d2e83836150f4565b905092915050565b614d3f8161578b565b82525050565b614d4e8161578b565b82525050565b6000614d5f826156d8565b614d698185615713565b9350614d74836156b8565b8060005b83811015614da5578151614d8c8882614d0a565b9750614d97836156f9565b925050600181019050614d78565b5085935050505092915050565b6000614dbd826156e3565b614dc78185615724565b935083602082028501614dd9856156c8565b8060005b85811015614e155784840389528151614df68582614d22565b9450614e0183615706565b925060208a01995050600181019050614ddd565b50829750879550505050505092915050565b614e308161579d565b82525050565b6000614e41826156ee565b614e4b8185615735565b9350614e5b8185602086016157e2565b614e648161591d565b840191505092915050565b6000614e7a826156ee565b614e848185615746565b9350614e948185602086016157e2565b614e9d8161591d565b840191505092915050565b6000614eb5601a83615746565b91507f50617469656e7420616c726561647920726567697374657265640000000000006000830152602082019050919050565b6000614ef5601683615746565b91507f50617469656e74206e6f742072656769737465726564000000000000000000006000830152602082019050919050565b6000614f35601783615746565b91507f486f73706974616c206e6f7420617574686f72697a65640000000000000000006000830152602082019050919050565b6000614f75603083615746565b91507f4e6f206d65646963616c20686973746f7279207265636f72647320666f756e6460008301527f20666f72207468652070617469656e74000000000000000000000000000000006020830152604082019050919050565b6000614fdb601483615746565b91507f5265717565737420616c72656164792073656e740000000000000000000000006000830152602082019050919050565b600061501b601b83615746565b91507f486f73706974616c20616c7265616479207265676973746572656400000000006000830152602082019050919050565b600061505b601b83615746565b91507f486f73706974616c20616c726561647920617574686f72697a656400000000006000830152602082019050919050565b600061509b603b83615746565b91507f4d65646963616c20686973746f7279207265636f7264206e6f7420666f756e6460008301527f20666f72207468652073706563696669656420686f73706974616c00000000006020830152604082019050919050565b60006101408301600083015161510d6000860182614d36565b5060208301516151206020860182614d36565b50604083015184820360408601526151388282614e36565b915050606083015184820360608601526151528282614e36565b9150506080830151848203608086015261516c8282614e36565b91505060a083015184820360a08601526151868282614e36565b91505060c083015184820360c08601526151a08282614e36565b91505060e083015184820360e08601526151ba8282614e36565b9150506101008301518482036101008601526151d68282614e36565b9150506101208301516151ed6101208601826151f8565b508091505092915050565b615201816157c9565b82525050565b615210816157c9565b82525050565b600060208201905061522b6000830184614d45565b92915050565b600061014082019050615247600083018d614d45565b615254602083018c614d45565b8181036040830152615266818b614e6f565b9050818103606083015261527a818a614e6f565b9050818103608083015261528e8189614e6f565b905081810360a08301526152a28188614e6f565b905081810360c08301526152b68187614e6f565b905081810360e08301526152ca8186614e6f565b90508181036101008301526152df8185614e6f565b90506152ef610120830184615207565b9b9a5050505050505050505050565b600060208201905081810360008301526153188184614d54565b905092915050565b6000602082019050818103600083015261533a8184614db2565b905092915050565b60006020820190506153576000830184614e27565b92915050565b6000610140820190508181036000830152615378818d614e6f565b9050818103602083015261538c818c614e6f565b905081810360408301526153a0818b614e6f565b905081810360608301526153b4818a614e6f565b905081810360808301526153c88189614e6f565b905081810360a08301526153dc8188614e6f565b905081810360c08301526153f08187614e6f565b905081810360e08301526154048186614e6f565b90508181036101008301526154198185614d54565b9050615429610120830184615207565b9b9a5050505050505050505050565b6000610120820190508181036000830152615453818c614e6f565b90508181036020830152615467818b614e6f565b9050818103604083015261547b818a614e6f565b9050818103606083015261548f8189614e6f565b905081810360808301526154a38188614e6f565b905081810360a08301526154b78187614e6f565b905081810360c08301526154cb8186614e6f565b905081810360e08301526154df8185614e6f565b90506154ef610100830184615207565b9a9950505050505050505050565b600060808201905081810360008301526155178187614e6f565b9050818103602083015261552b8186614e6f565b9050818103604083015261553f8185614e6f565b905061554e6060830184615207565b95945050505050565b6000602082019050818103600083015261557081614ea8565b9050919050565b6000602082019050818103600083015261559081614ee8565b9050919050565b600060208201905081810360008301526155b081614f28565b9050919050565b600060208201905081810360008301526155d081614f68565b9050919050565b600060208201905081810360008301526155f081614fce565b9050919050565b600060208201905081810360008301526156108161500e565b9050919050565b600060208201905081810360008301526156308161504e565b9050919050565b600060208201905081810360008301526156508161508e565b9050919050565b6000604051905081810181811067ffffffffffffffff8211171561567e5761567d6158ee565b5b8060405250919050565b600067ffffffffffffffff8211156156a3576156a26158ee565b5b601f19601f8301169050602081019050919050565b6000819050602082019050919050565b6000819050602082019050919050565b600081519050919050565b600081519050919050565b600081519050919050565b6000602082019050919050565b6000602082019050919050565b600082825260208201905092915050565b600082825260208201905092915050565b600082825260208201905092915050565b600082825260208201905092915050565b6000615762826157c9565b915061576d836157c9565b9250828210156157805761577f615890565b5b828203905092915050565b6000615796826157a9565b9050919050565b60008115159050919050565b600073ffffffffffffffffffffffffffffffffffffffff82169050919050565b6000819050919050565b82818337600083830152505050565b60005b838110156158005780820151818401526020810190506157e5565b8381111561580f576000848401525b50505050565b6000600282049050600182168061582d57607f821691505b60208210811415615841576158406158bf565b5b50919050565b6000615852826157c9565b91507fffffffffffffffffffffffffffffffffffffffffffffffffffffffffffffffff82141561588557615884615890565b5b600182019050919050565b7f4e487b7100000000000000000000000000000000000000000000000000000000600052601160045260246000fd5b7f4e487b7100000000000000000000000000000000000000000000000000000000600052602260045260246000fd5b7f4e487b7100000000000000000000000000000000000000000000000000000000600052604160045260246000fd5b6000601f19601f8301169050919050565b6159378161578b565b811461594257600080fd5b50565b61594e816157c9565b811461595957600080fd5b5056fea2646970667358221220b4ff653ee06daa4a97f5dacbd5f71d2b6d98f6f79253c176cca566dd4a3b32ce64736f6c63430008000033",
  "immutableReferences": {},
  "source": "// SPDX-License-Identifier: MIT\r\npragma solidity ^0.8.0;\r\n\r\n//GALING REMIX TO ABBY AT TESTED NA TO\r\n\r\ncontract MediVerse {\r\n    \r\n    struct Patient {\r\n        string name;\r\n        string age;\r\n        string gender;\r\n        string dateOfBirth;\r\n        string height;\r\n        string weight;\r\n        string contactNum;\r\n        string addr;\r\n        address[] authorizedHospitals;\r\n        uint creationDate;\r\n    }\r\n\r\n    struct Hospital {\r\n        string name;\r\n        string contactNum;\r\n        string addr;\r\n        uint creationDate;\r\n    }\r\n\r\n    struct MedicalHistory {\r\n        address patientAddr;\r\n        address hospitalAddr;\r\n        string physician;\r\n        string diagnosis;\r\n        string signsAndSymptoms;\r\n        string treatmentProcedure;\r\n        string tests;\r\n        string medications;\r\n        string admission;\r\n        uint creationDate;\r\n    }\r\n\r\n    address[] public patientList; \r\n    address[] public hospitalList;\r\n    MedicalHistory[] public medicalHistoryList;\r\n    mapping(address => bool) public isRegistered;\r\n    mapping(address => Patient) public patients;\r\n    mapping(address => Hospital) public hospitals;\r\n    mapping(address => MedicalHistory[]) public medicalHistories;\r\n    mapping(address => address[]) private pendingRequests;\r\n\r\n    modifier isRegister() {\r\n        require(isRegistered[msg.sender], \"Account is not registered\");\r\n        _;\r\n    }\r\n\r\n    modifier isAuthorized(address _patientAddr) {\r\n        require(\r\n            isHospitalAuthorized(_patientAddr, msg.sender),\r\n            \"Hospital not authorized to access patient records\"\r\n        );\r\n        _;\r\n    }\r\n\r\n    function isHospitalAuthorized(address _patientAddr, address _hospitalAddr) internal view returns (bool) {\r\n        for (uint i = 0; i < patients[_patientAddr].authorizedHospitals.length; i++) {\r\n            if (patients[_patientAddr].authorizedHospitals[i] == _hospitalAddr) {\r\n                return true;\r\n            }\r\n        }\r\n        return false;\r\n    }\r\n\r\n    function registerPatient(\r\n        string memory _name,\r\n        string memory _age,\r\n        string memory _gender,\r\n        string memory _dateOfBirth,\r\n        string memory _height,\r\n        string memory _weight,\r\n        string memory _contactNum,\r\n        string memory _address\r\n    ) public {\r\n        require(!isRegistered[msg.sender], \"Patient already registered\");\r\n        Patient storage patient = patients[msg.sender];\r\n        patient.name = _name;\r\n        patient.age = _age;\r\n        patient.gender = _gender;\r\n        patient.dateOfBirth = _dateOfBirth;\r\n        patient.height = _height;\r\n        patient.weight = _weight;\r\n        patient.contactNum = _contactNum;\r\n        patient.addr = _address;\r\n        patient.creationDate = block.timestamp;\r\n        patientList.push(msg.sender);\r\n        isRegistered[msg.sender] = true;\r\n    }\r\n\r\n    function editPatientDetails(\r\n        string memory _name,\r\n        string memory _age,\r\n        string memory _gender,\r\n        string memory _dateOfBirth,\r\n        string memory _height,\r\n        string memory _weight,\r\n        string memory _contactNum,\r\n        string memory _address\r\n    ) public {\r\n        Patient storage patient = patients[msg.sender];\r\n        patient.name = _name;\r\n        patient.age = _age;\r\n        patient.gender = _gender;\r\n        patient.dateOfBirth = _dateOfBirth;\r\n        patient.height = _height;\r\n        patient.weight = _weight;\r\n        patient.contactNum = _contactNum;\r\n        patient.addr = _address;\r\n        patient.creationDate = block.timestamp;\r\n    }\r\n\r\n    function registerHospital(\r\n        string memory _name,\r\n        string memory _contactNum,\r\n        string memory _address\r\n    ) public {\r\n        require(!isRegistered[msg.sender], \"Hospital already registered\");\r\n        Hospital storage hospital = hospitals[msg.sender];\r\n        hospital.name = _name;\r\n        hospital.contactNum = _contactNum;\r\n        hospital.addr = _address;\r\n        hospital.creationDate = block.timestamp;\r\n\r\n        hospitalList.push(msg.sender);\r\n        isRegistered[msg.sender] = true;\r\n    }\r\n\r\n    function editHospitalDetails(\r\n        string memory _name,\r\n        string memory _contactNum,\r\n        string memory _addr\r\n    ) public {\r\n        Hospital storage hospital = hospitals[msg.sender];\r\n        hospital.name = _name;\r\n        hospital.contactNum = _contactNum;\r\n        hospital.addr = _addr;\r\n        hospital.creationDate = block.timestamp;\r\n    }\r\n\r\n    function addMedicalHistory(\r\n        address _patientAddr,\r\n        string memory _physician,\r\n        string memory _diagnosis,\r\n        string memory _signsAndSymptoms,\r\n        string memory _treatmentProcedure,\r\n        string memory _tests,\r\n        string memory _medications,\r\n        string memory _admission\r\n    ) public {\r\n        require(isRegistered[_patientAddr], \"Patient not registered\");\r\n        if (!isHospitalAuthorized(_patientAddr, msg.sender)) {\r\n            patients[_patientAddr].authorizedHospitals.push(msg.sender);\r\n        }\r\n        MedicalHistory memory history;\r\n        history.patientAddr = _patientAddr;\r\n        history.hospitalAddr = msg.sender;\r\n        history.physician = _physician;\r\n        history.diagnosis = _diagnosis;\r\n        history.signsAndSymptoms = _signsAndSymptoms;\r\n        history.treatmentProcedure = _treatmentProcedure;\r\n        history.tests = _tests;\r\n        history.medications = _medications;\r\n        history.admission = _admission;\r\n        history.creationDate = block.timestamp; //just added a timestamp here para sa pag check for notif\r\n\r\n        medicalHistories[_patientAddr].push(history);\r\n        medicalHistoryList.push(history);\r\n    }\r\n\r\n    function editMedicalHistory(\r\n        address _patientAddr,\r\n        uint creationDate,\r\n        string memory _physician,\r\n        string memory _diagnosis,\r\n        string memory _signsAndSymptoms,\r\n        string memory _treatmentProcedure,\r\n        string memory _tests,\r\n        string memory _medications,\r\n        string memory _admission\r\n    ) public {\r\n        MedicalHistory[] storage history = medicalHistories[_patientAddr];\r\n        require(history.length > 0, \"No medical history records found for the patient\");\r\n        for (uint i = 0; i < history.length; i++) {\r\n            if (history[i].creationDate == creationDate && history[i].hospitalAddr == msg.sender) {\r\n                history[i].physician = _physician;\r\n                history[i].diagnosis = _diagnosis;\r\n                history[i].signsAndSymptoms = _signsAndSymptoms;\r\n                history[i].treatmentProcedure = _treatmentProcedure;\r\n                history[i].tests = _tests;\r\n                history[i].medications = _medications;\r\n                history[i].admission = _admission; \r\n                return; \r\n            }\r\n        }\r\n        revert(\"Medical history record not found for the specified hospital\");\r\n    }\r\n\r\n    function addPatient(\r\n        address _patientAddr,\r\n        string memory _name,\r\n        string memory _age,\r\n        string memory _gender,\r\n        string memory _dateOfBirth,\r\n        string memory _height,\r\n        string memory _weight,\r\n        string memory _contactNum,\r\n        string memory _address\r\n    ) public {\r\n        require(!isRegistered[_patientAddr], \"Patient already registered\");\r\n        Patient storage patient = patients[_patientAddr];\r\n        patient.name = _name;\r\n        patient.age = _age;\r\n        patient.gender = _gender;\r\n        patient.dateOfBirth = _dateOfBirth;\r\n        patient.height = _height;\r\n        patient.weight = _weight;\r\n        patient.contactNum = _contactNum;\r\n        patient.addr = _address;\r\n        patient.creationDate = block.timestamp;\r\n        patientList.push(_patientAddr);\r\n        isRegistered[_patientAddr] = true;\r\n    }\r\n\r\n    function getMedicalHistory(address _patientAddr) public view returns (MedicalHistory[] memory) {\r\n        return medicalHistories[_patientAddr];\r\n    }\r\n\r\n    function getAllMedicalHistory() public view returns (MedicalHistory[] memory) {\r\n        return medicalHistoryList;\r\n    }\r\n\r\n    function getPatientInfo(address patientAddress) external view returns (string memory, string memory, string memory, string memory, string memory, string memory, string memory, string memory, address[] memory, uint) {\r\n        Patient storage patient = patients[patientAddress];\r\n        return (patient.name, patient.age, patient.gender, patient.dateOfBirth, patient.height, patient.weight, patient.contactNum, patient.addr, patient.authorizedHospitals, patient.creationDate);\r\n    }\r\n\r\n    function getHospitalInfo(address hospitalAddress) external view returns (string memory, string memory, string memory, uint) {\r\n        Hospital storage hospital = hospitals[hospitalAddress];\r\n        return (hospital.name, hospital.contactNum, hospital.addr, hospital.creationDate);\r\n    }\r\n    \r\n    function givePermission(address _hospitalAddr) public  {\r\n        require(!isHospitalAuthorized(msg.sender, _hospitalAddr), \"Hospital already authorized\");\r\n        address[] storage pending = pendingRequests[msg.sender];\r\n        for (uint i = 0; i < pending.length; i++) {\r\n            if (pending[i] == _hospitalAddr) {\r\n                pending[i] = pending[pending.length - 1];\r\n                pending.pop();\r\n                break;\r\n            }\r\n        }\r\n        patients[msg.sender].authorizedHospitals.push(_hospitalAddr);\r\n    }\r\n\r\n    function revokeAccess(address _hospitalAddr) public {\r\n        require(isHospitalAuthorized(msg.sender, _hospitalAddr), \"Hospital not authorized\");\r\n        address[] storage authorizedHospitals = patients[msg.sender].authorizedHospitals;\r\n        for (uint i = 0; i < authorizedHospitals.length; i++) {\r\n            if (authorizedHospitals[i] == _hospitalAddr) {\r\n                authorizedHospitals[i] = authorizedHospitals[authorizedHospitals.length - 1];\r\n                authorizedHospitals.pop();\r\n                return;\r\n            }\r\n        }\r\n    }\r\n\r\n    function requestPermission(address _patientAddr) public {\r\n        require(!isHospitalAuthorized(_patientAddr, msg.sender), \"Request already sent\");\r\n        pendingRequests[_patientAddr].push(msg.sender);\r\n    }\r\n\r\n    function getAuthorizedHospitals(address _patientAddr) public view returns (address[] memory) {\r\n        return patients[_patientAddr].authorizedHospitals;\r\n    }\r\n\r\n    function getPendingRequests(address _patientAddr) public view returns (address[] memory) {\r\n        return pendingRequests[_patientAddr];\r\n    }\r\n\r\n    function getPatientList() public view returns (address[] memory) {\r\n        return patientList;\r\n    }\r\n\r\n    function getHospitalList() public view returns (address[] memory) {\r\n        return hospitalList;\r\n    }\r\n}",
  "sourcePath": "C:\\Users\\Abby\\Desktop\\APPCON 2023\\MediVerse-Web3-Dapp\\contracts\\MediVerse.sol",
  "compiler": {
    "name": "solc",
    "version": "0.8.0+commit.c7dfd78e.Emscripten.clang"
  },
  "schemaVersion": "3.4.16",
  "updatedAt": "2024-04-27T06:43:27.029Z",
  "networkType": "ethereum",
  "devdoc": {
    "kind": "dev",
    "methods": {},
    "version": 1
  },
  "userdoc": {
    "kind": "user",
    "methods": {},
    "version": 1
  }
}