{
  "contractName": "MedicalHistoryRecords",
  "abi": [
    {
      "anonymous": false,
      "inputs": [
        {
          "indexed": false,
          "internalType": "address",
          "name": "patientAddr",
          "type": "address"
        }
      ],
      "name": "MedicalHistoryRecordAdded",
      "type": "event"
    },
    {
      "anonymous": false,
      "inputs": [
        {
          "indexed": false,
          "internalType": "address",
          "name": "patientAddr",
          "type": "address"
        }
      ],
      "name": "MedicalHistoryRecordEdited",
      "type": "event"
    },
    {
      "inputs": [
        {
          "internalType": "string",
          "name": "_hospitalName",
          "type": "string"
        },
        {
          "internalType": "string",
          "name": "_contactNum",
          "type": "string"
        },
        {
          "internalType": "string",
          "name": "_hospitalAddress",
          "type": "string"
        }
      ],
      "name": "editHospitalProfile",
      "outputs": [],
      "stateMutability": "nonpayable",
      "type": "function"
    },
    {
      "inputs": [],
      "name": "getHospitalCount",
      "outputs": [
        {
          "internalType": "uint256",
          "name": "",
          "type": "uint256"
        }
      ],
      "stateMutability": "view",
      "type": "function",
      "constant": true
    },
    {
      "inputs": [],
      "name": "getHospitalList",
      "outputs": [
        {
          "internalType": "address[]",
          "name": "",
          "type": "address[]"
        }
      ],
      "stateMutability": "view",
      "type": "function",
      "constant": true
    },
    {
      "inputs": [
        {
          "internalType": "address",
          "name": "",
          "type": "address"
        }
      ],
      "name": "historyRecords",
      "outputs": [
        {
          "internalType": "address",
          "name": "owner",
          "type": "address"
        },
        {
          "internalType": "address",
          "name": "hospitalAddr",
          "type": "address"
        },
        {
          "internalType": "string",
          "name": "hospital",
          "type": "string"
        },
        {
          "internalType": "string",
          "name": "physician",
          "type": "string"
        },
        {
          "internalType": "string",
          "name": "dateOfDiagnosis",
          "type": "string"
        },
        {
          "internalType": "string",
          "name": "diagnosis",
          "type": "string"
        },
        {
          "internalType": "string",
          "name": "symptoms",
          "type": "string"
        },
        {
          "internalType": "string",
          "name": "durationSeverity",
          "type": "string"
        },
        {
          "internalType": "string",
          "name": "signs",
          "type": "string"
        },
        {
          "internalType": "string",
          "name": "relevantMedicalHistory",
          "type": "string"
        }
      ],
      "stateMutability": "view",
      "type": "function",
      "constant": true
    },
    {
      "inputs": [],
      "name": "hospitalCount",
      "outputs": [
        {
          "internalType": "uint256",
          "name": "",
          "type": "uint256"
        }
      ],
      "stateMutability": "view",
      "type": "function",
      "constant": true
    },
    {
      "inputs": [
        {
          "internalType": "uint256",
          "name": "",
          "type": "uint256"
        }
      ],
      "name": "hospitalList",
      "outputs": [
        {
          "internalType": "address",
          "name": "",
          "type": "address"
        }
      ],
      "stateMutability": "view",
      "type": "function",
      "constant": true
    },
    {
      "inputs": [
        {
          "internalType": "address",
          "name": "",
          "type": "address"
        }
      ],
      "name": "hospitals",
      "outputs": [
        {
          "internalType": "string",
          "name": "hospitalName",
          "type": "string"
        },
        {
          "internalType": "string",
          "name": "contactNum",
          "type": "string"
        },
        {
          "internalType": "string",
          "name": "hospitalAddress",
          "type": "string"
        },
        {
          "internalType": "address",
          "name": "addr",
          "type": "address"
        },
        {
          "internalType": "uint256",
          "name": "date",
          "type": "uint256"
        }
      ],
      "stateMutability": "view",
      "type": "function",
      "constant": true
    },
    {
      "inputs": [
        {
          "internalType": "address",
          "name": "",
          "type": "address"
        }
      ],
      "name": "isHospital",
      "outputs": [
        {
          "internalType": "bool",
          "name": "",
          "type": "bool"
        }
      ],
      "stateMutability": "view",
      "type": "function",
      "constant": true
    },
    {
      "inputs": [],
      "name": "medicalHistoryCount",
      "outputs": [
        {
          "internalType": "uint256",
          "name": "",
          "type": "uint256"
        }
      ],
      "stateMutability": "view",
      "type": "function",
      "constant": true
    },
    {
      "inputs": [
        {
          "internalType": "uint256",
          "name": "",
          "type": "uint256"
        }
      ],
      "name": "medicalHistoryList",
      "outputs": [
        {
          "internalType": "address",
          "name": "",
          "type": "address"
        }
      ],
      "stateMutability": "view",
      "type": "function",
      "constant": true
    },
    {
      "inputs": [
        {
          "internalType": "address",
          "name": "",
          "type": "address"
        },
        {
          "internalType": "uint256",
          "name": "",
          "type": "uint256"
        }
      ],
      "name": "patientHistoryRecords",
      "outputs": [
        {
          "internalType": "address",
          "name": "",
          "type": "address"
        }
      ],
      "stateMutability": "view",
      "type": "function",
      "constant": true
    },
    {
      "inputs": [
        {
          "internalType": "string",
          "name": "_hospitalName",
          "type": "string"
        },
        {
          "internalType": "string",
          "name": "_contactNum",
          "type": "string"
        },
        {
          "internalType": "string",
          "name": "_hospitalAddress",
          "type": "string"
        }
      ],
      "name": "registerHospital",
      "outputs": [],
      "stateMutability": "nonpayable",
      "type": "function"
    },
    {
      "inputs": [
        {
          "internalType": "address",
          "name": "_patientAddr",
          "type": "address"
        },
        {
          "internalType": "string",
          "name": "_physician",
          "type": "string"
        },
        {
          "internalType": "string",
          "name": "_hospital",
          "type": "string"
        },
        {
          "internalType": "string",
          "name": "_dateOfDiagnosis",
          "type": "string"
        },
        {
          "internalType": "string",
          "name": "_diagnosis",
          "type": "string"
        },
        {
          "internalType": "string",
          "name": "_symptoms",
          "type": "string"
        },
        {
          "internalType": "string",
          "name": "_durationSeverity",
          "type": "string"
        },
        {
          "internalType": "string",
          "name": "_signs",
          "type": "string"
        },
        {
          "internalType": "string",
          "name": "_relevantMedicalHistory",
          "type": "string"
        }
      ],
      "name": "addMedicalHistory",
      "outputs": [],
      "stateMutability": "nonpayable",
      "type": "function"
    },
    {
      "inputs": [
        {
          "internalType": "address",
          "name": "_patientAddr",
          "type": "address"
        },
        {
          "internalType": "string",
          "name": "_physician",
          "type": "string"
        },
        {
          "internalType": "string",
          "name": "_hospital",
          "type": "string"
        },
        {
          "internalType": "string",
          "name": "_dateOfDiagnosis",
          "type": "string"
        },
        {
          "internalType": "string",
          "name": "_diagnosis",
          "type": "string"
        },
        {
          "internalType": "string",
          "name": "_symptoms",
          "type": "string"
        },
        {
          "internalType": "string",
          "name": "_durationSeverity",
          "type": "string"
        },
        {
          "internalType": "string",
          "name": "_signs",
          "type": "string"
        },
        {
          "internalType": "string",
          "name": "_relevantMedicalHistory",
          "type": "string"
        }
      ],
      "name": "editMedicalHistory",
      "outputs": [],
      "stateMutability": "nonpayable",
      "type": "function"
    },
    {
      "inputs": [],
      "name": "getAllMedicalHistory",
      "outputs": [
        {
          "internalType": "address[]",
          "name": "",
          "type": "address[]"
        }
      ],
      "stateMutability": "view",
      "type": "function",
      "constant": true
    }
  ],
  "bytecode": "0x60806040526000600355600060075534801561001a57600080fd5b50611f998061002a6000396000f3fe608060405234801561001057600080fd5b50600436106100f55760003560e01c8063526b44ac11610097578063bdf6c67311610066578063bdf6c6731461027b578063c82412b9146102ab578063f093cf80146102db578063fe45a81d1461030f576100f5565b8063526b44ac146101f55780635d7e5396146102115780636933e414146102415780639aec2c1e1461025f576100f5565b806321a1500a116100d357806321a1500a14610181578063350dadb71461019d57806338feda25146101bb5780634150f554146101d7576100f5565b806317c586bc146100fa57806319406a64146101185780631d31ea8214610148575b600080fd5b61010261032d565b60405161010f9190611cc1565b60405180910390f35b610132600480360381019061012d91906119b9565b610333565b60405161013f9190611b0d565b60405180910390f35b610162600480360381019061015d9190611737565b610372565b6040516101789a99989796959493929190611b28565b60405180910390f35b61019b60048036038101906101969190611922565b610846565b005b6101a5610930565b6040516101b29190611cc1565b60405180910390f35b6101d560048036038101906101d09190611760565b610936565b005b6101df610b6e565b6040516101ec9190611bfc565b60405180910390f35b61020f600480360381019061020a9190611922565b610bfc565b005b61022b600480360381019061022691906118e6565b610fed565b6040516102389190611b0d565b60405180910390f35b61024961103b565b6040516102569190611bfc565b60405180910390f35b61027960048036038101906102749190611760565b6110c9565b005b61029560048036038101906102909190611737565b6113ab565b6040516102a29190611c1e565b60405180910390f35b6102c560048036038101906102c091906119b9565b6113cb565b6040516102d29190611b0d565b60405180910390f35b6102f560048036038101906102f09190611737565b61140a565b604051610306959493929190611c39565b60405180910390f35b6103176115f8565b6040516103249190611cc1565b60405180910390f35b60075481565b6004818154811061034357600080fd5b906000526020600020016000915054906101000a900473ffffffffffffffffffffffffffffffffffffffff1681565b60056020528060005260406000206000915090508060000160009054906101000a900473ffffffffffffffffffffffffffffffffffffffff16908060010160009054906101000a900473ffffffffffffffffffffffffffffffffffffffff16908060020180546103e190611e1c565b80601f016020809104026020016040519081016040528092919081815260200182805461040d90611e1c565b801561045a5780601f1061042f5761010080835404028352916020019161045a565b820191906000526020600020905b81548152906001019060200180831161043d57829003601f168201915b50505050509080600301805461046f90611e1c565b80601f016020809104026020016040519081016040528092919081815260200182805461049b90611e1c565b80156104e85780601f106104bd576101008083540402835291602001916104e8565b820191906000526020600020905b8154815290600101906020018083116104cb57829003601f168201915b5050505050908060040180546104fd90611e1c565b80601f016020809104026020016040519081016040528092919081815260200182805461052990611e1c565b80156105765780601f1061054b57610100808354040283529160200191610576565b820191906000526020600020905b81548152906001019060200180831161055957829003601f168201915b50505050509080600501805461058b90611e1c565b80601f01602080910402602001604051908101604052809291908181526020018280546105b790611e1c565b80156106045780601f106105d957610100808354040283529160200191610604565b820191906000526020600020905b8154815290600101906020018083116105e757829003601f168201915b50505050509080600601805461061990611e1c565b80601f016020809104026020016040519081016040528092919081815260200182805461064590611e1c565b80156106925780601f1061066757610100808354040283529160200191610692565b820191906000526020600020905b81548152906001019060200180831161067557829003601f168201915b5050505050908060070180546106a790611e1c565b80601f01602080910402602001604051908101604052809291908181526020018280546106d390611e1c565b80156107205780601f106106f557610100808354040283529160200191610720565b820191906000526020600020905b81548152906001019060200180831161070357829003601f168201915b50505050509080600801805461073590611e1c565b80601f016020809104026020016040519081016040528092919081815260200182805461076190611e1c565b80156107ae5780601f10610783576101008083540402835291602001916107ae565b820191906000526020600020905b81548152906001019060200180831161079157829003601f168201915b5050505050908060090180546107c390611e1c565b80601f01602080910402602001604051908101604052809291908181526020018280546107ef90611e1c565b801561083c5780601f106108115761010080835404028352916020019161083c565b820191906000526020600020905b81548152906001019060200180831161081f57829003601f168201915b505050505090508a565b600260003373ffffffffffffffffffffffffffffffffffffffff1673ffffffffffffffffffffffffffffffffffffffff16815260200190815260200160002060009054906101000a900460ff1661089c57600080fd5b6000600160003373ffffffffffffffffffffffffffffffffffffffff1673ffffffffffffffffffffffffffffffffffffffff1681526020019081526020016000209050838160000190805190602001906108f7929190611602565b5082816001019080519060200190610910929190611602565b5081816002019080519060200190610929929190611602565b5050505050565b60035481565b600260003373ffffffffffffffffffffffffffffffffffffffff1673ffffffffffffffffffffffffffffffffffffffff16815260200190815260200160002060009054906101000a900460ff1661098c57600080fd5b6000600560008b73ffffffffffffffffffffffffffffffffffffffff1673ffffffffffffffffffffffffffffffffffffffff1681526020019081526020016000209050600073ffffffffffffffffffffffffffffffffffffffff168160010160009054906101000a900473ffffffffffffffffffffffffffffffffffffffff1673ffffffffffffffffffffffffffffffffffffffff161415610a63576040517f08c379a0000000000000000000000000000000000000000000000000000000008152600401610a5a90611ca1565b60405180910390fd5b88816003019080519060200190610a7b929190611602565b5087816002019080519060200190610a94929190611602565b5086816004019080519060200190610aad929190611602565b5085816005019080519060200190610ac6929190611602565b5084816006019080519060200190610adf929190611602565b5083816007019080519060200190610af8929190611602565b5082816008019080519060200190610b11929190611602565b5081816009019080519060200190610b2a929190611602565b507f1bb1b20e403b5435168413f507756985b0194ec0a05d36b709aff1b99e7e0ea48a604051610b5a9190611b0d565b60405180910390a150505050505050505050565b60606004805480602002602001604051908101604052809291908181526020018280548015610bf257602002820191906000526020600020905b8160009054906101000a900473ffffffffffffffffffffffffffffffffffffffff1673ffffffffffffffffffffffffffffffffffffffff1681526020019060010190808311610ba8575b5050505050905090565b600260003373ffffffffffffffffffffffffffffffffffffffff1673ffffffffffffffffffffffffffffffffffffffff16815260200190815260200160002060009054906101000a900460ff1615610c5357600080fd5b6000600160003373ffffffffffffffffffffffffffffffffffffffff1673ffffffffffffffffffffffffffffffffffffffff1681526020019081526020016000206040518060a0016040529081600082018054610caf90611e1c565b80601f0160208091040260200160405190810160405280929190818152602001828054610cdb90611e1c565b8015610d285780601f10610cfd57610100808354040283529160200191610d28565b820191906000526020600020905b815481529060010190602001808311610d0b57829003601f168201915b50505050508152602001600182018054610d4190611e1c565b80601f0160208091040260200160405190810160405280929190818152602001828054610d6d90611e1c565b8015610dba5780601f10610d8f57610100808354040283529160200191610dba565b820191906000526020600020905b815481529060010190602001808311610d9d57829003601f168201915b50505050508152602001600282018054610dd390611e1c565b80601f0160208091040260200160405190810160405280929190818152602001828054610dff90611e1c565b8015610e4c5780601f10610e2157610100808354040283529160200191610e4c565b820191906000526020600020905b815481529060010190602001808311610e2f57829003601f168201915b505050505081526020016003820160009054906101000a900473ffffffffffffffffffffffffffffffffffffffff1673ffffffffffffffffffffffffffffffffffffffff1673ffffffffffffffffffffffffffffffffffffffff168152602001600482015481525050905083816000018190525082816020018190525081816040018190525033816060019073ffffffffffffffffffffffffffffffffffffffff16908173ffffffffffffffffffffffffffffffffffffffff1681525050428160800181815250506000339080600181540180825580915050600190039060005260206000200160009091909190916101000a81548173ffffffffffffffffffffffffffffffffffffffff021916908373ffffffffffffffffffffffffffffffffffffffff1602179055506001600260003373ffffffffffffffffffffffffffffffffffffffff1673ffffffffffffffffffffffffffffffffffffffff16815260200190815260200160002060006101000a81548160ff02191690831515021790555060036000815480929190610fe290611e4e565b919050555050505050565b6006602052816000526040600020818154811061100957600080fd5b906000526020600020016000915091509054906101000a900473ffffffffffffffffffffffffffffffffffffffff1681565b606060008054806020026020016040519081016040528092919081815260200182805480156110bf57602002820191906000526020600020905b8160009054906101000a900473ffffffffffffffffffffffffffffffffffffffff1673ffffffffffffffffffffffffffffffffffffffff1681526020019060010190808311611075575b5050505050905090565b600260003373ffffffffffffffffffffffffffffffffffffffff1673ffffffffffffffffffffffffffffffffffffffff16815260200190815260200160002060009054906101000a900460ff1661111f57600080fd5b6000600560008b73ffffffffffffffffffffffffffffffffffffffff1673ffffffffffffffffffffffffffffffffffffffff1681526020019081526020016000209050338160010160006101000a81548173ffffffffffffffffffffffffffffffffffffffff021916908373ffffffffffffffffffffffffffffffffffffffff160217905550898160000160006101000a81548173ffffffffffffffffffffffffffffffffffffffff021916908373ffffffffffffffffffffffffffffffffffffffff16021790555087816002019080519060200190611200929190611602565b5088816003019080519060200190611219929190611602565b5086816004019080519060200190611232929190611602565b508581600501908051906020019061124b929190611602565b5084816006019080519060200190611264929190611602565b508381600701908051906020019061127d929190611602565b5082816008019080519060200190611296929190611602565b50818160090190805190602001906112af929190611602565b50600660008b73ffffffffffffffffffffffffffffffffffffffff1673ffffffffffffffffffffffffffffffffffffffff168152602001908152602001600020339080600181540180825580915050600190039060005260206000200160009091909190916101000a81548173ffffffffffffffffffffffffffffffffffffffff021916908373ffffffffffffffffffffffffffffffffffffffff1602179055506007600081548092919061136390611e4e565b91905055507fd227fb64b88bf438275d27787dd0e084477e716309437e7d2a50f605d74176568a6040516113979190611b0d565b60405180910390a150505050505050505050565b60026020528060005260406000206000915054906101000a900460ff1681565b600081815481106113db57600080fd5b906000526020600020016000915054906101000a900473ffffffffffffffffffffffffffffffffffffffff1681565b600160205280600052604060002060009150905080600001805461142d90611e1c565b80601f016020809104026020016040519081016040528092919081815260200182805461145990611e1c565b80156114a65780601f1061147b576101008083540402835291602001916114a6565b820191906000526020600020905b81548152906001019060200180831161148957829003601f168201915b5050505050908060010180546114bb90611e1c565b80601f01602080910402602001604051908101604052809291908181526020018280546114e790611e1c565b80156115345780601f1061150957610100808354040283529160200191611534565b820191906000526020600020905b81548152906001019060200180831161151757829003601f168201915b50505050509080600201805461154990611e1c565b80601f016020809104026020016040519081016040528092919081815260200182805461157590611e1c565b80156115c25780601f10611597576101008083540402835291602001916115c2565b820191906000526020600020905b8154815290600101906020018083116115a557829003601f168201915b5050505050908060030160009054906101000a900473ffffffffffffffffffffffffffffffffffffffff16908060040154905085565b6000600354905090565b82805461160e90611e1c565b90600052602060002090601f0160209004810192826116305760008555611677565b82601f1061164957805160ff1916838001178555611677565b82800160010185558215611677579182015b8281111561167657825182559160200191906001019061165b565b5b5090506116849190611688565b5090565b5b808211156116a1576000816000905550600101611689565b5090565b60006116b86116b384611d0d565b611cdc565b9050828152602081018484840111156116d057600080fd5b6116db848285611dda565b509392505050565b6000813590506116f281611f35565b92915050565b600082601f83011261170957600080fd5b81356117198482602086016116a5565b91505092915050565b60008135905061173181611f4c565b92915050565b60006020828403121561174957600080fd5b6000611757848285016116e3565b91505092915050565b60008060008060008060008060006101208a8c03121561177f57600080fd5b600061178d8c828d016116e3565b99505060208a013567ffffffffffffffff8111156117aa57600080fd5b6117b68c828d016116f8565b98505060408a013567ffffffffffffffff8111156117d357600080fd5b6117df8c828d016116f8565b97505060608a013567ffffffffffffffff8111156117fc57600080fd5b6118088c828d016116f8565b96505060808a013567ffffffffffffffff81111561182557600080fd5b6118318c828d016116f8565b95505060a08a013567ffffffffffffffff81111561184e57600080fd5b61185a8c828d016116f8565b94505060c08a013567ffffffffffffffff81111561187757600080fd5b6118838c828d016116f8565b93505060e08a013567ffffffffffffffff8111156118a057600080fd5b6118ac8c828d016116f8565b9250506101008a013567ffffffffffffffff8111156118ca57600080fd5b6118d68c828d016116f8565b9150509295985092959850929598565b600080604083850312156118f957600080fd5b6000611907858286016116e3565b925050602061191885828601611722565b9150509250929050565b60008060006060848603121561193757600080fd5b600084013567ffffffffffffffff81111561195157600080fd5b61195d868287016116f8565b935050602084013567ffffffffffffffff81111561197a57600080fd5b611986868287016116f8565b925050604084013567ffffffffffffffff8111156119a357600080fd5b6119af868287016116f8565b9150509250925092565b6000602082840312156119cb57600080fd5b60006119d984828501611722565b91505092915050565b60006119ee83836119fa565b60208301905092915050565b611a0381611d92565b82525050565b611a1281611d92565b82525050565b6000611a2382611d4d565b611a2d8185611d70565b9350611a3883611d3d565b8060005b83811015611a69578151611a5088826119e2565b9750611a5b83611d63565b925050600181019050611a3c565b5085935050505092915050565b611a7f81611da4565b82525050565b6000611a9082611d58565b611a9a8185611d81565b9350611aaa818560208601611de9565b611ab381611f24565b840191505092915050565b6000611acb601583611d81565b91507f5265636f726420646f6573206e6f7420657869737400000000000000000000006000830152602082019050919050565b611b0781611dd0565b82525050565b6000602082019050611b226000830184611a09565b92915050565b600061014082019050611b3e600083018d611a09565b611b4b602083018c611a09565b8181036040830152611b5d818b611a85565b90508181036060830152611b71818a611a85565b90508181036080830152611b858189611a85565b905081810360a0830152611b998188611a85565b905081810360c0830152611bad8187611a85565b905081810360e0830152611bc18186611a85565b9050818103610100830152611bd68185611a85565b9050818103610120830152611beb8184611a85565b90509b9a5050505050505050505050565b60006020820190508181036000830152611c168184611a18565b905092915050565b6000602082019050611c336000830184611a76565b92915050565b600060a0820190508181036000830152611c538188611a85565b90508181036020830152611c678187611a85565b90508181036040830152611c7b8186611a85565b9050611c8a6060830185611a09565b611c976080830184611afe565b9695505050505050565b60006020820190508181036000830152611cba81611abe565b9050919050565b6000602082019050611cd66000830184611afe565b92915050565b6000604051905081810181811067ffffffffffffffff82111715611d0357611d02611ef5565b5b8060405250919050565b600067ffffffffffffffff821115611d2857611d27611ef5565b5b601f19601f8301169050602081019050919050565b6000819050602082019050919050565b600081519050919050565b600081519050919050565b6000602082019050919050565b600082825260208201905092915050565b600082825260208201905092915050565b6000611d9d82611db0565b9050919050565b60008115159050919050565b600073ffffffffffffffffffffffffffffffffffffffff82169050919050565b6000819050919050565b82818337600083830152505050565b60005b83811015611e07578082015181840152602081019050611dec565b83811115611e16576000848401525b50505050565b60006002820490506001821680611e3457607f821691505b60208210811415611e4857611e47611ec6565b5b50919050565b6000611e5982611dd0565b91507fffffffffffffffffffffffffffffffffffffffffffffffffffffffffffffffff821415611e8c57611e8b611e97565b5b600182019050919050565b7f4e487b7100000000000000000000000000000000000000000000000000000000600052601160045260246000fd5b7f4e487b7100000000000000000000000000000000000000000000000000000000600052602260045260246000fd5b7f4e487b7100000000000000000000000000000000000000000000000000000000600052604160045260246000fd5b6000601f19601f8301169050919050565b611f3e81611d92565b8114611f4957600080fd5b50565b611f5581611dd0565b8114611f6057600080fd5b5056fea264697066735822122063e840b2ba7866a02de26a88f5c83c8a2e8f2fc8c07fe2a74c4e2e765bc612ed64736f6c63430008000033",
  "immutableReferences": {},
  "source": "// SPDX-License-Identifier: MIT\r\npragma solidity ^0.8.0;\r\n\r\nimport \"./Hospital.sol\";\r\n\r\ncontract MedicalHistoryRecords is HospitalRecords{\r\n\r\n    // Structure to store medical history record details\r\n    struct HistoryRecord {\r\n        address owner; //Patient's address\r\n        address hospitalAddr;\r\n        string hospital;\r\n        string physician;\r\n        string dateOfDiagnosis;\r\n        string diagnosis;\r\n        string symptoms;\r\n        string durationSeverity;\r\n        string signs;\r\n        string relevantMedicalHistory;\r\n    }   \r\n    \r\n    address[] public medicalHistoryList;\r\n    mapping(address => HistoryRecord) public historyRecords;\r\n    mapping(address => address[]) public patientHistoryRecords;\r\n    uint256 public medicalHistoryCount = 0;\r\n    \r\n    // Event emitted when a medical history record is added\r\n    event MedicalHistoryRecordAdded(address patientAddr);\r\n\r\n    // Event emitted when a medical history record is edited\r\n    event MedicalHistoryRecordEdited(address patientAddr);\r\n\r\n    function addMedicalHistory(\r\n        address _patientAddr,\r\n        string memory _physician,\r\n        string memory _hospital,\r\n        string memory _dateOfDiagnosis,\r\n        string memory _diagnosis,\r\n        string memory _symptoms,\r\n        string memory _durationSeverity,\r\n        string memory _signs,\r\n        string memory _relevantMedicalHistory\r\n    ) public {\r\n        require(isHospital[msg.sender]);\r\n        // Set the details of the new medical history record\r\n        HistoryRecord storage record = historyRecords[_patientAddr];\r\n        record.hospitalAddr = msg.sender;\r\n        record.owner = _patientAddr;\r\n        record.hospital = _hospital;\r\n        record.physician = _physician;\r\n        record.dateOfDiagnosis = _dateOfDiagnosis;\r\n        record.diagnosis = _diagnosis;\r\n        record.symptoms = _symptoms;\r\n        record.durationSeverity = _durationSeverity;\r\n        record.signs = _signs;\r\n        record.relevantMedicalHistory = _relevantMedicalHistory;\r\n\r\n        // Update patient's history records and increment the total count\r\n        patientHistoryRecords[_patientAddr].push(msg.sender);\r\n        medicalHistoryCount++;\r\n\r\n        // Emit the event after modifying the historyRecords mapping\r\n        emit MedicalHistoryRecordAdded(_patientAddr);\r\n    }\r\n\r\n    function editMedicalHistory(\r\n        address _patientAddr,\r\n        string memory _physician,\r\n        string memory _hospital,\r\n        string memory _dateOfDiagnosis,\r\n        string memory _diagnosis,\r\n        string memory _symptoms,\r\n        string memory _durationSeverity,\r\n        string memory _signs,\r\n        string memory _relevantMedicalHistory\r\n    ) public {\r\n        require(isHospital[msg.sender]);\r\n        // Retrieve the record from storage\r\n        HistoryRecord storage record = historyRecords[_patientAddr];\r\n\r\n        // Check if the record exists and belongs to the specified patient\r\n        require(record.hospitalAddr != address(0), \"Record does not exist\");\r\n\r\n        // Update the record with the new information\r\n        record.physician = _physician;\r\n        record.hospital = _hospital;\r\n        record.dateOfDiagnosis = _dateOfDiagnosis;\r\n        record.diagnosis = _diagnosis;\r\n        record.symptoms = _symptoms;\r\n        record.durationSeverity = _durationSeverity;\r\n        record.signs = _signs;\r\n        record.relevantMedicalHistory = _relevantMedicalHistory;\r\n\r\n        // Emit the event after modifying the record\r\n        emit MedicalHistoryRecordEdited(_patientAddr);\r\n    }\r\n\r\n    //Retrieve a list of all medical history address\r\n    function getAllMedicalHistory() public view returns (address[] memory) {\r\n        return medicalHistoryList;\r\n    }\r\n}\r\n",
  "sourcePath": "C:\\Users\\Abby\\Desktop\\APPCON 2023\\MediVerse-Web3-Dapp\\contracts\\MedicalHistory.sol",
  "compiler": {
    "name": "solc",
    "version": "0.8.0+commit.c7dfd78e.Emscripten.clang"
  },
  "schemaVersion": "3.4.16",
  "updatedAt": "2024-02-18T11:11:46.849Z",
  "networkType": "ethereum",
  "devdoc": {
    "kind": "dev",
    "methods": {},
    "version": 1
  },
  "userdoc": {
    "kind": "user",
    "methods": {},
    "version": 1
  }
}