{
  "contractName": "MediVerse",
  "abi": [
    {
      "inputs": [
        {
          "internalType": "uint256",
          "name": "",
          "type": "uint256"
        }
      ],
      "name": "hospitalList",
      "outputs": [
        {
          "internalType": "address",
          "name": "",
          "type": "address"
        }
      ],
      "stateMutability": "view",
      "type": "function",
      "constant": true
    },
    {
      "inputs": [
        {
          "internalType": "address",
          "name": "",
          "type": "address"
        }
      ],
      "name": "hospitals",
      "outputs": [
        {
          "internalType": "string",
          "name": "name",
          "type": "string"
        },
        {
          "internalType": "string",
          "name": "contactNum",
          "type": "string"
        },
        {
          "internalType": "string",
          "name": "addr",
          "type": "string"
        },
        {
          "internalType": "uint256",
          "name": "creationDate",
          "type": "uint256"
        }
      ],
      "stateMutability": "view",
      "type": "function",
      "constant": true
    },
    {
      "inputs": [
        {
          "internalType": "address",
          "name": "",
          "type": "address"
        }
      ],
      "name": "isRegistered",
      "outputs": [
        {
          "internalType": "bool",
          "name": "",
          "type": "bool"
        }
      ],
      "stateMutability": "view",
      "type": "function",
      "constant": true
    },
    {
      "inputs": [
        {
          "internalType": "address",
          "name": "",
          "type": "address"
        },
        {
          "internalType": "uint256",
          "name": "",
          "type": "uint256"
        }
      ],
      "name": "medicalHistories",
      "outputs": [
        {
          "internalType": "address",
          "name": "patientAddr",
          "type": "address"
        },
        {
          "internalType": "address",
          "name": "hospitalAddr",
          "type": "address"
        },
        {
          "internalType": "string",
          "name": "physician",
          "type": "string"
        },
        {
          "internalType": "string",
          "name": "diagnosis",
          "type": "string"
        },
        {
          "internalType": "string",
          "name": "signsAndSymptoms",
          "type": "string"
        },
        {
          "internalType": "string",
          "name": "treatmentProcedure",
          "type": "string"
        },
        {
          "internalType": "string",
          "name": "tests",
          "type": "string"
        },
        {
          "internalType": "string",
          "name": "medications",
          "type": "string"
        },
        {
          "internalType": "string",
          "name": "admission",
          "type": "string"
        },
        {
          "internalType": "uint256",
          "name": "creationDate",
          "type": "uint256"
        }
      ],
      "stateMutability": "view",
      "type": "function",
      "constant": true
    },
    {
      "inputs": [
        {
          "internalType": "uint256",
          "name": "",
          "type": "uint256"
        }
      ],
      "name": "medicalHistoryList",
      "outputs": [
        {
          "internalType": "address",
          "name": "patientAddr",
          "type": "address"
        },
        {
          "internalType": "address",
          "name": "hospitalAddr",
          "type": "address"
        },
        {
          "internalType": "string",
          "name": "physician",
          "type": "string"
        },
        {
          "internalType": "string",
          "name": "diagnosis",
          "type": "string"
        },
        {
          "internalType": "string",
          "name": "signsAndSymptoms",
          "type": "string"
        },
        {
          "internalType": "string",
          "name": "treatmentProcedure",
          "type": "string"
        },
        {
          "internalType": "string",
          "name": "tests",
          "type": "string"
        },
        {
          "internalType": "string",
          "name": "medications",
          "type": "string"
        },
        {
          "internalType": "string",
          "name": "admission",
          "type": "string"
        },
        {
          "internalType": "uint256",
          "name": "creationDate",
          "type": "uint256"
        }
      ],
      "stateMutability": "view",
      "type": "function",
      "constant": true
    },
    {
      "inputs": [
        {
          "internalType": "uint256",
          "name": "",
          "type": "uint256"
        }
      ],
      "name": "patientList",
      "outputs": [
        {
          "internalType": "address",
          "name": "",
          "type": "address"
        }
      ],
      "stateMutability": "view",
      "type": "function",
      "constant": true
    },
    {
      "inputs": [
        {
          "internalType": "address",
          "name": "",
          "type": "address"
        }
      ],
      "name": "patients",
      "outputs": [
        {
          "internalType": "string",
          "name": "name",
          "type": "string"
        },
        {
          "internalType": "string",
          "name": "age",
          "type": "string"
        },
        {
          "internalType": "string",
          "name": "gender",
          "type": "string"
        },
        {
          "internalType": "string",
          "name": "dateOfBirth",
          "type": "string"
        },
        {
          "internalType": "string",
          "name": "height",
          "type": "string"
        },
        {
          "internalType": "string",
          "name": "weight",
          "type": "string"
        },
        {
          "internalType": "string",
          "name": "contactNum",
          "type": "string"
        },
        {
          "internalType": "string",
          "name": "addr",
          "type": "string"
        },
        {
          "internalType": "uint256",
          "name": "creationDate",
          "type": "uint256"
        }
      ],
      "stateMutability": "view",
      "type": "function",
      "constant": true
    },
    {
      "inputs": [
        {
          "internalType": "string",
          "name": "_name",
          "type": "string"
        },
        {
          "internalType": "string",
          "name": "_age",
          "type": "string"
        },
        {
          "internalType": "string",
          "name": "_gender",
          "type": "string"
        },
        {
          "internalType": "string",
          "name": "_dateOfBirth",
          "type": "string"
        },
        {
          "internalType": "string",
          "name": "_height",
          "type": "string"
        },
        {
          "internalType": "string",
          "name": "_weight",
          "type": "string"
        },
        {
          "internalType": "string",
          "name": "_contactNum",
          "type": "string"
        },
        {
          "internalType": "string",
          "name": "_address",
          "type": "string"
        }
      ],
      "name": "registerPatient",
      "outputs": [],
      "stateMutability": "nonpayable",
      "type": "function"
    },
    {
      "inputs": [
        {
          "internalType": "string",
          "name": "_name",
          "type": "string"
        },
        {
          "internalType": "string",
          "name": "_age",
          "type": "string"
        },
        {
          "internalType": "string",
          "name": "_gender",
          "type": "string"
        },
        {
          "internalType": "string",
          "name": "_dateOfBirth",
          "type": "string"
        },
        {
          "internalType": "string",
          "name": "_height",
          "type": "string"
        },
        {
          "internalType": "string",
          "name": "_weight",
          "type": "string"
        },
        {
          "internalType": "string",
          "name": "_contactNum",
          "type": "string"
        },
        {
          "internalType": "string",
          "name": "_address",
          "type": "string"
        }
      ],
      "name": "editPatientDetails",
      "outputs": [],
      "stateMutability": "nonpayable",
      "type": "function"
    },
    {
      "inputs": [
        {
          "internalType": "string",
          "name": "_name",
          "type": "string"
        },
        {
          "internalType": "string",
          "name": "_contactNum",
          "type": "string"
        },
        {
          "internalType": "string",
          "name": "_address",
          "type": "string"
        }
      ],
      "name": "registerHospital",
      "outputs": [],
      "stateMutability": "nonpayable",
      "type": "function"
    },
    {
      "inputs": [
        {
          "internalType": "string",
          "name": "_name",
          "type": "string"
        },
        {
          "internalType": "string",
          "name": "_contactNum",
          "type": "string"
        },
        {
          "internalType": "string",
          "name": "_addr",
          "type": "string"
        }
      ],
      "name": "editHospitalDetails",
      "outputs": [],
      "stateMutability": "nonpayable",
      "type": "function"
    },
    {
      "inputs": [
        {
          "internalType": "address",
          "name": "_patientAddr",
          "type": "address"
        },
        {
          "internalType": "string",
          "name": "_physician",
          "type": "string"
        },
        {
          "internalType": "string",
          "name": "_diagnosis",
          "type": "string"
        },
        {
          "internalType": "string",
          "name": "_signsAndSymptoms",
          "type": "string"
        },
        {
          "internalType": "string",
          "name": "_treatmentProcedure",
          "type": "string"
        },
        {
          "internalType": "string",
          "name": "_tests",
          "type": "string"
        },
        {
          "internalType": "string",
          "name": "_medications",
          "type": "string"
        },
        {
          "internalType": "string",
          "name": "_admission",
          "type": "string"
        }
      ],
      "name": "addMedicalHistory",
      "outputs": [],
      "stateMutability": "nonpayable",
      "type": "function"
    },
    {
      "inputs": [
        {
          "internalType": "address",
          "name": "_patientAddr",
          "type": "address"
        }
      ],
      "name": "getMedicalHistory",
      "outputs": [
        {
          "components": [
            {
              "internalType": "address",
              "name": "patientAddr",
              "type": "address"
            },
            {
              "internalType": "address",
              "name": "hospitalAddr",
              "type": "address"
            },
            {
              "internalType": "string",
              "name": "physician",
              "type": "string"
            },
            {
              "internalType": "string",
              "name": "diagnosis",
              "type": "string"
            },
            {
              "internalType": "string",
              "name": "signsAndSymptoms",
              "type": "string"
            },
            {
              "internalType": "string",
              "name": "treatmentProcedure",
              "type": "string"
            },
            {
              "internalType": "string",
              "name": "tests",
              "type": "string"
            },
            {
              "internalType": "string",
              "name": "medications",
              "type": "string"
            },
            {
              "internalType": "string",
              "name": "admission",
              "type": "string"
            },
            {
              "internalType": "uint256",
              "name": "creationDate",
              "type": "uint256"
            }
          ],
          "internalType": "struct MediVerse.MedicalHistory[]",
          "name": "",
          "type": "tuple[]"
        }
      ],
      "stateMutability": "view",
      "type": "function",
      "constant": true
    },
    {
      "inputs": [],
      "name": "getAllMedicalHistory",
      "outputs": [
        {
          "components": [
            {
              "internalType": "address",
              "name": "patientAddr",
              "type": "address"
            },
            {
              "internalType": "address",
              "name": "hospitalAddr",
              "type": "address"
            },
            {
              "internalType": "string",
              "name": "physician",
              "type": "string"
            },
            {
              "internalType": "string",
              "name": "diagnosis",
              "type": "string"
            },
            {
              "internalType": "string",
              "name": "signsAndSymptoms",
              "type": "string"
            },
            {
              "internalType": "string",
              "name": "treatmentProcedure",
              "type": "string"
            },
            {
              "internalType": "string",
              "name": "tests",
              "type": "string"
            },
            {
              "internalType": "string",
              "name": "medications",
              "type": "string"
            },
            {
              "internalType": "string",
              "name": "admission",
              "type": "string"
            },
            {
              "internalType": "uint256",
              "name": "creationDate",
              "type": "uint256"
            }
          ],
          "internalType": "struct MediVerse.MedicalHistory[]",
          "name": "",
          "type": "tuple[]"
        }
      ],
      "stateMutability": "view",
      "type": "function",
      "constant": true
    },
    {
      "inputs": [
        {
          "internalType": "address",
          "name": "patientAddress",
          "type": "address"
        }
      ],
      "name": "getPatientInfo",
      "outputs": [
        {
          "internalType": "string",
          "name": "",
          "type": "string"
        },
        {
          "internalType": "string",
          "name": "",
          "type": "string"
        },
        {
          "internalType": "string",
          "name": "",
          "type": "string"
        },
        {
          "internalType": "string",
          "name": "",
          "type": "string"
        },
        {
          "internalType": "string",
          "name": "",
          "type": "string"
        },
        {
          "internalType": "string",
          "name": "",
          "type": "string"
        },
        {
          "internalType": "string",
          "name": "",
          "type": "string"
        },
        {
          "internalType": "string",
          "name": "",
          "type": "string"
        },
        {
          "internalType": "address[]",
          "name": "",
          "type": "address[]"
        },
        {
          "internalType": "uint256",
          "name": "",
          "type": "uint256"
        }
      ],
      "stateMutability": "view",
      "type": "function",
      "constant": true
    },
    {
      "inputs": [
        {
          "internalType": "address",
          "name": "hospitalAddress",
          "type": "address"
        }
      ],
      "name": "getHospitalInfo",
      "outputs": [
        {
          "internalType": "string",
          "name": "",
          "type": "string"
        },
        {
          "internalType": "string",
          "name": "",
          "type": "string"
        },
        {
          "internalType": "string",
          "name": "",
          "type": "string"
        },
        {
          "internalType": "uint256",
          "name": "",
          "type": "uint256"
        }
      ],
      "stateMutability": "view",
      "type": "function",
      "constant": true
    },
    {
      "inputs": [
        {
          "internalType": "address",
          "name": "_hospitalAddr",
          "type": "address"
        }
      ],
      "name": "givePermission",
      "outputs": [],
      "stateMutability": "nonpayable",
      "type": "function"
    },
    {
      "inputs": [
        {
          "internalType": "address",
          "name": "_hospitalAddr",
          "type": "address"
        }
      ],
      "name": "revokeAccess",
      "outputs": [],
      "stateMutability": "nonpayable",
      "type": "function"
    },
    {
      "inputs": [
        {
          "internalType": "address",
          "name": "_patientAddr",
          "type": "address"
        }
      ],
      "name": "requestPermission",
      "outputs": [],
      "stateMutability": "nonpayable",
      "type": "function"
    },
    {
      "inputs": [
        {
          "internalType": "address",
          "name": "_patientAddr",
          "type": "address"
        }
      ],
      "name": "getAuthorizedHospitals",
      "outputs": [
        {
          "internalType": "address[]",
          "name": "",
          "type": "address[]"
        }
      ],
      "stateMutability": "view",
      "type": "function",
      "constant": true
    },
    {
      "inputs": [
        {
          "internalType": "address",
          "name": "_patientAddr",
          "type": "address"
        }
      ],
      "name": "getPendingRequests",
      "outputs": [
        {
          "internalType": "address[]",
          "name": "",
          "type": "address[]"
        }
      ],
      "stateMutability": "view",
      "type": "function",
      "constant": true
    },
    {
      "inputs": [],
      "name": "getPatientList",
      "outputs": [
        {
          "internalType": "address[]",
          "name": "",
          "type": "address[]"
        }
      ],
      "stateMutability": "view",
      "type": "function",
      "constant": true
    },
    {
      "inputs": [],
      "name": "getHospitalList",
      "outputs": [
        {
          "internalType": "address[]",
          "name": "",
          "type": "address[]"
        }
      ],
      "stateMutability": "view",
      "type": "function",
      "constant": true
    },
    {
      "inputs": [
        {
          "internalType": "string",
          "name": "query",
          "type": "string"
        }
      ],
      "name": "searchByName",
      "outputs": [
        {
          "internalType": "address[]",
          "name": "",
          "type": "address[]"
        }
      ],
      "stateMutability": "view",
      "type": "function",
      "constant": true
    }
  ],
  "bytecode": "0x608060405234801561001057600080fd5b50615a6580620000216000396000f3fe608060405234801561001057600080fd5b50600436106101585760003560e01c806372339509116100c3578063d31e37291161007c578063d31e372914610435578063ddbbc35c14610465578063e1de2d5914610495578063f05bfa7b146104b1578063f093cf80146104e1578063f74258f91461051457610158565b8063723395091461031d5780638486f67a1461035657806385e6853114610389578063babb1d41146103a5578063c3c5a547146103d5578063c82412b91461040557610158565b80634b426178116101155780634b42617814610240578063503b135414610279578063507f478b14610297578063526b44ac146102b35780635986de61146102cf5780636933e414146102ff57610158565b80630869cfbc1461015d57806319406a641461019557806329cf54a3146101ce5780632d57f4ed146101ea5780633d391f70146102065780634150f55414610222575b600080fd5b61017760048036038101906101729190614988565b610530565b60405161018c999897969594939291906154ca565b60405180910390f35b6101af60048036038101906101aa9190614d91565b6109be565b6040516101c59a999897969594939291906152c3565b60405180910390f35b6101e860048036038101906101e39190614c1f565b610e1a565b005b61020460048036038101906101ff9190614b88565b611081565b005b610220600480360381019061021b9190614988565b61111e565b005b61022a6113f5565b60405161023791906153b2565b60405180910390f35b61025a60048036038101906102559190614988565b611909565b6040516102709a999897969594939291906153ef565b60405180910390f35b610281611e8e565b60405161028e9190615390565b60405180910390f35b6102b160048036038101906102ac9190614988565b611f1c565b005b6102cd60048036038101906102c89190614b88565b612009565b005b6102e960048036038101906102e49190614988565b6121ee565b6040516102f691906153b2565b60405180910390f35b610307612d10565b6040516103149190615390565b60405180910390f35b61033760048036038101906103329190614b0b565b612d9e565b60405161034d9a999897969594939291906152c3565b60405180910390f35b610370600480360381019061036b9190614988565b613207565b604051610380949392919061558f565b60405180910390f35b6103a3600480360381019061039e9190614988565b613415565b005b6103bf60048036038101906103ba9190614d91565b6136cb565b6040516103cc91906152a8565b60405180910390f35b6103ef60048036038101906103ea9190614988565b61370a565b6040516103fc91906153d4565b60405180910390f35b61041f600480360381019061041a9190614d91565b61372a565b60405161042c91906152a8565b60405180910390f35b61044f600480360381019061044a9190614988565b613769565b60405161045c9190615390565b60405180910390f35b61047f600480360381019061047a9190614b47565b613839565b60405161048c9190615390565b60405180910390f35b6104af60048036038101906104aa9190614c1f565b613d02565b005b6104cb60048036038101906104c69190614988565b613e21565b6040516104d89190615390565b60405180910390f35b6104fb60048036038101906104f69190614988565b613eee565b60405161050b949392919061558f565b60405180910390f35b61052e600480360381019061052991906149b1565b6140b6565b005b6004602052806000526040600020600091509050806000018054610553906158e8565b80601f016020809104026020016040519081016040528092919081815260200182805461057f906158e8565b80156105cc5780601f106105a1576101008083540402835291602001916105cc565b820191906000526020600020905b8154815290600101906020018083116105af57829003601f168201915b5050505050908060010180546105e1906158e8565b80601f016020809104026020016040519081016040528092919081815260200182805461060d906158e8565b801561065a5780601f1061062f5761010080835404028352916020019161065a565b820191906000526020600020905b81548152906001019060200180831161063d57829003601f168201915b50505050509080600201805461066f906158e8565b80601f016020809104026020016040519081016040528092919081815260200182805461069b906158e8565b80156106e85780601f106106bd576101008083540402835291602001916106e8565b820191906000526020600020905b8154815290600101906020018083116106cb57829003601f168201915b5050505050908060030180546106fd906158e8565b80601f0160208091040260200160405190810160405280929190818152602001828054610729906158e8565b80156107765780601f1061074b57610100808354040283529160200191610776565b820191906000526020600020905b81548152906001019060200180831161075957829003601f168201915b50505050509080600401805461078b906158e8565b80601f01602080910402602001604051908101604052809291908181526020018280546107b7906158e8565b80156108045780601f106107d957610100808354040283529160200191610804565b820191906000526020600020905b8154815290600101906020018083116107e757829003601f168201915b505050505090806005018054610819906158e8565b80601f0160208091040260200160405190810160405280929190818152602001828054610845906158e8565b80156108925780601f1061086757610100808354040283529160200191610892565b820191906000526020600020905b81548152906001019060200180831161087557829003601f168201915b5050505050908060060180546108a7906158e8565b80601f01602080910402602001604051908101604052809291908181526020018280546108d3906158e8565b80156109205780601f106108f557610100808354040283529160200191610920565b820191906000526020600020905b81548152906001019060200180831161090357829003601f168201915b505050505090806007018054610935906158e8565b80601f0160208091040260200160405190810160405280929190818152602001828054610961906158e8565b80156109ae5780601f10610983576101008083540402835291602001916109ae565b820191906000526020600020905b81548152906001019060200180831161099157829003601f168201915b5050505050908060090154905089565b600281815481106109ce57600080fd5b90600052602060002090600a02016000915090508060000160009054906101000a900473ffffffffffffffffffffffffffffffffffffffff16908060010160009054906101000a900473ffffffffffffffffffffffffffffffffffffffff1690806002018054610a3d906158e8565b80601f0160208091040260200160405190810160405280929190818152602001828054610a69906158e8565b8015610ab65780601f10610a8b57610100808354040283529160200191610ab6565b820191906000526020600020905b815481529060010190602001808311610a9957829003601f168201915b505050505090806003018054610acb906158e8565b80601f0160208091040260200160405190810160405280929190818152602001828054610af7906158e8565b8015610b445780601f10610b1957610100808354040283529160200191610b44565b820191906000526020600020905b815481529060010190602001808311610b2757829003601f168201915b505050505090806004018054610b59906158e8565b80601f0160208091040260200160405190810160405280929190818152602001828054610b85906158e8565b8015610bd25780601f10610ba757610100808354040283529160200191610bd2565b820191906000526020600020905b815481529060010190602001808311610bb557829003601f168201915b505050505090806005018054610be7906158e8565b80601f0160208091040260200160405190810160405280929190818152602001828054610c13906158e8565b8015610c605780601f10610c3557610100808354040283529160200191610c60565b820191906000526020600020905b815481529060010190602001808311610c4357829003601f168201915b505050505090806006018054610c75906158e8565b80601f0160208091040260200160405190810160405280929190818152602001828054610ca1906158e8565b8015610cee5780601f10610cc357610100808354040283529160200191610cee565b820191906000526020600020905b815481529060010190602001808311610cd157829003601f168201915b505050505090806007018054610d03906158e8565b80601f0160208091040260200160405190810160405280929190818152602001828054610d2f906158e8565b8015610d7c5780601f10610d5157610100808354040283529160200191610d7c565b820191906000526020600020905b815481529060010190602001808311610d5f57829003601f168201915b505050505090806008018054610d91906158e8565b80601f0160208091040260200160405190810160405280929190818152602001828054610dbd906158e8565b8015610e0a5780601f10610ddf57610100808354040283529160200191610e0a565b820191906000526020600020905b815481529060010190602001808311610ded57829003601f168201915b505050505090806009015490508a565b600360003373ffffffffffffffffffffffffffffffffffffffff1673ffffffffffffffffffffffffffffffffffffffff16815260200190815260200160002060009054906101000a900460ff1615610ea7576040517f08c379a0000000000000000000000000000000000000000000000000000000008152600401610e9e906155e9565b60405180910390fd5b6000600460003373ffffffffffffffffffffffffffffffffffffffff1673ffffffffffffffffffffffffffffffffffffffff168152602001908152602001600020905088816000019080519060200190610f029291906147d4565b5087816001019080519060200190610f1b9291906147d4565b5086816002019080519060200190610f349291906147d4565b5085816003019080519060200190610f4d9291906147d4565b5084816004019080519060200190610f669291906147d4565b5083816005019080519060200190610f7f9291906147d4565b5082816006019080519060200190610f989291906147d4565b5081816007019080519060200190610fb19291906147d4565b504281600901819055506000339080600181540180825580915050600190039060005260206000200160009091909190916101000a81548173ffffffffffffffffffffffffffffffffffffffff021916908373ffffffffffffffffffffffffffffffffffffffff1602179055506001600360003373ffffffffffffffffffffffffffffffffffffffff1673ffffffffffffffffffffffffffffffffffffffff16815260200190815260200160002060006101000a81548160ff021916908315150217905550505050505050505050565b6000600560003373ffffffffffffffffffffffffffffffffffffffff1673ffffffffffffffffffffffffffffffffffffffff1681526020019081526020016000209050838160000190805190602001906110dc9291906147d4565b50828160010190805190602001906110f59291906147d4565b508181600201908051906020019061110e9291906147d4565b5042816003018190555050505050565b6111283382614625565b15611168576040517f08c379a000000000000000000000000000000000000000000000000000000000815260040161115f906156a9565b60405180910390fd5b6000805b600760003373ffffffffffffffffffffffffffffffffffffffff1673ffffffffffffffffffffffffffffffffffffffff168152602001908152602001600020805490508110156112a7578273ffffffffffffffffffffffffffffffffffffffff16600760003373ffffffffffffffffffffffffffffffffffffffff1673ffffffffffffffffffffffffffffffffffffffff1681526020019081526020016000208281548110611244577f4e487b7100000000000000000000000000000000000000000000000000000000600052603260045260246000fd5b9060005260206000200160009054906101000a900473ffffffffffffffffffffffffffffffffffffffff1673ffffffffffffffffffffffffffffffffffffffff16141561129457600191506112a7565b808061129f9061591a565b91505061116c565b50806113f157600460003373ffffffffffffffffffffffffffffffffffffffff1673ffffffffffffffffffffffffffffffffffffffff168152602001908152602001600020600801829080600181540180825580915050600190039060005260206000200160009091909190916101000a81548173ffffffffffffffffffffffffffffffffffffffff021916908373ffffffffffffffffffffffffffffffffffffffff160217905550600760003373ffffffffffffffffffffffffffffffffffffffff1673ffffffffffffffffffffffffffffffffffffffff168152602001908152602001600020829080600181540180825580915050600190039060005260206000200160009091909190916101000a81548173ffffffffffffffffffffffffffffffffffffffff021916908373ffffffffffffffffffffffffffffffffffffffff1602179055505b5050565b60606002805480602002602001604051908101604052809291908181526020016000905b8282101561190057838290600052602060002090600a0201604051806101400160405290816000820160009054906101000a900473ffffffffffffffffffffffffffffffffffffffff1673ffffffffffffffffffffffffffffffffffffffff1673ffffffffffffffffffffffffffffffffffffffff1681526020016001820160009054906101000a900473ffffffffffffffffffffffffffffffffffffffff1673ffffffffffffffffffffffffffffffffffffffff1673ffffffffffffffffffffffffffffffffffffffff1681526020016002820180546114f9906158e8565b80601f0160208091040260200160405190810160405280929190818152602001828054611525906158e8565b80156115725780601f1061154757610100808354040283529160200191611572565b820191906000526020600020905b81548152906001019060200180831161155557829003601f168201915b5050505050815260200160038201805461158b906158e8565b80601f01602080910402602001604051908101604052809291908181526020018280546115b7906158e8565b80156116045780601f106115d957610100808354040283529160200191611604565b820191906000526020600020905b8154815290600101906020018083116115e757829003601f168201915b5050505050815260200160048201805461161d906158e8565b80601f0160208091040260200160405190810160405280929190818152602001828054611649906158e8565b80156116965780601f1061166b57610100808354040283529160200191611696565b820191906000526020600020905b81548152906001019060200180831161167957829003601f168201915b505050505081526020016005820180546116af906158e8565b80601f01602080910402602001604051908101604052809291908181526020018280546116db906158e8565b80156117285780601f106116fd57610100808354040283529160200191611728565b820191906000526020600020905b81548152906001019060200180831161170b57829003601f168201915b50505050508152602001600682018054611741906158e8565b80601f016020809104026020016040519081016040528092919081815260200182805461176d906158e8565b80156117ba5780601f1061178f576101008083540402835291602001916117ba565b820191906000526020600020905b81548152906001019060200180831161179d57829003601f168201915b505050505081526020016007820180546117d3906158e8565b80601f01602080910402602001604051908101604052809291908181526020018280546117ff906158e8565b801561184c5780601f106118215761010080835404028352916020019161184c565b820191906000526020600020905b81548152906001019060200180831161182f57829003601f168201915b50505050508152602001600882018054611865906158e8565b80601f0160208091040260200160405190810160405280929190818152602001828054611891906158e8565b80156118de5780601f106118b3576101008083540402835291602001916118de565b820191906000526020600020905b8154815290600101906020018083116118c157829003601f168201915b5050505050815260200160098201548152505081526020019060010190611419565b50505050905090565b6060806060806060806060806060600080600460008d73ffffffffffffffffffffffffffffffffffffffff1673ffffffffffffffffffffffffffffffffffffffff16815260200190815260200160002090508060000181600101826002018360030184600401856005018660060187600701886008018960090154898054611990906158e8565b80601f01602080910402602001604051908101604052809291908181526020018280546119bc906158e8565b8015611a095780601f106119de57610100808354040283529160200191611a09565b820191906000526020600020905b8154815290600101906020018083116119ec57829003601f168201915b50505050509950888054611a1c906158e8565b80601f0160208091040260200160405190810160405280929190818152602001828054611a48906158e8565b8015611a955780601f10611a6a57610100808354040283529160200191611a95565b820191906000526020600020905b815481529060010190602001808311611a7857829003601f168201915b50505050509850878054611aa8906158e8565b80601f0160208091040260200160405190810160405280929190818152602001828054611ad4906158e8565b8015611b215780601f10611af657610100808354040283529160200191611b21565b820191906000526020600020905b815481529060010190602001808311611b0457829003601f168201915b50505050509750868054611b34906158e8565b80601f0160208091040260200160405190810160405280929190818152602001828054611b60906158e8565b8015611bad5780601f10611b8257610100808354040283529160200191611bad565b820191906000526020600020905b815481529060010190602001808311611b9057829003601f168201915b50505050509650858054611bc0906158e8565b80601f0160208091040260200160405190810160405280929190818152602001828054611bec906158e8565b8015611c395780601f10611c0e57610100808354040283529160200191611c39565b820191906000526020600020905b815481529060010190602001808311611c1c57829003601f168201915b50505050509550848054611c4c906158e8565b80601f0160208091040260200160405190810160405280929190818152602001828054611c78906158e8565b8015611cc55780601f10611c9a57610100808354040283529160200191611cc5565b820191906000526020600020905b815481529060010190602001808311611ca857829003601f168201915b50505050509450838054611cd8906158e8565b80601f0160208091040260200160405190810160405280929190818152602001828054611d04906158e8565b8015611d515780601f10611d2657610100808354040283529160200191611d51565b820191906000526020600020905b815481529060010190602001808311611d3457829003601f168201915b50505050509350828054611d64906158e8565b80601f0160208091040260200160405190810160405280929190818152602001828054611d90906158e8565b8015611ddd5780601f10611db257610100808354040283529160200191611ddd565b820191906000526020600020905b815481529060010190602001808311611dc057829003601f168201915b5050505050925081805480602002602001604051908101604052809291908181526020018280548015611e6557602002820191906000526020600020905b8160009054906101000a900473ffffffffffffffffffffffffffffffffffffffff1673ffffffffffffffffffffffffffffffffffffffff1681526020019060010190808311611e1b575b505050505091509a509a509a509a509a509a509a509a509a509a50509193959799509193959799565b60606000805480602002602001604051908101604052809291908181526020018280548015611f1257602002820191906000526020600020905b8160009054906101000a900473ffffffffffffffffffffffffffffffffffffffff1673ffffffffffffffffffffffffffffffffffffffff1681526020019060010190808311611ec8575b5050505050905090565b611f268133614625565b15611f66576040517f08c379a0000000000000000000000000000000000000000000000000000000008152600401611f5d90615669565b60405180910390fd5b600760008273ffffffffffffffffffffffffffffffffffffffff1673ffffffffffffffffffffffffffffffffffffffff168152602001908152602001600020339080600181540180825580915050600190039060005260206000200160009091909190916101000a81548173ffffffffffffffffffffffffffffffffffffffff021916908373ffffffffffffffffffffffffffffffffffffffff16021790555050565b600360003373ffffffffffffffffffffffffffffffffffffffff1673ffffffffffffffffffffffffffffffffffffffff16815260200190815260200160002060009054906101000a900460ff1615612096576040517f08c379a000000000000000000000000000000000000000000000000000000000815260040161208d90615689565b60405180910390fd5b6000600560003373ffffffffffffffffffffffffffffffffffffffff1673ffffffffffffffffffffffffffffffffffffffff1681526020019081526020016000209050838160000190805190602001906120f19291906147d4565b508281600101908051906020019061210a9291906147d4565b50818160020190805190602001906121239291906147d4565b504281600301819055506001339080600181540180825580915050600190039060005260206000200160009091909190916101000a81548173ffffffffffffffffffffffffffffffffffffffff021916908373ffffffffffffffffffffffffffffffffffffffff1602179055506001600360003373ffffffffffffffffffffffffffffffffffffffff1673ffffffffffffffffffffffffffffffffffffffff16815260200190815260200160002060006101000a81548160ff02191690831515021790555050505050565b60608173ffffffffffffffffffffffffffffffffffffffff163373ffffffffffffffffffffffffffffffffffffffff16141561277557600660008373ffffffffffffffffffffffffffffffffffffffff1673ffffffffffffffffffffffffffffffffffffffff168152602001908152602001600020805480602002602001604051908101604052809291908181526020016000905b8282101561276a57838290600052602060002090600a0201604051806101400160405290816000820160009054906101000a900473ffffffffffffffffffffffffffffffffffffffff1673ffffffffffffffffffffffffffffffffffffffff1673ffffffffffffffffffffffffffffffffffffffff1681526020016001820160009054906101000a900473ffffffffffffffffffffffffffffffffffffffff1673ffffffffffffffffffffffffffffffffffffffff1673ffffffffffffffffffffffffffffffffffffffff168152602001600282018054612363906158e8565b80601f016020809104026020016040519081016040528092919081815260200182805461238f906158e8565b80156123dc5780601f106123b1576101008083540402835291602001916123dc565b820191906000526020600020905b8154815290600101906020018083116123bf57829003601f168201915b505050505081526020016003820180546123f5906158e8565b80601f0160208091040260200160405190810160405280929190818152602001828054612421906158e8565b801561246e5780601f106124435761010080835404028352916020019161246e565b820191906000526020600020905b81548152906001019060200180831161245157829003601f168201915b50505050508152602001600482018054612487906158e8565b80601f01602080910402602001604051908101604052809291908181526020018280546124b3906158e8565b80156125005780601f106124d557610100808354040283529160200191612500565b820191906000526020600020905b8154815290600101906020018083116124e357829003601f168201915b50505050508152602001600582018054612519906158e8565b80601f0160208091040260200160405190810160405280929190818152602001828054612545906158e8565b80156125925780601f1061256757610100808354040283529160200191612592565b820191906000526020600020905b81548152906001019060200180831161257557829003601f168201915b505050505081526020016006820180546125ab906158e8565b80601f01602080910402602001604051908101604052809291908181526020018280546125d7906158e8565b80156126245780601f106125f957610100808354040283529160200191612624565b820191906000526020600020905b81548152906001019060200180831161260757829003601f168201915b5050505050815260200160078201805461263d906158e8565b80601f0160208091040260200160405190810160405280929190818152602001828054612669906158e8565b80156126b65780601f1061268b576101008083540402835291602001916126b6565b820191906000526020600020905b81548152906001019060200180831161269957829003601f168201915b505050505081526020016008820180546126cf906158e8565b80601f01602080910402602001604051908101604052809291908181526020018280546126fb906158e8565b80156127485780601f1061271d57610100808354040283529160200191612748565b820191906000526020600020905b81548152906001019060200180831161272b57829003601f168201915b5050505050815260200160098201548152505081526020019060010190612283565b505050509050612d0b565b61277f8233614625565b6127be576040517f08c379a00000000000000000000000000000000000000000000000000000000081526004016127b590615629565b60405180910390fd5b600660008373ffffffffffffffffffffffffffffffffffffffff1673ffffffffffffffffffffffffffffffffffffffff168152602001908152602001600020805480602002602001604051908101604052809291908181526020016000905b82821015612d0457838290600052602060002090600a0201604051806101400160405290816000820160009054906101000a900473ffffffffffffffffffffffffffffffffffffffff1673ffffffffffffffffffffffffffffffffffffffff1673ffffffffffffffffffffffffffffffffffffffff1681526020016001820160009054906101000a900473ffffffffffffffffffffffffffffffffffffffff1673ffffffffffffffffffffffffffffffffffffffff1673ffffffffffffffffffffffffffffffffffffffff1681526020016002820180546128fd906158e8565b80601f0160208091040260200160405190810160405280929190818152602001828054612929906158e8565b80156129765780601f1061294b57610100808354040283529160200191612976565b820191906000526020600020905b81548152906001019060200180831161295957829003601f168201915b5050505050815260200160038201805461298f906158e8565b80601f01602080910402602001604051908101604052809291908181526020018280546129bb906158e8565b8015612a085780601f106129dd57610100808354040283529160200191612a08565b820191906000526020600020905b8154815290600101906020018083116129eb57829003601f168201915b50505050508152602001600482018054612a21906158e8565b80601f0160208091040260200160405190810160405280929190818152602001828054612a4d906158e8565b8015612a9a5780601f10612a6f57610100808354040283529160200191612a9a565b820191906000526020600020905b815481529060010190602001808311612a7d57829003601f168201915b50505050508152602001600582018054612ab3906158e8565b80601f0160208091040260200160405190810160405280929190818152602001828054612adf906158e8565b8015612b2c5780601f10612b0157610100808354040283529160200191612b2c565b820191906000526020600020905b815481529060010190602001808311612b0f57829003601f168201915b50505050508152602001600682018054612b45906158e8565b80601f0160208091040260200160405190810160405280929190818152602001828054612b71906158e8565b8015612bbe5780601f10612b9357610100808354040283529160200191612bbe565b820191906000526020600020905b815481529060010190602001808311612ba157829003601f168201915b50505050508152602001600782018054612bd7906158e8565b80601f0160208091040260200160405190810160405280929190818152602001828054612c03906158e8565b8015612c505780601f10612c2557610100808354040283529160200191612c50565b820191906000526020600020905b815481529060010190602001808311612c3357829003601f168201915b50505050508152602001600882018054612c69906158e8565b80601f0160208091040260200160405190810160405280929190818152602001828054612c95906158e8565b8015612ce25780601f10612cb757610100808354040283529160200191612ce2565b820191906000526020600020905b815481529060010190602001808311612cc557829003601f168201915b505050505081526020016009820154815250508152602001906001019061281d565b5050505090505b919050565b60606001805480602002602001604051908101604052809291908181526020018280548015612d9457602002820191906000526020600020905b8160009054906101000a900473ffffffffffffffffffffffffffffffffffffffff1673ffffffffffffffffffffffffffffffffffffffff1681526020019060010190808311612d4a575b5050505050905090565b60066020528160005260406000208181548110612dba57600080fd5b90600052602060002090600a0201600091509150508060000160009054906101000a900473ffffffffffffffffffffffffffffffffffffffff16908060010160009054906101000a900473ffffffffffffffffffffffffffffffffffffffff1690806002018054612e2a906158e8565b80601f0160208091040260200160405190810160405280929190818152602001828054612e56906158e8565b8015612ea35780601f10612e7857610100808354040283529160200191612ea3565b820191906000526020600020905b815481529060010190602001808311612e8657829003601f168201915b505050505090806003018054612eb8906158e8565b80601f0160208091040260200160405190810160405280929190818152602001828054612ee4906158e8565b8015612f315780601f10612f0657610100808354040283529160200191612f31565b820191906000526020600020905b815481529060010190602001808311612f1457829003601f168201915b505050505090806004018054612f46906158e8565b80601f0160208091040260200160405190810160405280929190818152602001828054612f72906158e8565b8015612fbf5780601f10612f9457610100808354040283529160200191612fbf565b820191906000526020600020905b815481529060010190602001808311612fa257829003601f168201915b505050505090806005018054612fd4906158e8565b80601f0160208091040260200160405190810160405280929190818152602001828054613000906158e8565b801561304d5780601f106130225761010080835404028352916020019161304d565b820191906000526020600020905b81548152906001019060200180831161303057829003601f168201915b505050505090806006018054613062906158e8565b80601f016020809104026020016040519081016040528092919081815260200182805461308e906158e8565b80156130db5780601f106130b0576101008083540402835291602001916130db565b820191906000526020600020905b8154815290600101906020018083116130be57829003601f168201915b5050505050908060070180546130f0906158e8565b80601f016020809104026020016040519081016040528092919081815260200182805461311c906158e8565b80156131695780601f1061313e57610100808354040283529160200191613169565b820191906000526020600020905b81548152906001019060200180831161314c57829003601f168201915b50505050509080600801805461317e906158e8565b80601f01602080910402602001604051908101604052809291908181526020018280546131aa906158e8565b80156131f75780601f106131cc576101008083540402835291602001916131f7565b820191906000526020600020905b8154815290600101906020018083116131da57829003601f168201915b505050505090806009015490508a565b6060806060600080600560008773ffffffffffffffffffffffffffffffffffffffff1673ffffffffffffffffffffffffffffffffffffffff1681526020019081526020016000209050806000018160010182600201836003015483805461326d906158e8565b80601f0160208091040260200160405190810160405280929190818152602001828054613299906158e8565b80156132e65780601f106132bb576101008083540402835291602001916132e6565b820191906000526020600020905b8154815290600101906020018083116132c957829003601f168201915b505050505093508280546132f9906158e8565b80601f0160208091040260200160405190810160405280929190818152602001828054613325906158e8565b80156133725780601f1061334757610100808354040283529160200191613372565b820191906000526020600020905b81548152906001019060200180831161335557829003601f168201915b50505050509250818054613385906158e8565b80601f01602080910402602001604051908101604052809291908181526020018280546133b1906158e8565b80156133fe5780601f106133d3576101008083540402835291602001916133fe565b820191906000526020600020905b8154815290600101906020018083116133e157829003601f168201915b505050505091509450945094509450509193509193565b61341f3382614625565b61345e576040517f08c379a000000000000000000000000000000000000000000000000000000000815260040161345590615649565b60405180910390fd5b6000600460003373ffffffffffffffffffffffffffffffffffffffff1673ffffffffffffffffffffffffffffffffffffffff168152602001908152602001600020600801905060005b81805490508110156136c5578273ffffffffffffffffffffffffffffffffffffffff16828281548110613503577f4e487b7100000000000000000000000000000000000000000000000000000000600052603260045260246000fd5b9060005260206000200160009054906101000a900473ffffffffffffffffffffffffffffffffffffffff1673ffffffffffffffffffffffffffffffffffffffff1614156136b257816001838054905061355c919061582a565b81548110613593577f4e487b7100000000000000000000000000000000000000000000000000000000600052603260045260246000fd5b9060005260206000200160009054906101000a900473ffffffffffffffffffffffffffffffffffffffff168282815481106135f7577f4e487b7100000000000000000000000000000000000000000000000000000000600052603260045260246000fd5b9060005260206000200160006101000a81548173ffffffffffffffffffffffffffffffffffffffff021916908373ffffffffffffffffffffffffffffffffffffffff16021790555081805480613676577f4e487b7100000000000000000000000000000000000000000000000000000000600052603160045260246000fd5b6001900381819060005260206000200160006101000a81549073ffffffffffffffffffffffffffffffffffffffff0219169055905550506136c8565b80806136bd9061591a565b9150506134a7565b50505b50565b600081815481106136db57600080fd5b906000526020600020016000915054906101000a900473ffffffffffffffffffffffffffffffffffffffff1681565b60036020528060005260406000206000915054906101000a900460ff1681565b6001818154811061373a57600080fd5b906000526020600020016000915054906101000a900473ffffffffffffffffffffffffffffffffffffffff1681565b6060600460008373ffffffffffffffffffffffffffffffffffffffff1673ffffffffffffffffffffffffffffffffffffffff16815260200190815260200160002060080180548060200260200160405190810160405280929190818152602001828054801561382d57602002820191906000526020600020905b8160009054906101000a900473ffffffffffffffffffffffffffffffffffffffff1673ffffffffffffffffffffffffffffffffffffffff16815260200190600101908083116137e3575b50505050509050919050565b6060600060018054905060008054905061385391906157d4565b67ffffffffffffffff811115613892577f4e487b7100000000000000000000000000000000000000000000000000000000600052604160045260246000fd5b6040519080825280602002602001820160405280156138c05781602001602082028036833780820191505090505b5090506000805b600080549050811015613aac57600080828154811061390f577f4e487b7100000000000000000000000000000000000000000000000000000000600052603260045260246000fd5b9060005260206000200160009054906101000a900473ffffffffffffffffffffffffffffffffffffffff169050613a10600460008373ffffffffffffffffffffffffffffffffffffffff1673ffffffffffffffffffffffffffffffffffffffff168152602001908152602001600020600001805461398c906158e8565b80601f01602080910402602001604051908101604052809291908181526020018280546139b8906158e8565b8015613a055780601f106139da57610100808354040283529160200191613a05565b820191906000526020600020905b8154815290600101906020018083116139e857829003601f168201915b50505050508761477b565b15613a985780848481518110613a4f577f4e487b7100000000000000000000000000000000000000000000000000000000600052603260045260246000fd5b602002602001019073ffffffffffffffffffffffffffffffffffffffff16908173ffffffffffffffffffffffffffffffffffffffff16815250508280613a949061591a565b9350505b508080613aa49061591a565b9150506138c7565b5060005b600180549050811015613cf457613bf56005600060018481548110613afe577f4e487b7100000000000000000000000000000000000000000000000000000000600052603260045260246000fd5b9060005260206000200160009054906101000a900473ffffffffffffffffffffffffffffffffffffffff1673ffffffffffffffffffffffffffffffffffffffff1673ffffffffffffffffffffffffffffffffffffffff1681526020019081526020016000206000018054613b71906158e8565b80601f0160208091040260200160405190810160405280929190818152602001828054613b9d906158e8565b8015613bea5780601f10613bbf57610100808354040283529160200191613bea565b820191906000526020600020905b815481529060010190602001808311613bcd57829003601f168201915b50505050508661477b565b15613ce15760018181548110613c34577f4e487b7100000000000000000000000000000000000000000000000000000000600052603260045260246000fd5b9060005260206000200160009054906101000a900473ffffffffffffffffffffffffffffffffffffffff16838381518110613c98577f4e487b7100000000000000000000000000000000000000000000000000000000600052603260045260246000fd5b602002602001019073ffffffffffffffffffffffffffffffffffffffff16908173ffffffffffffffffffffffffffffffffffffffff16815250508180613cdd9061591a565b9250505b8080613cec9061591a565b915050613ab0565b508082528192505050919050565b6000600460003373ffffffffffffffffffffffffffffffffffffffff1673ffffffffffffffffffffffffffffffffffffffff168152602001908152602001600020905088816000019080519060200190613d5d9291906147d4565b5087816001019080519060200190613d769291906147d4565b5086816002019080519060200190613d8f9291906147d4565b5085816003019080519060200190613da89291906147d4565b5084816004019080519060200190613dc19291906147d4565b5083816005019080519060200190613dda9291906147d4565b5082816006019080519060200190613df39291906147d4565b5081816007019080519060200190613e0c9291906147d4565b50428160090181905550505050505050505050565b6060600760008373ffffffffffffffffffffffffffffffffffffffff1673ffffffffffffffffffffffffffffffffffffffff168152602001908152602001600020805480602002602001604051908101604052809291908181526020018280548015613ee257602002820191906000526020600020905b8160009054906101000a900473ffffffffffffffffffffffffffffffffffffffff1673ffffffffffffffffffffffffffffffffffffffff1681526020019060010190808311613e98575b50505050509050919050565b6005602052806000526040600020600091509050806000018054613f11906158e8565b80601f0160208091040260200160405190810160405280929190818152602001828054613f3d906158e8565b8015613f8a5780601f10613f5f57610100808354040283529160200191613f8a565b820191906000526020600020905b815481529060010190602001808311613f6d57829003601f168201915b505050505090806001018054613f9f906158e8565b80601f0160208091040260200160405190810160405280929190818152602001828054613fcb906158e8565b80156140185780601f10613fed57610100808354040283529160200191614018565b820191906000526020600020905b815481529060010190602001808311613ffb57829003601f168201915b50505050509080600201805461402d906158e8565b80601f0160208091040260200160405190810160405280929190818152602001828054614059906158e8565b80156140a65780601f1061407b576101008083540402835291602001916140a6565b820191906000526020600020905b81548152906001019060200180831161408957829003601f168201915b5050505050908060030154905084565b600360008973ffffffffffffffffffffffffffffffffffffffff1673ffffffffffffffffffffffffffffffffffffffff16815260200190815260200160002060009054906101000a900460ff16614142576040517f08c379a000000000000000000000000000000000000000000000000000000000815260040161413990615609565b60405180910390fd5b61414c8833614625565b6141f457600460008973ffffffffffffffffffffffffffffffffffffffff1673ffffffffffffffffffffffffffffffffffffffff168152602001908152602001600020600801339080600181540180825580915050600190039060005260206000200160009091909190916101000a81548173ffffffffffffffffffffffffffffffffffffffff021916908373ffffffffffffffffffffffffffffffffffffffff1602179055505b6141fc61485a565b88816000019073ffffffffffffffffffffffffffffffffffffffff16908173ffffffffffffffffffffffffffffffffffffffff168152505033816020019073ffffffffffffffffffffffffffffffffffffffff16908173ffffffffffffffffffffffffffffffffffffffff1681525050878160400181905250868160600181905250858160800181905250848160a00181905250838160c00181905250828160e00181905250818161010001819052504281610120018181525050600660008a73ffffffffffffffffffffffffffffffffffffffff1673ffffffffffffffffffffffffffffffffffffffff1681526020019081526020016000208190806001815401808255809150506001900390600052602060002090600a020160009091909190915060008201518160000160006101000a81548173ffffffffffffffffffffffffffffffffffffffff021916908373ffffffffffffffffffffffffffffffffffffffff16021790555060208201518160010160006101000a81548173ffffffffffffffffffffffffffffffffffffffff021916908373ffffffffffffffffffffffffffffffffffffffff16021790555060408201518160020190805190602001906143ca9291906147d4565b5060608201518160030190805190602001906143e79291906147d4565b5060808201518160040190805190602001906144049291906147d4565b5060a08201518160050190805190602001906144219291906147d4565b5060c082015181600601908051906020019061443e9291906147d4565b5060e082015181600701908051906020019061445b9291906147d4565b506101008201518160080190805190602001906144799291906147d4565b506101208201518160090155505060028190806001815401808255809150506001900390600052602060002090600a020160009091909190915060008201518160000160006101000a81548173ffffffffffffffffffffffffffffffffffffffff021916908373ffffffffffffffffffffffffffffffffffffffff16021790555060208201518160010160006101000a81548173ffffffffffffffffffffffffffffffffffffffff021916908373ffffffffffffffffffffffffffffffffffffffff160217905550604082015181600201908051906020019061455d9291906147d4565b50606082015181600301908051906020019061457a9291906147d4565b5060808201518160040190805190602001906145979291906147d4565b5060a08201518160050190805190602001906145b49291906147d4565b5060c08201518160060190805190602001906145d19291906147d4565b5060e08201518160070190805190602001906145ee9291906147d4565b5061010082015181600801908051906020019061460c9291906147d4565b5061012082015181600901555050505050505050505050565b600080600090505b600460008573ffffffffffffffffffffffffffffffffffffffff1673ffffffffffffffffffffffffffffffffffffffff1681526020019081526020016000206008018054905081101561476f578273ffffffffffffffffffffffffffffffffffffffff16600460008673ffffffffffffffffffffffffffffffffffffffff1673ffffffffffffffffffffffffffffffffffffffff168152602001908152602001600020600801828154811061470b577f4e487b7100000000000000000000000000000000000000000000000000000000600052603260045260246000fd5b9060005260206000200160009054906101000a900473ffffffffffffffffffffffffffffffffffffffff1673ffffffffffffffffffffffffffffffffffffffff16141561475c576001915050614775565b80806147679061591a565b91505061462d565b50600090505b92915050565b60008160405160200161478e9190615291565b60405160208183030381529060405280519060200120836040516020016147b59190615291565b6040516020818303038152906040528051906020012014905092915050565b8280546147e0906158e8565b90600052602060002090601f0160209004810192826148025760008555614849565b82601f1061481b57805160ff1916838001178555614849565b82800160010185558215614849579182015b8281111561484857825182559160200191906001019061482d565b5b50905061485691906148d9565b5090565b604051806101400160405280600073ffffffffffffffffffffffffffffffffffffffff168152602001600073ffffffffffffffffffffffffffffffffffffffff16815260200160608152602001606081526020016060815260200160608152602001606081526020016060815260200160608152602001600081525090565b5b808211156148f25760008160009055506001016148da565b5090565b6000614909614904846156fa565b6156c9565b90508281526020810184848401111561492157600080fd5b61492c8482856158a6565b509392505050565b60008135905061494381615a01565b92915050565b600082601f83011261495a57600080fd5b813561496a8482602086016148f6565b91505092915050565b60008135905061498281615a18565b92915050565b60006020828403121561499a57600080fd5b60006149a884828501614934565b91505092915050565b600080600080600080600080610100898b0312156149ce57600080fd5b60006149dc8b828c01614934565b985050602089013567ffffffffffffffff8111156149f957600080fd5b614a058b828c01614949565b975050604089013567ffffffffffffffff811115614a2257600080fd5b614a2e8b828c01614949565b965050606089013567ffffffffffffffff811115614a4b57600080fd5b614a578b828c01614949565b955050608089013567ffffffffffffffff811115614a7457600080fd5b614a808b828c01614949565b94505060a089013567ffffffffffffffff811115614a9d57600080fd5b614aa98b828c01614949565b93505060c089013567ffffffffffffffff811115614ac657600080fd5b614ad28b828c01614949565b92505060e089013567ffffffffffffffff811115614aef57600080fd5b614afb8b828c01614949565b9150509295985092959890939650565b60008060408385031215614b1e57600080fd5b6000614b2c85828601614934565b9250506020614b3d85828601614973565b9150509250929050565b600060208284031215614b5957600080fd5b600082013567ffffffffffffffff811115614b7357600080fd5b614b7f84828501614949565b91505092915050565b600080600060608486031215614b9d57600080fd5b600084013567ffffffffffffffff811115614bb757600080fd5b614bc386828701614949565b935050602084013567ffffffffffffffff811115614be057600080fd5b614bec86828701614949565b925050604084013567ffffffffffffffff811115614c0957600080fd5b614c1586828701614949565b9150509250925092565b600080600080600080600080610100898b031215614c3c57600080fd5b600089013567ffffffffffffffff811115614c5657600080fd5b614c628b828c01614949565b985050602089013567ffffffffffffffff811115614c7f57600080fd5b614c8b8b828c01614949565b975050604089013567ffffffffffffffff811115614ca857600080fd5b614cb48b828c01614949565b965050606089013567ffffffffffffffff811115614cd157600080fd5b614cdd8b828c01614949565b955050608089013567ffffffffffffffff811115614cfa57600080fd5b614d068b828c01614949565b94505060a089013567ffffffffffffffff811115614d2357600080fd5b614d2f8b828c01614949565b93505060c089013567ffffffffffffffff811115614d4c57600080fd5b614d588b828c01614949565b92505060e089013567ffffffffffffffff811115614d7557600080fd5b614d818b828c01614949565b9150509295985092959890939650565b600060208284031215614da357600080fd5b6000614db184828501614973565b91505092915050565b6000614dc68383614de6565b60208301905092915050565b6000614dde838361516f565b905092915050565b614def8161585e565b82525050565b614dfe8161585e565b82525050565b6000614e0f8261574a565b614e198185615785565b9350614e248361572a565b8060005b83811015614e55578151614e3c8882614dba565b9750614e478361576b565b925050600181019050614e28565b5085935050505092915050565b6000614e6d82615755565b614e778185615796565b935083602082028501614e898561573a565b8060005b85811015614ec55784840389528151614ea68582614dd2565b9450614eb183615778565b925060208a01995050600181019050614e8d565b50829750879550505050505092915050565b614ee081615870565b82525050565b6000614ef182615760565b614efb81856157a7565b9350614f0b8185602086016158b5565b614f14816159f0565b840191505092915050565b6000614f2a82615760565b614f3481856157b8565b9350614f448185602086016158b5565b614f4d816159f0565b840191505092915050565b6000614f6382615760565b614f6d81856157c9565b9350614f7d8185602086016158b5565b80840191505092915050565b6000614f96601a836157b8565b91507f50617469656e7420616c726561647920726567697374657265640000000000006000830152602082019050919050565b6000614fd66016836157b8565b91507f50617469656e74206e6f742072656769737465726564000000000000000000006000830152602082019050919050565b60006150166032836157b8565b91507f43616c6c6572206973206e6f7420617574686f72697a656420746f206163636560008301527f73732070617469656e74207265636f72647300000000000000000000000000006020830152604082019050919050565b600061507c6017836157b8565b91507f486f73706974616c206e6f7420617574686f72697a65640000000000000000006000830152602082019050919050565b60006150bc6014836157b8565b91507f5265717565737420616c72656164792073656e740000000000000000000000006000830152602082019050919050565b60006150fc601b836157b8565b91507f486f73706974616c20616c7265616479207265676973746572656400000000006000830152602082019050919050565b600061513c601b836157b8565b91507f486f73706974616c20616c726561647920617574686f72697a656400000000006000830152602082019050919050565b6000610140830160008301516151886000860182614de6565b50602083015161519b6020860182614de6565b50604083015184820360408601526151b38282614ee6565b915050606083015184820360608601526151cd8282614ee6565b915050608083015184820360808601526151e78282614ee6565b91505060a083015184820360a08601526152018282614ee6565b91505060c083015184820360c086015261521b8282614ee6565b91505060e083015184820360e08601526152358282614ee6565b9150506101008301518482036101008601526152518282614ee6565b915050610120830151615268610120860182615273565b508091505092915050565b61527c8161589c565b82525050565b61528b8161589c565b82525050565b600061529d8284614f58565b915081905092915050565b60006020820190506152bd6000830184614df5565b92915050565b6000610140820190506152d9600083018d614df5565b6152e6602083018c614df5565b81810360408301526152f8818b614f1f565b9050818103606083015261530c818a614f1f565b905081810360808301526153208189614f1f565b905081810360a08301526153348188614f1f565b905081810360c08301526153488187614f1f565b905081810360e083015261535c8186614f1f565b90508181036101008301526153718185614f1f565b9050615381610120830184615282565b9b9a5050505050505050505050565b600060208201905081810360008301526153aa8184614e04565b905092915050565b600060208201905081810360008301526153cc8184614e62565b905092915050565b60006020820190506153e96000830184614ed7565b92915050565b600061014082019050818103600083015261540a818d614f1f565b9050818103602083015261541e818c614f1f565b90508181036040830152615432818b614f1f565b90508181036060830152615446818a614f1f565b9050818103608083015261545a8189614f1f565b905081810360a083015261546e8188614f1f565b905081810360c08301526154828187614f1f565b905081810360e08301526154968186614f1f565b90508181036101008301526154ab8185614e04565b90506154bb610120830184615282565b9b9a5050505050505050505050565b60006101208201905081810360008301526154e5818c614f1f565b905081810360208301526154f9818b614f1f565b9050818103604083015261550d818a614f1f565b905081810360608301526155218189614f1f565b905081810360808301526155358188614f1f565b905081810360a08301526155498187614f1f565b905081810360c083015261555d8186614f1f565b905081810360e08301526155718185614f1f565b9050615581610100830184615282565b9a9950505050505050505050565b600060808201905081810360008301526155a98187614f1f565b905081810360208301526155bd8186614f1f565b905081810360408301526155d18185614f1f565b90506155e06060830184615282565b95945050505050565b6000602082019050818103600083015261560281614f89565b9050919050565b6000602082019050818103600083015261562281614fc9565b9050919050565b6000602082019050818103600083015261564281615009565b9050919050565b600060208201905081810360008301526156628161506f565b9050919050565b60006020820190508181036000830152615682816150af565b9050919050565b600060208201905081810360008301526156a2816150ef565b9050919050565b600060208201905081810360008301526156c28161512f565b9050919050565b6000604051905081810181811067ffffffffffffffff821117156156f0576156ef6159c1565b5b8060405250919050565b600067ffffffffffffffff821115615715576157146159c1565b5b601f19601f8301169050602081019050919050565b6000819050602082019050919050565b6000819050602082019050919050565b600081519050919050565b600081519050919050565b600081519050919050565b6000602082019050919050565b6000602082019050919050565b600082825260208201905092915050565b600082825260208201905092915050565b600082825260208201905092915050565b600082825260208201905092915050565b600081905092915050565b60006157df8261589c565b91506157ea8361589c565b9250827fffffffffffffffffffffffffffffffffffffffffffffffffffffffffffffffff0382111561581f5761581e615963565b5b828201905092915050565b60006158358261589c565b91506158408361589c565b92508282101561585357615852615963565b5b828203905092915050565b60006158698261587c565b9050919050565b60008115159050919050565b600073ffffffffffffffffffffffffffffffffffffffff82169050919050565b6000819050919050565b82818337600083830152505050565b60005b838110156158d35780820151818401526020810190506158b8565b838111156158e2576000848401525b50505050565b6000600282049050600182168061590057607f821691505b6020821081141561591457615913615992565b5b50919050565b60006159258261589c565b91507fffffffffffffffffffffffffffffffffffffffffffffffffffffffffffffffff82141561595857615957615963565b5b600182019050919050565b7f4e487b7100000000000000000000000000000000000000000000000000000000600052601160045260246000fd5b7f4e487b7100000000000000000000000000000000000000000000000000000000600052602260045260246000fd5b7f4e487b7100000000000000000000000000000000000000000000000000000000600052604160045260246000fd5b6000601f19601f8301169050919050565b615a0a8161585e565b8114615a1557600080fd5b50565b615a218161589c565b8114615a2c57600080fd5b5056fea2646970667358221220fb93b77f84d5c041be0942b8105f43d610d4eef50748fed5ab311e216f10f5f064736f6c63430008000033",
  "immutableReferences": {},
  "source": "// SPDX-License-Identifier: MIT\r\npragma solidity ^0.8.0;\r\n\r\n//! Hindi pa deployed sa network\r\n\r\ncontract MediVerse {\r\n    \r\n    struct Patient {\r\n        string name;\r\n        string age;\r\n        string gender;\r\n        string dateOfBirth;\r\n        string height;\r\n        string weight;\r\n        string contactNum;\r\n        string addr;\r\n        address[] authorizedHospitals;\r\n        uint creationDate;\r\n    }\r\n\r\n    struct Hospital {\r\n        string name;\r\n        string contactNum;\r\n        string addr;\r\n        uint creationDate;\r\n    }\r\n\r\n    struct MedicalHistory {\r\n        address patientAddr;\r\n        address hospitalAddr;\r\n        string physician;\r\n        string diagnosis;\r\n        string signsAndSymptoms;\r\n        string treatmentProcedure;\r\n        string tests;\r\n        string medications;\r\n        string admission;\r\n        uint creationDate;\r\n    }\r\n\r\n    address[] public patientList; \r\n    address[] public hospitalList;\r\n    MedicalHistory[] public medicalHistoryList;\r\n    mapping(address => bool) public isRegistered;\r\n    mapping(address => Patient) public patients;\r\n    mapping(address => Hospital) public hospitals;\r\n    mapping(address => MedicalHistory[]) public medicalHistories;\r\n    mapping(address => address[]) private pendingRequests;\r\n\r\n    modifier isRegister() {\r\n        require(isRegistered[msg.sender], \"Account is not registered\");\r\n        _;\r\n    }\r\n\r\n    modifier isAuthorized(address _patientAddr) {\r\n        require(\r\n            isHospitalAuthorized(_patientAddr, msg.sender),\r\n            \"Hospital not authorized to access patient records\"\r\n        );\r\n        _;\r\n    }\r\n\r\n    function isHospitalAuthorized(address _patientAddr, address _hospitalAddr) internal view returns (bool) {\r\n        for (uint i = 0; i < patients[_patientAddr].authorizedHospitals.length; i++) {\r\n            if (patients[_patientAddr].authorizedHospitals[i] == _hospitalAddr) {\r\n                return true;\r\n            }\r\n        }\r\n        return false;\r\n    }\r\n\r\n    function registerPatient(\r\n        string memory _name,\r\n        string memory _age,\r\n        string memory _gender,\r\n        string memory _dateOfBirth,\r\n        string memory _height,\r\n        string memory _weight,\r\n        string memory _contactNum,\r\n        string memory _address\r\n    ) public {\r\n        require(!isRegistered[msg.sender], \"Patient already registered\");\r\n\r\n        Patient storage patient = patients[msg.sender];\r\n        patient.name = _name;\r\n        patient.age = _age;\r\n        patient.gender = _gender;\r\n        patient.dateOfBirth = _dateOfBirth;\r\n        patient.height = _height;\r\n        patient.weight = _weight;\r\n        patient.contactNum = _contactNum;\r\n        patient.addr = _address;\r\n\r\n        patient.creationDate = block.timestamp;\r\n        patientList.push(msg.sender);\r\n        isRegistered[msg.sender] = true;\r\n    }\r\n\r\n    function editPatientDetails(\r\n        string memory _name,\r\n        string memory _age,\r\n        string memory _gender,\r\n        string memory _dateOfBirth,\r\n        string memory _height,\r\n        string memory _weight,\r\n        string memory _contactNum,\r\n        string memory _address\r\n    ) public {\r\n        Patient storage patient = patients[msg.sender];\r\n        patient.name = _name;\r\n        patient.age = _age;\r\n        patient.gender = _gender;\r\n        patient.dateOfBirth = _dateOfBirth;\r\n        patient.height = _height;\r\n        patient.weight = _weight;\r\n        patient.contactNum = _contactNum;\r\n        patient.addr = _address;\r\n        patient.creationDate = block.timestamp;\r\n    }\r\n\r\n    function registerHospital(\r\n        string memory _name,\r\n        string memory _contactNum,\r\n        string memory _address\r\n    ) public {\r\n        require(!isRegistered[msg.sender], \"Hospital already registered\");\r\n        Hospital storage hospital = hospitals[msg.sender];\r\n        hospital.name = _name;\r\n        hospital.contactNum = _contactNum;\r\n        hospital.addr = _address;\r\n        hospital.creationDate = block.timestamp;\r\n\r\n        hospitalList.push(msg.sender);\r\n        isRegistered[msg.sender] = true;\r\n    }\r\n\r\n    function editHospitalDetails(\r\n        string memory _name,\r\n        string memory _contactNum,\r\n        string memory _addr\r\n    ) public {\r\n        Hospital storage hospital = hospitals[msg.sender];\r\n        hospital.name = _name;\r\n        hospital.contactNum = _contactNum;\r\n        hospital.addr = _addr;\r\n        hospital.creationDate = block.timestamp;\r\n    }\r\n\r\n    function addMedicalHistory(\r\n        address _patientAddr,\r\n        string memory _physician,\r\n        string memory _diagnosis,\r\n        string memory _signsAndSymptoms,\r\n        string memory _treatmentProcedure,\r\n        string memory _tests,\r\n        string memory _medications,\r\n        string memory _admission\r\n    ) public {\r\n\r\n        require(isRegistered[_patientAddr], \"Patient not registered\");\r\n\r\n        if (!isHospitalAuthorized(_patientAddr, msg.sender)) {\r\n            patients[_patientAddr].authorizedHospitals.push(msg.sender);\r\n        }\r\n\r\n        MedicalHistory memory history;\r\n        history.patientAddr = _patientAddr;\r\n        history.hospitalAddr = msg.sender;\r\n        history.physician = _physician;\r\n        history.diagnosis = _diagnosis;\r\n        history.signsAndSymptoms = _signsAndSymptoms;\r\n        history.treatmentProcedure = _treatmentProcedure;\r\n        history.tests = _tests;\r\n        history.medications = _medications;\r\n        history.admission = _admission;\r\n        history.creationDate = block.timestamp;\r\n\r\n        medicalHistories[_patientAddr].push(history);\r\n        medicalHistoryList.push(history);\r\n    }\r\n\r\n    function getMedicalHistory(address _patientAddr) public view returns (MedicalHistory[] memory) {\r\n        if (msg.sender == _patientAddr) {\r\n            return medicalHistories[_patientAddr];\r\n        } else {\r\n            require(isHospitalAuthorized(_patientAddr, msg.sender), \"Caller is not authorized to access patient records\");\r\n            return medicalHistories[_patientAddr];\r\n        }\r\n    }\r\n\r\n    // function that will retrieve all the list of medical record\r\n    function getAllMedicalHistory() public view returns (MedicalHistory[] memory) {\r\n        return medicalHistoryList;\r\n    }\r\n\r\n    // Function to retrieve patient information\r\n    function getPatientInfo(address patientAddress) external view returns (string memory, string memory, string memory, string memory, string memory, string memory, string memory, string memory, address[] memory, uint) {\r\n        Patient storage patient = patients[patientAddress];\r\n        return (patient.name, patient.age, patient.gender, patient.dateOfBirth, patient.height, patient.weight, patient.contactNum, patient.addr, patient.authorizedHospitals, patient.creationDate);\r\n    }\r\n\r\n    // Function to retrieve hospital information\r\n    function getHospitalInfo(address hospitalAddress) external view returns (string memory, string memory, string memory, uint) {\r\n        Hospital storage hospital = hospitals[hospitalAddress];\r\n        return (hospital.name, hospital.contactNum, hospital.addr, hospital.creationDate);\r\n    }\r\n    \r\n    function givePermission(address _hospitalAddr) public  {\r\n        require(!isHospitalAuthorized(msg.sender, _hospitalAddr), \"Hospital already authorized\");\r\n        // Check if the hospital is already in the pending requests\r\n        bool isPending = false;\r\n        for (uint i = 0; i < pendingRequests[msg.sender].length; i++) {\r\n            if (pendingRequests[msg.sender][i] == _hospitalAddr) {\r\n                isPending = true;\r\n                break;\r\n            }\r\n        }\r\n        // If not in pending, add to both authorized and pending requests\r\n        if (!isPending) {\r\n            patients[msg.sender].authorizedHospitals.push(_hospitalAddr);\r\n            pendingRequests[msg.sender].push(_hospitalAddr);\r\n        }\r\n    }\r\n\r\n    function revokeAccess(address _hospitalAddr) public {\r\n        require(isHospitalAuthorized(msg.sender, _hospitalAddr), \"Hospital not authorized\");\r\n        address[] storage authorizedHospitals = patients[msg.sender].authorizedHospitals;\r\n        for (uint i = 0; i < authorizedHospitals.length; i++) {\r\n            if (authorizedHospitals[i] == _hospitalAddr) {\r\n                authorizedHospitals[i] = authorizedHospitals[authorizedHospitals.length - 1];\r\n                authorizedHospitals.pop();\r\n                return;\r\n            }\r\n        }\r\n    }\r\n    \r\n    // Function that will request access for patients medical record\r\n    function requestPermission(address _patientAddr) public {\r\n        require(!isHospitalAuthorized(_patientAddr, msg.sender), \"Request already sent\");\r\n        pendingRequests[_patientAddr].push(msg.sender);\r\n    }\r\n\r\n    function getAuthorizedHospitals(address _patientAddr) public view returns (address[] memory) {\r\n        return patients[_patientAddr].authorizedHospitals;\r\n    }\r\n\r\n    function getPendingRequests(address _patientAddr) public view returns (address[] memory) {\r\n        return pendingRequests[_patientAddr];\r\n    }\r\n\r\n    function getPatientList() public view returns (address[] memory) {\r\n        return patientList;\r\n    }\r\n\r\n    function getHospitalList() public view returns (address[] memory) {\r\n        return hospitalList;\r\n    }\r\n\r\n    function searchByName(string memory query) public view returns (address[] memory) {\r\n        address[] memory searchResults = new address[](patientList.length + hospitalList.length);\r\n\r\n        uint resultIndex = 0;\r\n\r\n        // Search among patients by name\r\n        for (uint i = 0; i < patientList.length; i++) {\r\n            address patientAddr = patientList[i];\r\n            if (compareStringsIgnoreCase(patients[patientAddr].name, query)) {\r\n                searchResults[resultIndex] = patientAddr;\r\n                resultIndex++;\r\n            }\r\n        }\r\n\r\n        // Search among hospitals by name\r\n        for (uint j = 0; j < hospitalList.length; j++) {\r\n            if (compareStringsIgnoreCase(hospitals[hospitalList[j]].name, query)) {\r\n                searchResults[resultIndex] = hospitalList[j];\r\n                resultIndex++;\r\n            }\r\n        }\r\n\r\n        // Resize the array to remove any unused slots\r\n        assembly {\r\n            mstore(searchResults, resultIndex)\r\n        }\r\n\r\n        return searchResults;\r\n    }\r\n\r\n    function compareStringsIgnoreCase(string memory a, string memory b) internal pure returns (bool) {\r\n        return (keccak256(abi.encodePacked((a))) == keccak256(abi.encodePacked((b))));\r\n    }\r\n}",
  "sourcePath": "C:\\Users\\Abby\\Desktop\\APPCON 2023\\MediVerse-Web3-Dapp\\contracts\\MediVerse.sol",
  "compiler": {
    "name": "solc",
    "version": "0.8.0+commit.c7dfd78e.Emscripten.clang"
  },
  "schemaVersion": "3.4.16",
  "updatedAt": "2024-04-08T15:37:51.234Z",
  "networkType": "ethereum",
  "devdoc": {
    "kind": "dev",
    "methods": {},
    "version": 1
  },
  "userdoc": {
    "kind": "user",
    "methods": {},
    "version": 1
  }
}