{
  "contractName": "MediVerse",
  "abi": [
    {
      "anonymous": false,
      "inputs": [
        {
          "indexed": false,
          "internalType": "address",
          "name": "patientAddr",
          "type": "address"
        },
        {
          "indexed": false,
          "internalType": "address",
          "name": "hospitalAddr",
          "type": "address"
        }
      ],
      "name": "GeneralHealthProfileAdded",
      "type": "event"
    },
    {
      "anonymous": false,
      "inputs": [
        {
          "indexed": false,
          "internalType": "address",
          "name": "hospitalAddr",
          "type": "address"
        }
      ],
      "name": "HospitalRegistered",
      "type": "event"
    },
    {
      "anonymous": false,
      "inputs": [
        {
          "indexed": false,
          "internalType": "address",
          "name": "patientAddr",
          "type": "address"
        },
        {
          "indexed": false,
          "internalType": "address",
          "name": "hospitalAddr",
          "type": "address"
        }
      ],
      "name": "MedicalHistoryAdded",
      "type": "event"
    },
    {
      "anonymous": false,
      "inputs": [
        {
          "indexed": false,
          "internalType": "address",
          "name": "patientAddr",
          "type": "address"
        }
      ],
      "name": "PatientRegistered",
      "type": "event"
    },
    {
      "anonymous": false,
      "inputs": [
        {
          "indexed": false,
          "internalType": "address",
          "name": "patientAddr",
          "type": "address"
        },
        {
          "indexed": false,
          "internalType": "address",
          "name": "hospitalAddr",
          "type": "address"
        }
      ],
      "name": "PermissionGranted",
      "type": "event"
    },
    {
      "anonymous": false,
      "inputs": [
        {
          "indexed": false,
          "internalType": "address",
          "name": "patientAddr",
          "type": "address"
        },
        {
          "indexed": false,
          "internalType": "address",
          "name": "hospitalAddr",
          "type": "address"
        }
      ],
      "name": "PermissionRevoked",
      "type": "event"
    },
    {
      "inputs": [
        {
          "internalType": "uint256",
          "name": "",
          "type": "uint256"
        }
      ],
      "name": "hospitalList",
      "outputs": [
        {
          "internalType": "address",
          "name": "",
          "type": "address"
        }
      ],
      "stateMutability": "view",
      "type": "function",
      "constant": true
    },
    {
      "inputs": [
        {
          "internalType": "address",
          "name": "",
          "type": "address"
        }
      ],
      "name": "hospitals",
      "outputs": [
        {
          "internalType": "string",
          "name": "name",
          "type": "string"
        },
        {
          "internalType": "string",
          "name": "contactNum",
          "type": "string"
        },
        {
          "internalType": "string",
          "name": "addr",
          "type": "string"
        },
        {
          "internalType": "uint256",
          "name": "registrationDate",
          "type": "uint256"
        }
      ],
      "stateMutability": "view",
      "type": "function",
      "constant": true
    },
    {
      "inputs": [
        {
          "internalType": "address",
          "name": "",
          "type": "address"
        }
      ],
      "name": "isRegistered",
      "outputs": [
        {
          "internalType": "bool",
          "name": "",
          "type": "bool"
        }
      ],
      "stateMutability": "view",
      "type": "function",
      "constant": true
    },
    {
      "inputs": [
        {
          "internalType": "address",
          "name": "",
          "type": "address"
        },
        {
          "internalType": "uint256",
          "name": "",
          "type": "uint256"
        }
      ],
      "name": "medicalHistories",
      "outputs": [
        {
          "internalType": "address",
          "name": "patientAddr",
          "type": "address"
        },
        {
          "internalType": "address",
          "name": "hospitalAddr",
          "type": "address"
        },
        {
          "internalType": "string",
          "name": "physician",
          "type": "string"
        },
        {
          "internalType": "string",
          "name": "diagnosis",
          "type": "string"
        },
        {
          "internalType": "string",
          "name": "signsAndSymptoms",
          "type": "string"
        },
        {
          "internalType": "string",
          "name": "treatmentProcedure",
          "type": "string"
        },
        {
          "internalType": "string",
          "name": "tests",
          "type": "string"
        },
        {
          "internalType": "string",
          "name": "medications",
          "type": "string"
        },
        {
          "internalType": "string",
          "name": "admission",
          "type": "string"
        },
        {
          "internalType": "uint256",
          "name": "creationDate",
          "type": "uint256"
        }
      ],
      "stateMutability": "view",
      "type": "function",
      "constant": true
    },
    {
      "inputs": [
        {
          "internalType": "uint256",
          "name": "",
          "type": "uint256"
        }
      ],
      "name": "medicalHistoryList",
      "outputs": [
        {
          "internalType": "address",
          "name": "patientAddr",
          "type": "address"
        },
        {
          "internalType": "address",
          "name": "hospitalAddr",
          "type": "address"
        },
        {
          "internalType": "string",
          "name": "physician",
          "type": "string"
        },
        {
          "internalType": "string",
          "name": "diagnosis",
          "type": "string"
        },
        {
          "internalType": "string",
          "name": "signsAndSymptoms",
          "type": "string"
        },
        {
          "internalType": "string",
          "name": "treatmentProcedure",
          "type": "string"
        },
        {
          "internalType": "string",
          "name": "tests",
          "type": "string"
        },
        {
          "internalType": "string",
          "name": "medications",
          "type": "string"
        },
        {
          "internalType": "string",
          "name": "admission",
          "type": "string"
        },
        {
          "internalType": "uint256",
          "name": "creationDate",
          "type": "uint256"
        }
      ],
      "stateMutability": "view",
      "type": "function",
      "constant": true
    },
    {
      "inputs": [
        {
          "internalType": "uint256",
          "name": "",
          "type": "uint256"
        }
      ],
      "name": "patientList",
      "outputs": [
        {
          "internalType": "address",
          "name": "",
          "type": "address"
        }
      ],
      "stateMutability": "view",
      "type": "function",
      "constant": true
    },
    {
      "inputs": [
        {
          "internalType": "address",
          "name": "",
          "type": "address"
        }
      ],
      "name": "patients",
      "outputs": [
        {
          "internalType": "string",
          "name": "name",
          "type": "string"
        },
        {
          "internalType": "string",
          "name": "gender",
          "type": "string"
        },
        {
          "internalType": "string",
          "name": "dateOfBirth",
          "type": "string"
        },
        {
          "internalType": "string",
          "name": "height",
          "type": "string"
        },
        {
          "internalType": "string",
          "name": "weight",
          "type": "string"
        },
        {
          "internalType": "string",
          "name": "contactNum",
          "type": "string"
        },
        {
          "internalType": "string",
          "name": "addr",
          "type": "string"
        },
        {
          "internalType": "uint256",
          "name": "registrationDate",
          "type": "uint256"
        }
      ],
      "stateMutability": "view",
      "type": "function",
      "constant": true
    },
    {
      "inputs": [
        {
          "internalType": "address",
          "name": "",
          "type": "address"
        },
        {
          "internalType": "uint256",
          "name": "",
          "type": "uint256"
        }
      ],
      "name": "pendingRequests",
      "outputs": [
        {
          "internalType": "address",
          "name": "",
          "type": "address"
        }
      ],
      "stateMutability": "view",
      "type": "function",
      "constant": true
    },
    {
      "inputs": [
        {
          "internalType": "string",
          "name": "_name",
          "type": "string"
        },
        {
          "internalType": "string",
          "name": "_contactNum",
          "type": "string"
        },
        {
          "internalType": "string",
          "name": "_gender",
          "type": "string"
        },
        {
          "internalType": "string",
          "name": "_dateOfBirth",
          "type": "string"
        },
        {
          "internalType": "string",
          "name": "_height",
          "type": "string"
        },
        {
          "internalType": "string",
          "name": "_weight",
          "type": "string"
        },
        {
          "internalType": "string",
          "name": "_address",
          "type": "string"
        }
      ],
      "name": "registerPatient",
      "outputs": [],
      "stateMutability": "nonpayable",
      "type": "function"
    },
    {
      "inputs": [
        {
          "internalType": "string",
          "name": "_name",
          "type": "string"
        },
        {
          "internalType": "string",
          "name": "_contactNum",
          "type": "string"
        },
        {
          "internalType": "string",
          "name": "_gender",
          "type": "string"
        },
        {
          "internalType": "string",
          "name": "_dateOfBirth",
          "type": "string"
        },
        {
          "internalType": "string",
          "name": "_height",
          "type": "string"
        },
        {
          "internalType": "string",
          "name": "_weight",
          "type": "string"
        },
        {
          "internalType": "string",
          "name": "_address",
          "type": "string"
        }
      ],
      "name": "editPatientDetails",
      "outputs": [],
      "stateMutability": "nonpayable",
      "type": "function"
    },
    {
      "inputs": [
        {
          "internalType": "string",
          "name": "_name",
          "type": "string"
        },
        {
          "internalType": "string",
          "name": "_contactNum",
          "type": "string"
        },
        {
          "internalType": "string",
          "name": "_address",
          "type": "string"
        }
      ],
      "name": "registerHospital",
      "outputs": [],
      "stateMutability": "nonpayable",
      "type": "function"
    },
    {
      "inputs": [
        {
          "internalType": "string",
          "name": "_name",
          "type": "string"
        },
        {
          "internalType": "string",
          "name": "_contactNum",
          "type": "string"
        },
        {
          "internalType": "string",
          "name": "_addr",
          "type": "string"
        }
      ],
      "name": "editHospitalDetails",
      "outputs": [],
      "stateMutability": "nonpayable",
      "type": "function"
    },
    {
      "inputs": [
        {
          "internalType": "address",
          "name": "_patientAddr",
          "type": "address"
        },
        {
          "internalType": "string",
          "name": "_physician",
          "type": "string"
        },
        {
          "internalType": "string",
          "name": "_diagnosis",
          "type": "string"
        },
        {
          "internalType": "string",
          "name": "_signsAndSymptoms",
          "type": "string"
        },
        {
          "internalType": "string",
          "name": "_treatmentProcedure",
          "type": "string"
        },
        {
          "internalType": "string",
          "name": "_tests",
          "type": "string"
        },
        {
          "internalType": "string",
          "name": "_medications",
          "type": "string"
        },
        {
          "internalType": "string",
          "name": "_admission",
          "type": "string"
        }
      ],
      "name": "addMedicalHistory",
      "outputs": [],
      "stateMutability": "nonpayable",
      "type": "function"
    },
    {
      "inputs": [
        {
          "internalType": "address",
          "name": "_patientAddr",
          "type": "address"
        },
        {
          "internalType": "string",
          "name": "_physician",
          "type": "string"
        },
        {
          "internalType": "string",
          "name": "_diagnosis",
          "type": "string"
        },
        {
          "internalType": "string",
          "name": "_signsAndSymptoms",
          "type": "string"
        },
        {
          "internalType": "string",
          "name": "_treatmentProcedure",
          "type": "string"
        },
        {
          "internalType": "string",
          "name": "_tests",
          "type": "string"
        },
        {
          "internalType": "string",
          "name": "_medications",
          "type": "string"
        },
        {
          "internalType": "string",
          "name": "_admission",
          "type": "string"
        }
      ],
      "name": "editMedicalHistory",
      "outputs": [],
      "stateMutability": "nonpayable",
      "type": "function"
    },
    {
      "inputs": [
        {
          "internalType": "address",
          "name": "_patientAddr",
          "type": "address"
        }
      ],
      "name": "getMedicalHistory",
      "outputs": [
        {
          "components": [
            {
              "internalType": "address",
              "name": "patientAddr",
              "type": "address"
            },
            {
              "internalType": "address",
              "name": "hospitalAddr",
              "type": "address"
            },
            {
              "internalType": "string",
              "name": "physician",
              "type": "string"
            },
            {
              "internalType": "string",
              "name": "diagnosis",
              "type": "string"
            },
            {
              "internalType": "string",
              "name": "signsAndSymptoms",
              "type": "string"
            },
            {
              "internalType": "string",
              "name": "treatmentProcedure",
              "type": "string"
            },
            {
              "internalType": "string",
              "name": "tests",
              "type": "string"
            },
            {
              "internalType": "string",
              "name": "medications",
              "type": "string"
            },
            {
              "internalType": "string",
              "name": "admission",
              "type": "string"
            },
            {
              "internalType": "uint256",
              "name": "creationDate",
              "type": "uint256"
            }
          ],
          "internalType": "struct MediVerse.MedicalHistory[]",
          "name": "",
          "type": "tuple[]"
        }
      ],
      "stateMutability": "view",
      "type": "function",
      "constant": true
    },
    {
      "inputs": [],
      "name": "getAllMedicalHistory",
      "outputs": [
        {
          "components": [
            {
              "internalType": "address",
              "name": "patientAddr",
              "type": "address"
            },
            {
              "internalType": "address",
              "name": "hospitalAddr",
              "type": "address"
            },
            {
              "internalType": "string",
              "name": "physician",
              "type": "string"
            },
            {
              "internalType": "string",
              "name": "diagnosis",
              "type": "string"
            },
            {
              "internalType": "string",
              "name": "signsAndSymptoms",
              "type": "string"
            },
            {
              "internalType": "string",
              "name": "treatmentProcedure",
              "type": "string"
            },
            {
              "internalType": "string",
              "name": "tests",
              "type": "string"
            },
            {
              "internalType": "string",
              "name": "medications",
              "type": "string"
            },
            {
              "internalType": "string",
              "name": "admission",
              "type": "string"
            },
            {
              "internalType": "uint256",
              "name": "creationDate",
              "type": "uint256"
            }
          ],
          "internalType": "struct MediVerse.MedicalHistory[]",
          "name": "",
          "type": "tuple[]"
        }
      ],
      "stateMutability": "view",
      "type": "function",
      "constant": true
    },
    {
      "inputs": [
        {
          "internalType": "address",
          "name": "patientAddress",
          "type": "address"
        }
      ],
      "name": "getPatientInfo",
      "outputs": [
        {
          "internalType": "string",
          "name": "",
          "type": "string"
        },
        {
          "internalType": "string",
          "name": "",
          "type": "string"
        },
        {
          "internalType": "string",
          "name": "",
          "type": "string"
        },
        {
          "internalType": "string",
          "name": "",
          "type": "string"
        },
        {
          "internalType": "string",
          "name": "",
          "type": "string"
        },
        {
          "internalType": "string",
          "name": "",
          "type": "string"
        },
        {
          "internalType": "string",
          "name": "",
          "type": "string"
        },
        {
          "internalType": "address[]",
          "name": "",
          "type": "address[]"
        },
        {
          "internalType": "uint256",
          "name": "",
          "type": "uint256"
        }
      ],
      "stateMutability": "view",
      "type": "function",
      "constant": true
    },
    {
      "inputs": [
        {
          "internalType": "address",
          "name": "hospitalAddress",
          "type": "address"
        }
      ],
      "name": "getHospitalInfo",
      "outputs": [
        {
          "internalType": "string",
          "name": "",
          "type": "string"
        },
        {
          "internalType": "string",
          "name": "",
          "type": "string"
        },
        {
          "internalType": "string",
          "name": "",
          "type": "string"
        },
        {
          "internalType": "uint256",
          "name": "",
          "type": "uint256"
        }
      ],
      "stateMutability": "view",
      "type": "function",
      "constant": true
    },
    {
      "inputs": [
        {
          "internalType": "address",
          "name": "_hospitalAddr",
          "type": "address"
        }
      ],
      "name": "givePermission",
      "outputs": [],
      "stateMutability": "nonpayable",
      "type": "function"
    },
    {
      "inputs": [
        {
          "internalType": "address",
          "name": "_hospitalAddr",
          "type": "address"
        }
      ],
      "name": "revokeAccess",
      "outputs": [],
      "stateMutability": "nonpayable",
      "type": "function"
    },
    {
      "inputs": [
        {
          "internalType": "address",
          "name": "_patientAddr",
          "type": "address"
        }
      ],
      "name": "getAuthorizedHospitals",
      "outputs": [
        {
          "internalType": "address[]",
          "name": "",
          "type": "address[]"
        }
      ],
      "stateMutability": "view",
      "type": "function",
      "constant": true
    },
    {
      "inputs": [
        {
          "internalType": "address",
          "name": "_patientAddr",
          "type": "address"
        }
      ],
      "name": "getPendingRequests",
      "outputs": [
        {
          "internalType": "address[]",
          "name": "",
          "type": "address[]"
        }
      ],
      "stateMutability": "view",
      "type": "function",
      "constant": true
    },
    {
      "inputs": [],
      "name": "getPatientList",
      "outputs": [
        {
          "internalType": "address[]",
          "name": "",
          "type": "address[]"
        }
      ],
      "stateMutability": "view",
      "type": "function",
      "constant": true
    },
    {
      "inputs": [],
      "name": "getHospitalList",
      "outputs": [
        {
          "internalType": "address[]",
          "name": "",
          "type": "address[]"
        }
      ],
      "stateMutability": "view",
      "type": "function",
      "constant": true
    },
    {
      "inputs": [
        {
          "internalType": "string",
          "name": "query",
          "type": "string"
        }
      ],
      "name": "searchByName",
      "outputs": [
        {
          "internalType": "address[]",
          "name": "",
          "type": "address[]"
        }
      ],
      "stateMutability": "view",
      "type": "function",
      "constant": true
    }
  ],
  "bytecode": "0x608060405234801561001057600080fd5b50615dee80620000216000396000f3fe608060405234801561001057600080fd5b50600436106101735760003560e01c806372339509116100de578063c3c5a54711610097578063ddbbc35c11610071578063ddbbc35c146104ca578063f05bfa7b146104fa578063f093cf801461052a578063f74258f91461055d57610173565b8063c3c5a5471461043a578063c82412b91461046a578063d31e37291461049a57610173565b8063723395091461034a5780638486f67a1461038357806385e68531146103b65780639ec310be146103d2578063a30b6ec3146103ee578063babb1d411461040a57610173565b8063488ff1c811610130578063488ff1c81461025a5780634b4261781461028a578063503b1354146102c2578063526b44ac146102e05780635986de61146102fc5780636933e4141461032c57610173565b80630869cfbc14610178578063088bb73b146101af57806319406a64146101cb5780632d57f4ed146102045780633d391f70146102205780634150f5541461023c575b600080fd5b610192600480360381019061018d9190614cf4565b610579565b6040516101a6989796959493929190615869565b60405180910390f35b6101c960048036038101906101c49190614f8b565b610979565b005b6101e560048036038101906101e091906150d1565b610a75565b6040516101fb9a99989796959493929190615678565b60405180910390f35b61021e60048036038101906102199190614ef4565b610ed1565b005b61023a60048036038101906102359190614cf4565b610f65565b005b610244611275565b6040516102519190615767565b60405180910390f35b610274600480360381019061026f9190614e77565b611789565b6040516102819190615634565b60405180910390f35b6102a4600480360381019061029f9190614cf4565b6117d7565b6040516102b9999897969594939291906157a4565b60405180910390f35b6102ca611cc8565b6040516102d79190615745565b60405180910390f35b6102fa60048036038101906102f59190614ef4565b611d56565b005b61031660048036038101906103119190614cf4565b611f1a565b6040516103239190615767565b60405180910390f35b610334612a3c565b6040516103419190615745565b60405180910390f35b610364600480360381019061035f9190614e77565b612aca565b60405161037a9a99989796959493929190615678565b60405180910390f35b61039d60048036038101906103989190614cf4565b612f33565b6040516103ad9493929190615918565b60405180910390f35b6103d060048036038101906103cb9190614cf4565b613141565b005b6103ec60048036038101906103e79190614d1d565b613430565b005b61040860048036038101906104039190614f8b565b613860565b005b610424600480360381019061041f91906150d1565b613ae4565b6040516104319190615634565b60405180910390f35b610454600480360381019061044f9190614cf4565b613b23565b6040516104619190615789565b60405180910390f35b610484600480360381019061047f91906150d1565b613b43565b6040516104919190615634565b60405180910390f35b6104b460048036038101906104af9190614cf4565b613b82565b6040516104c19190615745565b60405180910390f35b6104e460048036038101906104df9190614eb3565b613c52565b6040516104f19190615745565b60405180910390f35b610514600480360381019061050f9190614cf4565b61411b565b6040516105219190615745565b60405180910390f35b610544600480360381019061053f9190614cf4565b6141e8565b6040516105549493929190615918565b60405180910390f35b61057760048036038101906105729190614d1d565b6143b0565b005b600460205280600052604060002060009150905080600001805461059c90615c71565b80601f01602080910402602001604051908101604052809291908181526020018280546105c890615c71565b80156106155780601f106105ea57610100808354040283529160200191610615565b820191906000526020600020905b8154815290600101906020018083116105f857829003601f168201915b50505050509080600101805461062a90615c71565b80601f016020809104026020016040519081016040528092919081815260200182805461065690615c71565b80156106a35780601f10610678576101008083540402835291602001916106a3565b820191906000526020600020905b81548152906001019060200180831161068657829003601f168201915b5050505050908060020180546106b890615c71565b80601f01602080910402602001604051908101604052809291908181526020018280546106e490615c71565b80156107315780601f1061070657610100808354040283529160200191610731565b820191906000526020600020905b81548152906001019060200180831161071457829003601f168201915b50505050509080600301805461074690615c71565b80601f016020809104026020016040519081016040528092919081815260200182805461077290615c71565b80156107bf5780601f10610794576101008083540402835291602001916107bf565b820191906000526020600020905b8154815290600101906020018083116107a257829003601f168201915b5050505050908060040180546107d490615c71565b80601f016020809104026020016040519081016040528092919081815260200182805461080090615c71565b801561084d5780601f106108225761010080835404028352916020019161084d565b820191906000526020600020905b81548152906001019060200180831161083057829003601f168201915b50505050509080600501805461086290615c71565b80601f016020809104026020016040519081016040528092919081815260200182805461088e90615c71565b80156108db5780601f106108b0576101008083540402835291602001916108db565b820191906000526020600020905b8154815290600101906020018083116108be57829003601f168201915b5050505050908060060180546108f090615c71565b80601f016020809104026020016040519081016040528092919081815260200182805461091c90615c71565b80156109695780601f1061093e57610100808354040283529160200191610969565b820191906000526020600020905b81548152906001019060200180831161094c57829003601f168201915b5050505050908060080154905088565b6000600460003373ffffffffffffffffffffffffffffffffffffffff1673ffffffffffffffffffffffffffffffffffffffff1681526020019081526020016000209050878160000190805190602001906109d4929190614b40565b50868160050190805190602001906109ed929190614b40565b5085816001019080519060200190610a06929190614b40565b5084816002019080519060200190610a1f929190614b40565b5083816003019080519060200190610a38929190614b40565b5082816004019080519060200190610a51929190614b40565b5081816006019080519060200190610a6a929190614b40565b505050505050505050565b60028181548110610a8557600080fd5b90600052602060002090600a02016000915090508060000160009054906101000a900473ffffffffffffffffffffffffffffffffffffffff16908060010160009054906101000a900473ffffffffffffffffffffffffffffffffffffffff1690806002018054610af490615c71565b80601f0160208091040260200160405190810160405280929190818152602001828054610b2090615c71565b8015610b6d5780601f10610b4257610100808354040283529160200191610b6d565b820191906000526020600020905b815481529060010190602001808311610b5057829003601f168201915b505050505090806003018054610b8290615c71565b80601f0160208091040260200160405190810160405280929190818152602001828054610bae90615c71565b8015610bfb5780601f10610bd057610100808354040283529160200191610bfb565b820191906000526020600020905b815481529060010190602001808311610bde57829003601f168201915b505050505090806004018054610c1090615c71565b80601f0160208091040260200160405190810160405280929190818152602001828054610c3c90615c71565b8015610c895780601f10610c5e57610100808354040283529160200191610c89565b820191906000526020600020905b815481529060010190602001808311610c6c57829003601f168201915b505050505090806005018054610c9e90615c71565b80601f0160208091040260200160405190810160405280929190818152602001828054610cca90615c71565b8015610d175780601f10610cec57610100808354040283529160200191610d17565b820191906000526020600020905b815481529060010190602001808311610cfa57829003601f168201915b505050505090806006018054610d2c90615c71565b80601f0160208091040260200160405190810160405280929190818152602001828054610d5890615c71565b8015610da55780601f10610d7a57610100808354040283529160200191610da5565b820191906000526020600020905b815481529060010190602001808311610d8857829003601f168201915b505050505090806007018054610dba90615c71565b80601f0160208091040260200160405190810160405280929190818152602001828054610de690615c71565b8015610e335780601f10610e0857610100808354040283529160200191610e33565b820191906000526020600020905b815481529060010190602001808311610e1657829003601f168201915b505050505090806008018054610e4890615c71565b80601f0160208091040260200160405190810160405280929190818152602001828054610e7490615c71565b8015610ec15780601f10610e9657610100808354040283529160200191610ec1565b820191906000526020600020905b815481529060010190602001808311610ea457829003601f168201915b505050505090806009015490508a565b6000600560003373ffffffffffffffffffffffffffffffffffffffff1673ffffffffffffffffffffffffffffffffffffffff168152602001908152602001600020905083816000019080519060200190610f2c929190614b40565b5082816001019080519060200190610f45929190614b40565b5081816002019080519060200190610f5e929190614b40565b5050505050565b610f6f3382614991565b15610faf576040517f08c379a0000000000000000000000000000000000000000000000000000000008152600401610fa690615a12565b60405180910390fd5b6000805b600760003373ffffffffffffffffffffffffffffffffffffffff1673ffffffffffffffffffffffffffffffffffffffff168152602001908152602001600020805490508110156110ee578273ffffffffffffffffffffffffffffffffffffffff16600760003373ffffffffffffffffffffffffffffffffffffffff1673ffffffffffffffffffffffffffffffffffffffff168152602001908152602001600020828154811061108b577f4e487b7100000000000000000000000000000000000000000000000000000000600052603260045260246000fd5b9060005260206000200160009054906101000a900473ffffffffffffffffffffffffffffffffffffffff1673ffffffffffffffffffffffffffffffffffffffff1614156110db57600191506110ee565b80806110e690615ca3565b915050610fb3565b508061123857600460003373ffffffffffffffffffffffffffffffffffffffff1673ffffffffffffffffffffffffffffffffffffffff168152602001908152602001600020600701829080600181540180825580915050600190039060005260206000200160009091909190916101000a81548173ffffffffffffffffffffffffffffffffffffffff021916908373ffffffffffffffffffffffffffffffffffffffff160217905550600760003373ffffffffffffffffffffffffffffffffffffffff1673ffffffffffffffffffffffffffffffffffffffff168152602001908152602001600020829080600181540180825580915050600190039060005260206000200160009091909190916101000a81548173ffffffffffffffffffffffffffffffffffffffff021916908373ffffffffffffffffffffffffffffffffffffffff1602179055505b7f0ceda602a8e00ef76afe24614343eb6c034877c816b6184d641d2d8b713a0fc6338360405161126992919061564f565b60405180910390a15050565b60606002805480602002602001604051908101604052809291908181526020016000905b8282101561178057838290600052602060002090600a0201604051806101400160405290816000820160009054906101000a900473ffffffffffffffffffffffffffffffffffffffff1673ffffffffffffffffffffffffffffffffffffffff1673ffffffffffffffffffffffffffffffffffffffff1681526020016001820160009054906101000a900473ffffffffffffffffffffffffffffffffffffffff1673ffffffffffffffffffffffffffffffffffffffff1673ffffffffffffffffffffffffffffffffffffffff16815260200160028201805461137990615c71565b80601f01602080910402602001604051908101604052809291908181526020018280546113a590615c71565b80156113f25780601f106113c7576101008083540402835291602001916113f2565b820191906000526020600020905b8154815290600101906020018083116113d557829003601f168201915b5050505050815260200160038201805461140b90615c71565b80601f016020809104026020016040519081016040528092919081815260200182805461143790615c71565b80156114845780601f1061145957610100808354040283529160200191611484565b820191906000526020600020905b81548152906001019060200180831161146757829003601f168201915b5050505050815260200160048201805461149d90615c71565b80601f01602080910402602001604051908101604052809291908181526020018280546114c990615c71565b80156115165780601f106114eb57610100808354040283529160200191611516565b820191906000526020600020905b8154815290600101906020018083116114f957829003601f168201915b5050505050815260200160058201805461152f90615c71565b80601f016020809104026020016040519081016040528092919081815260200182805461155b90615c71565b80156115a85780601f1061157d576101008083540402835291602001916115a8565b820191906000526020600020905b81548152906001019060200180831161158b57829003601f168201915b505050505081526020016006820180546115c190615c71565b80601f01602080910402602001604051908101604052809291908181526020018280546115ed90615c71565b801561163a5780601f1061160f5761010080835404028352916020019161163a565b820191906000526020600020905b81548152906001019060200180831161161d57829003601f168201915b5050505050815260200160078201805461165390615c71565b80601f016020809104026020016040519081016040528092919081815260200182805461167f90615c71565b80156116cc5780601f106116a1576101008083540402835291602001916116cc565b820191906000526020600020905b8154815290600101906020018083116116af57829003601f168201915b505050505081526020016008820180546116e590615c71565b80601f016020809104026020016040519081016040528092919081815260200182805461171190615c71565b801561175e5780601f106117335761010080835404028352916020019161175e565b820191906000526020600020905b81548152906001019060200180831161174157829003601f168201915b5050505050815260200160098201548152505081526020019060010190611299565b50505050905090565b600760205281600052604060002081815481106117a557600080fd5b906000526020600020016000915091509054906101000a900473ffffffffffffffffffffffffffffffffffffffff1681565b606080606080606080606080600080600460008c73ffffffffffffffffffffffffffffffffffffffff1673ffffffffffffffffffffffffffffffffffffffff16815260200190815260200160002090508060000181600101826002018360030184600401856005018660060187600701886008015488805461185890615c71565b80601f016020809104026020016040519081016040528092919081815260200182805461188490615c71565b80156118d15780601f106118a6576101008083540402835291602001916118d1565b820191906000526020600020905b8154815290600101906020018083116118b457829003601f168201915b505050505098508780546118e490615c71565b80601f016020809104026020016040519081016040528092919081815260200182805461191090615c71565b801561195d5780601f106119325761010080835404028352916020019161195d565b820191906000526020600020905b81548152906001019060200180831161194057829003601f168201915b5050505050975086805461197090615c71565b80601f016020809104026020016040519081016040528092919081815260200182805461199c90615c71565b80156119e95780601f106119be576101008083540402835291602001916119e9565b820191906000526020600020905b8154815290600101906020018083116119cc57829003601f168201915b505050505096508580546119fc90615c71565b80601f0160208091040260200160405190810160405280929190818152602001828054611a2890615c71565b8015611a755780601f10611a4a57610100808354040283529160200191611a75565b820191906000526020600020905b815481529060010190602001808311611a5857829003601f168201915b50505050509550848054611a8890615c71565b80601f0160208091040260200160405190810160405280929190818152602001828054611ab490615c71565b8015611b015780601f10611ad657610100808354040283529160200191611b01565b820191906000526020600020905b815481529060010190602001808311611ae457829003601f168201915b50505050509450838054611b1490615c71565b80601f0160208091040260200160405190810160405280929190818152602001828054611b4090615c71565b8015611b8d5780601f10611b6257610100808354040283529160200191611b8d565b820191906000526020600020905b815481529060010190602001808311611b7057829003601f168201915b50505050509350828054611ba090615c71565b80601f0160208091040260200160405190810160405280929190818152602001828054611bcc90615c71565b8015611c195780601f10611bee57610100808354040283529160200191611c19565b820191906000526020600020905b815481529060010190602001808311611bfc57829003601f168201915b5050505050925081805480602002602001604051908101604052809291908181526020018280548015611ca157602002820191906000526020600020905b8160009054906101000a900473ffffffffffffffffffffffffffffffffffffffff1673ffffffffffffffffffffffffffffffffffffffff1681526020019060010190808311611c57575b50505050509150995099509950995099509950995099509950509193959799909294969850565b60606000805480602002602001604051908101604052809291908181526020018280548015611d4c57602002820191906000526020600020905b8160009054906101000a900473ffffffffffffffffffffffffffffffffffffffff1673ffffffffffffffffffffffffffffffffffffffff1681526020019060010190808311611d02575b5050505050905090565b600360003373ffffffffffffffffffffffffffffffffffffffff1673ffffffffffffffffffffffffffffffffffffffff16815260200190815260200160002060009054906101000a900460ff1615611de3576040517f08c379a0000000000000000000000000000000000000000000000000000000008152600401611dda90615972565b60405180910390fd5b6000600560003373ffffffffffffffffffffffffffffffffffffffff1673ffffffffffffffffffffffffffffffffffffffff168152602001908152602001600020905083816000019080519060200190611e3e929190614b40565b5082816001019080519060200190611e57929190614b40565b5081816002019080519060200190611e70929190614b40565b504281600301819055506001339080600181540180825580915050600190039060005260206000200160009091909190916101000a81548173ffffffffffffffffffffffffffffffffffffffff021916908373ffffffffffffffffffffffffffffffffffffffff1602179055507f380355b6fe4f9755ddcef7c5c195edae45bdb34953a41d82386022f3cd5899f033604051611f0c9190615634565b60405180910390a150505050565b60608173ffffffffffffffffffffffffffffffffffffffff163373ffffffffffffffffffffffffffffffffffffffff1614156124a157600660008373ffffffffffffffffffffffffffffffffffffffff1673ffffffffffffffffffffffffffffffffffffffff168152602001908152602001600020805480602002602001604051908101604052809291908181526020016000905b8282101561249657838290600052602060002090600a0201604051806101400160405290816000820160009054906101000a900473ffffffffffffffffffffffffffffffffffffffff1673ffffffffffffffffffffffffffffffffffffffff1673ffffffffffffffffffffffffffffffffffffffff1681526020016001820160009054906101000a900473ffffffffffffffffffffffffffffffffffffffff1673ffffffffffffffffffffffffffffffffffffffff1673ffffffffffffffffffffffffffffffffffffffff16815260200160028201805461208f90615c71565b80601f01602080910402602001604051908101604052809291908181526020018280546120bb90615c71565b80156121085780601f106120dd57610100808354040283529160200191612108565b820191906000526020600020905b8154815290600101906020018083116120eb57829003601f168201915b5050505050815260200160038201805461212190615c71565b80601f016020809104026020016040519081016040528092919081815260200182805461214d90615c71565b801561219a5780601f1061216f5761010080835404028352916020019161219a565b820191906000526020600020905b81548152906001019060200180831161217d57829003601f168201915b505050505081526020016004820180546121b390615c71565b80601f01602080910402602001604051908101604052809291908181526020018280546121df90615c71565b801561222c5780601f106122015761010080835404028352916020019161222c565b820191906000526020600020905b81548152906001019060200180831161220f57829003601f168201915b5050505050815260200160058201805461224590615c71565b80601f016020809104026020016040519081016040528092919081815260200182805461227190615c71565b80156122be5780601f10612293576101008083540402835291602001916122be565b820191906000526020600020905b8154815290600101906020018083116122a157829003601f168201915b505050505081526020016006820180546122d790615c71565b80601f016020809104026020016040519081016040528092919081815260200182805461230390615c71565b80156123505780601f1061232557610100808354040283529160200191612350565b820191906000526020600020905b81548152906001019060200180831161233357829003601f168201915b5050505050815260200160078201805461236990615c71565b80601f016020809104026020016040519081016040528092919081815260200182805461239590615c71565b80156123e25780601f106123b7576101008083540402835291602001916123e2565b820191906000526020600020905b8154815290600101906020018083116123c557829003601f168201915b505050505081526020016008820180546123fb90615c71565b80601f016020809104026020016040519081016040528092919081815260200182805461242790615c71565b80156124745780601f1061244957610100808354040283529160200191612474565b820191906000526020600020905b81548152906001019060200180831161245757829003601f168201915b5050505050815260200160098201548152505081526020019060010190611faf565b505050509050612a37565b6124ab8233614991565b6124ea576040517f08c379a00000000000000000000000000000000000000000000000000000000081526004016124e1906159b2565b60405180910390fd5b600660008373ffffffffffffffffffffffffffffffffffffffff1673ffffffffffffffffffffffffffffffffffffffff168152602001908152602001600020805480602002602001604051908101604052809291908181526020016000905b82821015612a3057838290600052602060002090600a0201604051806101400160405290816000820160009054906101000a900473ffffffffffffffffffffffffffffffffffffffff1673ffffffffffffffffffffffffffffffffffffffff1673ffffffffffffffffffffffffffffffffffffffff1681526020016001820160009054906101000a900473ffffffffffffffffffffffffffffffffffffffff1673ffffffffffffffffffffffffffffffffffffffff1673ffffffffffffffffffffffffffffffffffffffff16815260200160028201805461262990615c71565b80601f016020809104026020016040519081016040528092919081815260200182805461265590615c71565b80156126a25780601f10612677576101008083540402835291602001916126a2565b820191906000526020600020905b81548152906001019060200180831161268557829003601f168201915b505050505081526020016003820180546126bb90615c71565b80601f01602080910402602001604051908101604052809291908181526020018280546126e790615c71565b80156127345780601f1061270957610100808354040283529160200191612734565b820191906000526020600020905b81548152906001019060200180831161271757829003601f168201915b5050505050815260200160048201805461274d90615c71565b80601f016020809104026020016040519081016040528092919081815260200182805461277990615c71565b80156127c65780601f1061279b576101008083540402835291602001916127c6565b820191906000526020600020905b8154815290600101906020018083116127a957829003601f168201915b505050505081526020016005820180546127df90615c71565b80601f016020809104026020016040519081016040528092919081815260200182805461280b90615c71565b80156128585780601f1061282d57610100808354040283529160200191612858565b820191906000526020600020905b81548152906001019060200180831161283b57829003601f168201915b5050505050815260200160068201805461287190615c71565b80601f016020809104026020016040519081016040528092919081815260200182805461289d90615c71565b80156128ea5780601f106128bf576101008083540402835291602001916128ea565b820191906000526020600020905b8154815290600101906020018083116128cd57829003601f168201915b5050505050815260200160078201805461290390615c71565b80601f016020809104026020016040519081016040528092919081815260200182805461292f90615c71565b801561297c5780601f106129515761010080835404028352916020019161297c565b820191906000526020600020905b81548152906001019060200180831161295f57829003601f168201915b5050505050815260200160088201805461299590615c71565b80601f01602080910402602001604051908101604052809291908181526020018280546129c190615c71565b8015612a0e5780601f106129e357610100808354040283529160200191612a0e565b820191906000526020600020905b8154815290600101906020018083116129f157829003601f168201915b5050505050815260200160098201548152505081526020019060010190612549565b5050505090505b919050565b60606001805480602002602001604051908101604052809291908181526020018280548015612ac057602002820191906000526020600020905b8160009054906101000a900473ffffffffffffffffffffffffffffffffffffffff1673ffffffffffffffffffffffffffffffffffffffff1681526020019060010190808311612a76575b5050505050905090565b60066020528160005260406000208181548110612ae657600080fd5b90600052602060002090600a0201600091509150508060000160009054906101000a900473ffffffffffffffffffffffffffffffffffffffff16908060010160009054906101000a900473ffffffffffffffffffffffffffffffffffffffff1690806002018054612b5690615c71565b80601f0160208091040260200160405190810160405280929190818152602001828054612b8290615c71565b8015612bcf5780601f10612ba457610100808354040283529160200191612bcf565b820191906000526020600020905b815481529060010190602001808311612bb257829003601f168201915b505050505090806003018054612be490615c71565b80601f0160208091040260200160405190810160405280929190818152602001828054612c1090615c71565b8015612c5d5780601f10612c3257610100808354040283529160200191612c5d565b820191906000526020600020905b815481529060010190602001808311612c4057829003601f168201915b505050505090806004018054612c7290615c71565b80601f0160208091040260200160405190810160405280929190818152602001828054612c9e90615c71565b8015612ceb5780601f10612cc057610100808354040283529160200191612ceb565b820191906000526020600020905b815481529060010190602001808311612cce57829003601f168201915b505050505090806005018054612d0090615c71565b80601f0160208091040260200160405190810160405280929190818152602001828054612d2c90615c71565b8015612d795780601f10612d4e57610100808354040283529160200191612d79565b820191906000526020600020905b815481529060010190602001808311612d5c57829003601f168201915b505050505090806006018054612d8e90615c71565b80601f0160208091040260200160405190810160405280929190818152602001828054612dba90615c71565b8015612e075780601f10612ddc57610100808354040283529160200191612e07565b820191906000526020600020905b815481529060010190602001808311612dea57829003601f168201915b505050505090806007018054612e1c90615c71565b80601f0160208091040260200160405190810160405280929190818152602001828054612e4890615c71565b8015612e955780601f10612e6a57610100808354040283529160200191612e95565b820191906000526020600020905b815481529060010190602001808311612e7857829003601f168201915b505050505090806008018054612eaa90615c71565b80601f0160208091040260200160405190810160405280929190818152602001828054612ed690615c71565b8015612f235780601f10612ef857610100808354040283529160200191612f23565b820191906000526020600020905b815481529060010190602001808311612f0657829003601f168201915b505050505090806009015490508a565b6060806060600080600560008773ffffffffffffffffffffffffffffffffffffffff1673ffffffffffffffffffffffffffffffffffffffff16815260200190815260200160002090508060000181600101826002018360030154838054612f9990615c71565b80601f0160208091040260200160405190810160405280929190818152602001828054612fc590615c71565b80156130125780601f10612fe757610100808354040283529160200191613012565b820191906000526020600020905b815481529060010190602001808311612ff557829003601f168201915b5050505050935082805461302590615c71565b80601f016020809104026020016040519081016040528092919081815260200182805461305190615c71565b801561309e5780601f106130735761010080835404028352916020019161309e565b820191906000526020600020905b81548152906001019060200180831161308157829003601f168201915b505050505092508180546130b190615c71565b80601f01602080910402602001604051908101604052809291908181526020018280546130dd90615c71565b801561312a5780601f106130ff5761010080835404028352916020019161312a565b820191906000526020600020905b81548152906001019060200180831161310d57829003601f168201915b505050505091509450945094509450509193509193565b61314b3382614991565b61318a576040517f08c379a0000000000000000000000000000000000000000000000000000000008152600401613181906159d2565b60405180910390fd5b6000600460003373ffffffffffffffffffffffffffffffffffffffff1673ffffffffffffffffffffffffffffffffffffffff168152602001908152602001600020600701905060005b818054905081101561342a578273ffffffffffffffffffffffffffffffffffffffff1682828154811061322f577f4e487b7100000000000000000000000000000000000000000000000000000000600052603260045260246000fd5b9060005260206000200160009054906101000a900473ffffffffffffffffffffffffffffffffffffffff1673ffffffffffffffffffffffffffffffffffffffff1614156134175781600183805490506132889190615bb3565b815481106132bf577f4e487b7100000000000000000000000000000000000000000000000000000000600052603260045260246000fd5b9060005260206000200160009054906101000a900473ffffffffffffffffffffffffffffffffffffffff16828281548110613323577f4e487b7100000000000000000000000000000000000000000000000000000000600052603260045260246000fd5b9060005260206000200160006101000a81548173ffffffffffffffffffffffffffffffffffffffff021916908373ffffffffffffffffffffffffffffffffffffffff160217905550818054806133a2577f4e487b7100000000000000000000000000000000000000000000000000000000600052603160045260246000fd5b6001900381819060005260206000200160006101000a81549073ffffffffffffffffffffffffffffffffffffffff021916905590557f5f708ef9fc37d19d88246c264788c8cdf640c9ff500bd168e941ea1421c4f6c4338460405161340892919061564f565b60405180910390a1505061342d565b808061342290615ca3565b9150506131d3565b50505b50565b6000600660008a73ffffffffffffffffffffffffffffffffffffffff1673ffffffffffffffffffffffffffffffffffffffff168152602001908152602001600020905060008180549050116134ba576040517f08c379a00000000000000000000000000000000000000000000000000000000081526004016134b1906159f2565b60405180910390fd5b60005b818054905081101561381a573373ffffffffffffffffffffffffffffffffffffffff16828281548110613519577f4e487b7100000000000000000000000000000000000000000000000000000000600052603260045260246000fd5b90600052602060002090600a020160010160009054906101000a900473ffffffffffffffffffffffffffffffffffffffff1673ffffffffffffffffffffffffffffffffffffffff16141561380757888282815481106135a1577f4e487b7100000000000000000000000000000000000000000000000000000000600052603260045260246000fd5b90600052602060002090600a020160020190805190602001906135c5929190614b40565b5087828281548110613600577f4e487b7100000000000000000000000000000000000000000000000000000000600052603260045260246000fd5b90600052602060002090600a02016003019080519060200190613624929190614b40565b508682828154811061365f577f4e487b7100000000000000000000000000000000000000000000000000000000600052603260045260246000fd5b90600052602060002090600a02016004019080519060200190613683929190614b40565b50858282815481106136be577f4e487b7100000000000000000000000000000000000000000000000000000000600052603260045260246000fd5b90600052602060002090600a020160050190805190602001906136e2929190614b40565b508482828154811061371d577f4e487b7100000000000000000000000000000000000000000000000000000000600052603260045260246000fd5b90600052602060002090600a02016006019080519060200190613741929190614b40565b508382828154811061377c577f4e487b7100000000000000000000000000000000000000000000000000000000600052603260045260246000fd5b90600052602060002090600a020160070190805190602001906137a0929190614b40565b50828282815481106137db577f4e487b7100000000000000000000000000000000000000000000000000000000600052603260045260246000fd5b90600052602060002090600a020160080190805190602001906137ff929190614b40565b505050613856565b808061381290615ca3565b9150506134bd565b506040517f08c379a000000000000000000000000000000000000000000000000000000000815260040161384d90615a32565b60405180910390fd5b5050505050505050565b600360003373ffffffffffffffffffffffffffffffffffffffff1673ffffffffffffffffffffffffffffffffffffffff16815260200190815260200160002060009054906101000a900460ff16156138ed576040517f08c379a00000000000000000000000000000000000000000000000000000000081526004016138e490615972565b60405180910390fd5b6000600460003373ffffffffffffffffffffffffffffffffffffffff1673ffffffffffffffffffffffffffffffffffffffff168152602001908152602001600020905087816000019080519060200190613948929190614b40565b5086816005019080519060200190613961929190614b40565b508581600101908051906020019061397a929190614b40565b5084816002019080519060200190613993929190614b40565b50838160030190805190602001906139ac929190614b40565b50828160040190805190602001906139c5929190614b40565b50818160060190805190602001906139de929190614b40565b504281600801819055506000339080600181540180825580915050600190039060005260206000200160009091909190916101000a81548173ffffffffffffffffffffffffffffffffffffffff021916908373ffffffffffffffffffffffffffffffffffffffff1602179055506001600360003373ffffffffffffffffffffffffffffffffffffffff1673ffffffffffffffffffffffffffffffffffffffff16815260200190815260200160002060006101000a81548160ff0219169083151502179055507fc9fa2003fca4ce0dfc8cb0deae32266b715536df6685365b05b5be96ede8e49c33604051613ad29190615634565b60405180910390a15050505050505050565b60008181548110613af457600080fd5b906000526020600020016000915054906101000a900473ffffffffffffffffffffffffffffffffffffffff1681565b60036020528060005260406000206000915054906101000a900460ff1681565b60018181548110613b5357600080fd5b906000526020600020016000915054906101000a900473ffffffffffffffffffffffffffffffffffffffff1681565b6060600460008373ffffffffffffffffffffffffffffffffffffffff1673ffffffffffffffffffffffffffffffffffffffff168152602001908152602001600020600701805480602002602001604051908101604052809291908181526020018280548015613c4657602002820191906000526020600020905b8160009054906101000a900473ffffffffffffffffffffffffffffffffffffffff1673ffffffffffffffffffffffffffffffffffffffff1681526020019060010190808311613bfc575b50505050509050919050565b60606000600180549050600080549050613c6c9190615b5d565b67ffffffffffffffff811115613cab577f4e487b7100000000000000000000000000000000000000000000000000000000600052604160045260246000fd5b604051908082528060200260200182016040528015613cd95781602001602082028036833780820191505090505b5090506000805b600080549050811015613ec5576000808281548110613d28577f4e487b7100000000000000000000000000000000000000000000000000000000600052603260045260246000fd5b9060005260206000200160009054906101000a900473ffffffffffffffffffffffffffffffffffffffff169050613e29600460008373ffffffffffffffffffffffffffffffffffffffff1673ffffffffffffffffffffffffffffffffffffffff1681526020019081526020016000206000018054613da590615c71565b80601f0160208091040260200160405190810160405280929190818152602001828054613dd190615c71565b8015613e1e5780601f10613df357610100808354040283529160200191613e1e565b820191906000526020600020905b815481529060010190602001808311613e0157829003601f168201915b505050505087614ae7565b15613eb15780848481518110613e68577f4e487b7100000000000000000000000000000000000000000000000000000000600052603260045260246000fd5b602002602001019073ffffffffffffffffffffffffffffffffffffffff16908173ffffffffffffffffffffffffffffffffffffffff16815250508280613ead90615ca3565b9350505b508080613ebd90615ca3565b915050613ce0565b5060005b60018054905081101561410d5761400e6005600060018481548110613f17577f4e487b7100000000000000000000000000000000000000000000000000000000600052603260045260246000fd5b9060005260206000200160009054906101000a900473ffffffffffffffffffffffffffffffffffffffff1673ffffffffffffffffffffffffffffffffffffffff1673ffffffffffffffffffffffffffffffffffffffff1681526020019081526020016000206000018054613f8a90615c71565b80601f0160208091040260200160405190810160405280929190818152602001828054613fb690615c71565b80156140035780601f10613fd857610100808354040283529160200191614003565b820191906000526020600020905b815481529060010190602001808311613fe657829003601f168201915b505050505086614ae7565b156140fa576001818154811061404d577f4e487b7100000000000000000000000000000000000000000000000000000000600052603260045260246000fd5b9060005260206000200160009054906101000a900473ffffffffffffffffffffffffffffffffffffffff168383815181106140b1577f4e487b7100000000000000000000000000000000000000000000000000000000600052603260045260246000fd5b602002602001019073ffffffffffffffffffffffffffffffffffffffff16908173ffffffffffffffffffffffffffffffffffffffff168152505081806140f690615ca3565b9250505b808061410590615ca3565b915050613ec9565b508082528192505050919050565b6060600760008373ffffffffffffffffffffffffffffffffffffffff1673ffffffffffffffffffffffffffffffffffffffff1681526020019081526020016000208054806020026020016040519081016040528092919081815260200182805480156141dc57602002820191906000526020600020905b8160009054906101000a900473ffffffffffffffffffffffffffffffffffffffff1673ffffffffffffffffffffffffffffffffffffffff1681526020019060010190808311614192575b50505050509050919050565b600560205280600052604060002060009150905080600001805461420b90615c71565b80601f016020809104026020016040519081016040528092919081815260200182805461423790615c71565b80156142845780601f1061425957610100808354040283529160200191614284565b820191906000526020600020905b81548152906001019060200180831161426757829003601f168201915b50505050509080600101805461429990615c71565b80601f01602080910402602001604051908101604052809291908181526020018280546142c590615c71565b80156143125780601f106142e757610100808354040283529160200191614312565b820191906000526020600020905b8154815290600101906020018083116142f557829003601f168201915b50505050509080600201805461432790615c71565b80601f016020809104026020016040519081016040528092919081815260200182805461435390615c71565b80156143a05780601f10614375576101008083540402835291602001916143a0565b820191906000526020600020905b81548152906001019060200180831161438357829003601f168201915b5050505050908060030154905084565b600360008973ffffffffffffffffffffffffffffffffffffffff1673ffffffffffffffffffffffffffffffffffffffff16815260200190815260200160002060009054906101000a900460ff1661443c576040517f08c379a000000000000000000000000000000000000000000000000000000000815260040161443390615992565b60405180910390fd5b6144468833614991565b61452757600460008973ffffffffffffffffffffffffffffffffffffffff1673ffffffffffffffffffffffffffffffffffffffff168152602001908152602001600020600701339080600181540180825580915050600190039060005260206000200160009091909190916101000a81548173ffffffffffffffffffffffffffffffffffffffff021916908373ffffffffffffffffffffffffffffffffffffffff1602179055507f0ceda602a8e00ef76afe24614343eb6c034877c816b6184d641d2d8b713a0fc6883360405161451e92919061564f565b60405180910390a15b61452f614bc6565b88816000019073ffffffffffffffffffffffffffffffffffffffff16908173ffffffffffffffffffffffffffffffffffffffff168152505033816020019073ffffffffffffffffffffffffffffffffffffffff16908173ffffffffffffffffffffffffffffffffffffffff1681525050878160400181905250868160600181905250858160800181905250848160a00181905250838160c00181905250828160e00181905250818161010001819052504281610120018181525050600660008a73ffffffffffffffffffffffffffffffffffffffff1673ffffffffffffffffffffffffffffffffffffffff1681526020019081526020016000208190806001815401808255809150506001900390600052602060002090600a020160009091909190915060008201518160000160006101000a81548173ffffffffffffffffffffffffffffffffffffffff021916908373ffffffffffffffffffffffffffffffffffffffff16021790555060208201518160010160006101000a81548173ffffffffffffffffffffffffffffffffffffffff021916908373ffffffffffffffffffffffffffffffffffffffff16021790555060408201518160020190805190602001906146fd929190614b40565b50606082015181600301908051906020019061471a929190614b40565b506080820151816004019080519060200190614737929190614b40565b5060a0820151816005019080519060200190614754929190614b40565b5060c0820151816006019080519060200190614771929190614b40565b5060e082015181600701908051906020019061478e929190614b40565b506101008201518160080190805190602001906147ac929190614b40565b506101208201518160090155505060028190806001815401808255809150506001900390600052602060002090600a020160009091909190915060008201518160000160006101000a81548173ffffffffffffffffffffffffffffffffffffffff021916908373ffffffffffffffffffffffffffffffffffffffff16021790555060208201518160010160006101000a81548173ffffffffffffffffffffffffffffffffffffffff021916908373ffffffffffffffffffffffffffffffffffffffff1602179055506040820151816002019080519060200190614890929190614b40565b5060608201518160030190805190602001906148ad929190614b40565b5060808201518160040190805190602001906148ca929190614b40565b5060a08201518160050190805190602001906148e7929190614b40565b5060c0820151816006019080519060200190614904929190614b40565b5060e0820151816007019080519060200190614921929190614b40565b5061010082015181600801908051906020019061493f929190614b40565b50610120820151816009015550507fc7151deb4da24eab96e6b6ebf3dd8737aa991256fe726afc42b62e652564bef0893360405161497e92919061564f565b60405180910390a1505050505050505050565b600080600090505b600460008573ffffffffffffffffffffffffffffffffffffffff1673ffffffffffffffffffffffffffffffffffffffff16815260200190815260200160002060070180549050811015614adb578273ffffffffffffffffffffffffffffffffffffffff16600460008673ffffffffffffffffffffffffffffffffffffffff1673ffffffffffffffffffffffffffffffffffffffff1681526020019081526020016000206007018281548110614a77577f4e487b7100000000000000000000000000000000000000000000000000000000600052603260045260246000fd5b9060005260206000200160009054906101000a900473ffffffffffffffffffffffffffffffffffffffff1673ffffffffffffffffffffffffffffffffffffffff161415614ac8576001915050614ae1565b8080614ad390615ca3565b915050614999565b50600090505b92915050565b600081604051602001614afa919061561d565b6040516020818303038152906040528051906020012083604051602001614b21919061561d565b6040516020818303038152906040528051906020012014905092915050565b828054614b4c90615c71565b90600052602060002090601f016020900481019282614b6e5760008555614bb5565b82601f10614b8757805160ff1916838001178555614bb5565b82800160010185558215614bb5579182015b82811115614bb4578251825591602001919060010190614b99565b5b509050614bc29190614c45565b5090565b604051806101400160405280600073ffffffffffffffffffffffffffffffffffffffff168152602001600073ffffffffffffffffffffffffffffffffffffffff16815260200160608152602001606081526020016060815260200160608152602001606081526020016060815260200160608152602001600081525090565b5b80821115614c5e576000816000905550600101614c46565b5090565b6000614c75614c7084615a83565b615a52565b905082815260208101848484011115614c8d57600080fd5b614c98848285615c2f565b509392505050565b600081359050614caf81615d8a565b92915050565b600082601f830112614cc657600080fd5b8135614cd6848260208601614c62565b91505092915050565b600081359050614cee81615da1565b92915050565b600060208284031215614d0657600080fd5b6000614d1484828501614ca0565b91505092915050565b600080600080600080600080610100898b031215614d3a57600080fd5b6000614d488b828c01614ca0565b985050602089013567ffffffffffffffff811115614d6557600080fd5b614d718b828c01614cb5565b975050604089013567ffffffffffffffff811115614d8e57600080fd5b614d9a8b828c01614cb5565b965050606089013567ffffffffffffffff811115614db757600080fd5b614dc38b828c01614cb5565b955050608089013567ffffffffffffffff811115614de057600080fd5b614dec8b828c01614cb5565b94505060a089013567ffffffffffffffff811115614e0957600080fd5b614e158b828c01614cb5565b93505060c089013567ffffffffffffffff811115614e3257600080fd5b614e3e8b828c01614cb5565b92505060e089013567ffffffffffffffff811115614e5b57600080fd5b614e678b828c01614cb5565b9150509295985092959890939650565b60008060408385031215614e8a57600080fd5b6000614e9885828601614ca0565b9250506020614ea985828601614cdf565b9150509250929050565b600060208284031215614ec557600080fd5b600082013567ffffffffffffffff811115614edf57600080fd5b614eeb84828501614cb5565b91505092915050565b600080600060608486031215614f0957600080fd5b600084013567ffffffffffffffff811115614f2357600080fd5b614f2f86828701614cb5565b935050602084013567ffffffffffffffff811115614f4c57600080fd5b614f5886828701614cb5565b925050604084013567ffffffffffffffff811115614f7557600080fd5b614f8186828701614cb5565b9150509250925092565b600080600080600080600060e0888a031215614fa657600080fd5b600088013567ffffffffffffffff811115614fc057600080fd5b614fcc8a828b01614cb5565b975050602088013567ffffffffffffffff811115614fe957600080fd5b614ff58a828b01614cb5565b965050604088013567ffffffffffffffff81111561501257600080fd5b61501e8a828b01614cb5565b955050606088013567ffffffffffffffff81111561503b57600080fd5b6150478a828b01614cb5565b945050608088013567ffffffffffffffff81111561506457600080fd5b6150708a828b01614cb5565b93505060a088013567ffffffffffffffff81111561508d57600080fd5b6150998a828b01614cb5565b92505060c088013567ffffffffffffffff8111156150b657600080fd5b6150c28a828b01614cb5565b91505092959891949750929550565b6000602082840312156150e357600080fd5b60006150f184828501614cdf565b91505092915050565b60006151068383615126565b60208301905092915050565b600061511e83836154fb565b905092915050565b61512f81615be7565b82525050565b61513e81615be7565b82525050565b600061514f82615ad3565b6151598185615b0e565b935061516483615ab3565b8060005b8381101561519557815161517c88826150fa565b975061518783615af4565b925050600181019050615168565b5085935050505092915050565b60006151ad82615ade565b6151b78185615b1f565b9350836020820285016151c985615ac3565b8060005b8581101561520557848403895281516151e68582615112565b94506151f183615b01565b925060208a019950506001810190506151cd565b50829750879550505050505092915050565b61522081615bf9565b82525050565b600061523182615ae9565b61523b8185615b30565b935061524b818560208601615c3e565b61525481615d79565b840191505092915050565b600061526a82615ae9565b6152748185615b41565b9350615284818560208601615c3e565b61528d81615d79565b840191505092915050565b60006152a382615ae9565b6152ad8185615b52565b93506152bd818560208601615c3e565b80840191505092915050565b60006152d6601a83615b41565b91507f50617469656e7420616c726561647920726567697374657265640000000000006000830152602082019050919050565b6000615316601683615b41565b91507f50617469656e74206e6f742072656769737465726564000000000000000000006000830152602082019050919050565b6000615356603283615b41565b91507f43616c6c6572206973206e6f7420617574686f72697a656420746f206163636560008301527f73732070617469656e74207265636f72647300000000000000000000000000006020830152604082019050919050565b60006153bc601783615b41565b91507f486f73706974616c206e6f7420617574686f72697a65640000000000000000006000830152602082019050919050565b60006153fc603083615b41565b91507f4e6f206d65646963616c20686973746f7279207265636f72647320666f756e6460008301527f20666f72207468652070617469656e74000000000000000000000000000000006020830152604082019050919050565b6000615462601b83615b41565b91507f486f73706974616c20616c726561647920617574686f72697a656400000000006000830152602082019050919050565b60006154a2603b83615b41565b91507f4d65646963616c20686973746f7279207265636f7264206e6f7420666f756e6460008301527f20666f72207468652073706563696669656420686f73706974616c00000000006020830152604082019050919050565b6000610140830160008301516155146000860182615126565b5060208301516155276020860182615126565b506040830151848203604086015261553f8282615226565b915050606083015184820360608601526155598282615226565b915050608083015184820360808601526155738282615226565b91505060a083015184820360a086015261558d8282615226565b91505060c083015184820360c08601526155a78282615226565b91505060e083015184820360e08601526155c18282615226565b9150506101008301518482036101008601526155dd8282615226565b9150506101208301516155f46101208601826155ff565b508091505092915050565b61560881615c25565b82525050565b61561781615c25565b82525050565b60006156298284615298565b915081905092915050565b60006020820190506156496000830184615135565b92915050565b60006040820190506156646000830185615135565b6156716020830184615135565b9392505050565b60006101408201905061568e600083018d615135565b61569b602083018c615135565b81810360408301526156ad818b61525f565b905081810360608301526156c1818a61525f565b905081810360808301526156d5818961525f565b905081810360a08301526156e9818861525f565b905081810360c08301526156fd818761525f565b905081810360e0830152615711818661525f565b9050818103610100830152615726818561525f565b905061573661012083018461560e565b9b9a5050505050505050505050565b6000602082019050818103600083015261575f8184615144565b905092915050565b6000602082019050818103600083015261578181846151a2565b905092915050565b600060208201905061579e6000830184615217565b92915050565b60006101208201905081810360008301526157bf818c61525f565b905081810360208301526157d3818b61525f565b905081810360408301526157e7818a61525f565b905081810360608301526157fb818961525f565b9050818103608083015261580f818861525f565b905081810360a0830152615823818761525f565b905081810360c0830152615837818661525f565b905081810360e083015261584b8185615144565b905061585b61010083018461560e565b9a9950505050505050505050565b6000610100820190508181036000830152615884818b61525f565b90508181036020830152615898818a61525f565b905081810360408301526158ac818961525f565b905081810360608301526158c0818861525f565b905081810360808301526158d4818761525f565b905081810360a08301526158e8818661525f565b905081810360c08301526158fc818561525f565b905061590b60e083018461560e565b9998505050505050505050565b60006080820190508181036000830152615932818761525f565b90508181036020830152615946818661525f565b9050818103604083015261595a818561525f565b9050615969606083018461560e565b95945050505050565b6000602082019050818103600083015261598b816152c9565b9050919050565b600060208201905081810360008301526159ab81615309565b9050919050565b600060208201905081810360008301526159cb81615349565b9050919050565b600060208201905081810360008301526159eb816153af565b9050919050565b60006020820190508181036000830152615a0b816153ef565b9050919050565b60006020820190508181036000830152615a2b81615455565b9050919050565b60006020820190508181036000830152615a4b81615495565b9050919050565b6000604051905081810181811067ffffffffffffffff82111715615a7957615a78615d4a565b5b8060405250919050565b600067ffffffffffffffff821115615a9e57615a9d615d4a565b5b601f19601f8301169050602081019050919050565b6000819050602082019050919050565b6000819050602082019050919050565b600081519050919050565b600081519050919050565b600081519050919050565b6000602082019050919050565b6000602082019050919050565b600082825260208201905092915050565b600082825260208201905092915050565b600082825260208201905092915050565b600082825260208201905092915050565b600081905092915050565b6000615b6882615c25565b9150615b7383615c25565b9250827fffffffffffffffffffffffffffffffffffffffffffffffffffffffffffffffff03821115615ba857615ba7615cec565b5b828201905092915050565b6000615bbe82615c25565b9150615bc983615c25565b925082821015615bdc57615bdb615cec565b5b828203905092915050565b6000615bf282615c05565b9050919050565b60008115159050919050565b600073ffffffffffffffffffffffffffffffffffffffff82169050919050565b6000819050919050565b82818337600083830152505050565b60005b83811015615c5c578082015181840152602081019050615c41565b83811115615c6b576000848401525b50505050565b60006002820490506001821680615c8957607f821691505b60208210811415615c9d57615c9c615d1b565b5b50919050565b6000615cae82615c25565b91507fffffffffffffffffffffffffffffffffffffffffffffffffffffffffffffffff821415615ce157615ce0615cec565b5b600182019050919050565b7f4e487b7100000000000000000000000000000000000000000000000000000000600052601160045260246000fd5b7f4e487b7100000000000000000000000000000000000000000000000000000000600052602260045260246000fd5b7f4e487b7100000000000000000000000000000000000000000000000000000000600052604160045260246000fd5b6000601f19601f8301169050919050565b615d9381615be7565b8114615d9e57600080fd5b50565b615daa81615c25565b8114615db557600080fd5b5056fea2646970667358221220d53076eab002d560fe8d96c2e4e7e4d0b50cfd95c059780b2c41ab2ae546bb1164736f6c63430008000033",
  "immutableReferences": {},
  "source": "// SPDX-License-Identifier: MIT\r\npragma solidity ^0.8.0;\r\n\r\n//Note kapag ginawa na ang backend. If halo halong characters ang isa-save, dapat may \" \"\r\n//bago ilagay sa function ng smart contract\r\n\r\ncontract MediVerse {\r\n    \r\n    struct Patient {\r\n        string name;\r\n        string gender;\r\n        string dateOfBirth;\r\n        string height;\r\n        string weight;\r\n        string contactNum;\r\n        string addr;\r\n        address[] authorizedHospitals;\r\n        uint registrationDate;\r\n    }\r\n\r\n    struct Hospital {\r\n        string name;\r\n        string contactNum;\r\n        string addr;\r\n        uint registrationDate;\r\n    }\r\n\r\n    struct MedicalHistory {\r\n        address patientAddr;\r\n        address hospitalAddr;\r\n        string physician;\r\n        string diagnosis;\r\n        string signsAndSymptoms;\r\n        string treatmentProcedure;\r\n        string tests;\r\n        string medications;\r\n        string admission;\r\n        uint creationDate;\r\n    }\r\n\r\n    address[] public patientList; // Dynamic array to store the addresses of registered patients\r\n    address[] public hospitalList;\r\n    MedicalHistory[] public medicalHistoryList;\r\n    mapping(address => bool) public isRegistered;\r\n    mapping(address => Patient) public patients;\r\n    mapping(address => Hospital) public hospitals;\r\n    mapping(address => MedicalHistory[]) public medicalHistories;\r\n    mapping(address => address[]) public pendingRequests;\r\n\r\n    event PatientRegistered(address patientAddr);\r\n    event HospitalRegistered(address hospitalAddr);\r\n    event MedicalHistoryAdded(address patientAddr, address hospitalAddr);\r\n    event GeneralHealthProfileAdded(address patientAddr, address hospitalAddr);\r\n    event PermissionGranted(address patientAddr, address hospitalAddr);\r\n    event PermissionRevoked(address patientAddr, address hospitalAddr);\r\n\r\n    modifier isRegister() {\r\n        require(isRegistered[msg.sender], \"Account is not registered\");\r\n        _;\r\n    }\r\n\r\n    modifier isAuthorized(address _patientAddr) {\r\n        require(\r\n            isHospitalAuthorized(_patientAddr, msg.sender),\r\n            \"Hospital not authorized to access patient records\"\r\n        );\r\n        _;\r\n    }\r\n\r\n    function isHospitalAuthorized(address _patientAddr, address _hospitalAddr) internal view returns (bool) {\r\n        for (uint i = 0; i < patients[_patientAddr].authorizedHospitals.length; i++) {\r\n            if (patients[_patientAddr].authorizedHospitals[i] == _hospitalAddr) {\r\n                return true;\r\n            }\r\n        }\r\n        return false;\r\n    }\r\n\r\n    function registerPatient(\r\n        string memory _name,\r\n        string memory _contactNum,\r\n        string memory _gender,\r\n        string memory _dateOfBirth,\r\n        string memory _height,\r\n        string memory _weight,\r\n        string memory _address\r\n    ) public {\r\n        require(!isRegistered[msg.sender], \"Patient already registered\");\r\n\r\n        Patient storage patient = patients[msg.sender];\r\n        patient.name = _name;\r\n        patient.contactNum = _contactNum;\r\n        patient.gender = _gender;\r\n        patient.dateOfBirth = _dateOfBirth;\r\n        patient.height = _height;\r\n        patient.weight = _weight;\r\n        patient.addr = _address;\r\n\r\n        patient.registrationDate = block.timestamp;\r\n        patientList.push(msg.sender);\r\n        isRegistered[msg.sender] = true;\r\n        emit PatientRegistered(msg.sender);\r\n    }\r\n\r\n    function editPatientDetails(\r\n        string memory _name,\r\n        string memory _contactNum,\r\n        string memory _gender,\r\n        string memory _dateOfBirth,\r\n        string memory _height,\r\n        string memory _weight,\r\n        string memory _address\r\n    ) public {\r\n        Patient storage patient = patients[msg.sender];\r\n        patient.name = _name;\r\n        patient.contactNum = _contactNum;\r\n        patient.gender = _gender;\r\n        patient.dateOfBirth = _dateOfBirth;\r\n        patient.height = _height;\r\n        patient.weight = _weight;\r\n        patient.addr = _address;\r\n    }\r\n\r\n    function registerHospital(\r\n        string memory _name,\r\n        string memory _contactNum,\r\n        string memory _address\r\n    ) public {\r\n        require(!isRegistered[msg.sender], \"Patient already registered\");\r\n        Hospital storage hospital = hospitals[msg.sender];\r\n        hospital.name = _name;\r\n        hospital.contactNum = _contactNum;\r\n        hospital.addr = _address;\r\n        hospital.registrationDate = block.timestamp;\r\n\r\n        hospitalList.push(msg.sender);\r\n        emit HospitalRegistered(msg.sender);\r\n    }\r\n\r\n    function editHospitalDetails(\r\n        string memory _name,\r\n        string memory _contactNum,\r\n        string memory _addr\r\n    ) public {\r\n        Hospital storage hospital = hospitals[msg.sender];\r\n        hospital.name = _name;\r\n        hospital.contactNum = _contactNum;\r\n        hospital.addr = _addr;\r\n    }\r\n\r\n    function addMedicalHistory(\r\n        address _patientAddr,\r\n        string memory _physician,\r\n        string memory _diagnosis,\r\n        string memory _signsAndSymptoms,\r\n        string memory _treatmentProcedure,\r\n        string memory _tests,\r\n        string memory _medications,\r\n        string memory _admission\r\n    ) public {\r\n        // Check if the patient is registered\r\n        require(isRegistered[_patientAddr], \"Patient not registered\");\r\n\r\n        // Check if the hospital is authorized, if not, grant access\r\n        if (!isHospitalAuthorized(_patientAddr, msg.sender)) {\r\n            patients[_patientAddr].authorizedHospitals.push(msg.sender);\r\n            emit PermissionGranted(_patientAddr, msg.sender);\r\n        }\r\n\r\n        MedicalHistory memory history;\r\n        history.patientAddr = _patientAddr;\r\n        history.hospitalAddr = msg.sender;\r\n        history.physician = _physician;\r\n        history.diagnosis = _diagnosis;\r\n        history.signsAndSymptoms = _signsAndSymptoms;\r\n        history.treatmentProcedure = _treatmentProcedure;\r\n        history.tests = _tests;\r\n        history.medications = _medications;\r\n        history.admission = _admission;\r\n        history.creationDate = block.timestamp;\r\n\r\n        medicalHistories[_patientAddr].push(history);\r\n        medicalHistoryList.push(history);\r\n        emit MedicalHistoryAdded(_patientAddr, msg.sender);\r\n    }\r\n\r\n    function editMedicalHistory(\r\n        address _patientAddr,\r\n        string memory _physician,\r\n        string memory _diagnosis,\r\n        string memory _signsAndSymptoms,\r\n        string memory _treatmentProcedure,\r\n        string memory _tests,\r\n        string memory _medications,\r\n        string memory _admission\r\n    ) public {\r\n        MedicalHistory[] storage history = medicalHistories[_patientAddr];\r\n\r\n        // Check if there are any records for the specified patient\r\n        require(history.length > 0, \"No medical history records found for the patient\");\r\n\r\n        // Iterate through the records to find the one matching your criteria\r\n        for (uint i = 0; i < history.length; i++) {\r\n            if (history[i].hospitalAddr == msg.sender) {\r\n                // Update the record with the new information\r\n                history[i].physician = _physician;\r\n                history[i].diagnosis = _diagnosis;\r\n                history[i].signsAndSymptoms = _signsAndSymptoms;\r\n                history[i].treatmentProcedure = _treatmentProcedure;\r\n                history[i].tests = _tests;\r\n                history[i].medications = _medications;\r\n                history[i].admission = _admission;\r\n\r\n                return; // Exit the function after updating the record\r\n            }\r\n        }\r\n        // If no matching record is found, revert the transaction\r\n        revert(\"Medical history record not found for the specified hospital\");\r\n    }\r\n\r\n    // Function that retrieves medical records for a specific patient\r\n    function getMedicalHistory(address _patientAddr) public view returns (MedicalHistory[] memory) {\r\n        // Check if the caller is the patient themselves\r\n        if (msg.sender == _patientAddr) {\r\n            // Return medical records for the patient\r\n            return medicalHistories[_patientAddr];\r\n        } else {\r\n            // Check if the caller is authorized to access the patient's medical history\r\n            require(isHospitalAuthorized(_patientAddr, msg.sender), \"Caller is not authorized to access patient records\");\r\n            // Return medical records for the patient\r\n            return medicalHistories[_patientAddr];\r\n        }\r\n    }\r\n\r\n    // function that will retrieve all the list of medical record\r\n    function getAllMedicalHistory() public view returns (MedicalHistory[] memory) {\r\n        return medicalHistoryList;\r\n    }\r\n\r\n    // Function to retrieve patient information\r\n    function getPatientInfo(address patientAddress) external view returns (string memory, string memory, string memory, string memory, string memory, string memory, string memory, address[] memory, uint) {\r\n        Patient storage patient = patients[patientAddress];\r\n        return (patient.name, patient.gender, patient.dateOfBirth, patient.height, patient.weight, patient.contactNum, patient.addr, patient.authorizedHospitals, patient.registrationDate);\r\n    }\r\n\r\n    // Function to retrieve hospital information\r\n    function getHospitalInfo(address hospitalAddress) external view returns (string memory, string memory, string memory, uint) {\r\n        Hospital storage hospital = hospitals[hospitalAddress];\r\n        return (hospital.name, hospital.contactNum, hospital.addr, hospital.registrationDate);\r\n    }\r\n    \r\n    function givePermission(address _hospitalAddr) public  {\r\n        require(!isHospitalAuthorized(msg.sender, _hospitalAddr), \"Hospital already authorized\");\r\n\r\n        // Check if the hospital is already in the pending requests\r\n        bool isPending = false;\r\n        for (uint i = 0; i < pendingRequests[msg.sender].length; i++) {\r\n            if (pendingRequests[msg.sender][i] == _hospitalAddr) {\r\n                isPending = true;\r\n                break;\r\n            }\r\n        }\r\n        // If not in pending, add to both authorized and pending requests\r\n        if (!isPending) {\r\n            patients[msg.sender].authorizedHospitals.push(_hospitalAddr);\r\n            pendingRequests[msg.sender].push(_hospitalAddr);\r\n        }\r\n\r\n        emit PermissionGranted(msg.sender, _hospitalAddr);\r\n    }\r\n\r\n    function revokeAccess(address _hospitalAddr) public {\r\n        require(isHospitalAuthorized(msg.sender, _hospitalAddr), \"Hospital not authorized\");\r\n\r\n        address[] storage authorizedHospitals = patients[msg.sender].authorizedHospitals;\r\n        for (uint i = 0; i < authorizedHospitals.length; i++) {\r\n            if (authorizedHospitals[i] == _hospitalAddr) {\r\n                authorizedHospitals[i] = authorizedHospitals[authorizedHospitals.length - 1];\r\n                authorizedHospitals.pop();\r\n                emit PermissionRevoked(msg.sender, _hospitalAddr);\r\n                return;\r\n            }\r\n        }\r\n    }\r\n\r\n    /** FUNCTION THAT WILL GET THE LIST OF AUTHORIZED HOSPITALS TO VIEW PATIENTS MEDICAL RECORDS **/\r\n    function getAuthorizedHospitals(address _patientAddr) public view returns (address[] memory) {\r\n        return patients[_patientAddr].authorizedHospitals;\r\n    }\r\n\r\n    // Function to get the list of pending permission requests for a patient\r\n    function getPendingRequests(address _patientAddr) public view returns (address[] memory) {\r\n        return pendingRequests[_patientAddr];\r\n    }\r\n\r\n    function getPatientList() public view returns (address[] memory) {\r\n        return patientList;\r\n    }\r\n\r\n    function getHospitalList() public view returns (address[] memory) {\r\n        return hospitalList;\r\n    }\r\n\r\n    function searchByName(string memory query) public view returns (address[] memory) {\r\n        address[] memory searchResults = new address[](patientList.length + hospitalList.length);\r\n\r\n        uint resultIndex = 0;\r\n\r\n        // Search among patients by name\r\n        for (uint i = 0; i < patientList.length; i++) {\r\n            address patientAddr = patientList[i];\r\n            if (compareStringsIgnoreCase(patients[patientAddr].name, query)) {\r\n                searchResults[resultIndex] = patientAddr;\r\n                resultIndex++;\r\n            }\r\n        }\r\n\r\n        // Search among hospitals by name\r\n        for (uint j = 0; j < hospitalList.length; j++) {\r\n            if (compareStringsIgnoreCase(hospitals[hospitalList[j]].name, query)) {\r\n                searchResults[resultIndex] = hospitalList[j];\r\n                resultIndex++;\r\n            }\r\n        }\r\n\r\n        // Resize the array to remove any unused slots\r\n        assembly {\r\n            mstore(searchResults, resultIndex)\r\n        }\r\n\r\n        return searchResults;\r\n    }\r\n\r\n    function compareStringsIgnoreCase(string memory a, string memory b) internal pure returns (bool) {\r\n        return (keccak256(abi.encodePacked((a))) == keccak256(abi.encodePacked((b))));\r\n    }\r\n}",
  "sourcePath": "C:\\Users\\Abby\\Desktop\\APPCON 2023\\MediVerse-Web3-Dapp\\contracts\\MediVerse.sol",
  "compiler": {
    "name": "solc",
    "version": "0.8.0+commit.c7dfd78e.Emscripten.clang"
  },
  "schemaVersion": "3.4.16",
  "updatedAt": "2024-03-23T15:27:06.519Z",
  "networkType": "ethereum",
  "devdoc": {
    "kind": "dev",
    "methods": {},
    "version": 1
  },
  "userdoc": {
    "kind": "user",
    "methods": {
      "getAuthorizedHospitals(address)": {
        "notice": "FUNCTION THAT WILL GET THE LIST OF AUTHORIZED HOSPITALS TO VIEW PATIENTS MEDICAL RECORDS *"
      }
    },
    "version": 1
  }
}