{
  "contractName": "MedicalProcedureHistory",
  "abi": [
    {
      "inputs": [
        {
          "internalType": "string",
          "name": "",
          "type": "string"
        }
      ],
      "name": "hospitalToPatient",
      "outputs": [
        {
          "internalType": "address",
          "name": "",
          "type": "address"
        }
      ],
      "stateMutability": "view",
      "type": "function",
      "constant": true
    },
    {
      "inputs": [
        {
          "internalType": "string",
          "name": "",
          "type": "string"
        },
        {
          "internalType": "address",
          "name": "",
          "type": "address"
        }
      ],
      "name": "patientPermissions",
      "outputs": [
        {
          "internalType": "bool",
          "name": "",
          "type": "bool"
        }
      ],
      "stateMutability": "view",
      "type": "function",
      "constant": true
    },
    {
      "inputs": [
        {
          "internalType": "string",
          "name": "",
          "type": "string"
        },
        {
          "internalType": "uint256",
          "name": "",
          "type": "uint256"
        }
      ],
      "name": "patientProcedureRecords",
      "outputs": [
        {
          "internalType": "string",
          "name": "",
          "type": "string"
        }
      ],
      "stateMutability": "view",
      "type": "function",
      "constant": true
    },
    {
      "inputs": [
        {
          "internalType": "string",
          "name": "",
          "type": "string"
        }
      ],
      "name": "procedureRecords",
      "outputs": [
        {
          "internalType": "address",
          "name": "hospitalAddr",
          "type": "address"
        },
        {
          "internalType": "string",
          "name": "hospital",
          "type": "string"
        },
        {
          "internalType": "string",
          "name": "patientID",
          "type": "string"
        },
        {
          "internalType": "string",
          "name": "recordID",
          "type": "string"
        },
        {
          "internalType": "string",
          "name": "procedureType",
          "type": "string"
        },
        {
          "internalType": "string",
          "name": "procedureDescription",
          "type": "string"
        },
        {
          "internalType": "string",
          "name": "procedureComplications",
          "type": "string"
        },
        {
          "internalType": "string",
          "name": "dateOfProcedure",
          "type": "string"
        },
        {
          "internalType": "string",
          "name": "preOperativeInstructions",
          "type": "string"
        },
        {
          "internalType": "string",
          "name": "postOperativeCare",
          "type": "string"
        }
      ],
      "stateMutability": "view",
      "type": "function",
      "constant": true
    },
    {
      "inputs": [
        {
          "internalType": "string",
          "name": "_hospital",
          "type": "string"
        },
        {
          "internalType": "string",
          "name": "_patientID",
          "type": "string"
        },
        {
          "internalType": "string",
          "name": "_recordID",
          "type": "string"
        },
        {
          "internalType": "string",
          "name": "_procedureType",
          "type": "string"
        },
        {
          "internalType": "string",
          "name": "_procedureDescription",
          "type": "string"
        },
        {
          "internalType": "string",
          "name": "_procedureComplications",
          "type": "string"
        },
        {
          "internalType": "string",
          "name": "_dateOfProcedure",
          "type": "string"
        },
        {
          "internalType": "string",
          "name": "_preOperativeInstructions",
          "type": "string"
        },
        {
          "internalType": "string",
          "name": "_postOperativeCare",
          "type": "string"
        }
      ],
      "name": "addProcedureRecord",
      "outputs": [],
      "stateMutability": "nonpayable",
      "type": "function"
    },
    {
      "inputs": [
        {
          "internalType": "string",
          "name": "_recordID",
          "type": "string"
        },
        {
          "internalType": "string",
          "name": "_procedureType",
          "type": "string"
        },
        {
          "internalType": "string",
          "name": "_procedureDescription",
          "type": "string"
        },
        {
          "internalType": "string",
          "name": "_procedureComplications",
          "type": "string"
        },
        {
          "internalType": "string",
          "name": "_dateOfProcedure",
          "type": "string"
        },
        {
          "internalType": "string",
          "name": "_preOperativeInstructions",
          "type": "string"
        },
        {
          "internalType": "string",
          "name": "_postOperativeCare",
          "type": "string"
        }
      ],
      "name": "editProcedureHistory",
      "outputs": [],
      "stateMutability": "nonpayable",
      "type": "function"
    },
    {
      "inputs": [
        {
          "internalType": "string",
          "name": "_patientID",
          "type": "string"
        }
      ],
      "name": "getAllProcedureHistoryRecords",
      "outputs": [
        {
          "components": [
            {
              "internalType": "address",
              "name": "hospitalAddr",
              "type": "address"
            },
            {
              "internalType": "string",
              "name": "hospital",
              "type": "string"
            },
            {
              "internalType": "string",
              "name": "patientID",
              "type": "string"
            },
            {
              "internalType": "string",
              "name": "recordID",
              "type": "string"
            },
            {
              "internalType": "string",
              "name": "procedureType",
              "type": "string"
            },
            {
              "internalType": "string",
              "name": "procedureDescription",
              "type": "string"
            },
            {
              "internalType": "string",
              "name": "procedureComplications",
              "type": "string"
            },
            {
              "internalType": "string",
              "name": "dateOfProcedure",
              "type": "string"
            },
            {
              "internalType": "string",
              "name": "preOperativeInstructions",
              "type": "string"
            },
            {
              "internalType": "string",
              "name": "postOperativeCare",
              "type": "string"
            }
          ],
          "internalType": "struct MedicalProcedureHistory.ProcedureRecord[]",
          "name": "",
          "type": "tuple[]"
        }
      ],
      "stateMutability": "view",
      "type": "function",
      "constant": true
    },
    {
      "inputs": [
        {
          "internalType": "string",
          "name": "_patientID",
          "type": "string"
        },
        {
          "internalType": "string",
          "name": "_procedureTypeKeyword",
          "type": "string"
        }
      ],
      "name": "searchProcedureRecords",
      "outputs": [
        {
          "components": [
            {
              "internalType": "address",
              "name": "hospitalAddr",
              "type": "address"
            },
            {
              "internalType": "string",
              "name": "hospital",
              "type": "string"
            },
            {
              "internalType": "string",
              "name": "patientID",
              "type": "string"
            },
            {
              "internalType": "string",
              "name": "recordID",
              "type": "string"
            },
            {
              "internalType": "string",
              "name": "procedureType",
              "type": "string"
            },
            {
              "internalType": "string",
              "name": "procedureDescription",
              "type": "string"
            },
            {
              "internalType": "string",
              "name": "procedureComplications",
              "type": "string"
            },
            {
              "internalType": "string",
              "name": "dateOfProcedure",
              "type": "string"
            },
            {
              "internalType": "string",
              "name": "preOperativeInstructions",
              "type": "string"
            },
            {
              "internalType": "string",
              "name": "postOperativeCare",
              "type": "string"
            }
          ],
          "internalType": "struct MedicalProcedureHistory.ProcedureRecord[]",
          "name": "",
          "type": "tuple[]"
        }
      ],
      "stateMutability": "view",
      "type": "function",
      "constant": true
    }
  ],
  "bytecode": "0x608060405234801561001057600080fd5b50612ac1806100206000396000f3fe608060405234801561001057600080fd5b50600436106100885760003560e01c80639cb6a4f51161005b5780639cb6a4f514610139578063aeea772414610169578063cb2ea39f14610199578063edfa6765146101d257610088565b8063207f9a771461008d57806327a460e4146100bd5780636657e202146100ed5780638d2a9efe14610109575b600080fd5b6100a760048036038101906100a29190611e0c565b6101ee565b6040516100b491906126d3565b60405180910390f35b6100d760048036038101906100d29190611e4d565b610a59565b6040516100e491906126f5565b60405180910390f35b61010760048036038101906101029190611f0d565b610a9e565b005b610123600480360381019061011e9190611ea1565b610bf3565b60405161013091906126d3565b60405180910390f35b610153600480360381019061014e91906121f1565b6114b3565b6040516101609190612710565b60405180910390f35b610183600480360381019061017e9190611e0c565b611582565b60405161019091906125dd565b60405180910390f35b6101b360048036038101906101ae9190611e0c565b6115cb565b6040516101c99a999897969594939291906125f8565b60405180910390f35b6101ec60048036038101906101e79190612053565b611b1d565b005b606060038260405161020091906125c6565b908152602001604051809103902060003373ffffffffffffffffffffffffffffffffffffffff1673ffffffffffffffffffffffffffffffffffffffff16815260200190815260200160002060009054906101000a900460ff16610298576040517f08c379a000000000000000000000000000000000000000000000000000000000815260040161028f90612732565b60405180910390fd5b60006001836040516102aa91906125c6565b9081526020016040518091039020805480602002602001604051908101604052809291908181526020016000905b828210156103845783829060005260206000200180546102f790612944565b80601f016020809104026020016040519081016040528092919081815260200182805461032390612944565b80156103705780601f1061034557610100808354040283529160200191610370565b820191906000526020600020905b81548152906001019060200180831161035357829003601f168201915b5050505050815260200190600101906102d8565b5050505090506000815167ffffffffffffffff8111156103cd577f4e487b7100000000000000000000000000000000000000000000000000000000600052604160045260246000fd5b60405190808252806020026020018201604052801561040657816020015b6103f3611c6e565b8152602001906001900390816103eb5790505b50905060005b8251811015610a4e576000838281518110610450577f4e487b7100000000000000000000000000000000000000000000000000000000600052603260045260246000fd5b602002602001015160405161046591906125c6565b9081526020016040518091039020604051806101400160405290816000820160009054906101000a900473ffffffffffffffffffffffffffffffffffffffff1673ffffffffffffffffffffffffffffffffffffffff1673ffffffffffffffffffffffffffffffffffffffff1681526020016001820180546104e590612944565b80601f016020809104026020016040519081016040528092919081815260200182805461051190612944565b801561055e5780601f106105335761010080835404028352916020019161055e565b820191906000526020600020905b81548152906001019060200180831161054157829003601f168201915b5050505050815260200160028201805461057790612944565b80601f01602080910402602001604051908101604052809291908181526020018280546105a390612944565b80156105f05780601f106105c5576101008083540402835291602001916105f0565b820191906000526020600020905b8154815290600101906020018083116105d357829003601f168201915b5050505050815260200160038201805461060990612944565b80601f016020809104026020016040519081016040528092919081815260200182805461063590612944565b80156106825780601f1061065757610100808354040283529160200191610682565b820191906000526020600020905b81548152906001019060200180831161066557829003601f168201915b5050505050815260200160048201805461069b90612944565b80601f01602080910402602001604051908101604052809291908181526020018280546106c790612944565b80156107145780601f106106e957610100808354040283529160200191610714565b820191906000526020600020905b8154815290600101906020018083116106f757829003601f168201915b5050505050815260200160058201805461072d90612944565b80601f016020809104026020016040519081016040528092919081815260200182805461075990612944565b80156107a65780601f1061077b576101008083540402835291602001916107a6565b820191906000526020600020905b81548152906001019060200180831161078957829003601f168201915b505050505081526020016006820180546107bf90612944565b80601f01602080910402602001604051908101604052809291908181526020018280546107eb90612944565b80156108385780601f1061080d57610100808354040283529160200191610838565b820191906000526020600020905b81548152906001019060200180831161081b57829003601f168201915b5050505050815260200160078201805461085190612944565b80601f016020809104026020016040519081016040528092919081815260200182805461087d90612944565b80156108ca5780601f1061089f576101008083540402835291602001916108ca565b820191906000526020600020905b8154815290600101906020018083116108ad57829003601f168201915b505050505081526020016008820180546108e390612944565b80601f016020809104026020016040519081016040528092919081815260200182805461090f90612944565b801561095c5780601f106109315761010080835404028352916020019161095c565b820191906000526020600020905b81548152906001019060200180831161093f57829003601f168201915b5050505050815260200160098201805461097590612944565b80601f01602080910402602001604051908101604052809291908181526020018280546109a190612944565b80156109ee5780601f106109c3576101008083540402835291602001916109ee565b820191906000526020600020905b8154815290600101906020018083116109d157829003601f168201915b505050505081525050828281518110610a30577f4e487b7100000000000000000000000000000000000000000000000000000000600052603260045260246000fd5b60200260200101819052508080610a4690612976565b91505061040c565b508092505050919050565b6003828051602081018201805184825260208301602085012081835280955050505050506020528060005260406000206000915091509054906101000a900460ff1681565b60008088604051610aaf91906125c6565b90815260200160405180910390209050600073ffffffffffffffffffffffffffffffffffffffff168160000160009054906101000a900473ffffffffffffffffffffffffffffffffffffffff1673ffffffffffffffffffffffffffffffffffffffff161415610b53576040517f08c379a0000000000000000000000000000000000000000000000000000000008152600401610b4a90612752565b60405180910390fd5b86816004019080519060200190610b6b929190611cd7565b5085816005019080519060200190610b84929190611cd7565b5084816006019080519060200190610b9d929190611cd7565b5083816007019080519060200190610bb6929190611cd7565b5082816008019080519060200190610bcf929190611cd7565b5081816009019080519060200190610be8929190611cd7565b505050505050505050565b6060600383604051610c0591906125c6565b908152602001604051809103902060003373ffffffffffffffffffffffffffffffffffffffff1673ffffffffffffffffffffffffffffffffffffffff16815260200190815260200160002060009054906101000a900460ff16610c9d576040517f08c379a0000000000000000000000000000000000000000000000000000000008152600401610c9490612732565b60405180910390fd5b6000600184604051610caf91906125c6565b9081526020016040518091039020805480602002602001604051908101604052809291908181526020016000905b82821015610d89578382906000526020600020018054610cfc90612944565b80601f0160208091040260200160405190810160405280929190818152602001828054610d2890612944565b8015610d755780601f10610d4a57610100808354040283529160200191610d75565b820191906000526020600020905b815481529060010190602001808311610d5857829003601f168201915b505050505081526020019060010190610cdd565b50505050905060606000805b83518110156114a357600080858381518110610dda577f4e487b7100000000000000000000000000000000000000000000000000000000600052603260045260246000fd5b6020026020010151604051610def91906125c6565b90815260200160405180910390209050868051906020012081600401604051610e1891906125af565b6040518091039020141561148f578284511415610eb95760018451610e3d9190612864565b67ffffffffffffffff811115610e7c577f4e487b7100000000000000000000000000000000000000000000000000000000600052604160045260246000fd5b604051908082528060200260200182016040528015610eb557816020015b610ea2611c6e565b815260200190600190039081610e9a5790505b5093505b80604051806101400160405290816000820160009054906101000a900473ffffffffffffffffffffffffffffffffffffffff1673ffffffffffffffffffffffffffffffffffffffff1673ffffffffffffffffffffffffffffffffffffffff168152602001600182018054610f2c90612944565b80601f0160208091040260200160405190810160405280929190818152602001828054610f5890612944565b8015610fa55780601f10610f7a57610100808354040283529160200191610fa5565b820191906000526020600020905b815481529060010190602001808311610f8857829003601f168201915b50505050508152602001600282018054610fbe90612944565b80601f0160208091040260200160405190810160405280929190818152602001828054610fea90612944565b80156110375780601f1061100c57610100808354040283529160200191611037565b820191906000526020600020905b81548152906001019060200180831161101a57829003601f168201915b5050505050815260200160038201805461105090612944565b80601f016020809104026020016040519081016040528092919081815260200182805461107c90612944565b80156110c95780601f1061109e576101008083540402835291602001916110c9565b820191906000526020600020905b8154815290600101906020018083116110ac57829003601f168201915b505050505081526020016004820180546110e290612944565b80601f016020809104026020016040519081016040528092919081815260200182805461110e90612944565b801561115b5780601f106111305761010080835404028352916020019161115b565b820191906000526020600020905b81548152906001019060200180831161113e57829003601f168201915b5050505050815260200160058201805461117490612944565b80601f01602080910402602001604051908101604052809291908181526020018280546111a090612944565b80156111ed5780601f106111c2576101008083540402835291602001916111ed565b820191906000526020600020905b8154815290600101906020018083116111d057829003601f168201915b5050505050815260200160068201805461120690612944565b80601f016020809104026020016040519081016040528092919081815260200182805461123290612944565b801561127f5780601f106112545761010080835404028352916020019161127f565b820191906000526020600020905b81548152906001019060200180831161126257829003601f168201915b5050505050815260200160078201805461129890612944565b80601f01602080910402602001604051908101604052809291908181526020018280546112c490612944565b80156113115780601f106112e657610100808354040283529160200191611311565b820191906000526020600020905b8154815290600101906020018083116112f457829003601f168201915b5050505050815260200160088201805461132a90612944565b80601f016020809104026020016040519081016040528092919081815260200182805461135690612944565b80156113a35780601f10611378576101008083540402835291602001916113a3565b820191906000526020600020905b81548152906001019060200180831161138657829003601f168201915b505050505081526020016009820180546113bc90612944565b80601f01602080910402602001604051908101604052809291908181526020018280546113e890612944565b80156114355780601f1061140a57610100808354040283529160200191611435565b820191906000526020600020905b81548152906001019060200180831161141857829003601f168201915b50505050508152505084848061144a90612976565b955081518110611483577f4e487b7100000000000000000000000000000000000000000000000000000000600052603260045260246000fd5b60200260200101819052505b50808061149b90612976565b915050610d95565b5080825281935050505092915050565b60018280516020810182018051848252602083016020850120818352809550505050505081815481106114e557600080fd5b9060005260206000200160009150915050805461150190612944565b80601f016020809104026020016040519081016040528092919081815260200182805461152d90612944565b801561157a5780601f1061154f5761010080835404028352916020019161157a565b820191906000526020600020905b81548152906001019060200180831161155d57829003601f168201915b505050505081565b6002818051602081018201805184825260208301602085012081835280955050505050506000915054906101000a900473ffffffffffffffffffffffffffffffffffffffff1681565b6000818051602081018201805184825260208301602085012081835280955050505050506000915090508060000160009054906101000a900473ffffffffffffffffffffffffffffffffffffffff169080600101805461162a90612944565b80601f016020809104026020016040519081016040528092919081815260200182805461165690612944565b80156116a35780601f10611678576101008083540402835291602001916116a3565b820191906000526020600020905b81548152906001019060200180831161168657829003601f168201915b5050505050908060020180546116b890612944565b80601f01602080910402602001604051908101604052809291908181526020018280546116e490612944565b80156117315780601f1061170657610100808354040283529160200191611731565b820191906000526020600020905b81548152906001019060200180831161171457829003601f168201915b50505050509080600301805461174690612944565b80601f016020809104026020016040519081016040528092919081815260200182805461177290612944565b80156117bf5780601f10611794576101008083540402835291602001916117bf565b820191906000526020600020905b8154815290600101906020018083116117a257829003601f168201915b5050505050908060040180546117d490612944565b80601f016020809104026020016040519081016040528092919081815260200182805461180090612944565b801561184d5780601f106118225761010080835404028352916020019161184d565b820191906000526020600020905b81548152906001019060200180831161183057829003601f168201915b50505050509080600501805461186290612944565b80601f016020809104026020016040519081016040528092919081815260200182805461188e90612944565b80156118db5780601f106118b0576101008083540402835291602001916118db565b820191906000526020600020905b8154815290600101906020018083116118be57829003601f168201915b5050505050908060060180546118f090612944565b80601f016020809104026020016040519081016040528092919081815260200182805461191c90612944565b80156119695780601f1061193e57610100808354040283529160200191611969565b820191906000526020600020905b81548152906001019060200180831161194c57829003601f168201915b50505050509080600701805461197e90612944565b80601f01602080910402602001604051908101604052809291908181526020018280546119aa90612944565b80156119f75780601f106119cc576101008083540402835291602001916119f7565b820191906000526020600020905b8154815290600101906020018083116119da57829003601f168201915b505050505090806008018054611a0c90612944565b80601f0160208091040260200160405190810160405280929190818152602001828054611a3890612944565b8015611a855780601f10611a5a57610100808354040283529160200191611a85565b820191906000526020600020905b815481529060010190602001808311611a6857829003601f168201915b505050505090806009018054611a9a90612944565b80601f0160208091040260200160405190810160405280929190818152602001828054611ac690612944565b8015611b135780601f10611ae857610100808354040283529160200191611b13565b820191906000526020600020905b815481529060010190602001808311611af657829003601f168201915b505050505090508a565b60008088604051611b2e91906125c6565b90815260200160405180910390209050338160000160006101000a81548173ffffffffffffffffffffffffffffffffffffffff021916908373ffffffffffffffffffffffffffffffffffffffff16021790555089816001019080519060200190611b99929190611cd7565b5088816002019080519060200190611bb2929190611cd7565b5087816003019080519060200190611bcb929190611cd7565b5086816004019080519060200190611be4929190611cd7565b5085816005019080519060200190611bfd929190611cd7565b5084816006019080519060200190611c16929190611cd7565b5083816007019080519060200190611c2f929190611cd7565b5082816008019080519060200190611c48929190611cd7565b5081816009019080519060200190611c61929190611cd7565b5050505050505050505050565b604051806101400160405280600073ffffffffffffffffffffffffffffffffffffffff1681526020016060815260200160608152602001606081526020016060815260200160608152602001606081526020016060815260200160608152602001606081525090565b828054611ce390612944565b90600052602060002090601f016020900481019282611d055760008555611d4c565b82601f10611d1e57805160ff1916838001178555611d4c565b82800160010185558215611d4c579182015b82811115611d4b578251825591602001919060010190611d30565b5b509050611d599190611d5d565b5090565b5b80821115611d76576000816000905550600101611d5e565b5090565b6000611d8d611d88846127a3565b612772565b905082815260208101848484011115611da557600080fd5b611db0848285612902565b509392505050565b600081359050611dc781612a5d565b92915050565b600082601f830112611dde57600080fd5b8135611dee848260208601611d7a565b91505092915050565b600081359050611e0681612a74565b92915050565b600060208284031215611e1e57600080fd5b600082013567ffffffffffffffff811115611e3857600080fd5b611e4484828501611dcd565b91505092915050565b60008060408385031215611e6057600080fd5b600083013567ffffffffffffffff811115611e7a57600080fd5b611e8685828601611dcd565b9250506020611e9785828601611db8565b9150509250929050565b60008060408385031215611eb457600080fd5b600083013567ffffffffffffffff811115611ece57600080fd5b611eda85828601611dcd565b925050602083013567ffffffffffffffff811115611ef757600080fd5b611f0385828601611dcd565b9150509250929050565b600080600080600080600060e0888a031215611f2857600080fd5b600088013567ffffffffffffffff811115611f4257600080fd5b611f4e8a828b01611dcd565b975050602088013567ffffffffffffffff811115611f6b57600080fd5b611f778a828b01611dcd565b965050604088013567ffffffffffffffff811115611f9457600080fd5b611fa08a828b01611dcd565b955050606088013567ffffffffffffffff811115611fbd57600080fd5b611fc98a828b01611dcd565b945050608088013567ffffffffffffffff811115611fe657600080fd5b611ff28a828b01611dcd565b93505060a088013567ffffffffffffffff81111561200f57600080fd5b61201b8a828b01611dcd565b92505060c088013567ffffffffffffffff81111561203857600080fd5b6120448a828b01611dcd565b91505092959891949750929550565b60008060008060008060008060006101208a8c03121561207257600080fd5b60008a013567ffffffffffffffff81111561208c57600080fd5b6120988c828d01611dcd565b99505060208a013567ffffffffffffffff8111156120b557600080fd5b6120c18c828d01611dcd565b98505060408a013567ffffffffffffffff8111156120de57600080fd5b6120ea8c828d01611dcd565b97505060608a013567ffffffffffffffff81111561210757600080fd5b6121138c828d01611dcd565b96505060808a013567ffffffffffffffff81111561213057600080fd5b61213c8c828d01611dcd565b95505060a08a013567ffffffffffffffff81111561215957600080fd5b6121658c828d01611dcd565b94505060c08a013567ffffffffffffffff81111561218257600080fd5b61218e8c828d01611dcd565b93505060e08a013567ffffffffffffffff8111156121ab57600080fd5b6121b78c828d01611dcd565b9250506101008a013567ffffffffffffffff8111156121d557600080fd5b6121e18c828d01611dcd565b9150509295985092959850929598565b6000806040838503121561220457600080fd5b600083013567ffffffffffffffff81111561221e57600080fd5b61222a85828601611dcd565b925050602061223b85828601611df7565b9150509250929050565b6000612251838361249d565b905092915050565b612262816128ba565b82525050565b612271816128ba565b82525050565b6000612282826127f8565b61228c818561281b565b93508360208202850161229e856127d3565b8060005b858110156122da57848403895281516122bb8582612245565b94506122c68361280e565b925060208a019950506001810190506122a2565b50829750879550505050505092915050565b6122f5816128cc565b82525050565b6000815461230881612944565b612312818661282c565b9450600182166000811461232d576001811461233e57612371565b60ff19831686528186019350612371565b612347856127e3565b60005b838110156123695781548189015260018201915060208101905061234a565b838801955050505b50505092915050565b600061238582612803565b61238f8185612837565b935061239f818560208601612911565b6123a881612a4c565b840191505092915050565b60006123be82612803565b6123c88185612848565b93506123d8818560208601612911565b6123e181612a4c565b840191505092915050565b60006123f782612803565b6124018185612859565b9350612411818560208601612911565b80840191505092915050565b600061242a601683612848565b91507f5065726d697373696f6e206e6f74206772616e746564000000000000000000006000830152602082019050919050565b600061246a601583612848565b91507f5265636f726420646f6573206e6f7420657869737400000000000000000000006000830152602082019050919050565b6000610140830160008301516124b66000860182612259565b50602083015184820360208601526124ce828261237a565b915050604083015184820360408601526124e8828261237a565b91505060608301518482036060860152612502828261237a565b9150506080830151848203608086015261251c828261237a565b91505060a083015184820360a0860152612536828261237a565b91505060c083015184820360c0860152612550828261237a565b91505060e083015184820360e086015261256a828261237a565b915050610100830151848203610100860152612586828261237a565b9150506101208301518482036101208601526125a2828261237a565b9150508091505092915050565b60006125bb82846122fb565b915081905092915050565b60006125d282846123ec565b915081905092915050565b60006020820190506125f26000830184612268565b92915050565b60006101408201905061260e600083018d612268565b8181036020830152612620818c6123b3565b90508181036040830152612634818b6123b3565b90508181036060830152612648818a6123b3565b9050818103608083015261265c81896123b3565b905081810360a083015261267081886123b3565b905081810360c083015261268481876123b3565b905081810360e083015261269881866123b3565b90508181036101008301526126ad81856123b3565b90508181036101208301526126c281846123b3565b90509b9a5050505050505050505050565b600060208201905081810360008301526126ed8184612277565b905092915050565b600060208201905061270a60008301846122ec565b92915050565b6000602082019050818103600083015261272a81846123b3565b905092915050565b6000602082019050818103600083015261274b8161241d565b9050919050565b6000602082019050818103600083015261276b8161245d565b9050919050565b6000604051905081810181811067ffffffffffffffff8211171561279957612798612a1d565b5b8060405250919050565b600067ffffffffffffffff8211156127be576127bd612a1d565b5b601f19601f8301169050602081019050919050565b6000819050602082019050919050565b60008190508160005260206000209050919050565b600081519050919050565b600081519050919050565b6000602082019050919050565b600082825260208201905092915050565b600081905092915050565b600082825260208201905092915050565b600082825260208201905092915050565b600081905092915050565b600061286f826128f8565b915061287a836128f8565b9250827fffffffffffffffffffffffffffffffffffffffffffffffffffffffffffffffff038211156128af576128ae6129bf565b5b828201905092915050565b60006128c5826128d8565b9050919050565b60008115159050919050565b600073ffffffffffffffffffffffffffffffffffffffff82169050919050565b6000819050919050565b82818337600083830152505050565b60005b8381101561292f578082015181840152602081019050612914565b8381111561293e576000848401525b50505050565b6000600282049050600182168061295c57607f821691505b602082108114156129705761296f6129ee565b5b50919050565b6000612981826128f8565b91507fffffffffffffffffffffffffffffffffffffffffffffffffffffffffffffffff8214156129b4576129b36129bf565b5b600182019050919050565b7f4e487b7100000000000000000000000000000000000000000000000000000000600052601160045260246000fd5b7f4e487b7100000000000000000000000000000000000000000000000000000000600052602260045260246000fd5b7f4e487b7100000000000000000000000000000000000000000000000000000000600052604160045260246000fd5b6000601f19601f8301169050919050565b612a66816128ba565b8114612a7157600080fd5b50565b612a7d816128f8565b8114612a8857600080fd5b5056fea2646970667358221220c38f71662356789c1aa14835b478d1629fef1025dd90320e1a9995d1fba711b164736f6c63430008000033",
  "immutableReferences": {},
  "source": "// SPDX-License-Identifier: MIT\r\npragma solidity ^0.8.0;\r\n\r\nimport \"./Patient.sol\";\r\nimport \"./AccessControl.sol\";\r\n\r\ncontract MedicalProcedureHistory {\r\n\r\n    struct ProcedureRecord {\r\n        address hospitalAddr;\r\n        string hospital;\r\n        string patientID;\r\n        string recordID;\r\n        string procedureType; \r\n        string procedureDescription;   // Procedure Details\r\n        string procedureComplications;\r\n        string dateOfProcedure; \r\n        string preOperativeInstructions; \r\n        string postOperativeCare;   // Post-operative Care\r\n    }\r\n\r\n    mapping(string => ProcedureRecord) public procedureRecords;\r\n    mapping(string => string[]) public patientProcedureRecords;\r\n    mapping(string => address) public hospitalToPatient;\r\n    // Mapping to store patient permissions\r\n    mapping(string => mapping(address => bool)) public patientPermissions;\r\n\r\n    function addProcedureRecord(\r\n        string memory _hospital, \r\n        string memory _patientID,\r\n        string memory _recordID,\r\n        string memory _procedureType,\r\n        string memory _procedureDescription,\r\n        string memory _procedureComplications,\r\n        string memory _dateOfProcedure,\r\n        string memory _preOperativeInstructions,\r\n        string memory _postOperativeCare\r\n    ) public {\r\n\r\n        ProcedureRecord storage record = procedureRecords[_recordID];\r\n\r\n        record.hospitalAddr = msg.sender;\r\n        record.hospital = _hospital;\r\n        record.patientID = _patientID;\r\n        record.recordID = _recordID;\r\n        record.procedureType = _procedureType;\r\n        record.procedureDescription = _procedureDescription;\r\n        record.procedureComplications = _procedureComplications;\r\n        record.dateOfProcedure = _dateOfProcedure;\r\n        record.preOperativeInstructions = _preOperativeInstructions;\r\n        record.postOperativeCare = _postOperativeCare;\r\n    }\r\n\r\n    function editProcedureHistory(\r\n    string memory _recordID, \r\n        string memory _procedureType, \r\n        string memory _procedureDescription,\r\n        string memory _procedureComplications,\r\n        string memory _dateOfProcedure,\r\n        string memory _preOperativeInstructions,\r\n        string memory _postOperativeCare\r\n    ) public {\r\n\r\n        ProcedureRecord storage record = procedureRecords[_recordID];\r\n        require(record.hospitalAddr != address(0), \"Record does not exist\");\r\n\r\n        record.procedureType = _procedureType;\r\n        record.procedureDescription = _procedureDescription;\r\n        record.procedureComplications = _procedureComplications;\r\n        record.dateOfProcedure = _dateOfProcedure;\r\n        record.preOperativeInstructions = _preOperativeInstructions;\r\n        record.postOperativeCare = _postOperativeCare;\r\n    }\r\n\r\n    function getAllProcedureHistoryRecords(string memory _patientID) public view returns (ProcedureRecord[] memory) {\r\n        \r\n        require(patientPermissions[_patientID][msg.sender], \"Permission not granted\");\r\n        string[] memory recordIDs = patientProcedureRecords[_patientID];\r\n        ProcedureRecord[] memory records = new ProcedureRecord[](recordIDs.length);\r\n\r\n        for (uint i = 0; i < recordIDs.length; i++){\r\n            records[i] = procedureRecords[recordIDs[i]];\r\n        }\r\n        return records;    \r\n    }\r\n\r\n    function searchProcedureRecords(string memory _patientID, string memory _procedureTypeKeyword\r\n        ) public view returns (ProcedureRecord[] memory) {\r\n        // Check if the user has permission to access this record\r\n        require(patientPermissions[_patientID][msg.sender], \"Permission not granted\");\r\n\r\n        string[] memory recordIDs = patientProcedureRecords[_patientID];\r\n        ProcedureRecord[] memory matchingRecords;\r\n        uint matchingCount = 0;\r\n\r\n        // Iterate through each record and check for matching criteria\r\n        for (uint i = 0; i < recordIDs.length; i++) {\r\n            ProcedureRecord storage record = procedureRecords[recordIDs[i]];\r\n\r\n            // Check if the record matches the specified criteria\r\n            //`keccak256()` compares the hashes of both strings and returns `true` if they are equal\r\n            if (keccak256(bytes(record.procedureType)) == keccak256(bytes(_procedureTypeKeyword)))  {\r\n                // Add the matching record to the result array\r\n                if (matchingRecords.length == matchingCount) {\r\n                    // Extend the array if needed\r\n                    matchingRecords = new ProcedureRecord[](matchingRecords.length + 1);\r\n                }\r\n                matchingRecords[matchingCount++] = record;\r\n            }\r\n        }\r\n\r\n        // Resize the array to remove unused slots\r\n        assembly {\r\n            mstore(matchingRecords, matchingCount)\r\n        }\r\n\r\n        return matchingRecords;\r\n    }\r\n}   ",
  "sourcePath": "C:\\Users\\Abby\\Desktop\\APPCON 2023\\MediVerse-Web3-Dapp\\contracts\\MedicalProcedureHistory.sol",
  "compiler": {
    "name": "solc",
    "version": "0.8.0+commit.c7dfd78e.Emscripten.clang"
  },
  "schemaVersion": "3.4.16",
  "updatedAt": "2024-02-16T09:39:33.424Z",
  "networkType": "ethereum",
  "devdoc": {
    "kind": "dev",
    "methods": {},
    "version": 1
  },
  "userdoc": {
    "kind": "user",
    "methods": {},
    "version": 1
  }
}