{
  "contractName": "MediVerse",
  "abi": [
    {
      "inputs": [
        {
          "internalType": "uint256",
          "name": "",
          "type": "uint256"
        }
      ],
      "name": "hospitalList",
      "outputs": [
        {
          "internalType": "address",
          "name": "",
          "type": "address"
        }
      ],
      "stateMutability": "view",
      "type": "function",
      "constant": true
    },
    {
      "inputs": [
        {
          "internalType": "address",
          "name": "",
          "type": "address"
        }
      ],
      "name": "hospitals",
      "outputs": [
        {
          "internalType": "string",
          "name": "name",
          "type": "string"
        },
        {
          "internalType": "string",
          "name": "contactNum",
          "type": "string"
        },
        {
          "internalType": "string",
          "name": "addr",
          "type": "string"
        },
        {
          "internalType": "uint256",
          "name": "creationDate",
          "type": "uint256"
        }
      ],
      "stateMutability": "view",
      "type": "function",
      "constant": true
    },
    {
      "inputs": [
        {
          "internalType": "address",
          "name": "",
          "type": "address"
        }
      ],
      "name": "isRegistered",
      "outputs": [
        {
          "internalType": "bool",
          "name": "",
          "type": "bool"
        }
      ],
      "stateMutability": "view",
      "type": "function",
      "constant": true
    },
    {
      "inputs": [
        {
          "internalType": "address",
          "name": "",
          "type": "address"
        },
        {
          "internalType": "uint256",
          "name": "",
          "type": "uint256"
        }
      ],
      "name": "medicalHistories",
      "outputs": [
        {
          "internalType": "address",
          "name": "patientAddr",
          "type": "address"
        },
        {
          "internalType": "address",
          "name": "hospitalAddr",
          "type": "address"
        },
        {
          "internalType": "string",
          "name": "physician",
          "type": "string"
        },
        {
          "internalType": "string",
          "name": "diagnosis",
          "type": "string"
        },
        {
          "internalType": "string",
          "name": "signsAndSymptoms",
          "type": "string"
        },
        {
          "internalType": "string",
          "name": "treatmentProcedure",
          "type": "string"
        },
        {
          "internalType": "string",
          "name": "tests",
          "type": "string"
        },
        {
          "internalType": "string",
          "name": "medications",
          "type": "string"
        },
        {
          "internalType": "string",
          "name": "admission",
          "type": "string"
        },
        {
          "internalType": "uint256",
          "name": "creationDate",
          "type": "uint256"
        }
      ],
      "stateMutability": "view",
      "type": "function",
      "constant": true
    },
    {
      "inputs": [
        {
          "internalType": "uint256",
          "name": "",
          "type": "uint256"
        }
      ],
      "name": "medicalHistoryList",
      "outputs": [
        {
          "internalType": "address",
          "name": "patientAddr",
          "type": "address"
        },
        {
          "internalType": "address",
          "name": "hospitalAddr",
          "type": "address"
        },
        {
          "internalType": "string",
          "name": "physician",
          "type": "string"
        },
        {
          "internalType": "string",
          "name": "diagnosis",
          "type": "string"
        },
        {
          "internalType": "string",
          "name": "signsAndSymptoms",
          "type": "string"
        },
        {
          "internalType": "string",
          "name": "treatmentProcedure",
          "type": "string"
        },
        {
          "internalType": "string",
          "name": "tests",
          "type": "string"
        },
        {
          "internalType": "string",
          "name": "medications",
          "type": "string"
        },
        {
          "internalType": "string",
          "name": "admission",
          "type": "string"
        },
        {
          "internalType": "uint256",
          "name": "creationDate",
          "type": "uint256"
        }
      ],
      "stateMutability": "view",
      "type": "function",
      "constant": true
    },
    {
      "inputs": [
        {
          "internalType": "uint256",
          "name": "",
          "type": "uint256"
        }
      ],
      "name": "patientList",
      "outputs": [
        {
          "internalType": "address",
          "name": "",
          "type": "address"
        }
      ],
      "stateMutability": "view",
      "type": "function",
      "constant": true
    },
    {
      "inputs": [
        {
          "internalType": "address",
          "name": "",
          "type": "address"
        }
      ],
      "name": "patients",
      "outputs": [
        {
          "internalType": "string",
          "name": "name",
          "type": "string"
        },
        {
          "internalType": "string",
          "name": "age",
          "type": "string"
        },
        {
          "internalType": "string",
          "name": "gender",
          "type": "string"
        },
        {
          "internalType": "string",
          "name": "dateOfBirth",
          "type": "string"
        },
        {
          "internalType": "string",
          "name": "height",
          "type": "string"
        },
        {
          "internalType": "string",
          "name": "weight",
          "type": "string"
        },
        {
          "internalType": "string",
          "name": "contactNum",
          "type": "string"
        },
        {
          "internalType": "string",
          "name": "addr",
          "type": "string"
        },
        {
          "internalType": "uint256",
          "name": "creationDate",
          "type": "uint256"
        }
      ],
      "stateMutability": "view",
      "type": "function",
      "constant": true
    },
    {
      "inputs": [
        {
          "internalType": "string",
          "name": "_name",
          "type": "string"
        },
        {
          "internalType": "string",
          "name": "_age",
          "type": "string"
        },
        {
          "internalType": "string",
          "name": "_gender",
          "type": "string"
        },
        {
          "internalType": "string",
          "name": "_dateOfBirth",
          "type": "string"
        },
        {
          "internalType": "string",
          "name": "_height",
          "type": "string"
        },
        {
          "internalType": "string",
          "name": "_weight",
          "type": "string"
        },
        {
          "internalType": "string",
          "name": "_contactNum",
          "type": "string"
        },
        {
          "internalType": "string",
          "name": "_address",
          "type": "string"
        }
      ],
      "name": "registerPatient",
      "outputs": [],
      "stateMutability": "nonpayable",
      "type": "function"
    },
    {
      "inputs": [
        {
          "internalType": "string",
          "name": "_name",
          "type": "string"
        },
        {
          "internalType": "string",
          "name": "_age",
          "type": "string"
        },
        {
          "internalType": "string",
          "name": "_gender",
          "type": "string"
        },
        {
          "internalType": "string",
          "name": "_dateOfBirth",
          "type": "string"
        },
        {
          "internalType": "string",
          "name": "_height",
          "type": "string"
        },
        {
          "internalType": "string",
          "name": "_weight",
          "type": "string"
        },
        {
          "internalType": "string",
          "name": "_contactNum",
          "type": "string"
        },
        {
          "internalType": "string",
          "name": "_address",
          "type": "string"
        }
      ],
      "name": "editPatientDetails",
      "outputs": [],
      "stateMutability": "nonpayable",
      "type": "function"
    },
    {
      "inputs": [
        {
          "internalType": "string",
          "name": "_name",
          "type": "string"
        },
        {
          "internalType": "string",
          "name": "_contactNum",
          "type": "string"
        },
        {
          "internalType": "string",
          "name": "_address",
          "type": "string"
        }
      ],
      "name": "registerHospital",
      "outputs": [],
      "stateMutability": "nonpayable",
      "type": "function"
    },
    {
      "inputs": [
        {
          "internalType": "string",
          "name": "_name",
          "type": "string"
        },
        {
          "internalType": "string",
          "name": "_contactNum",
          "type": "string"
        },
        {
          "internalType": "string",
          "name": "_addr",
          "type": "string"
        }
      ],
      "name": "editHospitalDetails",
      "outputs": [],
      "stateMutability": "nonpayable",
      "type": "function"
    },
    {
      "inputs": [
        {
          "internalType": "address",
          "name": "_patientAddr",
          "type": "address"
        },
        {
          "internalType": "string",
          "name": "_physician",
          "type": "string"
        },
        {
          "internalType": "string",
          "name": "_diagnosis",
          "type": "string"
        },
        {
          "internalType": "string",
          "name": "_signsAndSymptoms",
          "type": "string"
        },
        {
          "internalType": "string",
          "name": "_treatmentProcedure",
          "type": "string"
        },
        {
          "internalType": "string",
          "name": "_tests",
          "type": "string"
        },
        {
          "internalType": "string",
          "name": "_medications",
          "type": "string"
        },
        {
          "internalType": "string",
          "name": "_admission",
          "type": "string"
        }
      ],
      "name": "addMedicalHistory",
      "outputs": [],
      "stateMutability": "nonpayable",
      "type": "function"
    },
    {
      "inputs": [
        {
          "internalType": "address",
          "name": "_patientAddr",
          "type": "address"
        },
        {
          "internalType": "string",
          "name": "_physician",
          "type": "string"
        },
        {
          "internalType": "string",
          "name": "_diagnosis",
          "type": "string"
        },
        {
          "internalType": "string",
          "name": "_signsAndSymptoms",
          "type": "string"
        },
        {
          "internalType": "string",
          "name": "_treatmentProcedure",
          "type": "string"
        },
        {
          "internalType": "string",
          "name": "_tests",
          "type": "string"
        },
        {
          "internalType": "string",
          "name": "_medications",
          "type": "string"
        },
        {
          "internalType": "string",
          "name": "_admission",
          "type": "string"
        }
      ],
      "name": "editMedicalHistory",
      "outputs": [],
      "stateMutability": "nonpayable",
      "type": "function"
    },
    {
      "inputs": [
        {
          "internalType": "address",
          "name": "_patientAddr",
          "type": "address"
        }
      ],
      "name": "getMedicalHistory",
      "outputs": [
        {
          "components": [
            {
              "internalType": "address",
              "name": "patientAddr",
              "type": "address"
            },
            {
              "internalType": "address",
              "name": "hospitalAddr",
              "type": "address"
            },
            {
              "internalType": "string",
              "name": "physician",
              "type": "string"
            },
            {
              "internalType": "string",
              "name": "diagnosis",
              "type": "string"
            },
            {
              "internalType": "string",
              "name": "signsAndSymptoms",
              "type": "string"
            },
            {
              "internalType": "string",
              "name": "treatmentProcedure",
              "type": "string"
            },
            {
              "internalType": "string",
              "name": "tests",
              "type": "string"
            },
            {
              "internalType": "string",
              "name": "medications",
              "type": "string"
            },
            {
              "internalType": "string",
              "name": "admission",
              "type": "string"
            },
            {
              "internalType": "uint256",
              "name": "creationDate",
              "type": "uint256"
            }
          ],
          "internalType": "struct MediVerse.MedicalHistory[]",
          "name": "",
          "type": "tuple[]"
        }
      ],
      "stateMutability": "view",
      "type": "function",
      "constant": true
    },
    {
      "inputs": [],
      "name": "getAllMedicalHistory",
      "outputs": [
        {
          "components": [
            {
              "internalType": "address",
              "name": "patientAddr",
              "type": "address"
            },
            {
              "internalType": "address",
              "name": "hospitalAddr",
              "type": "address"
            },
            {
              "internalType": "string",
              "name": "physician",
              "type": "string"
            },
            {
              "internalType": "string",
              "name": "diagnosis",
              "type": "string"
            },
            {
              "internalType": "string",
              "name": "signsAndSymptoms",
              "type": "string"
            },
            {
              "internalType": "string",
              "name": "treatmentProcedure",
              "type": "string"
            },
            {
              "internalType": "string",
              "name": "tests",
              "type": "string"
            },
            {
              "internalType": "string",
              "name": "medications",
              "type": "string"
            },
            {
              "internalType": "string",
              "name": "admission",
              "type": "string"
            },
            {
              "internalType": "uint256",
              "name": "creationDate",
              "type": "uint256"
            }
          ],
          "internalType": "struct MediVerse.MedicalHistory[]",
          "name": "",
          "type": "tuple[]"
        }
      ],
      "stateMutability": "view",
      "type": "function",
      "constant": true
    },
    {
      "inputs": [
        {
          "internalType": "address",
          "name": "patientAddress",
          "type": "address"
        }
      ],
      "name": "getPatientInfo",
      "outputs": [
        {
          "internalType": "string",
          "name": "",
          "type": "string"
        },
        {
          "internalType": "string",
          "name": "",
          "type": "string"
        },
        {
          "internalType": "string",
          "name": "",
          "type": "string"
        },
        {
          "internalType": "string",
          "name": "",
          "type": "string"
        },
        {
          "internalType": "string",
          "name": "",
          "type": "string"
        },
        {
          "internalType": "string",
          "name": "",
          "type": "string"
        },
        {
          "internalType": "string",
          "name": "",
          "type": "string"
        },
        {
          "internalType": "string",
          "name": "",
          "type": "string"
        },
        {
          "internalType": "address[]",
          "name": "",
          "type": "address[]"
        },
        {
          "internalType": "uint256",
          "name": "",
          "type": "uint256"
        }
      ],
      "stateMutability": "view",
      "type": "function",
      "constant": true
    },
    {
      "inputs": [
        {
          "internalType": "address",
          "name": "hospitalAddress",
          "type": "address"
        }
      ],
      "name": "getHospitalInfo",
      "outputs": [
        {
          "internalType": "string",
          "name": "",
          "type": "string"
        },
        {
          "internalType": "string",
          "name": "",
          "type": "string"
        },
        {
          "internalType": "string",
          "name": "",
          "type": "string"
        },
        {
          "internalType": "uint256",
          "name": "",
          "type": "uint256"
        }
      ],
      "stateMutability": "view",
      "type": "function",
      "constant": true
    },
    {
      "inputs": [
        {
          "internalType": "address",
          "name": "_hospitalAddr",
          "type": "address"
        }
      ],
      "name": "givePermission",
      "outputs": [],
      "stateMutability": "nonpayable",
      "type": "function"
    },
    {
      "inputs": [
        {
          "internalType": "address",
          "name": "_hospitalAddr",
          "type": "address"
        }
      ],
      "name": "revokeAccess",
      "outputs": [],
      "stateMutability": "nonpayable",
      "type": "function"
    },
    {
      "inputs": [
        {
          "internalType": "address",
          "name": "_patientAddr",
          "type": "address"
        }
      ],
      "name": "requestPermission",
      "outputs": [],
      "stateMutability": "nonpayable",
      "type": "function"
    },
    {
      "inputs": [
        {
          "internalType": "address",
          "name": "_patientAddr",
          "type": "address"
        }
      ],
      "name": "getAuthorizedHospitals",
      "outputs": [
        {
          "internalType": "address[]",
          "name": "",
          "type": "address[]"
        }
      ],
      "stateMutability": "view",
      "type": "function",
      "constant": true
    },
    {
      "inputs": [
        {
          "internalType": "address",
          "name": "_patientAddr",
          "type": "address"
        }
      ],
      "name": "getPendingRequests",
      "outputs": [
        {
          "internalType": "address[]",
          "name": "",
          "type": "address[]"
        }
      ],
      "stateMutability": "view",
      "type": "function",
      "constant": true
    },
    {
      "inputs": [],
      "name": "getPatientList",
      "outputs": [
        {
          "internalType": "address[]",
          "name": "",
          "type": "address[]"
        }
      ],
      "stateMutability": "view",
      "type": "function",
      "constant": true
    },
    {
      "inputs": [],
      "name": "getHospitalList",
      "outputs": [
        {
          "internalType": "address[]",
          "name": "",
          "type": "address[]"
        }
      ],
      "stateMutability": "view",
      "type": "function",
      "constant": true
    }
  ],
  "bytecode": "0x608060405234801561001057600080fd5b506153a9806100206000396000f3fe608060405234801561001057600080fd5b50600436106101585760003560e01c806372339509116100c3578063c82412b91161007c578063c82412b914610421578063d31e372914610451578063e1de2d5914610481578063f05bfa7b1461049d578063f093cf80146104cd578063f74258f91461050057610158565b8063723395091461031d5780638486f67a1461035657806385e68531146103895780639ec310be146103a5578063babb1d41146103c1578063c3c5a547146103f157610158565b80634b426178116101155780634b42617814610240578063503b135414610279578063507f478b14610297578063526b44ac146102b35780635986de61146102cf5780636933e414146102ff57610158565b80630869cfbc1461015d57806319406a641461019557806329cf54a3146101ce5780632d57f4ed146101ea5780633d391f70146102065780634150f55414610222575b600080fd5b61017760048036038101906101729190614330565b61051c565b60405161018c99989796959493929190614e4f565b60405180910390f35b6101af60048036038101906101aa91906146f8565b6109aa565b6040516101c59a99989796959493929190614c48565b60405180910390f35b6101e860048036038101906101e39190614586565b610e06565b005b61020460048036038101906101ff91906144ef565b61106d565b005b610220600480360381019061021b9190614330565b61110a565b005b61022a61145e565b6040516102379190614d37565b60405180910390f35b61025a60048036038101906102559190614330565b611972565b6040516102709a99989796959493929190614d74565b60405180910390f35b610281611ef7565b60405161028e9190614d15565b60405180910390f35b6102b160048036038101906102ac9190614330565b611f85565b005b6102cd60048036038101906102c891906144ef565b612072565b005b6102e960048036038101906102e49190614330565b612257565b6040516102f69190614d37565b60405180910390f35b6103076127aa565b6040516103149190614d15565b60405180910390f35b610337600480360381019061033291906144b3565b612838565b60405161034d9a99989796959493929190614c48565b60405180910390f35b610370600480360381019061036b9190614330565b612ca1565b6040516103809493929190614f14565b60405180910390f35b6103a3600480360381019061039e9190614330565b612eaf565b005b6103bf60048036038101906103ba9190614359565b613165565b005b6103db60048036038101906103d691906146f8565b613595565b6040516103e89190614c2d565b60405180910390f35b61040b60048036038101906104069190614330565b6135d4565b6040516104189190614d59565b60405180910390f35b61043b600480360381019061043691906146f8565b6135f4565b6040516104489190614c2d565b60405180910390f35b61046b60048036038101906104669190614330565b613633565b6040516104789190614d15565b60405180910390f35b61049b60048036038101906104969190614586565b613703565b005b6104b760048036038101906104b29190614330565b613822565b6040516104c49190614d15565b60405180910390f35b6104e760048036038101906104e29190614330565b6138ef565b6040516104f79493929190614f14565b60405180910390f35b61051a60048036038101906105159190614359565b613ab7565b005b600460205280600052604060002060009150905080600001805461053f9061522c565b80601f016020809104026020016040519081016040528092919081815260200182805461056b9061522c565b80156105b85780601f1061058d576101008083540402835291602001916105b8565b820191906000526020600020905b81548152906001019060200180831161059b57829003601f168201915b5050505050908060010180546105cd9061522c565b80601f01602080910402602001604051908101604052809291908181526020018280546105f99061522c565b80156106465780601f1061061b57610100808354040283529160200191610646565b820191906000526020600020905b81548152906001019060200180831161062957829003601f168201915b50505050509080600201805461065b9061522c565b80601f01602080910402602001604051908101604052809291908181526020018280546106879061522c565b80156106d45780601f106106a9576101008083540402835291602001916106d4565b820191906000526020600020905b8154815290600101906020018083116106b757829003601f168201915b5050505050908060030180546106e99061522c565b80601f01602080910402602001604051908101604052809291908181526020018280546107159061522c565b80156107625780601f1061073757610100808354040283529160200191610762565b820191906000526020600020905b81548152906001019060200180831161074557829003601f168201915b5050505050908060040180546107779061522c565b80601f01602080910402602001604051908101604052809291908181526020018280546107a39061522c565b80156107f05780601f106107c5576101008083540402835291602001916107f0565b820191906000526020600020905b8154815290600101906020018083116107d357829003601f168201915b5050505050908060050180546108059061522c565b80601f01602080910402602001604051908101604052809291908181526020018280546108319061522c565b801561087e5780601f106108535761010080835404028352916020019161087e565b820191906000526020600020905b81548152906001019060200180831161086157829003601f168201915b5050505050908060060180546108939061522c565b80601f01602080910402602001604051908101604052809291908181526020018280546108bf9061522c565b801561090c5780601f106108e15761010080835404028352916020019161090c565b820191906000526020600020905b8154815290600101906020018083116108ef57829003601f168201915b5050505050908060070180546109219061522c565b80601f016020809104026020016040519081016040528092919081815260200182805461094d9061522c565b801561099a5780601f1061096f5761010080835404028352916020019161099a565b820191906000526020600020905b81548152906001019060200180831161097d57829003601f168201915b5050505050908060090154905089565b600281815481106109ba57600080fd5b90600052602060002090600a02016000915090508060000160009054906101000a900473ffffffffffffffffffffffffffffffffffffffff16908060010160009054906101000a900473ffffffffffffffffffffffffffffffffffffffff1690806002018054610a299061522c565b80601f0160208091040260200160405190810160405280929190818152602001828054610a559061522c565b8015610aa25780601f10610a7757610100808354040283529160200191610aa2565b820191906000526020600020905b815481529060010190602001808311610a8557829003601f168201915b505050505090806003018054610ab79061522c565b80601f0160208091040260200160405190810160405280929190818152602001828054610ae39061522c565b8015610b305780601f10610b0557610100808354040283529160200191610b30565b820191906000526020600020905b815481529060010190602001808311610b1357829003601f168201915b505050505090806004018054610b459061522c565b80601f0160208091040260200160405190810160405280929190818152602001828054610b719061522c565b8015610bbe5780601f10610b9357610100808354040283529160200191610bbe565b820191906000526020600020905b815481529060010190602001808311610ba157829003601f168201915b505050505090806005018054610bd39061522c565b80601f0160208091040260200160405190810160405280929190818152602001828054610bff9061522c565b8015610c4c5780601f10610c2157610100808354040283529160200191610c4c565b820191906000526020600020905b815481529060010190602001808311610c2f57829003601f168201915b505050505090806006018054610c619061522c565b80601f0160208091040260200160405190810160405280929190818152602001828054610c8d9061522c565b8015610cda5780601f10610caf57610100808354040283529160200191610cda565b820191906000526020600020905b815481529060010190602001808311610cbd57829003601f168201915b505050505090806007018054610cef9061522c565b80601f0160208091040260200160405190810160405280929190818152602001828054610d1b9061522c565b8015610d685780601f10610d3d57610100808354040283529160200191610d68565b820191906000526020600020905b815481529060010190602001808311610d4b57829003601f168201915b505050505090806008018054610d7d9061522c565b80601f0160208091040260200160405190810160405280929190818152602001828054610da99061522c565b8015610df65780601f10610dcb57610100808354040283529160200191610df6565b820191906000526020600020905b815481529060010190602001808311610dd957829003601f168201915b505050505090806009015490508a565b600360003373ffffffffffffffffffffffffffffffffffffffff1673ffffffffffffffffffffffffffffffffffffffff16815260200190815260200160002060009054906101000a900460ff1615610e93576040517f08c379a0000000000000000000000000000000000000000000000000000000008152600401610e8a90614f6e565b60405180910390fd5b6000600460003373ffffffffffffffffffffffffffffffffffffffff1673ffffffffffffffffffffffffffffffffffffffff168152602001908152602001600020905088816000019080519060200190610eee92919061417c565b5087816001019080519060200190610f0792919061417c565b5086816002019080519060200190610f2092919061417c565b5085816003019080519060200190610f3992919061417c565b5084816004019080519060200190610f5292919061417c565b5083816005019080519060200190610f6b92919061417c565b5082816006019080519060200190610f8492919061417c565b5081816007019080519060200190610f9d92919061417c565b504281600901819055506000339080600181540180825580915050600190039060005260206000200160009091909190916101000a81548173ffffffffffffffffffffffffffffffffffffffff021916908373ffffffffffffffffffffffffffffffffffffffff1602179055506001600360003373ffffffffffffffffffffffffffffffffffffffff1673ffffffffffffffffffffffffffffffffffffffff16815260200190815260200160002060006101000a81548160ff021916908315150217905550505050505050505050565b6000600560003373ffffffffffffffffffffffffffffffffffffffff1673ffffffffffffffffffffffffffffffffffffffff1681526020019081526020016000209050838160000190805190602001906110c892919061417c565b50828160010190805190602001906110e192919061417c565b50818160020190805190602001906110fa92919061417c565b5042816003018190555050505050565b6111143382614026565b15611154576040517f08c379a000000000000000000000000000000000000000000000000000000000815260040161114b9061502e565b60405180910390fd5b6000600760003373ffffffffffffffffffffffffffffffffffffffff1673ffffffffffffffffffffffffffffffffffffffff168152602001908152602001600020905060005b81805490508110156113b6578273ffffffffffffffffffffffffffffffffffffffff168282815481106111f6577f4e487b7100000000000000000000000000000000000000000000000000000000600052603260045260246000fd5b9060005260206000200160009054906101000a900473ffffffffffffffffffffffffffffffffffffffff1673ffffffffffffffffffffffffffffffffffffffff1614156113a357816001838054905061124f919061516e565b81548110611286577f4e487b7100000000000000000000000000000000000000000000000000000000600052603260045260246000fd5b9060005260206000200160009054906101000a900473ffffffffffffffffffffffffffffffffffffffff168282815481106112ea577f4e487b7100000000000000000000000000000000000000000000000000000000600052603260045260246000fd5b9060005260206000200160006101000a81548173ffffffffffffffffffffffffffffffffffffffff021916908373ffffffffffffffffffffffffffffffffffffffff16021790555081805480611369577f4e487b7100000000000000000000000000000000000000000000000000000000600052603160045260246000fd5b6001900381819060005260206000200160006101000a81549073ffffffffffffffffffffffffffffffffffffffff021916905590556113b6565b80806113ae9061525e565b91505061119a565b50600460003373ffffffffffffffffffffffffffffffffffffffff1673ffffffffffffffffffffffffffffffffffffffff168152602001908152602001600020600801829080600181540180825580915050600190039060005260206000200160009091909190916101000a81548173ffffffffffffffffffffffffffffffffffffffff021916908373ffffffffffffffffffffffffffffffffffffffff1602179055505050565b60606002805480602002602001604051908101604052809291908181526020016000905b8282101561196957838290600052602060002090600a0201604051806101400160405290816000820160009054906101000a900473ffffffffffffffffffffffffffffffffffffffff1673ffffffffffffffffffffffffffffffffffffffff1673ffffffffffffffffffffffffffffffffffffffff1681526020016001820160009054906101000a900473ffffffffffffffffffffffffffffffffffffffff1673ffffffffffffffffffffffffffffffffffffffff1673ffffffffffffffffffffffffffffffffffffffff1681526020016002820180546115629061522c565b80601f016020809104026020016040519081016040528092919081815260200182805461158e9061522c565b80156115db5780601f106115b0576101008083540402835291602001916115db565b820191906000526020600020905b8154815290600101906020018083116115be57829003601f168201915b505050505081526020016003820180546115f49061522c565b80601f01602080910402602001604051908101604052809291908181526020018280546116209061522c565b801561166d5780601f106116425761010080835404028352916020019161166d565b820191906000526020600020905b81548152906001019060200180831161165057829003601f168201915b505050505081526020016004820180546116869061522c565b80601f01602080910402602001604051908101604052809291908181526020018280546116b29061522c565b80156116ff5780601f106116d4576101008083540402835291602001916116ff565b820191906000526020600020905b8154815290600101906020018083116116e257829003601f168201915b505050505081526020016005820180546117189061522c565b80601f01602080910402602001604051908101604052809291908181526020018280546117449061522c565b80156117915780601f1061176657610100808354040283529160200191611791565b820191906000526020600020905b81548152906001019060200180831161177457829003601f168201915b505050505081526020016006820180546117aa9061522c565b80601f01602080910402602001604051908101604052809291908181526020018280546117d69061522c565b80156118235780601f106117f857610100808354040283529160200191611823565b820191906000526020600020905b81548152906001019060200180831161180657829003601f168201915b5050505050815260200160078201805461183c9061522c565b80601f01602080910402602001604051908101604052809291908181526020018280546118689061522c565b80156118b55780601f1061188a576101008083540402835291602001916118b5565b820191906000526020600020905b81548152906001019060200180831161189857829003601f168201915b505050505081526020016008820180546118ce9061522c565b80601f01602080910402602001604051908101604052809291908181526020018280546118fa9061522c565b80156119475780601f1061191c57610100808354040283529160200191611947565b820191906000526020600020905b81548152906001019060200180831161192a57829003601f168201915b5050505050815260200160098201548152505081526020019060010190611482565b50505050905090565b6060806060806060806060806060600080600460008d73ffffffffffffffffffffffffffffffffffffffff1673ffffffffffffffffffffffffffffffffffffffff168152602001908152602001600020905080600001816001018260020183600301846004018560050186600601876007018860080189600901548980546119f99061522c565b80601f0160208091040260200160405190810160405280929190818152602001828054611a259061522c565b8015611a725780601f10611a4757610100808354040283529160200191611a72565b820191906000526020600020905b815481529060010190602001808311611a5557829003601f168201915b50505050509950888054611a859061522c565b80601f0160208091040260200160405190810160405280929190818152602001828054611ab19061522c565b8015611afe5780601f10611ad357610100808354040283529160200191611afe565b820191906000526020600020905b815481529060010190602001808311611ae157829003601f168201915b50505050509850878054611b119061522c565b80601f0160208091040260200160405190810160405280929190818152602001828054611b3d9061522c565b8015611b8a5780601f10611b5f57610100808354040283529160200191611b8a565b820191906000526020600020905b815481529060010190602001808311611b6d57829003601f168201915b50505050509750868054611b9d9061522c565b80601f0160208091040260200160405190810160405280929190818152602001828054611bc99061522c565b8015611c165780601f10611beb57610100808354040283529160200191611c16565b820191906000526020600020905b815481529060010190602001808311611bf957829003601f168201915b50505050509650858054611c299061522c565b80601f0160208091040260200160405190810160405280929190818152602001828054611c559061522c565b8015611ca25780601f10611c7757610100808354040283529160200191611ca2565b820191906000526020600020905b815481529060010190602001808311611c8557829003601f168201915b50505050509550848054611cb59061522c565b80601f0160208091040260200160405190810160405280929190818152602001828054611ce19061522c565b8015611d2e5780601f10611d0357610100808354040283529160200191611d2e565b820191906000526020600020905b815481529060010190602001808311611d1157829003601f168201915b50505050509450838054611d419061522c565b80601f0160208091040260200160405190810160405280929190818152602001828054611d6d9061522c565b8015611dba5780601f10611d8f57610100808354040283529160200191611dba565b820191906000526020600020905b815481529060010190602001808311611d9d57829003601f168201915b50505050509350828054611dcd9061522c565b80601f0160208091040260200160405190810160405280929190818152602001828054611df99061522c565b8015611e465780601f10611e1b57610100808354040283529160200191611e46565b820191906000526020600020905b815481529060010190602001808311611e2957829003601f168201915b5050505050925081805480602002602001604051908101604052809291908181526020018280548015611ece57602002820191906000526020600020905b8160009054906101000a900473ffffffffffffffffffffffffffffffffffffffff1673ffffffffffffffffffffffffffffffffffffffff1681526020019060010190808311611e84575b505050505091509a509a509a509a509a509a509a509a509a509a50509193959799509193959799565b60606000805480602002602001604051908101604052809291908181526020018280548015611f7b57602002820191906000526020600020905b8160009054906101000a900473ffffffffffffffffffffffffffffffffffffffff1673ffffffffffffffffffffffffffffffffffffffff1681526020019060010190808311611f31575b5050505050905090565b611f8f8133614026565b15611fcf576040517f08c379a0000000000000000000000000000000000000000000000000000000008152600401611fc690614fee565b60405180910390fd5b600760008273ffffffffffffffffffffffffffffffffffffffff1673ffffffffffffffffffffffffffffffffffffffff168152602001908152602001600020339080600181540180825580915050600190039060005260206000200160009091909190916101000a81548173ffffffffffffffffffffffffffffffffffffffff021916908373ffffffffffffffffffffffffffffffffffffffff16021790555050565b600360003373ffffffffffffffffffffffffffffffffffffffff1673ffffffffffffffffffffffffffffffffffffffff16815260200190815260200160002060009054906101000a900460ff16156120ff576040517f08c379a00000000000000000000000000000000000000000000000000000000081526004016120f69061500e565b60405180910390fd5b6000600560003373ffffffffffffffffffffffffffffffffffffffff1673ffffffffffffffffffffffffffffffffffffffff16815260200190815260200160002090508381600001908051906020019061215a92919061417c565b508281600101908051906020019061217392919061417c565b508181600201908051906020019061218c92919061417c565b504281600301819055506001339080600181540180825580915050600190039060005260206000200160009091909190916101000a81548173ffffffffffffffffffffffffffffffffffffffff021916908373ffffffffffffffffffffffffffffffffffffffff1602179055506001600360003373ffffffffffffffffffffffffffffffffffffffff1673ffffffffffffffffffffffffffffffffffffffff16815260200190815260200160002060006101000a81548160ff02191690831515021790555050505050565b6060600660008373ffffffffffffffffffffffffffffffffffffffff1673ffffffffffffffffffffffffffffffffffffffff168152602001908152602001600020805480602002602001604051908101604052809291908181526020016000905b8282101561279f57838290600052602060002090600a0201604051806101400160405290816000820160009054906101000a900473ffffffffffffffffffffffffffffffffffffffff1673ffffffffffffffffffffffffffffffffffffffff1673ffffffffffffffffffffffffffffffffffffffff1681526020016001820160009054906101000a900473ffffffffffffffffffffffffffffffffffffffff1673ffffffffffffffffffffffffffffffffffffffff1673ffffffffffffffffffffffffffffffffffffffff1681526020016002820180546123989061522c565b80601f01602080910402602001604051908101604052809291908181526020018280546123c49061522c565b80156124115780601f106123e657610100808354040283529160200191612411565b820191906000526020600020905b8154815290600101906020018083116123f457829003601f168201915b5050505050815260200160038201805461242a9061522c565b80601f01602080910402602001604051908101604052809291908181526020018280546124569061522c565b80156124a35780601f10612478576101008083540402835291602001916124a3565b820191906000526020600020905b81548152906001019060200180831161248657829003601f168201915b505050505081526020016004820180546124bc9061522c565b80601f01602080910402602001604051908101604052809291908181526020018280546124e89061522c565b80156125355780601f1061250a57610100808354040283529160200191612535565b820191906000526020600020905b81548152906001019060200180831161251857829003601f168201915b5050505050815260200160058201805461254e9061522c565b80601f016020809104026020016040519081016040528092919081815260200182805461257a9061522c565b80156125c75780601f1061259c576101008083540402835291602001916125c7565b820191906000526020600020905b8154815290600101906020018083116125aa57829003601f168201915b505050505081526020016006820180546125e09061522c565b80601f016020809104026020016040519081016040528092919081815260200182805461260c9061522c565b80156126595780601f1061262e57610100808354040283529160200191612659565b820191906000526020600020905b81548152906001019060200180831161263c57829003601f168201915b505050505081526020016007820180546126729061522c565b80601f016020809104026020016040519081016040528092919081815260200182805461269e9061522c565b80156126eb5780601f106126c0576101008083540402835291602001916126eb565b820191906000526020600020905b8154815290600101906020018083116126ce57829003601f168201915b505050505081526020016008820180546127049061522c565b80601f01602080910402602001604051908101604052809291908181526020018280546127309061522c565b801561277d5780601f106127525761010080835404028352916020019161277d565b820191906000526020600020905b81548152906001019060200180831161276057829003601f168201915b50505050508152602001600982015481525050815260200190600101906122b8565b505050509050919050565b6060600180548060200260200160405190810160405280929190818152602001828054801561282e57602002820191906000526020600020905b8160009054906101000a900473ffffffffffffffffffffffffffffffffffffffff1673ffffffffffffffffffffffffffffffffffffffff16815260200190600101908083116127e4575b5050505050905090565b6006602052816000526040600020818154811061285457600080fd5b90600052602060002090600a0201600091509150508060000160009054906101000a900473ffffffffffffffffffffffffffffffffffffffff16908060010160009054906101000a900473ffffffffffffffffffffffffffffffffffffffff16908060020180546128c49061522c565b80601f01602080910402602001604051908101604052809291908181526020018280546128f09061522c565b801561293d5780601f106129125761010080835404028352916020019161293d565b820191906000526020600020905b81548152906001019060200180831161292057829003601f168201915b5050505050908060030180546129529061522c565b80601f016020809104026020016040519081016040528092919081815260200182805461297e9061522c565b80156129cb5780601f106129a0576101008083540402835291602001916129cb565b820191906000526020600020905b8154815290600101906020018083116129ae57829003601f168201915b5050505050908060040180546129e09061522c565b80601f0160208091040260200160405190810160405280929190818152602001828054612a0c9061522c565b8015612a595780601f10612a2e57610100808354040283529160200191612a59565b820191906000526020600020905b815481529060010190602001808311612a3c57829003601f168201915b505050505090806005018054612a6e9061522c565b80601f0160208091040260200160405190810160405280929190818152602001828054612a9a9061522c565b8015612ae75780601f10612abc57610100808354040283529160200191612ae7565b820191906000526020600020905b815481529060010190602001808311612aca57829003601f168201915b505050505090806006018054612afc9061522c565b80601f0160208091040260200160405190810160405280929190818152602001828054612b289061522c565b8015612b755780601f10612b4a57610100808354040283529160200191612b75565b820191906000526020600020905b815481529060010190602001808311612b5857829003601f168201915b505050505090806007018054612b8a9061522c565b80601f0160208091040260200160405190810160405280929190818152602001828054612bb69061522c565b8015612c035780601f10612bd857610100808354040283529160200191612c03565b820191906000526020600020905b815481529060010190602001808311612be657829003601f168201915b505050505090806008018054612c189061522c565b80601f0160208091040260200160405190810160405280929190818152602001828054612c449061522c565b8015612c915780601f10612c6657610100808354040283529160200191612c91565b820191906000526020600020905b815481529060010190602001808311612c7457829003601f168201915b505050505090806009015490508a565b6060806060600080600560008773ffffffffffffffffffffffffffffffffffffffff1673ffffffffffffffffffffffffffffffffffffffff16815260200190815260200160002090508060000181600101826002018360030154838054612d079061522c565b80601f0160208091040260200160405190810160405280929190818152602001828054612d339061522c565b8015612d805780601f10612d5557610100808354040283529160200191612d80565b820191906000526020600020905b815481529060010190602001808311612d6357829003601f168201915b50505050509350828054612d939061522c565b80601f0160208091040260200160405190810160405280929190818152602001828054612dbf9061522c565b8015612e0c5780601f10612de157610100808354040283529160200191612e0c565b820191906000526020600020905b815481529060010190602001808311612def57829003601f168201915b50505050509250818054612e1f9061522c565b80601f0160208091040260200160405190810160405280929190818152602001828054612e4b9061522c565b8015612e985780601f10612e6d57610100808354040283529160200191612e98565b820191906000526020600020905b815481529060010190602001808311612e7b57829003601f168201915b505050505091509450945094509450509193509193565b612eb93382614026565b612ef8576040517f08c379a0000000000000000000000000000000000000000000000000000000008152600401612eef90614fae565b60405180910390fd5b6000600460003373ffffffffffffffffffffffffffffffffffffffff1673ffffffffffffffffffffffffffffffffffffffff168152602001908152602001600020600801905060005b818054905081101561315f578273ffffffffffffffffffffffffffffffffffffffff16828281548110612f9d577f4e487b7100000000000000000000000000000000000000000000000000000000600052603260045260246000fd5b9060005260206000200160009054906101000a900473ffffffffffffffffffffffffffffffffffffffff1673ffffffffffffffffffffffffffffffffffffffff16141561314c578160018380549050612ff6919061516e565b8154811061302d577f4e487b7100000000000000000000000000000000000000000000000000000000600052603260045260246000fd5b9060005260206000200160009054906101000a900473ffffffffffffffffffffffffffffffffffffffff16828281548110613091577f4e487b7100000000000000000000000000000000000000000000000000000000600052603260045260246000fd5b9060005260206000200160006101000a81548173ffffffffffffffffffffffffffffffffffffffff021916908373ffffffffffffffffffffffffffffffffffffffff16021790555081805480613110577f4e487b7100000000000000000000000000000000000000000000000000000000600052603160045260246000fd5b6001900381819060005260206000200160006101000a81549073ffffffffffffffffffffffffffffffffffffffff021916905590555050613162565b80806131579061525e565b915050612f41565b50505b50565b6000600660008a73ffffffffffffffffffffffffffffffffffffffff1673ffffffffffffffffffffffffffffffffffffffff168152602001908152602001600020905060008180549050116131ef576040517f08c379a00000000000000000000000000000000000000000000000000000000081526004016131e690614fce565b60405180910390fd5b60005b818054905081101561354f573373ffffffffffffffffffffffffffffffffffffffff1682828154811061324e577f4e487b7100000000000000000000000000000000000000000000000000000000600052603260045260246000fd5b90600052602060002090600a020160010160009054906101000a900473ffffffffffffffffffffffffffffffffffffffff1673ffffffffffffffffffffffffffffffffffffffff16141561353c57888282815481106132d6577f4e487b7100000000000000000000000000000000000000000000000000000000600052603260045260246000fd5b90600052602060002090600a020160020190805190602001906132fa92919061417c565b5087828281548110613335577f4e487b7100000000000000000000000000000000000000000000000000000000600052603260045260246000fd5b90600052602060002090600a0201600301908051906020019061335992919061417c565b5086828281548110613394577f4e487b7100000000000000000000000000000000000000000000000000000000600052603260045260246000fd5b90600052602060002090600a020160040190805190602001906133b892919061417c565b50858282815481106133f3577f4e487b7100000000000000000000000000000000000000000000000000000000600052603260045260246000fd5b90600052602060002090600a0201600501908051906020019061341792919061417c565b5084828281548110613452577f4e487b7100000000000000000000000000000000000000000000000000000000600052603260045260246000fd5b90600052602060002090600a0201600601908051906020019061347692919061417c565b50838282815481106134b1577f4e487b7100000000000000000000000000000000000000000000000000000000600052603260045260246000fd5b90600052602060002090600a020160070190805190602001906134d592919061417c565b5082828281548110613510577f4e487b7100000000000000000000000000000000000000000000000000000000600052603260045260246000fd5b90600052602060002090600a0201600801908051906020019061353492919061417c565b50505061358b565b80806135479061525e565b9150506131f2565b506040517f08c379a00000000000000000000000000000000000000000000000000000000081526004016135829061504e565b60405180910390fd5b5050505050505050565b600081815481106135a557600080fd5b906000526020600020016000915054906101000a900473ffffffffffffffffffffffffffffffffffffffff1681565b60036020528060005260406000206000915054906101000a900460ff1681565b6001818154811061360457600080fd5b906000526020600020016000915054906101000a900473ffffffffffffffffffffffffffffffffffffffff1681565b6060600460008373ffffffffffffffffffffffffffffffffffffffff1673ffffffffffffffffffffffffffffffffffffffff1681526020019081526020016000206008018054806020026020016040519081016040528092919081815260200182805480156136f757602002820191906000526020600020905b8160009054906101000a900473ffffffffffffffffffffffffffffffffffffffff1673ffffffffffffffffffffffffffffffffffffffff16815260200190600101908083116136ad575b50505050509050919050565b6000600460003373ffffffffffffffffffffffffffffffffffffffff1673ffffffffffffffffffffffffffffffffffffffff16815260200190815260200160002090508881600001908051906020019061375e92919061417c565b508781600101908051906020019061377792919061417c565b508681600201908051906020019061379092919061417c565b50858160030190805190602001906137a992919061417c565b50848160040190805190602001906137c292919061417c565b50838160050190805190602001906137db92919061417c565b50828160060190805190602001906137f492919061417c565b508181600701908051906020019061380d92919061417c565b50428160090181905550505050505050505050565b6060600760008373ffffffffffffffffffffffffffffffffffffffff1673ffffffffffffffffffffffffffffffffffffffff1681526020019081526020016000208054806020026020016040519081016040528092919081815260200182805480156138e357602002820191906000526020600020905b8160009054906101000a900473ffffffffffffffffffffffffffffffffffffffff1673ffffffffffffffffffffffffffffffffffffffff1681526020019060010190808311613899575b50505050509050919050565b60056020528060005260406000206000915090508060000180546139129061522c565b80601f016020809104026020016040519081016040528092919081815260200182805461393e9061522c565b801561398b5780601f106139605761010080835404028352916020019161398b565b820191906000526020600020905b81548152906001019060200180831161396e57829003601f168201915b5050505050908060010180546139a09061522c565b80601f01602080910402602001604051908101604052809291908181526020018280546139cc9061522c565b8015613a195780601f106139ee57610100808354040283529160200191613a19565b820191906000526020600020905b8154815290600101906020018083116139fc57829003601f168201915b505050505090806002018054613a2e9061522c565b80601f0160208091040260200160405190810160405280929190818152602001828054613a5a9061522c565b8015613aa75780601f10613a7c57610100808354040283529160200191613aa7565b820191906000526020600020905b815481529060010190602001808311613a8a57829003601f168201915b5050505050908060030154905084565b600360008973ffffffffffffffffffffffffffffffffffffffff1673ffffffffffffffffffffffffffffffffffffffff16815260200190815260200160002060009054906101000a900460ff16613b43576040517f08c379a0000000000000000000000000000000000000000000000000000000008152600401613b3a90614f8e565b60405180910390fd5b613b4d8833614026565b613bf557600460008973ffffffffffffffffffffffffffffffffffffffff1673ffffffffffffffffffffffffffffffffffffffff168152602001908152602001600020600801339080600181540180825580915050600190039060005260206000200160009091909190916101000a81548173ffffffffffffffffffffffffffffffffffffffff021916908373ffffffffffffffffffffffffffffffffffffffff1602179055505b613bfd614202565b88816000019073ffffffffffffffffffffffffffffffffffffffff16908173ffffffffffffffffffffffffffffffffffffffff168152505033816020019073ffffffffffffffffffffffffffffffffffffffff16908173ffffffffffffffffffffffffffffffffffffffff1681525050878160400181905250868160600181905250858160800181905250848160a00181905250838160c00181905250828160e00181905250818161010001819052504281610120018181525050600660008a73ffffffffffffffffffffffffffffffffffffffff1673ffffffffffffffffffffffffffffffffffffffff1681526020019081526020016000208190806001815401808255809150506001900390600052602060002090600a020160009091909190915060008201518160000160006101000a81548173ffffffffffffffffffffffffffffffffffffffff021916908373ffffffffffffffffffffffffffffffffffffffff16021790555060208201518160010160006101000a81548173ffffffffffffffffffffffffffffffffffffffff021916908373ffffffffffffffffffffffffffffffffffffffff1602179055506040820151816002019080519060200190613dcb92919061417c565b506060820151816003019080519060200190613de892919061417c565b506080820151816004019080519060200190613e0592919061417c565b5060a0820151816005019080519060200190613e2292919061417c565b5060c0820151816006019080519060200190613e3f92919061417c565b5060e0820151816007019080519060200190613e5c92919061417c565b50610100820151816008019080519060200190613e7a92919061417c565b506101208201518160090155505060028190806001815401808255809150506001900390600052602060002090600a020160009091909190915060008201518160000160006101000a81548173ffffffffffffffffffffffffffffffffffffffff021916908373ffffffffffffffffffffffffffffffffffffffff16021790555060208201518160010160006101000a81548173ffffffffffffffffffffffffffffffffffffffff021916908373ffffffffffffffffffffffffffffffffffffffff1602179055506040820151816002019080519060200190613f5e92919061417c565b506060820151816003019080519060200190613f7b92919061417c565b506080820151816004019080519060200190613f9892919061417c565b5060a0820151816005019080519060200190613fb592919061417c565b5060c0820151816006019080519060200190613fd292919061417c565b5060e0820151816007019080519060200190613fef92919061417c565b5061010082015181600801908051906020019061400d92919061417c565b5061012082015181600901555050505050505050505050565b600080600090505b600460008573ffffffffffffffffffffffffffffffffffffffff1673ffffffffffffffffffffffffffffffffffffffff16815260200190815260200160002060080180549050811015614170578273ffffffffffffffffffffffffffffffffffffffff16600460008673ffffffffffffffffffffffffffffffffffffffff1673ffffffffffffffffffffffffffffffffffffffff168152602001908152602001600020600801828154811061410c577f4e487b7100000000000000000000000000000000000000000000000000000000600052603260045260246000fd5b9060005260206000200160009054906101000a900473ffffffffffffffffffffffffffffffffffffffff1673ffffffffffffffffffffffffffffffffffffffff16141561415d576001915050614176565b80806141689061525e565b91505061402e565b50600090505b92915050565b8280546141889061522c565b90600052602060002090601f0160209004810192826141aa57600085556141f1565b82601f106141c357805160ff19168380011785556141f1565b828001600101855582156141f1579182015b828111156141f05782518255916020019190600101906141d5565b5b5090506141fe9190614281565b5090565b604051806101400160405280600073ffffffffffffffffffffffffffffffffffffffff168152602001600073ffffffffffffffffffffffffffffffffffffffff16815260200160608152602001606081526020016060815260200160608152602001606081526020016060815260200160608152602001600081525090565b5b8082111561429a576000816000905550600101614282565b5090565b60006142b16142ac8461509f565b61506e565b9050828152602081018484840111156142c957600080fd5b6142d48482856151ea565b509392505050565b6000813590506142eb81615345565b92915050565b600082601f83011261430257600080fd5b813561431284826020860161429e565b91505092915050565b60008135905061432a8161535c565b92915050565b60006020828403121561434257600080fd5b6000614350848285016142dc565b91505092915050565b600080600080600080600080610100898b03121561437657600080fd5b60006143848b828c016142dc565b985050602089013567ffffffffffffffff8111156143a157600080fd5b6143ad8b828c016142f1565b975050604089013567ffffffffffffffff8111156143ca57600080fd5b6143d68b828c016142f1565b965050606089013567ffffffffffffffff8111156143f357600080fd5b6143ff8b828c016142f1565b955050608089013567ffffffffffffffff81111561441c57600080fd5b6144288b828c016142f1565b94505060a089013567ffffffffffffffff81111561444557600080fd5b6144518b828c016142f1565b93505060c089013567ffffffffffffffff81111561446e57600080fd5b61447a8b828c016142f1565b92505060e089013567ffffffffffffffff81111561449757600080fd5b6144a38b828c016142f1565b9150509295985092959890939650565b600080604083850312156144c657600080fd5b60006144d4858286016142dc565b92505060206144e58582860161431b565b9150509250929050565b60008060006060848603121561450457600080fd5b600084013567ffffffffffffffff81111561451e57600080fd5b61452a868287016142f1565b935050602084013567ffffffffffffffff81111561454757600080fd5b614553868287016142f1565b925050604084013567ffffffffffffffff81111561457057600080fd5b61457c868287016142f1565b9150509250925092565b600080600080600080600080610100898b0312156145a357600080fd5b600089013567ffffffffffffffff8111156145bd57600080fd5b6145c98b828c016142f1565b985050602089013567ffffffffffffffff8111156145e657600080fd5b6145f28b828c016142f1565b975050604089013567ffffffffffffffff81111561460f57600080fd5b61461b8b828c016142f1565b965050606089013567ffffffffffffffff81111561463857600080fd5b6146448b828c016142f1565b955050608089013567ffffffffffffffff81111561466157600080fd5b61466d8b828c016142f1565b94505060a089013567ffffffffffffffff81111561468a57600080fd5b6146968b828c016142f1565b93505060c089013567ffffffffffffffff8111156146b357600080fd5b6146bf8b828c016142f1565b92505060e089013567ffffffffffffffff8111156146dc57600080fd5b6146e88b828c016142f1565b9150509295985092959890939650565b60006020828403121561470a57600080fd5b60006147188482850161431b565b91505092915050565b600061472d838361474d565b60208301905092915050565b60006147458383614b0b565b905092915050565b614756816151a2565b82525050565b614765816151a2565b82525050565b6000614776826150ef565b614780818561512a565b935061478b836150cf565b8060005b838110156147bc5781516147a38882614721565b97506147ae83615110565b92505060018101905061478f565b5085935050505092915050565b60006147d4826150fa565b6147de818561513b565b9350836020820285016147f0856150df565b8060005b8581101561482c578484038952815161480d8582614739565b94506148188361511d565b925060208a019950506001810190506147f4565b50829750879550505050505092915050565b614847816151b4565b82525050565b600061485882615105565b614862818561514c565b93506148728185602086016151f9565b61487b81615334565b840191505092915050565b600061489182615105565b61489b818561515d565b93506148ab8185602086016151f9565b6148b481615334565b840191505092915050565b60006148cc601a8361515d565b91507f50617469656e7420616c726561647920726567697374657265640000000000006000830152602082019050919050565b600061490c60168361515d565b91507f50617469656e74206e6f742072656769737465726564000000000000000000006000830152602082019050919050565b600061494c60178361515d565b91507f486f73706974616c206e6f7420617574686f72697a65640000000000000000006000830152602082019050919050565b600061498c60308361515d565b91507f4e6f206d65646963616c20686973746f7279207265636f72647320666f756e6460008301527f20666f72207468652070617469656e74000000000000000000000000000000006020830152604082019050919050565b60006149f260148361515d565b91507f5265717565737420616c72656164792073656e740000000000000000000000006000830152602082019050919050565b6000614a32601b8361515d565b91507f486f73706974616c20616c7265616479207265676973746572656400000000006000830152602082019050919050565b6000614a72601b8361515d565b91507f486f73706974616c20616c726561647920617574686f72697a656400000000006000830152602082019050919050565b6000614ab2603b8361515d565b91507f4d65646963616c20686973746f7279207265636f7264206e6f7420666f756e6460008301527f20666f72207468652073706563696669656420686f73706974616c00000000006020830152604082019050919050565b600061014083016000830151614b24600086018261474d565b506020830151614b37602086018261474d565b5060408301518482036040860152614b4f828261484d565b91505060608301518482036060860152614b69828261484d565b91505060808301518482036080860152614b83828261484d565b91505060a083015184820360a0860152614b9d828261484d565b91505060c083015184820360c0860152614bb7828261484d565b91505060e083015184820360e0860152614bd1828261484d565b915050610100830151848203610100860152614bed828261484d565b915050610120830151614c04610120860182614c0f565b508091505092915050565b614c18816151e0565b82525050565b614c27816151e0565b82525050565b6000602082019050614c42600083018461475c565b92915050565b600061014082019050614c5e600083018d61475c565b614c6b602083018c61475c565b8181036040830152614c7d818b614886565b90508181036060830152614c91818a614886565b90508181036080830152614ca58189614886565b905081810360a0830152614cb98188614886565b905081810360c0830152614ccd8187614886565b905081810360e0830152614ce18186614886565b9050818103610100830152614cf68185614886565b9050614d06610120830184614c1e565b9b9a5050505050505050505050565b60006020820190508181036000830152614d2f818461476b565b905092915050565b60006020820190508181036000830152614d5181846147c9565b905092915050565b6000602082019050614d6e600083018461483e565b92915050565b6000610140820190508181036000830152614d8f818d614886565b90508181036020830152614da3818c614886565b90508181036040830152614db7818b614886565b90508181036060830152614dcb818a614886565b90508181036080830152614ddf8189614886565b905081810360a0830152614df38188614886565b905081810360c0830152614e078187614886565b905081810360e0830152614e1b8186614886565b9050818103610100830152614e30818561476b565b9050614e40610120830184614c1e565b9b9a5050505050505050505050565b6000610120820190508181036000830152614e6a818c614886565b90508181036020830152614e7e818b614886565b90508181036040830152614e92818a614886565b90508181036060830152614ea68189614886565b90508181036080830152614eba8188614886565b905081810360a0830152614ece8187614886565b905081810360c0830152614ee28186614886565b905081810360e0830152614ef68185614886565b9050614f06610100830184614c1e565b9a9950505050505050505050565b60006080820190508181036000830152614f2e8187614886565b90508181036020830152614f428186614886565b90508181036040830152614f568185614886565b9050614f656060830184614c1e565b95945050505050565b60006020820190508181036000830152614f87816148bf565b9050919050565b60006020820190508181036000830152614fa7816148ff565b9050919050565b60006020820190508181036000830152614fc78161493f565b9050919050565b60006020820190508181036000830152614fe78161497f565b9050919050565b60006020820190508181036000830152615007816149e5565b9050919050565b6000602082019050818103600083015261502781614a25565b9050919050565b6000602082019050818103600083015261504781614a65565b9050919050565b6000602082019050818103600083015261506781614aa5565b9050919050565b6000604051905081810181811067ffffffffffffffff8211171561509557615094615305565b5b8060405250919050565b600067ffffffffffffffff8211156150ba576150b9615305565b5b601f19601f8301169050602081019050919050565b6000819050602082019050919050565b6000819050602082019050919050565b600081519050919050565b600081519050919050565b600081519050919050565b6000602082019050919050565b6000602082019050919050565b600082825260208201905092915050565b600082825260208201905092915050565b600082825260208201905092915050565b600082825260208201905092915050565b6000615179826151e0565b9150615184836151e0565b925082821015615197576151966152a7565b5b828203905092915050565b60006151ad826151c0565b9050919050565b60008115159050919050565b600073ffffffffffffffffffffffffffffffffffffffff82169050919050565b6000819050919050565b82818337600083830152505050565b60005b838110156152175780820151818401526020810190506151fc565b83811115615226576000848401525b50505050565b6000600282049050600182168061524457607f821691505b60208210811415615258576152576152d6565b5b50919050565b6000615269826151e0565b91507fffffffffffffffffffffffffffffffffffffffffffffffffffffffffffffffff82141561529c5761529b6152a7565b5b600182019050919050565b7f4e487b7100000000000000000000000000000000000000000000000000000000600052601160045260246000fd5b7f4e487b7100000000000000000000000000000000000000000000000000000000600052602260045260246000fd5b7f4e487b7100000000000000000000000000000000000000000000000000000000600052604160045260246000fd5b6000601f19601f8301169050919050565b61534e816151a2565b811461535957600080fd5b50565b615365816151e0565b811461537057600080fd5b5056fea2646970667358221220e2d4a9756f05f30d2297c3ce464ca79a5af878462edd5e46cbbcb7ac42e4f3cc64736f6c63430008000033",
  "immutableReferences": {},
  "source": "// SPDX-License-Identifier: MIT\r\npragma solidity ^0.8.0;\r\n\r\n//GALING REMIX TO ABBY AT TESTED NA TO\r\n\r\ncontract MediVerse {\r\n    \r\n    struct Patient {\r\n        string name;\r\n        string age;\r\n        string gender;\r\n        string dateOfBirth;\r\n        string height;\r\n        string weight;\r\n        string contactNum;\r\n        string addr;\r\n        address[] authorizedHospitals;\r\n        uint creationDate;\r\n    }\r\n\r\n    struct Hospital {\r\n        string name;\r\n        string contactNum;\r\n        string addr;\r\n        uint creationDate;\r\n    }\r\n\r\n    struct MedicalHistory {\r\n        address patientAddr;\r\n        address hospitalAddr;\r\n        string physician;\r\n        string diagnosis;\r\n        string signsAndSymptoms;\r\n        string treatmentProcedure;\r\n        string tests;\r\n        string medications;\r\n        string admission;\r\n        uint creationDate;\r\n    }\r\n\r\n    address[] public patientList; \r\n    address[] public hospitalList;\r\n    MedicalHistory[] public medicalHistoryList;\r\n    mapping(address => bool) public isRegistered;\r\n    mapping(address => Patient) public patients;\r\n    mapping(address => Hospital) public hospitals;\r\n    mapping(address => MedicalHistory[]) public medicalHistories;\r\n    mapping(address => address[]) private pendingRequests;\r\n\r\n    modifier isRegister() {\r\n        require(isRegistered[msg.sender], \"Account is not registered\");\r\n        _;\r\n    }\r\n\r\n    modifier isAuthorized(address _patientAddr) {\r\n        require(\r\n            isHospitalAuthorized(_patientAddr, msg.sender),\r\n            \"Hospital not authorized to access patient records\"\r\n        );\r\n        _;\r\n    }\r\n\r\n    function isHospitalAuthorized(address _patientAddr, address _hospitalAddr) internal view returns (bool) {\r\n        for (uint i = 0; i < patients[_patientAddr].authorizedHospitals.length; i++) {\r\n            if (patients[_patientAddr].authorizedHospitals[i] == _hospitalAddr) {\r\n                return true;\r\n            }\r\n        }\r\n        return false;\r\n    }\r\n\r\n    function registerPatient(\r\n        string memory _name,\r\n        string memory _age,\r\n        string memory _gender,\r\n        string memory _dateOfBirth,\r\n        string memory _height,\r\n        string memory _weight,\r\n        string memory _contactNum,\r\n        string memory _address\r\n    ) public {\r\n        require(!isRegistered[msg.sender], \"Patient already registered\");\r\n        Patient storage patient = patients[msg.sender];\r\n        patient.name = _name;\r\n        patient.age = _age;\r\n        patient.gender = _gender;\r\n        patient.dateOfBirth = _dateOfBirth;\r\n        patient.height = _height;\r\n        patient.weight = _weight;\r\n        patient.contactNum = _contactNum;\r\n        patient.addr = _address;\r\n        patient.creationDate = block.timestamp;\r\n        patientList.push(msg.sender);\r\n        isRegistered[msg.sender] = true;\r\n    }\r\n\r\n    function editPatientDetails(\r\n        string memory _name,\r\n        string memory _age,\r\n        string memory _gender,\r\n        string memory _dateOfBirth,\r\n        string memory _height,\r\n        string memory _weight,\r\n        string memory _contactNum,\r\n        string memory _address\r\n    ) public {\r\n        Patient storage patient = patients[msg.sender];\r\n        patient.name = _name;\r\n        patient.age = _age;\r\n        patient.gender = _gender;\r\n        patient.dateOfBirth = _dateOfBirth;\r\n        patient.height = _height;\r\n        patient.weight = _weight;\r\n        patient.contactNum = _contactNum;\r\n        patient.addr = _address;\r\n        patient.creationDate = block.timestamp;\r\n    }\r\n\r\n    function registerHospital(\r\n        string memory _name,\r\n        string memory _contactNum,\r\n        string memory _address\r\n    ) public {\r\n        require(!isRegistered[msg.sender], \"Hospital already registered\");\r\n        Hospital storage hospital = hospitals[msg.sender];\r\n        hospital.name = _name;\r\n        hospital.contactNum = _contactNum;\r\n        hospital.addr = _address;\r\n        hospital.creationDate = block.timestamp;\r\n\r\n        hospitalList.push(msg.sender);\r\n        isRegistered[msg.sender] = true;\r\n    }\r\n\r\n    function editHospitalDetails(\r\n        string memory _name,\r\n        string memory _contactNum,\r\n        string memory _addr\r\n    ) public {\r\n        Hospital storage hospital = hospitals[msg.sender];\r\n        hospital.name = _name;\r\n        hospital.contactNum = _contactNum;\r\n        hospital.addr = _addr;\r\n        hospital.creationDate = block.timestamp;\r\n    }\r\n\r\n    function addMedicalHistory(\r\n        address _patientAddr,\r\n        string memory _physician,\r\n        string memory _diagnosis,\r\n        string memory _signsAndSymptoms,\r\n        string memory _treatmentProcedure,\r\n        string memory _tests,\r\n        string memory _medications,\r\n        string memory _admission\r\n    ) public {\r\n        require(isRegistered[_patientAddr], \"Patient not registered\");\r\n        if (!isHospitalAuthorized(_patientAddr, msg.sender)) {\r\n            patients[_patientAddr].authorizedHospitals.push(msg.sender);\r\n        }\r\n        MedicalHistory memory history;\r\n        history.patientAddr = _patientAddr;\r\n        history.hospitalAddr = msg.sender;\r\n        history.physician = _physician;\r\n        history.diagnosis = _diagnosis;\r\n        history.signsAndSymptoms = _signsAndSymptoms;\r\n        history.treatmentProcedure = _treatmentProcedure;\r\n        history.tests = _tests;\r\n        history.medications = _medications;\r\n        history.admission = _admission;\r\n        history.creationDate = block.timestamp; //just added a timestamp here para sa pag check for notif\r\n\r\n        medicalHistories[_patientAddr].push(history);\r\n        medicalHistoryList.push(history);\r\n    }\r\n\r\n    function editMedicalHistory(\r\n        address _patientAddr,\r\n        string memory _physician,\r\n        string memory _diagnosis,\r\n        string memory _signsAndSymptoms,\r\n        string memory _treatmentProcedure,\r\n        string memory _tests,\r\n        string memory _medications,\r\n        string memory _admission\r\n    ) public {\r\n        MedicalHistory[] storage history = medicalHistories[_patientAddr];\r\n\r\n        require(history.length > 0, \"No medical history records found for the patient\");\r\n        for (uint i = 0; i < history.length; i++) {\r\n            if (history[i].hospitalAddr == msg.sender) {\r\n                history[i].physician = _physician;\r\n                history[i].diagnosis = _diagnosis;\r\n                history[i].signsAndSymptoms = _signsAndSymptoms;\r\n                history[i].treatmentProcedure = _treatmentProcedure;\r\n                history[i].tests = _tests;\r\n                history[i].medications = _medications;\r\n                history[i].admission = _admission;\r\n                return; \r\n            }\r\n        }\r\n        revert(\"Medical history record not found for the specified hospital\");\r\n    }\r\n\r\n    function getMedicalHistory(address _patientAddr) public view returns (MedicalHistory[] memory) {\r\n        return medicalHistories[_patientAddr];\r\n    }\r\n\r\n    function getAllMedicalHistory() public view returns (MedicalHistory[] memory) {\r\n        return medicalHistoryList;\r\n    }\r\n\r\n    function getPatientInfo(address patientAddress) external view returns (string memory, string memory, string memory, string memory, string memory, string memory, string memory, string memory, address[] memory, uint) {\r\n        Patient storage patient = patients[patientAddress];\r\n        return (patient.name, patient.age, patient.gender, patient.dateOfBirth, patient.height, patient.weight, patient.contactNum, patient.addr, patient.authorizedHospitals, patient.creationDate);\r\n    }\r\n\r\n    function getHospitalInfo(address hospitalAddress) external view returns (string memory, string memory, string memory, uint) {\r\n        Hospital storage hospital = hospitals[hospitalAddress];\r\n        return (hospital.name, hospital.contactNum, hospital.addr, hospital.creationDate);\r\n    }\r\n    \r\n    function givePermission(address _hospitalAddr) public  {\r\n        require(!isHospitalAuthorized(msg.sender, _hospitalAddr), \"Hospital already authorized\");\r\n        address[] storage pending = pendingRequests[msg.sender];\r\n        for (uint i = 0; i < pending.length; i++) {\r\n            if (pending[i] == _hospitalAddr) {\r\n                pending[i] = pending[pending.length - 1];\r\n                pending.pop();\r\n                break;\r\n            }\r\n        }\r\n        patients[msg.sender].authorizedHospitals.push(_hospitalAddr);\r\n    }\r\n\r\n    function revokeAccess(address _hospitalAddr) public {\r\n        require(isHospitalAuthorized(msg.sender, _hospitalAddr), \"Hospital not authorized\");\r\n        address[] storage authorizedHospitals = patients[msg.sender].authorizedHospitals;\r\n        for (uint i = 0; i < authorizedHospitals.length; i++) {\r\n            if (authorizedHospitals[i] == _hospitalAddr) {\r\n                authorizedHospitals[i] = authorizedHospitals[authorizedHospitals.length - 1];\r\n                authorizedHospitals.pop();\r\n                return;\r\n            }\r\n        }\r\n    }\r\n\r\n    function requestPermission(address _patientAddr) public {\r\n        require(!isHospitalAuthorized(_patientAddr, msg.sender), \"Request already sent\");\r\n        pendingRequests[_patientAddr].push(msg.sender);\r\n    }\r\n\r\n    function getAuthorizedHospitals(address _patientAddr) public view returns (address[] memory) {\r\n        return patients[_patientAddr].authorizedHospitals;\r\n    }\r\n\r\n    function getPendingRequests(address _patientAddr) public view returns (address[] memory) {\r\n        return pendingRequests[_patientAddr];\r\n    }\r\n\r\n    function getPatientList() public view returns (address[] memory) {\r\n        return patientList;\r\n    }\r\n\r\n    function getHospitalList() public view returns (address[] memory) {\r\n        return hospitalList;\r\n    }\r\n}",
  "sourcePath": "C:\\Users\\jpaul\\Desktop\\Appcon Mediverse\\MediVerse-Web3-Dapp\\contracts\\MediVerse.sol",
  "compiler": {
    "name": "solc",
    "version": "0.8.0+commit.c7dfd78e.Emscripten.clang"
  },
  "schemaVersion": "3.4.16",
  "updatedAt": "2024-04-20T06:29:30.193Z",
  "networkType": "ethereum",
  "devdoc": {
    "kind": "dev",
    "methods": {},
    "version": 1
  },
  "userdoc": {
    "kind": "user",
    "methods": {},
    "version": 1
  }
}