{
  "contractName": "MediVerse",
  "abi": [
    {
      "anonymous": false,
      "inputs": [
        {
          "indexed": false,
          "internalType": "address",
          "name": "patientAddr",
          "type": "address"
        },
        {
          "indexed": false,
          "internalType": "address",
          "name": "hospitalAddr",
          "type": "address"
        }
      ],
      "name": "GeneralHealthProfileAdded",
      "type": "event"
    },
    {
      "anonymous": false,
      "inputs": [
        {
          "indexed": false,
          "internalType": "address",
          "name": "hospitalAddr",
          "type": "address"
        }
      ],
      "name": "HospitalRegistered",
      "type": "event"
    },
    {
      "anonymous": false,
      "inputs": [
        {
          "indexed": false,
          "internalType": "address",
          "name": "patientAddr",
          "type": "address"
        },
        {
          "indexed": false,
          "internalType": "address",
          "name": "hospitalAddr",
          "type": "address"
        }
      ],
      "name": "MedicalHistoryAdded",
      "type": "event"
    },
    {
      "anonymous": false,
      "inputs": [
        {
          "indexed": false,
          "internalType": "address",
          "name": "patientAddr",
          "type": "address"
        }
      ],
      "name": "PatientRegistered",
      "type": "event"
    },
    {
      "anonymous": false,
      "inputs": [
        {
          "indexed": false,
          "internalType": "address",
          "name": "patientAddr",
          "type": "address"
        },
        {
          "indexed": false,
          "internalType": "address",
          "name": "hospitalAddr",
          "type": "address"
        }
      ],
      "name": "PermissionGranted",
      "type": "event"
    },
    {
      "anonymous": false,
      "inputs": [
        {
          "indexed": false,
          "internalType": "address",
          "name": "patientAddr",
          "type": "address"
        },
        {
          "indexed": false,
          "internalType": "address",
          "name": "hospitalAddr",
          "type": "address"
        }
      ],
      "name": "PermissionRevoked",
      "type": "event"
    },
    {
      "inputs": [
        {
          "internalType": "address",
          "name": "",
          "type": "address"
        },
        {
          "internalType": "uint256",
          "name": "",
          "type": "uint256"
        }
      ],
      "name": "generalHealthProfiles",
      "outputs": [
        {
          "internalType": "address",
          "name": "patientAddr",
          "type": "address"
        },
        {
          "internalType": "address",
          "name": "hospitalAddr",
          "type": "address"
        },
        {
          "internalType": "string",
          "name": "physicalExamination",
          "type": "string"
        },
        {
          "internalType": "string",
          "name": "medicalHistorySummary",
          "type": "string"
        },
        {
          "internalType": "string",
          "name": "maintenanceMedication",
          "type": "string"
        },
        {
          "internalType": "string",
          "name": "allergies",
          "type": "string"
        },
        {
          "internalType": "string",
          "name": "medicalProcedureSummary",
          "type": "string"
        },
        {
          "internalType": "uint256",
          "name": "creationDate",
          "type": "uint256"
        }
      ],
      "stateMutability": "view",
      "type": "function",
      "constant": true
    },
    {
      "inputs": [
        {
          "internalType": "address",
          "name": "",
          "type": "address"
        }
      ],
      "name": "hospitals",
      "outputs": [
        {
          "internalType": "string",
          "name": "name",
          "type": "string"
        },
        {
          "internalType": "string",
          "name": "contactNum",
          "type": "string"
        },
        {
          "internalType": "string",
          "name": "addr",
          "type": "string"
        },
        {
          "internalType": "uint256",
          "name": "registrationDate",
          "type": "uint256"
        }
      ],
      "stateMutability": "view",
      "type": "function",
      "constant": true
    },
    {
      "inputs": [
        {
          "internalType": "address",
          "name": "",
          "type": "address"
        },
        {
          "internalType": "uint256",
          "name": "",
          "type": "uint256"
        }
      ],
      "name": "medicalHistories",
      "outputs": [
        {
          "internalType": "address",
          "name": "patientAddr",
          "type": "address"
        },
        {
          "internalType": "address",
          "name": "hospitalAddr",
          "type": "address"
        },
        {
          "internalType": "string",
          "name": "physician",
          "type": "string"
        },
        {
          "internalType": "string",
          "name": "diagnosis",
          "type": "string"
        },
        {
          "internalType": "string",
          "name": "signsAndSymptoms",
          "type": "string"
        },
        {
          "internalType": "string",
          "name": "treatmentProcedure",
          "type": "string"
        },
        {
          "internalType": "string",
          "name": "tests",
          "type": "string"
        },
        {
          "internalType": "string",
          "name": "medications",
          "type": "string"
        },
        {
          "internalType": "string",
          "name": "admission",
          "type": "string"
        },
        {
          "internalType": "uint256",
          "name": "creationDate",
          "type": "uint256"
        }
      ],
      "stateMutability": "view",
      "type": "function",
      "constant": true
    },
    {
      "inputs": [
        {
          "internalType": "address",
          "name": "",
          "type": "address"
        }
      ],
      "name": "patients",
      "outputs": [
        {
          "internalType": "string",
          "name": "name",
          "type": "string"
        },
        {
          "internalType": "string",
          "name": "gender",
          "type": "string"
        },
        {
          "internalType": "string",
          "name": "dateOfBirth",
          "type": "string"
        },
        {
          "internalType": "string",
          "name": "height",
          "type": "string"
        },
        {
          "internalType": "string",
          "name": "weight",
          "type": "string"
        },
        {
          "internalType": "string",
          "name": "contactNum",
          "type": "string"
        },
        {
          "internalType": "string",
          "name": "addr",
          "type": "string"
        },
        {
          "internalType": "uint256",
          "name": "registrationDate",
          "type": "uint256"
        }
      ],
      "stateMutability": "view",
      "type": "function",
      "constant": true
    },
    {
      "inputs": [
        {
          "internalType": "string",
          "name": "_name",
          "type": "string"
        },
        {
          "internalType": "string",
          "name": "_contactNum",
          "type": "string"
        },
        {
          "internalType": "string",
          "name": "_gender",
          "type": "string"
        },
        {
          "internalType": "string",
          "name": "_dateOfBirth",
          "type": "string"
        },
        {
          "internalType": "string",
          "name": "_height",
          "type": "string"
        },
        {
          "internalType": "string",
          "name": "_weight",
          "type": "string"
        },
        {
          "internalType": "string",
          "name": "_address",
          "type": "string"
        }
      ],
      "name": "registerPatient",
      "outputs": [],
      "stateMutability": "nonpayable",
      "type": "function"
    },
    {
      "inputs": [
        {
          "internalType": "string",
          "name": "_name",
          "type": "string"
        },
        {
          "internalType": "string",
          "name": "_contactNum",
          "type": "string"
        },
        {
          "internalType": "string",
          "name": "_gender",
          "type": "string"
        },
        {
          "internalType": "string",
          "name": "_dateOfBirth",
          "type": "string"
        },
        {
          "internalType": "string",
          "name": "_height",
          "type": "string"
        },
        {
          "internalType": "string",
          "name": "_weight",
          "type": "string"
        },
        {
          "internalType": "string",
          "name": "_address",
          "type": "string"
        }
      ],
      "name": "editPatientDetails",
      "outputs": [],
      "stateMutability": "nonpayable",
      "type": "function"
    },
    {
      "inputs": [
        {
          "internalType": "string",
          "name": "_name",
          "type": "string"
        },
        {
          "internalType": "string",
          "name": "_contactNum",
          "type": "string"
        },
        {
          "internalType": "string",
          "name": "_address",
          "type": "string"
        }
      ],
      "name": "registerHospital",
      "outputs": [],
      "stateMutability": "nonpayable",
      "type": "function"
    },
    {
      "inputs": [
        {
          "internalType": "string",
          "name": "_name",
          "type": "string"
        },
        {
          "internalType": "string",
          "name": "_contactNum",
          "type": "string"
        },
        {
          "internalType": "string",
          "name": "_addr",
          "type": "string"
        }
      ],
      "name": "editHospitalDetails",
      "outputs": [],
      "stateMutability": "nonpayable",
      "type": "function"
    },
    {
      "inputs": [
        {
          "internalType": "address",
          "name": "_patientAddr",
          "type": "address"
        },
        {
          "internalType": "string",
          "name": "_physician",
          "type": "string"
        },
        {
          "internalType": "string",
          "name": "_diagnosis",
          "type": "string"
        },
        {
          "internalType": "string",
          "name": "_signsAndSymptoms",
          "type": "string"
        },
        {
          "internalType": "string",
          "name": "_treatmentProcedure",
          "type": "string"
        },
        {
          "internalType": "string",
          "name": "_tests",
          "type": "string"
        },
        {
          "internalType": "string",
          "name": "_medications",
          "type": "string"
        },
        {
          "internalType": "string",
          "name": "_admission",
          "type": "string"
        }
      ],
      "name": "addMedicalHistory",
      "outputs": [],
      "stateMutability": "nonpayable",
      "type": "function"
    },
    {
      "inputs": [
        {
          "internalType": "address",
          "name": "_patientAddr",
          "type": "address"
        },
        {
          "internalType": "string",
          "name": "_medicalHistorySummary",
          "type": "string"
        },
        {
          "internalType": "string",
          "name": "_maintenanceMedication",
          "type": "string"
        },
        {
          "internalType": "string",
          "name": "_allergies",
          "type": "string"
        },
        {
          "internalType": "string",
          "name": "_medicalProcedureSummary",
          "type": "string"
        }
      ],
      "name": "addGeneralHealthProfile",
      "outputs": [],
      "stateMutability": "nonpayable",
      "type": "function"
    },
    {
      "inputs": [
        {
          "internalType": "address",
          "name": "_patientAddr",
          "type": "address"
        }
      ],
      "name": "getMedicalHistory",
      "outputs": [
        {
          "components": [
            {
              "internalType": "address",
              "name": "patientAddr",
              "type": "address"
            },
            {
              "internalType": "address",
              "name": "hospitalAddr",
              "type": "address"
            },
            {
              "internalType": "string",
              "name": "physician",
              "type": "string"
            },
            {
              "internalType": "string",
              "name": "diagnosis",
              "type": "string"
            },
            {
              "internalType": "string",
              "name": "signsAndSymptoms",
              "type": "string"
            },
            {
              "internalType": "string",
              "name": "treatmentProcedure",
              "type": "string"
            },
            {
              "internalType": "string",
              "name": "tests",
              "type": "string"
            },
            {
              "internalType": "string",
              "name": "medications",
              "type": "string"
            },
            {
              "internalType": "string",
              "name": "admission",
              "type": "string"
            },
            {
              "internalType": "uint256",
              "name": "creationDate",
              "type": "uint256"
            }
          ],
          "internalType": "struct MediVerse.MedicalHistory[]",
          "name": "",
          "type": "tuple[]"
        }
      ],
      "stateMutability": "view",
      "type": "function",
      "constant": true
    },
    {
      "inputs": [
        {
          "internalType": "address",
          "name": "_patientAddr",
          "type": "address"
        }
      ],
      "name": "getGeneralProfile",
      "outputs": [
        {
          "components": [
            {
              "internalType": "address",
              "name": "patientAddr",
              "type": "address"
            },
            {
              "internalType": "address",
              "name": "hospitalAddr",
              "type": "address"
            },
            {
              "internalType": "string",
              "name": "physicalExamination",
              "type": "string"
            },
            {
              "internalType": "string",
              "name": "medicalHistorySummary",
              "type": "string"
            },
            {
              "internalType": "string",
              "name": "maintenanceMedication",
              "type": "string"
            },
            {
              "internalType": "string",
              "name": "allergies",
              "type": "string"
            },
            {
              "internalType": "string",
              "name": "medicalProcedureSummary",
              "type": "string"
            },
            {
              "internalType": "uint256",
              "name": "creationDate",
              "type": "uint256"
            }
          ],
          "internalType": "struct MediVerse.GeneralHealthProfile[]",
          "name": "",
          "type": "tuple[]"
        }
      ],
      "stateMutability": "view",
      "type": "function",
      "constant": true
    },
    {
      "inputs": [
        {
          "internalType": "address",
          "name": "_hospitalAddr",
          "type": "address"
        }
      ],
      "name": "givePermission",
      "outputs": [],
      "stateMutability": "nonpayable",
      "type": "function"
    },
    {
      "inputs": [
        {
          "internalType": "address",
          "name": "_hospitalAddr",
          "type": "address"
        }
      ],
      "name": "revokePermission",
      "outputs": [],
      "stateMutability": "nonpayable",
      "type": "function"
    },
    {
      "inputs": [
        {
          "internalType": "address",
          "name": "_patientAddr",
          "type": "address"
        }
      ],
      "name": "getAuthorizedHospitals",
      "outputs": [
        {
          "internalType": "address[]",
          "name": "",
          "type": "address[]"
        }
      ],
      "stateMutability": "view",
      "type": "function",
      "constant": true
    },
    {
      "inputs": [
        {
          "internalType": "address",
          "name": "_patientAddr",
          "type": "address"
        }
      ],
      "name": "getMedicalHistoryCount",
      "outputs": [
        {
          "internalType": "uint256",
          "name": "",
          "type": "uint256"
        }
      ],
      "stateMutability": "view",
      "type": "function",
      "constant": true
    },
    {
      "inputs": [
        {
          "internalType": "address",
          "name": "_patientAddr",
          "type": "address"
        }
      ],
      "name": "getGeneralProfileCount",
      "outputs": [
        {
          "internalType": "uint256",
          "name": "",
          "type": "uint256"
        }
      ],
      "stateMutability": "view",
      "type": "function",
      "constant": true
    }
  ],
  "bytecode": "0x608060405234801561001057600080fd5b506144f1806100206000396000f3fe608060405234801561001057600080fd5b506004361061010b5760003560e01c8063a30b6ec3116100a2578063b14b203411610071578063b14b2034146102e8578063d31e372914610304578063dc7d632f14610334578063f093cf801461036b578063f74258f91461039e5761010b565b8063a30b6ec314610250578063a3bf5b9a1461026c578063ae114fa214610288578063ae23704b146102b85761010b565b80633d391f70116100de5780633d391f70146101af578063526b44ac146101cb5780635986de61146101e757806372339509146102175761010b565b80630869cfbc14610110578063088bb73b146101475780630bf46d70146101635780632d57f4ed14610193575b600080fd5b61012a6004803603810190610125919061330e565b6103ba565b60405161013e989796959493929190613f85565b60405180910390f35b610161600480360381019061015c919061363b565b6107ba565b005b61017d6004803603810190610178919061330e565b610945565b60405161018a9190613f41565b60405180910390f35b6101ad60048036038101906101a891906135a4565b610dbf565b005b6101c960048036038101906101c4919061330e565b610ee4565b005b6101e560048036038101906101e091906135a4565b61109c565b005b61020160048036038101906101fc919061330e565b611201565b60405161020e9190613f63565b60405180910390f35b610231600480360381019061022c9190613568565b61179f565b6040516102479a99989796959493929190613db1565b60405180910390f35b61026a6004803603810190610265919061363b565b611c08565b005b6102866004803603810190610281919061330e565b611dd3565b005b6102a2600480360381019061029d919061330e565b612151565b6040516102af919061416e565b60405180910390f35b6102d260048036038101906102cd919061330e565b61219d565b6040516102df919061416e565b60405180910390f35b61030260048036038101906102fd9190613337565b6121e9565b005b61031e6004803603810190610319919061330e565b6124f5565b60405161032b9190613f1f565b60405180910390f35b61034e60048036038101906103499190613568565b6125c4565b604051610362989796959493929190613e7e565b60405180910390f35b6103856004803603810190610380919061330e565b612911565b6040516103959493929190614034565b60405180910390f35b6103b860048036038101906103b3919061340e565b612ad9565b005b60006020528060005260406000206000915090508060000180546103dd90614374565b80601f016020809104026020016040519081016040528092919081815260200182805461040990614374565b80156104565780601f1061042b57610100808354040283529160200191610456565b820191906000526020600020905b81548152906001019060200180831161043957829003601f168201915b50505050509080600101805461046b90614374565b80601f016020809104026020016040519081016040528092919081815260200182805461049790614374565b80156104e45780601f106104b9576101008083540402835291602001916104e4565b820191906000526020600020905b8154815290600101906020018083116104c757829003601f168201915b5050505050908060020180546104f990614374565b80601f016020809104026020016040519081016040528092919081815260200182805461052590614374565b80156105725780601f1061054757610100808354040283529160200191610572565b820191906000526020600020905b81548152906001019060200180831161055557829003601f168201915b50505050509080600301805461058790614374565b80601f01602080910402602001604051908101604052809291908181526020018280546105b390614374565b80156106005780601f106105d557610100808354040283529160200191610600565b820191906000526020600020905b8154815290600101906020018083116105e357829003601f168201915b50505050509080600401805461061590614374565b80601f016020809104026020016040519081016040528092919081815260200182805461064190614374565b801561068e5780601f106106635761010080835404028352916020019161068e565b820191906000526020600020905b81548152906001019060200180831161067157829003601f168201915b5050505050908060050180546106a390614374565b80601f01602080910402602001604051908101604052809291908181526020018280546106cf90614374565b801561071c5780601f106106f15761010080835404028352916020019161071c565b820191906000526020600020905b8154815290600101906020018083116106ff57829003601f168201915b50505050509080600601805461073190614374565b80601f016020809104026020016040519081016040528092919081815260200182805461075d90614374565b80156107aa5780601f1061077f576101008083540402835291602001916107aa565b820191906000526020600020905b81548152906001019060200180831161078d57829003601f168201915b5050505050908060080154905088565b60008060003373ffffffffffffffffffffffffffffffffffffffff1673ffffffffffffffffffffffffffffffffffffffff168152602001908152602001600020600001805461080890614374565b90501161084a576040517f08c379a0000000000000000000000000000000000000000000000000000000008152600401610841906140ce565b60405180910390fd5b60008060003373ffffffffffffffffffffffffffffffffffffffff1673ffffffffffffffffffffffffffffffffffffffff1681526020019081526020016000209050878160000190805190602001906108a49291906130e9565b50868160050190805190602001906108bd9291906130e9565b50858160010190805190602001906108d69291906130e9565b50848160020190805190602001906108ef9291906130e9565b50838160030190805190602001906109089291906130e9565b50828160040190805190602001906109219291906130e9565b508181600601908051906020019061093a9291906130e9565b505050505050505050565b6060816109528133612e41565b610991576040517f08c379a00000000000000000000000000000000000000000000000000000000081526004016109889061408e565b60405180910390fd5b600360008473ffffffffffffffffffffffffffffffffffffffff1673ffffffffffffffffffffffffffffffffffffffff168152602001908152602001600020805480602002602001604051908101604052809291908181526020016000905b82821015610db35783829060005260206000209060080201604051806101000160405290816000820160009054906101000a900473ffffffffffffffffffffffffffffffffffffffff1673ffffffffffffffffffffffffffffffffffffffff1673ffffffffffffffffffffffffffffffffffffffff1681526020016001820160009054906101000a900473ffffffffffffffffffffffffffffffffffffffff1673ffffffffffffffffffffffffffffffffffffffff1673ffffffffffffffffffffffffffffffffffffffff168152602001600282018054610ad090614374565b80601f0160208091040260200160405190810160405280929190818152602001828054610afc90614374565b8015610b495780601f10610b1e57610100808354040283529160200191610b49565b820191906000526020600020905b815481529060010190602001808311610b2c57829003601f168201915b50505050508152602001600382018054610b6290614374565b80601f0160208091040260200160405190810160405280929190818152602001828054610b8e90614374565b8015610bdb5780601f10610bb057610100808354040283529160200191610bdb565b820191906000526020600020905b815481529060010190602001808311610bbe57829003601f168201915b50505050508152602001600482018054610bf490614374565b80601f0160208091040260200160405190810160405280929190818152602001828054610c2090614374565b8015610c6d5780601f10610c4257610100808354040283529160200191610c6d565b820191906000526020600020905b815481529060010190602001808311610c5057829003601f168201915b50505050508152602001600582018054610c8690614374565b80601f0160208091040260200160405190810160405280929190818152602001828054610cb290614374565b8015610cff5780601f10610cd457610100808354040283529160200191610cff565b820191906000526020600020905b815481529060010190602001808311610ce257829003601f168201915b50505050508152602001600682018054610d1890614374565b80601f0160208091040260200160405190810160405280929190818152602001828054610d4490614374565b8015610d915780601f10610d6657610100808354040283529160200191610d91565b820191906000526020600020905b815481529060010190602001808311610d7457829003601f168201915b50505050508152602001600782015481525050815260200190600101906109f0565b50505050915050919050565b6000600160003373ffffffffffffffffffffffffffffffffffffffff1673ffffffffffffffffffffffffffffffffffffffff1681526020019081526020016000206000018054610e0e90614374565b905011610e50576040517f08c379a0000000000000000000000000000000000000000000000000000000008152600401610e47906140ee565b60405180910390fd5b6000600160003373ffffffffffffffffffffffffffffffffffffffff1673ffffffffffffffffffffffffffffffffffffffff168152602001908152602001600020905083816000019080519060200190610eab9291906130e9565b5082816001019080519060200190610ec49291906130e9565b5081816002019080519060200190610edd9291906130e9565b5050505050565b60008060003373ffffffffffffffffffffffffffffffffffffffff1673ffffffffffffffffffffffffffffffffffffffff1681526020019081526020016000206000018054610f3290614374565b905011610f74576040517f08c379a0000000000000000000000000000000000000000000000000000000008152600401610f6b906140ce565b60405180910390fd5b610f7e3382612f95565b15610fbe576040517f08c379a0000000000000000000000000000000000000000000000000000000008152600401610fb59061414e565b60405180910390fd5b6000803373ffffffffffffffffffffffffffffffffffffffff1673ffffffffffffffffffffffffffffffffffffffff168152602001908152602001600020600701819080600181540180825580915050600190039060005260206000200160009091909190916101000a81548173ffffffffffffffffffffffffffffffffffffffff021916908373ffffffffffffffffffffffffffffffffffffffff1602179055507f0ceda602a8e00ef76afe24614343eb6c034877c816b6184d641d2d8b713a0fc63382604051611091929190613d88565b60405180910390a150565b6000600160003373ffffffffffffffffffffffffffffffffffffffff1673ffffffffffffffffffffffffffffffffffffffff16815260200190815260200160002060000180546110eb90614374565b90501461112d576040517f08c379a00000000000000000000000000000000000000000000000000000000081526004016111249061412e565b60405180910390fd5b6000600160003373ffffffffffffffffffffffffffffffffffffffff1673ffffffffffffffffffffffffffffffffffffffff1681526020019081526020016000209050838160000190805190602001906111889291906130e9565b50828160010190805190602001906111a19291906130e9565b50818160020190805190602001906111ba9291906130e9565b504281600301819055507f380355b6fe4f9755ddcef7c5c195edae45bdb34953a41d82386022f3cd5899f0336040516111f39190613d6d565b60405180910390a150505050565b60608161120e8133612e41565b61124d576040517f08c379a00000000000000000000000000000000000000000000000000000000081526004016112449061408e565b60405180910390fd5b600260008473ffffffffffffffffffffffffffffffffffffffff1673ffffffffffffffffffffffffffffffffffffffff168152602001908152602001600020805480602002602001604051908101604052809291908181526020016000905b8282101561179357838290600052602060002090600a0201604051806101400160405290816000820160009054906101000a900473ffffffffffffffffffffffffffffffffffffffff1673ffffffffffffffffffffffffffffffffffffffff1673ffffffffffffffffffffffffffffffffffffffff1681526020016001820160009054906101000a900473ffffffffffffffffffffffffffffffffffffffff1673ffffffffffffffffffffffffffffffffffffffff1673ffffffffffffffffffffffffffffffffffffffff16815260200160028201805461138c90614374565b80601f01602080910402602001604051908101604052809291908181526020018280546113b890614374565b80156114055780601f106113da57610100808354040283529160200191611405565b820191906000526020600020905b8154815290600101906020018083116113e857829003601f168201915b5050505050815260200160038201805461141e90614374565b80601f016020809104026020016040519081016040528092919081815260200182805461144a90614374565b80156114975780601f1061146c57610100808354040283529160200191611497565b820191906000526020600020905b81548152906001019060200180831161147a57829003601f168201915b505050505081526020016004820180546114b090614374565b80601f01602080910402602001604051908101604052809291908181526020018280546114dc90614374565b80156115295780601f106114fe57610100808354040283529160200191611529565b820191906000526020600020905b81548152906001019060200180831161150c57829003601f168201915b5050505050815260200160058201805461154290614374565b80601f016020809104026020016040519081016040528092919081815260200182805461156e90614374565b80156115bb5780601f10611590576101008083540402835291602001916115bb565b820191906000526020600020905b81548152906001019060200180831161159e57829003601f168201915b505050505081526020016006820180546115d490614374565b80601f016020809104026020016040519081016040528092919081815260200182805461160090614374565b801561164d5780601f106116225761010080835404028352916020019161164d565b820191906000526020600020905b81548152906001019060200180831161163057829003601f168201915b5050505050815260200160078201805461166690614374565b80601f016020809104026020016040519081016040528092919081815260200182805461169290614374565b80156116df5780601f106116b4576101008083540402835291602001916116df565b820191906000526020600020905b8154815290600101906020018083116116c257829003601f168201915b505050505081526020016008820180546116f890614374565b80601f016020809104026020016040519081016040528092919081815260200182805461172490614374565b80156117715780601f1061174657610100808354040283529160200191611771565b820191906000526020600020905b81548152906001019060200180831161175457829003601f168201915b50505050508152602001600982015481525050815260200190600101906112ac565b50505050915050919050565b600260205281600052604060002081815481106117bb57600080fd5b90600052602060002090600a0201600091509150508060000160009054906101000a900473ffffffffffffffffffffffffffffffffffffffff16908060010160009054906101000a900473ffffffffffffffffffffffffffffffffffffffff169080600201805461182b90614374565b80601f016020809104026020016040519081016040528092919081815260200182805461185790614374565b80156118a45780601f10611879576101008083540402835291602001916118a4565b820191906000526020600020905b81548152906001019060200180831161188757829003601f168201915b5050505050908060030180546118b990614374565b80601f01602080910402602001604051908101604052809291908181526020018280546118e590614374565b80156119325780601f1061190757610100808354040283529160200191611932565b820191906000526020600020905b81548152906001019060200180831161191557829003601f168201915b50505050509080600401805461194790614374565b80601f016020809104026020016040519081016040528092919081815260200182805461197390614374565b80156119c05780601f10611995576101008083540402835291602001916119c0565b820191906000526020600020905b8154815290600101906020018083116119a357829003601f168201915b5050505050908060050180546119d590614374565b80601f0160208091040260200160405190810160405280929190818152602001828054611a0190614374565b8015611a4e5780601f10611a2357610100808354040283529160200191611a4e565b820191906000526020600020905b815481529060010190602001808311611a3157829003601f168201915b505050505090806006018054611a6390614374565b80601f0160208091040260200160405190810160405280929190818152602001828054611a8f90614374565b8015611adc5780601f10611ab157610100808354040283529160200191611adc565b820191906000526020600020905b815481529060010190602001808311611abf57829003601f168201915b505050505090806007018054611af190614374565b80601f0160208091040260200160405190810160405280929190818152602001828054611b1d90614374565b8015611b6a5780601f10611b3f57610100808354040283529160200191611b6a565b820191906000526020600020905b815481529060010190602001808311611b4d57829003601f168201915b505050505090806008018054611b7f90614374565b80601f0160208091040260200160405190810160405280929190818152602001828054611bab90614374565b8015611bf85780601f10611bcd57610100808354040283529160200191611bf8565b820191906000526020600020905b815481529060010190602001808311611bdb57829003601f168201915b505050505090806009015490508a565b60008060003373ffffffffffffffffffffffffffffffffffffffff1673ffffffffffffffffffffffffffffffffffffffff1681526020019081526020016000206000018054611c5690614374565b905014611c98576040517f08c379a0000000000000000000000000000000000000000000000000000000008152600401611c8f906140ae565b60405180910390fd5b60008060003373ffffffffffffffffffffffffffffffffffffffff1673ffffffffffffffffffffffffffffffffffffffff168152602001908152602001600020905087816000019080519060200190611cf29291906130e9565b5086816005019080519060200190611d0b9291906130e9565b5085816001019080519060200190611d249291906130e9565b5084816002019080519060200190611d3d9291906130e9565b5083816003019080519060200190611d569291906130e9565b5082816004019080519060200190611d6f9291906130e9565b5081816006019080519060200190611d889291906130e9565b504281600801819055507fc9fa2003fca4ce0dfc8cb0deae32266b715536df6685365b05b5be96ede8e49c33604051611dc19190613d6d565b60405180910390a15050505050505050565b60008060003373ffffffffffffffffffffffffffffffffffffffff1673ffffffffffffffffffffffffffffffffffffffff1681526020019081526020016000206000018054611e2190614374565b905011611e63576040517f08c379a0000000000000000000000000000000000000000000000000000000008152600401611e5a906140ce565b60405180910390fd5b611e6d3382612f95565b611eac576040517f08c379a0000000000000000000000000000000000000000000000000000000008152600401611ea39061410e565b60405180910390fd5b60008060003373ffffffffffffffffffffffffffffffffffffffff1673ffffffffffffffffffffffffffffffffffffffff168152602001908152602001600020600701905060005b818054905081101561214b578273ffffffffffffffffffffffffffffffffffffffff16828281548110611f50577f4e487b7100000000000000000000000000000000000000000000000000000000600052603260045260246000fd5b9060005260206000200160009054906101000a900473ffffffffffffffffffffffffffffffffffffffff1673ffffffffffffffffffffffffffffffffffffffff161415612138578160018380549050611fa991906142c2565b81548110611fe0577f4e487b7100000000000000000000000000000000000000000000000000000000600052603260045260246000fd5b9060005260206000200160009054906101000a900473ffffffffffffffffffffffffffffffffffffffff16828281548110612044577f4e487b7100000000000000000000000000000000000000000000000000000000600052603260045260246000fd5b9060005260206000200160006101000a81548173ffffffffffffffffffffffffffffffffffffffff021916908373ffffffffffffffffffffffffffffffffffffffff160217905550818054806120c3577f4e487b7100000000000000000000000000000000000000000000000000000000600052603160045260246000fd5b6001900381819060005260206000200160006101000a81549073ffffffffffffffffffffffffffffffffffffffff021916905590557f5f708ef9fc37d19d88246c264788c8cdf640c9ff500bd168e941ea1421c4f6c43384604051612129929190613d88565b60405180910390a1505061214e565b8080612143906143a6565b915050611ef4565b50505b50565b6000600260008373ffffffffffffffffffffffffffffffffffffffff1673ffffffffffffffffffffffffffffffffffffffff168152602001908152602001600020805490509050919050565b6000600260008373ffffffffffffffffffffffffffffffffffffffff1673ffffffffffffffffffffffffffffffffffffffff168152602001908152602001600020805490509050919050565b6000600160003373ffffffffffffffffffffffffffffffffffffffff1673ffffffffffffffffffffffffffffffffffffffff168152602001908152602001600020600001805461223890614374565b90501161227a576040517f08c379a0000000000000000000000000000000000000000000000000000000008152600401612271906140ee565b60405180910390fd5b61228261316f565b85816000019073ffffffffffffffffffffffffffffffffffffffff16908173ffffffffffffffffffffffffffffffffffffffff168152505033816020019073ffffffffffffffffffffffffffffffffffffffff16908173ffffffffffffffffffffffffffffffffffffffff1681525050848160600181905250838160800181905250828160a00181905250818160c00181905250428160e0018181525050600360008773ffffffffffffffffffffffffffffffffffffffff1673ffffffffffffffffffffffffffffffffffffffff16815260200190815260200160002081908060018154018082558091505060019003906000526020600020906008020160009091909190915060008201518160000160006101000a81548173ffffffffffffffffffffffffffffffffffffffff021916908373ffffffffffffffffffffffffffffffffffffffff16021790555060208201518160010160006101000a81548173ffffffffffffffffffffffffffffffffffffffff021916908373ffffffffffffffffffffffffffffffffffffffff16021790555060408201518160020190805190602001906124339291906130e9565b5060608201518160030190805190602001906124509291906130e9565b50608082015181600401908051906020019061246d9291906130e9565b5060a082015181600501908051906020019061248a9291906130e9565b5060c08201518160060190805190602001906124a79291906130e9565b5060e0820151816007015550507f626e2abf9092b58c88dd0cb54fff4cc3af1619847ab306cc362286b9d46bef2986336040516124e5929190613d88565b60405180910390a1505050505050565b60606000808373ffffffffffffffffffffffffffffffffffffffff1673ffffffffffffffffffffffffffffffffffffffff1681526020019081526020016000206007018054806020026020016040519081016040528092919081815260200182805480156125b857602002820191906000526020600020905b8160009054906101000a900473ffffffffffffffffffffffffffffffffffffffff1673ffffffffffffffffffffffffffffffffffffffff168152602001906001019080831161256e575b50505050509050919050565b600360205281600052604060002081815481106125e057600080fd5b9060005260206000209060080201600091509150508060000160009054906101000a900473ffffffffffffffffffffffffffffffffffffffff16908060010160009054906101000a900473ffffffffffffffffffffffffffffffffffffffff169080600201805461265090614374565b80601f016020809104026020016040519081016040528092919081815260200182805461267c90614374565b80156126c95780601f1061269e576101008083540402835291602001916126c9565b820191906000526020600020905b8154815290600101906020018083116126ac57829003601f168201915b5050505050908060030180546126de90614374565b80601f016020809104026020016040519081016040528092919081815260200182805461270a90614374565b80156127575780601f1061272c57610100808354040283529160200191612757565b820191906000526020600020905b81548152906001019060200180831161273a57829003601f168201915b50505050509080600401805461276c90614374565b80601f016020809104026020016040519081016040528092919081815260200182805461279890614374565b80156127e55780601f106127ba576101008083540402835291602001916127e5565b820191906000526020600020905b8154815290600101906020018083116127c857829003601f168201915b5050505050908060050180546127fa90614374565b80601f016020809104026020016040519081016040528092919081815260200182805461282690614374565b80156128735780601f1061284857610100808354040283529160200191612873565b820191906000526020600020905b81548152906001019060200180831161285657829003601f168201915b50505050509080600601805461288890614374565b80601f01602080910402602001604051908101604052809291908181526020018280546128b490614374565b80156129015780601f106128d657610100808354040283529160200191612901565b820191906000526020600020905b8154815290600101906020018083116128e457829003601f168201915b5050505050908060070154905088565b600160205280600052604060002060009150905080600001805461293490614374565b80601f016020809104026020016040519081016040528092919081815260200182805461296090614374565b80156129ad5780601f10612982576101008083540402835291602001916129ad565b820191906000526020600020905b81548152906001019060200180831161299057829003601f168201915b5050505050908060010180546129c290614374565b80601f01602080910402602001604051908101604052809291908181526020018280546129ee90614374565b8015612a3b5780601f10612a1057610100808354040283529160200191612a3b565b820191906000526020600020905b815481529060010190602001808311612a1e57829003601f168201915b505050505090806002018054612a5090614374565b80601f0160208091040260200160405190810160405280929190818152602001828054612a7c90614374565b8015612ac95780601f10612a9e57610100808354040283529160200191612ac9565b820191906000526020600020905b815481529060010190602001808311612aac57829003601f168201915b5050505050908060030154905084565b6000600160003373ffffffffffffffffffffffffffffffffffffffff1673ffffffffffffffffffffffffffffffffffffffff1681526020019081526020016000206000018054612b2890614374565b905011612b6a576040517f08c379a0000000000000000000000000000000000000000000000000000000008152600401612b61906140ee565b60405180910390fd5b612b726131e0565b88816000019073ffffffffffffffffffffffffffffffffffffffff16908173ffffffffffffffffffffffffffffffffffffffff168152505033816020019073ffffffffffffffffffffffffffffffffffffffff16908173ffffffffffffffffffffffffffffffffffffffff1681525050878160400181905250868160600181905250858160800181905250848160a00181905250838160c00181905250828160e00181905250818161010001819052504281610120018181525050600260008a73ffffffffffffffffffffffffffffffffffffffff1673ffffffffffffffffffffffffffffffffffffffff1681526020019081526020016000208190806001815401808255809150506001900390600052602060002090600a020160009091909190915060008201518160000160006101000a81548173ffffffffffffffffffffffffffffffffffffffff021916908373ffffffffffffffffffffffffffffffffffffffff16021790555060208201518160010160006101000a81548173ffffffffffffffffffffffffffffffffffffffff021916908373ffffffffffffffffffffffffffffffffffffffff1602179055506040820151816002019080519060200190612d409291906130e9565b506060820151816003019080519060200190612d5d9291906130e9565b506080820151816004019080519060200190612d7a9291906130e9565b5060a0820151816005019080519060200190612d979291906130e9565b5060c0820151816006019080519060200190612db49291906130e9565b5060e0820151816007019080519060200190612dd19291906130e9565b50610100820151816008019080519060200190612def9291906130e9565b50610120820151816009015550507fc7151deb4da24eab96e6b6ebf3dd8737aa991256fe726afc42b62e652564bef08933604051612e2e929190613d88565b60405180910390a1505050505050505050565b600080600090505b6000808573ffffffffffffffffffffffffffffffffffffffff1673ffffffffffffffffffffffffffffffffffffffff16815260200190815260200160002060070180549050811015612f89578273ffffffffffffffffffffffffffffffffffffffff166000808673ffffffffffffffffffffffffffffffffffffffff1673ffffffffffffffffffffffffffffffffffffffff1681526020019081526020016000206007018281548110612f25577f4e487b7100000000000000000000000000000000000000000000000000000000600052603260045260246000fd5b9060005260206000200160009054906101000a900473ffffffffffffffffffffffffffffffffffffffff1673ffffffffffffffffffffffffffffffffffffffff161415612f76576001915050612f8f565b8080612f81906143a6565b915050612e49565b50600090505b92915050565b600080600090505b6000808573ffffffffffffffffffffffffffffffffffffffff1673ffffffffffffffffffffffffffffffffffffffff168152602001908152602001600020600701805490508110156130dd578273ffffffffffffffffffffffffffffffffffffffff166000808673ffffffffffffffffffffffffffffffffffffffff1673ffffffffffffffffffffffffffffffffffffffff1681526020019081526020016000206007018281548110613079577f4e487b7100000000000000000000000000000000000000000000000000000000600052603260045260246000fd5b9060005260206000200160009054906101000a900473ffffffffffffffffffffffffffffffffffffffff1673ffffffffffffffffffffffffffffffffffffffff1614156130ca5760019150506130e3565b80806130d5906143a6565b915050612f9d565b50600090505b92915050565b8280546130f590614374565b90600052602060002090601f016020900481019282613117576000855561315e565b82601f1061313057805160ff191683800117855561315e565b8280016001018555821561315e579182015b8281111561315d578251825591602001919060010190613142565b5b50905061316b919061325f565b5090565b604051806101000160405280600073ffffffffffffffffffffffffffffffffffffffff168152602001600073ffffffffffffffffffffffffffffffffffffffff1681526020016060815260200160608152602001606081526020016060815260200160608152602001600081525090565b604051806101400160405280600073ffffffffffffffffffffffffffffffffffffffff168152602001600073ffffffffffffffffffffffffffffffffffffffff16815260200160608152602001606081526020016060815260200160608152602001606081526020016060815260200160608152602001600081525090565b5b80821115613278576000816000905550600101613260565b5090565b600061328f61328a846141ba565b614189565b9050828152602081018484840111156132a757600080fd5b6132b2848285614332565b509392505050565b6000813590506132c98161448d565b92915050565b600082601f8301126132e057600080fd5b81356132f084826020860161327c565b91505092915050565b600081359050613308816144a4565b92915050565b60006020828403121561332057600080fd5b600061332e848285016132ba565b91505092915050565b600080600080600060a0868803121561334f57600080fd5b600061335d888289016132ba565b955050602086013567ffffffffffffffff81111561337a57600080fd5b613386888289016132cf565b945050604086013567ffffffffffffffff8111156133a357600080fd5b6133af888289016132cf565b935050606086013567ffffffffffffffff8111156133cc57600080fd5b6133d8888289016132cf565b925050608086013567ffffffffffffffff8111156133f557600080fd5b613401888289016132cf565b9150509295509295909350565b600080600080600080600080610100898b03121561342b57600080fd5b60006134398b828c016132ba565b985050602089013567ffffffffffffffff81111561345657600080fd5b6134628b828c016132cf565b975050604089013567ffffffffffffffff81111561347f57600080fd5b61348b8b828c016132cf565b965050606089013567ffffffffffffffff8111156134a857600080fd5b6134b48b828c016132cf565b955050608089013567ffffffffffffffff8111156134d157600080fd5b6134dd8b828c016132cf565b94505060a089013567ffffffffffffffff8111156134fa57600080fd5b6135068b828c016132cf565b93505060c089013567ffffffffffffffff81111561352357600080fd5b61352f8b828c016132cf565b92505060e089013567ffffffffffffffff81111561354c57600080fd5b6135588b828c016132cf565b9150509295985092959890939650565b6000806040838503121561357b57600080fd5b6000613589858286016132ba565b925050602061359a858286016132f9565b9150509250929050565b6000806000606084860312156135b957600080fd5b600084013567ffffffffffffffff8111156135d357600080fd5b6135df868287016132cf565b935050602084013567ffffffffffffffff8111156135fc57600080fd5b613608868287016132cf565b925050604084013567ffffffffffffffff81111561362557600080fd5b613631868287016132cf565b9150509250925092565b600080600080600080600060e0888a03121561365657600080fd5b600088013567ffffffffffffffff81111561367057600080fd5b61367c8a828b016132cf565b975050602088013567ffffffffffffffff81111561369957600080fd5b6136a58a828b016132cf565b965050604088013567ffffffffffffffff8111156136c257600080fd5b6136ce8a828b016132cf565b955050606088013567ffffffffffffffff8111156136eb57600080fd5b6136f78a828b016132cf565b945050608088013567ffffffffffffffff81111561371457600080fd5b6137208a828b016132cf565b93505060a088013567ffffffffffffffff81111561373d57600080fd5b6137498a828b016132cf565b92505060c088013567ffffffffffffffff81111561376657600080fd5b6137728a828b016132cf565b91505092959891949750929550565b600061378d83836137c1565b60208301905092915050565b60006137a58383613b7f565b905092915050565b60006137b98383613c4b565b905092915050565b6137ca816142f6565b82525050565b6137d9816142f6565b82525050565b60006137ea8261421a565b6137f4818561426d565b93506137ff836141ea565b8060005b838110156138305781516138178882613781565b975061382283614246565b925050600181019050613803565b5085935050505092915050565b600061384882614225565b613852818561427e565b935083602082028501613864856141fa565b8060005b858110156138a057848403895281516138818582613799565b945061388c83614253565b925060208a01995050600181019050613868565b50829750879550505050505092915050565b60006138bd82614230565b6138c7818561428f565b9350836020820285016138d98561420a565b8060005b8581101561391557848403895281516138f685826137ad565b945061390183614260565b925060208a019950506001810190506138dd565b50829750879550505050505092915050565b60006139328261423b565b61393c81856142a0565b935061394c818560208601614341565b6139558161447c565b840191505092915050565b600061396b8261423b565b61397581856142b1565b9350613985818560208601614341565b61398e8161447c565b840191505092915050565b60006139a66031836142b1565b91507f486f73706974616c206e6f7420617574686f72697a656420746f20616363657360008301527f732070617469656e74207265636f7264730000000000000000000000000000006020830152604082019050919050565b6000613a0c601a836142b1565b91507f50617469656e7420616c726561647920726567697374657265640000000000006000830152602082019050919050565b6000613a4c6016836142b1565b91507f50617469656e74206e6f742072656769737465726564000000000000000000006000830152602082019050919050565b6000613a8c6017836142b1565b91507f486f73706974616c206e6f7420726567697374657265640000000000000000006000830152602082019050919050565b6000613acc6017836142b1565b91507f486f73706974616c206e6f7420617574686f72697a65640000000000000000006000830152602082019050919050565b6000613b0c601b836142b1565b91507f486f73706974616c20616c7265616479207265676973746572656400000000006000830152602082019050919050565b6000613b4c601b836142b1565b91507f486f73706974616c20616c726561647920617574686f72697a656400000000006000830152602082019050919050565b600061010083016000830151613b9860008601826137c1565b506020830151613bab60208601826137c1565b5060408301518482036040860152613bc38282613927565b91505060608301518482036060860152613bdd8282613927565b91505060808301518482036080860152613bf78282613927565b91505060a083015184820360a0860152613c118282613927565b91505060c083015184820360c0860152613c2b8282613927565b91505060e0830151613c4060e0860182613d4f565b508091505092915050565b600061014083016000830151613c6460008601826137c1565b506020830151613c7760208601826137c1565b5060408301518482036040860152613c8f8282613927565b91505060608301518482036060860152613ca98282613927565b91505060808301518482036080860152613cc38282613927565b91505060a083015184820360a0860152613cdd8282613927565b91505060c083015184820360c0860152613cf78282613927565b91505060e083015184820360e0860152613d118282613927565b915050610100830151848203610100860152613d2d8282613927565b915050610120830151613d44610120860182613d4f565b508091505092915050565b613d5881614328565b82525050565b613d6781614328565b82525050565b6000602082019050613d8260008301846137d0565b92915050565b6000604082019050613d9d60008301856137d0565b613daa60208301846137d0565b9392505050565b600061014082019050613dc7600083018d6137d0565b613dd4602083018c6137d0565b8181036040830152613de6818b613960565b90508181036060830152613dfa818a613960565b90508181036080830152613e0e8189613960565b905081810360a0830152613e228188613960565b905081810360c0830152613e368187613960565b905081810360e0830152613e4a8186613960565b9050818103610100830152613e5f8185613960565b9050613e6f610120830184613d5e565b9b9a5050505050505050505050565b600061010082019050613e94600083018b6137d0565b613ea1602083018a6137d0565b8181036040830152613eb38189613960565b90508181036060830152613ec78188613960565b90508181036080830152613edb8187613960565b905081810360a0830152613eef8186613960565b905081810360c0830152613f038185613960565b9050613f1260e0830184613d5e565b9998505050505050505050565b60006020820190508181036000830152613f3981846137df565b905092915050565b60006020820190508181036000830152613f5b818461383d565b905092915050565b60006020820190508181036000830152613f7d81846138b2565b905092915050565b6000610100820190508181036000830152613fa0818b613960565b90508181036020830152613fb4818a613960565b90508181036040830152613fc88189613960565b90508181036060830152613fdc8188613960565b90508181036080830152613ff08187613960565b905081810360a08301526140048186613960565b905081810360c08301526140188185613960565b905061402760e0830184613d5e565b9998505050505050505050565b6000608082019050818103600083015261404e8187613960565b905081810360208301526140628186613960565b905081810360408301526140768185613960565b90506140856060830184613d5e565b95945050505050565b600060208201905081810360008301526140a781613999565b9050919050565b600060208201905081810360008301526140c7816139ff565b9050919050565b600060208201905081810360008301526140e781613a3f565b9050919050565b6000602082019050818103600083015261410781613a7f565b9050919050565b6000602082019050818103600083015261412781613abf565b9050919050565b6000602082019050818103600083015261414781613aff565b9050919050565b6000602082019050818103600083015261416781613b3f565b9050919050565b60006020820190506141836000830184613d5e565b92915050565b6000604051905081810181811067ffffffffffffffff821117156141b0576141af61444d565b5b8060405250919050565b600067ffffffffffffffff8211156141d5576141d461444d565b5b601f19601f8301169050602081019050919050565b6000819050602082019050919050565b6000819050602082019050919050565b6000819050602082019050919050565b600081519050919050565b600081519050919050565b600081519050919050565b600081519050919050565b6000602082019050919050565b6000602082019050919050565b6000602082019050919050565b600082825260208201905092915050565b600082825260208201905092915050565b600082825260208201905092915050565b600082825260208201905092915050565b600082825260208201905092915050565b60006142cd82614328565b91506142d883614328565b9250828210156142eb576142ea6143ef565b5b828203905092915050565b600061430182614308565b9050919050565b600073ffffffffffffffffffffffffffffffffffffffff82169050919050565b6000819050919050565b82818337600083830152505050565b60005b8381101561435f578082015181840152602081019050614344565b8381111561436e576000848401525b50505050565b6000600282049050600182168061438c57607f821691505b602082108114156143a05761439f61441e565b5b50919050565b60006143b182614328565b91507fffffffffffffffffffffffffffffffffffffffffffffffffffffffffffffffff8214156143e4576143e36143ef565b5b600182019050919050565b7f4e487b7100000000000000000000000000000000000000000000000000000000600052601160045260246000fd5b7f4e487b7100000000000000000000000000000000000000000000000000000000600052602260045260246000fd5b7f4e487b7100000000000000000000000000000000000000000000000000000000600052604160045260246000fd5b6000601f19601f8301169050919050565b614496816142f6565b81146144a157600080fd5b50565b6144ad81614328565b81146144b857600080fd5b5056fea2646970667358221220222e01b6d6f21acccef7a33c76ecbeed7172dd72f8f337e019f046acf6d6ac9b64736f6c63430008000033",
  "immutableReferences": {},
  "source": "// SPDX-License-Identifier: MIT\r\npragma solidity ^0.8.0;\r\n\r\n//Note kapag ginawa na ang backend. If halo halong characters ang isa-save, dapat may \" \"\r\n//bago ilagay sa function ng smart contract\r\n\r\ncontract MediVerse {\r\n    \r\n    struct Patient {\r\n        string name;\r\n        string gender;\r\n        string dateOfBirth;\r\n        string height;\r\n        string weight;\r\n        string contactNum;\r\n        string addr;\r\n        address[] authorizedHospitals;\r\n        uint registrationDate;\r\n    }\r\n\r\n    struct Hospital {\r\n        string name;\r\n        string contactNum;\r\n        string addr;\r\n        uint registrationDate;\r\n    }\r\n\r\n    struct MedicalHistory {\r\n        address patientAddr;\r\n        address hospitalAddr;\r\n        string physician;\r\n        string diagnosis;\r\n        string signsAndSymptoms;\r\n        string treatmentProcedure;\r\n        string tests;\r\n        string medications;\r\n        string admission;\r\n        uint creationDate;\r\n    }\r\n\r\n    struct GeneralHealthProfile {\r\n        address patientAddr;\r\n        address hospitalAddr;\r\n        string physicalExamination;\r\n        string medicalHistorySummary;\r\n        string maintenanceMedication;\r\n        string allergies;\r\n        string medicalProcedureSummary;\r\n        uint creationDate;\r\n    }\r\n\r\n    mapping(address => Patient) public patients;\r\n    mapping(address => Hospital) public hospitals;\r\n    mapping(address => MedicalHistory[]) public medicalHistories;\r\n    mapping(address => GeneralHealthProfile[]) public generalHealthProfiles;\r\n\r\n    event PatientRegistered(address patientAddr);\r\n    event HospitalRegistered(address hospitalAddr);\r\n    event MedicalHistoryAdded(address patientAddr, address hospitalAddr);\r\n    event GeneralHealthProfileAdded(address patientAddr, address hospitalAddr);\r\n    event PermissionGranted(address patientAddr, address hospitalAddr);\r\n    event PermissionRevoked(address patientAddr, address hospitalAddr);\r\n\r\n    modifier onlyPatient() {\r\n        require(bytes(patients[msg.sender].name).length > 0, \"Patient not registered\");\r\n        _;\r\n    }\r\n\r\n    modifier onlyHospital() {\r\n        require(bytes(hospitals[msg.sender].name).length > 0, \"Hospital not registered\");\r\n        _;\r\n    }\r\n\r\n    modifier isAuthorized(address _patientAddr) {\r\n        require(\r\n            isPatientAuthorized(_patientAddr, msg.sender),\r\n            \"Hospital not authorized to access patient records\"\r\n        );\r\n        _;\r\n    }\r\n\r\n    function isPatientAuthorized(address _patientAddr, address _hospitalAddr) internal view returns (bool) {\r\n        for (uint i = 0; i < patients[_patientAddr].authorizedHospitals.length; i++) {\r\n            if (patients[_patientAddr].authorizedHospitals[i] == _hospitalAddr) {\r\n                return true;\r\n            }\r\n        }\r\n        return false;\r\n    }\r\n\r\n    function registerPatient(\r\n        string memory _name,\r\n        string memory _contactNum,\r\n        string memory _gender,\r\n        string memory _dateOfBirth,\r\n        string memory _height,\r\n        string memory _weight,\r\n        string memory _address\r\n    ) public {\r\n        require(bytes(patients[msg.sender].name).length == 0, \"Patient already registered\");\r\n\r\n        Patient storage patient = patients[msg.sender];\r\n        patient.name = _name;\r\n        patient.contactNum = _contactNum;\r\n        patient.gender = _gender;\r\n        patient.dateOfBirth = _dateOfBirth;\r\n        patient.height = _height;\r\n        patient.weight = _weight;\r\n        patient.addr = _address;\r\n\r\n        patient.registrationDate = block.timestamp;\r\n\r\n        emit PatientRegistered(msg.sender);\r\n    }\r\n\r\n    function editPatientDetails(\r\n        string memory _name,\r\n        string memory _contactNum,\r\n        string memory _gender,\r\n        string memory _dateOfBirth,\r\n        string memory _height,\r\n        string memory _weight,\r\n        string memory _address\r\n    ) public onlyPatient {\r\n        Patient storage patient = patients[msg.sender];\r\n        patient.name = _name;\r\n        patient.contactNum = _contactNum;\r\n        patient.gender = _gender;\r\n        patient.dateOfBirth = _dateOfBirth;\r\n        patient.height = _height;\r\n        patient.weight = _weight;\r\n        patient.addr = _address;\r\n    }\r\n\r\n    function registerHospital(\r\n        string memory _name,\r\n        string memory _contactNum,\r\n        string memory _address\r\n    ) public {\r\n        require(bytes(hospitals[msg.sender].name).length == 0, \"Hospital already registered\");\r\n\r\n        Hospital storage hospital = hospitals[msg.sender];\r\n        hospital.name = _name;\r\n        hospital.contactNum = _contactNum;\r\n        hospital.addr = _address;\r\n        hospital.registrationDate = block.timestamp;\r\n\r\n        emit HospitalRegistered(msg.sender);\r\n    }\r\n\r\n    function editHospitalDetails(\r\n        string memory _name,\r\n        string memory _contactNum,\r\n        string memory _addr\r\n    ) public onlyHospital {\r\n        Hospital storage hospital = hospitals[msg.sender];\r\n        hospital.name = _name;\r\n        hospital.contactNum = _contactNum;\r\n        hospital.addr = _addr;\r\n    }\r\n\r\n    function addMedicalHistory(\r\n        address _patientAddr,\r\n        string memory _physician,\r\n        string memory _diagnosis,\r\n        string memory _signsAndSymptoms,\r\n        string memory _treatmentProcedure,\r\n        string memory _tests,\r\n        string memory _medications,\r\n        string memory _admission\r\n    ) public onlyHospital {\r\n        MedicalHistory memory history;\r\n        history.patientAddr = _patientAddr;\r\n        history.hospitalAddr = msg.sender;\r\n        history.physician = _physician;\r\n        history.diagnosis = _diagnosis;\r\n        history.signsAndSymptoms = _signsAndSymptoms;\r\n        history.treatmentProcedure = _treatmentProcedure;\r\n        history.tests = _tests;\r\n        history.medications = _medications;\r\n        history.admission = _admission;\r\n        history.creationDate = block.timestamp;\r\n\r\n        medicalHistories[_patientAddr].push(history);\r\n\r\n        emit MedicalHistoryAdded(_patientAddr, msg.sender);\r\n    }\r\n\r\n    function addGeneralHealthProfile(\r\n        address _patientAddr,\r\n        string memory _medicalHistorySummary,\r\n        string memory _maintenanceMedication,\r\n        string memory _allergies,\r\n        string memory _medicalProcedureSummary\r\n    ) public onlyHospital {\r\n        GeneralHealthProfile memory profile;\r\n        profile.patientAddr = _patientAddr;\r\n        profile.hospitalAddr = msg.sender;\r\n        profile.medicalHistorySummary = _medicalHistorySummary;\r\n        profile.maintenanceMedication = _maintenanceMedication;\r\n        profile.allergies = _allergies;\r\n        profile.medicalProcedureSummary = _medicalProcedureSummary;\r\n        profile.creationDate = block.timestamp;\r\n\r\n        generalHealthProfiles[_patientAddr].push(profile);\r\n        emit GeneralHealthProfileAdded(_patientAddr, msg.sender);\r\n    }\r\n\r\n    modifier isHospitalAuthorizedToAccess(address _patientAddr) {\r\n        require(\r\n            isHospitalAuthorized(_patientAddr, msg.sender),\r\n            \"Hospital not authorized to access patient records\"\r\n        );\r\n        _;\r\n    }\r\n\r\n    function isHospitalAuthorized(address _patientAddr, address _hospitalAddr) internal view returns (bool) {\r\n        for (uint i = 0; i < patients[_patientAddr].authorizedHospitals.length; i++) {\r\n            if (patients[_patientAddr].authorizedHospitals[i] == _hospitalAddr) {\r\n                return true;\r\n            }\r\n        }\r\n        return false;\r\n    }\r\n\r\n    /** FUNCTION THAT WILL RETRIEVE PATIENTS MEDICAL RECORD AND PROFILE **/\r\n    function getMedicalHistory(address _patientAddr) public view isHospitalAuthorizedToAccess(_patientAddr) returns (MedicalHistory[] memory) {\r\n        return medicalHistories[_patientAddr];\r\n    }\r\n\r\n    function getGeneralProfile(address _patientAddr) public view isHospitalAuthorizedToAccess(_patientAddr) returns (GeneralHealthProfile[] memory) {\r\n        return generalHealthProfiles[_patientAddr];\r\n    }\r\n\r\n    function givePermission(address _hospitalAddr) public onlyPatient {\r\n        require(!isPatientAuthorized(msg.sender, _hospitalAddr), \"Hospital already authorized\");\r\n\r\n        patients[msg.sender].authorizedHospitals.push(_hospitalAddr);\r\n        emit PermissionGranted(msg.sender, _hospitalAddr);\r\n    }\r\n\r\n    function revokePermission(address _hospitalAddr) public onlyPatient {\r\n        require(isPatientAuthorized(msg.sender, _hospitalAddr), \"Hospital not authorized\");\r\n\r\n        address[] storage authorizedHospitals = patients[msg.sender].authorizedHospitals;\r\n        for (uint i = 0; i < authorizedHospitals.length; i++) {\r\n            if (authorizedHospitals[i] == _hospitalAddr) {\r\n                authorizedHospitals[i] = authorizedHospitals[authorizedHospitals.length - 1];\r\n                authorizedHospitals.pop();\r\n                emit PermissionRevoked(msg.sender, _hospitalAddr);\r\n                return;\r\n            }\r\n        }\r\n    }\r\n    /** FUNCTION THAT WILL GET THE LIST OF AUTHORIZED HOSPITALS TO VIEW PATIENTS MEDICAL RECORDS **/\r\n    function getAuthorizedHospitals(address _patientAddr) public view returns (address[] memory) {\r\n        return patients[_patientAddr].authorizedHospitals;\r\n    }\r\n\r\n     function getMedicalHistoryCount(address _patientAddr) public view returns (uint256) {\r\n        return medicalHistories[_patientAddr].length;\r\n    }\r\n\r\n    function getGeneralProfileCount(address _patientAddr) public view returns (uint256) {\r\n        return medicalHistories[_patientAddr].length;\r\n    }\r\n}\r\n",
  "sourcePath": "C:\\Users\\Abby\\Desktop\\APPCON 2023\\MediVerse-Web3-Dapp\\contracts\\MediVerse.sol",
  "compiler": {
    "name": "solc",
    "version": "0.8.0+commit.c7dfd78e.Emscripten.clang"
  },
  "schemaVersion": "3.4.16",
  "updatedAt": "2024-02-27T15:21:01.882Z",
  "networkType": "ethereum",
  "devdoc": {
    "kind": "dev",
    "methods": {},
    "version": 1
  },
  "userdoc": {
    "kind": "user",
    "methods": {
      "getAuthorizedHospitals(address)": {
        "notice": "FUNCTION THAT WILL GET THE LIST OF AUTHORIZED HOSPITALS TO VIEW PATIENTS MEDICAL RECORDS *"
      },
      "getMedicalHistory(address)": {
        "notice": "FUNCTION THAT WILL RETRIEVE PATIENTS MEDICAL RECORD AND PROFILE *"
      }
    },
    "version": 1
  }
}