{
  "contractName": "PatientRecords",
  "abi": [
    {
      "inputs": [
        {
          "internalType": "address",
          "name": "",
          "type": "address"
        }
      ],
      "name": "isPatient",
      "outputs": [
        {
          "internalType": "bool",
          "name": "",
          "type": "bool"
        }
      ],
      "stateMutability": "view",
      "type": "function",
      "constant": true
    },
    {
      "inputs": [],
      "name": "patientCount",
      "outputs": [
        {
          "internalType": "uint256",
          "name": "",
          "type": "uint256"
        }
      ],
      "stateMutability": "view",
      "type": "function",
      "constant": true
    },
    {
      "inputs": [
        {
          "internalType": "string",
          "name": "",
          "type": "string"
        }
      ],
      "name": "patientIDToAddress",
      "outputs": [
        {
          "internalType": "address",
          "name": "",
          "type": "address"
        }
      ],
      "stateMutability": "view",
      "type": "function",
      "constant": true
    },
    {
      "inputs": [
        {
          "internalType": "uint256",
          "name": "",
          "type": "uint256"
        }
      ],
      "name": "patientList",
      "outputs": [
        {
          "internalType": "address",
          "name": "",
          "type": "address"
        }
      ],
      "stateMutability": "view",
      "type": "function",
      "constant": true
    },
    {
      "inputs": [
        {
          "internalType": "address",
          "name": "",
          "type": "address"
        }
      ],
      "name": "patients",
      "outputs": [
        {
          "internalType": "string",
          "name": "patientID",
          "type": "string"
        },
        {
          "internalType": "string",
          "name": "name",
          "type": "string"
        },
        {
          "internalType": "string",
          "name": "phone",
          "type": "string"
        },
        {
          "internalType": "string",
          "name": "gender",
          "type": "string"
        },
        {
          "internalType": "string",
          "name": "age",
          "type": "string"
        },
        {
          "internalType": "string",
          "name": "dateOfBirth",
          "type": "string"
        },
        {
          "internalType": "string",
          "name": "height",
          "type": "string"
        },
        {
          "internalType": "string",
          "name": "weight",
          "type": "string"
        },
        {
          "internalType": "string",
          "name": "houseAddress",
          "type": "string"
        },
        {
          "internalType": "address",
          "name": "addr",
          "type": "address"
        },
        {
          "internalType": "uint256",
          "name": "date",
          "type": "uint256"
        }
      ],
      "stateMutability": "view",
      "type": "function",
      "constant": true
    },
    {
      "inputs": [
        {
          "internalType": "string",
          "name": "_patientID",
          "type": "string"
        },
        {
          "internalType": "string",
          "name": "_name",
          "type": "string"
        },
        {
          "internalType": "string",
          "name": "_phone",
          "type": "string"
        },
        {
          "internalType": "string",
          "name": "_gender",
          "type": "string"
        },
        {
          "internalType": "string",
          "name": "_age",
          "type": "string"
        },
        {
          "internalType": "string",
          "name": "_dateOfBirth",
          "type": "string"
        },
        {
          "internalType": "string",
          "name": "_height",
          "type": "string"
        },
        {
          "internalType": "string",
          "name": "_weight",
          "type": "string"
        },
        {
          "internalType": "string",
          "name": "_houseAddress",
          "type": "string"
        }
      ],
      "name": "registerPatient",
      "outputs": [],
      "stateMutability": "nonpayable",
      "type": "function"
    },
    {
      "inputs": [
        {
          "internalType": "string",
          "name": "_name",
          "type": "string"
        },
        {
          "internalType": "string",
          "name": "_phone",
          "type": "string"
        },
        {
          "internalType": "string",
          "name": "_dateOfBirth",
          "type": "string"
        },
        {
          "internalType": "string",
          "name": "_height",
          "type": "string"
        },
        {
          "internalType": "string",
          "name": "_weight",
          "type": "string"
        },
        {
          "internalType": "string",
          "name": "_houseAddress",
          "type": "string"
        }
      ],
      "name": "editPatientProfile",
      "outputs": [],
      "stateMutability": "nonpayable",
      "type": "function"
    }
  ],
  "bytecode": "0x6080604052600060045534801561001557600080fd5b5061155a806100256000396000f3fe608060405234801561001057600080fd5b506004361061007d5760003560e01c8063a0303c411161005b578063a0303c4114610108578063babb1d4114610126578063f3ad364e14610156578063f9c2caa5146101865761007d565b80630869cfbc146100825780637c7bf2fa146100bc5780638f9c79ed146100d8575b600080fd5b61009c60048036038101906100979190610d38565b6101a2565b6040516100b39b9a999897969594939291906111a6565b60405180910390f35b6100d660048036038101906100d19190610da2565b6106e4565b005b6100f260048036038101906100ed9190610d38565b61081c565b6040516100ff919061118b565b60405180910390f35b61011061083c565b60405161011d91906112b0565b60405180910390f35b610140600480360381019061013b9190611059565b610842565b60405161014d9190611170565b60405180910390f35b610170600480360381019061016b9190610d61565b610881565b60405161017d9190611170565b60405180910390f35b6101a0600480360381019061019b9190610ebb565b6108ca565b005b60016020528060005260406000206000915090508060000180546101c5906113dd565b80601f01602080910402602001604051908101604052809291908181526020018280546101f1906113dd565b801561023e5780601f106102135761010080835404028352916020019161023e565b820191906000526020600020905b81548152906001019060200180831161022157829003601f168201915b505050505090806001018054610253906113dd565b80601f016020809104026020016040519081016040528092919081815260200182805461027f906113dd565b80156102cc5780601f106102a1576101008083540402835291602001916102cc565b820191906000526020600020905b8154815290600101906020018083116102af57829003601f168201915b5050505050908060020180546102e1906113dd565b80601f016020809104026020016040519081016040528092919081815260200182805461030d906113dd565b801561035a5780601f1061032f5761010080835404028352916020019161035a565b820191906000526020600020905b81548152906001019060200180831161033d57829003601f168201915b50505050509080600301805461036f906113dd565b80601f016020809104026020016040519081016040528092919081815260200182805461039b906113dd565b80156103e85780601f106103bd576101008083540402835291602001916103e8565b820191906000526020600020905b8154815290600101906020018083116103cb57829003601f168201915b5050505050908060040180546103fd906113dd565b80601f0160208091040260200160405190810160405280929190818152602001828054610429906113dd565b80156104765780601f1061044b57610100808354040283529160200191610476565b820191906000526020600020905b81548152906001019060200180831161045957829003601f168201915b50505050509080600501805461048b906113dd565b80601f01602080910402602001604051908101604052809291908181526020018280546104b7906113dd565b80156105045780601f106104d957610100808354040283529160200191610504565b820191906000526020600020905b8154815290600101906020018083116104e757829003601f168201915b505050505090806006018054610519906113dd565b80601f0160208091040260200160405190810160405280929190818152602001828054610545906113dd565b80156105925780601f1061056757610100808354040283529160200191610592565b820191906000526020600020905b81548152906001019060200180831161057557829003601f168201915b5050505050908060070180546105a7906113dd565b80601f01602080910402602001604051908101604052809291908181526020018280546105d3906113dd565b80156106205780601f106105f557610100808354040283529160200191610620565b820191906000526020600020905b81548152906001019060200180831161060357829003601f168201915b505050505090806008018054610635906113dd565b80601f0160208091040260200160405190810160405280929190818152602001828054610661906113dd565b80156106ae5780601f10610683576101008083540402835291602001916106ae565b820191906000526020600020905b81548152906001019060200180831161069157829003601f168201915b5050505050908060090160009054906101000a900473ffffffffffffffffffffffffffffffffffffffff169080600a015490508b565b600360003373ffffffffffffffffffffffffffffffffffffffff1673ffffffffffffffffffffffffffffffffffffffff16815260200190815260200160002060009054906101000a900460ff1661073a57600080fd5b6000600160003373ffffffffffffffffffffffffffffffffffffffff1673ffffffffffffffffffffffffffffffffffffffff168152602001908152602001600020905086816001019080519060200190610795929190610c03565b50858160020190805190602001906107ae929190610c03565b50848160050190805190602001906107c7929190610c03565b50838160060190805190602001906107e0929190610c03565b50828160070190805190602001906107f9929190610c03565b5081816008019080519060200190610812929190610c03565b5050505050505050565b60036020528060005260406000206000915054906101000a900460ff1681565b60045481565b6000818154811061085257600080fd5b906000526020600020016000915054906101000a900473ffffffffffffffffffffffffffffffffffffffff1681565b6002818051602081018201805184825260208301602085012081835280955050505050506000915054906101000a900473ffffffffffffffffffffffffffffffffffffffff1681565b600360003373ffffffffffffffffffffffffffffffffffffffff1673ffffffffffffffffffffffffffffffffffffffff16815260200190815260200160002060009054906101000a900460ff1615610957576040517f08c379a000000000000000000000000000000000000000000000000000000000815260040161094e90611290565b60405180910390fd5b6000600160003373ffffffffffffffffffffffffffffffffffffffff1673ffffffffffffffffffffffffffffffffffffffff1681526020019081526020016000209050898160000190805190602001906109b2929190610c03565b50888160010190805190602001906109cb929190610c03565b50878160020190805190602001906109e4929190610c03565b50858160040190805190602001906109fd929190610c03565b5086816003019080519060200190610a16929190610c03565b5084816005019080519060200190610a2f929190610c03565b5083816006019080519060200190610a48929190610c03565b5082816007019080519060200190610a61929190610c03565b5081816008019080519060200190610a7a929190610c03565b50338160090160006101000a81548173ffffffffffffffffffffffffffffffffffffffff021916908373ffffffffffffffffffffffffffffffffffffffff1602179055504281600a01819055506000339080600181540180825580915050600190039060005260206000200160009091909190916101000a81548173ffffffffffffffffffffffffffffffffffffffff021916908373ffffffffffffffffffffffffffffffffffffffff1602179055506001600360003373ffffffffffffffffffffffffffffffffffffffff1673ffffffffffffffffffffffffffffffffffffffff16815260200190815260200160002060006101000a81548160ff0219169083151502179055503360028b604051610b939190611159565b908152602001604051809103902060006101000a81548173ffffffffffffffffffffffffffffffffffffffff021916908373ffffffffffffffffffffffffffffffffffffffff16021790555060046000815480929190610bf29061140f565b919050555050505050505050505050565b828054610c0f906113dd565b90600052602060002090601f016020900481019282610c315760008555610c78565b82601f10610c4a57805160ff1916838001178555610c78565b82800160010185558215610c78579182015b82811115610c77578251825591602001919060010190610c5c565b5b509050610c859190610c89565b5090565b5b80821115610ca2576000816000905550600101610c8a565b5090565b6000610cb9610cb4846112fc565b6112cb565b905082815260208101848484011115610cd157600080fd5b610cdc84828561139b565b509392505050565b600081359050610cf3816114f6565b92915050565b600082601f830112610d0a57600080fd5b8135610d1a848260208601610ca6565b91505092915050565b600081359050610d328161150d565b92915050565b600060208284031215610d4a57600080fd5b6000610d5884828501610ce4565b91505092915050565b600060208284031215610d7357600080fd5b600082013567ffffffffffffffff811115610d8d57600080fd5b610d9984828501610cf9565b91505092915050565b60008060008060008060c08789031215610dbb57600080fd5b600087013567ffffffffffffffff811115610dd557600080fd5b610de189828a01610cf9565b965050602087013567ffffffffffffffff811115610dfe57600080fd5b610e0a89828a01610cf9565b955050604087013567ffffffffffffffff811115610e2757600080fd5b610e3389828a01610cf9565b945050606087013567ffffffffffffffff811115610e5057600080fd5b610e5c89828a01610cf9565b935050608087013567ffffffffffffffff811115610e7957600080fd5b610e8589828a01610cf9565b92505060a087013567ffffffffffffffff811115610ea257600080fd5b610eae89828a01610cf9565b9150509295509295509295565b60008060008060008060008060006101208a8c031215610eda57600080fd5b60008a013567ffffffffffffffff811115610ef457600080fd5b610f008c828d01610cf9565b99505060208a013567ffffffffffffffff811115610f1d57600080fd5b610f298c828d01610cf9565b98505060408a013567ffffffffffffffff811115610f4657600080fd5b610f528c828d01610cf9565b97505060608a013567ffffffffffffffff811115610f6f57600080fd5b610f7b8c828d01610cf9565b96505060808a013567ffffffffffffffff811115610f9857600080fd5b610fa48c828d01610cf9565b95505060a08a013567ffffffffffffffff811115610fc157600080fd5b610fcd8c828d01610cf9565b94505060c08a013567ffffffffffffffff811115610fea57600080fd5b610ff68c828d01610cf9565b93505060e08a013567ffffffffffffffff81111561101357600080fd5b61101f8c828d01610cf9565b9250506101008a013567ffffffffffffffff81111561103d57600080fd5b6110498c828d01610cf9565b9150509295985092959850929598565b60006020828403121561106b57600080fd5b600061107984828501610d23565b91505092915050565b61108b81611353565b82525050565b61109a81611365565b82525050565b60006110ab8261132c565b6110b58185611337565b93506110c58185602086016113aa565b6110ce816114e5565b840191505092915050565b60006110e48261132c565b6110ee8185611348565b93506110fe8185602086016113aa565b80840191505092915050565b6000611117601a83611337565b91507f50617469656e7420616c726561647920726567697374657265640000000000006000830152602082019050919050565b61115381611391565b82525050565b600061116582846110d9565b915081905092915050565b60006020820190506111856000830184611082565b92915050565b60006020820190506111a06000830184611091565b92915050565b60006101608201905081810360008301526111c1818e6110a0565b905081810360208301526111d5818d6110a0565b905081810360408301526111e9818c6110a0565b905081810360608301526111fd818b6110a0565b90508181036080830152611211818a6110a0565b905081810360a083015261122581896110a0565b905081810360c083015261123981886110a0565b905081810360e083015261124d81876110a0565b905081810361010083015261126281866110a0565b9050611272610120830185611082565b61128061014083018461114a565b9c9b505050505050505050505050565b600060208201905081810360008301526112a98161110a565b9050919050565b60006020820190506112c5600083018461114a565b92915050565b6000604051905081810181811067ffffffffffffffff821117156112f2576112f16114b6565b5b8060405250919050565b600067ffffffffffffffff821115611317576113166114b6565b5b601f19601f8301169050602081019050919050565b600081519050919050565b600082825260208201905092915050565b600081905092915050565b600061135e82611371565b9050919050565b60008115159050919050565b600073ffffffffffffffffffffffffffffffffffffffff82169050919050565b6000819050919050565b82818337600083830152505050565b60005b838110156113c85780820151818401526020810190506113ad565b838111156113d7576000848401525b50505050565b600060028204905060018216806113f557607f821691505b6020821081141561140957611408611487565b5b50919050565b600061141a82611391565b91507fffffffffffffffffffffffffffffffffffffffffffffffffffffffffffffffff82141561144d5761144c611458565b5b600182019050919050565b7f4e487b7100000000000000000000000000000000000000000000000000000000600052601160045260246000fd5b7f4e487b7100000000000000000000000000000000000000000000000000000000600052602260045260246000fd5b7f4e487b7100000000000000000000000000000000000000000000000000000000600052604160045260246000fd5b6000601f19601f8301169050919050565b6114ff81611353565b811461150a57600080fd5b50565b61151681611391565b811461152157600080fd5b5056fea26469706673582212204db94259263132a943ab0b2e1a7516cb075588ae840fc2d8838135300457b5b364736f6c63430008000033",
  "immutableReferences": {},
  "source": "// SPDX-License-Identifier: MIT\r\npragma solidity ^0.8.0;\r\n\r\ncontract PatientRecords {\r\n\r\n    struct Patient {\r\n        string patientID;\r\n        string name;\r\n        string phone;\r\n        string gender;\r\n        string age;\r\n        string dateOfBirth;\r\n        string height;\r\n        string weight;\r\n        string houseAddress;\r\n        address addr;\r\n        uint date;\r\n    }\r\n\r\n    address[] public patientList; // Dynamic array to store the addresses of registered patients\r\n    mapping(address => Patient) public patients; // Mapping to associate addresses with structs\r\n    mapping(string => address) public patientIDToAddress; //ico-connect ang patientID sa eth address\r\n    mapping(address => bool) public isPatient; // Tracks whether a specific Ethereum address is registered\r\n    uint256 public patientCount = 0;\r\n\r\n    function registerPatient(\r\n        string memory _patientID,\r\n        string memory _name,\r\n        string memory _phone,\r\n        string memory _gender,\r\n        string memory _age,\r\n        string memory _dateOfBirth,\r\n        string memory _height,\r\n        string memory _weight,\r\n        string memory _houseAddress\r\n    ) public {\r\n        require(!isPatient[msg.sender], \"Patient already registered\");\r\n\r\n        Patient storage p = patients[msg.sender];  \r\n        \r\n        p.patientID = _patientID;\r\n        p.name = _name;\r\n        p.phone = _phone;\r\n        p.age = _age;\r\n        p.gender = _gender;\r\n        p.dateOfBirth = _dateOfBirth;\r\n        p.height = _height;\r\n        p.weight = _weight;\r\n        p.houseAddress = _houseAddress;\r\n        p.addr = msg.sender;\r\n        p.date = block.timestamp;\r\n\r\n        patientList.push(msg.sender);\r\n        isPatient[msg.sender] = true;\r\n        // Store the mapping\r\n        patientIDToAddress[_patientID] = msg.sender;\r\n        patientCount++;\r\n    }\r\n\r\n    function editPatientProfile(\r\n        string memory _name,\r\n        string memory _phone,\r\n        string memory _dateOfBirth,\r\n        string memory _height,\r\n        string memory _weight,\r\n        string memory _houseAddress\r\n    ) public {\r\n        require(isPatient[msg.sender]);\r\n        Patient storage p = patients[msg.sender];\r\n        \r\n        p.name = _name;\r\n        p.phone = _phone;\r\n        p.dateOfBirth = _dateOfBirth;\r\n        p.height = _height;\r\n        p.weight = _weight;\r\n        p.houseAddress = _houseAddress;\r\n    }\r\n}",
  "sourcePath": "C:\\Users\\Abby\\Desktop\\APPCON 2023\\MediVerse-Web3-Dapp\\contracts\\Patient.sol",
  "compiler": {
    "name": "solc",
    "version": "0.8.0+commit.c7dfd78e.Emscripten.clang"
  },
  "schemaVersion": "3.4.16",
  "updatedAt": "2024-02-18T11:11:46.809Z",
  "networkType": "ethereum",
  "devdoc": {
    "kind": "dev",
    "methods": {},
    "version": 1
  },
  "userdoc": {
    "kind": "user",
    "methods": {},
    "version": 1
  }
}