{
  "contractName": "PatientRecords",
  "abi": [
    {
      "inputs": [
        {
          "internalType": "address",
          "name": "",
          "type": "address"
        }
      ],
      "name": "isPatient",
      "outputs": [
        {
          "internalType": "bool",
          "name": "",
          "type": "bool"
        }
      ],
      "stateMutability": "view",
      "type": "function",
      "constant": true
    },
    {
      "inputs": [],
      "name": "patientCount",
      "outputs": [
        {
          "internalType": "uint256",
          "name": "",
          "type": "uint256"
        }
      ],
      "stateMutability": "view",
      "type": "function",
      "constant": true
    },
    {
      "inputs": [
        {
          "internalType": "uint256",
          "name": "",
          "type": "uint256"
        }
      ],
      "name": "patientList",
      "outputs": [
        {
          "internalType": "address",
          "name": "",
          "type": "address"
        }
      ],
      "stateMutability": "view",
      "type": "function",
      "constant": true
    },
    {
      "inputs": [
        {
          "internalType": "address",
          "name": "",
          "type": "address"
        }
      ],
      "name": "patients",
      "outputs": [
        {
          "internalType": "string",
          "name": "name",
          "type": "string"
        },
        {
          "internalType": "string",
          "name": "phone",
          "type": "string"
        },
        {
          "internalType": "string",
          "name": "gender",
          "type": "string"
        },
        {
          "internalType": "string",
          "name": "age",
          "type": "string"
        },
        {
          "internalType": "string",
          "name": "dateOfBirth",
          "type": "string"
        },
        {
          "internalType": "string",
          "name": "height",
          "type": "string"
        },
        {
          "internalType": "string",
          "name": "weight",
          "type": "string"
        },
        {
          "internalType": "string",
          "name": "houseAddress",
          "type": "string"
        },
        {
          "internalType": "address",
          "name": "addr",
          "type": "address"
        },
        {
          "internalType": "uint256",
          "name": "date",
          "type": "uint256"
        }
      ],
      "stateMutability": "view",
      "type": "function",
      "constant": true
    },
    {
      "inputs": [
        {
          "internalType": "string",
          "name": "_name",
          "type": "string"
        },
        {
          "internalType": "string",
          "name": "_phone",
          "type": "string"
        },
        {
          "internalType": "string",
          "name": "_gender",
          "type": "string"
        },
        {
          "internalType": "string",
          "name": "_age",
          "type": "string"
        },
        {
          "internalType": "string",
          "name": "_dateOfBirth",
          "type": "string"
        },
        {
          "internalType": "string",
          "name": "_height",
          "type": "string"
        },
        {
          "internalType": "string",
          "name": "_weight",
          "type": "string"
        },
        {
          "internalType": "string",
          "name": "_houseAddress",
          "type": "string"
        }
      ],
      "name": "registerPatient",
      "outputs": [],
      "stateMutability": "nonpayable",
      "type": "function"
    },
    {
      "inputs": [
        {
          "internalType": "string",
          "name": "_name",
          "type": "string"
        },
        {
          "internalType": "string",
          "name": "_phone",
          "type": "string"
        },
        {
          "internalType": "string",
          "name": "_dateOfBirth",
          "type": "string"
        },
        {
          "internalType": "string",
          "name": "_height",
          "type": "string"
        },
        {
          "internalType": "string",
          "name": "_weight",
          "type": "string"
        },
        {
          "internalType": "string",
          "name": "_houseAddress",
          "type": "string"
        }
      ],
      "name": "editPatientProfile",
      "outputs": [],
      "stateMutability": "nonpayable",
      "type": "function"
    }
  ],
  "bytecode": "0x6080604052600060035534801561001557600080fd5b506112ea806100256000396000f3fe608060405234801561001057600080fd5b50600436106100625760003560e01c80630869cfbc1461006757806329cf54a3146100a05780637c7bf2fa146100bc5780638f9c79ed146100d8578063a0303c4114610108578063babb1d4114610126575b600080fd5b610081600480360381019061007c9190610b9e565b610156565b6040516100979a99989796959493929190610f57565b60405180910390f35b6100ba60048036038101906100b59190610ce0565b61060a565b005b6100d660048036038101906100d19190610bc7565b6108cc565b005b6100f260048036038101906100ed9190610b9e565b610a04565b6040516100ff9190610f3c565b60405180910390f35b610110610a24565b60405161011d919061104b565b60405180910390f35b610140600480360381019061013b9190610e52565b610a2a565b60405161014d9190610f21565b60405180910390f35b60016020528060005260406000206000915090508060000180546101799061116d565b80601f01602080910402602001604051908101604052809291908181526020018280546101a59061116d565b80156101f25780601f106101c7576101008083540402835291602001916101f2565b820191906000526020600020905b8154815290600101906020018083116101d557829003601f168201915b5050505050908060010180546102079061116d565b80601f01602080910402602001604051908101604052809291908181526020018280546102339061116d565b80156102805780601f1061025557610100808354040283529160200191610280565b820191906000526020600020905b81548152906001019060200180831161026357829003601f168201915b5050505050908060020180546102959061116d565b80601f01602080910402602001604051908101604052809291908181526020018280546102c19061116d565b801561030e5780601f106102e35761010080835404028352916020019161030e565b820191906000526020600020905b8154815290600101906020018083116102f157829003601f168201915b5050505050908060030180546103239061116d565b80601f016020809104026020016040519081016040528092919081815260200182805461034f9061116d565b801561039c5780601f106103715761010080835404028352916020019161039c565b820191906000526020600020905b81548152906001019060200180831161037f57829003601f168201915b5050505050908060040180546103b19061116d565b80601f01602080910402602001604051908101604052809291908181526020018280546103dd9061116d565b801561042a5780601f106103ff5761010080835404028352916020019161042a565b820191906000526020600020905b81548152906001019060200180831161040d57829003601f168201915b50505050509080600501805461043f9061116d565b80601f016020809104026020016040519081016040528092919081815260200182805461046b9061116d565b80156104b85780601f1061048d576101008083540402835291602001916104b8565b820191906000526020600020905b81548152906001019060200180831161049b57829003601f168201915b5050505050908060060180546104cd9061116d565b80601f01602080910402602001604051908101604052809291908181526020018280546104f99061116d565b80156105465780601f1061051b57610100808354040283529160200191610546565b820191906000526020600020905b81548152906001019060200180831161052957829003601f168201915b50505050509080600701805461055b9061116d565b80601f01602080910402602001604051908101604052809291908181526020018280546105879061116d565b80156105d45780601f106105a9576101008083540402835291602001916105d4565b820191906000526020600020905b8154815290600101906020018083116105b757829003601f168201915b5050505050908060080160009054906101000a900473ffffffffffffffffffffffffffffffffffffffff1690806009015490508a565b600260003373ffffffffffffffffffffffffffffffffffffffff1673ffffffffffffffffffffffffffffffffffffffff16815260200190815260200160002060009054906101000a900460ff1615610697576040517f08c379a000000000000000000000000000000000000000000000000000000000815260040161068e9061102b565b60405180910390fd5b6000600160003373ffffffffffffffffffffffffffffffffffffffff1673ffffffffffffffffffffffffffffffffffffffff1681526020019081526020016000209050888160000190805190602001906106f2929190610a69565b508781600101908051906020019061070b929190610a69565b5085816003019080519060200190610724929190610a69565b508681600201908051906020019061073d929190610a69565b5084816004019080519060200190610756929190610a69565b508381600501908051906020019061076f929190610a69565b5082816006019080519060200190610788929190610a69565b50818160070190805190602001906107a1929190610a69565b50338160080160006101000a81548173ffffffffffffffffffffffffffffffffffffffff021916908373ffffffffffffffffffffffffffffffffffffffff1602179055504281600901819055506000339080600181540180825580915050600190039060005260206000200160009091909190916101000a81548173ffffffffffffffffffffffffffffffffffffffff021916908373ffffffffffffffffffffffffffffffffffffffff1602179055506001600260003373ffffffffffffffffffffffffffffffffffffffff1673ffffffffffffffffffffffffffffffffffffffff16815260200190815260200160002060006101000a81548160ff021916908315150217905550600360008154809291906108bc9061119f565b9190505550505050505050505050565b600260003373ffffffffffffffffffffffffffffffffffffffff1673ffffffffffffffffffffffffffffffffffffffff16815260200190815260200160002060009054906101000a900460ff1661092257600080fd5b6000600160003373ffffffffffffffffffffffffffffffffffffffff1673ffffffffffffffffffffffffffffffffffffffff16815260200190815260200160002090508681600001908051906020019061097d929190610a69565b5085816001019080519060200190610996929190610a69565b50848160040190805190602001906109af929190610a69565b50838160050190805190602001906109c8929190610a69565b50828160060190805190602001906109e1929190610a69565b50818160070190805190602001906109fa929190610a69565b5050505050505050565b60026020528060005260406000206000915054906101000a900460ff1681565b60035481565b60008181548110610a3a57600080fd5b906000526020600020016000915054906101000a900473ffffffffffffffffffffffffffffffffffffffff1681565b828054610a759061116d565b90600052602060002090601f016020900481019282610a975760008555610ade565b82601f10610ab057805160ff1916838001178555610ade565b82800160010185558215610ade579182015b82811115610add578251825591602001919060010190610ac2565b5b509050610aeb9190610aef565b5090565b5b80821115610b08576000816000905550600101610af0565b5090565b6000610b1f610b1a84611097565b611066565b905082815260208101848484011115610b3757600080fd5b610b4284828561112b565b509392505050565b600081359050610b5981611286565b92915050565b600082601f830112610b7057600080fd5b8135610b80848260208601610b0c565b91505092915050565b600081359050610b988161129d565b92915050565b600060208284031215610bb057600080fd5b6000610bbe84828501610b4a565b91505092915050565b60008060008060008060c08789031215610be057600080fd5b600087013567ffffffffffffffff811115610bfa57600080fd5b610c0689828a01610b5f565b965050602087013567ffffffffffffffff811115610c2357600080fd5b610c2f89828a01610b5f565b955050604087013567ffffffffffffffff811115610c4c57600080fd5b610c5889828a01610b5f565b945050606087013567ffffffffffffffff811115610c7557600080fd5b610c8189828a01610b5f565b935050608087013567ffffffffffffffff811115610c9e57600080fd5b610caa89828a01610b5f565b92505060a087013567ffffffffffffffff811115610cc757600080fd5b610cd389828a01610b5f565b9150509295509295509295565b600080600080600080600080610100898b031215610cfd57600080fd5b600089013567ffffffffffffffff811115610d1757600080fd5b610d238b828c01610b5f565b985050602089013567ffffffffffffffff811115610d4057600080fd5b610d4c8b828c01610b5f565b975050604089013567ffffffffffffffff811115610d6957600080fd5b610d758b828c01610b5f565b965050606089013567ffffffffffffffff811115610d9257600080fd5b610d9e8b828c01610b5f565b955050608089013567ffffffffffffffff811115610dbb57600080fd5b610dc78b828c01610b5f565b94505060a089013567ffffffffffffffff811115610de457600080fd5b610df08b828c01610b5f565b93505060c089013567ffffffffffffffff811115610e0d57600080fd5b610e198b828c01610b5f565b92505060e089013567ffffffffffffffff811115610e3657600080fd5b610e428b828c01610b5f565b9150509295985092959890939650565b600060208284031215610e6457600080fd5b6000610e7284828501610b89565b91505092915050565b610e84816110e3565b82525050565b610e93816110f5565b82525050565b6000610ea4826110c7565b610eae81856110d2565b9350610ebe81856020860161113a565b610ec781611275565b840191505092915050565b6000610edf601a836110d2565b91507f50617469656e7420616c726561647920726567697374657265640000000000006000830152602082019050919050565b610f1b81611121565b82525050565b6000602082019050610f366000830184610e7b565b92915050565b6000602082019050610f516000830184610e8a565b92915050565b6000610140820190508181036000830152610f72818d610e99565b90508181036020830152610f86818c610e99565b90508181036040830152610f9a818b610e99565b90508181036060830152610fae818a610e99565b90508181036080830152610fc28189610e99565b905081810360a0830152610fd68188610e99565b905081810360c0830152610fea8187610e99565b905081810360e0830152610ffe8186610e99565b905061100e610100830185610e7b565b61101c610120830184610f12565b9b9a5050505050505050505050565b6000602082019050818103600083015261104481610ed2565b9050919050565b60006020820190506110606000830184610f12565b92915050565b6000604051905081810181811067ffffffffffffffff8211171561108d5761108c611246565b5b8060405250919050565b600067ffffffffffffffff8211156110b2576110b1611246565b5b601f19601f8301169050602081019050919050565b600081519050919050565b600082825260208201905092915050565b60006110ee82611101565b9050919050565b60008115159050919050565b600073ffffffffffffffffffffffffffffffffffffffff82169050919050565b6000819050919050565b82818337600083830152505050565b60005b8381101561115857808201518184015260208101905061113d565b83811115611167576000848401525b50505050565b6000600282049050600182168061118557607f821691505b6020821081141561119957611198611217565b5b50919050565b60006111aa82611121565b91507fffffffffffffffffffffffffffffffffffffffffffffffffffffffffffffffff8214156111dd576111dc6111e8565b5b600182019050919050565b7f4e487b7100000000000000000000000000000000000000000000000000000000600052601160045260246000fd5b7f4e487b7100000000000000000000000000000000000000000000000000000000600052602260045260246000fd5b7f4e487b7100000000000000000000000000000000000000000000000000000000600052604160045260246000fd5b6000601f19601f8301169050919050565b61128f816110e3565b811461129a57600080fd5b50565b6112a681611121565b81146112b157600080fd5b5056fea2646970667358221220f193e8373b5f1645a0a32f2689cfe95f7c942bc13bab6040d1cc4334af58288264736f6c63430008000033",
  "immutableReferences": {},
  "source": "// SPDX-License-Identifier: MIT\r\npragma solidity ^0.8.0;\r\n\r\ncontract PatientRecords {\r\n\r\n    struct Patient {\r\n        string name;\r\n        string phone;\r\n        string gender;\r\n        string age;\r\n        string dateOfBirth;\r\n        string height;\r\n        string weight;\r\n        string houseAddress;\r\n        address addr;\r\n        uint date;\r\n    }\r\n\r\n    address[] public patientList; // Dynamic array to store the addresses of registered patients\r\n    mapping(address => Patient) public patients; // Mapping to associate addresses with structs\r\n    mapping(address => bool) public isPatient; // Tracks whether a specific Ethereum address is registered\r\n    uint256 public patientCount = 0;\r\n\r\n    function registerPatient(\r\n        string memory _name,\r\n        string memory _phone,\r\n        string memory _gender,\r\n        string memory _age,\r\n        string memory _dateOfBirth,\r\n        string memory _height,\r\n        string memory _weight,\r\n        string memory _houseAddress\r\n    ) public {\r\n        require(!isPatient[msg.sender], \"Patient already registered\");\r\n\r\n        Patient storage p = patients[msg.sender];  \r\n        \r\n        p.name = _name;\r\n        p.phone = _phone;\r\n        p.age = _age;\r\n        p.gender = _gender;\r\n        p.dateOfBirth = _dateOfBirth;\r\n        p.height = _height;\r\n        p.weight = _weight;\r\n        p.houseAddress = _houseAddress;\r\n        p.addr = msg.sender;\r\n        p.date = block.timestamp;\r\n\r\n        patientList.push(msg.sender);\r\n        isPatient[msg.sender] = true;\r\n        patientCount++;\r\n    }\r\n\r\n    function editPatientProfile(\r\n        string memory _name,\r\n        string memory _phone,\r\n        string memory _dateOfBirth,\r\n        string memory _height,\r\n        string memory _weight,\r\n        string memory _houseAddress\r\n    ) public {\r\n        require(isPatient[msg.sender]);\r\n        Patient storage p = patients[msg.sender];\r\n        \r\n        p.name = _name;\r\n        p.phone = _phone;\r\n        p.dateOfBirth = _dateOfBirth;\r\n        p.height = _height;\r\n        p.weight = _weight;\r\n        p.houseAddress = _houseAddress;\r\n    }\r\n}",
  "sourcePath": "C:\\Users\\Abby\\Desktop\\APPCON 2023\\MediVerse-Web3-Dapp\\contracts\\Patient.sol",
  "compiler": {
    "name": "solc",
    "version": "0.8.0+commit.c7dfd78e.Emscripten.clang"
  },
  "schemaVersion": "3.4.16",
  "updatedAt": "2024-02-19T16:06:39.850Z",
  "networkType": "ethereum",
  "devdoc": {
    "kind": "dev",
    "methods": {},
    "version": 1
  },
  "userdoc": {
    "kind": "user",
    "methods": {},
    "version": 1
  }
}