{
  "contractName": "PatientRecords",
  "abi": [
    {
      "inputs": [],
      "stateMutability": "nonpayable",
      "type": "constructor"
    },
    {
      "inputs": [
        {
          "internalType": "address",
          "name": "",
          "type": "address"
        }
      ],
      "name": "isPatient",
      "outputs": [
        {
          "internalType": "bool",
          "name": "",
          "type": "bool"
        }
      ],
      "stateMutability": "view",
      "type": "function",
      "constant": true
    },
    {
      "inputs": [],
      "name": "patientCount",
      "outputs": [
        {
          "internalType": "uint256",
          "name": "",
          "type": "uint256"
        }
      ],
      "stateMutability": "view",
      "type": "function",
      "constant": true
    },
    {
      "inputs": [
        {
          "internalType": "uint256",
          "name": "",
          "type": "uint256"
        }
      ],
      "name": "patientList",
      "outputs": [
        {
          "internalType": "address",
          "name": "",
          "type": "address"
        }
      ],
      "stateMutability": "view",
      "type": "function",
      "constant": true
    },
    {
      "inputs": [
        {
          "internalType": "address",
          "name": "",
          "type": "address"
        }
      ],
      "name": "patients",
      "outputs": [
        {
          "internalType": "string",
          "name": "name",
          "type": "string"
        },
        {
          "internalType": "string",
          "name": "phone",
          "type": "string"
        },
        {
          "internalType": "string",
          "name": "gender",
          "type": "string"
        },
        {
          "internalType": "string",
          "name": "age",
          "type": "string"
        },
        {
          "internalType": "string",
          "name": "dateOfBirth",
          "type": "string"
        },
        {
          "internalType": "string",
          "name": "height",
          "type": "string"
        },
        {
          "internalType": "string",
          "name": "weight",
          "type": "string"
        },
        {
          "internalType": "string",
          "name": "houseAddress",
          "type": "string"
        },
        {
          "internalType": "address",
          "name": "addr",
          "type": "address"
        },
        {
          "internalType": "uint256",
          "name": "date",
          "type": "uint256"
        }
      ],
      "stateMutability": "view",
      "type": "function",
      "constant": true
    },
    {
      "inputs": [
        {
          "internalType": "string",
          "name": "_name",
          "type": "string"
        },
        {
          "internalType": "string",
          "name": "_phone",
          "type": "string"
        },
        {
          "internalType": "string",
          "name": "_gender",
          "type": "string"
        },
        {
          "internalType": "string",
          "name": "_age",
          "type": "string"
        },
        {
          "internalType": "string",
          "name": "_dateOfBirth",
          "type": "string"
        },
        {
          "internalType": "string",
          "name": "_height",
          "type": "string"
        },
        {
          "internalType": "string",
          "name": "_weight",
          "type": "string"
        },
        {
          "internalType": "string",
          "name": "_houseAddress",
          "type": "string"
        }
      ],
      "name": "registerPatient",
      "outputs": [],
      "stateMutability": "nonpayable",
      "type": "function"
    },
    {
      "inputs": [
        {
          "internalType": "string",
          "name": "_name",
          "type": "string"
        },
        {
          "internalType": "string",
          "name": "_phone",
          "type": "string"
        },
        {
          "internalType": "string",
          "name": "_dateOfBirth",
          "type": "string"
        },
        {
          "internalType": "string",
          "name": "_height",
          "type": "string"
        },
        {
          "internalType": "string",
          "name": "_weight",
          "type": "string"
        },
        {
          "internalType": "string",
          "name": "_houseAddress",
          "type": "string"
        }
      ],
      "name": "editPatientProfile",
      "outputs": [],
      "stateMutability": "nonpayable",
      "type": "function"
    }
  ],
  "bytecode": "0x6080604052600060035534801561001557600080fd5b506116c8806100256000396000f3fe608060405234801561001057600080fd5b50600436106100625760003560e01c80630869cfbc1461006757806329cf54a3146100a05780637c7bf2fa146100bc5780638f9c79ed146100d8578063a0303c4114610108578063babb1d4114610126575b600080fd5b610081600480360381019061007c9190610fdc565b610156565b6040516100979a99989796959493929190611355565b60405180910390f35b6100ba60048036038101906100b5919061111e565b61060a565b005b6100d660048036038101906100d19190611005565b610d0a565b005b6100f260048036038101906100ed9190610fdc565b610e42565b6040516100ff919061133a565b60405180910390f35b610110610e62565b60405161011d9190611429565b60405180910390f35b610140600480360381019061013b9190611290565b610e68565b60405161014d919061131f565b60405180910390f35b60016020528060005260406000206000915090508060000180546101799061154b565b80601f01602080910402602001604051908101604052809291908181526020018280546101a59061154b565b80156101f25780601f106101c7576101008083540402835291602001916101f2565b820191906000526020600020905b8154815290600101906020018083116101d557829003601f168201915b5050505050908060010180546102079061154b565b80601f01602080910402602001604051908101604052809291908181526020018280546102339061154b565b80156102805780601f1061025557610100808354040283529160200191610280565b820191906000526020600020905b81548152906001019060200180831161026357829003601f168201915b5050505050908060020180546102959061154b565b80601f01602080910402602001604051908101604052809291908181526020018280546102c19061154b565b801561030e5780601f106102e35761010080835404028352916020019161030e565b820191906000526020600020905b8154815290600101906020018083116102f157829003601f168201915b5050505050908060030180546103239061154b565b80601f016020809104026020016040519081016040528092919081815260200182805461034f9061154b565b801561039c5780601f106103715761010080835404028352916020019161039c565b820191906000526020600020905b81548152906001019060200180831161037f57829003601f168201915b5050505050908060040180546103b19061154b565b80601f01602080910402602001604051908101604052809291908181526020018280546103dd9061154b565b801561042a5780601f106103ff5761010080835404028352916020019161042a565b820191906000526020600020905b81548152906001019060200180831161040d57829003601f168201915b50505050509080600501805461043f9061154b565b80601f016020809104026020016040519081016040528092919081815260200182805461046b9061154b565b80156104b85780601f1061048d576101008083540402835291602001916104b8565b820191906000526020600020905b81548152906001019060200180831161049b57829003601f168201915b5050505050908060060180546104cd9061154b565b80601f01602080910402602001604051908101604052809291908181526020018280546104f99061154b565b80156105465780601f1061051b57610100808354040283529160200191610546565b820191906000526020600020905b81548152906001019060200180831161052957829003601f168201915b50505050509080600701805461055b9061154b565b80601f01602080910402602001604051908101604052809291908181526020018280546105879061154b565b80156105d45780601f106105a9576101008083540402835291602001916105d4565b820191906000526020600020905b8154815290600101906020018083116105b757829003601f168201915b5050505050908060080160009054906101000a900473ffffffffffffffffffffffffffffffffffffffff1690806009015490508a565b600260003373ffffffffffffffffffffffffffffffffffffffff1673ffffffffffffffffffffffffffffffffffffffff16815260200190815260200160002060009054906101000a900460ff161561066157600080fd5b6000600160003373ffffffffffffffffffffffffffffffffffffffff1673ffffffffffffffffffffffffffffffffffffffff168152602001908152602001600020604051806101400160405290816000820180546106be9061154b565b80601f01602080910402602001604051908101604052809291908181526020018280546106ea9061154b565b80156107375780601f1061070c57610100808354040283529160200191610737565b820191906000526020600020905b81548152906001019060200180831161071a57829003601f168201915b505050505081526020016001820180546107509061154b565b80601f016020809104026020016040519081016040528092919081815260200182805461077c9061154b565b80156107c95780601f1061079e576101008083540402835291602001916107c9565b820191906000526020600020905b8154815290600101906020018083116107ac57829003601f168201915b505050505081526020016002820180546107e29061154b565b80601f016020809104026020016040519081016040528092919081815260200182805461080e9061154b565b801561085b5780601f106108305761010080835404028352916020019161085b565b820191906000526020600020905b81548152906001019060200180831161083e57829003601f168201915b505050505081526020016003820180546108749061154b565b80601f01602080910402602001604051908101604052809291908181526020018280546108a09061154b565b80156108ed5780601f106108c2576101008083540402835291602001916108ed565b820191906000526020600020905b8154815290600101906020018083116108d057829003601f168201915b505050505081526020016004820180546109069061154b565b80601f01602080910402602001604051908101604052809291908181526020018280546109329061154b565b801561097f5780601f106109545761010080835404028352916020019161097f565b820191906000526020600020905b81548152906001019060200180831161096257829003601f168201915b505050505081526020016005820180546109989061154b565b80601f01602080910402602001604051908101604052809291908181526020018280546109c49061154b565b8015610a115780601f106109e657610100808354040283529160200191610a11565b820191906000526020600020905b8154815290600101906020018083116109f457829003601f168201915b50505050508152602001600682018054610a2a9061154b565b80601f0160208091040260200160405190810160405280929190818152602001828054610a569061154b565b8015610aa35780601f10610a7857610100808354040283529160200191610aa3565b820191906000526020600020905b815481529060010190602001808311610a8657829003601f168201915b50505050508152602001600782018054610abc9061154b565b80601f0160208091040260200160405190810160405280929190818152602001828054610ae89061154b565b8015610b355780601f10610b0a57610100808354040283529160200191610b35565b820191906000526020600020905b815481529060010190602001808311610b1857829003601f168201915b505050505081526020016008820160009054906101000a900473ffffffffffffffffffffffffffffffffffffffff1673ffffffffffffffffffffffffffffffffffffffff1673ffffffffffffffffffffffffffffffffffffffff1681526020016009820154815250509050888160000181905250878160200181905250858160600181905250868160400181905250848160800181905250838160a00181905250828160c00181905250818160e001819052503381610100019073ffffffffffffffffffffffffffffffffffffffff16908173ffffffffffffffffffffffffffffffffffffffff168152505042816101200181815250506000339080600181540180825580915050600190039060005260206000200160009091909190916101000a81548173ffffffffffffffffffffffffffffffffffffffff021916908373ffffffffffffffffffffffffffffffffffffffff1602179055506001600260003373ffffffffffffffffffffffffffffffffffffffff1673ffffffffffffffffffffffffffffffffffffffff16815260200190815260200160002060006101000a81548160ff02191690831515021790555060036000815480929190610cfa9061157d565b9190505550505050505050505050565b600260003373ffffffffffffffffffffffffffffffffffffffff1673ffffffffffffffffffffffffffffffffffffffff16815260200190815260200160002060009054906101000a900460ff16610d6057600080fd5b6000600160003373ffffffffffffffffffffffffffffffffffffffff1673ffffffffffffffffffffffffffffffffffffffff168152602001908152602001600020905086816000019080519060200190610dbb929190610ea7565b5085816001019080519060200190610dd4929190610ea7565b5084816004019080519060200190610ded929190610ea7565b5083816005019080519060200190610e06929190610ea7565b5082816006019080519060200190610e1f929190610ea7565b5081816007019080519060200190610e38929190610ea7565b5050505050505050565b60026020528060005260406000206000915054906101000a900460ff1681565b60035481565b60008181548110610e7857600080fd5b906000526020600020016000915054906101000a900473ffffffffffffffffffffffffffffffffffffffff1681565b828054610eb39061154b565b90600052602060002090601f016020900481019282610ed55760008555610f1c565b82601f10610eee57805160ff1916838001178555610f1c565b82800160010185558215610f1c579182015b82811115610f1b578251825591602001919060010190610f00565b5b509050610f299190610f2d565b5090565b5b80821115610f46576000816000905550600101610f2e565b5090565b6000610f5d610f5884611475565b611444565b905082815260208101848484011115610f7557600080fd5b610f80848285611509565b509392505050565b600081359050610f9781611664565b92915050565b600082601f830112610fae57600080fd5b8135610fbe848260208601610f4a565b91505092915050565b600081359050610fd68161167b565b92915050565b600060208284031215610fee57600080fd5b6000610ffc84828501610f88565b91505092915050565b60008060008060008060c0878903121561101e57600080fd5b600087013567ffffffffffffffff81111561103857600080fd5b61104489828a01610f9d565b965050602087013567ffffffffffffffff81111561106157600080fd5b61106d89828a01610f9d565b955050604087013567ffffffffffffffff81111561108a57600080fd5b61109689828a01610f9d565b945050606087013567ffffffffffffffff8111156110b357600080fd5b6110bf89828a01610f9d565b935050608087013567ffffffffffffffff8111156110dc57600080fd5b6110e889828a01610f9d565b92505060a087013567ffffffffffffffff81111561110557600080fd5b61111189828a01610f9d565b9150509295509295509295565b600080600080600080600080610100898b03121561113b57600080fd5b600089013567ffffffffffffffff81111561115557600080fd5b6111618b828c01610f9d565b985050602089013567ffffffffffffffff81111561117e57600080fd5b61118a8b828c01610f9d565b975050604089013567ffffffffffffffff8111156111a757600080fd5b6111b38b828c01610f9d565b965050606089013567ffffffffffffffff8111156111d057600080fd5b6111dc8b828c01610f9d565b955050608089013567ffffffffffffffff8111156111f957600080fd5b6112058b828c01610f9d565b94505060a089013567ffffffffffffffff81111561122257600080fd5b61122e8b828c01610f9d565b93505060c089013567ffffffffffffffff81111561124b57600080fd5b6112578b828c01610f9d565b92505060e089013567ffffffffffffffff81111561127457600080fd5b6112808b828c01610f9d565b9150509295985092959890939650565b6000602082840312156112a257600080fd5b60006112b084828501610fc7565b91505092915050565b6112c2816114c1565b82525050565b6112d1816114d3565b82525050565b60006112e2826114a5565b6112ec81856114b0565b93506112fc818560208601611518565b61130581611653565b840191505092915050565b611319816114ff565b82525050565b600060208201905061133460008301846112b9565b92915050565b600060208201905061134f60008301846112c8565b92915050565b6000610140820190508181036000830152611370818d6112d7565b90508181036020830152611384818c6112d7565b90508181036040830152611398818b6112d7565b905081810360608301526113ac818a6112d7565b905081810360808301526113c081896112d7565b905081810360a08301526113d481886112d7565b905081810360c08301526113e881876112d7565b905081810360e08301526113fc81866112d7565b905061140c6101008301856112b9565b61141a610120830184611310565b9b9a5050505050505050505050565b600060208201905061143e6000830184611310565b92915050565b6000604051905081810181811067ffffffffffffffff8211171561146b5761146a611624565b5b8060405250919050565b600067ffffffffffffffff8211156114905761148f611624565b5b601f19601f8301169050602081019050919050565b600081519050919050565b600082825260208201905092915050565b60006114cc826114df565b9050919050565b60008115159050919050565b600073ffffffffffffffffffffffffffffffffffffffff82169050919050565b6000819050919050565b82818337600083830152505050565b60005b8381101561153657808201518184015260208101905061151b565b83811115611545576000848401525b50505050565b6000600282049050600182168061156357607f821691505b60208210811415611577576115766115f5565b5b50919050565b6000611588826114ff565b91507fffffffffffffffffffffffffffffffffffffffffffffffffffffffffffffffff8214156115bb576115ba6115c6565b5b600182019050919050565b7f4e487b7100000000000000000000000000000000000000000000000000000000600052601160045260246000fd5b7f4e487b7100000000000000000000000000000000000000000000000000000000600052602260045260246000fd5b7f4e487b7100000000000000000000000000000000000000000000000000000000600052604160045260246000fd5b6000601f19601f8301169050919050565b61166d816114c1565b811461167857600080fd5b50565b611684816114ff565b811461168f57600080fd5b5056fea26469706673582212209af0d5bd4c0952de0631972b3504eb8eb14d8fbe0dc136f19dde09c99e41f28e64736f6c63430008000033",
  "immutableReferences": {},
  "source": "// SPDX-License-Identifier: MIT\r\npragma solidity >=0.4.22 <0.9.0;\r\n\r\ncontract PatientRecords {\r\n\r\n    struct Patient {\r\n        string name;\r\n        string phone;\r\n        string gender;\r\n        string age;\r\n        string dateOfBirth;\r\n        string height;\r\n        string weight;\r\n        string houseAddress;\r\n        address addr;\r\n        uint date;\r\n    }\r\n\r\n    address[] public patientList; // Dynamic array to store the addresses of registered patients\r\n\r\n    // Mapping to associate addresses with structs\r\n    mapping(address => Patient) public patients; \r\n    //tracks of whether a specific Ethereum address is registered\r\n    mapping(address => bool) public isPatient;\r\n    // Total count of registered patients\r\n    uint256 public patientCount = 0;\r\n\r\n    constructor() {\r\n        // owner is already defined in the Records contract\r\n    }\r\n\r\n    function registerPatient(string memory _name, string memory _phone, string memory _gender, string memory _age,\r\n    string memory _dateOfBirth, string memory _height, string memory _weight,string memory _houseAddress) public {\r\n        require(!isPatient[msg.sender]);\r\n        Patient memory p = patients[msg.sender];\r\n        \r\n        p.name = _name;\r\n        p.phone = _phone;\r\n        p.age = _age;\r\n        p.gender = _gender;\r\n        p.dateOfBirth = _dateOfBirth;\r\n        p.height = _height;\r\n        p.weight = _weight;\r\n        p.houseAddress = _houseAddress;\r\n        p.addr = msg.sender;\r\n        p.date = block.timestamp;\r\n\r\n        patientList.push(msg.sender);\r\n        isPatient[msg.sender] = true;\r\n        patientCount++;\r\n    }\r\n\r\n    function editPatientProfile(\r\n        string memory _name,\r\n        string memory _phone,\r\n        string memory _dateOfBirth,\r\n        string memory _height,\r\n        string memory _weight,\r\n        string memory _houseAddress\r\n    ) public {\r\n        require(isPatient[msg.sender]);\r\n        Patient storage p = patients[msg.sender];\r\n        \r\n        p.name = _name;\r\n        p.phone = _phone;\r\n        p.dateOfBirth = _dateOfBirth;\r\n        p.height = _height;\r\n        p.weight = _weight;\r\n        p.houseAddress = _houseAddress;\r\n    }\r\n    \r\n    /**\r\n    -----PATIENT-----\r\n    getMedicalRecordsList\r\n    getMedicalProcedureList\r\n    getMedicalPrescriptionList\r\n    getLaboratoryHistoryList\r\n    getHospitalizationRecordList\r\n    revokeAccess\r\n    */\r\n}\r\n",
  "sourcePath": "C:\\Users\\Abby\\Desktop\\APPCON 2023\\MediVerse-Web3-Dapp\\contracts\\Patient.sol",
  "compiler": {
    "name": "solc",
    "version": "0.8.0+commit.c7dfd78e.Emscripten.clang"
  },
  "schemaVersion": "3.4.16",
  "updatedAt": "2024-02-10T14:08:49.417Z",
  "networkType": "ethereum",
  "devdoc": {
    "kind": "dev",
    "methods": {},
    "version": 1
  },
  "userdoc": {
    "kind": "user",
    "methods": {},
    "version": 1
  }
}