{
  "contractName": "PatientRecords",
  "abi": [
    {
      "inputs": [
        {
          "internalType": "address",
          "name": "",
          "type": "address"
        }
      ],
      "name": "isPatient",
      "outputs": [
        {
          "internalType": "bool",
          "name": "",
          "type": "bool"
        }
      ],
      "stateMutability": "view",
      "type": "function",
      "constant": true
    },
    {
      "inputs": [],
      "name": "patientCount",
      "outputs": [
        {
          "internalType": "uint256",
          "name": "",
          "type": "uint256"
        }
      ],
      "stateMutability": "view",
      "type": "function",
      "constant": true
    },
    {
      "inputs": [
        {
          "internalType": "uint256",
          "name": "",
          "type": "uint256"
        }
      ],
      "name": "patientList",
      "outputs": [
        {
          "internalType": "address",
          "name": "",
          "type": "address"
        }
      ],
      "stateMutability": "view",
      "type": "function",
      "constant": true
    },
    {
      "inputs": [
        {
          "internalType": "address",
          "name": "",
          "type": "address"
        }
      ],
      "name": "patients",
      "outputs": [
        {
          "internalType": "string",
          "name": "patientID",
          "type": "string"
        },
        {
          "internalType": "string",
          "name": "name",
          "type": "string"
        },
        {
          "internalType": "string",
          "name": "phone",
          "type": "string"
        },
        {
          "internalType": "string",
          "name": "gender",
          "type": "string"
        },
        {
          "internalType": "string",
          "name": "age",
          "type": "string"
        },
        {
          "internalType": "string",
          "name": "dateOfBirth",
          "type": "string"
        },
        {
          "internalType": "string",
          "name": "height",
          "type": "string"
        },
        {
          "internalType": "string",
          "name": "weight",
          "type": "string"
        },
        {
          "internalType": "string",
          "name": "houseAddress",
          "type": "string"
        },
        {
          "internalType": "address",
          "name": "addr",
          "type": "address"
        },
        {
          "internalType": "uint256",
          "name": "date",
          "type": "uint256"
        }
      ],
      "stateMutability": "view",
      "type": "function",
      "constant": true
    },
    {
      "inputs": [
        {
          "internalType": "string",
          "name": "_patientID",
          "type": "string"
        },
        {
          "internalType": "string",
          "name": "_name",
          "type": "string"
        },
        {
          "internalType": "string",
          "name": "_phone",
          "type": "string"
        },
        {
          "internalType": "string",
          "name": "_gender",
          "type": "string"
        },
        {
          "internalType": "string",
          "name": "_age",
          "type": "string"
        },
        {
          "internalType": "string",
          "name": "_dateOfBirth",
          "type": "string"
        },
        {
          "internalType": "string",
          "name": "_height",
          "type": "string"
        },
        {
          "internalType": "string",
          "name": "_weight",
          "type": "string"
        },
        {
          "internalType": "string",
          "name": "_houseAddress",
          "type": "string"
        }
      ],
      "name": "registerPatient",
      "outputs": [],
      "stateMutability": "nonpayable",
      "type": "function"
    },
    {
      "inputs": [
        {
          "internalType": "string",
          "name": "_name",
          "type": "string"
        },
        {
          "internalType": "string",
          "name": "_phone",
          "type": "string"
        },
        {
          "internalType": "string",
          "name": "_dateOfBirth",
          "type": "string"
        },
        {
          "internalType": "string",
          "name": "_height",
          "type": "string"
        },
        {
          "internalType": "string",
          "name": "_weight",
          "type": "string"
        },
        {
          "internalType": "string",
          "name": "_houseAddress",
          "type": "string"
        }
      ],
      "name": "editPatientProfile",
      "outputs": [],
      "stateMutability": "nonpayable",
      "type": "function"
    }
  ],
  "bytecode": "0x6080604052600060035534801561001557600080fd5b506113d5806100256000396000f3fe608060405234801561001057600080fd5b50600436106100625760003560e01c80630869cfbc146100675780637c7bf2fa146100a15780638f9c79ed146100bd578063a0303c41146100ed578063babb1d411461010b578063f9c2caa51461013b575b600080fd5b610081600480360381019061007c9190610c47565b610157565b6040516100989b9a9998979695949392919061102c565b60405180910390f35b6100bb60048036038101906100b69190610c70565b610699565b005b6100d760048036038101906100d29190610c47565b6107d1565b6040516100e49190611011565b60405180910390f35b6100f56107f1565b6040516101029190611136565b60405180910390f35b61012560048036038101906101209190610f27565b6107f7565b6040516101329190610ff6565b60405180910390f35b61015560048036038101906101509190610d89565b610836565b005b600160205280600052604060002060009150905080600001805461017a90611258565b80601f01602080910402602001604051908101604052809291908181526020018280546101a690611258565b80156101f35780601f106101c8576101008083540402835291602001916101f3565b820191906000526020600020905b8154815290600101906020018083116101d657829003601f168201915b50505050509080600101805461020890611258565b80601f016020809104026020016040519081016040528092919081815260200182805461023490611258565b80156102815780601f1061025657610100808354040283529160200191610281565b820191906000526020600020905b81548152906001019060200180831161026457829003601f168201915b50505050509080600201805461029690611258565b80601f01602080910402602001604051908101604052809291908181526020018280546102c290611258565b801561030f5780601f106102e45761010080835404028352916020019161030f565b820191906000526020600020905b8154815290600101906020018083116102f257829003601f168201915b50505050509080600301805461032490611258565b80601f016020809104026020016040519081016040528092919081815260200182805461035090611258565b801561039d5780601f106103725761010080835404028352916020019161039d565b820191906000526020600020905b81548152906001019060200180831161038057829003601f168201915b5050505050908060040180546103b290611258565b80601f01602080910402602001604051908101604052809291908181526020018280546103de90611258565b801561042b5780601f106104005761010080835404028352916020019161042b565b820191906000526020600020905b81548152906001019060200180831161040e57829003601f168201915b50505050509080600501805461044090611258565b80601f016020809104026020016040519081016040528092919081815260200182805461046c90611258565b80156104b95780601f1061048e576101008083540402835291602001916104b9565b820191906000526020600020905b81548152906001019060200180831161049c57829003601f168201915b5050505050908060060180546104ce90611258565b80601f01602080910402602001604051908101604052809291908181526020018280546104fa90611258565b80156105475780601f1061051c57610100808354040283529160200191610547565b820191906000526020600020905b81548152906001019060200180831161052a57829003601f168201915b50505050509080600701805461055c90611258565b80601f016020809104026020016040519081016040528092919081815260200182805461058890611258565b80156105d55780601f106105aa576101008083540402835291602001916105d5565b820191906000526020600020905b8154815290600101906020018083116105b857829003601f168201915b5050505050908060080180546105ea90611258565b80601f016020809104026020016040519081016040528092919081815260200182805461061690611258565b80156106635780601f1061063857610100808354040283529160200191610663565b820191906000526020600020905b81548152906001019060200180831161064657829003601f168201915b5050505050908060090160009054906101000a900473ffffffffffffffffffffffffffffffffffffffff169080600a015490508b565b600260003373ffffffffffffffffffffffffffffffffffffffff1673ffffffffffffffffffffffffffffffffffffffff16815260200190815260200160002060009054906101000a900460ff166106ef57600080fd5b6000600160003373ffffffffffffffffffffffffffffffffffffffff1673ffffffffffffffffffffffffffffffffffffffff16815260200190815260200160002090508681600101908051906020019061074a929190610b12565b5085816002019080519060200190610763929190610b12565b508481600501908051906020019061077c929190610b12565b5083816006019080519060200190610795929190610b12565b50828160070190805190602001906107ae929190610b12565b50818160080190805190602001906107c7929190610b12565b5050505050505050565b60026020528060005260406000206000915054906101000a900460ff1681565b60035481565b6000818154811061080757600080fd5b906000526020600020016000915054906101000a900473ffffffffffffffffffffffffffffffffffffffff1681565b600260003373ffffffffffffffffffffffffffffffffffffffff1673ffffffffffffffffffffffffffffffffffffffff16815260200190815260200160002060009054906101000a900460ff16156108c3576040517f08c379a00000000000000000000000000000000000000000000000000000000081526004016108ba90611116565b60405180910390fd5b6000600160003373ffffffffffffffffffffffffffffffffffffffff1673ffffffffffffffffffffffffffffffffffffffff16815260200190815260200160002090508981600001908051906020019061091e929190610b12565b5088816001019080519060200190610937929190610b12565b5087816002019080519060200190610950929190610b12565b5085816004019080519060200190610969929190610b12565b5086816003019080519060200190610982929190610b12565b508481600501908051906020019061099b929190610b12565b50838160060190805190602001906109b4929190610b12565b50828160070190805190602001906109cd929190610b12565b50818160080190805190602001906109e6929190610b12565b50338160090160006101000a81548173ffffffffffffffffffffffffffffffffffffffff021916908373ffffffffffffffffffffffffffffffffffffffff1602179055504281600a01819055506000339080600181540180825580915050600190039060005260206000200160009091909190916101000a81548173ffffffffffffffffffffffffffffffffffffffff021916908373ffffffffffffffffffffffffffffffffffffffff1602179055506001600260003373ffffffffffffffffffffffffffffffffffffffff1673ffffffffffffffffffffffffffffffffffffffff16815260200190815260200160002060006101000a81548160ff02191690831515021790555060036000815480929190610b019061128a565b919050555050505050505050505050565b828054610b1e90611258565b90600052602060002090601f016020900481019282610b405760008555610b87565b82601f10610b5957805160ff1916838001178555610b87565b82800160010185558215610b87579182015b82811115610b86578251825591602001919060010190610b6b565b5b509050610b949190610b98565b5090565b5b80821115610bb1576000816000905550600101610b99565b5090565b6000610bc8610bc384611182565b611151565b905082815260208101848484011115610be057600080fd5b610beb848285611216565b509392505050565b600081359050610c0281611371565b92915050565b600082601f830112610c1957600080fd5b8135610c29848260208601610bb5565b91505092915050565b600081359050610c4181611388565b92915050565b600060208284031215610c5957600080fd5b6000610c6784828501610bf3565b91505092915050565b60008060008060008060c08789031215610c8957600080fd5b600087013567ffffffffffffffff811115610ca357600080fd5b610caf89828a01610c08565b965050602087013567ffffffffffffffff811115610ccc57600080fd5b610cd889828a01610c08565b955050604087013567ffffffffffffffff811115610cf557600080fd5b610d0189828a01610c08565b945050606087013567ffffffffffffffff811115610d1e57600080fd5b610d2a89828a01610c08565b935050608087013567ffffffffffffffff811115610d4757600080fd5b610d5389828a01610c08565b92505060a087013567ffffffffffffffff811115610d7057600080fd5b610d7c89828a01610c08565b9150509295509295509295565b60008060008060008060008060006101208a8c031215610da857600080fd5b60008a013567ffffffffffffffff811115610dc257600080fd5b610dce8c828d01610c08565b99505060208a013567ffffffffffffffff811115610deb57600080fd5b610df78c828d01610c08565b98505060408a013567ffffffffffffffff811115610e1457600080fd5b610e208c828d01610c08565b97505060608a013567ffffffffffffffff811115610e3d57600080fd5b610e498c828d01610c08565b96505060808a013567ffffffffffffffff811115610e6657600080fd5b610e728c828d01610c08565b95505060a08a013567ffffffffffffffff811115610e8f57600080fd5b610e9b8c828d01610c08565b94505060c08a013567ffffffffffffffff811115610eb857600080fd5b610ec48c828d01610c08565b93505060e08a013567ffffffffffffffff811115610ee157600080fd5b610eed8c828d01610c08565b9250506101008a013567ffffffffffffffff811115610f0b57600080fd5b610f178c828d01610c08565b9150509295985092959850929598565b600060208284031215610f3957600080fd5b6000610f4784828501610c32565b91505092915050565b610f59816111ce565b82525050565b610f68816111e0565b82525050565b6000610f79826111b2565b610f8381856111bd565b9350610f93818560208601611225565b610f9c81611360565b840191505092915050565b6000610fb4601a836111bd565b91507f50617469656e7420616c726561647920726567697374657265640000000000006000830152602082019050919050565b610ff08161120c565b82525050565b600060208201905061100b6000830184610f50565b92915050565b60006020820190506110266000830184610f5f565b92915050565b6000610160820190508181036000830152611047818e610f6e565b9050818103602083015261105b818d610f6e565b9050818103604083015261106f818c610f6e565b90508181036060830152611083818b610f6e565b90508181036080830152611097818a610f6e565b905081810360a08301526110ab8189610f6e565b905081810360c08301526110bf8188610f6e565b905081810360e08301526110d38187610f6e565b90508181036101008301526110e88186610f6e565b90506110f8610120830185610f50565b611106610140830184610fe7565b9c9b505050505050505050505050565b6000602082019050818103600083015261112f81610fa7565b9050919050565b600060208201905061114b6000830184610fe7565b92915050565b6000604051905081810181811067ffffffffffffffff8211171561117857611177611331565b5b8060405250919050565b600067ffffffffffffffff82111561119d5761119c611331565b5b601f19601f8301169050602081019050919050565b600081519050919050565b600082825260208201905092915050565b60006111d9826111ec565b9050919050565b60008115159050919050565b600073ffffffffffffffffffffffffffffffffffffffff82169050919050565b6000819050919050565b82818337600083830152505050565b60005b83811015611243578082015181840152602081019050611228565b83811115611252576000848401525b50505050565b6000600282049050600182168061127057607f821691505b6020821081141561128457611283611302565b5b50919050565b60006112958261120c565b91507fffffffffffffffffffffffffffffffffffffffffffffffffffffffffffffffff8214156112c8576112c76112d3565b5b600182019050919050565b7f4e487b7100000000000000000000000000000000000000000000000000000000600052601160045260246000fd5b7f4e487b7100000000000000000000000000000000000000000000000000000000600052602260045260246000fd5b7f4e487b7100000000000000000000000000000000000000000000000000000000600052604160045260246000fd5b6000601f19601f8301169050919050565b61137a816111ce565b811461138557600080fd5b50565b6113918161120c565b811461139c57600080fd5b5056fea2646970667358221220803e38b376533ff6b2fbb612bed191587ac1184add9a9acd8e62c0efa82edee764736f6c63430008000033",
  "immutableReferences": {},
  "source": "// SPDX-License-Identifier: MIT\r\npragma solidity >=0.4.22 <0.9.0;\r\n\r\nimport \"./MedicalHistory.sol\";\r\n\r\ncontract PatientRecords {\r\n\r\n    struct Patient {\r\n        string patientID;\r\n        string name;\r\n        string phone;\r\n        string gender;\r\n        string age;\r\n        string dateOfBirth;\r\n        string height;\r\n        string weight;\r\n        string houseAddress;\r\n        address addr;\r\n        uint date;\r\n    }\r\n\r\n    address[] public patientList; // Dynamic array to store the addresses of registered patients\r\n    mapping(address => Patient) public patients; // Mapping to associate addresses with structs\r\n    mapping(address => bool) public isPatient; // Tracks whether a specific Ethereum address is registered\r\n    uint256 public patientCount = 0;\r\n\r\n    function registerPatient(\r\n        string memory _patientID,\r\n        string memory _name,\r\n        string memory _phone,\r\n        string memory _gender,\r\n        string memory _age,\r\n        string memory _dateOfBirth,\r\n        string memory _height,\r\n        string memory _weight,\r\n        string memory _houseAddress\r\n    ) public {\r\n        require(!isPatient[msg.sender], \"Patient already registered\");\r\n\r\n        Patient storage p = patients[msg.sender];  \r\n        \r\n        p.patientID = _patientID;\r\n        p.name = _name;\r\n        p.phone = _phone;\r\n        p.age = _age;\r\n        p.gender = _gender;\r\n        p.dateOfBirth = _dateOfBirth;\r\n        p.height = _height;\r\n        p.weight = _weight;\r\n        p.houseAddress = _houseAddress;\r\n        p.addr = msg.sender;\r\n        p.date = block.timestamp;\r\n\r\n        patientList.push(msg.sender);\r\n        isPatient[msg.sender] = true;\r\n        patientCount++;\r\n    }\r\n\r\n    function editPatientProfile(\r\n        string memory _name,\r\n        string memory _phone,\r\n        string memory _dateOfBirth,\r\n        string memory _height,\r\n        string memory _weight,\r\n        string memory _houseAddress\r\n    ) public {\r\n        require(isPatient[msg.sender]);\r\n        Patient storage p = patients[msg.sender];\r\n        \r\n        p.name = _name;\r\n        p.phone = _phone;\r\n        p.dateOfBirth = _dateOfBirth;\r\n        p.height = _height;\r\n        p.weight = _weight;\r\n        p.houseAddress = _houseAddress;\r\n    }\r\n}",
  "sourcePath": "C:\\Users\\Abby\\Desktop\\APPCON 2023\\MediVerse-Web3-Dapp\\contracts\\Patient.sol",
  "compiler": {
    "name": "solc",
    "version": "0.8.0+commit.c7dfd78e.Emscripten.clang"
  },
  "schemaVersion": "3.4.16",
  "updatedAt": "2024-02-13T16:57:47.015Z",
  "networkType": "ethereum",
  "devdoc": {
    "kind": "dev",
    "methods": {},
    "version": 1
  },
  "userdoc": {
    "kind": "user",
    "methods": {},
    "version": 1
  }
}