{
  "contractName": "Record",
  "abi": [
    {
      "inputs": [],
      "stateMutability": "nonpayable",
      "type": "constructor"
    },
    {
      "anonymous": false,
      "inputs": [
        {
          "indexed": false,
          "internalType": "address",
          "name": "patientAddr",
          "type": "address"
        }
      ],
      "name": "MedicalHistoryRecordAdded",
      "type": "event"
    },
    {
      "anonymous": false,
      "inputs": [
        {
          "indexed": false,
          "internalType": "address",
          "name": "patientAddr",
          "type": "address"
        }
      ],
      "name": "MedicalHistoryRecordEdited",
      "type": "event"
    },
    {
      "inputs": [
        {
          "internalType": "address",
          "name": "_patientAddr",
          "type": "address"
        },
        {
          "internalType": "string",
          "name": "_physician",
          "type": "string"
        },
        {
          "internalType": "string",
          "name": "_hospital",
          "type": "string"
        },
        {
          "internalType": "string",
          "name": "_dateOfDiagnosis",
          "type": "string"
        },
        {
          "internalType": "string",
          "name": "_diagnosis",
          "type": "string"
        },
        {
          "internalType": "string",
          "name": "_symptoms",
          "type": "string"
        },
        {
          "internalType": "string",
          "name": "_durationSeverity",
          "type": "string"
        },
        {
          "internalType": "string",
          "name": "_signs",
          "type": "string"
        },
        {
          "internalType": "string",
          "name": "_relevantMedicalHistory",
          "type": "string"
        }
      ],
      "name": "addMedicalHistory",
      "outputs": [],
      "stateMutability": "nonpayable",
      "type": "function"
    },
    {
      "inputs": [
        {
          "internalType": "string",
          "name": "_hospitalName",
          "type": "string"
        },
        {
          "internalType": "string",
          "name": "_contactNum",
          "type": "string"
        },
        {
          "internalType": "string",
          "name": "_hospitalAddress",
          "type": "string"
        }
      ],
      "name": "editHospitalProfile",
      "outputs": [],
      "stateMutability": "nonpayable",
      "type": "function"
    },
    {
      "inputs": [
        {
          "internalType": "address",
          "name": "_patientAddr",
          "type": "address"
        },
        {
          "internalType": "string",
          "name": "_physician",
          "type": "string"
        },
        {
          "internalType": "string",
          "name": "_hospital",
          "type": "string"
        },
        {
          "internalType": "string",
          "name": "_dateOfDiagnosis",
          "type": "string"
        },
        {
          "internalType": "string",
          "name": "_diagnosis",
          "type": "string"
        },
        {
          "internalType": "string",
          "name": "_symptoms",
          "type": "string"
        },
        {
          "internalType": "string",
          "name": "_durationSeverity",
          "type": "string"
        },
        {
          "internalType": "string",
          "name": "_signs",
          "type": "string"
        },
        {
          "internalType": "string",
          "name": "_relevantMedicalHistory",
          "type": "string"
        }
      ],
      "name": "editMedicalHistory",
      "outputs": [],
      "stateMutability": "nonpayable",
      "type": "function"
    },
    {
      "inputs": [
        {
          "internalType": "string",
          "name": "_name",
          "type": "string"
        },
        {
          "internalType": "string",
          "name": "_phone",
          "type": "string"
        },
        {
          "internalType": "string",
          "name": "_dateOfBirth",
          "type": "string"
        },
        {
          "internalType": "string",
          "name": "_height",
          "type": "string"
        },
        {
          "internalType": "string",
          "name": "_weight",
          "type": "string"
        },
        {
          "internalType": "string",
          "name": "_houseAddress",
          "type": "string"
        }
      ],
      "name": "editPatientProfile",
      "outputs": [],
      "stateMutability": "nonpayable",
      "type": "function"
    },
    {
      "inputs": [],
      "name": "getAllMedicalHistory",
      "outputs": [
        {
          "internalType": "address[]",
          "name": "",
          "type": "address[]"
        }
      ],
      "stateMutability": "view",
      "type": "function",
      "constant": true
    },
    {
      "inputs": [],
      "name": "getHospitalCount",
      "outputs": [
        {
          "internalType": "uint256",
          "name": "",
          "type": "uint256"
        }
      ],
      "stateMutability": "view",
      "type": "function",
      "constant": true
    },
    {
      "inputs": [],
      "name": "getHospitalList",
      "outputs": [
        {
          "internalType": "address[]",
          "name": "",
          "type": "address[]"
        }
      ],
      "stateMutability": "view",
      "type": "function",
      "constant": true
    },
    {
      "inputs": [
        {
          "internalType": "address",
          "name": "",
          "type": "address"
        }
      ],
      "name": "historyRecords",
      "outputs": [
        {
          "internalType": "address",
          "name": "owner",
          "type": "address"
        },
        {
          "internalType": "address",
          "name": "hospitalAddr",
          "type": "address"
        },
        {
          "internalType": "string",
          "name": "hospital",
          "type": "string"
        },
        {
          "internalType": "string",
          "name": "physician",
          "type": "string"
        },
        {
          "internalType": "string",
          "name": "dateOfDiagnosis",
          "type": "string"
        },
        {
          "internalType": "string",
          "name": "diagnosis",
          "type": "string"
        },
        {
          "internalType": "string",
          "name": "symptoms",
          "type": "string"
        },
        {
          "internalType": "string",
          "name": "durationSeverity",
          "type": "string"
        },
        {
          "internalType": "string",
          "name": "signs",
          "type": "string"
        },
        {
          "internalType": "string",
          "name": "relevantMedicalHistory",
          "type": "string"
        }
      ],
      "stateMutability": "view",
      "type": "function",
      "constant": true
    },
    {
      "inputs": [],
      "name": "hospitalCount",
      "outputs": [
        {
          "internalType": "uint256",
          "name": "",
          "type": "uint256"
        }
      ],
      "stateMutability": "view",
      "type": "function",
      "constant": true
    },
    {
      "inputs": [
        {
          "internalType": "uint256",
          "name": "",
          "type": "uint256"
        }
      ],
      "name": "hospitalList",
      "outputs": [
        {
          "internalType": "address",
          "name": "",
          "type": "address"
        }
      ],
      "stateMutability": "view",
      "type": "function",
      "constant": true
    },
    {
      "inputs": [
        {
          "internalType": "address",
          "name": "",
          "type": "address"
        }
      ],
      "name": "hospitals",
      "outputs": [
        {
          "internalType": "string",
          "name": "hospitalName",
          "type": "string"
        },
        {
          "internalType": "string",
          "name": "contactNum",
          "type": "string"
        },
        {
          "internalType": "string",
          "name": "hospitalAddress",
          "type": "string"
        },
        {
          "internalType": "address",
          "name": "addr",
          "type": "address"
        },
        {
          "internalType": "uint256",
          "name": "date",
          "type": "uint256"
        }
      ],
      "stateMutability": "view",
      "type": "function",
      "constant": true
    },
    {
      "inputs": [
        {
          "internalType": "address",
          "name": "",
          "type": "address"
        }
      ],
      "name": "isHospital",
      "outputs": [
        {
          "internalType": "bool",
          "name": "",
          "type": "bool"
        }
      ],
      "stateMutability": "view",
      "type": "function",
      "constant": true
    },
    {
      "inputs": [
        {
          "internalType": "address",
          "name": "",
          "type": "address"
        }
      ],
      "name": "isPatient",
      "outputs": [
        {
          "internalType": "bool",
          "name": "",
          "type": "bool"
        }
      ],
      "stateMutability": "view",
      "type": "function",
      "constant": true
    },
    {
      "inputs": [],
      "name": "medicalHistoryCount",
      "outputs": [
        {
          "internalType": "uint256",
          "name": "",
          "type": "uint256"
        }
      ],
      "stateMutability": "view",
      "type": "function",
      "constant": true
    },
    {
      "inputs": [
        {
          "internalType": "uint256",
          "name": "",
          "type": "uint256"
        }
      ],
      "name": "medicalHistoryList",
      "outputs": [
        {
          "internalType": "address",
          "name": "",
          "type": "address"
        }
      ],
      "stateMutability": "view",
      "type": "function",
      "constant": true
    },
    {
      "inputs": [],
      "name": "owner",
      "outputs": [
        {
          "internalType": "address",
          "name": "",
          "type": "address"
        }
      ],
      "stateMutability": "view",
      "type": "function",
      "constant": true
    },
    {
      "inputs": [],
      "name": "patientCount",
      "outputs": [
        {
          "internalType": "uint256",
          "name": "",
          "type": "uint256"
        }
      ],
      "stateMutability": "view",
      "type": "function",
      "constant": true
    },
    {
      "inputs": [
        {
          "internalType": "address",
          "name": "",
          "type": "address"
        },
        {
          "internalType": "uint256",
          "name": "",
          "type": "uint256"
        }
      ],
      "name": "patientHistoryRecords",
      "outputs": [
        {
          "internalType": "address",
          "name": "",
          "type": "address"
        }
      ],
      "stateMutability": "view",
      "type": "function",
      "constant": true
    },
    {
      "inputs": [
        {
          "internalType": "string",
          "name": "",
          "type": "string"
        }
      ],
      "name": "patientIDToAddress",
      "outputs": [
        {
          "internalType": "address",
          "name": "",
          "type": "address"
        }
      ],
      "stateMutability": "view",
      "type": "function",
      "constant": true
    },
    {
      "inputs": [
        {
          "internalType": "uint256",
          "name": "",
          "type": "uint256"
        }
      ],
      "name": "patientList",
      "outputs": [
        {
          "internalType": "address",
          "name": "",
          "type": "address"
        }
      ],
      "stateMutability": "view",
      "type": "function",
      "constant": true
    },
    {
      "inputs": [
        {
          "internalType": "address",
          "name": "",
          "type": "address"
        }
      ],
      "name": "patients",
      "outputs": [
        {
          "internalType": "string",
          "name": "patientID",
          "type": "string"
        },
        {
          "internalType": "string",
          "name": "name",
          "type": "string"
        },
        {
          "internalType": "string",
          "name": "phone",
          "type": "string"
        },
        {
          "internalType": "string",
          "name": "gender",
          "type": "string"
        },
        {
          "internalType": "string",
          "name": "age",
          "type": "string"
        },
        {
          "internalType": "string",
          "name": "dateOfBirth",
          "type": "string"
        },
        {
          "internalType": "string",
          "name": "height",
          "type": "string"
        },
        {
          "internalType": "string",
          "name": "weight",
          "type": "string"
        },
        {
          "internalType": "string",
          "name": "houseAddress",
          "type": "string"
        },
        {
          "internalType": "address",
          "name": "addr",
          "type": "address"
        },
        {
          "internalType": "uint256",
          "name": "date",
          "type": "uint256"
        }
      ],
      "stateMutability": "view",
      "type": "function",
      "constant": true
    },
    {
      "inputs": [],
      "name": "permissionGrantedCount",
      "outputs": [
        {
          "internalType": "uint256",
          "name": "",
          "type": "uint256"
        }
      ],
      "stateMutability": "view",
      "type": "function",
      "constant": true
    },
    {
      "inputs": [
        {
          "internalType": "string",
          "name": "_hospitalName",
          "type": "string"
        },
        {
          "internalType": "string",
          "name": "_contactNum",
          "type": "string"
        },
        {
          "internalType": "string",
          "name": "_hospitalAddress",
          "type": "string"
        }
      ],
      "name": "registerHospital",
      "outputs": [],
      "stateMutability": "nonpayable",
      "type": "function"
    },
    {
      "inputs": [
        {
          "internalType": "string",
          "name": "_patientID",
          "type": "string"
        },
        {
          "internalType": "string",
          "name": "_name",
          "type": "string"
        },
        {
          "internalType": "string",
          "name": "_phone",
          "type": "string"
        },
        {
          "internalType": "string",
          "name": "_gender",
          "type": "string"
        },
        {
          "internalType": "string",
          "name": "_age",
          "type": "string"
        },
        {
          "internalType": "string",
          "name": "_dateOfBirth",
          "type": "string"
        },
        {
          "internalType": "string",
          "name": "_height",
          "type": "string"
        },
        {
          "internalType": "string",
          "name": "_weight",
          "type": "string"
        },
        {
          "internalType": "string",
          "name": "_houseAddress",
          "type": "string"
        }
      ],
      "name": "registerPatient",
      "outputs": [],
      "stateMutability": "nonpayable",
      "type": "function"
    },
    {
      "inputs": [],
      "name": "getOwner",
      "outputs": [
        {
          "internalType": "address",
          "name": "",
          "type": "address"
        }
      ],
      "stateMutability": "view",
      "type": "function",
      "constant": true
    },
    {
      "inputs": [
        {
          "internalType": "address",
          "name": "_address",
          "type": "address"
        }
      ],
      "name": "givePermission",
      "outputs": [
        {
          "internalType": "bool",
          "name": "success",
          "type": "bool"
        }
      ],
      "stateMutability": "nonpayable",
      "type": "function"
    },
    {
      "inputs": [
        {
          "internalType": "address",
          "name": "_address",
          "type": "address"
        }
      ],
      "name": "revokePermission",
      "outputs": [
        {
          "internalType": "bool",
          "name": "success",
          "type": "bool"
        }
      ],
      "stateMutability": "nonpayable",
      "type": "function"
    },
    {
      "inputs": [],
      "name": "getAllAuthorizedHospitals",
      "outputs": [
        {
          "internalType": "address[]",
          "name": "",
          "type": "address[]"
        }
      ],
      "stateMutability": "view",
      "type": "function",
      "constant": true
    },
    {
      "inputs": [
        {
          "internalType": "address",
          "name": "patientAddr",
          "type": "address"
        }
      ],
      "name": "getMedicalHistory",
      "outputs": [
        {
          "components": [
            {
              "internalType": "address",
              "name": "owner",
              "type": "address"
            },
            {
              "internalType": "address",
              "name": "hospitalAddr",
              "type": "address"
            },
            {
              "internalType": "string",
              "name": "hospital",
              "type": "string"
            },
            {
              "internalType": "string",
              "name": "physician",
              "type": "string"
            },
            {
              "internalType": "string",
              "name": "dateOfDiagnosis",
              "type": "string"
            },
            {
              "internalType": "string",
              "name": "diagnosis",
              "type": "string"
            },
            {
              "internalType": "string",
              "name": "symptoms",
              "type": "string"
            },
            {
              "internalType": "string",
              "name": "durationSeverity",
              "type": "string"
            },
            {
              "internalType": "string",
              "name": "signs",
              "type": "string"
            },
            {
              "internalType": "string",
              "name": "relevantMedicalHistory",
              "type": "string"
            }
          ],
          "internalType": "struct MedicalHistoryRecords.HistoryRecord",
          "name": "",
          "type": "tuple"
        }
      ],
      "stateMutability": "view",
      "type": "function",
      "constant": true
    }
  ],
  "bytecode": "0x6080604052600060045560006008556000600c5534801561001f57600080fd5b5033600d60006101000a81548173ffffffffffffffffffffffffffffffffffffffff021916908373ffffffffffffffffffffffffffffffffffffffff160217905550613e9a806100706000396000f3fe608060405234801561001057600080fd5b50600436106101cf5760003560e01c80637c7bf2fa11610104578063babb1d41116100a2578063f093cf8011610071578063f093cf8014610591578063f3ad364e146105c5578063f9c2caa5146105f5578063fe45a81d14610611576101cf565b8063babb1d41146104e3578063bdf6c67314610513578063c0cb24ba14610543578063c82412b914610561576101cf565b80638f9c79ed116100de5780638f9c79ed146104495780639aec2c1e14610479578063a0303c4114610495578063a3bf5b9a146104b3576101cf565b80637c7bf2fa146103f1578063893d20e81461040d5780638da5cb5b1461042b576101cf565b80633d391f70116101715780635986de611161014b5780635986de61146103555780635d7e5396146103855780636933e414146103b55780637bc26961146103d3576101cf565b80633d391f70146102eb5780634150f5541461031b578063526b44ac14610339576101cf565b80631d31ea82116101ad5780631d31ea821461025c57806321a1500a14610295578063350dadb7146102b157806338feda25146102cf576101cf565b80630869cfbc146101d457806317c586bc1461020e57806319406a641461022c575b600080fd5b6101ee60048036038101906101e99190612fcc565b61062f565b6040516102059b9a99989796959493929190613a3a565b60405180910390f35b610216610b71565b6040516102239190613ba6565b60405180910390f35b61024660048036038101906102419190613546565b610b77565b60405161025391906138a6565b60405180910390f35b61027660048036038101906102719190612fcc565b610bb6565b60405161028c9a999897969594939291906138c1565b60405180910390f35b6102af60048036038101906102aa91906131f8565b61108a565b005b6102b9611174565b6040516102c69190613ba6565b60405180910390f35b6102e960048036038101906102e49190612ff5565b61117a565b005b61030560048036038101906103009190612fcc565b6113b2565b60405161031291906139b7565b60405180910390f35b61032361148c565b6040516103309190613995565b60405180910390f35b610353600480360381019061034e91906131f8565b61151a565b005b61036f600480360381019061036a9190612fcc565b61190b565b60405161037c9190613b84565b60405180910390f35b61039f600480360381019061039a919061317b565b611f8c565b6040516103ac91906138a6565b60405180910390f35b6103bd611fda565b6040516103ca9190613995565b60405180910390f35b6103db612068565b6040516103e89190613995565b60405180910390f35b61040b6004803603810190610406919061328f565b6122a9565b005b6104156123e1565b60405161042291906138a6565b60405180910390f35b61043361240b565b60405161044091906138a6565b60405180910390f35b610463600480360381019061045e9190612fcc565b612431565b60405161047091906139b7565b60405180910390f35b610493600480360381019061048e9190612ff5565b612451565b005b61049d612733565b6040516104aa9190613ba6565b60405180910390f35b6104cd60048036038101906104c89190612fcc565b612739565b6040516104da91906139b7565b60405180910390f35b6104fd60048036038101906104f89190613546565b6127fa565b60405161050a91906138a6565b60405180910390f35b61052d60048036038101906105289190612fcc565b612839565b60405161053a91906139b7565b60405180910390f35b61054b612859565b6040516105589190613ba6565b60405180910390f35b61057b60048036038101906105769190613546565b61285f565b60405161058891906138a6565b60405180910390f35b6105ab60048036038101906105a69190612fcc565b61289e565b6040516105bc9594939291906139d2565b60405180910390f35b6105df60048036038101906105da91906131b7565b612a8c565b6040516105ec91906138a6565b60405180910390f35b61060f600480360381019061060a91906133a8565b612ad5565b005b610619612e0e565b6040516106269190613ba6565b60405180910390f35b600160205280600052604060002060009150905080600001805461065290613d1d565b80601f016020809104026020016040519081016040528092919081815260200182805461067e90613d1d565b80156106cb5780601f106106a0576101008083540402835291602001916106cb565b820191906000526020600020905b8154815290600101906020018083116106ae57829003601f168201915b5050505050908060010180546106e090613d1d565b80601f016020809104026020016040519081016040528092919081815260200182805461070c90613d1d565b80156107595780601f1061072e57610100808354040283529160200191610759565b820191906000526020600020905b81548152906001019060200180831161073c57829003601f168201915b50505050509080600201805461076e90613d1d565b80601f016020809104026020016040519081016040528092919081815260200182805461079a90613d1d565b80156107e75780601f106107bc576101008083540402835291602001916107e7565b820191906000526020600020905b8154815290600101906020018083116107ca57829003601f168201915b5050505050908060030180546107fc90613d1d565b80601f016020809104026020016040519081016040528092919081815260200182805461082890613d1d565b80156108755780601f1061084a57610100808354040283529160200191610875565b820191906000526020600020905b81548152906001019060200180831161085857829003601f168201915b50505050509080600401805461088a90613d1d565b80601f01602080910402602001604051908101604052809291908181526020018280546108b690613d1d565b80156109035780601f106108d857610100808354040283529160200191610903565b820191906000526020600020905b8154815290600101906020018083116108e657829003601f168201915b50505050509080600501805461091890613d1d565b80601f016020809104026020016040519081016040528092919081815260200182805461094490613d1d565b80156109915780601f1061096657610100808354040283529160200191610991565b820191906000526020600020905b81548152906001019060200180831161097457829003601f168201915b5050505050908060060180546109a690613d1d565b80601f01602080910402602001604051908101604052809291908181526020018280546109d290613d1d565b8015610a1f5780601f106109f457610100808354040283529160200191610a1f565b820191906000526020600020905b815481529060010190602001808311610a0257829003601f168201915b505050505090806007018054610a3490613d1d565b80601f0160208091040260200160405190810160405280929190818152602001828054610a6090613d1d565b8015610aad5780601f10610a8257610100808354040283529160200191610aad565b820191906000526020600020905b815481529060010190602001808311610a9057829003601f168201915b505050505090806008018054610ac290613d1d565b80601f0160208091040260200160405190810160405280929190818152602001828054610aee90613d1d565b8015610b3b5780601f10610b1057610100808354040283529160200191610b3b565b820191906000526020600020905b815481529060010190602001808311610b1e57829003601f168201915b5050505050908060090160009054906101000a900473ffffffffffffffffffffffffffffffffffffffff169080600a015490508b565b600c5481565b60098181548110610b8757600080fd5b906000526020600020016000915054906101000a900473ffffffffffffffffffffffffffffffffffffffff1681565b600a6020528060005260406000206000915090508060000160009054906101000a900473ffffffffffffffffffffffffffffffffffffffff16908060010160009054906101000a900473ffffffffffffffffffffffffffffffffffffffff1690806002018054610c2590613d1d565b80601f0160208091040260200160405190810160405280929190818152602001828054610c5190613d1d565b8015610c9e5780601f10610c7357610100808354040283529160200191610c9e565b820191906000526020600020905b815481529060010190602001808311610c8157829003601f168201915b505050505090806003018054610cb390613d1d565b80601f0160208091040260200160405190810160405280929190818152602001828054610cdf90613d1d565b8015610d2c5780601f10610d0157610100808354040283529160200191610d2c565b820191906000526020600020905b815481529060010190602001808311610d0f57829003601f168201915b505050505090806004018054610d4190613d1d565b80601f0160208091040260200160405190810160405280929190818152602001828054610d6d90613d1d565b8015610dba5780601f10610d8f57610100808354040283529160200191610dba565b820191906000526020600020905b815481529060010190602001808311610d9d57829003601f168201915b505050505090806005018054610dcf90613d1d565b80601f0160208091040260200160405190810160405280929190818152602001828054610dfb90613d1d565b8015610e485780601f10610e1d57610100808354040283529160200191610e48565b820191906000526020600020905b815481529060010190602001808311610e2b57829003601f168201915b505050505090806006018054610e5d90613d1d565b80601f0160208091040260200160405190810160405280929190818152602001828054610e8990613d1d565b8015610ed65780601f10610eab57610100808354040283529160200191610ed6565b820191906000526020600020905b815481529060010190602001808311610eb957829003601f168201915b505050505090806007018054610eeb90613d1d565b80601f0160208091040260200160405190810160405280929190818152602001828054610f1790613d1d565b8015610f645780601f10610f3957610100808354040283529160200191610f64565b820191906000526020600020905b815481529060010190602001808311610f4757829003601f168201915b505050505090806008018054610f7990613d1d565b80601f0160208091040260200160405190810160405280929190818152602001828054610fa590613d1d565b8015610ff25780601f10610fc757610100808354040283529160200191610ff2565b820191906000526020600020905b815481529060010190602001808311610fd557829003601f168201915b50505050509080600901805461100790613d1d565b80601f016020809104026020016040519081016040528092919081815260200182805461103390613d1d565b80156110805780601f1061105557610100808354040283529160200191611080565b820191906000526020600020905b81548152906001019060200180831161106357829003601f168201915b505050505090508a565b600760003373ffffffffffffffffffffffffffffffffffffffff1673ffffffffffffffffffffffffffffffffffffffff16815260200190815260200160002060009054906101000a900460ff166110e057600080fd5b6000600660003373ffffffffffffffffffffffffffffffffffffffff1673ffffffffffffffffffffffffffffffffffffffff16815260200190815260200160002090508381600001908051906020019061113b929190612e18565b5082816001019080519060200190611154929190612e18565b508181600201908051906020019061116d929190612e18565b5050505050565b60085481565b600760003373ffffffffffffffffffffffffffffffffffffffff1673ffffffffffffffffffffffffffffffffffffffff16815260200190815260200160002060009054906101000a900460ff166111d057600080fd5b6000600a60008b73ffffffffffffffffffffffffffffffffffffffff1673ffffffffffffffffffffffffffffffffffffffff1681526020019081526020016000209050600073ffffffffffffffffffffffffffffffffffffffff168160010160009054906101000a900473ffffffffffffffffffffffffffffffffffffffff1673ffffffffffffffffffffffffffffffffffffffff1614156112a7576040517f08c379a000000000000000000000000000000000000000000000000000000000815260040161129e90613b44565b60405180910390fd5b888160030190805190602001906112bf929190612e18565b50878160020190805190602001906112d8929190612e18565b50868160040190805190602001906112f1929190612e18565b508581600501908051906020019061130a929190612e18565b5084816006019080519060200190611323929190612e18565b508381600701908051906020019061133c929190612e18565b5082816008019080519060200190611355929190612e18565b508181600901908051906020019061136e929190612e18565b507f1bb1b20e403b5435168413f507756985b0194ec0a05d36b709aff1b99e7e0ea48a60405161139e91906138a6565b60405180910390a150505050505050505050565b60006001600f6000600d60009054906101000a900473ffffffffffffffffffffffffffffffffffffffff1673ffffffffffffffffffffffffffffffffffffffff1673ffffffffffffffffffffffffffffffffffffffff16815260200190815260200160002060008473ffffffffffffffffffffffffffffffffffffffff1673ffffffffffffffffffffffffffffffffffffffff16815260200190815260200160002060006101000a81548160ff021916908315150217905550600e600081548092919061147e90613d4f565b919050555060019050919050565b6060600980548060200260200160405190810160405280929190818152602001828054801561151057602002820191906000526020600020905b8160009054906101000a900473ffffffffffffffffffffffffffffffffffffffff1673ffffffffffffffffffffffffffffffffffffffff16815260200190600101908083116114c6575b5050505050905090565b600760003373ffffffffffffffffffffffffffffffffffffffff1673ffffffffffffffffffffffffffffffffffffffff16815260200190815260200160002060009054906101000a900460ff161561157157600080fd5b6000600660003373ffffffffffffffffffffffffffffffffffffffff1673ffffffffffffffffffffffffffffffffffffffff1681526020019081526020016000206040518060a00160405290816000820180546115cd90613d1d565b80601f01602080910402602001604051908101604052809291908181526020018280546115f990613d1d565b80156116465780601f1061161b57610100808354040283529160200191611646565b820191906000526020600020905b81548152906001019060200180831161162957829003601f168201915b5050505050815260200160018201805461165f90613d1d565b80601f016020809104026020016040519081016040528092919081815260200182805461168b90613d1d565b80156116d85780601f106116ad576101008083540402835291602001916116d8565b820191906000526020600020905b8154815290600101906020018083116116bb57829003601f168201915b505050505081526020016002820180546116f190613d1d565b80601f016020809104026020016040519081016040528092919081815260200182805461171d90613d1d565b801561176a5780601f1061173f5761010080835404028352916020019161176a565b820191906000526020600020905b81548152906001019060200180831161174d57829003601f168201915b505050505081526020016003820160009054906101000a900473ffffffffffffffffffffffffffffffffffffffff1673ffffffffffffffffffffffffffffffffffffffff1673ffffffffffffffffffffffffffffffffffffffff168152602001600482015481525050905083816000018190525082816020018190525081816040018190525033816060019073ffffffffffffffffffffffffffffffffffffffff16908173ffffffffffffffffffffffffffffffffffffffff1681525050428160800181815250506005339080600181540180825580915050600190039060005260206000200160009091909190916101000a81548173ffffffffffffffffffffffffffffffffffffffff021916908373ffffffffffffffffffffffffffffffffffffffff1602179055506001600760003373ffffffffffffffffffffffffffffffffffffffff1673ffffffffffffffffffffffffffffffffffffffff16815260200190815260200160002060006101000a81548160ff0219169083151502179055506008600081548092919061190090613d4f565b919050555050505050565b611913612e9e565b600f6000600d60009054906101000a900473ffffffffffffffffffffffffffffffffffffffff1673ffffffffffffffffffffffffffffffffffffffff1673ffffffffffffffffffffffffffffffffffffffff16815260200190815260200160002060003373ffffffffffffffffffffffffffffffffffffffff1673ffffffffffffffffffffffffffffffffffffffff16815260200190815260200160002060009054906101000a900460ff166119fe576040517f08c379a00000000000000000000000000000000000000000000000000000000081526004016119f590613b64565b60405180910390fd5b600a60008373ffffffffffffffffffffffffffffffffffffffff1673ffffffffffffffffffffffffffffffffffffffff168152602001908152602001600020604051806101400160405290816000820160009054906101000a900473ffffffffffffffffffffffffffffffffffffffff1673ffffffffffffffffffffffffffffffffffffffff1673ffffffffffffffffffffffffffffffffffffffff1681526020016001820160009054906101000a900473ffffffffffffffffffffffffffffffffffffffff1673ffffffffffffffffffffffffffffffffffffffff1673ffffffffffffffffffffffffffffffffffffffff168152602001600282018054611b0590613d1d565b80601f0160208091040260200160405190810160405280929190818152602001828054611b3190613d1d565b8015611b7e5780601f10611b5357610100808354040283529160200191611b7e565b820191906000526020600020905b815481529060010190602001808311611b6157829003601f168201915b50505050508152602001600382018054611b9790613d1d565b80601f0160208091040260200160405190810160405280929190818152602001828054611bc390613d1d565b8015611c105780601f10611be557610100808354040283529160200191611c10565b820191906000526020600020905b815481529060010190602001808311611bf357829003601f168201915b50505050508152602001600482018054611c2990613d1d565b80601f0160208091040260200160405190810160405280929190818152602001828054611c5590613d1d565b8015611ca25780601f10611c7757610100808354040283529160200191611ca2565b820191906000526020600020905b815481529060010190602001808311611c8557829003601f168201915b50505050508152602001600582018054611cbb90613d1d565b80601f0160208091040260200160405190810160405280929190818152602001828054611ce790613d1d565b8015611d345780601f10611d0957610100808354040283529160200191611d34565b820191906000526020600020905b815481529060010190602001808311611d1757829003601f168201915b50505050508152602001600682018054611d4d90613d1d565b80601f0160208091040260200160405190810160405280929190818152602001828054611d7990613d1d565b8015611dc65780601f10611d9b57610100808354040283529160200191611dc6565b820191906000526020600020905b815481529060010190602001808311611da957829003601f168201915b50505050508152602001600782018054611ddf90613d1d565b80601f0160208091040260200160405190810160405280929190818152602001828054611e0b90613d1d565b8015611e585780601f10611e2d57610100808354040283529160200191611e58565b820191906000526020600020905b815481529060010190602001808311611e3b57829003601f168201915b50505050508152602001600882018054611e7190613d1d565b80601f0160208091040260200160405190810160405280929190818152602001828054611e9d90613d1d565b8015611eea5780601f10611ebf57610100808354040283529160200191611eea565b820191906000526020600020905b815481529060010190602001808311611ecd57829003601f168201915b50505050508152602001600982018054611f0390613d1d565b80601f0160208091040260200160405190810160405280929190818152602001828054611f2f90613d1d565b8015611f7c5780601f10611f5157610100808354040283529160200191611f7c565b820191906000526020600020905b815481529060010190602001808311611f5f57829003601f168201915b5050505050815250509050919050565b600b6020528160005260406000208181548110611fa857600080fd5b906000526020600020016000915091509054906101000a900473ffffffffffffffffffffffffffffffffffffffff1681565b6060600580548060200260200160405190810160405280929190818152602001828054801561205e57602002820191906000526020600020905b8160009054906101000a900473ffffffffffffffffffffffffffffffffffffffff1673ffffffffffffffffffffffffffffffffffffffff1681526020019060010190808311612014575b5050505050905090565b60606000600e5467ffffffffffffffff8111156120ae577f4e487b7100000000000000000000000000000000000000000000000000000000600052604160045260246000fd5b6040519080825280602002602001820160405280156120dc5781602001602082028036833780820191505090505b5090506000805b6000805490508110156122a057600080828154811061212b577f4e487b7100000000000000000000000000000000000000000000000000000000600052603260045260246000fd5b9060005260206000200160009054906101000a900473ffffffffffffffffffffffffffffffffffffffff169050600f6000600d60009054906101000a900473ffffffffffffffffffffffffffffffffffffffff1673ffffffffffffffffffffffffffffffffffffffff1673ffffffffffffffffffffffffffffffffffffffff16815260200190815260200160002060008273ffffffffffffffffffffffffffffffffffffffff1673ffffffffffffffffffffffffffffffffffffffff16815260200190815260200160002060009054906101000a900460ff161561228c5780848481518110612243577f4e487b7100000000000000000000000000000000000000000000000000000000600052603260045260246000fd5b602002602001019073ffffffffffffffffffffffffffffffffffffffff16908173ffffffffffffffffffffffffffffffffffffffff1681525050828061228890613d4f565b9350505b50808061229890613d4f565b9150506120e3565b50819250505090565b600360003373ffffffffffffffffffffffffffffffffffffffff1673ffffffffffffffffffffffffffffffffffffffff16815260200190815260200160002060009054906101000a900460ff166122ff57600080fd5b6000600160003373ffffffffffffffffffffffffffffffffffffffff1673ffffffffffffffffffffffffffffffffffffffff16815260200190815260200160002090508681600101908051906020019061235a929190612e18565b5085816002019080519060200190612373929190612e18565b508481600501908051906020019061238c929190612e18565b50838160060190805190602001906123a5929190612e18565b50828160070190805190602001906123be929190612e18565b50818160080190805190602001906123d7929190612e18565b5050505050505050565b6000600d60009054906101000a900473ffffffffffffffffffffffffffffffffffffffff16905090565b600d60009054906101000a900473ffffffffffffffffffffffffffffffffffffffff1681565b60036020528060005260406000206000915054906101000a900460ff1681565b600760003373ffffffffffffffffffffffffffffffffffffffff1673ffffffffffffffffffffffffffffffffffffffff16815260200190815260200160002060009054906101000a900460ff166124a757600080fd5b6000600a60008b73ffffffffffffffffffffffffffffffffffffffff1673ffffffffffffffffffffffffffffffffffffffff1681526020019081526020016000209050338160010160006101000a81548173ffffffffffffffffffffffffffffffffffffffff021916908373ffffffffffffffffffffffffffffffffffffffff160217905550898160000160006101000a81548173ffffffffffffffffffffffffffffffffffffffff021916908373ffffffffffffffffffffffffffffffffffffffff16021790555087816002019080519060200190612588929190612e18565b50888160030190805190602001906125a1929190612e18565b50868160040190805190602001906125ba929190612e18565b50858160050190805190602001906125d3929190612e18565b50848160060190805190602001906125ec929190612e18565b5083816007019080519060200190612605929190612e18565b508281600801908051906020019061261e929190612e18565b5081816009019080519060200190612637929190612e18565b50600b60008b73ffffffffffffffffffffffffffffffffffffffff1673ffffffffffffffffffffffffffffffffffffffff168152602001908152602001600020339080600181540180825580915050600190039060005260206000200160009091909190916101000a81548173ffffffffffffffffffffffffffffffffffffffff021916908373ffffffffffffffffffffffffffffffffffffffff160217905550600c60008154809291906126eb90613d4f565b91905055507fd227fb64b88bf438275d27787dd0e084477e716309437e7d2a50f605d74176568a60405161271f91906138a6565b60405180910390a150505050505050505050565b60045481565b600080600f6000600d60009054906101000a900473ffffffffffffffffffffffffffffffffffffffff1673ffffffffffffffffffffffffffffffffffffffff1673ffffffffffffffffffffffffffffffffffffffff16815260200190815260200160002060008473ffffffffffffffffffffffffffffffffffffffff1673ffffffffffffffffffffffffffffffffffffffff16815260200190815260200160002060006101000a81548160ff02191690831515021790555060019050919050565b6000818154811061280a57600080fd5b906000526020600020016000915054906101000a900473ffffffffffffffffffffffffffffffffffffffff1681565b60076020528060005260406000206000915054906101000a900460ff1681565b600e5481565b6005818154811061286f57600080fd5b906000526020600020016000915054906101000a900473ffffffffffffffffffffffffffffffffffffffff1681565b60066020528060005260406000206000915090508060000180546128c190613d1d565b80601f01602080910402602001604051908101604052809291908181526020018280546128ed90613d1d565b801561293a5780601f1061290f5761010080835404028352916020019161293a565b820191906000526020600020905b81548152906001019060200180831161291d57829003601f168201915b50505050509080600101805461294f90613d1d565b80601f016020809104026020016040519081016040528092919081815260200182805461297b90613d1d565b80156129c85780601f1061299d576101008083540402835291602001916129c8565b820191906000526020600020905b8154815290600101906020018083116129ab57829003601f168201915b5050505050908060020180546129dd90613d1d565b80601f0160208091040260200160405190810160405280929190818152602001828054612a0990613d1d565b8015612a565780601f10612a2b57610100808354040283529160200191612a56565b820191906000526020600020905b815481529060010190602001808311612a3957829003601f168201915b5050505050908060030160009054906101000a900473ffffffffffffffffffffffffffffffffffffffff16908060040154905085565b6002818051602081018201805184825260208301602085012081835280955050505050506000915054906101000a900473ffffffffffffffffffffffffffffffffffffffff1681565b600360003373ffffffffffffffffffffffffffffffffffffffff1673ffffffffffffffffffffffffffffffffffffffff16815260200190815260200160002060009054906101000a900460ff1615612b62576040517f08c379a0000000000000000000000000000000000000000000000000000000008152600401612b5990613b24565b60405180910390fd5b6000600160003373ffffffffffffffffffffffffffffffffffffffff1673ffffffffffffffffffffffffffffffffffffffff168152602001908152602001600020905089816000019080519060200190612bbd929190612e18565b5088816001019080519060200190612bd6929190612e18565b5087816002019080519060200190612bef929190612e18565b5085816004019080519060200190612c08929190612e18565b5086816003019080519060200190612c21929190612e18565b5084816005019080519060200190612c3a929190612e18565b5083816006019080519060200190612c53929190612e18565b5082816007019080519060200190612c6c929190612e18565b5081816008019080519060200190612c85929190612e18565b50338160090160006101000a81548173ffffffffffffffffffffffffffffffffffffffff021916908373ffffffffffffffffffffffffffffffffffffffff1602179055504281600a01819055506000339080600181540180825580915050600190039060005260206000200160009091909190916101000a81548173ffffffffffffffffffffffffffffffffffffffff021916908373ffffffffffffffffffffffffffffffffffffffff1602179055506001600360003373ffffffffffffffffffffffffffffffffffffffff1673ffffffffffffffffffffffffffffffffffffffff16815260200190815260200160002060006101000a81548160ff0219169083151502179055503360028b604051612d9e919061388f565b908152602001604051809103902060006101000a81548173ffffffffffffffffffffffffffffffffffffffff021916908373ffffffffffffffffffffffffffffffffffffffff16021790555060046000815480929190612dfd90613d4f565b919050555050505050505050505050565b6000600854905090565b828054612e2490613d1d565b90600052602060002090601f016020900481019282612e465760008555612e8d565b82601f10612e5f57805160ff1916838001178555612e8d565b82800160010185558215612e8d579182015b82811115612e8c578251825591602001919060010190612e71565b5b509050612e9a9190612f1d565b5090565b604051806101400160405280600073ffffffffffffffffffffffffffffffffffffffff168152602001600073ffffffffffffffffffffffffffffffffffffffff16815260200160608152602001606081526020016060815260200160608152602001606081526020016060815260200160608152602001606081525090565b5b80821115612f36576000816000905550600101612f1e565b5090565b6000612f4d612f4884613bf2565b613bc1565b905082815260208101848484011115612f6557600080fd5b612f70848285613cdb565b509392505050565b600081359050612f8781613e36565b92915050565b600082601f830112612f9e57600080fd5b8135612fae848260208601612f3a565b91505092915050565b600081359050612fc681613e4d565b92915050565b600060208284031215612fde57600080fd5b6000612fec84828501612f78565b91505092915050565b60008060008060008060008060006101208a8c03121561301457600080fd5b60006130228c828d01612f78565b99505060208a013567ffffffffffffffff81111561303f57600080fd5b61304b8c828d01612f8d565b98505060408a013567ffffffffffffffff81111561306857600080fd5b6130748c828d01612f8d565b97505060608a013567ffffffffffffffff81111561309157600080fd5b61309d8c828d01612f8d565b96505060808a013567ffffffffffffffff8111156130ba57600080fd5b6130c68c828d01612f8d565b95505060a08a013567ffffffffffffffff8111156130e357600080fd5b6130ef8c828d01612f8d565b94505060c08a013567ffffffffffffffff81111561310c57600080fd5b6131188c828d01612f8d565b93505060e08a013567ffffffffffffffff81111561313557600080fd5b6131418c828d01612f8d565b9250506101008a013567ffffffffffffffff81111561315f57600080fd5b61316b8c828d01612f8d565b9150509295985092959850929598565b6000806040838503121561318e57600080fd5b600061319c85828601612f78565b92505060206131ad85828601612fb7565b9150509250929050565b6000602082840312156131c957600080fd5b600082013567ffffffffffffffff8111156131e357600080fd5b6131ef84828501612f8d565b91505092915050565b60008060006060848603121561320d57600080fd5b600084013567ffffffffffffffff81111561322757600080fd5b61323386828701612f8d565b935050602084013567ffffffffffffffff81111561325057600080fd5b61325c86828701612f8d565b925050604084013567ffffffffffffffff81111561327957600080fd5b61328586828701612f8d565b9150509250925092565b60008060008060008060c087890312156132a857600080fd5b600087013567ffffffffffffffff8111156132c257600080fd5b6132ce89828a01612f8d565b965050602087013567ffffffffffffffff8111156132eb57600080fd5b6132f789828a01612f8d565b955050604087013567ffffffffffffffff81111561331457600080fd5b61332089828a01612f8d565b945050606087013567ffffffffffffffff81111561333d57600080fd5b61334989828a01612f8d565b935050608087013567ffffffffffffffff81111561336657600080fd5b61337289828a01612f8d565b92505060a087013567ffffffffffffffff81111561338f57600080fd5b61339b89828a01612f8d565b9150509295509295509295565b60008060008060008060008060006101208a8c0312156133c757600080fd5b60008a013567ffffffffffffffff8111156133e157600080fd5b6133ed8c828d01612f8d565b99505060208a013567ffffffffffffffff81111561340a57600080fd5b6134168c828d01612f8d565b98505060408a013567ffffffffffffffff81111561343357600080fd5b61343f8c828d01612f8d565b97505060608a013567ffffffffffffffff81111561345c57600080fd5b6134688c828d01612f8d565b96505060808a013567ffffffffffffffff81111561348557600080fd5b6134918c828d01612f8d565b95505060a08a013567ffffffffffffffff8111156134ae57600080fd5b6134ba8c828d01612f8d565b94505060c08a013567ffffffffffffffff8111156134d757600080fd5b6134e38c828d01612f8d565b93505060e08a013567ffffffffffffffff81111561350057600080fd5b61350c8c828d01612f8d565b9250506101008a013567ffffffffffffffff81111561352a57600080fd5b6135368c828d01612f8d565b9150509295985092959850929598565b60006020828403121561355857600080fd5b600061356684828501612fb7565b91505092915050565b600061357b8383613587565b60208301905092915050565b61359081613c93565b82525050565b61359f81613c93565b82525050565b60006135b082613c32565b6135ba8185613c55565b93506135c583613c22565b8060005b838110156135f65781516135dd888261356f565b97506135e883613c48565b9250506001810190506135c9565b5085935050505092915050565b61360c81613ca5565b82525050565b600061361d82613c3d565b6136278185613c66565b9350613637818560208601613cea565b61364081613e25565b840191505092915050565b600061365682613c3d565b6136608185613c77565b9350613670818560208601613cea565b61367981613e25565b840191505092915050565b600061368f82613c3d565b6136998185613c88565b93506136a9818560208601613cea565b80840191505092915050565b60006136c2601a83613c77565b91507f50617469656e7420616c726561647920726567697374657265640000000000006000830152602082019050919050565b6000613702601583613c77565b91507f5265636f726420646f6573206e6f7420657869737400000000000000000000006000830152602082019050919050565b6000613742600e83613c77565b91507f4163636573732044656e6965642e0000000000000000000000000000000000006000830152602082019050919050565b60006101408301600083015161378e6000860182613587565b5060208301516137a16020860182613587565b50604083015184820360408601526137b98282613612565b915050606083015184820360608601526137d38282613612565b915050608083015184820360808601526137ed8282613612565b91505060a083015184820360a08601526138078282613612565b91505060c083015184820360c08601526138218282613612565b91505060e083015184820360e086015261383b8282613612565b9150506101008301518482036101008601526138578282613612565b9150506101208301518482036101208601526138738282613612565b9150508091505092915050565b61388981613cd1565b82525050565b600061389b8284613684565b915081905092915050565b60006020820190506138bb6000830184613596565b92915050565b6000610140820190506138d7600083018d613596565b6138e4602083018c613596565b81810360408301526138f6818b61364b565b9050818103606083015261390a818a61364b565b9050818103608083015261391e818961364b565b905081810360a0830152613932818861364b565b905081810360c0830152613946818761364b565b905081810360e083015261395a818661364b565b905081810361010083015261396f818561364b565b9050818103610120830152613984818461364b565b90509b9a5050505050505050505050565b600060208201905081810360008301526139af81846135a5565b905092915050565b60006020820190506139cc6000830184613603565b92915050565b600060a08201905081810360008301526139ec818861364b565b90508181036020830152613a00818761364b565b90508181036040830152613a14818661364b565b9050613a236060830185613596565b613a306080830184613880565b9695505050505050565b6000610160820190508181036000830152613a55818e61364b565b90508181036020830152613a69818d61364b565b90508181036040830152613a7d818c61364b565b90508181036060830152613a91818b61364b565b90508181036080830152613aa5818a61364b565b905081810360a0830152613ab9818961364b565b905081810360c0830152613acd818861364b565b905081810360e0830152613ae1818761364b565b9050818103610100830152613af6818661364b565b9050613b06610120830185613596565b613b14610140830184613880565b9c9b505050505050505050505050565b60006020820190508181036000830152613b3d816136b5565b9050919050565b60006020820190508181036000830152613b5d816136f5565b9050919050565b60006020820190508181036000830152613b7d81613735565b9050919050565b60006020820190508181036000830152613b9e8184613775565b905092915050565b6000602082019050613bbb6000830184613880565b92915050565b6000604051905081810181811067ffffffffffffffff82111715613be857613be7613df6565b5b8060405250919050565b600067ffffffffffffffff821115613c0d57613c0c613df6565b5b601f19601f8301169050602081019050919050565b6000819050602082019050919050565b600081519050919050565b600081519050919050565b6000602082019050919050565b600082825260208201905092915050565b600082825260208201905092915050565b600082825260208201905092915050565b600081905092915050565b6000613c9e82613cb1565b9050919050565b60008115159050919050565b600073ffffffffffffffffffffffffffffffffffffffff82169050919050565b6000819050919050565b82818337600083830152505050565b60005b83811015613d08578082015181840152602081019050613ced565b83811115613d17576000848401525b50505050565b60006002820490506001821680613d3557607f821691505b60208210811415613d4957613d48613dc7565b5b50919050565b6000613d5a82613cd1565b91507fffffffffffffffffffffffffffffffffffffffffffffffffffffffffffffffff821415613d8d57613d8c613d98565b5b600182019050919050565b7f4e487b7100000000000000000000000000000000000000000000000000000000600052601160045260246000fd5b7f4e487b7100000000000000000000000000000000000000000000000000000000600052602260045260246000fd5b7f4e487b7100000000000000000000000000000000000000000000000000000000600052604160045260246000fd5b6000601f19601f8301169050919050565b613e3f81613c93565b8114613e4a57600080fd5b50565b613e5681613cd1565b8114613e6157600080fd5b5056fea2646970667358221220c2be252e41f853814ffac2e0845c6cbdbc5c626bfc1209763ea9e0ace035fc7764736f6c63430008000033",
  "immutableReferences": {},
  "source": "// SPDX-License-Identifier: MIT\r\npragma solidity ^0.8.0;\r\n\r\nimport \"./Patient.sol\";\r\nimport \"./Hospital.sol\";\r\nimport \"./MedicalHistory.sol\";\r\nimport \"./MedicalProcedureHistory.sol\";\r\nimport \"./LaboratoryHistory.sol\";\r\nimport \"./HospitalizationHistory.sol\";\r\nimport \"./AllergyHistory.sol\";\r\n\r\ncontract Record is PatientRecords, HospitalRecords, MedicalHistoryRecords {\r\n\r\n    address public owner;\r\n    uint256 public permissionGrantedCount;\r\n    mapping(address => mapping(address => bool)) isApproved;\r\n\r\n    // Constructor\r\n    constructor() {\r\n        owner = msg.sender;\r\n    }\r\n\r\n    // Function to get the owner of the contract; Kung sino yung currently na naka login, kukunin address non\r\n    function getOwner() public view returns (address) {\r\n        return owner;\r\n    }\r\n\r\n    // Owner of the record must give permission to a hospital, only then they are allowed to view records\r\n    function givePermission(address _address) public returns (bool success) {\r\n        isApproved[owner][_address] = true;\r\n        permissionGrantedCount++;\r\n        return true;\r\n    }\r\n\r\n    // Owner of the record can take away the permission granted to hospital to view records\r\n    function revokePermission(address _address) public returns (bool success) {\r\n        isApproved[owner][_address] = false;\r\n        return true;\r\n    }\r\n\r\n    // Function to retrieve all hospitals with permission to view records\r\n    function getAllAuthorizedHospitals() public view returns (address[] memory) {\r\n        address[] memory authorizedHospitals = new address[](permissionGrantedCount);\r\n\r\n        uint256 index = 0;\r\n        for (uint256 i = 0; i < patientList.length; i++) {\r\n            address hospitalAddress = patientList[i];\r\n            if (isApproved[owner][hospitalAddress]) {\r\n                authorizedHospitals[index] = hospitalAddress;\r\n                index++;\r\n            }\r\n        }\r\n\r\n        return authorizedHospitals;\r\n    }\r\n\r\n    // Function to retrieve medical history for a specific patient if meron permission\r\n    function getMedicalHistory(address patientAddr) public view returns (MedicalHistoryRecords.HistoryRecord memory) {\r\n        require(isApproved[owner][msg.sender], \"Access Denied.\");\r\n        return MedicalHistoryRecords.historyRecords[patientAddr];\r\n    }\r\n}\r\n",
  "sourcePath": "C:\\Users\\Abby\\Desktop\\APPCON 2023\\MediVerse-Web3-Dapp\\contracts\\Record.sol",
  "compiler": {
    "name": "solc",
    "version": "0.8.0+commit.c7dfd78e.Emscripten.clang"
  },
  "schemaVersion": "3.4.16",
  "updatedAt": "2024-02-18T11:11:46.782Z",
  "networkType": "ethereum",
  "devdoc": {
    "kind": "dev",
    "methods": {},
    "version": 1
  },
  "userdoc": {
    "kind": "user",
    "methods": {},
    "version": 1
  }
}