{
  "contractName": "Record",
  "abi": [
    {
      "inputs": [],
      "stateMutability": "nonpayable",
      "type": "constructor"
    },
    {
      "inputs": [
        {
          "internalType": "string",
          "name": "_hospitalName",
          "type": "string"
        },
        {
          "internalType": "string",
          "name": "_contactNum",
          "type": "string"
        },
        {
          "internalType": "string",
          "name": "_hospitalAddress",
          "type": "string"
        }
      ],
      "name": "editHospitalProfile",
      "outputs": [],
      "stateMutability": "nonpayable",
      "type": "function"
    },
    {
      "inputs": [
        {
          "internalType": "string",
          "name": "_name",
          "type": "string"
        },
        {
          "internalType": "string",
          "name": "_phone",
          "type": "string"
        },
        {
          "internalType": "string",
          "name": "_dateOfBirth",
          "type": "string"
        },
        {
          "internalType": "string",
          "name": "_height",
          "type": "string"
        },
        {
          "internalType": "string",
          "name": "_weight",
          "type": "string"
        },
        {
          "internalType": "string",
          "name": "_houseAddress",
          "type": "string"
        }
      ],
      "name": "editPatientProfile",
      "outputs": [],
      "stateMutability": "nonpayable",
      "type": "function"
    },
    {
      "inputs": [],
      "name": "getHospitalCount",
      "outputs": [
        {
          "internalType": "uint256",
          "name": "",
          "type": "uint256"
        }
      ],
      "stateMutability": "view",
      "type": "function",
      "constant": true
    },
    {
      "inputs": [],
      "name": "getHospitalList",
      "outputs": [
        {
          "internalType": "address[]",
          "name": "",
          "type": "address[]"
        }
      ],
      "stateMutability": "view",
      "type": "function",
      "constant": true
    },
    {
      "inputs": [],
      "name": "hospitalCount",
      "outputs": [
        {
          "internalType": "uint256",
          "name": "",
          "type": "uint256"
        }
      ],
      "stateMutability": "view",
      "type": "function",
      "constant": true
    },
    {
      "inputs": [
        {
          "internalType": "uint256",
          "name": "",
          "type": "uint256"
        }
      ],
      "name": "hospitalList",
      "outputs": [
        {
          "internalType": "address",
          "name": "",
          "type": "address"
        }
      ],
      "stateMutability": "view",
      "type": "function",
      "constant": true
    },
    {
      "inputs": [
        {
          "internalType": "address",
          "name": "",
          "type": "address"
        }
      ],
      "name": "hospitals",
      "outputs": [
        {
          "internalType": "string",
          "name": "hospitalName",
          "type": "string"
        },
        {
          "internalType": "string",
          "name": "contactNum",
          "type": "string"
        },
        {
          "internalType": "string",
          "name": "hospitalAddress",
          "type": "string"
        },
        {
          "internalType": "address",
          "name": "addr",
          "type": "address"
        },
        {
          "internalType": "uint256",
          "name": "date",
          "type": "uint256"
        }
      ],
      "stateMutability": "view",
      "type": "function",
      "constant": true
    },
    {
      "inputs": [
        {
          "internalType": "address",
          "name": "",
          "type": "address"
        }
      ],
      "name": "isHospital",
      "outputs": [
        {
          "internalType": "bool",
          "name": "",
          "type": "bool"
        }
      ],
      "stateMutability": "view",
      "type": "function",
      "constant": true
    },
    {
      "inputs": [
        {
          "internalType": "address",
          "name": "",
          "type": "address"
        }
      ],
      "name": "isPatient",
      "outputs": [
        {
          "internalType": "bool",
          "name": "",
          "type": "bool"
        }
      ],
      "stateMutability": "view",
      "type": "function",
      "constant": true
    },
    {
      "inputs": [],
      "name": "owner",
      "outputs": [
        {
          "internalType": "address",
          "name": "",
          "type": "address"
        }
      ],
      "stateMutability": "view",
      "type": "function",
      "constant": true
    },
    {
      "inputs": [],
      "name": "patientCount",
      "outputs": [
        {
          "internalType": "uint256",
          "name": "",
          "type": "uint256"
        }
      ],
      "stateMutability": "view",
      "type": "function",
      "constant": true
    },
    {
      "inputs": [
        {
          "internalType": "uint256",
          "name": "",
          "type": "uint256"
        }
      ],
      "name": "patientList",
      "outputs": [
        {
          "internalType": "address",
          "name": "",
          "type": "address"
        }
      ],
      "stateMutability": "view",
      "type": "function",
      "constant": true
    },
    {
      "inputs": [
        {
          "internalType": "address",
          "name": "",
          "type": "address"
        }
      ],
      "name": "patients",
      "outputs": [
        {
          "internalType": "string",
          "name": "name",
          "type": "string"
        },
        {
          "internalType": "string",
          "name": "phone",
          "type": "string"
        },
        {
          "internalType": "string",
          "name": "gender",
          "type": "string"
        },
        {
          "internalType": "string",
          "name": "age",
          "type": "string"
        },
        {
          "internalType": "string",
          "name": "dateOfBirth",
          "type": "string"
        },
        {
          "internalType": "string",
          "name": "height",
          "type": "string"
        },
        {
          "internalType": "string",
          "name": "weight",
          "type": "string"
        },
        {
          "internalType": "string",
          "name": "houseAddress",
          "type": "string"
        },
        {
          "internalType": "address",
          "name": "addr",
          "type": "address"
        },
        {
          "internalType": "uint256",
          "name": "date",
          "type": "uint256"
        }
      ],
      "stateMutability": "view",
      "type": "function",
      "constant": true
    },
    {
      "inputs": [
        {
          "internalType": "string",
          "name": "_hospitalName",
          "type": "string"
        },
        {
          "internalType": "string",
          "name": "_contactNum",
          "type": "string"
        },
        {
          "internalType": "string",
          "name": "_hospitalAddress",
          "type": "string"
        }
      ],
      "name": "registerHospital",
      "outputs": [],
      "stateMutability": "nonpayable",
      "type": "function"
    },
    {
      "inputs": [
        {
          "internalType": "string",
          "name": "_name",
          "type": "string"
        },
        {
          "internalType": "string",
          "name": "_phone",
          "type": "string"
        },
        {
          "internalType": "string",
          "name": "_gender",
          "type": "string"
        },
        {
          "internalType": "string",
          "name": "_age",
          "type": "string"
        },
        {
          "internalType": "string",
          "name": "_dateOfBirth",
          "type": "string"
        },
        {
          "internalType": "string",
          "name": "_height",
          "type": "string"
        },
        {
          "internalType": "string",
          "name": "_weight",
          "type": "string"
        },
        {
          "internalType": "string",
          "name": "_houseAddress",
          "type": "string"
        }
      ],
      "name": "registerPatient",
      "outputs": [],
      "stateMutability": "nonpayable",
      "type": "function"
    },
    {
      "inputs": [],
      "name": "getOwner",
      "outputs": [
        {
          "internalType": "address",
          "name": "",
          "type": "address"
        }
      ],
      "stateMutability": "view",
      "type": "function",
      "constant": true
    },
    {
      "inputs": [
        {
          "internalType": "address",
          "name": "_address",
          "type": "address"
        }
      ],
      "name": "givePermission",
      "outputs": [
        {
          "internalType": "bool",
          "name": "success",
          "type": "bool"
        }
      ],
      "stateMutability": "nonpayable",
      "type": "function"
    },
    {
      "inputs": [
        {
          "internalType": "address",
          "name": "_address",
          "type": "address"
        }
      ],
      "name": "revokePermission",
      "outputs": [
        {
          "internalType": "bool",
          "name": "success",
          "type": "bool"
        }
      ],
      "stateMutability": "nonpayable",
      "type": "function"
    },
    {
      "inputs": [],
      "name": "getAllAuthorizedHospitals",
      "outputs": [
        {
          "internalType": "address[]",
          "name": "",
          "type": "address[]"
        }
      ],
      "stateMutability": "view",
      "type": "function",
      "constant": true
    }
  ],
  "bytecode": "0x60806040526000600355600060075534801561001a57600080fd5b5033600860006101000a81548173ffffffffffffffffffffffffffffffffffffffff021916908373ffffffffffffffffffffffffffffffffffffffff1602179055506123088061006b6000396000f3fe608060405234801561001057600080fd5b50600436106101215760003560e01c8063893d20e8116100ad578063babb1d4111610071578063babb1d4114610313578063bdf6c67314610343578063c82412b914610373578063f093cf80146103a3578063fe45a81d146103d757610121565b8063893d20e8146102595780638da5cb5b146102775780638f9c79ed14610295578063a0303c41146102c5578063a3bf5b9a146102e357610121565b80633d391f70116100f45780633d391f70146101b5578063526b44ac146101e55780636933e414146102015780637bc269611461021f5780637c7bf2fa1461023d57610121565b80630869cfbc1461012657806321a1500a1461015f57806329cf54a31461017b578063350dadb714610197575b600080fd5b610140600480360381019061013b91906119dd565b6103f5565b6040516101569a99989796959493929190611f3c565b60405180910390f35b61017960048036038101906101749190611a06565b6108a9565b005b61019560048036038101906101909190611bb6565b610993565b005b61019f610c55565b6040516101ac9190612030565b60405180910390f35b6101cf60048036038101906101ca91906119dd565b610c5b565b6040516101dc9190611eb9565b60405180910390f35b6101ff60048036038101906101fa9190611a06565b610c9e565b005b610209610ea8565b6040516102169190611e97565b60405180910390f35b610227610f36565b6040516102349190611e97565b60405180910390f35b61025760048036038101906102529190611a9d565b610ff1565b005b610261611129565b60405161026e9190611e7c565b60405180910390f35b61027f611153565b60405161028c9190611e7c565b60405180910390f35b6102af60048036038101906102aa91906119dd565b611179565b6040516102bc9190611eb9565b60405180910390f35b6102cd611199565b6040516102da9190612030565b60405180910390f35b6102fd60048036038101906102f891906119dd565b61119f565b60405161030a9190611eb9565b60405180910390f35b61032d60048036038101906103289190611d28565b6111e2565b60405161033a9190611e7c565b60405180910390f35b61035d600480360381019061035891906119dd565b611221565b60405161036a9190611eb9565b60405180910390f35b61038d60048036038101906103889190611d28565b611241565b60405161039a9190611e7c565b60405180910390f35b6103bd60048036038101906103b891906119dd565b611280565b6040516103ce959493929190611ed4565b60405180910390f35b6103df61146e565b6040516103ec9190612030565b60405180910390f35b60016020528060005260406000206000915090508060000180546104189061218b565b80601f01602080910402602001604051908101604052809291908181526020018280546104449061218b565b80156104915780601f1061046657610100808354040283529160200191610491565b820191906000526020600020905b81548152906001019060200180831161047457829003601f168201915b5050505050908060010180546104a69061218b565b80601f01602080910402602001604051908101604052809291908181526020018280546104d29061218b565b801561051f5780601f106104f45761010080835404028352916020019161051f565b820191906000526020600020905b81548152906001019060200180831161050257829003601f168201915b5050505050908060020180546105349061218b565b80601f01602080910402602001604051908101604052809291908181526020018280546105609061218b565b80156105ad5780601f10610582576101008083540402835291602001916105ad565b820191906000526020600020905b81548152906001019060200180831161059057829003601f168201915b5050505050908060030180546105c29061218b565b80601f01602080910402602001604051908101604052809291908181526020018280546105ee9061218b565b801561063b5780601f106106105761010080835404028352916020019161063b565b820191906000526020600020905b81548152906001019060200180831161061e57829003601f168201915b5050505050908060040180546106509061218b565b80601f016020809104026020016040519081016040528092919081815260200182805461067c9061218b565b80156106c95780601f1061069e576101008083540402835291602001916106c9565b820191906000526020600020905b8154815290600101906020018083116106ac57829003601f168201915b5050505050908060050180546106de9061218b565b80601f016020809104026020016040519081016040528092919081815260200182805461070a9061218b565b80156107575780601f1061072c57610100808354040283529160200191610757565b820191906000526020600020905b81548152906001019060200180831161073a57829003601f168201915b50505050509080600601805461076c9061218b565b80601f01602080910402602001604051908101604052809291908181526020018280546107989061218b565b80156107e55780601f106107ba576101008083540402835291602001916107e5565b820191906000526020600020905b8154815290600101906020018083116107c857829003601f168201915b5050505050908060070180546107fa9061218b565b80601f01602080910402602001604051908101604052809291908181526020018280546108269061218b565b80156108735780601f1061084857610100808354040283529160200191610873565b820191906000526020600020905b81548152906001019060200180831161085657829003601f168201915b5050505050908060080160009054906101000a900473ffffffffffffffffffffffffffffffffffffffff1690806009015490508a565b600660003373ffffffffffffffffffffffffffffffffffffffff1673ffffffffffffffffffffffffffffffffffffffff16815260200190815260200160002060009054906101000a900460ff166108ff57600080fd5b6000600560003373ffffffffffffffffffffffffffffffffffffffff1673ffffffffffffffffffffffffffffffffffffffff16815260200190815260200160002090508381600001908051906020019061095a9291906118a8565b50828160010190805190602001906109739291906118a8565b508181600201908051906020019061098c9291906118a8565b5050505050565b600260003373ffffffffffffffffffffffffffffffffffffffff1673ffffffffffffffffffffffffffffffffffffffff16815260200190815260200160002060009054906101000a900460ff1615610a20576040517f08c379a0000000000000000000000000000000000000000000000000000000008152600401610a1790612010565b60405180910390fd5b6000600160003373ffffffffffffffffffffffffffffffffffffffff1673ffffffffffffffffffffffffffffffffffffffff168152602001908152602001600020905088816000019080519060200190610a7b9291906118a8565b5087816001019080519060200190610a949291906118a8565b5085816003019080519060200190610aad9291906118a8565b5086816002019080519060200190610ac69291906118a8565b5084816004019080519060200190610adf9291906118a8565b5083816005019080519060200190610af89291906118a8565b5082816006019080519060200190610b119291906118a8565b5081816007019080519060200190610b2a9291906118a8565b50338160080160006101000a81548173ffffffffffffffffffffffffffffffffffffffff021916908373ffffffffffffffffffffffffffffffffffffffff1602179055504281600901819055506000339080600181540180825580915050600190039060005260206000200160009091909190916101000a81548173ffffffffffffffffffffffffffffffffffffffff021916908373ffffffffffffffffffffffffffffffffffffffff1602179055506001600260003373ffffffffffffffffffffffffffffffffffffffff1673ffffffffffffffffffffffffffffffffffffffff16815260200190815260200160002060006101000a81548160ff02191690831515021790555060036000815480929190610c45906121bd565b9190505550505050505050505050565b60075481565b6000610c95600860009054906101000a900473ffffffffffffffffffffffffffffffffffffffff168360096114789092919063ffffffff16565b60019050919050565b600660003373ffffffffffffffffffffffffffffffffffffffff1673ffffffffffffffffffffffffffffffffffffffff16815260200190815260200160002060009054906101000a900460ff1615610cf557600080fd5b6000600560003373ffffffffffffffffffffffffffffffffffffffff1673ffffffffffffffffffffffffffffffffffffffff168152602001908152602001600020905083816000019080519060200190610d509291906118a8565b5082816001019080519060200190610d699291906118a8565b5081816002019080519060200190610d829291906118a8565b50338160030160006101000a81548173ffffffffffffffffffffffffffffffffffffffff021916908373ffffffffffffffffffffffffffffffffffffffff1602179055504281600401819055506004339080600181540180825580915050600190039060005260206000200160009091909190916101000a81548173ffffffffffffffffffffffffffffffffffffffff021916908373ffffffffffffffffffffffffffffffffffffffff1602179055506001600660003373ffffffffffffffffffffffffffffffffffffffff1673ffffffffffffffffffffffffffffffffffffffff16815260200190815260200160002060006101000a81548160ff02191690831515021790555060076000815480929190610e9d906121bd565b919050555050505050565b60606004805480602002602001604051908101604052809291908181526020018280548015610f2c57602002820191906000526020600020905b8160009054906101000a900473ffffffffffffffffffffffffffffffffffffffff1673ffffffffffffffffffffffffffffffffffffffff1681526020019060010190808311610ee2575b5050505050905090565b6060610fec6009600860009054906101000a900473ffffffffffffffffffffffffffffffffffffffff166000805480602002602001604051908101604052809291908181526020018280548015610fe257602002820191906000526020600020905b8160009054906101000a900473ffffffffffffffffffffffffffffffffffffffff1673ffffffffffffffffffffffffffffffffffffffff1681526020019060010190808311610f98575b5050505050611511565b905090565b600260003373ffffffffffffffffffffffffffffffffffffffff1673ffffffffffffffffffffffffffffffffffffffff16815260200190815260200160002060009054906101000a900460ff1661104757600080fd5b6000600160003373ffffffffffffffffffffffffffffffffffffffff1673ffffffffffffffffffffffffffffffffffffffff1681526020019081526020016000209050868160000190805190602001906110a29291906118a8565b50858160010190805190602001906110bb9291906118a8565b50848160040190805190602001906110d49291906118a8565b50838160050190805190602001906110ed9291906118a8565b50828160060190805190602001906111069291906118a8565b508181600701908051906020019061111f9291906118a8565b5050505050505050565b6000600860009054906101000a900473ffffffffffffffffffffffffffffffffffffffff16905090565b600860009054906101000a900473ffffffffffffffffffffffffffffffffffffffff1681565b60026020528060005260406000206000915054906101000a900460ff1681565b60035481565b60006111d9600860009054906101000a900473ffffffffffffffffffffffffffffffffffffffff1683600961180f9092919063ffffffff16565b60019050919050565b600081815481106111f257600080fd5b906000526020600020016000915054906101000a900473ffffffffffffffffffffffffffffffffffffffff1681565b60066020528060005260406000206000915054906101000a900460ff1681565b6004818154811061125157600080fd5b906000526020600020016000915054906101000a900473ffffffffffffffffffffffffffffffffffffffff1681565b60056020528060005260406000206000915090508060000180546112a39061218b565b80601f01602080910402602001604051908101604052809291908181526020018280546112cf9061218b565b801561131c5780601f106112f15761010080835404028352916020019161131c565b820191906000526020600020905b8154815290600101906020018083116112ff57829003601f168201915b5050505050908060010180546113319061218b565b80601f016020809104026020016040519081016040528092919081815260200182805461135d9061218b565b80156113aa5780601f1061137f576101008083540402835291602001916113aa565b820191906000526020600020905b81548152906001019060200180831161138d57829003601f168201915b5050505050908060020180546113bf9061218b565b80601f01602080910402602001604051908101604052809291908181526020018280546113eb9061218b565b80156114385780601f1061140d57610100808354040283529160200191611438565b820191906000526020600020905b81548152906001019060200180831161141b57829003601f168201915b5050505050908060030160009054906101000a900473ffffffffffffffffffffffffffffffffffffffff16908060040154905085565b6000600754905090565b60018360008473ffffffffffffffffffffffffffffffffffffffff1673ffffffffffffffffffffffffffffffffffffffff16815260200190815260200160002060008373ffffffffffffffffffffffffffffffffffffffff1673ffffffffffffffffffffffffffffffffffffffff16815260200190815260200160002060006101000a81548160ff021916908315150217905550505050565b60606000805b835181101561161657600084828151811061155b577f4e487b7100000000000000000000000000000000000000000000000000000000600052603260045260246000fd5b602002602001015190508660008773ffffffffffffffffffffffffffffffffffffffff1673ffffffffffffffffffffffffffffffffffffffff16815260200190815260200160002060008273ffffffffffffffffffffffffffffffffffffffff1673ffffffffffffffffffffffffffffffffffffffff16815260200190815260200160002060009054906101000a900460ff16156116025782806115fe906121bd565b9350505b50808061160e906121bd565b915050611517565b5060008167ffffffffffffffff811115611659577f4e487b7100000000000000000000000000000000000000000000000000000000600052604160045260246000fd5b6040519080825280602002602001820160405280156116875781602001602082028036833780820191505090505b5090506000805b85518110156118015760008682815181106116d2577f4e487b7100000000000000000000000000000000000000000000000000000000600052603260045260246000fd5b602002602001015190508860008973ffffffffffffffffffffffffffffffffffffffff1673ffffffffffffffffffffffffffffffffffffffff16815260200190815260200160002060008273ffffffffffffffffffffffffffffffffffffffff1673ffffffffffffffffffffffffffffffffffffffff16815260200190815260200160002060009054906101000a900460ff16156117ed57808484815181106117a4577f4e487b7100000000000000000000000000000000000000000000000000000000600052603260045260246000fd5b602002602001019073ffffffffffffffffffffffffffffffffffffffff16908173ffffffffffffffffffffffffffffffffffffffff168152505082806117e9906121bd565b9350505b5080806117f9906121bd565b91505061168e565b508193505050509392505050565b60008360008473ffffffffffffffffffffffffffffffffffffffff1673ffffffffffffffffffffffffffffffffffffffff16815260200190815260200160002060008373ffffffffffffffffffffffffffffffffffffffff1673ffffffffffffffffffffffffffffffffffffffff16815260200190815260200160002060006101000a81548160ff021916908315150217905550505050565b8280546118b49061218b565b90600052602060002090601f0160209004810192826118d6576000855561191d565b82601f106118ef57805160ff191683800117855561191d565b8280016001018555821561191d579182015b8281111561191c578251825591602001919060010190611901565b5b50905061192a919061192e565b5090565b5b8082111561194757600081600090555060010161192f565b5090565b600061195e6119598461207c565b61204b565b90508281526020810184848401111561197657600080fd5b611981848285612149565b509392505050565b600081359050611998816122a4565b92915050565b600082601f8301126119af57600080fd5b81356119bf84826020860161194b565b91505092915050565b6000813590506119d7816122bb565b92915050565b6000602082840312156119ef57600080fd5b60006119fd84828501611989565b91505092915050565b600080600060608486031215611a1b57600080fd5b600084013567ffffffffffffffff811115611a3557600080fd5b611a418682870161199e565b935050602084013567ffffffffffffffff811115611a5e57600080fd5b611a6a8682870161199e565b925050604084013567ffffffffffffffff811115611a8757600080fd5b611a938682870161199e565b9150509250925092565b60008060008060008060c08789031215611ab657600080fd5b600087013567ffffffffffffffff811115611ad057600080fd5b611adc89828a0161199e565b965050602087013567ffffffffffffffff811115611af957600080fd5b611b0589828a0161199e565b955050604087013567ffffffffffffffff811115611b2257600080fd5b611b2e89828a0161199e565b945050606087013567ffffffffffffffff811115611b4b57600080fd5b611b5789828a0161199e565b935050608087013567ffffffffffffffff811115611b7457600080fd5b611b8089828a0161199e565b92505060a087013567ffffffffffffffff811115611b9d57600080fd5b611ba989828a0161199e565b9150509295509295509295565b600080600080600080600080610100898b031215611bd357600080fd5b600089013567ffffffffffffffff811115611bed57600080fd5b611bf98b828c0161199e565b985050602089013567ffffffffffffffff811115611c1657600080fd5b611c228b828c0161199e565b975050604089013567ffffffffffffffff811115611c3f57600080fd5b611c4b8b828c0161199e565b965050606089013567ffffffffffffffff811115611c6857600080fd5b611c748b828c0161199e565b955050608089013567ffffffffffffffff811115611c9157600080fd5b611c9d8b828c0161199e565b94505060a089013567ffffffffffffffff811115611cba57600080fd5b611cc68b828c0161199e565b93505060c089013567ffffffffffffffff811115611ce357600080fd5b611cef8b828c0161199e565b92505060e089013567ffffffffffffffff811115611d0c57600080fd5b611d188b828c0161199e565b9150509295985092959890939650565b600060208284031215611d3a57600080fd5b6000611d48848285016119c8565b91505092915050565b6000611d5d8383611d69565b60208301905092915050565b611d7281612101565b82525050565b611d8181612101565b82525050565b6000611d92826120bc565b611d9c81856120df565b9350611da7836120ac565b8060005b83811015611dd8578151611dbf8882611d51565b9750611dca836120d2565b925050600181019050611dab565b5085935050505092915050565b611dee81612113565b82525050565b6000611dff826120c7565b611e0981856120f0565b9350611e19818560208601612158565b611e2281612293565b840191505092915050565b6000611e3a601a836120f0565b91507f50617469656e7420616c726561647920726567697374657265640000000000006000830152602082019050919050565b611e768161213f565b82525050565b6000602082019050611e916000830184611d78565b92915050565b60006020820190508181036000830152611eb18184611d87565b905092915050565b6000602082019050611ece6000830184611de5565b92915050565b600060a0820190508181036000830152611eee8188611df4565b90508181036020830152611f028187611df4565b90508181036040830152611f168186611df4565b9050611f256060830185611d78565b611f326080830184611e6d565b9695505050505050565b6000610140820190508181036000830152611f57818d611df4565b90508181036020830152611f6b818c611df4565b90508181036040830152611f7f818b611df4565b90508181036060830152611f93818a611df4565b90508181036080830152611fa78189611df4565b905081810360a0830152611fbb8188611df4565b905081810360c0830152611fcf8187611df4565b905081810360e0830152611fe38186611df4565b9050611ff3610100830185611d78565b612001610120830184611e6d565b9b9a5050505050505050505050565b6000602082019050818103600083015261202981611e2d565b9050919050565b60006020820190506120456000830184611e6d565b92915050565b6000604051905081810181811067ffffffffffffffff8211171561207257612071612264565b5b8060405250919050565b600067ffffffffffffffff82111561209757612096612264565b5b601f19601f8301169050602081019050919050565b6000819050602082019050919050565b600081519050919050565b600081519050919050565b6000602082019050919050565b600082825260208201905092915050565b600082825260208201905092915050565b600061210c8261211f565b9050919050565b60008115159050919050565b600073ffffffffffffffffffffffffffffffffffffffff82169050919050565b6000819050919050565b82818337600083830152505050565b60005b8381101561217657808201518184015260208101905061215b565b83811115612185576000848401525b50505050565b600060028204905060018216806121a357607f821691505b602082108114156121b7576121b6612235565b5b50919050565b60006121c88261213f565b91507fffffffffffffffffffffffffffffffffffffffffffffffffffffffffffffffff8214156121fb576121fa612206565b5b600182019050919050565b7f4e487b7100000000000000000000000000000000000000000000000000000000600052601160045260246000fd5b7f4e487b7100000000000000000000000000000000000000000000000000000000600052602260045260246000fd5b7f4e487b7100000000000000000000000000000000000000000000000000000000600052604160045260246000fd5b6000601f19601f8301169050919050565b6122ad81612101565b81146122b857600080fd5b50565b6122c48161213f565b81146122cf57600080fd5b5056fea26469706673582212206860c94adcd0cb1890e46ffa86922d630714e68cac96811906207855bbda71b164736f6c63430008000033",
  "immutableReferences": {},
  "source": "// SPDX-License-Identifier: MIT\r\npragma solidity ^0.8.0;\r\n\r\nimport \"./PermissionLibrary.sol\";\r\nimport \"./Patient.sol\";\r\nimport \"./Hospital.sol\";\r\n\r\n\r\n//Main Contract\r\ncontract Record is PatientRecords, HospitalRecords {\r\n\r\n    using PermissionLibrary for mapping(address => mapping(address => bool));\r\n\r\n    address public owner;\r\n\r\n    mapping(address => mapping(address => bool)) isApproved;\r\n\r\n    // Constructor\r\n    constructor() {\r\n        owner = msg.sender;\r\n    }\r\n\r\n    // Function to get the owner of the contract; Kung sino yung currently na naka login, kukunin address non\r\n    function getOwner() public view returns (address) {\r\n        return owner;\r\n    }\r\n\r\n    // Owner of the record must give permission to a hospital, only then they are allowed to view records\r\n    function givePermission(address _address) public returns (bool success) {\r\n        isApproved.givePermission(owner, _address);\r\n        return true;\r\n    }\r\n\r\n    // Owner of the record can take away the permission granted to hospital to view records\r\n    function revokePermission(address _address) public returns (bool success) {\r\n        isApproved.revokePermission(owner, _address);\r\n        return true;\r\n    }\r\n\r\n    // Function to retrieve all hospitals with permission to view records\r\n    function getAllAuthorizedHospitals() public view returns (address[] memory) {\r\n        return PermissionLibrary.getAllAuthorizedHospitals(isApproved, owner, patientList);\r\n    }\r\n}\r\n",
  "sourcePath": "C:\\Users\\Abby\\Desktop\\APPCON 2023\\MediVerse-Web3-Dapp\\contracts\\Record.sol",
  "compiler": {
    "name": "solc",
    "version": "0.8.0+commit.c7dfd78e.Emscripten.clang"
  },
  "schemaVersion": "3.4.16",
  "updatedAt": "2024-02-19T16:06:39.837Z",
  "networkType": "ethereum",
  "devdoc": {
    "kind": "dev",
    "methods": {},
    "version": 1
  },
  "userdoc": {
    "kind": "user",
    "methods": {},
    "version": 1
  }
}