{
  "contractName": "Records",
  "abi": [
    {
      "inputs": [],
      "stateMutability": "nonpayable",
      "type": "constructor"
    },
    {
      "inputs": [
        {
          "internalType": "string",
          "name": "_hospitalName",
          "type": "string"
        },
        {
          "internalType": "string",
          "name": "_contactNum",
          "type": "string"
        },
        {
          "internalType": "string",
          "name": "_hospitalAddress",
          "type": "string"
        }
      ],
      "name": "editHospitalProfile",
      "outputs": [],
      "stateMutability": "nonpayable",
      "type": "function"
    },
    {
      "inputs": [
        {
          "internalType": "string",
          "name": "_name",
          "type": "string"
        },
        {
          "internalType": "string",
          "name": "_phone",
          "type": "string"
        },
        {
          "internalType": "string",
          "name": "_dateOfBirth",
          "type": "string"
        },
        {
          "internalType": "string",
          "name": "_height",
          "type": "string"
        },
        {
          "internalType": "string",
          "name": "_weight",
          "type": "string"
        },
        {
          "internalType": "string",
          "name": "_houseAddress",
          "type": "string"
        }
      ],
      "name": "editPatientProfile",
      "outputs": [],
      "stateMutability": "nonpayable",
      "type": "function"
    },
    {
      "inputs": [],
      "name": "hospitalCount",
      "outputs": [
        {
          "internalType": "uint256",
          "name": "",
          "type": "uint256"
        }
      ],
      "stateMutability": "view",
      "type": "function",
      "constant": true
    },
    {
      "inputs": [
        {
          "internalType": "uint256",
          "name": "",
          "type": "uint256"
        }
      ],
      "name": "hospitalList",
      "outputs": [
        {
          "internalType": "address",
          "name": "",
          "type": "address"
        }
      ],
      "stateMutability": "view",
      "type": "function",
      "constant": true
    },
    {
      "inputs": [
        {
          "internalType": "address",
          "name": "",
          "type": "address"
        }
      ],
      "name": "hospitalizationRecord",
      "outputs": [
        {
          "internalType": "address",
          "name": "hospitalAddr",
          "type": "address"
        },
        {
          "internalType": "address",
          "name": "patientAddr",
          "type": "address"
        },
        {
          "internalType": "string",
          "name": "admissionDate",
          "type": "string"
        },
        {
          "internalType": "string",
          "name": "dischargeDate",
          "type": "string"
        },
        {
          "internalType": "string",
          "name": "reasonForHospitalization",
          "type": "string"
        },
        {
          "internalType": "string",
          "name": "admittingDiagnosis",
          "type": "string"
        },
        {
          "internalType": "string",
          "name": "dischargeDiagnosis",
          "type": "string"
        },
        {
          "internalType": "string",
          "name": "hospitalName",
          "type": "string"
        }
      ],
      "stateMutability": "view",
      "type": "function",
      "constant": true
    },
    {
      "inputs": [
        {
          "internalType": "uint256",
          "name": "",
          "type": "uint256"
        }
      ],
      "name": "hospitalizationRecords",
      "outputs": [
        {
          "internalType": "address",
          "name": "",
          "type": "address"
        }
      ],
      "stateMutability": "view",
      "type": "function",
      "constant": true
    },
    {
      "inputs": [
        {
          "internalType": "address",
          "name": "",
          "type": "address"
        }
      ],
      "name": "hospitals",
      "outputs": [
        {
          "internalType": "string",
          "name": "hospitalName",
          "type": "string"
        },
        {
          "internalType": "string",
          "name": "contactNum",
          "type": "string"
        },
        {
          "internalType": "string",
          "name": "hospitalAddress",
          "type": "string"
        },
        {
          "internalType": "address",
          "name": "addr",
          "type": "address"
        },
        {
          "internalType": "uint256",
          "name": "date",
          "type": "uint256"
        }
      ],
      "stateMutability": "view",
      "type": "function",
      "constant": true
    },
    {
      "inputs": [
        {
          "internalType": "address",
          "name": "",
          "type": "address"
        }
      ],
      "name": "isHospital",
      "outputs": [
        {
          "internalType": "bool",
          "name": "",
          "type": "bool"
        }
      ],
      "stateMutability": "view",
      "type": "function",
      "constant": true
    },
    {
      "inputs": [
        {
          "internalType": "address",
          "name": "",
          "type": "address"
        }
      ],
      "name": "isPatient",
      "outputs": [
        {
          "internalType": "bool",
          "name": "",
          "type": "bool"
        }
      ],
      "stateMutability": "view",
      "type": "function",
      "constant": true
    },
    {
      "inputs": [
        {
          "internalType": "uint256",
          "name": "",
          "type": "uint256"
        }
      ],
      "name": "laboratoryHistories",
      "outputs": [
        {
          "internalType": "address",
          "name": "",
          "type": "address"
        }
      ],
      "stateMutability": "view",
      "type": "function",
      "constant": true
    },
    {
      "inputs": [
        {
          "internalType": "address",
          "name": "",
          "type": "address"
        }
      ],
      "name": "laboratoryHistory",
      "outputs": [
        {
          "internalType": "address",
          "name": "hospitalAddr",
          "type": "address"
        },
        {
          "internalType": "address",
          "name": "patientAddr",
          "type": "address"
        },
        {
          "internalType": "string",
          "name": "testType",
          "type": "string"
        },
        {
          "internalType": "string",
          "name": "hospital",
          "type": "string"
        },
        {
          "internalType": "uint256",
          "name": "dateOfTest",
          "type": "uint256"
        },
        {
          "internalType": "string",
          "name": "orderingPhysician",
          "type": "string"
        },
        {
          "internalType": "string",
          "name": "testCategory",
          "type": "string"
        },
        {
          "internalType": "string",
          "name": "resultsIpfsHash",
          "type": "string"
        },
        {
          "internalType": "string",
          "name": "reviewingPhysician",
          "type": "string"
        },
        {
          "internalType": "string",
          "name": "interpretation",
          "type": "string"
        }
      ],
      "stateMutability": "view",
      "type": "function",
      "constant": true
    },
    {
      "inputs": [
        {
          "internalType": "uint256",
          "name": "",
          "type": "uint256"
        }
      ],
      "name": "medicalHistories",
      "outputs": [
        {
          "internalType": "address",
          "name": "",
          "type": "address"
        }
      ],
      "stateMutability": "view",
      "type": "function",
      "constant": true
    },
    {
      "inputs": [
        {
          "internalType": "address",
          "name": "",
          "type": "address"
        }
      ],
      "name": "medicalHistory",
      "outputs": [
        {
          "internalType": "address",
          "name": "hospitalAddr",
          "type": "address"
        },
        {
          "internalType": "address",
          "name": "patientAddr",
          "type": "address"
        },
        {
          "internalType": "string",
          "name": "physician",
          "type": "string"
        },
        {
          "internalType": "uint256",
          "name": "dateOfDiagnosis",
          "type": "uint256"
        },
        {
          "internalType": "string",
          "name": "diagnosis",
          "type": "string"
        },
        {
          "internalType": "string",
          "name": "symptoms",
          "type": "string"
        },
        {
          "internalType": "string",
          "name": "durationSeverity",
          "type": "string"
        },
        {
          "internalType": "string",
          "name": "signs",
          "type": "string"
        },
        {
          "internalType": "string",
          "name": "relevantMedicalHistory",
          "type": "string"
        }
      ],
      "stateMutability": "view",
      "type": "function",
      "constant": true
    },
    {
      "inputs": [
        {
          "internalType": "address",
          "name": "",
          "type": "address"
        }
      ],
      "name": "medicalProcedure",
      "outputs": [
        {
          "internalType": "address",
          "name": "hospitalAddr",
          "type": "address"
        },
        {
          "internalType": "address",
          "name": "patientAddr",
          "type": "address"
        },
        {
          "internalType": "string",
          "name": "procedureType",
          "type": "string"
        },
        {
          "internalType": "string",
          "name": "hospital",
          "type": "string"
        },
        {
          "internalType": "string",
          "name": "medicalTeam",
          "type": "string"
        },
        {
          "internalType": "string",
          "name": "procedureDescription",
          "type": "string"
        },
        {
          "internalType": "string",
          "name": "procedureComplications",
          "type": "string"
        },
        {
          "internalType": "string",
          "name": "dateOfProcedure",
          "type": "string"
        },
        {
          "internalType": "string",
          "name": "preOperativeInstructions",
          "type": "string"
        },
        {
          "internalType": "string",
          "name": "medication",
          "type": "string"
        },
        {
          "internalType": "string",
          "name": "purpose",
          "type": "string"
        }
      ],
      "stateMutability": "view",
      "type": "function",
      "constant": true
    },
    {
      "inputs": [
        {
          "internalType": "uint256",
          "name": "",
          "type": "uint256"
        }
      ],
      "name": "medicalProcedures",
      "outputs": [
        {
          "internalType": "address",
          "name": "",
          "type": "address"
        }
      ],
      "stateMutability": "view",
      "type": "function",
      "constant": true
    },
    {
      "inputs": [
        {
          "internalType": "uint256",
          "name": "",
          "type": "uint256"
        }
      ],
      "name": "medicationPrescriptions",
      "outputs": [
        {
          "internalType": "address",
          "name": "",
          "type": "address"
        }
      ],
      "stateMutability": "view",
      "type": "function",
      "constant": true
    },
    {
      "inputs": [],
      "name": "owner",
      "outputs": [
        {
          "internalType": "address",
          "name": "",
          "type": "address"
        }
      ],
      "stateMutability": "view",
      "type": "function",
      "constant": true
    },
    {
      "inputs": [],
      "name": "patientCount",
      "outputs": [
        {
          "internalType": "uint256",
          "name": "",
          "type": "uint256"
        }
      ],
      "stateMutability": "view",
      "type": "function",
      "constant": true
    },
    {
      "inputs": [
        {
          "internalType": "uint256",
          "name": "",
          "type": "uint256"
        }
      ],
      "name": "patientList",
      "outputs": [
        {
          "internalType": "address",
          "name": "",
          "type": "address"
        }
      ],
      "stateMutability": "view",
      "type": "function",
      "constant": true
    },
    {
      "inputs": [
        {
          "internalType": "address",
          "name": "",
          "type": "address"
        }
      ],
      "name": "patients",
      "outputs": [
        {
          "internalType": "string",
          "name": "name",
          "type": "string"
        },
        {
          "internalType": "string",
          "name": "phone",
          "type": "string"
        },
        {
          "internalType": "string",
          "name": "gender",
          "type": "string"
        },
        {
          "internalType": "string",
          "name": "age",
          "type": "string"
        },
        {
          "internalType": "string",
          "name": "dateOfBirth",
          "type": "string"
        },
        {
          "internalType": "string",
          "name": "height",
          "type": "string"
        },
        {
          "internalType": "string",
          "name": "weight",
          "type": "string"
        },
        {
          "internalType": "string",
          "name": "houseAddress",
          "type": "string"
        },
        {
          "internalType": "address",
          "name": "addr",
          "type": "address"
        },
        {
          "internalType": "uint256",
          "name": "date",
          "type": "uint256"
        }
      ],
      "stateMutability": "view",
      "type": "function",
      "constant": true
    },
    {
      "inputs": [
        {
          "internalType": "string",
          "name": "_hospitalName",
          "type": "string"
        },
        {
          "internalType": "string",
          "name": "_contactNum",
          "type": "string"
        },
        {
          "internalType": "string",
          "name": "_hospitalAddress",
          "type": "string"
        }
      ],
      "name": "registerHospital",
      "outputs": [],
      "stateMutability": "nonpayable",
      "type": "function"
    },
    {
      "inputs": [
        {
          "internalType": "string",
          "name": "_name",
          "type": "string"
        },
        {
          "internalType": "string",
          "name": "_phone",
          "type": "string"
        },
        {
          "internalType": "string",
          "name": "_gender",
          "type": "string"
        },
        {
          "internalType": "string",
          "name": "_age",
          "type": "string"
        },
        {
          "internalType": "string",
          "name": "_dateOfBirth",
          "type": "string"
        },
        {
          "internalType": "string",
          "name": "_height",
          "type": "string"
        },
        {
          "internalType": "string",
          "name": "_weight",
          "type": "string"
        },
        {
          "internalType": "string",
          "name": "_houseAddress",
          "type": "string"
        }
      ],
      "name": "registerPatient",
      "outputs": [],
      "stateMutability": "nonpayable",
      "type": "function"
    },
    {
      "inputs": [],
      "name": "getPatients",
      "outputs": [
        {
          "internalType": "address[]",
          "name": "",
          "type": "address[]"
        }
      ],
      "stateMutability": "view",
      "type": "function",
      "constant": true
    },
    {
      "inputs": [],
      "name": "getHospitals",
      "outputs": [
        {
          "internalType": "address[]",
          "name": "",
          "type": "address[]"
        }
      ],
      "stateMutability": "view",
      "type": "function",
      "constant": true
    },
    {
      "inputs": [
        {
          "components": [
            {
              "internalType": "address",
              "name": "hospitalAddr",
              "type": "address"
            },
            {
              "internalType": "address",
              "name": "patientAddr",
              "type": "address"
            },
            {
              "internalType": "string",
              "name": "physician",
              "type": "string"
            },
            {
              "internalType": "uint256",
              "name": "dateOfDiagnosis",
              "type": "uint256"
            },
            {
              "internalType": "string",
              "name": "diagnosis",
              "type": "string"
            },
            {
              "internalType": "string",
              "name": "symptoms",
              "type": "string"
            },
            {
              "internalType": "string",
              "name": "durationSeverity",
              "type": "string"
            },
            {
              "internalType": "string",
              "name": "signs",
              "type": "string"
            },
            {
              "internalType": "string",
              "name": "relevantMedicalHistory",
              "type": "string"
            }
          ],
          "internalType": "struct Records.MedicalHistory",
          "name": "newRecord",
          "type": "tuple"
        }
      ],
      "name": "addNewPatientMedicalHistory",
      "outputs": [],
      "stateMutability": "nonpayable",
      "type": "function"
    }
  ],
  "bytecode": "0x60806040526000600355600060075534801561001a57600080fd5b5033600860006101000a81548173ffffffffffffffffffffffffffffffffffffffff021916908373ffffffffffffffffffffffffffffffffffffffff1602179055506140d68061006b6000396000f3fe608060405234801561001057600080fd5b50600436106101735760003560e01c806387a75cc3116100de578063a9d46dd411610097578063c6f470be11610071578063c6f470be146104e2578063c82412b914610519578063f093cf8014610549578063f62647981461057d57610173565b8063a9d46dd414610452578063babb1d4114610482578063bdf6c673146104b257610173565b806387a75cc3146103435780638da5cb5b146103735780638f022899146103915780638f9c79ed146103ca5780639579e0b4146103fa578063a0303c411461043457610173565b806329cf54a31161013057806329cf54a314610271578063350dadb71461028d578063526b44ac146102ab578063627d9b4e146102c757806363e36baf146102f75780637c7bf2fa1461032757610173565b806306e767181461017857806307e590a6146101a85780630869cfbc146101e057806312ad1c37146102195780631aecb28b1461023757806321a1500a14610255575b600080fd5b610192600480360381019061018d9190613734565b610599565b60405161019f9190613914565b60405180910390f35b6101c260048036038101906101bd91906133a8565b6105d8565b6040516101d799989796959493929190613b8e565b60405180910390f35b6101fa60048036038101906101f591906133a8565b610996565b6040516102109a99989796959493929190613cea565b60405180910390f35b610221610e4a565b60405161022e9190613c45565b60405180910390f35b61023f610ed8565b60405161024c9190613c45565b60405180910390f35b61026f600480360381019061026a91906133d1565b610f66565b005b61028b60048036038101906102869190613581565b611050565b005b610295611750565b6040516102a29190613dfe565b60405180910390f35b6102c560048036038101906102c091906133d1565b611756565b005b6102e160048036038101906102dc9190613734565b611b47565b6040516102ee9190613914565b60405180910390f35b610311600480360381019061030c9190613734565b611b86565b60405161031e9190613914565b60405180910390f35b610341600480360381019061033c9190613468565b611bc5565b005b61035d60048036038101906103589190613734565b611cfd565b60405161036a9190613914565b60405180910390f35b61037b611d3c565b6040516103889190613914565b60405180910390f35b6103ab60048036038101906103a691906133a8565b611d62565b6040516103c19a99989796959493929190613ac1565b60405180910390f35b6103e460048036038101906103df91906133a8565b6121ae565b6040516103f19190613c67565b60405180910390f35b610414600480360381019061040f91906133a8565b6121ce565b60405161042b9b9a999897969594939291906139d7565b60405180910390f35b61043c612730565b6040516104499190613dfe565b60405180910390f35b61046c60048036038101906104679190613734565b612736565b6040516104799190613914565b60405180910390f35b61049c60048036038101906104979190613734565b612775565b6040516104a99190613914565b60405180910390f35b6104cc60048036038101906104c791906133a8565b6127b4565b6040516104d99190613c67565b60405180910390f35b6104fc60048036038101906104f791906133a8565b6127d4565b60405161051098979695949392919061392f565b60405180910390f35b610533600480360381019061052e9190613734565b612b8c565b6040516105409190613914565b60405180910390f35b610563600480360381019061055e91906133a8565b612bcb565b604051610574959493929190613c82565b60405180910390f35b610597600480360381019061059291906136f3565b612db9565b005b600b81815481106105a957600080fd5b906000526020600020016000915054906101000a900473ffffffffffffffffffffffffffffffffffffffff1681565b600e6020528060005260406000206000915090508060000160009054906101000a900473ffffffffffffffffffffffffffffffffffffffff16908060010160009054906101000a900473ffffffffffffffffffffffffffffffffffffffff169080600201805461064790613f59565b80601f016020809104026020016040519081016040528092919081815260200182805461067390613f59565b80156106c05780601f10610695576101008083540402835291602001916106c0565b820191906000526020600020905b8154815290600101906020018083116106a357829003601f168201915b5050505050908060030154908060040180546106db90613f59565b80601f016020809104026020016040519081016040528092919081815260200182805461070790613f59565b80156107545780601f1061072957610100808354040283529160200191610754565b820191906000526020600020905b81548152906001019060200180831161073757829003601f168201915b50505050509080600501805461076990613f59565b80601f016020809104026020016040519081016040528092919081815260200182805461079590613f59565b80156107e25780601f106107b7576101008083540402835291602001916107e2565b820191906000526020600020905b8154815290600101906020018083116107c557829003601f168201915b5050505050908060060180546107f790613f59565b80601f016020809104026020016040519081016040528092919081815260200182805461082390613f59565b80156108705780601f1061084557610100808354040283529160200191610870565b820191906000526020600020905b81548152906001019060200180831161085357829003601f168201915b50505050509080600701805461088590613f59565b80601f01602080910402602001604051908101604052809291908181526020018280546108b190613f59565b80156108fe5780601f106108d3576101008083540402835291602001916108fe565b820191906000526020600020905b8154815290600101906020018083116108e157829003601f168201915b50505050509080600801805461091390613f59565b80601f016020809104026020016040519081016040528092919081815260200182805461093f90613f59565b801561098c5780601f106109615761010080835404028352916020019161098c565b820191906000526020600020905b81548152906001019060200180831161096f57829003601f168201915b5050505050905089565b60016020528060005260406000206000915090508060000180546109b990613f59565b80601f01602080910402602001604051908101604052809291908181526020018280546109e590613f59565b8015610a325780601f10610a0757610100808354040283529160200191610a32565b820191906000526020600020905b815481529060010190602001808311610a1557829003601f168201915b505050505090806001018054610a4790613f59565b80601f0160208091040260200160405190810160405280929190818152602001828054610a7390613f59565b8015610ac05780601f10610a9557610100808354040283529160200191610ac0565b820191906000526020600020905b815481529060010190602001808311610aa357829003601f168201915b505050505090806002018054610ad590613f59565b80601f0160208091040260200160405190810160405280929190818152602001828054610b0190613f59565b8015610b4e5780601f10610b2357610100808354040283529160200191610b4e565b820191906000526020600020905b815481529060010190602001808311610b3157829003601f168201915b505050505090806003018054610b6390613f59565b80601f0160208091040260200160405190810160405280929190818152602001828054610b8f90613f59565b8015610bdc5780601f10610bb157610100808354040283529160200191610bdc565b820191906000526020600020905b815481529060010190602001808311610bbf57829003601f168201915b505050505090806004018054610bf190613f59565b80601f0160208091040260200160405190810160405280929190818152602001828054610c1d90613f59565b8015610c6a5780601f10610c3f57610100808354040283529160200191610c6a565b820191906000526020600020905b815481529060010190602001808311610c4d57829003601f168201915b505050505090806005018054610c7f90613f59565b80601f0160208091040260200160405190810160405280929190818152602001828054610cab90613f59565b8015610cf85780601f10610ccd57610100808354040283529160200191610cf8565b820191906000526020600020905b815481529060010190602001808311610cdb57829003601f168201915b505050505090806006018054610d0d90613f59565b80601f0160208091040260200160405190810160405280929190818152602001828054610d3990613f59565b8015610d865780601f10610d5b57610100808354040283529160200191610d86565b820191906000526020600020905b815481529060010190602001808311610d6957829003601f168201915b505050505090806007018054610d9b90613f59565b80601f0160208091040260200160405190810160405280929190818152602001828054610dc790613f59565b8015610e145780601f10610de957610100808354040283529160200191610e14565b820191906000526020600020905b815481529060010190602001808311610df757829003601f168201915b5050505050908060080160009054906101000a900473ffffffffffffffffffffffffffffffffffffffff1690806009015490508a565b60606000805480602002602001604051908101604052809291908181526020018280548015610ece57602002820191906000526020600020905b8160009054906101000a900473ffffffffffffffffffffffffffffffffffffffff1673ffffffffffffffffffffffffffffffffffffffff1681526020019060010190808311610e84575b5050505050905090565b60606004805480602002602001604051908101604052809291908181526020018280548015610f5c57602002820191906000526020600020905b8160009054906101000a900473ffffffffffffffffffffffffffffffffffffffff1673ffffffffffffffffffffffffffffffffffffffff1681526020019060010190808311610f12575b5050505050905090565b600660003373ffffffffffffffffffffffffffffffffffffffff1673ffffffffffffffffffffffffffffffffffffffff16815260200190815260200160002060009054906101000a900460ff16610fbc57600080fd5b6000600560003373ffffffffffffffffffffffffffffffffffffffff1673ffffffffffffffffffffffffffffffffffffffff168152602001908152602001600020905083816000019080519060200190611017929190613107565b5082816001019080519060200190611030929190613107565b5081816002019080519060200190611049929190613107565b5050505050565b600260003373ffffffffffffffffffffffffffffffffffffffff1673ffffffffffffffffffffffffffffffffffffffff16815260200190815260200160002060009054906101000a900460ff16156110a757600080fd5b6000600160003373ffffffffffffffffffffffffffffffffffffffff1673ffffffffffffffffffffffffffffffffffffffff1681526020019081526020016000206040518061014001604052908160008201805461110490613f59565b80601f016020809104026020016040519081016040528092919081815260200182805461113090613f59565b801561117d5780601f106111525761010080835404028352916020019161117d565b820191906000526020600020905b81548152906001019060200180831161116057829003601f168201915b5050505050815260200160018201805461119690613f59565b80601f01602080910402602001604051908101604052809291908181526020018280546111c290613f59565b801561120f5780601f106111e45761010080835404028352916020019161120f565b820191906000526020600020905b8154815290600101906020018083116111f257829003601f168201915b5050505050815260200160028201805461122890613f59565b80601f016020809104026020016040519081016040528092919081815260200182805461125490613f59565b80156112a15780601f10611276576101008083540402835291602001916112a1565b820191906000526020600020905b81548152906001019060200180831161128457829003601f168201915b505050505081526020016003820180546112ba90613f59565b80601f01602080910402602001604051908101604052809291908181526020018280546112e690613f59565b80156113335780601f1061130857610100808354040283529160200191611333565b820191906000526020600020905b81548152906001019060200180831161131657829003601f168201915b5050505050815260200160048201805461134c90613f59565b80601f016020809104026020016040519081016040528092919081815260200182805461137890613f59565b80156113c55780601f1061139a576101008083540402835291602001916113c5565b820191906000526020600020905b8154815290600101906020018083116113a857829003601f168201915b505050505081526020016005820180546113de90613f59565b80601f016020809104026020016040519081016040528092919081815260200182805461140a90613f59565b80156114575780601f1061142c57610100808354040283529160200191611457565b820191906000526020600020905b81548152906001019060200180831161143a57829003601f168201915b5050505050815260200160068201805461147090613f59565b80601f016020809104026020016040519081016040528092919081815260200182805461149c90613f59565b80156114e95780601f106114be576101008083540402835291602001916114e9565b820191906000526020600020905b8154815290600101906020018083116114cc57829003601f168201915b5050505050815260200160078201805461150290613f59565b80601f016020809104026020016040519081016040528092919081815260200182805461152e90613f59565b801561157b5780601f106115505761010080835404028352916020019161157b565b820191906000526020600020905b81548152906001019060200180831161155e57829003601f168201915b505050505081526020016008820160009054906101000a900473ffffffffffffffffffffffffffffffffffffffff1673ffffffffffffffffffffffffffffffffffffffff1673ffffffffffffffffffffffffffffffffffffffff1681526020016009820154815250509050888160000181905250878160200181905250858160600181905250868160400181905250848160800181905250838160a00181905250828160c00181905250818160e001819052503381610100019073ffffffffffffffffffffffffffffffffffffffff16908173ffffffffffffffffffffffffffffffffffffffff168152505042816101200181815250506000339080600181540180825580915050600190039060005260206000200160009091909190916101000a81548173ffffffffffffffffffffffffffffffffffffffff021916908373ffffffffffffffffffffffffffffffffffffffff1602179055506001600260003373ffffffffffffffffffffffffffffffffffffffff1673ffffffffffffffffffffffffffffffffffffffff16815260200190815260200160002060006101000a81548160ff0219169083151502179055506003600081548092919061174090613f8b565b9190505550505050505050505050565b60075481565b600660003373ffffffffffffffffffffffffffffffffffffffff1673ffffffffffffffffffffffffffffffffffffffff16815260200190815260200160002060009054906101000a900460ff16156117ad57600080fd5b6000600560003373ffffffffffffffffffffffffffffffffffffffff1673ffffffffffffffffffffffffffffffffffffffff1681526020019081526020016000206040518060a001604052908160008201805461180990613f59565b80601f016020809104026020016040519081016040528092919081815260200182805461183590613f59565b80156118825780601f1061185757610100808354040283529160200191611882565b820191906000526020600020905b81548152906001019060200180831161186557829003601f168201915b5050505050815260200160018201805461189b90613f59565b80601f01602080910402602001604051908101604052809291908181526020018280546118c790613f59565b80156119145780601f106118e957610100808354040283529160200191611914565b820191906000526020600020905b8154815290600101906020018083116118f757829003601f168201915b5050505050815260200160028201805461192d90613f59565b80601f016020809104026020016040519081016040528092919081815260200182805461195990613f59565b80156119a65780601f1061197b576101008083540402835291602001916119a6565b820191906000526020600020905b81548152906001019060200180831161198957829003601f168201915b505050505081526020016003820160009054906101000a900473ffffffffffffffffffffffffffffffffffffffff1673ffffffffffffffffffffffffffffffffffffffff1673ffffffffffffffffffffffffffffffffffffffff168152602001600482015481525050905083816000018190525082816020018190525081816040018190525033816060019073ffffffffffffffffffffffffffffffffffffffff16908173ffffffffffffffffffffffffffffffffffffffff1681525050428160800181815250506004339080600181540180825580915050600190039060005260206000200160009091909190916101000a81548173ffffffffffffffffffffffffffffffffffffffff021916908373ffffffffffffffffffffffffffffffffffffffff1602179055506001600660003373ffffffffffffffffffffffffffffffffffffffff1673ffffffffffffffffffffffffffffffffffffffff16815260200190815260200160002060006101000a81548160ff02191690831515021790555060076000815480929190611b3c90613f8b565b919050555050505050565b60098181548110611b5757600080fd5b906000526020600020016000915054906101000a900473ffffffffffffffffffffffffffffffffffffffff1681565b600d8181548110611b9657600080fd5b906000526020600020016000915054906101000a900473ffffffffffffffffffffffffffffffffffffffff1681565b600260003373ffffffffffffffffffffffffffffffffffffffff1673ffffffffffffffffffffffffffffffffffffffff16815260200190815260200160002060009054906101000a900460ff16611c1b57600080fd5b6000600160003373ffffffffffffffffffffffffffffffffffffffff1673ffffffffffffffffffffffffffffffffffffffff168152602001908152602001600020905086816000019080519060200190611c76929190613107565b5085816001019080519060200190611c8f929190613107565b5084816004019080519060200190611ca8929190613107565b5083816005019080519060200190611cc1929190613107565b5082816006019080519060200190611cda929190613107565b5081816007019080519060200190611cf3929190613107565b5050505050505050565b600c8181548110611d0d57600080fd5b906000526020600020016000915054906101000a900473ffffffffffffffffffffffffffffffffffffffff1681565b600860009054906101000a900473ffffffffffffffffffffffffffffffffffffffff1681565b60106020528060005260406000206000915090508060000160009054906101000a900473ffffffffffffffffffffffffffffffffffffffff16908060010160009054906101000a900473ffffffffffffffffffffffffffffffffffffffff1690806002018054611dd190613f59565b80601f0160208091040260200160405190810160405280929190818152602001828054611dfd90613f59565b8015611e4a5780601f10611e1f57610100808354040283529160200191611e4a565b820191906000526020600020905b815481529060010190602001808311611e2d57829003601f168201915b505050505090806003018054611e5f90613f59565b80601f0160208091040260200160405190810160405280929190818152602001828054611e8b90613f59565b8015611ed85780601f10611ead57610100808354040283529160200191611ed8565b820191906000526020600020905b815481529060010190602001808311611ebb57829003601f168201915b505050505090806004015490806005018054611ef390613f59565b80601f0160208091040260200160405190810160405280929190818152602001828054611f1f90613f59565b8015611f6c5780601f10611f4157610100808354040283529160200191611f6c565b820191906000526020600020905b815481529060010190602001808311611f4f57829003601f168201915b505050505090806006018054611f8190613f59565b80601f0160208091040260200160405190810160405280929190818152602001828054611fad90613f59565b8015611ffa5780601f10611fcf57610100808354040283529160200191611ffa565b820191906000526020600020905b815481529060010190602001808311611fdd57829003601f168201915b50505050509080600701805461200f90613f59565b80601f016020809104026020016040519081016040528092919081815260200182805461203b90613f59565b80156120885780601f1061205d57610100808354040283529160200191612088565b820191906000526020600020905b81548152906001019060200180831161206b57829003601f168201915b50505050509080600801805461209d90613f59565b80601f01602080910402602001604051908101604052809291908181526020018280546120c990613f59565b80156121165780601f106120eb57610100808354040283529160200191612116565b820191906000526020600020905b8154815290600101906020018083116120f957829003601f168201915b50505050509080600901805461212b90613f59565b80601f016020809104026020016040519081016040528092919081815260200182805461215790613f59565b80156121a45780601f10612179576101008083540402835291602001916121a4565b820191906000526020600020905b81548152906001019060200180831161218757829003601f168201915b505050505090508a565b60026020528060005260406000206000915054906101000a900460ff1681565b600f6020528060005260406000206000915090508060000160009054906101000a900473ffffffffffffffffffffffffffffffffffffffff16908060010160009054906101000a900473ffffffffffffffffffffffffffffffffffffffff169080600201805461223d90613f59565b80601f016020809104026020016040519081016040528092919081815260200182805461226990613f59565b80156122b65780601f1061228b576101008083540402835291602001916122b6565b820191906000526020600020905b81548152906001019060200180831161229957829003601f168201915b5050505050908060030180546122cb90613f59565b80601f01602080910402602001604051908101604052809291908181526020018280546122f790613f59565b80156123445780601f1061231957610100808354040283529160200191612344565b820191906000526020600020905b81548152906001019060200180831161232757829003601f168201915b50505050509080600401805461235990613f59565b80601f016020809104026020016040519081016040528092919081815260200182805461238590613f59565b80156123d25780601f106123a7576101008083540402835291602001916123d2565b820191906000526020600020905b8154815290600101906020018083116123b557829003601f168201915b5050505050908060050180546123e790613f59565b80601f016020809104026020016040519081016040528092919081815260200182805461241390613f59565b80156124605780601f1061243557610100808354040283529160200191612460565b820191906000526020600020905b81548152906001019060200180831161244357829003601f168201915b50505050509080600601805461247590613f59565b80601f01602080910402602001604051908101604052809291908181526020018280546124a190613f59565b80156124ee5780601f106124c3576101008083540402835291602001916124ee565b820191906000526020600020905b8154815290600101906020018083116124d157829003601f168201915b50505050509080600701805461250390613f59565b80601f016020809104026020016040519081016040528092919081815260200182805461252f90613f59565b801561257c5780601f106125515761010080835404028352916020019161257c565b820191906000526020600020905b81548152906001019060200180831161255f57829003601f168201915b50505050509080600801805461259190613f59565b80601f01602080910402602001604051908101604052809291908181526020018280546125bd90613f59565b801561260a5780601f106125df5761010080835404028352916020019161260a565b820191906000526020600020905b8154815290600101906020018083116125ed57829003601f168201915b50505050509080600901805461261f90613f59565b80601f016020809104026020016040519081016040528092919081815260200182805461264b90613f59565b80156126985780601f1061266d57610100808354040283529160200191612698565b820191906000526020600020905b81548152906001019060200180831161267b57829003601f168201915b50505050509080600a0180546126ad90613f59565b80601f01602080910402602001604051908101604052809291908181526020018280546126d990613f59565b80156127265780601f106126fb57610100808354040283529160200191612726565b820191906000526020600020905b81548152906001019060200180831161270957829003601f168201915b505050505090508b565b60035481565b600a818154811061274657600080fd5b906000526020600020016000915054906101000a900473ffffffffffffffffffffffffffffffffffffffff1681565b6000818154811061278557600080fd5b906000526020600020016000915054906101000a900473ffffffffffffffffffffffffffffffffffffffff1681565b60066020528060005260406000206000915054906101000a900460ff1681565b60116020528060005260406000206000915090508060000160009054906101000a900473ffffffffffffffffffffffffffffffffffffffff16908060010160009054906101000a900473ffffffffffffffffffffffffffffffffffffffff169080600201805461284390613f59565b80601f016020809104026020016040519081016040528092919081815260200182805461286f90613f59565b80156128bc5780601f10612891576101008083540402835291602001916128bc565b820191906000526020600020905b81548152906001019060200180831161289f57829003601f168201915b5050505050908060030180546128d190613f59565b80601f01602080910402602001604051908101604052809291908181526020018280546128fd90613f59565b801561294a5780601f1061291f5761010080835404028352916020019161294a565b820191906000526020600020905b81548152906001019060200180831161292d57829003601f168201915b50505050509080600401805461295f90613f59565b80601f016020809104026020016040519081016040528092919081815260200182805461298b90613f59565b80156129d85780601f106129ad576101008083540402835291602001916129d8565b820191906000526020600020905b8154815290600101906020018083116129bb57829003601f168201915b5050505050908060050180546129ed90613f59565b80601f0160208091040260200160405190810160405280929190818152602001828054612a1990613f59565b8015612a665780601f10612a3b57610100808354040283529160200191612a66565b820191906000526020600020905b815481529060010190602001808311612a4957829003601f168201915b505050505090806006018054612a7b90613f59565b80601f0160208091040260200160405190810160405280929190818152602001828054612aa790613f59565b8015612af45780601f10612ac957610100808354040283529160200191612af4565b820191906000526020600020905b815481529060010190602001808311612ad757829003601f168201915b505050505090806007018054612b0990613f59565b80601f0160208091040260200160405190810160405280929190818152602001828054612b3590613f59565b8015612b825780601f10612b5757610100808354040283529160200191612b82565b820191906000526020600020905b815481529060010190602001808311612b6557829003601f168201915b5050505050905088565b60048181548110612b9c57600080fd5b906000526020600020016000915054906101000a900473ffffffffffffffffffffffffffffffffffffffff1681565b6005602052806000526040600020600091509050806000018054612bee90613f59565b80601f0160208091040260200160405190810160405280929190818152602001828054612c1a90613f59565b8015612c675780601f10612c3c57610100808354040283529160200191612c67565b820191906000526020600020905b815481529060010190602001808311612c4a57829003601f168201915b505050505090806001018054612c7c90613f59565b80601f0160208091040260200160405190810160405280929190818152602001828054612ca890613f59565b8015612cf55780601f10612cca57610100808354040283529160200191612cf5565b820191906000526020600020905b815481529060010190602001808311612cd857829003601f168201915b505050505090806002018054612d0a90613f59565b80601f0160208091040260200160405190810160405280929190818152602001828054612d3690613f59565b8015612d835780601f10612d5857610100808354040283529160200191612d83565b820191906000526020600020905b815481529060010190602001808311612d6657829003601f168201915b5050505050908060030160009054906101000a900473ffffffffffffffffffffffffffffffffffffffff16908060040154905085565b600660003373ffffffffffffffffffffffffffffffffffffffff1673ffffffffffffffffffffffffffffffffffffffff16815260200190815260200160002060009054906101000a900460ff1615612e46576040517f08c379a0000000000000000000000000000000000000000000000000000000008152600401612e3d90613dbe565b60405180910390fd5b60026000826020015173ffffffffffffffffffffffffffffffffffffffff1673ffffffffffffffffffffffffffffffffffffffff16815260200190815260200160002060009054906101000a900460ff1615612ed7576040517f08c379a0000000000000000000000000000000000000000000000000000000008152600401612ece90613dde565b60405180910390fd5b33816000019073ffffffffffffffffffffffffffffffffffffffff16908173ffffffffffffffffffffffffffffffffffffffff1681525050600981602001519080600181540180825580915050600190039060005260206000200160009091909190916101000a81548173ffffffffffffffffffffffffffffffffffffffff021916908373ffffffffffffffffffffffffffffffffffffffff16021790555080600e6000836020015173ffffffffffffffffffffffffffffffffffffffff1673ffffffffffffffffffffffffffffffffffffffff16815260200190815260200160002060008201518160000160006101000a81548173ffffffffffffffffffffffffffffffffffffffff021916908373ffffffffffffffffffffffffffffffffffffffff16021790555060208201518160010160006101000a81548173ffffffffffffffffffffffffffffffffffffffff021916908373ffffffffffffffffffffffffffffffffffffffff1602179055506040820151816002019080519060200190613064929190613107565b5060608201518160030155608082015181600401908051906020019061308b929190613107565b5060a08201518160050190805190602001906130a8929190613107565b5060c08201518160060190805190602001906130c5929190613107565b5060e08201518160070190805190602001906130e2929190613107565b50610100820151816008019080519060200190613100929190613107565b5090505050565b82805461311390613f59565b90600052602060002090601f016020900481019282613135576000855561317c565b82601f1061314e57805160ff191683800117855561317c565b8280016001018555821561317c579182015b8281111561317b578251825591602001919060010190613160565b5b509050613189919061318d565b5090565b5b808211156131a657600081600090555060010161318e565b5090565b60006131bd6131b884613e4a565b613e19565b9050828152602081018484840111156131d557600080fd5b6131e0848285613f17565b509392505050565b6000813590506131f781614072565b92915050565b600082601f83011261320e57600080fd5b813561321e8482602086016131aa565b91505092915050565b6000610120828403121561323a57600080fd5b613245610120613e19565b90506000613255848285016131e8565b6000830152506020613269848285016131e8565b602083015250604082013567ffffffffffffffff81111561328957600080fd5b613295848285016131fd565b60408301525060606132a984828501613393565b606083015250608082013567ffffffffffffffff8111156132c957600080fd5b6132d5848285016131fd565b60808301525060a082013567ffffffffffffffff8111156132f557600080fd5b613301848285016131fd565b60a08301525060c082013567ffffffffffffffff81111561332157600080fd5b61332d848285016131fd565b60c08301525060e082013567ffffffffffffffff81111561334d57600080fd5b613359848285016131fd565b60e08301525061010082013567ffffffffffffffff81111561337a57600080fd5b613386848285016131fd565b6101008301525092915050565b6000813590506133a281614089565b92915050565b6000602082840312156133ba57600080fd5b60006133c8848285016131e8565b91505092915050565b6000806000606084860312156133e657600080fd5b600084013567ffffffffffffffff81111561340057600080fd5b61340c868287016131fd565b935050602084013567ffffffffffffffff81111561342957600080fd5b613435868287016131fd565b925050604084013567ffffffffffffffff81111561345257600080fd5b61345e868287016131fd565b9150509250925092565b60008060008060008060c0878903121561348157600080fd5b600087013567ffffffffffffffff81111561349b57600080fd5b6134a789828a016131fd565b965050602087013567ffffffffffffffff8111156134c457600080fd5b6134d089828a016131fd565b955050604087013567ffffffffffffffff8111156134ed57600080fd5b6134f989828a016131fd565b945050606087013567ffffffffffffffff81111561351657600080fd5b61352289828a016131fd565b935050608087013567ffffffffffffffff81111561353f57600080fd5b61354b89828a016131fd565b92505060a087013567ffffffffffffffff81111561356857600080fd5b61357489828a016131fd565b9150509295509295509295565b600080600080600080600080610100898b03121561359e57600080fd5b600089013567ffffffffffffffff8111156135b857600080fd5b6135c48b828c016131fd565b985050602089013567ffffffffffffffff8111156135e157600080fd5b6135ed8b828c016131fd565b975050604089013567ffffffffffffffff81111561360a57600080fd5b6136168b828c016131fd565b965050606089013567ffffffffffffffff81111561363357600080fd5b61363f8b828c016131fd565b955050608089013567ffffffffffffffff81111561365c57600080fd5b6136688b828c016131fd565b94505060a089013567ffffffffffffffff81111561368557600080fd5b6136918b828c016131fd565b93505060c089013567ffffffffffffffff8111156136ae57600080fd5b6136ba8b828c016131fd565b92505060e089013567ffffffffffffffff8111156136d757600080fd5b6136e38b828c016131fd565b9150509295985092959890939650565b60006020828403121561370557600080fd5b600082013567ffffffffffffffff81111561371f57600080fd5b61372b84828501613227565b91505092915050565b60006020828403121561374657600080fd5b600061375484828501613393565b91505092915050565b60006137698383613775565b60208301905092915050565b61377e81613ecf565b82525050565b61378d81613ecf565b82525050565b600061379e82613e8a565b6137a88185613ead565b93506137b383613e7a565b8060005b838110156137e45781516137cb888261375d565b97506137d683613ea0565b9250506001810190506137b7565b5085935050505092915050565b6137fa81613ee1565b82525050565b600061380b82613e95565b6138158185613ebe565b9350613825818560208601613f26565b61382e81614061565b840191505092915050565b6000613846602a83613ebe565b91507f4f6e6c7920686f73706974616c732061726520616c6c6f77656420746f20616460008301527f64207265636f7264732e000000000000000000000000000000000000000000006020830152604082019050919050565b60006138ac602683613ebe565b91507f50617469656e74206164647265737320697320616c726561647920726567697360008301527f74657265642e00000000000000000000000000000000000000000000000000006020830152604082019050919050565b61390e81613f0d565b82525050565b60006020820190506139296000830184613784565b92915050565b600061010082019050613945600083018b613784565b613952602083018a613784565b81810360408301526139648189613800565b905081810360608301526139788188613800565b9050818103608083015261398c8187613800565b905081810360a08301526139a08186613800565b905081810360c08301526139b48185613800565b905081810360e08301526139c88184613800565b90509998505050505050505050565b6000610160820190506139ed600083018e613784565b6139fa602083018d613784565b8181036040830152613a0c818c613800565b90508181036060830152613a20818b613800565b90508181036080830152613a34818a613800565b905081810360a0830152613a488189613800565b905081810360c0830152613a5c8188613800565b905081810360e0830152613a708187613800565b9050818103610100830152613a858186613800565b9050818103610120830152613a9a8185613800565b9050818103610140830152613aaf8184613800565b90509c9b505050505050505050505050565b600061014082019050613ad7600083018d613784565b613ae4602083018c613784565b8181036040830152613af6818b613800565b90508181036060830152613b0a818a613800565b9050613b196080830189613905565b81810360a0830152613b2b8188613800565b905081810360c0830152613b3f8187613800565b905081810360e0830152613b538186613800565b9050818103610100830152613b688185613800565b9050818103610120830152613b7d8184613800565b90509b9a5050505050505050505050565b600061012082019050613ba4600083018c613784565b613bb1602083018b613784565b8181036040830152613bc3818a613800565b9050613bd26060830189613905565b8181036080830152613be48188613800565b905081810360a0830152613bf88187613800565b905081810360c0830152613c0c8186613800565b905081810360e0830152613c208185613800565b9050818103610100830152613c358184613800565b90509a9950505050505050505050565b60006020820190508181036000830152613c5f8184613793565b905092915050565b6000602082019050613c7c60008301846137f1565b92915050565b600060a0820190508181036000830152613c9c8188613800565b90508181036020830152613cb08187613800565b90508181036040830152613cc48186613800565b9050613cd36060830185613784565b613ce06080830184613905565b9695505050505050565b6000610140820190508181036000830152613d05818d613800565b90508181036020830152613d19818c613800565b90508181036040830152613d2d818b613800565b90508181036060830152613d41818a613800565b90508181036080830152613d558189613800565b905081810360a0830152613d698188613800565b905081810360c0830152613d7d8187613800565b905081810360e0830152613d918186613800565b9050613da1610100830185613784565b613daf610120830184613905565b9b9a5050505050505050505050565b60006020820190508181036000830152613dd781613839565b9050919050565b60006020820190508181036000830152613df78161389f565b9050919050565b6000602082019050613e136000830184613905565b92915050565b6000604051905081810181811067ffffffffffffffff82111715613e4057613e3f614032565b5b8060405250919050565b600067ffffffffffffffff821115613e6557613e64614032565b5b601f19601f8301169050602081019050919050565b6000819050602082019050919050565b600081519050919050565b600081519050919050565b6000602082019050919050565b600082825260208201905092915050565b600082825260208201905092915050565b6000613eda82613eed565b9050919050565b60008115159050919050565b600073ffffffffffffffffffffffffffffffffffffffff82169050919050565b6000819050919050565b82818337600083830152505050565b60005b83811015613f44578082015181840152602081019050613f29565b83811115613f53576000848401525b50505050565b60006002820490506001821680613f7157607f821691505b60208210811415613f8557613f84614003565b5b50919050565b6000613f9682613f0d565b91507fffffffffffffffffffffffffffffffffffffffffffffffffffffffffffffffff821415613fc957613fc8613fd4565b5b600182019050919050565b7f4e487b7100000000000000000000000000000000000000000000000000000000600052601160045260246000fd5b7f4e487b7100000000000000000000000000000000000000000000000000000000600052602260045260246000fd5b7f4e487b7100000000000000000000000000000000000000000000000000000000600052604160045260246000fd5b6000601f19601f8301169050919050565b61407b81613ecf565b811461408657600080fd5b50565b61409281613f0d565b811461409d57600080fd5b5056fea26469706673582212209d71a29b4b8adb51d9085873166ba96869eb1c34978e9aec731b61affec6218f64736f6c63430008000033",
  "immutableReferences": {},
  "source": "// SPDX-License-Identifier: MIT\r\npragma solidity >=0.4.22 <0.9.0;\r\n\r\nimport \"./Patient.sol\";\r\nimport \"./Hospital.sol\";\r\n\r\ncontract Records is PatientRecords, HospitalRecords {\r\n\r\n    constructor() {\r\n        owner = msg.sender;\r\n    }\r\n\r\n    struct MedicalHistory {\r\n        address hospitalAddr;\r\n        address patientAddr;\r\n        string physician;\r\n        uint dateOfDiagnosis;\r\n        string diagnosis;  // Additional Diagnostic Information\r\n        string symptoms;    \r\n        string durationSeverity; // Duration and Severity\r\n        string signs; // Signs\r\n        string relevantMedicalHistory;\r\n    }\r\n\r\n    struct MedicalProcedure {\r\n        address hospitalAddr;\r\n        address patientAddr;\r\n        string procedureType; \r\n        string hospital;\r\n        string medicalTeam;\r\n        string procedureDescription;\r\n        string procedureComplications;\r\n        string dateOfProcedure;\r\n        string preOperativeInstructions;     \r\n        string medication;\r\n        string purpose;\r\n    }\r\n\r\n    struct LaboratoryHistory {\r\n        address hospitalAddr;\r\n        address patientAddr;\r\n        string testType; //kung ano type ng test (blood test, urinalysis, etc)\r\n        string hospital;\r\n        uint dateOfTest;\r\n        string orderingPhysician; // Test Details\r\n        string testCategory; //kung ano category niya (ex. CBC, CTS, etc)\r\n        string resultsIpfsHash;  // Results (Upload file/IPFS hash)\r\n        string reviewingPhysician;\r\n        string interpretation;\r\n    }\r\n\r\n    struct HospitalizationRecord {\r\n        address hospitalAddr;\r\n        address patientAddr;\r\n        string admissionDate;\r\n        string dischargeDate;\r\n        string reasonForHospitalization;\r\n        string admittingDiagnosis;\r\n        string dischargeDiagnosis;\r\n        string hospitalName;\r\n    }\r\n\r\n    address public owner; // Address of the owner of the contract\r\n    address[] public medicalHistories;\r\n    address[] public medicalProcedures;\r\n    address[] public medicationPrescriptions;\r\n    address[] public laboratoryHistories;\r\n    address[] public hospitalizationRecords;\r\n\r\n    // Mapping to associate addresses with structs\r\n    mapping(address => MedicalHistory) public medicalHistory;\r\n    mapping(address => MedicalProcedure) public medicalProcedure;\r\n    mapping(address => LaboratoryHistory) public laboratoryHistory;\r\n    mapping(address => HospitalizationRecord) public hospitalizationRecord;\r\n\r\n    //Retrieve a list of all patients address\r\n    function getPatients() public view returns(address[] memory) {\r\n        return patientList;\r\n    }\r\n\r\n    //Retrieve a list of all doctors address\r\n    function getHospitals() public view returns(address[] memory) {\r\n        return hospitalList;\r\n    }\r\n\r\n    function addNewPatientMedicalHistory(MedicalHistory memory newRecord) public {\r\n    require(!isHospital[msg.sender], \"Only hospitals are allowed to add records.\");  // Only hospitals should have medical history records\r\n    require(!isPatient[newRecord.patientAddr], \"Patient address is already registered.\");\r\n\r\n    newRecord.hospitalAddr = msg.sender;\r\n\r\n    medicalHistories.push(newRecord.patientAddr); // Add the patient's address to the list of medical histories\r\n    medicalHistory[newRecord.patientAddr] = newRecord; // Store the medical history record in the mapping\r\n    }\r\n\r\n    /**\r\n    Note: Size of the contract code exceeds the limit of 24,576 bytes\r\n    -----HOSPITAL-----\r\n    addNewPatientMedicalProcedure\r\n    addNewPatientLaboratoryRecord\r\n    addNewPatientHospitalizationRecord\r\n    editPatientMedicalHistory\r\n    editPatientMedicalProcedure\r\n    editPatientHospitalizationRecord\r\n    searchRecords\r\n    getAllRecords\r\n    */\r\n}\r\n",
  "sourcePath": "C:\\Users\\Abby\\Desktop\\APPCON 2023\\MediVerse-Web3-Dapp\\contracts\\Records.sol",
  "compiler": {
    "name": "solc",
    "version": "0.8.0+commit.c7dfd78e.Emscripten.clang"
  },
  "schemaVersion": "3.4.16",
  "updatedAt": "2024-02-10T14:08:49.396Z",
  "networkType": "ethereum",
  "devdoc": {
    "kind": "dev",
    "methods": {},
    "version": 1
  },
  "userdoc": {
    "kind": "user",
    "methods": {},
    "version": 1
  }
}